:100000000C9465000C948D000C948D000C948D0064
:100010000C948D000C948D000C9497080C948D001A
:100020000C948D000C948D000C948D000C948D001C
:100030000C948D000C948D000C948D000C948D000C
:100040000C94AF020C948D000C9448060C947A0624
:100050000C948D000C948D000C948D000C948D00EC
:100060000C948D000C948D0000000008000201002B
:100070000003040700000000000000000102040863
:100080001020408001020408102001020408102002
:10009000040404040404040402020202020203032E
:1000A0000303030300000000250028002B000000CC
:1000B0000000240027002A008F00AA068508900867
:1000C000900B401295121816AF0011241FBECFEFEF
:1000D000D8E0DEBFCDBF12E0A0E0B1E0EEE6FEE387
:1000E00002C005900D92A436B107D9F724E0A4E62A
:1000F000B2E001C01D92A831B207E1F710E0C4E6FA
:10010000D0E004C02197FE010E94FF1ECC35D1072C
:10011000C9F70E94D8060C94CC1D0C9400000F93D4
:1001200000E020E040E060E084EC92E00E945E08A5
:1001300001E021E041E06AE08EEB92E00E945E087F
:1001400083EA92E00E94180B88E892E00E94180B64
:1001500063E172E088E692E00F910C94770588E6FF
:1001600092E00C9409050F931F93CF93DF9300D077
:1001700000D000D0CDB7DEB78C0140910C0150917A
:100180000D0184E392E09A8389838091C00290916B
:10019000C102A091C202B091C3028B839C83AD8344
:1001A000BE83BE016F5F7F4F88E892E00E948009A6
:1001B000B80188E892E00E94600488E892E00E941A
:1001C000880988E1EEE6F2E0DF011D928A95E9F701
:1001D00026960FB6F894DEBF0FBECDBFDF91CF914C
:1001E0001F910F910895EF92FF920F931F93CF935A
:1001F000DF93CDB7DEB72C970FB6F894DEBF0FBEF6
:10020000CDBF60E47FE186E793E00E940C0926E021
:1002100040E051EE60E070E083ED92E00E94AD07B7
:100220006CE171E083ED92E00E948D0461E084E076
:100230000E94F30361E084E00E94B70361E084E080
:100240000E94F30300E111E0F80161918F018091B8
:100250006402909165020E941C1F8091640290913B
:10026000650201969093650280936402F1E0063185
:100270001F0751F76091660280910A0190910B016E
:100280000E941C1F07E010E060E0C8010E941C1FD4
:100290000F5F1F4F011584E01807B1F765E371E0A8
:1002A00083ED92E00E948D0400E010E06EE571E0C5
:1002B00083ED92E00E948D04C8010E94141F4AE061
:1002C000682FCE0101960E94A305BE016F5F7F4F8C
:1002D00083ED92E00E947B04CE0101960E94090505
:1002E0000F5F1F4F0830110509F710EAE12E1FE0DC
:1002F000F12E00E010E020E63AEE40E050E060E150
:1003000071E080E993E00E941611892B31F465E6D3
:1003100071E083ED92E00E946E0460910C01709197
:100320000D0188E892E00E94010A60910E0170912F
:100330000F0183EA92E00E94010A6CED75E080E013
:1003400090E00E942A0300E010E06DE871E0CE0129
:1003500001960E947705CE0101960E94B300CE015E
:1003600001960E9409056DEA71E0CE0101960E9496
:100370007705CE0101960E94B300CE0101960E943E
:1003800009054AE0B801CE0101960E94D005CE01D0
:1003900001960E94B300CE0101960E9409056EE508
:1003A00071E083ED92E00E946E04C8010E94141F68
:1003B0004AE0682FCE0101960E94A305BE016F5F3F
:1003C0007F4F83ED92E00E946004CE0101960E946F
:1003D00009050F5F1F4F0830110509F0B6CF67EB15
:1003E00071E0CE0101960E947705CE0101960E9430
:1003F000B300CE0101960E94090560E973E0CE01C9
:1004000007960E94181249855A856B857C852AE0DB
:10041000CE0101960E94FC05CE0101960E94B30018
:10042000CE0101960E9409052C960FB6F894DEBF06
:100430000FBECDBFDF91CF911F910F91FF90EF9035
:100440000895CF93DF93CDB7DEB762970FB6F894D8
:10045000DEBF0FBECDBF48E150E06EE672E083EA3A
:1004600092E00E94C9096EE672E0CE010D960E94EC
:10047000770580918602909187021816190664F517
:1004800048E150E06EE672E083EA92E00E94C9091A
:100490006EE672E0CE0107960E94770563EC71E08C
:1004A000CE0107960E942906882391F069EC71E03D
:1004B000CE0101960E947705CE0101960E94B300FD
:1004C000CE0101960E94090560E084E00E94F303DA
:1004D000CE0107960E940905CE010D960E940905DE
:1004E00062960FB6F894DEBF0FBECDBFDF91CF91FD
:1004F0000895CF93DF9300D000D000D0CDB7DEB702
:100500006AEE71E0CE0101960E947705CE01019658
:100510000E94B300CE0101960E94090583EA92E091
:100520000E942E0A9093870280938602181619065D
:1005300014F40E94210288E1EEE6F2E0DF011D9250
:100540008A95E9F780E993E00E94B31126960FB6E9
:10055000F894DEBF0FBECDBFDF91CF9108951F92FB
:100560000F920FB60F9211242F933F938F939F9367
:10057000AF93BF938091CB029091CC02A091CD021A
:10058000B091CE023091CA0223E0230F2D3720F420
:100590000196A11DB11D05C026E8230F0296A11DDD
:1005A000B11D2093CA028093CB029093CC02A093FA
:1005B000CD02B093CE028091CF029091D002A09153
:1005C000D102B091D2020196A11DB11D8093CF023C
:1005D0009093D002A093D102B093D202BF91AF9179
:1005E0009F918F913F912F910F900FBE0F901F9071
:1005F00018952FB7F8946091CB027091CC0280913E
:10060000CD029091CE022FBF08953FB7F89480910C
:10061000CF029091D002A091D102B091D20226B522
:10062000A89B05C02F3F19F00196A11DB11D3FBF2A
:10063000BA2FA92F982F8827820F911DA11DB11DB8
:10064000BC01CD0142E0660F771F881F991F4A95B4
:10065000D1F70895CF92DF92EF92FF92CF93DF937D
:100660006B017C010E940503EB01C114D104E1047C
:10067000F10489F00E948D030E9405036C1B7D0B21
:10068000683E734090F381E0C81AD108E108F10890
:10069000C851DC4FEACFDF91CF91FF90EF90DF9010
:1006A000CF900895789484B5826084BD84B58160CC
:1006B00084BD85B5826085BD85B5816085BDEEE66A
:1006C000F0E0808181608083E1E8F0E01082808149
:1006D00082608083808181608083E0E8F0E08081B7
:1006E00081608083E1EBF0E0808184608083E0EBD7
:1006F000F0E0808181608083EAE7F0E080818460BF
:10070000808380818260808380818160808380811A
:10071000806880831092C10008950895833081F02D
:1007200028F4813099F08230A1F008958730A9F043
:100730008830B9F08430D1F4809180008F7D03C07F
:10074000809180008F7780938000089584B58F77A3
:1007500002C084B58F7D84BD08958091B0008F77ED
:1007600003C08091B0008F7D8093B0000895CF9337
:10077000DF9390E0FC01E458FF4F2491FC01E05727
:10078000FF4F8491882361F190E0880F991FFC014D
:10079000E255FF4FC591D491FC01EC55FF4FA59157
:1007A000B491611109C09FB7F89488812095822384
:1007B0008883EC912E230BC0623061F49FB7F894CC
:1007C0003881822F809583238883EC912E2B2C9364
:1007D0009FBF06C08FB7F894E8812E2B28838FBF68
:1007E000DF91CF9108951F93CF93DF93282F30E0AF
:1007F000F901E859FF4F8491F901E458FF4FD49172
:10080000F901E057FF4FC491CC23C9F0162F811195
:100810000E948E03EC2FF0E0EE0FFF1FEC55FF4F10
:10082000A591B4918FB7F894111105C09C91ED2F4B
:10083000E095E92302C0EC91ED2BEC938FBFDF91A3
:10084000CF911F910895CF92DF92EF92FF920F9375
:100850001F93CF93DF936C01EB017B01E40EF51E38
:1008600000E010E0CE15DF0561F06991D601ED9151
:10087000FC910190F081E02DC6010995080F191F28
:10088000F1CFC801DF91CF911F910F91FF90EF90B1
:10089000DF90CF9008956115710579F0FB0101900B
:1008A0000020E9F73197AF01461B570BDC01ED91B2
:1008B000FC910280F381E02D099480E090E008959E
:1008C000DC01ED91FC91DB0114964D915C91159743
:1008D0006D917C910280F381E02D09940C944B047E
:1008E000DC01ED91FC910190F081E02D099461E132
:1008F00072E00C944B040F931F93CF93DF93EC01A2
:100900000E9460048C01CE010E947704800F911F29
:10091000DF91CF911F910F9108950F931F93CF9364
:10092000DF93EC010E944B048C01CE010E947704FE
:10093000800F911FDF91CF911F910F9108958F929A
:100940009F92AF92BF92CF92DF92EF92FF920F935E
:100950001F93CF93DF93CDB7DEB7A1970FB6F8946F
:10096000DEBF0FBECDBF6C01142FE52FCB01022FD0
:1009700019A2223008F40AE07E0121E2E20EF11C05
:10098000802E912CA12CB12C612F7E2FA5019401DA
:100990000E946D1E029F1019112481E0E81AF108CF
:1009A0001A3014F4105D01C0195CF7011083122F86
:1009B000E32FCA01232B242B252B31F7B701C601C6
:1009C0000E944B04A1960FB6F894DEBF0FBECDBFB8
:1009D000DF91CF911F910F91FF90EF90DF90CF901B
:1009E000BF90AF909F908F9008952115310541F4ED
:1009F000DC01ED91FC910190F081E02D642F0994D0
:100A00000C949F049A01462F50E060E070E00C9433
:100A1000F504FC01808191810C940E1CCF93DF932F
:100A2000EC0188819981009711F00E940E1C1982B7
:100A300018821D821C821B821A82DF91CF91089539
:100A40000F931F93CF93DF93EC018B016F5F7F4F69
:100A5000888199810E94021D009731F099838883D3
:100A60001B830A8381E001C080E0DF91CF911F9159
:100A70000F910895CF93DF93EC0188819981892BA1
:100A800029F08A819B818617970760F4CE010E9426
:100A90002005882341F08C819D81892B19F4E88100
:100AA000F981108281E0DF91CF910895EF92FF925A
:100AB0000F931F93CF93DF93EC017B018A01BA015F
:100AC0000E943A05811104C0CE010E940E0507C0A4
:100AD0001D830C83B701888199810E94EE1DCE0190
:100AE000DF91CF911F910F91FF90EF900895FC013E
:100AF000118210821382128215821482611571058F
:100B000051F0FB0101900020E9F73197AF01461B3E
:100B1000570B0C9456050895CF93DF93EC016115A4
:100B2000710559F0FB0101900020E9F73197AF0101
:100B3000461B570B0E94560502C00E940E05CE01AF
:100B4000DF91CF9108950F931F93CF93DF93CDB78C
:100B5000DEB729970FB6F894DEBF0FBECDBF8C016C
:100B6000862FF8011182108213821282158214825C
:100B700050E0BE016F5F7F4F90E00E94381EBE01C3
:100B80006F5F7F4FC8010E948C0529960FB6F894BD
:100B9000DEBF0FBECDBFDF91CF911F910F910895A2
:100BA0000F931F93CF93DF93CDB7DEB762970FB646
:100BB000F894DEBF0FBECDBF8C01CB01F8011182CE
:100BC0001082138212821582148250E0BE016F5F80
:100BD0007F4F0E94F51DBE016F5F7F4FC8010E94CD
:100BE0008C0562960FB6F894DEBF0FBECDBFDF91C5
:100BF000CF911F910F9108950F931F93CF93DF9380
:100C0000CDB7DEB7A1970FB6F894DEBF0FBECDBF4C
:100C10008C01CB01BA01F801118210821382128279
:100C20001582148230E0AE014F5F5F4F0E940B1EB1
:100C3000BE016F5F7F4FC8010E948C05A1960FB661
:100C4000F894DEBF0FBECDBFDF91CF911F910F9102
:100C50000895FC0124813581232B31F421E06115B5
:100C60007105A1F0FB0108C0FC0180819181611533
:100C7000710531F421E0FC018081882339F005C041
:100C80000E94E51D21E0892B09F020E0822F0895C4
:100C90001F920F920FB60F9211242F938F939F9351
:100CA000EF93FF93E091E302F091E4028081E09101
:100CB000E902F091EA0282FD12C090818091EC027B
:100CC0008F5F8F732091ED02821751F0E091EC025B
:100CD000F0E0ED52FD4F958F8093EC0201C08081D2
:100CE000FF91EF919F918F912F910F900FBE0F90D9
:100CF0001F9018951F920F920FB60F9211242F93E9
:100D00003F934F935F936F937F938F939F93AF9393
:100D1000BF93EF93FF9383ED92E00E942307FF912F
:100D2000EF91BF91AF919F918F917F916F915F9163
:100D30004F913F912F910F900FBE0F901F901895DC
:100D400083ED92E00E94E70621E0892B09F420E080
:100D5000822F0895E3EDF2E01382128288EE93E091
:100D6000A0E0B0E084839583A683B78384E292E019
:100D70009183808385EC90E09587848784EC90E074
:100D80009787868780EC90E0918B808B81EC90E058
:100D9000938B828B82EC90E0958B848B86EC90E039
:100DA000978B868B118E128E138E148E0895089554
:100DB0000E9452030E94D7060E94F300C5E1D7E0CB
:100DC0000E9479022097E1F30E941507F9CFFC01F8
:100DD000918D228D892F90E0805C9F4F821B91091D
:100DE0008F7399270895FC01918D828D981731F0AA
:100DF000828DE80FF11D858D90E008958FEF9FEFB4
:100E00000895FC01918D828D981761F0828DDF012C
:100E1000A80FB11D5D968C91928D9F5F9F73928FED
:100E200090E008958FEF9FEF089580EA96E0892B78
:100E300049F080E090E0892B29F00E94A006811102
:100E40000C9400000895FC01848DDF01A80FB11DF2
:100E5000A35ABF4F2C91848D90E001968F739927F0
:100E6000848FA689B7892C93A089B1898C918064DD
:100E70008C93938D848D981306C00288F389E02D9E
:100E800080818F7D80830895CF93DF93EC01888DDF
:100E90008823C9F0EA89FB89808185FD05C0A8897E
:100EA000B9898C9186FD0FC00FB607FCF5CF808104
:100EB00085FFF2CFA889B9898C9185FFEDCFCE014E
:100EC0000E942307E7CFDF91CF910895EF92FF9221
:100ED0000F931F93CF93DF93EC0181E0888F9B8D5D
:100EE0008C8D981305C0E889F989808185FD24C01F
:100EF000F62E0B8D10E00F5F1F4F0F731127E02EA2
:100F00008C8DE8120CC00FB607FCFACFE889F9897E
:100F1000808185FFF5CFCE010E942307F1CF8B8D15
:100F2000FE01E80FF11DE35AFF4FF0820B8FEA89B3
:100F3000FB898081806207C0EE89FF896083E88930
:100F4000F98980818064808381E090E0DF91CF9196
:100F50001F910F91FF90EF900895CF92DF92EF9243
:100F6000FF921F93CF93DF93EC016A017B01122F55
:100F7000E889F98982E080834115514E6105710548
:100F8000B1F060E079E08DE390E0A70196010E9466
:100F90006D1EDA01C9010197A109B109B695A7959E
:100FA00097958795AC01411580E15807A8F0E8892D
:100FB000F989108260E874E88EE190E0A70196015B
:100FC0000E946D1EBA01A9014150510961097109C0
:100FD0007695679557954795EC85FD855083EE8509
:100FE000FF854083188EEC89FD891083EA89FB898F
:100FF000808180618083EA89FB8980818860808329
:10100000EA89FB89808180688083EA89FB89808105
:101010008F7D8083DF91CF911F91FF90EF90DF90C4
:10102000CF9008958F929F92AF92BF92CF92DF920E
:10103000EF92FF920F931F93CF93DF937C018B016D
:101040006C0182E0C80ED11C4701E5E08E0E911CB8
:10105000C0E0D0E0F60161916F014AE050E0C801C4
:101060000E9402055C016EE2C8010E9470048A0DB4
:101070009B1DC80FD91FC814D90461F74AE050E07E
:10108000F7016581C8010E9402058C0F9D1FDF9149
:10109000CF911F910F91FF90EF90DF90CF90BF9075
:1010A000AF909F908F90089524E332E0FC0131834C
:1010B0002083128213821482158208950F93FC01FB
:1010C00084E392E091838083628343832483058356
:1010D0000F91089524E332E0FC0131832083FB016A
:1010E0004081518162817381FC0142835383648317
:1010F00075830895FB014081518162817381FC01F8
:1011000042835383648375830895E0E7F3E084E3C7
:1011100092E0918380831282138214821582089553
:101120008FEF9FEF909377038093760308951F923C
:101130000F920FB60F9211240F900FBE0F901F90B9
:101140001895DA01F90160348FE178071CF4611514
:10115000710539F489E090E08D939C9380E49FE1E0
:1011600058C0603A8FE078073CF088E090E08D93BB
:101170009C9380EA9FE04DC0603D87E078073CF09B
:1011800087E090E08D939C9380ED97E042C0683EAD
:1011900083E078073CF086E090E08D939C9388EEA6
:1011A00093E037C0643F81E078073CF085E090E051
:1011B0008D939C9384EF91E02CC06A3F71053CF0C5
:1011C00084E090E08D939C938AEF90E022C0683792
:1011D00071053CF083E090E08D939C9388E790E06C
:1011E00018C06C3371053CF082E090E08D939C93C5
:1011F0008CE390E00EC06E3171053CF081E090E030
:101200008D939C938EE190E004C01D921C928FE020
:1012100090E09183808308950F931F93CF93DF9382
:1012200000D0CDB7DEB78C019E012F5F3F4FAC01E0
:101230000E94A108F801808183FD02C098E001C0EE
:1012400098E28770892B98E10FB6F894A89590934F
:1012500060000FBE8093600089819A810F900F908B
:10126000DF91CF911F910F910895DC01ED91FC91D9
:10127000008CF18DE02D099424E332E0FC013183F0
:101280002083FB014089518962897389FC01428373
:101290005383648375830895FC0184899589089537
:1012A000FC01818D928D0895CF93DF931F92CDB76E
:1012B000DEB76983DC01ED91FC910280F381E02DC2
:1012C00041E050E0BE016F5F7F4F09950F90DF91C5
:1012D000CF9108950895CF93DF93EC01888D8430EA
:1012E00061F00E94EB0EE88DF0E0EE0FFF1FEA5078
:1012F000FC4F1182108284E0888FDF91CF91089596
:10130000FC01178A168A6E5F7F4F808D0C946910DE
:10131000FC01808D0C94AF10CF93DF93EC019A0108
:101320008E899F89AB01BC01888D0E9422102E8975
:101330003F89280F391F3F8B2E8BDF91CF91089566
:101340000F931F93CF93DF931F92CDB7DEB7FC01AE
:10135000218D328D232B61F08C0141E050E0BE01E4
:101360006F5F7F4F808D0E94680F181619061CF062
:101370008FEF9FEF08C0F801818D928D0197928FBA
:10138000818F898190E00F90DF91CF911F910F9114
:101390000895CF93DF93FC01218D328D2115310506
:1013A00019F48FEF9FEF11C0EC014217530708F0BB
:1013B000A901888D0E94680F1816190694F7298DC7
:1013C0003A8D281B390B3A8F298FDF91CF910895E1
:1013D000CF93DF931F92CDB7DEB7FC01218D328D05
:1013E000232B49F0BE016F5F7F4F808D0E94F30F6A
:1013F000898190E002C08FEF9FEF0F90DF91CF9136
:101400000895EF92FF921F93CF93DF93FC01208DFD
:10141000243011F080E01CC07B01EC0110E0812F32
:101420000E94C30E811102C0188F05C08831E1F3FC
:101430001F5F1430A1F7888D843061F3FD86EC8640
:101440001A8E198E20E0A70162E00E94150F81E03C
:10145000DF91CF911F91FF90EF9008950F931F930D
:10146000CF93DF93CDB7DEB728970FB6F894DEBFE2
:101470000FBECDBF8C01F801818D928D892B49F073
:10148000D801ED91FC910680F781E02DC801099506
:10149000F2CF808D0E94C80F1816190654F548E047
:1014A00050E0BE016F5F7F4FD80158968C910E942B
:1014B000680F9C0118161906D4F4BE016F5F7F4FA8
:1014C000C8010E960E947A088D8190E0982F882797
:1014D0002E81820F911DF801958B848B2F8130E036
:1014E000322F22278885280F311D328F218FC90185
:1014F00002C080E090E028960FB6F894DEBF0FBEE1
:10150000CDBFDF91CF911F910F9108958F929F9240
:10151000AF92BF92CF92DF92EF92FF920F931F9301
:10152000CF93DF9300D000D000D0CDB7DEB7FC0161
:10153000208D243009F068C06A017B018C0153E0E2
:10154000852E54E0952EA12CB12CC4010E94690C6B
:10155000811103C0F801A08E0AC08831D9F3FFEFD2
:10156000AF1ABF0A9394E4E0AE16B10471F7F80124
:10157000808D843009F448C096E0E6E1F1E0DE01B8
:10158000119601900D929A95E1F7F70193819F775B
:101590009C8394819D8395819E83B7016E5F7F4F6D
:1015A00090E0982F882744E050E0845F9B4F0E9492
:1015B0003A0CF801E08CF12CF4E0EF0EF11CFE2C5B
:1015C000EE246D2DC70140960E94A60B6C2DC7011D
:1015D00041960E94A60BF801808D90E0982F8827F5
:1015E00046E050E0BE016F5F7F4F8A5F9B4F0E94D5
:1015F0003A0CF801128E118E20E8A60162E0808D6F
:101600000E94150F81E001C080E026960FB6F89485
:10161000DEBF0FBECDBFDF91CF911F910F91FF9025
:10162000EF90DF90CF90BF90AF909F908F900895F4
:10163000CF93DF93EC011B821A8288EE93E0A0E047
:10164000B0E08C839D83AE83BF838AE392E099836D
:101650008883CE010E960E94540884E0888FDF9123
:10166000CF910895CF92DF92EF92FF920F931F9345
:10167000CF93DF93CDB7DEB7AF970FB6F894DEBF49
:101680000FBECDBF8C016B017A01CE0101960E9485
:101690005408CE0109960E94180BCE018A960E942A
:1016A000540860E973E0CE0184960E943012BE01B6
:1016B0006C5D7F4FCE0101960E945212AE01465DD5
:1016C0005F4FB601CE0101960E94C1148130910591
:1016D000C1F4D801ED91FC910088F189E02D84E3FB
:1016E00092E09DA38CA38CA59DA5AEA5BFA58EA3BE
:1016F0009FA3A8A7B9A7A701BE016C5D7F4FC80132
:101700000995AF960FB6F894DEBF0FBECDBFDF913F
:10171000CF911F910F91FF90EF90DF90CF900895A0
:101720000F9300E020E040E060E088E793E00E9453
:101730005E080F9108958EBD00000DB407FEFDCF29
:101740008EB508952A9808952A9A08951F93CF93E5
:10175000DF9300D0CDB7DEB7182F6A8399830E943C
:10176000A20B80EF0E949B0B9981892F0E949B0BFB
:10177000812F0E949B0B6A81862F0E949B0B0E94E7
:10178000A40B81E00F900F90DF91CF911F910895EE
:10179000CF93DF93EC016CE271E080E090E00E9477
:1017A0002A030E944F15229A80910C04882399F0F5
:1017B0002FB7F89480910C04813059F48DB3809345
:1017C0000A049DB380910B04809589238DBB2FBFA4
:1017D00002C020930A0480E58CBD1DBC60E880E057
:1017E00090E00E94A60B65E58BE190E00E94A60BBD
:1017F00065E58AE190E00E94A60B80910C048823A5
:1018000051F09FB7F89420910C0480910A04213084
:1018100029F58DBB9FBF80E090E49983888380E0A9
:1018200090E69987888780E098E49B838A8380E0AC
:1018300098E69B878A8780E090E59D838C8380E093
:1018400090E79D878C8780E098E59F838E8380E07A
:1018500098E79F878E87DF91CF9108958FBFDBCF69
:101860009B0190E00496982F8827642F820F931F86
:101870000C94A60BCF92DF92EF92FF920F931F93DF
:10188000CF93DF93EC017A018B016C01C40ED51E5E
:10189000CC15DD05A1F00E94A20B80EF0E949B0BEE
:1018A0008D2F0E949B0B8C2F0E949B0B2196F80181
:1018B00081918F010E949B0B0E94A40BE9CFC7016D
:1018C000DF91CF911F910F91FF90EF90DF90CF901C
:1018D00008951F93CF93DF931F92CDB7DEB7182FD4
:1018E00099830E94A20B8FE00E949B0B9981892F04
:1018F0000E949B0B812F0E949B0B80E00E949B0B00
:1019000089830E94A40B89810F90DF91CF911F9151
:10191000089590E00496982F8827860F971F0C94BF
:10192000690C1F93CF93DF93182F60E270E00E9441
:10193000890CC82FD0E061E270E0812F0E94890CF1
:10194000DC2FCC279E01282BC901DF91CF911F915D
:101950000895FF920F931F93CF93DF93F62EC0E06D
:10196000D0E08F2D0E94910C8C01892B21F08F2DBE
:101970000E94910CEC01C017D10799F7CE01DF91BD
:10198000CF911F910F91FF9008951F93CF93DF93F5
:10199000182F66E270E00E94890CC82FD0E067E241
:1019A00070E0812F0E94890CDC2FCC279E01282B10
:1019B000C901DF91CF911F910895FF920F931F935B
:1019C000CF93DF93F62EC0E0D0E08F2D0E94C50CA0
:1019D0008C01892B21F08F2D0E94C50CEC01C017C2
:1019E000D10799F7CE01DF91CF911F910F91FF9011
:1019F00008956F927F928F929F92AF92BF92CF92F3
:101A0000DF92EF92FF920F931F93CF93DF931F927A
:101A1000CDB7DEB7882E962E6A01590164E270E0D8
:101A2000892D99830E94890CE82EF12C65E270E0E3
:101A3000892D0E94890CFE2CEE24E82A37016C0CBB
:101A40007D1CA3015770E82C9981F92EE90CF11C3B
:101A5000E90CF11CF70180819181840F951F9A0197
:101A6000200F311F2130384098F060E078E06B01A2
:101A7000C41AD50AA601B5010E943A0CA8014C1956
:101A80005D09B5016C0D7D1DF7018081918102C05A
:101A9000A801B5010E943A0C060D171D412F64E202
:101AA00070E0892D0E94300C402F65E270E0892D96
:101AB0000F90DF91CF911F910F91FF90EF90DF90EA
:101AC000CF90BF90AF909F908F907F906F900C942D
:101AD000300CCF92DF92EF92FF920F931F93CF9330
:101AE000DF93EC017A018B016C01C40ED51ECC157D
:101AF000DD05A9F00E94A20B8FE00E949B0B8D2FA9
:101B00000E949B0B8C2F0E949B0B219680E00E94D1
:101B10009B0BF80181938F010E94A40BE8CFC701B2
:101B2000DF91CF911F910F91FF90EF90DF90CF90B9
:101B30000895AF92BF92CF92DF92EF92FF920F93F0
:101B40001F93CF93DF9300D0CDB7DEB75A8349837D
:101B5000590129813A8137706C01C60ED11CC60E1D
:101B6000D11CF60180859185820F931FA801420F39
:101B7000531F4130584098F0E0E0F8E07F01E21A4E
:101B8000F30AA701B5010E94690DA8014E195F096A
:101B9000B5016E0D7F1DF6018085918502C0A801FB
:101BA000B5010F900F90DF91CF911F910F91FF9092
:101BB000EF90DF90CF90BF90AF900C94690D8F9213
:101BC0009F92AF92BF92CF92DF92EF92FF920F93CC
:101BD0001F93CF93DF936C01962E5A017901802ECB
:101BE00068E270E0892D0E94890CC82FD0E069E27C
:101BF00070E0892D0E94890CDC2FCC27C82B87012F
:101C00009501AE01692DC6010E94990D81101AC07F
:101C1000CE0DDF1D4D2F68E270E0892D0E94300C43
:101C20004C2F69E270E0892DDF91CF911F910F91C8
:101C3000FF90EF90DF90CF90BF90AF909F908F90EC
:101C40000C94300CDF91CF911F910F91FF90EF908A
:101C5000DF90CF90BF90AF909F908F900895CF93DB
:101C6000C62F61E070E08C2F0E94300C61E070E0C4
:101C70008C2F0E94890C8111F9CFCF9108950F9379
:101C8000FC0130E080E092E1AAE7B0E04817590794
:101C90006A077B0740F4B695A795979587953F5FB0
:101CA0003630A1F737E091E09327222311F020E5A9
:101CB00001C020E7892F86950C70082B022B00832A
:101CC000917091830F91089520910C04222399F033
:101CD0004FB7F89420910C04213059F42DB3209380
:101CE0000A043DB320910B04209523232DBB4FBF45
:101CF00002C040930A048CBD9DBD089580910C04E0
:101D0000882361F09FB7F89420910C0480910A0415
:101D1000213019F48DBB9FBF08958FBF089590E0C7
:101D2000982F882744E050E0845F9B4F0C943A0C36
:101D300062E070E00C94890CCF93DF93C82FD62F0C
:101D4000472F64E070E00E94300C4D2F65E070E09A
:101D50008C2FDF91CF910C94300C462F62E070E015
:101D60000C94300CCF93DF93C82FD62F472F60E110
:101D700070E00E94300C4D2F61E170E08C2FDF91FC
:101D8000CF910C94300C0F931F93CF93DF9300D01F
:101D90001F92CDB7DEB7182F00E021E040E059E0F8
:101DA0006DE370E0CE0101960E943F0E89819A8119
:101DB0000E94640E63E070E0812F0E94890C8B8387
:101DC0000E947E0E8B810F900F900F90DF91CF912C
:101DD0001F910F9108950F931F93CF93DF9300D01E
:101DE000CDB7DEB7182F00E021E040E059E06DE309
:101DF00070E0CE0101960E943F0E89819A810E9477
:101E0000640E40E150E0612F8EE793E00E942F0EB8
:101E10006FEF812F0E94AD0E0E947E0E0F900F90EB
:101E2000DF91CF911F910F910895CF92DF92EF92A2
:101E3000FF920F931F93CF93DF9300D0CDB7DEB700
:101E40009FEF960F9530C0F5F22E6A01E62E182FFF
:101E50000E94EB0E00E021E040E059E06DE370E00D
:101E6000CE0101960E943F0E89819A810E94640EE4
:101E70004E2D4F2960E070E0812F0E94300CC1147C
:101E8000D10411F0B6010AC060918E0370918F03E6
:101E90006F5F7F4F70938F0360938E03812F0E943B
:101EA0009C0E41E050E0612F8EE793E00E942F0EE0
:101EB0000E947E0E81E001C080E00F900F90DF91C4
:101EC000CF911F910F91FF90EF90DF90CF900895E9
:101ED000AF92BF92CF92DF92EF92FF920F931F9338
:101EE000CF93DF9300D0CDB7DEB7182F5B016A0127
:101EF00000E021E040E059E06DE370E0CE010196A2
:101F00000E943F0E89819A810E94640E612F8EE7A4
:101F100093E00E94DD0C7C010097A1F463E070E087
:101F2000812F0E94890C843119F1882309F121E065
:101F300030E08C3111F420E030E0EE24FF24E21A8E
:101F4000F30A16C0C816D9060CF476011E141F0435
:101F50007CF400E09701A501612F8EE793E00E94D9
:101F6000DF0D40E450E0612F8EE793E00E942F0EDA
:101F70000E947E0EC7010F900F90DF91CF911F91AD
:101F80000F91FF90EF90DF90CF90BF90AF900895AA
:101F90000F931F93CF93DF9300D000D0CDB7DEB760
:101FA000182F00E021E040E059E06DE370E0CE0141
:101FB00001960E943F0E89819A810E94640E612FD2
:101FC0008EE793E00E94DD0C8B839C830E947E0E43
:101FD0008B819C810F900F900F900F90DF91CF918C
:101FE0001F910F910895EF92FF920F931F93CF933C
:101FF000DF9300D0CDB7DEB7182F7B0100E021E0E2
:1020000040E059E06DE370E0CE0101960E943F0E82
:1020100089819A810E94640E01E021E030E0A701ED
:10202000612F8EE793E00E94DF0D0E947E0E81E01B
:1020300090E00F900F90DF91CF911F910F91FF9043
:10204000EF9008958F929F92AF92BF92DF92EF929E
:10205000FF920F931F93CF93DF9300D0CDB7DEB7DE
:10206000D82E5B014A01790100E021E040E059E00F
:102070006DE370E0CE0101960E943F0E89819A8146
:102080000E94640E6D2D8EE793E00E94A90C8E15C0
:102090009F0530F46D2D8EE793E00E94A90C7C0122
:1020A00087019401A5016D2D8EE793E00E94F90C44
:1020B0000E947E0EC7010F900F90DF91CF911F916C
:1020C0000F91FF90EF90DF90BF90AF909F908F9017
:1020D0000895CF92DF92EF92FF920F931F93CF93C9
:1020E000DF9300D0CDB7DEB7FB019081911109C01D
:1020F0009181911106C09281911103C0938199231E
:1021000009F141155105F1F06A017F01182F00E036
:1021100021E040E059E06DE370E0CE0101960E94BD
:102120003F0E89819A810E94640EB701812F0E941F
:102130008F0EB601812F0E94B20E0E947E0E81E0AA
:1021400090E002C080E090E00F900F90DF91CF917F
:102150001F910F91FF90EF90DF90CF9008950F9314
:102160001F93CF93DF9300D0CDB7DEB7182F00E0D9
:1021700021E040E059E06DE370E0CE0101960E945D
:102180003F0E89819A810E94640E40E250E0612FE7
:102190008EE793E00E942F0E812F0E94980E84FDFF
:1021A00021C0812F0E94980E83FF09C068E1812F12
:1021B0000E94AD0E0E947E0E80E090E01BC00E9447
:1021C0007E0E0E948D0300E021E040E059E06DE3C7
:1021D00070E0CE0101960E943F0E89819A810E9493
:1021E000640EDACF60E1812F0E94AD0E0E947E0E58
:1021F00081E090E00F900F90DF91CF911F910F91B0
:10220000089544E050E0BC0181E090E00C943A0C69
:1022100044E050E0BC0185E090E00C943A0C44E0CE
:1022200050E0BC018FE090E00C943A0C2F923F926A
:102230004F925F926F927F928F929F92AF92BF92D6
:10224000CF92DF92EF92FF920F931F93CF93DF9382
:1022500000D000D000D0CDB7DEB76C011B01290142
:102260003A014701580188E993E0F6019783868394
:102270008EE793E00E94C80B80E590E00E94640E18
:1022800046E050E0B10189E090E00E943A0C00E0A5
:1022900020E040E060E0CE0101960E945E08CE01A1
:1022A00003960E940F110E947E0E85017401A30106
:1022B0009201B101F601868197810E949D1A8C01DD
:1022C0000197B9F580E590E00E94640EF601668101
:1022D0007781CE0101960E94D715CE0103960E9408
:1022E0000F11F60166817781CE0101960E94ED15EE
:1022F000CE0103960E940111F60166817781CE011D
:1023000001960E94E215CE0103960E9408110E94D8
:102310007E0EF60166817781CE0101960E94F81546
:102320008B819C81AD81BE81F60182839383A483DE
:10233000B583C80126960FB6F894DEBF0FBECDBF99
:10234000DF91CF911F910F91FF90EF90DF90CF9091
:10235000BF90AF909F908F907F906F905F904F90C5
:102360003F902F900895EF92FF920F931F93CF937A
:10237000DF9300D000D000D0CDB7DEB7FC012681BE
:1023800037812115310509F443C08C01C9010E9430
:10239000DC1A7C01029721F084E0E816F104D1F503
:1023A00080E590E00E94640EF80166817781CE019D
:1023B00001960E94D715CE0103960E940F11F801D5
:1023C00066817781CE0101960E94ED15CE010396BC
:1023D0000E940111F80166817781CE0101960E9469
:1023E000E215CE0103960E9408110E947E0EF801AC
:1023F00066817781CE0101960E94F8158B819C81C0
:10240000AD81BE81F80182839383A483B58302C02A
:10241000E12CF12CC70126960FB6F894DEBF0FBE53
:10242000CDBFDF91CF911F910F91FF90EF90089555
:10243000CF93DF93EC010E94540880E590E00E9466
:10244000640EBE016E5F7F4F44E050E08FE090E08D
:102450000E94690D0E947E0ECE01DF91CF910895FA
:1024600024E332E0FC0131832083FB01428153816C
:1024700064817581FC01428353836483758308956D
:102480000F9300E020E040E060E08EEF93E00E94D8
:102490005E088BED93E00E94180B80E993E00F91AA
:1024A0000C945408FB014281538164817581FC01C5
:1024B0004283538364837583178216820895CF9372
:1024C000DF93FB0120E080E090E0AAE0319133232C
:1024D00001F160ED630F6A3080F4A89FB001A99FFD
:1024E000700D1124CB01C097830F911D37FD9A9574
:1024F0008F3F910559F350F313C03E3289F42330D6
:1025000079F0EA01C20FD11D8A832F5F80E090E04D
:10251000DDCF233029F4FA01858381E090E002C009
:1025200080E090E0DF91CF9108950F9300E020E0EC
:1025300040E060E084E094E00E945E080F9108951E
:102540008F929F92AF92BF92CF92DF92EF92FF92C3
:102550000F931F93CF93DF9300D000D01F92CDB77E
:10256000DEB78C016B010E94F902F8017783668364
:102570007627672776277A836983085F1F4F42E0B3
:1025800050E0BE016F5F7F4FC8010E948C0981E05F
:1025900090E09C838B8342E050E0BE016D5F7F4FF3
:1025A000C8010E948C0980E091E09C838B8342E00B
:1025B00050E0BE016D5F7F4FC8010E948C091C82F4
:1025C0001B8242E050E0BE016D5F7F4FC8010E9458
:1025D0008C0942E050E0BE016D5F7F4FC8010E9450
:1025E0008C0942E050E0BE016D5F7F4FC8010E9440
:1025F0008C095601F5018081882329F1C6017C01EF
:10260000FC0120810196211116C0570147018C1849
:102610009D081814190494F48D8241E050E0BE0125
:102620006B5F7F4FC8010E948C09A401B601C801ED
:102630000E948C0903C02E3211F7E7CF6701FFEF2C
:10264000CF1ADF0AD7CF1D8241E050E0BE016B5F99
:102650007F4FC8010E948C09E12CFF24F394FC8277
:10266000EB8242E050E0BE016D5F7F4FC8010E94E7
:102670008C09FC82EB8242E050E0BE016D5F7F4F2F
:10268000C8010E948C0981E090E00F900F900F909C
:102690000F900F90DF91CF911F910F91FF90EF90CE
:1026A000DF90CF90BF90AF909F908F9008954F9202
:1026B0005F926F927F928F929F92AF92BF92CF92D2
:1026C000DF92EF92FF920F931F93CF93DF93CDB7DB
:1026D000DEB765970FB6F894DEBF0FBECDBF7C01A5
:1026E0005B016A010E94F9022B013C018701085F2E
:1026F0001F4F4501A12CB12CC8010E942E0A1816AB
:102700001906A4F00E94F902DC01CB018419950995
:10271000A609B70988169906AA06BB06D0F062E397
:1027200070E080E090E00E942A03E6CFF70142814A
:10273000538164817581808D918DA28DB38D4817F1
:1027400059076A077B0741F4848D958DC59721F45D
:1027500006C02FEF3FEFFDC02EEF3FEFFAC0C801DC
:102760000E9450090C97ECF04CE050E0BE016F5F06
:102770007F4FC8010E94C9096C818B810E94CB15D3
:102780009A8B898BF701E680F7806A8189810E94A4
:10279000CB15E816F90641F489899A8997FF04C098
:1027A00009C02DEF3FEFD5C0C8010E946A092CEF88
:1027B0003FEFCFC08F709270892B31F0C8010E941B
:1027C0006A092BEF3FEFC5C068858F810E94CB154A
:1027D0005C01892B31F4C8010E946A092AEF3FEF9E
:1027E000B8C0E12CF12C6E818D810E94CB15E816CA
:1027F000F90640F541E050E0BE01635F7F4FC8013C
:102800000E94C9098D85811113C08D858111F2CF78
:10281000C8010E94A009C8010E94A009C8010E9425
:10282000A009C8010E94A009FFEFEF1AFF0ADBCF41
:102830008D859FEF980F9D87882339F3C8010E94EB
:10284000A009F6CFE12CF12C41E050E0BE016D5E15
:102850007F4FC8010E94C9098B89982F907C61F431
:10286000882371F08B899FEF980F9B8B882341F011
:10287000C8010E94A009F6CFC8010E94A0091B8AC6
:102880008B898111E1CF42E050E0BE01615F7F4F53
:10289000C8010E94C90942E050E0BE01635F7F4F5A
:1028A000C8010E94C909C8010E94A009C8010E946C
:1028B000A009C8010E94A009C8010E94A00942E025
:1028C00050E0BE016F5E7F4FC8010E94C9098F852D
:1028D00098898115914001F52D853E853227232762
:1028E000322721303105C1F489899A8981159440B4
:1028F00031F0C8010E946A0927EF3FEF2AC0B601F4
:102900006E5F7F4F44E050E0C8012C8B3D8B0E94EE
:10291000C9092C893D891DC0812C912C89899A89EE
:102920009827892798278816990638F4C8010E94A5
:10293000A0098FEF881A980AF1CFEFEFEE1AFE0A7E
:10294000EA14FB0409F080CFC8010E946A0926EF4F
:102950003FEFC90165960FB6F894DEBF0FBECDBF3D
:10296000DF91CF911F910F91FF90EF90DF90CF906B
:10297000BF90AF909F908F907F906F905F904F909F
:1029800008958F929F92AF92BF92CF92DF92EF9273
:10299000FF920F931F93CF93DF9300D000D000D00E
:1029A000CDB7DEB77C014B015A010E945F128C014A
:1029B000892B09F05BC0F7014281538164817581E5
:1029C0008091060490910704A0910804B091090435
:1029D000481759076A077B0709F44BC00E94F902A0
:1029E0006701F8E0CF0ED11C6F7077277C5FC601BE
:1029F0000E94010A813009F03EC084E392E09A838C
:102A00008983F70182819381A481B5818B839C8323
:102A1000AD83BE8345E350E0BE016F5F7F4FC601CB
:102A20000E948009892B19F400E010E01BC0B4015A
:102A3000C7010E94A012892BB9F3C6010E94880920
:102A4000892B91F383E0882E912CA50168E873E12E
:102A5000C7010E9457138C01F1E08F1A910811F001
:102A6000019699F3C6010E946B0905C001E010E0D0
:102A700002C00EEF1FEFC80126960FB6F894DEBF16
:102A80000FBECDBFDF91CF911F910F91FF90EF90BF
:102A9000DF90CF90BF90AF909F908F900895CF938D
:102AA000CFB7F89480910D04811127C0EAE9F0E0D6
:102AB0008491E6E8F0E09491E82FF0E0EE0FFF1F3C
:102AC000E255FF4FA591B491EC91E92321F461E027
:102AD0008AE00E94F30361E08AE00E94B7038CB5AC
:102AE00080618CBD8CB580648CBD61E08DE00E94FE
:102AF000B70361E08BE00E94B70380910D048F5F04
:102B000080930D04CFBFCF910895CF93DF9300D072
:102B100000D0CDB7DEB7611571058105910579F05B
:102B20009B01AC0169833A834B835C830E94F41C54
:102B300029813A814B815C810E948F1E03C060E035
:102B400070E0CB010F900F900F900F90DF91CF911D
:102B50000895CF92DF92EF92FF920F931F93621727
:102B600073078407950784F489019A016B017C013E
:102B7000C901B8016C197D098E099F090E9485154C
:102B80006C0D7D1D8E1D9F1D1F910F91FF90EF906D
:102B9000DF90CF90089570E09B01382BC901089514
:102BA0000E9624E1FC0111922A95E9F70895CF933E
:102BB000DF93EC01625F7F4F0E946A08CE01DF91D4
:102BC000CF910895CF93DF93EC016E5E7F4F0E940B
:102BD0006A08CE01DF91CF910895CF93DF93EC0186
:102BE0006A5E7F4F0E946A08CE01DF91CF910895FF
:102BF000CF93DF93EC01625E7F4F0E946A08CE01A3
:102C0000DF91CF91089580E3FB0180833296842F7A
:102C100082958F7090E1899F401911244A3014F4F5
:102C2000405D01C0495C4293482F8111F0CF089567
:102C30000F9300E020E040E060E08EE094E00E942E
:102C40005E080F9108957F928F929F92AF92BF92EC
:102C5000CF92DF92EF92FF920F931F93CF93DF9368
:102C6000CDB7DEB7AC970FB6F894DEBF0FBECDBFC1
:102C70007C01762E942E852E20E2B22ECE01019676
:102C80006C01FC012B2D11922A95E9F70FEF2FEF24
:102C90004FEF6FEF86960E945E0884E392E09AA35E
:102CA00089A389A59AA5ABA5BCA58BA39CA3ADA31D
:102CB000BEA387010D5B1F4F43E450E0BE016F5D73
:102CC0007F4FC8010E948009019609F4BFC081E0CE
:102CD00089838A8386E0A82EAB821C82F7016481F7
:102CE0007581868197810E94AE1E6D837E838F835E
:102CF000988789869A8680E890E09C878B874CE14C
:102D000050E0B601C8010E948C09F6012B2D1192EA
:102D10002A95E9F7470188E0880E911CF401D60155
:102D200001900D92AA94E1F740E150E0B601C8018C
:102D30000E948C09F6011192BA94E9F796E0A92E47
:102D4000B12C40E250E0B601C8010E948C09F1E0CC
:102D5000AF1AB108B1F783E6898392E89A8393E5C5
:102D60009B838C8385E38D8381E08E837F829DE3CB
:102D7000988797E099878A8786E0F401DE011B96A1
:102D800001900D928A95E1F78CE0898B8A8B6CE536
:102D900072E0CE0143960E94EE1DF7014385BE010D
:102DA000675E7F4FC7010E940316F7014485BE018D
:102DB000655E7F4FC7010E940316F7014585BE017E
:102DC000635E7F4FC7010E9403164EE150E0B601DB
:102DD000C8010E948C09F3E07F121EC082E3898340
:102DE00084E08A83F70196859B8397859C839089ED
:102DF0009D8391899E8396E39F838887828D8987AF
:102E0000838D8A87848D8B87858D8C874CE050E0FD
:102E1000B601C8010E948C0987E3898386E08A8312
:102E200091E09B8393E09C838D838FE08E838AE384
:102E30008F838BE388878FEF898749E050E0B60165
:102E4000C8010E948C09C8010E948809AC960FB67F
:102E5000F894DEBF0FBECDBFDF91CF911F910F91D0
:102E6000FF90EF90DF90CF90BF90AF909F908F90AA
:102E70007F9008952F923F924F925F926F927F9230
:102E80008F929F92AF92BF92DF92EF92FF920F9339
:102E90001F93CF93DF93CDB7DEB7E4970FB6F894C7
:102EA000DEBF0FBECDBF7C011A012B0139010E948C
:102EB000F9024B015C0187010D5B1F4FC8010E94A5
:102EC0002E0A18161906A4F00E94F902DC01CB01A3
:102ED00088199909AA09BB09281639064A065B060A
:102EE000F0F062E370E080E090E00E942A03E6CF19
:102EF00042E250E0BE016F5F7F4FC8010E94C909E6
:102F00008981823031F4F80184899589833491056F
:102F100041F0D12CC8010E946A098D2D5FC18FEF4D
:102F20005DC16D817E818F8198850E94AE1E4B01AF
:102F30005C01F301608371838283938346E050E0F8
:102F4000B701685F7F4FCE014D960E94CF1D892B40
:102F500099F4F70180819181A281B3818816990645
:102F6000AA06BB0648F084819581A681B7818815A1
:102F70009905AA05BB0528F4C8010E946A0980E0EA
:102F80002DC189899A89AB89BC89F7018687978782
:102F9000A08BB18B8EECA82EB12CC8010E94A00989
:102FA000F1E0AF1AB108C9F7D12CC70182969AA7F0
:102FB00089A7F701B696FCA7EBA708969EA78DA751
:102FC0003C974F01899698AB8FA73897FAABE9AB3E
:102FD0001701F6E12F0E311CC5979CAB8BABC801D6
:102FE0000E945009181619060CF094CFC8010E94CF
:102FF000A0098333910509F4CBC0FCF4813091051D
:10300000C9F11CF4892B59F3DDC083309105D1F14E
:10301000069709F0D7C0C8010E94A0095C0144E0EE
:1030200050E06BA97CA9C8010E94C909412C512C10
:10303000BB24F4E0AF1AB10840C08A33910509F40B
:103040007BC03CF48533910569F0C69709F440C014
:10305000B9C08B33910509F485C08F3F910509F400
:10306000BECFB0C0C8010E94A009C8010E94A0093B
:10307000D82EB5CFC8010E94A00944E050E069A94C
:103080007AA93AC0C8010E94A0095C0144E050E05E
:10309000B101C8010E94C909412C512CBB2494E004
:1030A000A91AB1084A145B040CF099CFC8010E9418
:1030B000A009EFEF4E1A5E0AF5CF4A145B040CF03C
:1030C0008ECFC8010E94A0098FEF481A580AF5CF89
:1030D000C8010E94A009B82EF701828D811110C08D
:1030E000838D81110DC0848D81110AC0858D811160
:1030F00007C044E050E0B401C8010E94C9096FCF85
:10310000EFA5F8A94080518062807380B401CE01A0
:1031100083960E946A088DA19EA1AFA1B8A58415CF
:103120009505A605B70529F3BB2009F458CFC801BA
:103130000E94A009BA94F8CFC8010E94A00944E0F7
:1031400050E06BA57CA5C8010E94C909F70166A1E2
:1031500077A180A591A50E94AE1E66A377A380A744
:1031600091A73DCFC8010E94A00944E050E06DA5A1
:103170007EA5C8010E94C909F70162A573A584A5AF
:1031800095A50E94AE1E62A773A784A795A727CF17
:10319000C8010E94A00944E050E069A57AA5C801D1
:1031A0000E94C909F70162A173A184A195A10E949F
:1031B000AE1E62A373A384A395A366A777A780AB73
:1031C00091AB0DCFC8010E94A009B82EBB2009F415
:1031D00006CFC8010E94A009BA94F8CFE4960FB6B2
:1031E000F894DEBF0FBECDBFDF91CF911F910F913D
:1031F000FF90EF90DF90BF90AF909F908F907F9067
:103200006F905F904F903F902F9008952F923F9234
:103210004F925F926F927F928F929F92AF92BF92E6
:10322000CF92DF92EF92FF920F931F93CF93DF9392
:10323000CDB7DEB727970FB6F894DEBF0FBECDBF70
:103240008C0120ED37E040E050E061E070E080E08C
:1032500090E00E94A915D80114966D937D938D93EB
:103260009C931797F801608371838283938358013D
:10327000F3E4AF0EB11CC5010E946B0964E470E079
:10328000C5010E94010A882309F43CC10E94F90289
:103290002B013C01812C912C1D82C8018E5B9F4F1C
:1032A0009F838E8343E0342E58EEC52E53E0D52EF7
:1032B000E12CF12C62E0262EAE81BF818C9183300F
:1032C00009F407C1811120C0F80184819581A6818C
:1032D000B7810196A11DB11D84839583A683B78311
:1032E0000E94F9026419750986099709A7019601D8
:1032F0000E946D1EA90161E0C8010E94231681E0B1
:10330000AE81BF818C93C6C08430F9F4F80184810A
:103310009581A681B7810196A11DB11D84839583F6
:10332000A683B7830E94F902641975098609970973
:10333000A70196010E946D1EA90163E0C8010E94C9
:103340002316AE81BF812C92A5C0813061F5F801B2
:1033500042AD53AD64AD75AD9E012F5F3F4FC801C7
:103360000E943A178D83823009F094C089819A8136
:10337000AB81BC81F80184839583A683B7830E94C7
:10338000F9026419750986099709A70196010E9437
:103390006D1EA90163E0C8010E942316ED81AE8174
:1033A000BF81EC937EC0823009F074C0D801DA96F8
:1033B0004D915D916D917C91DD979E012F5F3F4F07
:1033C000C8010E943A178D83853009F05CC0EE81F8
:1033D000FF813082F80182A193A1A4A1B5A1892B1C
:1033E0008A2B8B2B41F484E893E0A0E0B0E082A329
:1033F00093A3A4A3B5A3F80186A197A1A0A5B1A505
:10340000892B8A2B8B2B61F482A193A1A4A1B5A156
:10341000B695A7959795879586A397A3A0A7B1A7DB
:10342000F80182A593A5A4A5B5A5892B8A2B8B2B82
:10343000A9F482A193A1A4A1B5A1AC01BD0123E08F
:1034400076956795579547952A95D1F7841B950BE7
:10345000A60BB70B82A793A7A4A7B5A7F80186A1CF
:1034600097A1A0A5B1A586A797A7A0ABB1AB82A550
:1034700093A5A4A5B5A582AB93ABA4ABB5AB8824AB
:103480008394912C0EC0FD81F63021F4AE81BF8172
:103490001C9207C0BD81BF3F21F4EE81FF811082E5
:1034A0001D82F1E08F16910409F406CF0E94F90203
:1034B000DC01CB0184199509A609B709F80126A9F1
:1034C00037A940AD51AD281739074A075B0708F007
:1034D000F3CEC5010E946B09F80184819581A68114
:1034E000B7810196A11DB11D84839583A683B783FF
:1034F0000E94F902F801FE966083718382839383B0
:10350000C40102C080E090E027960FB6F894DEBFB9
:103510000FBECDBFDF91CF911F910F91FF90EF9024
:10352000DF90CF90BF90AF909F908F907F906F90E3
:103530005F904F903F902F900895CF92DF92EF923F
:10354000FF920F931F93CF93DF93EC016B011AA2AD
:103550001BA21CA21DA21EA21FA218A619A61AA673
:103560001BA61CA61DA62EAB3FAB48AF59AFEAAEBB
:10357000FBAE0CAF1DAF8C01085F1F4F86E0F8015A
:1035800011928A95E9F7CE010E94D01586E0F601E6
:10359000D80101900D928A95E1F7FE01EE5BFF4F95
:1035A0001082CE01DF91CF911F910F91FF90EF908C
:1035B000DF90CF900C940619CF92DF92EF92FF929A
:1035C0000F931F93CF93DF93EC010E94F9026B01DD
:1035D0007C018E01025C1F4FF80180819181A281E4
:1035E000B381A7019601281B390B4A0B5B0BCA015B
:1035F000B901683E33E073078105910508F441C0C5
:1036000028EE33E040E050E00E946D1EC61AD70A53
:10361000E80AF90AF801C082D182E282F3828EA51B
:103620009FA5A8A9B9A969017A01CC0CDD1CEE1CE3
:10363000FF1C8C159D05AE05BF0528F41EA61FA610
:1036400018AA19AA08C0821B930BA40BB50B8EA74E
:103650009FA7A8ABB9AB8AA99BA9ACA9BDA98C159A
:103660009D05AE05BF0528F41AAA1BAA1CAA1DAA0F
:1036700008C0821B930BA40BB50B8AAB9BABACAB06
:10368000BDAB8EA59FA5A8A9B9A9892B8A2B8B2B89
:1036900069F4FE01EE5BFF4F8081833039F484E0F2
:1036A0008083CE010E940619019602C080E090E05E
:1036B0004AA95BA96CA97DA9452B462B472B81F410
:1036C000FE01EE5BFF4F2081233011F0211108C075
:1036D0001082CE010E94D015CE010E9406190396D9
:1036E000DF91CF911F910F91FF90EF90DF90CF90DE
:1036F0000895CF93DF938230910510F482E090E03B
:10370000E0911604F091170420E030E0C0E0D0E032
:10371000309711F14081518148175907C0F048177F
:10372000590761F482819381209719F09B838A83E2
:103730002BC0909317048093160426C021153105E1
:1037400019F04217530718F49A01BE01DF01EF0187
:103750000280F381E02DDCCF2115310509F1281B12
:10376000390B2430310590F412968D919C9113976A
:103770006115710521F0FB019383828304C090934E
:10378000170480931604FD01329644C0FD01E20F38
:10379000F31F81939193225031092D933C933AC0AA
:1037A0002091140430911504232B41F4209102013F
:1037B00030910301309315042093140420910001EB
:1037C000309101012115310541F42DB73EB74091EB
:1037D000040150910501241B350BE0911404F09174
:1037E0001504E217F307A0F42E1B3F0B2817390727
:1037F00078F0AC014E5F5F4F2417350748F04E0F4D
:103800005F1F50931504409314048193919302C059
:10381000E0E0F0E0CF01DF91CF9108950F931F9387
:10382000CF93DF93009709F48CC0FC013297138289
:10383000128200911604109117040115110581F4EC
:1038400020813181820F931F20911404309115043F
:103850002817390779F5F0931504E093140471C023
:10386000D80140E050E0AE17BF0750F412962D91FA
:103870003C911397AD012115310509F1D901F3CF21
:103880009D01DA013383228360817181860F971F46
:103890008217930769F4EC0128813981260F371FBD
:1038A0002E5F3F4F318320838A819B819383828364
:1038B000452B29F4F0931704E093160442C01396A5
:1038C000FC93EE931297ED01499159919E01240FBB
:1038D000351FE217F30771F480819181840F951FE2
:1038E000029611969C938E938281938113969C935A
:1038F0008E931297E0E0F0E0D80112968D919C91A2
:103900001397009719F0F8018C01F6CF8D919C91D7
:1039100098012E5F3F4F820F931F20911404309126
:1039200015042817390769F4309729F41092170401
:103930001092160402C01382128210931504009391
:103940001404DF91CF911F910F9108958F929F9250
:10395000AF92BF92CF92DF92EF92FF92CF93DF931D
:10396000EC01688179818A819B81611571058105EE
:10397000910521F464E279ED8BE597E02DE133EFD9
:1039800041E050E00E948F1E49015A019B01AC01A9
:10399000A7EAB1E40E94B51E6B017C01ACEEB4EF66
:1039A000A50194010E94C31EDC01CB018C0D9D1D5D
:1039B000AE1DBF1DB7FF03C00197A109B0488883A2
:1039C0009983AA83BB83BC01CD019F77DF91CF91FF
:1039D000FF90EF90DF90CF90BF90AF909F908F902F
:1039E00008950E94A61C089586E091E00E94A61CFE
:1039F00008956093060170930701809308019093E6
:103A000009010895A0E0B0E0E8E0FDE10C94CC1ECF
:103A1000EC01009721F4CB010E94791BB8C0FC0196
:103A2000E60FF71F9C0122503109E217F30708F453
:103A3000ACC0D9010D911C91119706171707B0F072
:103A40000530110508F49FC0C80104978617970731
:103A500008F499C002501109061B170B019311932A
:103A60006D937C93CF010E940E1C8DC05B01A01A48
:103A7000B10A4C01800E911EA0911604B09117045A
:103A800040E050E0E12CF12C109709F44AC0A81551
:103A9000B905D1F56D907C901197630182E0C80E55
:103AA000D11CCA14DB0480F1A3014A195B096A0125
:103AB00082E0C80ED11C1296BC9012971396AC915E
:103AC000B5E0CB16D10440F0B282A383518340838A
:103AD000D9016D937C930AC00E5F1F4FC301800F05
:103AE000911FF90191838083EB2DFA2FE114F104EA
:103AF00031F0D7011396FC93EE93129744C0F093E4
:103B00001704E09316043FC08D919C9111974817BC
:103B1000590708F4AC017D0112960D90BC91A02DBF
:103B2000B3CF809114049091150488159905E1F4A0
:103B300046175707C8F48091000190910101009742
:103B400041F48DB79EB74091040150910501841B4B
:103B5000950BE817F907C8F4F0931504E0931404E3
:103B6000F901718360830FC0CB010E94791B7C0136
:103B7000009759F0A801BE010E94DC1DCE010E94F1
:103B80000E1CC70104C0CE0102C080E090E0CDB79A
:103B9000DEB7EEE00C94E81EF8940C942A1FFB01AB
:103BA000DC0104C08D910190801921F441505040F6
:103BB000C8F7881B990B0895FB01DC0102C0019036
:103BC0000D9241505040D8F70895FB01DC018D91D2
:103BD000019080190110D9F3990B0895FB01DC01C4
:103BE00001900D920020E1F708954532510520F42F
:103BF000423010F00C94001EFB011082CB0108959E
:103C0000BB274A3031F4992322F4BDE29095819587
:103C10009F4F0C94441E2532310520F4223010F0C1
:103C20000C94161EFA011082CA010895BB27FA01EE
:103C3000A62F6217710581059105330B30FB66F0E5
:103C4000AA27660F771F881F991FAA1FA21710F0B7
:103C5000A21B63953850A9F7A05DAA3308F0A95DAF
:103C6000A19336F7B111B1931082CA010C945D1E75
:103C70004532510520F4423010F00C94431EFB01F4
:103C80001082CB010895BB27FB015527AA27880F77
:103C9000991FAA1FA41710F0A41B83955051B9F7C0
:103CA000A05DAA3308F0A95DA193009779F7B1113F
:103CB000B1931192CB010C945D1EDC01FC01672FC6
:103CC00071917723E1F7329704C07C916D937083F3
:103CD0006291AE17BF07C8F30895A1E21A2EAA1B7E
:103CE000BB1BFD010DC0AA1FBB1FEE1FFF1FA217AC
:103CF000B307E407F50720F0A21BB30BE40BF50BA9
:103D0000661F771F881F991F1A9469F76095709531
:103D1000809590959B01AC01BD01CF010895052EC2
:103D200097FB1EF400940E94A61E57FD07D00E9428
:103D30006D1E07FC03D04EF40C94A61E50954095C2
:103D4000309521953F4F4F4F5F4F08959095809547
:103D5000709561957F4F8F4F9F4F089569279627E4
:103D6000692778278727782708950E94051FA59F30
:103D7000900DB49F900DA49F800D911D1124089566
:103D8000B7FF0C94B51E0E94B51E821B930B0895BD
:103D90002F923F924F925F926F927F928F929F925B
:103DA000AF92BF92CF92DF92EF92FF920F931F9349
:103DB000CF93DF93CDB7DEB7CA1BDB0B0FB6F894FA
:103DC000DEBF0FBECDBF09942A88398848885F843A
:103DD0006E847D848C849B84AA84B984C884DF80AB
:103DE000EE80FD800C811B81AA81B981CE0FD11D8F
:103DF0000FB6F894DEBF0FBECDBFED010895EE0FF4
:103E0000FF1F0590F491E02D0994A29FB001B39F8C
:103E1000C001A39F700D811D1124911DB29F700DD3
:103E2000811D1124911D0895F999FECF92BD81BD88
:103E3000F89A992780B50895262FF999FECF1FBAD1
:103E400092BD81BD20BD0FB6F894FA9AF99A0FBEC3
:103E50000196089510E0C4E6D0E004C0FE010E947F
:0E3E6000FF1E2196C536D107C9F7F894FFCF93
:103E6E00000018042000010000000600BA22B8224B
:103E7E000008DC00024F01005E00000052756E6EFD
:103E8E00696E67206D61634275726E657220736B29
:103E9E006574636800454550524F4D2072656164EC
:103EAE00207072696F7220746F2045746865726E2F
:103EBE0065742E626567696E286D616329004461C1
:103ECE0074613A20004661696C656420746F2063EA
:103EDE006F6E6669677572652045746865726E658A
:103EEE0074207573696E67204448435000507269A0
:103EFE006E74696E672074686520636F6E74656E8C
:103F0E007473206F6620454550524F4D00416464D6
:103F1E00726573733A200049502061646472657350
:103F2E00733A0072657365740052657365747469D3
:103F3E006E6720746865206D6963726F636F6E744F
:103F4E00726F6C6C65722E2E2E0057616974696EDD
:103F5E006720746F20726563656976652074686585
:103F6E0020726573657420636F6D6D616E642E2EA5
:103F7E00000D0A006E616E00696E66006F76660057
:103F8E000000000066072304E7060107F306440756
:103F9E000000000012080000000054098C095009AE
:103FAE00A009E8096A09010A6B098009320B880920
:103FBE002E0AC90935093C094C09860A57495A6E19
:043FCE006574000016
:00000001FF
