:100000000C9466000C948E000C948E000C948E0060
:100010000C948E000C948E000C942F0F0C948E0078
:100020000C948E000C948E000C948E000C948E0018
:100030000C948E000C948E000C948E000C948E0008
:100040000C9450070C948E000C94120A0C94440AE1
:100050000C948E000C948E000C948E000C948E00E8
:100060000C9407210C948E0000000008000201008F
:100070000003040700000000000000000102040863
:100080001020408001020408102001020408102002
:10009000040404040404040402020202020203032E
:1000A0000303030300000000250028002B000000CC
:1000B0000000240027002A009000740A5E0C280F1C
:1000C0002A12DA182F190F20C722EE0011241FBEA2
:1000D000CFEFD8E0DEBFCDBF14E0A0E0B1E0E4E8B0
:1000E000FBE502C005900D92A835B107D9F727E0CE
:1000F000A8E5B4E001C01D92AE32B207E1F710E00E
:10010000C5E6D0E004C02197FE010E948A2DCC35BF
:10011000D107C9F70E94A20A0C947B2A0C94000014
:100120000F9300E020E040E060E08AE195E00E946B
:10013000370C01E021E041E06AE084E195E00E94B3
:10014000370C89EF94E00E94B2118EED94E00E948A
:10015000B21183EC94E00E94B2116AED71E08DE976
:1001600094E00E94D70C83E994E00E941F1C82E96E
:1001700094E00E94950E81E994E00E94950E80E93A
:1001800094E00E94950E88E894E00E94AE0DE8E5A8
:10019000F4E0148215821682178280E090E0A6ECCB
:1001A000B2EC80879187A287B38784879587A687DB
:1001B000B787808B918BA28BB38B848B958BA68B0F
:1001C000B78B808F918FA28FB38F148E158E168E62
:1001D000178E10A211A212A20F9108958DE994E03A
:1001E0000C94690C0F931F93CF93DF9300D000D032
:1001F00000D0CDB7DEB78C014091100150911101B4
:1002000085E194E09A838983809116059091170582
:10021000A0911805B09119058B839C83AD83BE8393
:10022000BE016F5F7F4F83EC94E00E941A10B8010B
:1002300083EC94E00E941B0983EC94E00E9422105E
:1002400026960FB6F894DEBF0FBECDBFDF91CF91DB
:100250001F910F9108958F929F92AF92BF92CF926C
:10026000DF92EF92FF920F931F93CF93DF9300D013
:1002700000D000D0CDB7DEB760E47FE18CEC95E034
:100280000E94A60F0E949A074B015C010E949A07E8
:100290000E94ED2B60938404709385048093860400
:1002A0009093870426E040E051EE60E070E089E240
:1002B00095E00E94860B6CE171E089E295E00E9476
:1002C000400960E082E00E94A80861E082E00E94AC
:1002D0006C0860E082E00E94A80860E088E00E946C
:1002E000A80861E088E00E946C0860E088E00E9455
:1002F000A80860E089E00E94A80861E089E00E9407
:100300006C0860E089E00E94A80861E083E00E9438
:10031000A80861E083E00E946C0861E083E00E942D
:10032000A80861E085E00E94A80861E085E00E94DD
:100330006C0861E085E00E94A80861E086E00E9408
:10034000A80861E086E00E946C0861E086E00E94F7
:10035000A80861E087E00E94A80861E087E00E94A9
:100360006C0861E087E00E94A80861E084E00E94D8
:10037000A80861E084E00E946C0861E084E00E94CB
:10038000A8089DEBE92E94E0F92E670100919B04EB
:1003900010919C04C8010E949F2DD6018D936D0180
:1003A0000F5F1F4F10939C0400939B04B3ECCB167C
:1003B000B4E0DB0659F7EDE7F4E0D7018D917D015C
:1003C0008193B3ECEB16B4E0FB06B9F710EAE12E2B
:1003D0001FE0F12E00E010E020E63AEE40E050E0B1
:1003E0006DEB74E086EE95E00E94B017892B61F406
:1003F0006CE271E089E295E00E94400960E177E2F9
:1004000080E090E00E94CB076AE671E089E295E027
:100410000E94400966EE75E0CE0101960E94B21876
:10042000BE016F5F7F4F89E295E00E9452096091A3
:1004300014017091150189EF94E00E949B10609166
:100440001201709113018EED94E00E949B10609157
:1004500010017091110183EC94E00E949B106CEDEF
:1004600075E080E090E00E94CB0769E771E0CE0183
:1004700001960E94D70CCE0101960E94F200CE0197
:1004800001960E94690C6AE871E0CE0101960E9413
:10049000D70CCE0101960E94F200CE0101960E9477
:1004A000690C4AE06091C304CE0101960E94030DDD
:1004B000CE0101960E94F200CE0101960E94690CC5
:1004C0006BEA71E0CE0101960E94D70CCE01019635
:1004D0000E94F200CE0101960E94690C4AE06091F0
:1004E000BD04CE0101960E94030DCE0101960E942B
:1004F000F200CE0101960E94690C4AE06091BE04B0
:10050000CE0101960E94030DCE0101960E94F200D9
:10051000CE0101960E94690C4AE06091BF04CE01B1
:1005200001960E94030DCE0101960E94F200CE01B9
:1005300001960E94690C4AE06091C004CE010196C8
:100540000E94030DCE0101960E94F200CE01019699
:100550000E94690C4AE06091C104CE0101960E949C
:10056000030DCE0101960E94F200CE0101960E9479
:10057000690C4AE06091C204CE0101960E94030D0D
:10058000CE0101960E94F200CE0101960E94690CF4
:1005900080910E0190910F010E949F2D682F70E0B5
:1005A00080E090E00E94ED2B609358047093590412
:1005B00080935A0490935B046EEB71E089E295E0BE
:1005C0000E9429096EEB71E0CE0101960E94D70CC2
:1005D000CE0101960E94F200CE0101960E94690CA4
:1005E00000E010E06FEC71E089E295E00E942909DB
:1005F0004AE050E0B80189E295E00E94F70969ED10
:1006000071E089E295E00E9429096BED71E089E2D1
:1006100095E00E942909C8010E949F2D4AE050E000
:10062000682F89E295E00E940B0A69ED71E089E28A
:1006300095E00E9429096FEC71E0CE0101960E94BD
:10064000D70CCE0101960E94F200CE0101960E94C5
:10065000690C4AE0B801CE0101960E94300DCE012E
:1006600001960E94F200CE0101960E94690C6BED8A
:1006700071E0CE0101960E94D70CCE0101960E9436
:10068000F200CE0101960E94690CC8010E949F2DC4
:100690004AE0682FCE0101960E94030DCE0101961B
:1006A0000E94F200CE0101960E94690C0F5F1F4F5D
:1006B0000830110509F096CF4FEF6EE383E994E01F
:1006C0000E94D91E882309F4F9C062EE71E089E224
:1006D00095E00E94400962EE71E0CE0101960E9411
:1006E000D70CCE0101960E94F200CE0101960E9425
:1006F000690C40E060E083E994E00E94761E40E0EF
:1007000060E083E994E00E94811D40E061E083E9BC
:1007100094E00E94761E40E061E083E994E00E944C
:10072000811D40E062E083E994E00E94761E40E093
:1007300062E083E994E00E94811D40E063E083E988
:1007400094E00E94761E40E063E083E994E00E941A
:10075000811D40E064E083E994E00E94761E40E061
:1007600064E083E994E00E94811D40E065E083E954
:1007700094E00E94761E40E065E083E994E00E94E8
:10078000811D40E066E083E994E00E94761E40E02F
:1007900066E083E994E00E94811D40E067E083E920
:1007A00094E00E94761E40E067E083E994E00E94B6
:1007B000811D40E068E083E994E00E94761E40E0FD
:1007C00068E083E994E00E94811D40E069E083E9EC
:1007D00094E00E94761E40E069E083E994E00E9484
:1007E000811D40E06AE083E994E00E94761E40E0CB
:1007F0006AE083E994E00E94811D40E06BE083E9B8
:1008000094E00E94761E40E06BE083E994E00E9451
:10081000811D41E06CE083E994E00E94761E41E096
:100820006DE083E994E00E94761E41E06EE083E98A
:1008300094E00E94761E41E06FE083E994E00E941C
:10084000761E00E010E0602F83E994E00E94A81D6E
:10085000002E01C0880F0A94EAF720917B04822BB6
:1008600080937B040F5F1F4F0830110561F708E08C
:1008700010E0602F83E994E00E94A81D002E01C0C3
:10088000880F0A94EAF720917C04822B80937C04E1
:100890000F5F1F4F0F30110561F760917B0480914E
:1008A0000C0190910D010E94A72D60917C04809114
:1008B0000A0190910B010E94A72D14C069EF71E00D
:1008C00089E295E00E94400969EF71E0CE0101964E
:1008D0000E94D70CCE0101960E94F200CE01019633
:1008E0000E94690C0E949A076B017C0163E172E02F
:1008F000CE0101960E94D70CCE0101960E94F20013
:10090000CE0101960E94690CB601681979094AE086
:10091000CE0101960E945C0DCE0101960E94F2006C
:10092000CE0101960E94690C26960FB6F894DEBFA0
:100930000FBECDBFDF91CF911F910F91FF90EF9030
:10094000DF90CF90BF90AF909F908F900895CF93FE
:10095000DF9300D000D000D0CDB7DEB769E272E0FF
:1009600089E295E00E94400969E272E0CE010196B9
:100970000E94D70CCE0101960E94F200CE01019692
:100980000E94690C64EF71E080E090E00E94CB0768
:1009900060E084E00E94A80826960FB6F894DEBFB7
:1009A0000FBECDBFDF91CF910895CF93DF93CDB729
:1009B000DEB72C970FB6F894DEBF0FBECDBF48E16F
:1009C00050E063EA74E089EF94E00E94631063EA08
:1009D00074E0CE0107960E94D70C60E472E0CE016D
:1009E00007960E94880D8823C9F065E472E089E2C9
:1009F00095E00E94400965E472E0CE0101960E94F4
:100A0000D70CCE0101960E94F200CE0101960E9401
:100A1000690C8CEC95E00E94390F28C166E572E004
:100A2000CE0107960E94880D882341F061E082E0A4
:100A30000E94A80881E08093740418C163E672E004
:100A4000CE0107960E94880D882339F060E082E08D
:100A50000E94A8081092740409C161E772E0CE01F7
:100A600007960E94880D882371F06DE772E089E295
:100A700095E00E94400960E083E00E94A80881E0C0
:100A800080937704F3C069E872E0CE0107960E9474
:100A9000880D882369F066E972E089E295E00E949A
:100AA000400961E083E00E94A80810927704DEC04C
:100AB00063EA72E0CE0107960E94880D882371F0E8
:100AC0006FEA72E089E295E00E94400960E085E00B
:100AD0000E94A80881E080937804C8C06BEB72E0A4
:100AE000CE0107960E94880D882369F068EC72E0B9
:100AF00089E295E00E94400961E085E00E94A80833
:100B000010927804B3C065ED72E0CE0107960E94A2
:100B1000880D882371F061EE72E089E295E00E9411
:100B2000400960E086E00E94A80881E08093790493
:100B30009DC06DEE72E0CE0107960E94880D88235D
:100B400069F06AEF72E089E295E00E94400961E095
:100B500086E00E94A8081092790488C067E073E0DC
:100B6000CE0107960E94880D882371F063E173E03F
:100B700089E295E00E94400960E087E00E94A808B1
:100B800081E080937A0472C06FE173E0CE01079632
:100B90000E94880D882369F06CE273E089E295E099
:100BA0000E94400961E087E00E94A80810927A0440
:100BB0005DC069E373E0CE0107960E94880D88232B
:100BC00041F061E088E00E94A80881E0809375040C
:100BD0004DC060E473E0CE0107960E94880D882323
:100BE00039F060E088E00E94A808109275043EC0C9
:100BF00068E473E0CE0107960E94880D882371F0A7
:100C00006FE473E089E295E00E94400961E089E0C9
:100C10000E94A80881E08093760428C066E573E00E
:100C2000CE0107960E94880D882339F060E089E0A4
:100C30000E94A8081092760419C06EE573E0CE01F8
:100C400007960E94880D882319F00E94A7040EC001
:100C500064E673E0CE0101960E94D70CCE010196A6
:100C60000E94F200CE0101960E94690C88E1E3EA3D
:100C7000F4E0DF011D928A95E9F7CE0107960E9404
:100C8000690C2C960FB6F894DEBF0FBECDBFDF9176
:100C9000CF910895CF93DF9300D000D000D0CDB78F
:100CA000DEB70E949A076BE182E994E00E94E90EA8
:100CB000882369F082E994E00E940B0F609360043E
:100CC00070936104809362049093630412C06FE791
:100CD00073E089E295E00E94400980E090E0A6EC94
:100CE000B2EC8093600490936104A0936204B0938B
:100CF00063046AE181E994E00E94E90E882369F0C7
:100D000081E994E00E940B0F609364047093650482
:100D1000809366049093670412C065E973E089E2EA
:100D200095E00E94400980E090E0A6ECB2EC809350
:100D3000640490936504A0936604B093670468E12B
:100D400080E994E00E94E90E882369F080E994E04C
:100D50000E940B0F609368047093690480936A0487
:100D600090936B0412C06BEA73E089E295E00E94F5
:100D7000400980E090E0A6ECB2EC80936804909388
:100D80006904A0936A04B0936B0488E894E00E941D
:100D9000C50D8823C9F088E894E00E94F30D6093A4
:100DA0006C0470936D0480936E0490936F0488E8D4
:100DB00094E00E94440E60937004709371048093D9
:100DC0007204909373041AC061EC73E089E295E0B9
:100DD0000E94400980E090E0A6ECB2EC80936C04A5
:100DE00090936D04A0936E04B0936F04809370048D
:100DF00090937104A0937204B09373040E949A07B5
:100E00000E94ED2B2091840430918504409186044A
:100E1000509187040E94DF2A20E030E04AE754E442
:100E20000E944C2B60935C0470935D0480935E047D
:100E300090935F0464ED73E0CE0101960E94D70C9D
:100E4000CE0101960E94F200CE0101960E94690C2B
:100E50006DED73E089E295E00E94400989EF94E02E
:100E60000E94C8109093BC048093BB041816190606
:100E700014F40E94D50486EE95E00E944D180E945D
:100E80009A0760ED77E080E090E00E94CB0726961D
:100E90000FB6F894DEBF0FBECDBFDF91CF9108959E
:100EA0001F920F920FB60F9211242F933F938F939F
:100EB0009F93AF93BF938091210590912205A091BC
:100EC0002305B09124053091200523E0230F2D3711
:100ED00020F40196A11DB11D05C026E8230F02963E
:100EE000A11DB11D2093200580932105909322051B
:100EF000A0932305B09324058091250590912605A4
:100F0000A0912705B09128050196A11DB11D8093E0
:100F1000250590932605A0932705B0932805BF913A
:100F2000AF919F918F913F912F910F900FBE0F9096
:100F30001F9018952FB7F8946091210570912205A4
:100F400080912305909124052FBF08953FB7F89411
:100F50008091250590912605A0912705B09128053F
:100F600026B5A89B05C02F3F19F00196A11DB11D04
:100F70003FBFBA2FA92F982F8827820F911DA11D3F
:100F8000B11DBC01CD0142E0660F771F881F991F7C
:100F90004A95D1F708958F929F92AF92BF92CF92C8
:100FA000DF92EF92FF926B017C010E94A6074B013A
:100FB0005C01C114D104E104F10401F10E94420872
:100FC0000E94A607DC01CB0188199909AA09BB096F
:100FD000883E9340A105B10560F321E0C21AD10813
:100FE000E108F10888EE880E83E0981EA11CB11C70
:100FF000C114D104E104F10419F7DBCFFF90EF90A5
:10100000DF90CF90BF90AF909F908F90089578948D
:1010100084B5826084BD84B5816084BD85B58260FD
:1010200085BD85B5816085BDEEE6F0E0808181609B
:101030008083E1E8F0E0108280818260808380819B
:1010400081608083E0E8F0E0808181608083E1EB73
:10105000F0E0808184608083E0EBF0E0808181605B
:101060008083EAE7F0E08081846080838081826011
:1010700080838081816080838081806880831092FA
:10108000C10008950895833081F028F4813099F0EB
:101090008230A1F008958730A9F08830B9F084300B
:1010A000D1F4809180008F7D03C0809180008F7784
:1010B00080938000089584B58F7702C084B58F7DBA
:1010C00084BD08958091B0008F7703C08091B000F7
:1010D0008F7D8093B0000895CF93DF9390E0FC0163
:1010E000E458FF4F2491FC01E057FF4F849188237F
:1010F00061F190E0880F991FFC01E255FF4FC59107
:10110000D491FC01EC55FF4FA591B491611109C038
:101110009FB7F8948881209582238883EC912E23B1
:101120000BC0623061F49FB7F8943881822F8095AC
:1011300083238883EC912E2B2C939FBF06C08FB7FF
:10114000F894E8812E2B28838FBFDF91CF910895EB
:101150001F93CF93DF93282F30E0F901E859FF4F19
:101160008491F901E458FF4FD491F901E057FF4F02
:10117000C491CC23C9F0162F81110E944308EC2F93
:10118000F0E0EE0FFF1FEC55FF4FA591B4918FB724
:10119000F894111105C09C91ED2FE095E92302C050
:1011A000EC91ED2BEC938FBFDF91CF911F910895C0
:1011B00080E090E00895CF92DF92EF92FF920F933C
:1011C0001F93CF93DF936C017A018B01C0E0D0E0D5
:1011D000CE15DF0589F0D8016D918D01D601ED9115
:1011E000FC910190F081E02DC6010995892B11F445
:1011F0007E0102C02196ECCFC701DF91CF911F91F4
:101200000F91FF90EF90DF90CF90089561157105D9
:1012100079F0FB0101900020E9F73197AF01461BFF
:10122000570BDC01ED91FC910280F381E02D0994D4
:1012300080E090E00895DC01ED91FC91DB011496D3
:101240004D915C9115976D917C910280F381E02D19
:1012500009940C940609DC01ED91FC910190F08158
:10126000E02D0994DB01ED91FC9111970190F08143
:10127000E02DBC01CD01099460EF73E00C940609E8
:101280000F931F93CF93DF93EC010E9406098C010B
:10129000CE010E943C09800F911FDF91CF911F91D9
:1012A0000F9108950F931F93CF93DF93EC010E944A
:1012B00032098C01CE010E943C09800F911FDF9101
:1012C000CF911F910F9108954F925F926F927F92ED
:1012D000EF92FF920F931F93CF93DF93CDB7DEB7BB
:1012E000A1970FB6F894DEBF0FBECDBF7C01FA0107
:1012F000CB0119A2223008F42AE08E010F5D1F4FA6
:10130000422E512C612C712CBF01A30192010E942D
:10131000F82CF901CA01015011096A3014F4605D1A
:1013200001C0695CD8016C93232B242B252B61F71A
:10133000B801C7010E940609A1960FB6F894DEBF56
:101340000FBECDBFDF91CF911F910F91FF90EF9016
:101350007F906F905F904F900895CF92DF92EF92C1
:10136000FF920F931F93CF93DF93EC016A017B01F0
:101370002115310579F4E881F9810190F081E02DA2
:10138000642FDF91CF911F910F91FF90EF90DF902D
:10139000CF9009942A303105E9F477FF1AC06DE245
:1013A0000E942B098C0144275527BA014C195D096D
:1013B0006E097F092AE0CE010E946409800F911F07
:1013C000DF91CF911F910F91FF90EF90DF90CF9021
:1013D00008952AE0B701A601CE01DF91CF911F91B8
:1013E0000F91FF90EF90DF90CF900C9464099A01D9
:1013F000AB01770F660B770B0C94AD092115310506
:1014000041F4DC01ED91FC910190F081E02D642F1D
:1014100009940C9464099A01462F50E060E070E052
:101420000C94FE091F920F920FB60F9211242F9366
:101430008F939F93EF93FF93E0913905F0913A05D5
:101440008081E0913F05F091400582FD12C09081BE
:10145000809142058F5F8F7320914305821751F071
:10146000E0914205F0E0E75DFA4F958F80934205E9
:1014700001C08081FF91EF919F918F912F910F90EB
:101480000FBE0F901F9018951F920F920FB60F92DC
:1014900011242F933F934F935F936F937F938F9379
:1014A0009F93AF93BF93EF93FF9389E295E00E94E0
:1014B000FC0AFF91EF91BF91AF919F918F917F9126
:1014C0006F915F914F913F912F910F900FBE0F90B1
:1014D0001F90189589E295E00E94B10A21E0892BBE
:1014E00009F420E0822F0895E9E2F5E013821282E8
:1014F00088EE93E0A0E0B0E084839583A683B78371
:1015000083E094E09183808385EC90E095878487E5
:1015100084EC90E09787868780EC90E0918B808BBD
:1015200081EC90E0938B828B82EC90E0958B848BA6
:1015300086EC90E0978B868B118E128E138E148E14
:10154000089508950E9407080E94A10A0E942B0195
:10155000CEEEDAE00E944A062097E1F30E94EE0AFE
:10156000F9CFFC01918D228D892F90E0805C9F4FF7
:10157000821B91098F7399270895FC01918D828DAB
:10158000981731F0828DE80FF11D858D90E0089558
:101590008FEF9FEF0895FC01918D828D981761F078
:1015A000828DDF01A80FB11D5D968C91928D9F5F9A
:1015B0009F73928F90E008958FEF9FEF0895FC0145
:1015C000538D448D252F30E0842F90E0821B930BA8
:1015D000541710F0CF960895019708958AE69AE07F
:1015E000892B49F080E090E0892B29F00E946A0A5B
:1015F00081110C9400000895FC01848DDF01A80F77
:10160000B11DA35ABF4F2C91848D90E001968F732A
:101610009927848FA689B7892C93A089B1898C9149
:1016200080648C93938D848D981306C00288F3890F
:10163000E02D80818F7D80830895CF93DF93EC012F
:10164000888D8823C9F0EA89FB89808185FD05C0E2
:10165000A889B9898C9186FD0FC00FB607FCF5CF1C
:10166000808185FFF2CFA889B9898C9185FFEDCF64
:10167000CE010E94FC0AE7CFDF91CF910895EF924F
:10168000FF920F931F93CF93DF93EC0181E0888F3C
:101690009B8D8C8D981305C0E889F989808185FD23
:1016A00024C0F62E0B8D10E00F5F1F4F0F73112714
:1016B000E02E8C8DE8120CC00FB607FCFACFE8893B
:1016C000F989808185FFF5CFCE010E94FC0AF1CF18
:1016D0008B8DFE01E80FF11DE35AFF4FF0820B8F57
:1016E000EA89FB898081806207C0EE89FF89608377
:1016F000E889F98980818064808381E090E0DF91CE
:10170000CF911F910F91FF90EF900895CF92DF92AC
:10171000EF92FF921F93CF93DF93EC016A017B015D
:10172000122FE889F98982E080834115514E6105C5
:101730007105B1F060E079E08DE390E0A7019601DA
:101740000E94F82CDA01C9010197A109B109B695E7
:10175000A79597958795AC01411580E15807A8F0AA
:10176000E889F989108260E874E88EE190E0A701C9
:1017700096010E94F82CBA01A90141505109610952
:1017800071097695679557954795EC85FD8550834A
:10179000EE85FF854083188EEC89FD891083EA89E8
:1017A000FB89808180618083EA89FB8980818860F0
:1017B0008083EA89FB89808180688083EA89FB894C
:1017C00080818F7D8083DF91CF911F91FF90EF907B
:1017D000DF90CF9008958F929F92AF92BF92CF9259
:1017E000DF92EF92FF920F931F93CF93DF937C01D1
:1017F0008B016C0182E0C80ED11C4701E5E08E0E22
:10180000911CC0E0D0E0F60161916F014AE050E028
:10181000C8010E940B0A5C016EE2C8010E942B09FC
:101820008A0D9B1DC80FD91FC814D90461F74AE05F
:1018300050E0F7016581C8010E940B0A8C0F9D1FC3
:10184000DF91CF911F910F91FF90EF90DF90CF909C
:10185000BF90AF909F908F90089525E134E0FC01F8
:1018600031832083128213821482158208950F938C
:10187000FC0185E194E09183808362834383248328
:1018800005830F91089525E134E0FC013183208325
:10189000FB014081518162817381FC01428353834A
:1018A000648375830895FB01408151816281738156
:1018B000FC0142835383648375830895E6ECF5E06D
:1018C00085E194E0918380831282138214821582D1
:1018D0000895FC01808191810C94BD28CF93DF9302
:1018E000EC0188819981009711F00E94BD2819822E
:1018F00018821D821C821B821A82DF91CF9108956B
:101900000F931F93CF93DF93EC018B016F5F7F4F9A
:10191000888199810E94B129009731F09983888349
:101920001B830A8381E001C080E0DF91CF911F918A
:101930000F910895CF93DF93EC0188819981892BD2
:1019400029F08A819B818617970760F4CE010E9457
:10195000800C882341F08C819D81892B19F4E881CA
:10196000F981108281E0DF91CF910895EF92FF928B
:101970000F931F93CF93DF93EC017B018A01BA0190
:101980000E949A0C811104C0CE010E946E0C07C007
:101990001D830C83B701888199810E949D2ACE0105
:1019A000DF91CF911F910F91FF90EF900895FC016F
:1019B00011821082138212821582148261157105C0
:1019C00051F0FB0101900020E9F73197AF01461B70
:1019D000570B0C94B60C0895CF93DF93EC0161156F
:1019E000710559F0FB0101900020E9F73197AF0133
:1019F000461B570B0E94B60C02C00E946E0CCE0113
:101A0000DF91CF9108950F931F93CF93DF93CDB7BD
:101A1000DEB729970FB6F894DEBF0FBECDBF8C019D
:101A2000862FF8011182108213821282158214828D
:101A300050E0BE016F5F7F4F90E00E94BA2ABE0166
:101A40006F5F7F4FC8010E94EC0C29960FB6F89487
:101A5000DEBF0FBECDBFDF91CF911F910F910895D3
:101A60000F931F93CF93DF93CDB7DEB762970FB677
:101A7000F894DEBF0FBECDBF8C01CB01F8011182FF
:101A80001082138212821582148250E0BE016F5FB1
:101A90007F4F0E94A42ABE016F5F7F4FC8010E9442
:101AA000EC0C62960FB6F894DEBF0FBECDBFDF918F
:101AB000CF911F910F9108950F931F93CF93DF93B1
:101AC000CDB7DEB761970FB6F894DEBF0FBECDBFBE
:101AD0008C01CB01F80111821082138212821582CF
:101AE000148250E0BE016F5F7F4F0E94BA2ABE0190
:101AF0006F5F7F4FC8010E94EC0C61960FB6F8949F
:101B0000DEBF0FBECDBFDF91CF911F910F91089522
:101B1000FC0124813581232B31F421E0611571050D
:101B2000A1F0FB0108C0FC01808191816115710564
:101B300031F421E0FC018081882339F005C00E9446
:101B4000942A21E0892B09F020E0822F0895DC01FE
:101B5000ED91FC910190F081E02D0994089560E4ED
:101B600070E084E696E00E948D1F6EEF70E084E6E0
:101B700096E00E94A70D84E696E00E940C206FE09C
:101B800070E080E090E00C94CB07CF93DF93EC0102
:101B900084E696E00E94791FCE010E94AF0D60E4BA
:101BA00070E084E696E00E948D1F67EE70E084E6A8
:101BB00096E00E94A70D84E696E00E940C2041E08A
:101BC00050E060E470E084E696E00E94092084E63C
:101BD00096E00E94E61E21E0029709F020E0822FA5
:101BE000DF91CF910895CF93DF9360E470E084E6B6
:101BF00096E00E948D1F63EE70E084E696E00E94FE
:101C0000A70D84E696E00E940C2062E370E080E07D
:101C100090E00E94CB0743E050E060E470E084E68F
:101C200096E00E94092084E696E00E94DE1E892B41
:101C3000D1F384E696E00E94E61ED82F80E0C82FFC
:101C400084E696E00E94E61EC82BD92B84E696E037
:101C50000E94E61EBE0180E090E00E94ED2B22E58E
:101C600038EB4FE253E40E947B2C20E030E040E868
:101C700057E30E947B2C26E636E64BE352E40E94B3
:101C8000DF2ADF91CF910895CF93DF9360E470E076
:101C900084E696E00E948D1F65EE70E084E696E093
:101CA0000E94A70D84E696E00E940C2062E370E09B
:101CB00080E090E00E94CB0743E050E060E470E0F9
:101CC00084E696E00E94092084E696E00E94DE1EEB
:101CD000892BD1F384E696E00E94E61ED82F80E09F
:101CE000C82F84E696E00E94E61EC82BD92B84E616
:101CF00096E00E94E61EBE0180E090E00E94ED2B7F
:101D000020E030E04AEF52E40E947B2C20E030E0FB
:101D100040E857E30E947B2C20E030E040EC50E4A8
:101D20000E94DF2ADF91CF91089508951F93CF93EA
:101D3000DF9300D0CDB7DEB7162FFC01608184E6BB
:101D400096E04A8359830E94831F612F84E696E0C0
:101D50000E943A1F5981652F84E696E00E943A1F3F
:101D60004A81642F84E696E00E943A1F84E696E05A
:101D70000F900F90DF91CF911F910C940C201F9327
:101D8000CF93DF93EC01162F688184E696E00E94E2
:101D9000831F612F84E696E00E943A1F84E696E056
:101DA0000E940C2042E0688184E696E00E940620B2
:101DB00084E696E00E94E61ED82F80E0C82F84E6D5
:101DC00096E00E94E61E8C2B9D2BDF91CF911F91F8
:101DD0000895CF93DF93EC01688384E696E00E9438
:101DE000791F66E0CE010E94BF0E8435910511F087
:101DF00080E00EC067E0CE010E94BF0E81159440C6
:101E0000B9F740E050E061E0CE010E94960E81E01B
:101E1000DF91CF910895CF93DF9365E00E94BF0ECD
:101E2000EC01BC017F7080E090E00E94ED2B20E08F
:101E300030E040E85DE30E947B2CD4FF06C020E048
:101E400030E040E853E40E94DF2ADF91CF9108950B
:101E50008FEF9FEF9093CD058093CC0508951F924F
:101E60000F920FB60F9211240F900FBE0F901F907C
:101E70001895A8950895DA01F90160348FE1780783
:101E80001CF46115710539F489E090E08D939C9301
:101E900080E49FE158C0603A8FE078073CF088E02A
:101EA00090E08D939C9380EA9FE04DC0603D87E079
:101EB00078073CF087E090E08D939C9380ED97E06D
:101EC00042C0683E83E078073CF086E090E08D9366
:101ED0009C9388EE93E037C0643F81E078073CF044
:101EE00085E090E08D939C9384EF91E02CC06A3F55
:101EF00071053CF084E090E08D939C938AEF90E034
:101F000022C0683771053CF083E090E08D939C938C
:101F100088E790E018C06C3371053CF082E090E0F7
:101F20008D939C938CE390E00EC06E3171053CF074
:101F300081E090E08D939C938EE190E004C01D922F
:101F40001C928FE090E09183808308950F931F93FC
:101F5000CF93DF9300D0CDB7DEB78C019E012F5F0A
:101F60003F4FAC010E943B0FF801808183FD02C00E
:101F700098E001C098E28770892B98E10FB6F89439
:101F8000A895909360000FBE8093600089819A812C
:101F90000F900F90DF91CF911F910F910895DC0169
:101FA000ED91FC91048CF58DE02D099425E134E050
:101FB000FC0131832083FB01408951896289738947
:101FC000FC0142835383648375830895FC018489F3
:101FD00095890895FC01818D928D0895CF93DF93AB
:101FE0001F92CDB7DEB76983DC01ED91FC910280D1
:101FF000F381E02D41E050E0BE016F5F7F4F099516
:102000000F90DF91CF9108950895CF93DF93EC0166
:10201000888D843061F00E948515E88DF0E0EE0F28
:10202000FF1FE45BF94F1182108284E0888FDF91FB
:10203000CF910895FC01178A168A6E5F7F4F808DBD
:102040000C940317FC01808D0C944917CF93DF93F8
:10205000EC019A018E899F89AB01BC01888D0E9499
:10206000BC162E893F89280F391F3F8B2E8BDF919D
:10207000CF9108950F931F93CF93DF931F92CDB706
:10208000DEB7FC01218D328D232B61F08C0141E004
:1020900050E0BE016F5F7F4F808D0E9402161816C0
:1020A00019061CF08FEF9FEF08C0F801818D928D0B
:1020B0000197928F818F898190E00F90DF91CF916E
:1020C0001F910F910895CF93DF93FC01218D328DE5
:1020D0002115310519F48FEF9FEF11C0EC01421764
:1020E000530708F0A901888D0E94021618161906D8
:1020F00094F7298D3A8D281B390B3A8F298FDF9160
:10210000CF910895CF93DF931F92CDB7DEB7FC0137
:10211000218D328D232B49F0BE016F5F7F4F808D63
:102120000E948D16898190E002C08FEF9FEF0F9083
:10213000DF91CF910895EF92FF921F93CF93DF939A
:10214000FC01208D243011F080E01CC07B01EC01EB
:1021500010E0812F0E945D15811102C0188F05C00B
:102160008831E1F31F5F1430A1F7888D843061F36B
:10217000FD86EC861A8E198E20E0A70162E00E948F
:10218000AF1581E0DF91CF911F91FF90EF900895FF
:102190000F931F93CF93DF93CDB7DEB728970FB67A
:1021A000F894DEBF0FBECDBF8C01F801818D928DFA
:1021B000892B49F0D801ED91FC910284F385E02D43
:1021C000C8010995F2CF808D0E9462161816190673
:1021D00054F548E050E0BE016F5F7F4FD80158963C
:1021E0008C910E9402169C0118161906D4F4BE01A7
:1021F0006F5F7F4FC8010E960E94530C8D8190E057
:10220000982F88272E81820F911DF801958B848B42
:102210002F8130E0322F22278885280F311D328F01
:10222000218FC90102C080E090E028960FB6F89493
:10223000DEBF0FBECDBFDF91CF911F910F910895EB
:102240008F929F92AF92BF92CF92DF92EF92FF92C6
:102250000F931F93CF93DF9300D000D000D0CDB762
:10226000DEB7FC01208D243009F068C06A017B01D3
:102270008C0153E0852E54E0952EA12CB12CC40185
:102280000E940313811103C0F801A08E0AC0883197
:10229000D9F3FFEFAF1ABF0A9394E4E0AE16B1048E
:1022A00071F7F801808D843009F448C096E0E6E1CA
:1022B000F1E0DE01119601900D929A95E1F7F70198
:1022C00093819F779C8394819D8395819E83B701A1
:1022D0006E5F7F4F90E0982F882744E050E0845F46
:1022E0009B4F0E94D412F801E08CF12CF4E0EF0E29
:1022F000F11CFE2CEE246D2DC70140960E94401269
:102300006C2DC70141960E944012F801808D90E02B
:10231000982F882746E050E0BE016F5F7F4F8A5FAD
:102320009B4F0E94D412F801128E118E20E8A60154
:1023300062E0808D0E94AF1581E001C080E02696AA
:102340000FB6F894DEBF0FBECDBFDF91CF911F91C6
:102350000F91FF90EF90DF90CF90BF90AF909F9044
:102360008F900895CF93DF93EC011B821A8288EE41
:1023700093E0A0E0B0E08C839D83AE83BF838BE1CC
:1023800094E099838883CE010E960E942D0C84E000
:10239000888FDF91CF910895CF92DF92EF92FF92D5
:1023A0000F931F93CF93DF93CDB7DEB7AF970FB6E1
:1023B000F894DEBF0FBECDBF8C016B017A01CE0158
:1023C00001960E942D0CCE0109960E94B211CE01F9
:1023D0008A960E942D0C66EE75E0CE0184960E94CE
:1023E000CA18BE016C5D7F4FCE0101960E94EC18A9
:1023F000AE01465D5F4FB601CE0101960E945B1BA8
:1024000081309105C1F4D801ED91FC910488F589E2
:10241000E02D85E194E09DA38CA38CA59DA5AEA5A0
:10242000BFA58EA39FA3A8A7B9A7A701BE016C5DF6
:102430007F4FC8010995AF960FB6F894DEBF0FBE67
:10244000CDBFDF91CF911F910F91FF90EF90DF9063
:10245000CF9008950F9300E020E040E060E08EEC24
:1024600095E00E94370C0F9108958EBD00000DB4C9
:1024700007FEFDCF8EB508952A9808952A9A0895EB
:102480001F93CF93DF9300D0CDB7DEB7182F6A83A9
:1024900099830E943C1280EF0E9435129981892F06
:1024A0000E943512812F0E9435126A81862F0E9468
:1024B00035120E943E1281E00F900F90DF91CF9174
:1024C0001F910895CF93DF93EC016CE271E080E0FF
:1024D00090E00E94CB070E94E91B229A809162063D
:1024E000882399F02FB7F89480916206813059F4CF
:1024F0008DB3809360069DB380916106809589239A
:102500008DBB2FBF02C02093600680E58CBD1DBC33
:1025100060E880E090E00E94401265E58BE190E089
:102520000E94401265E58AE190E00E94401280918D
:102530006206882351F09FB7F8942091620680913B
:102540006006213029F58DBB9FBF80E090E4998320
:10255000888380E090E69987888780E098E49B8371
:102560008A8380E098E69B878A8780E090E59D8358
:102570008C8380E090E79D878C8780E098E59F833F
:102580008E8380E098E79F878E87DF91CF910895B3
:102590008FBFDBCF9B0190E00496982F8827642F94
:1025A000820F931F0C944012CF92DF92EF92FF9212
:1025B0000F931F93CF93DF93EC017A018B016C0192
:1025C000C40ED51ECC15DD05A1F00E943C1280EF93
:1025D0000E9435128D2F0E9435128C2F0E943512C9
:1025E0002196F80181918F010E9435120E943E12BE
:1025F000E9CFC701DF91CF911F910F91FF90EF902D
:10260000DF90CF9008951F93CF93DF931F92CDB7A4
:10261000DEB7182F99830E943C128FE00E9435127A
:102620009981892F0E943512812F0E94351280E0F6
:102630000E94351289830E943E1289810F90DF919A
:10264000CF911F91089590E00496982F8827860FC8
:10265000971F0C9403131F93CF93DF93182F60E2FF
:1026600070E00E942313C82FD0E061E270E0812F58
:102670000E942313DC2FCC279E01282BC901DF9158
:10268000CF911F910895FF920F931F93CF93DF93E4
:10269000F62EC0E0D0E08F2D0E942B138C01892BE9
:1026A00021F08F2D0E942B13EC01C017D10799F751
:1026B000CE01DF91CF911F910F91FF9008951F934D
:1026C000CF93DF93182F66E270E00E942313C82F88
:1026D000D0E067E270E0812F0E942313DC2FCC272B
:1026E0009E01282BC901DF91CF911F910895FF9280
:1026F0000F931F93CF93DF93F62EC0E0D0E08F2D82
:102700000E945F138C01892B21F08F2D0E945F1393
:10271000EC01C017D10799F7CE01DF91CF911F913E
:102720000F91FF9008956F927F928F929F92AF9238
:10273000BF92CF92DF92EF92FF920F931F93CF93AE
:10274000DF931F92CDB7DEB7882E962E6A0159010E
:1027500064E270E0892D99830E942313E82EF12C06
:1027600065E270E0892D0E942313FE2CEE24E82AF6
:1027700037016C0C7D1CA3015770E82C9981F92E50
:10278000E90CF11CE90CF11CF70180819181840FA7
:10279000951F9A01200F311F2130384098F060E0DA
:1027A00078E06B01C41AD50AA601B5010E94D412C3
:1027B000A8014C195D09B5016C0D7D1DF7018081E3
:1027C000918102C0A801B5010E94D412060D171D07
:1027D000412F64E270E0892D0E94CA12402F65E209
:1027E00070E0892D0F90DF91CF911F910F91FF9095
:1027F000EF90DF90CF90BF90AF909F908F907F90A1
:102800006F900C94CA12CF92DF92EF92FF920F93C7
:102810001F93CF93DF93EC017A018B016C01C40EFF
:10282000D51ECC15DD05A9F00E943C128FE00E9458
:1028300035128D2F0E9435128C2F0E943512219651
:1028400080E00E943512F80181938F010E943E12B0
:10285000E8CFC701DF91CF911F910F91FF90EF90CB
:10286000DF90CF900895AF92BF92CF92DF92EF9218
:10287000FF920F931F93CF93DF9300D0CDB7DEB7B6
:102880005A834983590129813A8137706C01C60EF8
:10289000D11CC60ED11CF60180859185820F931F35
:1028A000A801420F531F4130584098F0E0E0F8E093
:1028B0007F01E21AF30AA701B5010E940314A801DF
:1028C0004E195F09B5016E0D7F1DF601808591855A
:1028D00002C0A801B5010F900F90DF91CF911F9119
:1028E0000F91FF90EF90DF90CF90BF90AF900C943E
:1028F00003148F929F92AF92BF92CF92DF92EF928A
:10290000FF920F931F93CF93DF936C01962E5A0182
:102910007901802E68E270E0892D0E942313C82F70
:10292000D0E069E270E0892D0E942313DC2FCC27D0
:10293000C82B87019501AE01692DC6010E94331491
:1029400081101AC0CE0DDF1D4D2F68E270E0892D79
:102950000E94CA124C2F69E270E0892DDF91CF915D
:102960001F910F91FF90EF90DF90CF90BF90AF90AD
:102970009F908F900C94CA12DF91CF911F910F916D
:10298000FF90EF90DF90CF90BF90AF909F908F908F
:102990000895CF93C62F61E070E08C2F0E94CA1279
:1029A00061E070E08C2F0E9423138111F9CFCF9149
:1029B00008950F93FC0130E080E092E1AAE7B0E0D7
:1029C000481759076A077B0740F4B695A79597956E
:1029D00087953F5F3630A1F737E091E093272223B8
:1029E00011F020E501C020E7892F86950C70082B97
:1029F000022B0083917091830F91089520916206BC
:102A0000222399F04FB7F89420916206213059F4AF
:102A10002DB3209360063DB32091610620952323BA
:102A20002DBB4FBF02C0409360068CBD9DBD089575
:102A300080916206882361F09FB7F8942091620626
:102A400080916006213019F48DBB9FBF08958FBF20
:102A5000089590E0982F882744E050E0845F9B4FD2
:102A60000C94D41262E070E00C942313CF93DF93A4
:102A7000C82FD62F472F64E070E00E94CA124D2F56
:102A800065E070E08C2FDF91CF910C94CA12462F35
:102A900062E070E00C94CA12CF93DF93C82FD62F58
:102AA000472F60E170E00E94CA124D2F61E170E093
:102AB0008C2FDF91CF910C94CA120F931F93CF9359
:102AC000DF9300D01F92CDB7DEB7182F00E021E0D2
:102AD00040E059E06DE370E0CE0101960E94D91408
:102AE00089819A810E94FE1463E070E0812F0E9428
:102AF00023138B830E9418158B810F900F900F90DA
:102B0000DF91CF911F910F9108950F931F93CF9352
:102B1000DF9300D0CDB7DEB7182F00E021E040E012
:102B200059E06DE370E0CE0101960E94D9148981CD
:102B30009A810E94FE1440E150E0612F84ED95E0FF
:102B40000E94C9146FEF812F0E9447150E9418152B
:102B50000F900F90DF91CF911F910F910895CF9219
:102B6000DF92EF92FF920F931F93CF93DF9300D0EA
:102B7000CDB7DEB79FEF960F9530C0F5F22E6A0104
:102B8000E62E182F0E94851500E021E040E059E074
:102B90006DE370E0CE0101960E94D91489819A817B
:102BA0000E94FE144E2D4F2960E070E0812F0E949C
:102BB000CA12C114D10411F0B6010AC06091E40533
:102BC0007091E5056F5F7F4F7093E5056093E405B5
:102BD000812F0E94361541E050E0612F84ED95E091
:102BE0000E94C9140E94181581E001C080E00F9076
:102BF0000F90DF91CF911F910F91FF90EF90DF9099
:102C0000CF900895AF92BF92CF92DF92EF92FF9252
:102C10000F931F93CF93DF9300D0CDB7DEB7182F5C
:102C20005B016A0100E021E040E059E06DE370E003
:102C3000CE0101960E94D91489819A810E94FE14C6
:102C4000612F84ED95E00E9477137C010097A1F439
:102C500063E070E0812F0E942313843119F18823EF
:102C600009F121E030E08C3111F420E030E0EE2475
:102C7000FF24E21AF30A16C0C816D9060CF476012E
:102C80001E141F047CF400E09701A501612F84ED60
:102C900095E00E94791440E450E0612F84ED95E0C6
:102CA0000E94C9140E941815C7010F900F90DF9160
:102CB000CF911F910F91FF90EF90DF90CF90BF9039
:102CC000AF9008950F931F93CF93DF9300D000D060
:102CD000CDB7DEB7182F00E021E040E059E06DE30A
:102CE00070E0CE0101960E94D91489819A810E94D8
:102CF000FE14612F84ED95E00E9477138B839C83F3
:102D00000E9418158B819C810F900F900F900F904F
:102D1000DF91CF911F910F910895EF92FF920F9342
:102D20001F93CF93DF9300D0CDB7DEB7182F7B0171
:102D300000E021E040E059E06DE370E0CE01019653
:102D40000E94D91489819A810E94FE1401E021E039
:102D500030E0A701612F84ED95E00E9479140E9474
:102D6000181581E090E00F900F90DF91CF911F91A7
:102D70000F91FF90EF9008958F929F92AF92BF9224
:102D8000DF92EF92FF920F931F93CF93DF9300D0C8
:102D9000CDB7DEB7D82E5B014A01790100E021E012
:102DA00040E059E06DE370E0CE0101960E94D91435
:102DB00089819A810E94FE146D2D84ED95E00E9418
:102DC00043138E159F0530F46D2D84ED95E00E9420
:102DD00043137C0187019401A5016D2D84ED95E0DD
:102DE0000E9493130E941815C7010F900F90DF9156
:102DF000CF911F910F91FF90EF90DF90BF90AF9018
:102E00009F908F900895CF92DF92EF92FF920F9351
:102E10001F93CF93DF9300D0CDB7DEB7FB01908136
:102E2000911109C09181911106C09281911103C045
:102E30009381992309F141155105F1F06A017F0150
:102E4000182F00E021E040E059E06DE370E0CE0192
:102E500001960E94D91489819A810E94FE14B701BB
:102E6000812F0E942915B601812F0E944C150E94C6
:102E7000181581E090E002C080E090E00F900F9084
:102E8000DF91CF911F910F91FF90EF90DF90CF9046
:102E900008950F931F93CF93DF9300D0CDB7DEB784
:102EA000182F00E021E040E059E06DE370E0CE0132
:102EB00001960E94D91489819A810E94FE1440E2F1
:102EC00050E0612F84ED95E00E94C914812F0E948B
:102ED000321584FD21C0812F0E94321583FF09C065
:102EE00068E1812F0E9447150E94181580E090E04C
:102EF0001BC00E9418150E94420800E021E040E03B
:102F000059E06DE370E0CE0101960E94D9148981E9
:102F10009A810E94FE14DACF60E1812F0E9447154A
:102F20000E94181581E090E00F900F90DF91CF91F3
:102F30001F910F91089544E050E0BC0181E090E0C2
:102F40000C94D41244E050E0BC0185E090E00C9475
:102F5000D41244E050E0BC018FE090E00C94D41215
:102F60002F923F924F925F926F927F928F929F9299
:102F7000AF92BF92CF92DF92EF92FF920F931F9387
:102F8000CF93DF9300D000D000D0CDB7DEB76C0177
:102F90001B0129013A01470158018EEE95E0F60127
:102FA0009783868384ED95E00E94621280E590E02D
:102FB0000E94FE1446E050E0B10189E090E00E94DA
:102FC000D41200E020E040E060E0CE0101960E94D3
:102FD000370CCE0103960E94A9170E94181585018F
:102FE0007401A3019201B101F601868197810E94CB
:102FF0004C278C010197B9F580E590E00E94FE1402
:10300000F60166817781CE0101960E948622CE016B
:1030100003960E94A917F60166817781CE01019679
:103020000E949C22CE0103960E949B17F6016681A6
:103030007781CE0101960E949122CE0103960E94D3
:10304000A2170E941815F60166817781CE010196BC
:103050000E94A7228B819C81AD81BE81F601828373
:103060009383A483B583C80126960FB6F894DEBF78
:103070000FBECDBFDF91CF911F910F91FF90EF90C9
:10308000DF90CF90BF90AF909F908F907F906F9088
:103090005F904F903F902F900895EF92FF920F9383
:1030A0001F93CF93DF9300D000D000D0CDB7DEB711
:1030B000FC01268137812115310509F443C08C01BB
:1030C000C9010E948B277C01029721F084E0E81659
:1030D000F104D1F580E590E00E94FE14F8016681CC
:1030E0007781CE0101960E948622CE0103960E942E
:1030F000A917F80166817781CE0101960E949C2272
:10310000CE0103960E949B17F80166817781CE015C
:1031100001960E949122CE0103960E94A2170E945E
:103120001815F80166817781CE0101960E94A722C9
:103130008B819C81AD81BE81F80182839383A483BE
:10314000B58302C0E12CF12CC70126960FB6F89486
:10315000DEBF0FBECDBFDF91CF911F910F91FF90CA
:10316000EF900895CF93DF93EC010E942D0C80E542
:1031700090E00E94FE14BE016E5F7F4F44E050E07D
:103180008FE090E00E9403140E941815CE01DF9199
:10319000CF91089525E134E0FC0131832083FB01C8
:1031A0004281538164817581FC014283538364832E
:1031B000758308950F9300E020E040E060E084E52F
:1031C00096E00E94370C81E396E00E94B21186EEF1
:1031D00095E00F910C942D0CFB0142815381648189
:1031E0007581FC0142835383648375831782168241
:1031F0000895CF93DF93FB0120E080E090E0AAE008
:103200003191332301F160ED630F6A3080F4A89FA0
:10321000B001A99F700D1124CB01C097830F911DA0
:1032200037FD9A958F3F910559F350F313C03E3205
:1032300089F4233079F0EA01C20FD11D8A832F5F10
:1032400080E090E0DDCF233029F4FA01858381E02E
:1032500090E002C080E090E0DF91CF9108950F935D
:1032600000E020E040E060E08AE596E00E94370C54
:103270000F9108958F929F92AF92BF92CF92DF925B
:10328000EF92FF920F931F93CF93DF9300D000D064
:103290001F92CDB7DEB78C016B010E949A07F8012F
:1032A000778366837627672776277A836983085F23
:1032B0001F4F42E050E0BE016F5F7F4FC8010E9488
:1032C000261081E090E09C838B8342E050E0BE01B9
:1032D0006D5F7F4FC8010E94261080E091E09C83C3
:1032E0008B8342E050E0BE016D5F7F4FC8010E94BA
:1032F00026101C821B8242E050E0BE016D5F7F4FB2
:10330000C8010E94261042E050E0BE016D5F7F4F71
:10331000C8010E94261042E050E0BE016D5F7F4F61
:10332000C8010E9426105601F5018081882329F1E9
:10333000C6017C01FC0120810196211116C05701B4
:1033400047018C189D081814190494F48D8241E0EB
:1033500050E0BE016B5F7F4FC8010E942610A401A0
:10336000B601C8010E94261003C02E3211F7E7CF24
:103370006701FFEFCF1ADF0AD7CF1D8241E050E08F
:10338000BE016B5F7F4FC8010E942610E12CFF2415
:10339000F394FC82EB8242E050E0BE016D5F7F4F10
:1033A000C8010E942610FC82EB8242E050E0BE0180
:1033B0006D5F7F4FC8010E94261081E090E00F9062
:1033C0000F900F900F900F90DF91CF911F910F9161
:1033D000FF90EF90DF90CF90BF90AF909F908F9035
:1033E00008954F925F926F927F928F929F92AF92C9
:1033F000BF92CF92DF92EF92FF920F931F93CF93E2
:10340000DF93CDB7DEB765970FB6F894DEBF0FBE7A
:10341000CDBF7C015B016A010E949A072B013C0130
:103420008701085F1F4F4501A12CB12CC8010E94E4
:10343000C81018161906A4F00E949A07DC01CB01E7
:1034400084199509A609B70988169906AA06BB0624
:10345000D0F062E370E080E090E00E94CB07E6CF1E
:10346000F7014281538164817581808D918DA28D98
:10347000B38D481759076A077B0741F4848D958DF2
:10348000C59721F406C02FEF3FEFFDC02EEF3FEFB1
:10349000FAC0C8010E94EA0F0C97ECF04CE050E033
:1034A000BE016F5F7F4FC8010E9463106C818B81EA
:1034B0000E947A229A8B898BF701E680F7806A81D5
:1034C00089810E947A22E816F90641F489899A894D
:1034D00097FF04C009C02DEF3FEFD5C0C8010E947F
:1034E00004102CEF3FEFCFC08F709270892B31F01A
:1034F000C8010E9404102BEF3FEFC5C068858F8183
:103500000E947A225C01892B31F4C8010E940410C8
:103510002AEF3FEFB8C0E12CF12C6E818D810E9423
:103520007A22E816F90640F541E050E0BE01635FFB
:103530007F4FC8010E9463108D85811113C08D8556
:103540008111F2CFC8010E943A10C8010E943A10BE
:10355000C8010E943A10C8010E943A10FFEFEF1A0A
:10356000FF0ADBCF8D859FEF980F9D87882339F366
:10357000C8010E943A10F6CFE12CF12C41E050E056
:10358000BE016D5E7F4FC8010E9463108B89982F2A
:10359000907C61F4882371F08B899FEF980F9B8B4F
:1035A000882341F0C8010E943A10F6CFC8010E945A
:1035B0003A101B8A8B898111E1CF42E050E0BE01B5
:1035C000615F7F4FC8010E94631042E050E0BE017E
:1035D000635F7F4FC8010E946310C8010E943A10C8
:1035E000C8010E943A10C8010E943A10C8010E9406
:1035F0003A1042E050E0BE016F5E7F4FC8010E946A
:1036000063108F8598898115914001F52D853E8540
:1036100032272327322721303105C1F489899A893D
:103620008115944031F0C8010E94041027EF3FEF4C
:103630002AC0B6016E5F7F4F44E050E0C8012C8B7A
:103640003D8B0E9463102C893D891DC0812C912CDB
:1036500089899A899827892798278816990638F49E
:10366000C8010E943A108FEF881A980AF1CFEFEF45
:10367000EE1AFE0AEA14FB0409F080CFC8010E948A
:10368000041026EF3FEFC90165960FB6F894DEBF30
:103690000FBECDBFDF91CF911F910F91FF90EF90A3
:1036A000DF90CF90BF90AF909F908F907F906F9062
:1036B0005F904F9008958F929F92AF92BF92CF925A
:1036C000DF92EF92FF920F931F93CF93DF9300D07F
:1036D00000D000D0CDB7DEB77C014B015A010E946B
:1036E000F9188C01892B09F05BC0F70142815381E5
:1036F0006481758180915C0690915D06A0915E0663
:10370000B0915F06481759076A077B0709F44BC059
:103710000E949A076701F8E0CF0ED11C6F707727DF
:103720007C5FC6010E949B10813009F03EC085E19C
:1037300094E09A838983F70182819381A481B58182
:103740008B839C83AD83BE8345E350E0BE016F5FF6
:103750007F4FC6010E941A10892B19F400E010E077
:103760001BC0B401C7010E943A19892BB9F3C601E5
:103770000E942210892B91F383E0882E912CA501C1
:1037800068E873E1C7010E94F1198C01F1E08F1A1A
:10379000910811F0019699F3C6010E94051005C029
:1037A00001E010E002C00EEF1FEFC80126960FB631
:1037B000F894DEBF0FBECDBFDF91CF911F910F9167
:1037C000FF90EF90DF90CF90BF90AF909F908F9041
:1037D0000895CF93CFB7F89480916306811127C0E5
:1037E000EAE9F0E08491E6E8F0E09491E82FF0E077
:1037F000EE0FFF1FE255FF4FA591B491EC91E92325
:1038000021F461E08AE00E94A80861E08AE00E9459
:103810006C088CB580618CBD8CB580648CBD61E01A
:103820008DE00E946C0861E08BE00E946C08809142
:1038300063068F5F80936306CFBFCF910895FC012D
:10384000148215821682178208951F93CF93DF93F7
:103850001F92CDB7DEB7162FFC01608184E696E09B
:1038600049830E94831F612F84E696E00E943A1FDD
:103870004981642F84E696E00E943A1F84E696E030
:103880000F90DF91CF911F910C940C201F93CF9339
:10389000DF9300D0CDB7DEB7162FFC01608184E640
:1038A00096E04A8359830E94831F612F84E696E045
:1038B0000E943A1F5981652F84E696E00E943A1FC4
:1038C0004A81642F84E696E00E943A1F84E696E0DF
:1038D0000F900F90DF91CF911F910C940C201F93AC
:1038E000CF93DF93EC01162F688184E696E00E9467
:1038F000831F612F84E696E00E943A1F84E696E0DB
:103900000E940C2041E0688184E696E00E94062037
:10391000C8EED3E084E696E00E94DE1E1816190673
:1039200034F0209711F02197F5CF80E006C0CD2B21
:10393000E1F384E696E00E94E61EDF91CF911F91AD
:1039400008950F93CF93DF93EC016370417042951C
:10395000407F2F70422B6295660F607E462B6EE192
:103960000E94251C002321F0083018F007E001C058
:1039700001E08FEF800F61E070E002C0660F771FFB
:103980008A95E2F7072E000C880B990B0E94EF2B0B
:103990009B01AC0160E074E284EF99E40E944C2B3F
:1039A0000E94BE2B6C837D838E839F836FE1CE014B
:1039B0000E946F1C8F780295007F482F402B6FE18B
:1039C000CE01DF91CF910F910C94251C1F93CF93C3
:1039D000DF93EC01162F688184E696E00E94831F36
:1039E000612F84E696E00E943A1F84E696E00E94EA
:1039F0000C2042E0688184E696E00E940620C0ED3B
:103A0000D7E084E696E00E94DE1E02973CF4209701
:103A100011F02197F6CF80E090E011C0CD2BD9F3C3
:103A200084E696E00E94E61EC82F84E696E00E9497
:103A3000E61E20E030E03C2FA901482BCA01DF91AF
:103A4000CF911F910895CF92DF92EF92FF920F9343
:103A50001F93CF93DF938C01D62FF42E6EE00E943C
:103A6000E61C41E050E09A0102C0220F331FDA95B4
:103A7000E2F7E9018095909582239323892B89F0C1
:103A800060E1C8010E94E61CFF2021F0AC014C2B34
:103A90005D2B05C0C095D095AC014C235D2360E142
:103AA00025C066E0C8010E94E61C6C0168E0C80100
:103AB0000E94E61C9E0120953095FF2061F07C015C
:103AC000E222F322A6014C2B5D2B66E0C8010E9486
:103AD000461CA7010AC0C82BD92BA6014223532399
:103AE00066E0C8010E94461CAE0168E0C801DF9193
:103AF000CF911F910F91FF90EF90DF90CF900C949A
:103B0000461C0C94231DFF920F931F93CF93DF93BA
:103B10008C01F62E6EE00E94E61CC1E0D0E002C0EF
:103B2000CC0FDD1FFA94E2F78C239D23892B49F0FB
:103B300060E1C8010E94E61CC823D92381E0CD2B97
:103B400009F480E0DF91CF911F910F91FF900895CC
:103B50000C94831DCF92DF92EF92FF920F931F93ED
:103B6000CF93DF931F92CDB7DEB76C01162F60E0C5
:103B700029830E94E61C41E050E0BA0102C0660FB2
:103B8000771F1A95E2F78B01AC01462B572B60E0AB
:103B9000C6010E94461C66E0C6010E94E61C780130
:103BA000E094F094AC014E215F2166E0C6010E94D2
:103BB000461C6EE0C6010E94E61CAC014E215F214E
:103BC0006EE0C6010E94461C6EE1C6010E946F1C99
:103BD0008F7D482F40646EE1C6010E94251C6FE175
:103BE000C6010E946F1C2981482F222311F04868CA
:103BF00001C04777F60184819581A681B781892B21
:103C00008A2B8B2B49F480E894E8AEE1B0E0848302
:103C10009583A683B78340616FE1C6010E94251C8E
:103C200060E2C6010E94E61CAC01402B512B60E211
:103C3000C6010E94461C60E1C6010E94E61CAC0160
:103C40004E215F2160E1C6010F90DF91CF911F915E
:103C50000F91FF90EF90DF90CF900C94461C0F9344
:103C60001F93CF93DF93EC01162F042F6EE00E9479
:103C7000E61C9C01802F8D7F813059F041E050E09F
:103C8000012E02C0440F551F0A94E2F7422B532B1A
:103C90000DC0E1E0F0E0012E02C0EE0FFF1F0A941C
:103CA000E2F7E095F095A9014E235F236EE0CE0187
:103CB0000E94461C023049F441E0612FCE01DF91A1
:103CC000CF911F910F910C94231D033051F420E0EC
:103CD00041E0612FCE01DF91CF911F910F910C94A4
:103CE000AA1DDF91CF911F910F9108950C942F1E63
:103CF000CF93DF93EC016FE10E946F1C82FF06C03F
:103D0000482F4B7F6FE1CE010E94251C41E06B8163
:103D1000CE010E942F1E40E06B81CE010E94231D28
:103D200061E070E080E090E00E94CB0741E06B81B1
:103D3000CE01DF91CF910C94231DCF93DF936623A7
:103D400021F0DF91CF910C94781EEC0142E16DE7F8
:103D50000E94251C44E36DE7CE01DF91CF910C94C6
:103D6000251C0F93CF93DF93EC0184E696E00E942D
:103D7000791F8B818F3F21F0CE010E94781E04C0F5
:103D800060E0CE010E949D1E63E1CE010E94E61C10
:103D900081159F4F49F401E020E040E062E0CE0150
:103DA0000E94A11C81E001C080E0DF91CF910F91C2
:103DB0000895FC01608343830C94B11E80919406A6
:103DC00090E020919506821B9109089590919506A7
:103DD00080919406981750F4E92FF0E0EA56F94FD5
:103DE000208130E09F5F9093950602C02FEF3FEF58
:103DF000C9010895E091950680919406E81730F482
:103E0000F0E0EA56F94F808190E008958FEF9FEF40
:103E100008950895CF92DF92EF92FF920F931F9330
:103E2000CF93DF937C01262F972F8A018091700614
:103E3000882391F0C62FD72F6E01C40ED51ECC1546
:103E4000DD0571F06991D701ED91FC910190F08150
:103E5000E02DC7010995F3CF642F822F0E94CF2058
:103E6000C801DF91CF911F910F91FF90EF90DF90EC
:103E7000CF900895CF93DF931F92CDB7DEB76983BC
:103E8000209170062223D1F020917106203240F05B
:103E900021E030E0FC013383228380E090E015C014
:103EA00080917206E82FF0E0ED58F94F99819083E8
:103EB0008F5F809372068093710605C061E0CE012A
:103EC00001960E94CF2081E090E00F90DF91CF918A
:103ED0000895FC011382128288EE93E0A0E0B0E026
:103EE00084839583A683B78383E494E0918380835E
:103EF00008951092950610929406109272061092F0
:103F000071060C94132081E08093700660939306F1
:103F1000109272061092710608950C94831F0F93ED
:103F2000062F21E04091710663E776E080919306C9
:103F30000E947920109272061092710610927006FB
:103F40000F9108954F925F926F927F92AF92BF92BE
:103F5000CF92EF92FF920F931F93CF93DF935C0169
:103F6000F62ED42F28013901EE2021F10E94831F63
:103F7000CE2DC43008F0C3E0C150C0F0D501ED91A2
:103F8000FC91B8E0CB9FC0011124A301920104C0B1
:103F900056954795379527958A95D2F7CA01B90165
:103FA0000190F081E02DC5010995E6CF60E0C501E3
:103FB0000E948F1F4D2FD13208F040E22C2D66E970
:103FC00076E08F2D0E943120109295068093940602
:103FD000DF91CF911F910F91FF90EF90CF90BF9005
:103FE000AF907F906F905F904F900895CF92EF9237
:103FF0000F931F93C22EE12C00E010E098010E9465
:10400000A21F1F910F91EF90CF90089521E00C9483
:10401000F61F21E00C94F61F61E00C948F1F84E6DC
:1040200096E00C94691F1092230781E0809321078A
:104030001092200761E082E10E94A80861E083E11C
:104040000E94A808E9EBF0E080818E7F8083808168
:104050008D7F808388E48093B80085E48093BC00E2
:104060000895413208F043C0909123079111FCCF8D
:1040700091E090932307209321072FEF2093B6061A
:104080001092FB06240F2093FA069093220790913A
:104090002207880F892B8093220780912007813087
:1040A00061F410922007809122078093BB008091D9
:1040B000BC0083FDF8CF85EC01C085EE8093BC0089
:1040C000809123078130E1F38091FB06841710F47F
:1040D0004091FB062CEF36E0FB01D9018A2F821BB1
:1040E000841718F48D918193F9CF842F089580E07F
:1040F00008950F93413208F04AC09091230791111F
:10410000FCCF32E030932307009321073FEF309339
:10411000B6061092FB064093FA06FB016CEF76E0C0
:10412000DB013A2F361B341718F431913D93F9CF48
:104130001092220730912207880F832B8093220749
:1041400080912007813061F410922007809122072E
:104150008093BB008091BC0083FDF8CF85EC01C04B
:1041600085EE8093BC00222321F0809123078230CA
:10417000D1F38091B6068F3F79F08091B6068032F8
:1041800041F08091B606803331F094E005C091E0B3
:1041900003C092E001C093E0892F0F9108954091F0
:1041A000D806262F30E0240F311D21323105DCF4F2
:1041B000209123072430C9F4FC0180E090E08617A9
:1041C00058F43091D8062191DC01A652B94FA30FC3
:1041D000B11D2C930196F3CF8091D806680F6093A0
:1041E000D80680E0089581E0089582E0089585ED85
:1041F0008093BC008091BC0084FDFCCF109223070B
:10420000089585EC8093BC001092230708951F92B7
:104210000F920FB60F9211242F933F934F935F93FA
:104220006F937F938F939F93AF93BF93EF93FF937E
:104230008091B900887F803609F49EC078F5883275
:1042400009F45DC090F4803109F456C038F4882335
:1042500009F4F5C0883009F44FC0F5C0883109F47D
:104260004EC0803209F45FC0EEC0803409F46AC0E9
:1042700058F4803309F457C0883309F0E4C08093C0
:10428000B6060E940121DFC0803509F44FC0883591
:1042900009F45DC0883409F0D6C0D3C0883909F468
:1042A000C4C0A8F4883709F467C038F4883609F424
:1042B00063C0803709F460C0C6C0883809F4B5C04F
:1042C000803909F45FC0803809F0BDC05BC0803B15
:1042D00009F483C038F4803A09F466C0883A09F4D6
:1042E0007CC0B1C0803C09F4A4C0883C09F4A1C0E2
:1042F000883B09F487C0A7C08091220710C0909125
:10430000FB068091FA06981770F5E091FB0681E0B4
:104310008E0F8093FB06F0E0E450F94F808180938C
:10432000BB0085EC83C08093B6068BC0E091FB0692
:1043300081E08E0F8093FB068091BB00F0E0E4509B
:10434000F94F80839091FB068091FA066BC0E09153
:10435000FB0681E08E0F8093FB068091BB00F0E0AE
:10436000E450F94F80838091210781116AC081E078
:104370008093200784EA5EC083E080932307109235
:10438000B706CFCF8091B706803208F04EC0E091DB
:10439000B70681E08E0F8093B7068091BB00F0E0F6
:1043A000E854F94F8083BDCF0E9401218091B70668
:1043B000803230F4E091B706F0E0E854F94F108213
:1043C0006091B70670E0E0911C07F0911D0788EB43
:1043D00096E009951092B70636C084E080932307D3
:1043E0001092D9061092D806E0911E07F0911F078F
:1043F00009958091D806811105C081E08093D80687
:104400001092DA06E091D90681E08E0F8093D906EA
:10441000F0E0E652F94F80818093BB009091D9067D
:104420008091D806981708F47CCF85E88093BC006B
:104430000AC085EC8093BC001092230704C0109240
:10444000B6060E94F720FF91EF91BF91AF919F9127
:104450008F917F916F915F914F913F912F910F902D
:104460000FBE0F901F901895CF93DF9300D000D010
:10447000CDB7DEB7611571058105910579F09B0116
:10448000AC0169833A834B835C830E94A329298111
:104490003A814B815C810E941A2D03C060E070E07C
:1044A000CB010F900F900F900F90DF91CF91089557
:1044B000CF92DF92EF92FF920F931F9362177307D1
:1044C0008407950784F489019A016B017C01C90175
:1044D000B8016C197D098E099F090E9434226C0D68
:1044E0007D1D8E1D9F1D1F910F91FF90EF90DF90FE
:1044F000CF90089570E09B01382BC90108950E9666
:1045000024E1FC0111922A95E9F70895CF93DF93F6
:10451000EC01625F7F4F0E94430CCE01DF91CF918F
:104520000895CF93DF93EC016E5E7F4F0E94430CA2
:10453000CE01DF91CF910895CF93DF93EC016A5EB6
:104540007F4F0E94430CCE01DF91CF910895CF930E
:10455000DF93EC01625E7F4F0E94430CCE01DF913E
:10456000CF91089580E3FB0180833296842F82955A
:104570008F7090E1899F401911244A3014F4405DF6
:1045800001C0495C4293482F8111F0CF08950F93E9
:1045900000E020E040E060E084E297E00E94370C19
:1045A0000F9108957F928F929F92AF92BF92CF9278
:1045B000DF92EF92FF920F931F93CF93DF93CDB7CC
:1045C000DEB7AC970FB6F894DEBF0FBECDBF7C014F
:1045D000762E942E852E20E2B22ECE0101966C010D
:1045E000FC012B2D11922A95E9F70FEF2FEF4FEFDA
:1045F0006FEF86960E94370C85E194E09AA389A319
:1046000089A59AA5ABA5BCA58BA39CA3ADA3BEA36E
:1046100087010D5B1F4F43E450E0BE016F5D7F4F8C
:10462000C8010E941A10019609F4BFC081E0898375
:104630008A8386E0A82EAB821C82F7016481758193
:10464000868197810E94392D6D837E838F83988721
:1046500089869A8680E890E09C878B874CE150E0C1
:10466000B601C8010E942610F6012B2D11922A9541
:10467000E9F7470188E0880E911CF401D60101900A
:104680000D92AA94E1F740E150E0B601C8010E9402
:104690002610F6011192BA94E9F796E0A92EB12CF2
:1046A00040E250E0B601C8010E942610F1E0AF1AC6
:1046B000B108B1F783E6898392E89A8393E59B83F7
:1046C0008C8385E38D8381E08E837F829DE3988751
:1046D00097E099878A8786E0F401DE011B960190B6
:1046E0000D928A95E1F78CE0898B8A8B61E574E005
:1046F000CE0143960E949D2AF7014385BE01675E65
:104700007F4FC7010E94B222F7014485BE01655E5A
:104710007F4FC7010E94B222F7014585BE01635E4B
:104720007F4FC7010E94B2224EE150E0B601C8019E
:104730000E942610F3E07F121EC082E3898384E08A
:104740008A83F70196859B8397859C8390899D83B7
:1047500091899E8396E39F838887828D8987838D45
:104760008A87848D8B87858D8C874CE050E0B601DD
:10477000C8010E94261087E3898386E08A8391E03E
:104780009B8393E09C838D838FE08E838AE38F836A
:104790008BE388878FEF898749E050E0B601C80135
:1047A0000E942610C8010E942210AC960FB6F89401
:1047B000DEBF0FBECDBFDF91CF911F910F91FF9054
:1047C000EF90DF90CF90BF90AF909F908F907F90B1
:1047D00008952F923F924F925F926F927F928F92A5
:1047E0009F92AF92BF92DF92EF92FF920F931F932F
:1047F000CF93DF93CDB7DEB7E4970FB6F894DEBF63
:104800000FBECDBF7C011A012B0139010E949A070E
:104810004B015C0187010D5B1F4FC8010E94C8104E
:1048200018161906A4F00E949A07DC01CB0188191A
:104830009909AA09BB09281639064A065B06F0F051
:1048400062E370E080E090E00E94CB07E6CF42E2B6
:1048500050E0BE016F5F7F4FC8010E9463108981E5
:10486000823031F4F801848995898334910541F0CF
:10487000D12CC8010E9404108D2D5FC18FEF5DC146
:104880006D817E818F8198850E94392D4B015C015D
:10489000F301608371838283938346E050E0B70124
:1048A000685F7F4FCE014D960E947E2A892B99F436
:1048B000F70180819181A281B38188169906AA06A9
:1048C000BB0648F084819581A681B781881599053A
:1048D000AA05BB0528F4C8010E94041080E02DC180
:1048E00089899A89AB89BC89F70186879787A08BCC
:1048F000B18B8EECA82EB12CC8010E943A10F1E0C9
:10490000AF1AB108C9F7D12CC70182969AA789A717
:10491000F701B696FCA7EBA708969EA78DA73C9734
:104920004F01899698AB8FA73897FAABE9AB17017F
:10493000F6E12F0E311CC5979CAB8BABC8010E94D2
:10494000EA0F181619060CF094CFC8010E943A100D
:104950008333910509F4CBC0FCF481309105C9F192
:104960001CF4892B59F3DDC083309105D1F10697F2
:1049700009F0D7C0C8010E943A105C0144E050E041
:104980006BA97CA9C8010E946310412C512CBB2447
:10499000F4E0AF1AB10840C08A33910509F47BC036
:1049A0003CF48533910569F0C69709F440C0B9C05D
:1049B0008B33910509F485C08F3F910509F4BECF73
:1049C000B0C0C8010E943A10C8010E943A10D82E07
:1049D000B5CFC8010E943A1044E050E069A97AA915
:1049E0003AC0C8010E943A105C0144E050E0B101B5
:1049F000C8010E946310412C512CBB2494E0A91AD9
:104A0000B1084A145B040CF099CFC8010E943A1017
:104A1000EFEF4E1A5E0AF5CF4A145B040CF08ECF0E
:104A2000C8010E943A108FEF481A580AF5CFC80102
:104A30000E943A10B82EF701828D811110C0838D2B
:104A400081110DC0848D81110AC0858D811107C02F
:104A500044E050E0B401C8010E9463106FCFEFA59D
:104A6000F8A94080518062807380B401CE018396A2
:104A70000E94430C8DA19EA1AFA1B8A584159505F8
:104A8000A605B70529F3BB2009F458CFC8010E9439
:104A90003A10BA94F8CFC8010E943A1044E050E0AE
:104AA0006BA57CA5C8010E946310F70166A177A1E0
:104AB00080A591A50E94392D66A377A380A791A711
:104AC0003DCFC8010E943A1044E050E06DA57EA59C
:104AD000C8010E946310F70162A573A584A595A57E
:104AE0000E94392D62A773A784A795A727CFC80175
:104AF0000E943A1044E050E069A57AA5C8010E94DE
:104B00006310F70162A173A184A195A10E94392DC0
:104B100062A373A384A395A366A777A780AB91AB89
:104B20000DCFC8010E943A10B82EBB2009F406CF61
:104B3000C8010E943A10BA94F8CFE4960FB6F894E0
:104B4000DEBF0FBECDBFDF91CF911F910F91FF90C0
:104B5000EF90DF90BF90AF909F908F907F906F907D
:104B60005F904F903F902F9008952F923F924F92D9
:104B70005F926F927F928F929F92AF92BF92CF92ED
:104B8000DF92EF92FF920F931F93CF93DF93CDB7F6
:104B9000DEB727970FB6F894DEBF0FBECDBF8C01EE
:104BA00020ED37E040E050E061E070E080E090E030
:104BB0000E945822D80114966D937D938D939C93F7
:104BC0001797F80160837183828393835801F3E41C
:104BD000AF0EB11CC5010E94051064E470E0C50170
:104BE0000E949B10882309F43CC10E949A072B0164
:104BF0003C01812C912C1D82C8018E5B9F4F9F83AD
:104C00008E8343E0342E58EEC52E53E0D52EE12C92
:104C1000F12C62E0262EAE81BF818C91833009F4A5
:104C200007C1811120C0F80184819581A681B781D7
:104C30000196A11DB11D84839583A683B7830E942D
:104C40009A076419750986099709A70196010E94B8
:104C5000F82CA90161E0C8010E94D22281E0AE8156
:104C6000BF818C93C6C08430F9F4F80184819581AA
:104C7000A681B7810196A11DB11D84839583A6836A
:104C8000B7830E949A076419750986099709A701D5
:104C900096010E94F82CA90163E0C8010E94D2226B
:104CA000AE81BF812C92A5C0813061F5F80142AD83
:104CB00053AD64AD75AD9E012F5F3F4FC8010E949B
:104CC000E9238D83823009F094C089819A81AB8178
:104CD000BC81F80184839583A683B7830E949A07D9
:104CE0006419750986099709A70196010E94F82C95
:104CF000A90163E0C8010E94D222ED81AE81BF818B
:104D0000EC937EC0823009F074C0D801DA964D91E0
:104D10005D916D917C91DD979E012F5F3F4FC801A2
:104D20000E94E9238D83853009F05CC0EE81FF810C
:104D30003082F80182A193A1A4A1B5A1892B8A2B6D
:104D40008B2B41F484E893E0A0E0B0E082A393A32E
:104D5000A4A3B5A3F80186A197A1A0A5B1A5892B0D
:104D60008A2B8B2B61F482A193A1A4A1B5A1B69546
:104D7000A7959795879586A397A3A0A7B1A7F801B4
:104D800082A593A5A4A5B5A5892B8A2B8B2BA9F465
:104D900082A193A1A4A1B5A1AC01BD0123E07695A8
:104DA0006795579547952A95D1F7841B950BA60BC8
:104DB000B70B82A793A7A4A7B5A7F80186A197A1CF
:104DC000A0A5B1A586A797A7A0ABB1AB82A593A5D7
:104DD000A4A5B5A582AB93ABA4ABB5AB8824839453
:104DE000912C0EC0FD81F63021F4AE81BF811C9262
:104DF00007C0BD81BF3F21F4EE81FF8110821D827B
:104E0000F1E08F16910409F406CF0E949A07DC01A5
:104E1000CB0184199509A609B709F80126A937A974
:104E200040AD51AD281739074A075B0708F0F3CEAC
:104E3000C5010E940510F80184819581A681B78182
:104E40000196A11DB11D84839583A683B7830E941B
:104E50009A07F801FE966083718382839383C4016D
:104E600002C080E090E027960FB6F894DEBF0FBE38
:104E7000CDBFDF91CF911F910F91FF90EF90DF9009
:104E8000CF90BF90AF909F908F907F906F905F90EA
:104E90004F903F902F900895CF92DF92EF92FF9224
:104EA0000F931F93CF93DF93EC016B011AA21BA208
:104EB0001CA21DA21EA21FA218A619A61AA61BA6F6
:104EC0001CA61DA62EAB3FAB48AF59AFEAAEFBAE5A
:104ED0000CAF1DAF8C01085F1F4F86E0F8011192E7
:104EE0008A95E9F7CE010E947F2286E0F601D8017B
:104EF00001900D928A95E1F7FE01EE5BFF4F108263
:104F0000CE01DF91CF911F910F91FF90EF90DF9035
:104F1000CF900C94B525CF92DF92EF92FF920F9332
:104F20001F93CF93DF93EC010E949A076B017C01E2
:104F30008E01025C1F4FF80180819181A281B381B3
:104F4000A7019601281B390B4A0B5B0BCA01B9015B
:104F5000683E33E073078105910508F441C028EEEF
:104F600033E040E050E00E94F82CC61AD70AE80A65
:104F7000F90AF801C082D182E282F3828EA59FA550
:104F8000A8A9B9A969017A01CC0CDD1CEE1CFF1C93
:104F90008C159D05AE05BF0528F41EA61FA618AAF0
:104FA00019AA08C0821B930BA40BB50B8EA79FA751
:104FB000A8ABB9AB8AA99BA9ACA9BDA98C159D05C5
:104FC000AE05BF0528F41AAA1BAA1CAA1DAA08C070
:104FD000821B930BA40BB50B8AAB9BABACABBDABED
:104FE0008EA59FA5A8A9B9A9892B8A2B8B2B69F41B
:104FF000FE01EE5BFF4F8081833039F484E08083D3
:10500000CE010E94B525019602C080E090E04AA939
:105010005BA96CA97DA9452B462B472B81F4FE018A
:10502000EE5BFF4F2081233011F0211108C0108268
:10503000CE010E947F22CE010E94B5250396DF910A
:10504000CF911F910F91FF90EF90DF90CF90089537
:10505000CF93DF938230910510F482E090E0E091ED
:105060002C07F0912D0720E030E0C0E0D0E0309731
:1050700011F14081518148175907C0F0481759076D
:1050800061F482819381209719F09B838A832BC0DE
:1050900090932D0780932C0726C02115310519F018
:1050A0004217530718F49A01BE01DF01EF01028095
:1050B000F381E02DDCCF2115310509F1281B390BD7
:1050C0002430310590F412968D919C9113976115BF
:1050D000710521F0FB019383828304C090932D0717
:1050E00080932C07FD01329644C0FD01E20FF31FAF
:1050F00081939193225031092D933C933AC0209192
:105100002A0730912B07232B41F420910201309183
:10511000030130932B0720932A072091000130913F
:1051200001012115310541F42DB73EB7409104012D
:1051300050910501241B350BE0912A07F0912B07B4
:10514000E217F307A0F42E1B3F0B2817390778F05E
:10515000AC014E5F5F4F2417350748F04E0F5F1FBD
:1051600050932B0740932A078193919302C0E0E06C
:10517000F0E0CF01DF91CF9108950F931F93CF936C
:10518000DF93009709F48CC0FC01329713821282DE
:1051900000912C0710912D070115110581F4208134
:1051A0003181820F931F20912A0730912B072817F6
:1051B000390779F5F0932B07E0932A0771C0D801DE
:1051C00040E050E0AE17BF0750F412962D913C918D
:1051D0001397AD012115310509F1D901F3CF9D01D7
:1051E000DA013383228360817181860F971F8217D2
:1051F000930769F4EC0128813981260F371F2E5F50
:105200003F4F318320838A819B8193838283452B07
:1052100029F4F0932D07E0932C0742C01396FC93DA
:10522000EE931297ED01499159919E01240F351F7C
:10523000E217F30771F480819181840F951F029624
:1052400011969C938E938281938113969C938E9357
:105250001297E0E0F0E0D80112968D919C9113979F
:10526000009719F0F8018C01F6CF8D919C9198016F
:105270002E5F3F4F820F931F20912A0730912B07FB
:105280002817390769F4309729F410922D071092E6
:105290002C0702C01382128210932B0700932A0757
:1052A000DF91CF911F910F9108958F929F92AF92AE
:1052B000BF92CF92DF92EF92FF92CF93DF93EC01F8
:1052C000688179818A819B816115710581059105CC
:1052D00021F464E279ED8BE597E02DE133EF41E0D5
:1052E00050E00E941A2D49015A019B01AC01A7EA26
:1052F000B1E40E94402D6B017C01ACEEB4EFA5013E
:1053000094010E944E2DDC01CB018C0D9D1DAE1D24
:10531000BF1DB7FF03C00197A109B04888839983D7
:10532000AA83BB83BC01CD019F77DF91CF91FF9012
:10533000EF90DF90CF90BF90AF909F908F900895A7
:105340000E945529089586E091E00E94552908950C
:1053500060930601709307018093080190930901FF
:105360000895A0E0B0E0E7EBF9E20C94572DEC01D2
:10537000009721F4CB010E942828B8C0FC01E60F59
:10538000F71F9C0122503109E217F30708F4ACC063
:10539000D9010D911C91119706171707B0F0053030
:1053A000110508F49FC0C80104978617970708F4F1
:1053B00099C002501109061B170B019311936D93AD
:1053C0007C93CF010E94BD288DC05B01A01AB10A59
:1053D0004C01800E911EA0912C07B0912D0740E04A
:1053E00050E0E12CF12C109709F44AC0A815B9053A
:1053F000D1F56D907C901197630182E0C80ED11CAD
:10540000CA14DB0480F1A3014A195B096A0182E036
:10541000C80ED11C1296BC9012971396AC91B5E0B1
:10542000CB16D10440F0B282A38351834083D901CB
:105430006D937C930AC00E5F1F4FC301800F911FB5
:10544000F90191838083EB2DFA2FE114F10431F0FF
:10545000D7011396FC93EE93129744C0F0932D0757
:10546000E0932C073FC08D919C91119748175907E5
:1054700008F4AC017D0112960D90BC91A02DB3CF24
:1054800080912A0790912B0788159905E1F446171A
:105490005707C8F48091000190910101009741F4F1
:1054A0008DB79EB74091040150910501841B950B67
:1054B000E817F907C8F4F0932B07E0932A07F901DE
:1054C000718360830FC0CB010E9428287C01009764
:1054D00059F0A801BE010E948B2ACE010E94BD286E
:1054E000C70104C0CE0102C080E090E0CDB7DEB7B6
:1054F000EEE00C94732DF8940C94B52DFB01DC01B7
:1055000004C08D910190801921F441505040C8F79A
:10551000881B990B0895FB01DC0102C001900D92DC
:1055200041505040D8F70895FB01DC018D91019066
:1055300080190110D9F3990B0895FB01DC0101904A
:105540000D920020E1F708954532510520F44230D4
:1055500010F00C94AF2AFB011082CB010895BB27F9
:105560004A3031F4992322F4BDE2909581959F4F02
:105570000C94C62A4532510520F4423010F00C94A8
:10558000C52AFB011082CB010895BB27FB015527DB
:10559000AA27880F991FAA1FA41710F0A41B839590
:1055A0005051B9F7A05DAA3308F0A95DA193009707
:1055B00079F7B111B1931192CB010C94E82C5058AA
:1055C000BB27AA270E94F72A0C94412C0E94332C57
:1055D00038F00E943A2C20F039F49F3F19F426F459
:1055E0000C94302C0EF4E095E7FB0C942A2CE92F58
:1055F0000E94522C58F3BA17620773078407950765
:1056000020F079F4A6F50C94742C0EF4E0950B2E92
:10561000BA2FA02D0B01B90190010C01CA01A00104
:105620001124FF27591B99F0593F50F4503E68F15F
:105630001A16F040A22F232F342F4427585FF3CFA0
:10564000469537952795A795F0405395C9F77EF471
:105650001F16BA0B620B730B840BBAF09150A1F0BA
:10566000FF0FBB1F661F771F881FC2F70EC0BA0F40
:10567000621F731F841F48F4879577956795B795C8
:10568000F7959E3F08F0B0CF9395880F08F09927C3
:10569000EE0F9795879508950E94602B0C94412CEE
:1056A0000E943A2C58F00E94332C40F029F45F3FBE
:1056B00029F00C942A2C51110C94752C0C94302C3C
:1056C0000E94522C68F39923B1F3552391F3951B53
:1056D000550BBB27AA2762177307840738F09F5F13
:1056E0005F4F220F331F441FAA1FA9F335D00E2E80
:1056F0003AF0E0E832D091505040E695001CCAF7ED
:105700002BD0FE2F29D0660F771F881FBB1F2617AF
:1057100037074807AB07B0E809F0BB0B802DBF0186
:10572000FF2793585F4F3AF09E3F510578F00C9455
:105730002A2C0C94752C5F3FE4F3983ED4F38695A5
:1057400077956795B795F7959F5FC9F7880F911D76
:105750009695879597F90895E1E0660F771F881F62
:10576000BB1F621773078407BA0720F0621B730B15
:10577000840BBA0BEE1F88F7E09508950E945A2C0F
:1057800088F09F5798F0B92F9927B751B0F0E1F002
:10579000660F771F881F991F1AF0BA95C9F714C0B2
:1057A000B13091F00E94742CB1E008950C94742CE7
:1057B000672F782F8827B85F39F0B93FCCF38695EB
:1057C00077956795B395D9F73EF490958095709548
:1057D00061957F4F8F4F9F4F0895E89409C097FBC5
:1057E0003EF490958095709561957F4F8F4F9F4FB8
:1057F0009923A9F0F92F96E9BB279395F6958795FC
:1058000077956795B795F111F8CFFAF4BB0F11F4BE
:1058100060FF1BC06F5F7F4F8F4F9F4F16C0882365
:1058200011F096E911C0772321F09EE8872F762F9B
:1058300005C0662371F096E8862F70E060E02AF0DC
:105840009A95660F771F881FDAF7880F96958795C8
:1058500097F9089597F99F6780E870E060E00895F0
:105860009FEF80EC089500240A9416161706180678
:105870000906089500240A94121613061406050654
:105880000895092E0394000C11F4882352F0BB0FE5
:1058900040F4BF2B11F460FF04C06F5F7F4F8F4F48
:1058A0009F4F089557FD9058440F551F59F05F3F83
:1058B00071F04795880F97FB991F61F09F3F79F032
:1058C00087950895121613061406551FF2CF4695B4
:1058D000F1DF08C0161617061806991FF1CF869536
:1058E0007105610508940895E894BB27662777271A
:1058F000CB0197F908950E948E2C0C94412C0E94A4
:10590000332C38F00E943A2C20F0952311F00C949F
:105910002A2C0C94302C11240C94752C0E94522C9F
:1059200070F3959FC1F3950F50E0551F629FF001F2
:10593000729FBB27F00DB11D639FAA27F00DB11D0B
:10594000AA1F649F6627B00DA11D661F829F222794
:10595000B00DA11D621F739FB00DA11D621F839F1B
:10596000A00D611D221F749F3327A00D611D231FF1
:10597000849F600D211D822F762F6A2F11249F573F
:1059800050409AF0F1F088234AF0EE0FFF1FBB1F42
:10599000661F771F881F91505040A9F79E3F510501
:1059A00080F00C942A2C0C94752C5F3FE4F3983E05
:1059B000D4F3869577956795B795F795E7959F5FAB
:1059C000C1F7FE2B880F911D9695879597F908953D
:1059D000DC01FC01672F71917723E1F7329704C056
:1059E0007C916D9370836291AE17BF07C8F30895E1
:1059F000A1E21A2EAA1BBB1BFD010DC0AA1FBB1FD3
:105A0000EE1FFF1FA217B307E407F50720F0A21B44
:105A1000B30BE40BF50B661F771F881F991F1A94B1
:105A200069F760957095809590959B01AC01BD01DB
:105A3000CF010895052E97FB1EF400940E94312D8E
:105A400057FD07D00E94F82C07FC03D04EF40C94AD
:105A5000312D50954095309521953F4F4F4F5F4FD9
:105A6000089590958095709561957F4F8F4F9F4FCA
:105A70000895692796276927782787277827089523
:105A80000E94902DA59F900DB49F900DA49F800D16
:105A9000911D11240895B7FF0C94402D0E94402DB4
:105AA000821B930B08952F923F924F925F926F92B9
:105AB0007F928F929F92AF92BF92CF92DF92EF929E
:105AC000FF920F931F93CF93DF93CDB7DEB7CA1B1F
:105AD000DB0B0FB6F894DEBF0FBECDBF09942A884A
