:100000000C9466000C948E000C948E000C948E0060
:100010000C948E000C948E000C94190F0C948E008E
:100020000C948E000C948E000C948E000C948E0018
:100030000C948E000C948E000C948E000C948E0008
:100040000C9412070C948E000C9481090C94B30943
:100050000C948E000C948E000C948E000C948E00E8
:100060000C94F1200C948E000000000800020100A6
:100070000003040700000000000000000102040863
:100080001020408001020408102001020408102002
:10009000040404040404040402020202020203032E
:1000A0000303030300000000250028002B000000CC
:1000B0000000240027002A009000E309930A120F91
:1000C0001412C4181919F91FB122F50011241FBE0A
:1000D000CFEFD8E0DEBFCDBF13E0A0E0B1E0E6E9AE
:1000E000FBE502C005900D92A83FB107D9F726E0C5
:1000F000A8EFB3E001C01D92A23CB207E1F710E007
:10010000C5E6D0E004C02197FE010E94A12DCC35A8
:10011000D107C9F70E94110A0C94652A0C940000BB
:100120000F9300E020E040E060E08EEA94E00E945F
:100130006C0A01E021E041E06AE088EA94E00E9474
:100140006C0A8DE894E00E949C1182E794E00E9482
:100150009C1187E594E00E949C1162E973E081E3C1
:1001600094E00E940C0B87E294E00E94091C0E941C
:100170005C07609323047093240480932504909378
:10018000260482E294E00E947F0E81E294E00E94C5
:100190007F0E89E194E00E94980DE8EFF3E08DE98D
:1001A0009FEFAFEFBFEF80839183A283B3838FEF85
:1001B0008483858380E090E0A6ECB2EC868397830D
:1001C000A087B18782879387A487B587868797871B
:1001D000A08BB18B828B938BA48BB58B148E158ED9
:1001E000168E178E10A20F91089581E394E00C945F
:1001F0009E0A0F931F93CF93DF93CDB7DEB7689717
:100200000FB6F894DEBF0FBECDBF8C010E945C0715
:10021000AB01BC012AE0CE0101960E94B10B2091F6
:10022000FC03622F70E04AE0CE010D960E94850B20
:1002300066E171E0CE0107960E940C0BBE01635F80
:100240007F4FCE0107960E940C0C6AE771E00E9476
:100250001F0CBE016F5F7F4F0E940C0C6CE171E0C0
:100260000E941F0CB8010E940C0CBC01CE014396E9
:100270000E94380BCE0107960E949E0ACE010D9671
:100280000E949E0ACE0101960E949E0A40910A0198
:1002900050910B0183EA93E09A8389838091AA04A9
:1002A0009091AB04A091AC04B091AD048B839C837E
:1002B000AD83BE83BE016F5F7F4F87E594E00E94F0
:1002C0000410BE016D5E7F4F87E594E00E94DD085B
:1002D00087E594E00E940C10CE0143960E949E0A8E
:1002E00068960FB6F894DEBF0FBECDBFDF91CF91F9
:1002F0001F910F9108958F929F92AF92BF92CF92CC
:10030000DF92EF92FF920F931F93CF93DF9300D072
:1003100000D000D0CDB7DEB760E47FE180E695E0A5
:100320000E94900F0E945C074B015C0126E040E0B8
:1003300051EE60E070E08DEB94E00E942C0D6FE1D7
:1003400071E08DEB94E00E94000960E082E00E9481
:100350006A0861E082E00E942E0860E082E00E946C
:100360006A0860E085E00E946A0861E085E00E941A
:100370002E0860E085E00E946A0860E086E00E9446
:100380006A0861E086E00E942E0860E086E00E9434
:100390006A0861E083E00E946A0861E083E00E94ED
:1003A0002E0861E083E00E946A0861E087E00E9415
:1003B0006A0861E087E00E942E0861E087E00E9401
:1003C0006A0861E084E00E946A0861E084E00E94BB
:1003D0002E0861E084E00E946A0801E514E09EE0D6
:1003E000E92E94E0F92E80912F04909130049C0125
:1003F0002F5F3F4F3093300420932F040E94B62D7F
:10040000F80181938F01F70181937F01F4E00735B3
:100410001F0749F710EAE12E1FE0F12E00E010E07F
:1004200020E63AEE40E050E061E574E08AE795E0CE
:100430000E949A17892B61F46FE271E08DEB94E0D2
:100440000E94000960E177E280E090E00E948D0761
:100450006DE671E08DEB94E00E9400096AE775E0BB
:10046000CE0101960E949C18BE016F5F7F4F8DEBFD
:1004700094E00E94120960910E0170910F018DE8C5
:1004800094E00E94851060910C0170910D0182E74B
:1004900094E00E94851060910A0170910B0187E53C
:1004A00094E00E9485106CED75E080E090E00E9481
:1004B0008D076CE771E0CE0101960E940C0BCE0116
:1004C00001960E94F900CE0101960E949E0A6DE8F5
:1004D00071E0CE0101960E940C0BCE0101960E94A4
:1004E000F900CE0101960E949E0A6FEA71E0CE01EA
:1004F00001960E940C0BCE0101960E94F900CE01DC
:1005000001960E949E0A4AE060915104CE01019634
:100510000E94580BCE0101960E94F900CE0101966F
:100520000E949E0A4AE060915204CE0101960E9408
:10053000580BCE0101960E94F900CE0101960E944F
:100540009E0A4AE060915304CE0101960E94580B26
:10055000CE0101960E94F900CE0101960E949E0AEA
:100560004AE060915404CE0101960E94580BCE01DE
:1005700001960E94F900CE0101960E949E0A4AE06F
:1005800060915504CE0101960E94580BCE01019650
:100590000E94F900CE0101960E949E0A4AE06091F5
:1005A0005604CE0101960E94580BCE0101960E947E
:1005B000F900CE0101960E949E0A4FEF6EE387E29A
:1005C00094E00E94C31E882309F4BDC062EC71E070
:1005D0008DEB94E00E94000962EC71E0CE0101967F
:1005E0000E940C0BCE0101960E94F900CE010196EB
:1005F0000E949E0A40E060E087E294E00E94601E54
:1006000040E060E087E294E00E946B1D40E061E022
:1006100087E294E00E94601E40E061E087E294E09F
:100620000E946B1D40E062E087E294E00E94601E41
:1006300040E062E087E294E00E946B1D40E063E0EE
:1006400087E294E00E94601E40E063E087E294E06D
:100650000E946B1D40E064E087E294E00E94601E0F
:1006600040E064E087E294E00E946B1D40E065E0BA
:1006700087E294E00E94601E40E065E087E294E03B
:100680000E946B1D40E066E087E294E00E94601EDD
:1006900040E066E087E294E00E946B1D40E067E086
:1006A00087E294E00E94601E40E067E087E294E009
:1006B0000E946B1D40E068E087E294E00E94601EAB
:1006C00040E068E087E294E00E946B1D40E069E052
:1006D00087E294E00E94601E40E069E087E294E0D7
:1006E0000E946B1D40E06AE087E294E00E94601E79
:1006F00040E06AE087E294E00E946B1D40E06BE01E
:1007000087E294E00E94601E40E06BE087E294E0A4
:100710000E946B1D41E06CE087E294E00E94601E45
:1007200041E06DE087E294E00E94601E41E06EE0EF
:1007300087E294E00E94601E41E06FE087E294E06F
:100740000E94601E14C069ED71E08DEB94E00E9480
:10075000000969ED71E0CE0101960E940C0BCE01FB
:1007600001960E94F900CE0101960E949E0A00E0C7
:1007700010E0602F87E294E00E94921D002E01C0DD
:10078000880F0A94EAF72091FC03822B8093FC03E4
:1007900063EF71E0CE0101960E940C0BCE01019631
:1007A0000E94F900CE0101960E949E0A4AE06091E3
:1007B000FC03CE0101960E94580BCE0101960E94C7
:1007C000F900CE0101960E949E0A0F5F1F4F08306C
:1007D000110579F608E010E0602F87E294E00E94AE
:1007E000921D002E01C0880F0A94EAF72091FD03A4
:1007F000822B8093FD030F5F1F4F0F30110561F7B0
:100800000E945C076B017C016CE072E0CE010196F6
:100810000E940C0BCE0101960E94F900CE010196B8
:100820000E949E0AB701A601481959096A097B0965
:100830002AE0CE0101960E94B10BCE0101960E94E2
:10084000F900CE0101960E949E0A26960FB6F894F2
:10085000DEBF0FBECDBFDF91CF911F910F91FF90F3
:10086000EF90DF90CF90BF90AF909F908F900895C2
:10087000CF93DF9300D000D000D0CDB7DEB763E2D6
:1008800072E08DEB94E00E94000963E272E0CE0119
:1008900001960E940C0BCE0101960E94F900CE0138
:1008A00001960E949E0A64EF71E080E090E00E9451
:1008B0008D0760E084E00E946A0826960FB6F894DF
:1008C000DEBF0FBECDBFDF91CF910895CF93DF93F1
:1008D000CDB7DEB72C970FB6F894DEBF0FBECDBFF5
:1008E00048E150E067E374E08DE894E00E944D1029
:1008F00067E374E0CE0107960E940C0B6AE372E096
:10090000CE0107960E94380C882349F06FE372E00D
:100910008DEB94E00E9400096FE372E0C7C060E5D0
:1009200072E0CE0107960E94380C882361F061E0E6
:1009300082E00E946A0881E08093140480E695E0DA
:100940000E94230FD9C06DE572E0CE0107960E9488
:10095000380C882339F060E082E00E946A08109227
:100960001404ECCF6BE672E0CE0107960E94380CBF
:10097000882371F069E772E08DEB94E00E94000932
:1009800060E083E00E946A0881E080931704D6CF7C
:1009900067E872E0CE0107960E94380C882369F060
:1009A00066E972E08DEB94E00E94000961E083E06B
:1009B0000E946A0810921704C1CF65EA72E0CE0166
:1009C00007960E94380C882371F063EB72E08DEB80
:1009D00094E00E94000960E087E00E946A0881E0DC
:1009E00080931804ABCF61EC72E0CE0107960E94B1
:1009F000380C882369F060ED72E08DEB94E00E9482
:100A0000000961E087E00E946A081092180496CFFE
:100A10006FED72E0CE0107960E94380C882341F0FA
:100A200061E085E00E946A0881E08093150486CF2A
:100A300066EE72E0CE0107960E94380C882339F0EA
:100A400060E085E00E946A081092150477CF6EEE90
:100A500072E0CE0107960E94380C882371F065EF92
:100A600072E08DEB94E00E94000961E086E00E9454
:100A70006A0881E08093160461CF6CEF72E0CE01CA
:100A800007960E94380C882339F060E086E00E94C7
:100A90006A081092160452CF64E073E0CE01079604
:100AA0000E94380C882379F069E073E0CE0101964A
:100AB0000E940C0BCE0101960E94F900CE01019616
:100AC0000E949E0A3BCF6EE073E0CE0107960E9423
:100AD000380C882319F00E9438040EC064E173E0DA
:100AE000CE0101960E940C0BCE0101960E94F900E6
:100AF000CE0101960E949E0A88E1E7E3F4E0DF015F
:100B00001D928A95E9F7CE0107960E949E0A2C96BF
:100B10000FB6F894DEBF0FBECDBFDF91CF91089521
:100B20008F929F92AF92BF92CF92DF92EF92FF92FD
:100B3000CF93DF9300D000D000D0CDB7DEB70E94B6
:100B40005C074B015C016BE182E294E00E94D30EF2
:100B5000882369F082E294E00E94F50E6093FE0320
:100B60007093FF03809300049093010420C06FE210
:100B700073E08DEB94E00E9400096FE273E0CE0118
:100B800001960E940C0BCE0101960E94F900CE0145
:100B900001960E949E0A80E090E0A6ECB2EC809361
:100BA000FE039093FF03A0930004B09301046AE155
:100BB00081E294E00E94D30E882369F081E294E000
:100BC0000E94F50E60930204709303048093040462
:100BD0009093050420C065E473E08DEB94E00E94DF
:100BE000000965E473E0CE0101960E940C0BCE0172
:100BF00001960E94F900CE0101960E949E0A80E0B3
:100C000090E0A6ECB2EC8093020490930304A093CE
:100C10000404B093050489E194E00E94AF0D882399
:100C2000C9F089E194E00E94DD0D609306047093A1
:100C30000704809308049093090489E194E00E94DA
:100C40002E0E60930A0470930B0480930C0490930F
:100C50000D0428C06BE573E08DEB94E00E94000961
:100C60006BE573E0CE0101960E940C0BCE0101965C
:100C70000E94F900CE0101960E949E0A80E090E059
:100C8000A6ECB2EC8093060490930704A0930804AA
:100C9000B093090480930A0490930B04A0930C046E
:100CA000B0930D040E945C076B017C0180912304CA
:100CB00090912404A0912504B0912604B701A601C7
:100CC000481B590B6A0B7B0B413D87E058076105B8
:100CD000710508F45AC02AE0CE0101960E94B10BBA
:100CE000CE0101960E94F900CE0101960E949E0A53
:100CF0000E945C076093F8037093F9038093FA03F2
:100D00009093FB0340910C0150910D0183EA93E015
:100D10009A8389838091AA049091AB04A091AC043A
:100D2000B091AD048B839C83AD83BE83BE016F5FA6
:100D30007F4F82E794E00E94041041E250E068EFA8
:100D400073E082E794E00E94101082E794E00E9432
:100D50000C106EE673E08DEB94E00E9400096EE6E5
:100D600073E0CE0101960E940C0BCE0101960E9409
:100D7000F900CE0101960E949E0AC0922304D092EF
:100D80002404E0922504F09226048DE894E00E9469
:100D9000B2109093500480934F041816190614F45F
:100DA0000E9466048AE795E00E9437180E945C075B
:100DB0006B017C0161E873E0CE0101960E940C0B8F
:100DC000CE0101960E94F900CE0101960E949E0A72
:100DD000B701A601481959096A097B092AE0CE0121
:100DE00001960E94B10BCE0101960E94F900CE013E
:100DF00001960E949E0A64E670E080E090E00E9406
:100E00008D0726960FB6F894DEBF0FBECDBFDF91DB
:100E1000CF91FF90EF90DF90CF90BF90AF909F90D9
:100E20008F9008951F920F920FB60F9211242F9357
:100E30003F938F939F93AF93BF938091B50490910D
:100E4000B604A091B704B091B8043091B40423E083
:100E5000230F2D3720F40196A11DB11D05C026E8F2
:100E6000230F0296A11DB11D2093B4048093B504F5
:100E70009093B604A093B704B093B8048091B904DA
:100E80009091BA04A091BB04B091BC040196A11D3D
:100E9000B11D8093B9049093BA04A093BB04B0939E
:100EA000BC04BF91AF919F918F913F912F910F9073
:100EB0000FBE0F901F9018952FB7F8946091B5044E
:100EC0007091B6048091B7049091B8042FBF089533
:100ED0003FB7F8948091B9049091BA04A091BB04F3
:100EE000B091BC0426B5A89B05C02F3F19F0019610
:100EF000A11DB11D3FBFBA2FA92F982F8827820FA0
:100F0000911DA11DB11DBC01CD0142E0660F771FEF
:100F1000881F991F4A95D1F708958F929F92AF929B
:100F2000BF92CF92DF92EF92FF926B017C010E9401
:100F300068074B015C01C114D104E104F10401F123
:100F40000E9404080E946807DC01CB0188199909F6
:100F5000AA09BB09883E9340A105B10560F321E0D1
:100F6000C21AD108E108F10888EE880E83E0981EC5
:100F7000A11CB11CC114D104E104F10419F7DBCFA9
:100F8000FF90EF90DF90CF90BF90AF909F908F90A9
:100F90000895789484B5826084BD84B5816084BDF1
:100FA00085B5826085BD85B5816085BDEEE6F0E0E2
:100FB000808181608083E1E8F0E01082808182603E
:100FC0008083808181608083E0E8F0E080818160BF
:100FD0008083E1EBF0E0808184608083E0EBF0E0EF
:100FE000808181608083EAE7F0E080818460808393
:100FF000808182608083808181608083808180683D
:1010000080831092C10008950895833081F028F400
:10101000813099F08230A1F008958730A9F08830AE
:10102000B9F08430D1F4809180008F7D03C080912D
:1010300080008F7780938000089584B58F7702C0F9
:1010400084B58F7D84BD08958091B0008F7703C0F3
:101050008091B0008F7D8093B0000895CF93DF938F
:1010600090E0FC01E458FF4F2491FC01E057FF4F52
:101070008491882361F190E0880F991FFC01E2556B
:10108000FF4FC591D491FC01EC55FF4FA591B49150
:10109000611109C09FB7F8948881209582238883C5
:1010A000EC912E230BC0623061F49FB7F894388125
:1010B000822F809583238883EC912E2B2C939FBFC6
:1010C00006C08FB7F894E8812E2B28838FBFDF915D
:1010D000CF9108951F93CF93DF93282F30E0F9012C
:1010E000E859FF4F8491F901E458FF4FD491F90179
:1010F000E057FF4FC491CC23C9F0162F81110E94F5
:101100000508EC2FF0E0EE0FFF1FEC55FF4FA59107
:10111000B4918FB7F894111105C09C91ED2FE09513
:10112000E92302C0EC91ED2BEC938FBFDF91CF91BF
:101130001F91089580E090E00895CF92DF92EF92A2
:10114000FF920F931F93CF93DF936C017A018B0172
:10115000C0E0D0E0CE15DF0589F0D8016D918D019A
:10116000D601ED91FC910190F081E02DC601099529
:10117000892B11F47E0102C02196ECCFC701DF91CB
:10118000CF911F910F91FF90EF90DF90CF90089536
:101190006115710579F0FB0101900020E9F73197A5
:1011A000AF01461B570BDC01ED91FC910280F381EE
:1011B000E02D099480E090E00895DC01ED91FC9130
:1011C000DB0114964D915C9115976D917C91028095
:1011D000F381E02D0994DC01ED91FC910190F08107
:1011E000E02D0994DB01ED91FC9111970190F081C4
:1011F000E02DBC01CD01099460E973E00C94C808AE
:101200000F931F93CF93DF93EC010E94C8088C01CA
:10121000CE010E94FC08800F911FDF91CF911F919A
:101220000F9108950F931F93CF93DF93EC010E94CA
:10123000F2088C01CE010E94FC08800F911FDF9103
:10124000CF911F910F9108954F925F926F927F926D
:10125000EF92FF920F931F93CF93DF93CDB7DEB73B
:10126000A1970FB6F894DEBF0FBECDBF7C01FA0187
:10127000CB0119A2223008F42AE08E010F5D1F4F26
:10128000422E512C612C712CBF01A30192010E94AE
:101290000F2DF901CA01015011096A3014F4605D83
:1012A00001C0695CD8016C93232B242B252B61F79B
:1012B000B801C7010E94C808A1960FB6F894DEBF16
:1012C0000FBECDBFDF91CF911F910F91FF90EF9097
:1012D0007F906F905F904F9008952115310541F4F4
:1012E000DC01ED91FC910190F081E02D642F0994D7
:1012F0000C9424099A01462F50E060E070E00C94B1
:101300006D091F920F920FB60F9211242F938F9396
:101310009F93EF93FF93E091CD04F091CE048081F1
:10132000E091D304F091D40482FD12C090818091A9
:10133000D6048F5F8F732091D704821751F0E0910C
:10134000D604F0E0E354FB4F958F8093D60401C0A0
:101350008081FF91EF919F918F912F910F900FBE00
:101360000F901F9018951F920F920FB60F92112495
:101370002F933F934F935F936F937F938F939F939D
:10138000AF93BF93EF93FF938DEB94E00E94A20C79
:10139000FF91EF91BF91AF919F918F917F916F914D
:1013A0005F914F913F912F910F900FBE0F901F9023
:1013B00018958DEB94E00E94570C21E0892B09F4DD
:1013C00020E0822F0895EDEBF4E01382128288EE84
:1013D00093E0A0E0B0E084839583A683B78389EA95
:1013E00093E09183808385EC90E09587848784ECFB
:1013F00090E09787868780EC90E0918B808B81ECE2
:1014000090E0938B828B82EC90E0958B848B86ECC2
:1014100090E0978B868B118E128E138E148E08950A
:1014200008950E94C9070E94100A0E947B01C4E926
:10143000DCE00E9490052097E1F30E94940CF9CF24
:101440008F929F92AF92BF92CF92DF92EF92FF92D4
:101450000F931F93CF93DF937C018B016C0182E08C
:10146000C80ED11C4701E5E08E0E911CC0E0D0E013
:10147000F60161916F014AE050E0C8010E947A09CB
:101480005C016EE2C8010E94EB088A0D9B1DC80F2B
:10149000D91FC814D90461F74AE050E0F70165810B
:1014A000C8010E947A098C0F9D1FDF91CF911F9177
:1014B0000F91FF90EF90DF90CF90BF90AF909F90F3
:1014C0008F90089523EA33E0FC0131832083128258
:1014D00013821482158208950F93FC0183EA93E02E
:1014E0009183808362834383248305830F910895CE
:1014F00023EA33E0FC0131832083FB0140815181E9
:1015000062817381FC0142835383648375830895F0
:10151000FB014081518162817381FC0142835383CD
:10152000648375830895EAE5F5E083EA93E09183A7
:10153000808312821382148215820895FC018081B7
:1015400091810C94A728CF93DF93EC018881998136
:10155000009711F00E94A728198218821D821C8210
:101560001B821A82DF91CF9108950F931F93CF931F
:10157000DF93EC018B016F5F7F4F888199810E941F
:101580009B29009731F0998388831B830A8381E02C
:1015900001C080E0DF91CF911F910F910895CF930B
:1015A000DF93EC0188819981892B29F08A819B81C5
:1015B0008617970760F4CE010E94B50A882341F090
:1015C0008C819D81892B19F4E881F981108281E059
:1015D000DF91CF910895EF92FF920F931F93CF93D6
:1015E000DF93EC017B018A01BA010E94CF0A8111CD
:1015F00004C0CE010E94A30A07C01D830C83B7015B
:10160000888199810E94872ACE01DF91CF911F9115
:101610000F91FF90EF900895FC01118210821382C8
:101620001282158214826115710551F0FB0101903F
:101630000020E9F73197AF01461B570B0C94EB0ADA
:101640000895CF93DF93EC01FB018617970761F0B4
:10165000608171816115710529F0448155810E9475
:10166000EB0A02C00E94A30ACE01DF91CF91089538
:10167000FC011182108213821282158214820C9452
:10168000210BCF93DF93EC016115710559F0FB013C
:1016900001900020E9F73197AF01461B570B0E94DC
:1016A000EB0A02C00E94A30ACE01DF91CF910895F8
:1016B0000F931F93CF93DF93CDB7DEB729970FB664
:1016C000F894DEBF0FBECDBF8C01862FF8011182CA
:1016D0001082138212821582148250E0BE016F5F65
:1016E0007F4F90E00E94D12ABE016F5F7F4FC801FB
:1016F0000E94410B29960FB6F894DEBF0FBECDBFF6
:10170000DF91CF911F910F9108950F931F93CF9366
:10171000DF93CDB7DEB762970FB6F894DEBF0FBE8A
:10172000CDBF8C01CB01F80111821082138212828D
:101730001582148250E0BE016F5F7F4F0E948E2A97
:10174000BE016F5F7F4FC8010E94410B62960FB6CA
:10175000F894DEBF0FBECDBFDF91CF911F910F91E7
:1017600008950F931F93CF93DF93CDB7DEB7A19763
:101770000FB6F894DEBF0FBECDBF8C01CB01BA010E
:10178000F80111821082138212821582148230E0D5
:10179000AE014F5F5F4F0E94A42ABE016F5F7F4F73
:1017A000C8010E94410BA1960FB6F894DEBF0FBE90
:1017B000CDBFDF91CF911F910F910895EF92FF92CE
:1017C0000F931F93CF93DF93FC0124813581611523
:1017D000710511F480E019C041155105A9F07B0194
:1017E000EC018A01020F131FB8010E94CF0A88235F
:1017F00089F3288139818C819D81B701820F931FE4
:101800000E94872A1D830C8381E0DF91CF911F9175
:101810000F91FF90EF900895CF93DF93EC01FB01C0
:1018200044815581608171810E94DE0B811103C06A
:10183000CE010E94A30ACE01DF91CF910895CF93EC
:10184000DF93EC016115710561F0FB01019000204F
:10185000E9F73197AF01461B570B0E94DE0B811150
:1018600003C0CE010E94A30ACE01DF91CF9108955B
:10187000FC0124813581232B31F421E061157105B0
:10188000A1F0FB0108C0FC01808191816115710507
:1018900031F421E0FC018081882339F005C00E94E9
:1018A0007E2A21E0892B09F020E0822F0895FC0197
:1018B000918D228D892F90E0805C9F4F821B910932
:1018C0008F7399270895FC01918D828D981731F0BF
:1018D000828DE80FF11D858D90E008958FEF9FEFC9
:1018E0000895FC01918D828D981761F0828DDF0142
:1018F000A80FB11D5D968C91928D9F5F9F73928F03
:1019000090E008958FEF9FEF0895FC01538D448D73
:10191000252F30E0842F90E0821B930B541710F09A
:10192000CF9608950197089589ED99E0892B49F0A4
:1019300080E090E0892B29F00E94D90981110C9454
:1019400000000895FC01848DDF01A80FB11DA35A8A
:10195000BF4F2C91848D90E001968F739927848FCF
:10196000A689B7892C93A089B1898C9180648C93C6
:10197000938D848D981306C00288F389E02D8081B1
:101980008F7D80830895CF93DF93EC01888D88232A
:10199000C9F0EA89FB89808185FD05C0A889B989DC
:1019A0008C9186FD0FC00FB607FCF5CF808185FFB7
:1019B000F2CFA889B9898C9185FFEDCFCE010E9425
:1019C000A20CE7CFDF91CF910895EF92FF920F9392
:1019D0001F93CF93DF93EC0181E0888F9B8D8C8DDB
:1019E000981305C0E889F989808185FD24C0F62E09
:1019F0000B8D10E00F5F1F4F0F731127E02E8C8DA2
:101A0000E8120CC00FB607FCFACFE889F98980818B
:101A100085FFF5CFCE010E94A20CF1CF8B8DFE0188
:101A2000E80FF11DE35AFF4FF0820B8FEA89FB8923
:101A30008081806207C0EE89FF896083E889F98927
:101A400080818064808381E090E0DF91CF911F915D
:101A50000F91FF90EF900895CF92DF92EF92FF9257
:101A60001F93CF93DF93EC016A017B01122FE8896A
:101A7000F98982E080834115514E61057105B1F00D
:101A800060E079E08DE390E0A70196010E940F2DC0
:101A9000DA01C9010197A109B109B695A7959795F2
:101AA0008795AC01411580E15807A8F0E889F989CC
:101AB000108260E874E88EE190E0A70196010E9430
:101AC0000F2DBA01A901415051096109710976959B
:101AD000679557954795EC85FD855083EE85FF8585
:101AE0004083188EEC89FD891083EA89FB89808107
:101AF00080618083EA89FB89808188608083EA89AC
:101B0000FB89808180688083EA89FB8980818F7D61
:101B10008083DF91CF911F91FF90EF90DF90CF9066
:101B20000895DC01ED91FC910190F081E02D099484
:101B3000089560E470E088EF95E00E94771F6EEFF3
:101B400070E088EF95E00E94910D88EF95E00E948B
:101B5000F61F6FE070E080E090E00C948D07CF936B
:101B6000DF93EC0188EF95E00E94631FCE010E9495
:101B7000990D60E470E088EF95E00E94771F67EEB2
:101B800070E088EF95E00E94910D88EF95E00E944B
:101B9000F61F41E050E060E470E088EF95E00E94BD
:101BA000F31F88EF95E00E94D01E21E0029709F014
:101BB00020E0822FDF91CF910895CF93DF9360E4EF
:101BC00070E088EF95E00E94771F63EE70E088EF89
:101BD00095E00E94910D88EF95E00E94F61F62E368
:101BE00070E080E090E00E948D0743E050E060E408
:101BF00070E088EF95E00E94F31F88EF95E00E9467
:101C0000C81E892BD1F388EF95E00E94D01ED82FF3
:101C100080E0C82F88EF95E00E94D01EC82BD92BFA
:101C200088EF95E00E94D01EBE0180E090E00E9407
:101C3000042C22E538EB4FE253E40E94922C20E082
:101C400030E040E857E30E94922C26E636E64BE36C
:101C500052E40E94F62ADF91CF910895CF93DF934B
:101C600060E470E088EF95E00E94771F65EE70E019
:101C700088EF95E00E94910D88EF95E00E94F61F95
:101C800062E370E080E090E00E948D0743E050E066
:101C900060E470E088EF95E00E94F31F88EF95E024
:101CA0000E94C81E892BD1F388EF95E00E94D01EB8
:101CB000D82F80E0C82F88EF95E00E94D01EC82B57
:101CC000D92B88EF95E00E94D01EBE0180E090E005
:101CD0000E94042C20E030E04AEF52E40E94922C53
:101CE00020E030E040E857E30E94922C20E030E012
:101CF00040EC50E40E94F62ADF91CF9108950895B8
:101D00001F93CF93DF9300D0CDB7DEB7162FFC0122
:101D1000608188EF95E04A8359830E946D1F612F8F
:101D200088EF95E00E94241F5981652F88EF95E088
:101D30000E94241F4A81642F88EF95E00E94241F8F
:101D400088EF95E00F900F90DF91CF911F910C9449
:101D5000F61F1F93CF93DF93EC01162F688188EF56
:101D600095E00E946D1F612F88EF95E00E94241F6F
:101D700088EF95E00E94F61F42E0688188EF95E0C9
:101D80000E94F01F88EF95E00E94D01ED82F80E0BF
:101D9000C82F88EF95E00E94D01E8C2B9D2BDF91E1
:101DA000CF911F910895CF93DF93EC01688388EF63
:101DB00095E00E94631F66E0CE010E94A90E843563
:101DC000910511F080E00EC067E0CE010E94A90EDF
:101DD00081159440B9F740E050E061E0CE010E94E7
:101DE000800E81E0DF91CF910895CF93DF9365E07E
:101DF0000E94A90EEC01BC017F7080E090E00E947F
:101E0000042C20E030E040E85DE30E94922CD4FFF7
:101E100006C020E030E040E853E40E94F62ADF915B
:101E2000CF9108958FEF9FEF9093610580936005A8
:101E300008951F920F920FB60F9211240F900FBEAC
:101E40000F901F901895A8950895DA01F901603454
:101E50008FE178071CF46115710539F489E090E091
:101E60008D939C9380E49FE158C0603A8FE078079F
:101E70003CF088E090E08D939C9380EA9FE04DC019
:101E8000603D87E078073CF087E090E08D939C937D
:101E900080ED97E042C0683E83E078073CF086E042
:101EA00090E08D939C9388EE93E037C0643F81E08F
:101EB00078073CF085E090E08D939C9384EF91E06F
:101EC0002CC06A3F71053CF084E090E08D939C93B8
:101ED0008AEF90E022C0683771053CF083E090E023
:101EE0008D939C9388E790E018C06C3371053CF0AB
:101EF00082E090E08D939C938CE390E00EC06E3175
:101F000071053CF081E090E08D939C938EE190E030
:101F100004C01D921C928FE090E09183808308950D
:101F20000F931F93CF93DF9300D0CDB7DEB78C0113
:101F30009E012F5F3F4FAC010E94250FF801808169
:101F400083FD02C098E001C098E28770892B98E178
:101F50000FB6F894A895909360000FBE8093600030
:101F600089819A810F900F90DF91CF911F910F91EE
:101F70000895DC01ED91FC91048CF58DE02D099420
:101F800023EA33E0FC0131832083FB01408951893E
:101F900062897389FC014283538364837583089546
:101FA000FC01848995890895FC01818D928D0895A5
:101FB000CF93DF931F92CDB7DEB76983DC01ED913C
:101FC000FC910280F381E02D41E050E0BE016F5FA3
:101FD0007F4F09950F90DF91CF9108950895CF938A
:101FE000DF93EC01888D843061F00E946F15E88DDD
:101FF000F0E0EE0FFF1FE052FA4F1182108284E0F2
:10200000888FDF91CF910895FC01178A168A6E5F41
:102010007F4F808D0C94ED16FC01808D0C9433174E
:10202000CF93DF93EC019A018E899F89AB01BC01AC
:10203000888D0E94A6162E893F89280F391F3F8B55
:102040002E8BDF91CF9108950F931F93CF93DF9342
:102050001F92CDB7DEB7FC01218D328D232B61F0AD
:102060008C0141E050E0BE016F5F7F4F808D0E9488
:10207000EC15181619061CF08FEF9FEF08C0F80139
:10208000818D928D0197928F818F898190E00F9041
:10209000DF91CF911F910F910895CF93DF93FC01B2
:1020A000218D328D2115310519F48FEF9FEF11C06D
:1020B000EC014217530708F0A901888D0E94EC1526
:1020C0001816190694F7298D3A8D281B390B3A8F6B
:1020D000298FDF91CF910895CF93DF931F92CDB7D2
:1020E000DEB7FC01218D328D232B49F0BE016F5FDD
:1020F0007F4F808D0E947716898190E002C08FEF1C
:102100009FEF0F90DF91CF910895EF92FF921F9371
:10211000CF93DF93FC01208D243011F080E01CC0B0
:102120007B01EC0110E0812F0E944715811102C054
:10213000188F05C08831E1F31F5F1430A1F7888D37
:10214000843061F3FD86EC861A8E198E20E0A7019B
:1021500062E00E94991581E0DF91CF911F91FF907D
:10216000EF9008950F931F93CF93DF93CDB7DEB712
:1021700028970FB6F894DEBF0FBECDBF8C01F801D3
:10218000818D928D892B49F0D801ED91FC910284CB
:10219000F385E02DC8010995F2CF808D0E944C1681
:1021A0001816190654F548E050E0BE016F5F7F4FE6
:1021B000D80158968C910E94EC159C0118161906AE
:1021C000D4F4BE016F5F7F4FC8010E960E94880A4B
:1021D0008D8190E0982F88272E81820F911DF80124
:1021E000958B848B2F8130E0322F22278885280F12
:1021F000311D328F218FC90102C080E090E0289606
:102200000FB6F894DEBF0FBECDBFDF91CF911F9107
:102210000F9108958F929F92AF92BF92CF92DF92CB
:10222000EF92FF920F931F93CF93DF9300D000D0D4
:1022300000D0CDB7DEB7FC01208D243009F068C096
:102240006A017B018C0153E0852E54E0952EA12C70
:10225000B12CC4010E94ED12811103C0F801A08EBF
:102260000AC08831D9F3FFEFAF1ABF0A9394E4E0B4
:10227000AE16B10471F7F801808D843009F448C0BE
:1022800096E0E0E1F1E0DE01119601900D929A9561
:10229000E1F7F70193819F779C8394819D839581DA
:1022A0009E83B7016E5F7F4F90E0982F882744E0B0
:1022B00050E0845F9B4F0E94BE12F801E08CF12C2D
:1022C000F4E0EF0EF11CFE2CEE246D2DC7014096BC
:1022D0000E942A126C2DC70141960E942A12F80111
:1022E000808D90E0982F882746E050E0BE016F5F18
:1022F0007F4F8A5F9B4F0E94BE12F801128E118E93
:1023000020E8A60162E0808D0E94991581E001C05D
:1023100080E026960FB6F894DEBF0FBECDBFDF91EA
:10232000CF911F910F91FF90EF90DF90CF90BF90D2
:10233000AF909F908F900895CF93DF93EC011B8215
:102340001A8288EE93E0A0E0B0E08C839D83AE8398
:10235000BF838BEB93E099838883CE010E960E9416
:10236000620A84E0888FDF91CF910895CF92DF9247
:10237000EF92FF920F931F93CF93DF93CDB7DEB70A
:10238000AF970FB6F894DEBF0FBECDBF8C016B01C7
:102390007A01CE0101960E94620ACE0109960E943E
:1023A0009C11CE018A960E94620A6AE775E0CE010E
:1023B00084960E94B418BE016C5D7F4FCE010196D9
:1023C0000E94D618AE01465D5F4FB601CE01019660
:1023D0000E94451B81309105C1F4D801ED91FC911B
:1023E0000488F589E02D83EA93E09DA38CA38CA556
:1023F0009DA5AEA5BFA58EA39FA3A8A7B9A7A7011A
:10240000BE016C5D7F4FC8010995AF960FB6F89479
:10241000DEBF0FBECDBFDF91CF911F910F91FF9017
:10242000EF90DF90CF9008950F9300E020E040E020
:1024300060E082E695E00E946C0A0F9108958EBDDF
:1024400000000DB407FEFDCF8EB508952A980895BB
:102450002A9A08951F93CF93DF9300D0CDB7DEB7AC
:10246000182F6A8399830E94261280EF0E941F1200
:102470009981892F0E941F12812F0E941F126A8149
:10248000862F0E941F120E94281281E00F900F9049
:10249000DF91CF911F910895CF93DF93EC016CE210
:1024A00071E080E090E00E948D070E94D31B229A89
:1024B0008091F605882399F02FB7F8948091F6055E
:1024C000813059F48DB38093F4059DB38091F50567
:1024D000809589238DBB2FBF02C02093F40580E532
:1024E0008CBD1DBC60E880E090E00E942A1265E58A
:1024F0008BE190E00E942A1265E58AE190E00E945B
:102500002A128091F605882351F09FB7F894209104
:10251000F6058091F405213029F58DBB9FBF80E041
:1025200090E49983888380E090E69987888780E0AB
:1025300098E49B838A8380E098E69B878A8780E083
:1025400090E59D838C8380E090E79D878C8780E079
:1025500098E59F838E8380E098E79F878E87DF9141
:10256000CF9108958FBFDBCF9B0190E00496982F09
:102570008827642F820F931F0C942A12CF92DF9228
:10258000EF92FF920F931F93CF93DF93EC017A01A9
:102590008B016C01C40ED51ECC15DD05A1F00E9487
:1025A000261280EF0E941F128D2F0E941F128C2F67
:1025B0000E941F122196F80181918F010E941F1223
:1025C0000E942812E9CFC701DF91CF911F910F918F
:1025D000FF90EF90DF90CF9008951F93CF93DF93FC
:1025E0001F92CDB7DEB7182F99830E9426128FE075
:1025F0000E941F129981892F0E941F12812F0E9411
:102600001F1280E00E941F1289830E942812898174
:102610000F90DF91CF911F91089590E00496982F2D
:102620008827860F971F0C94ED121F93CF93DF938B
:10263000182F60E270E00E940D13C82FD0E061E215
:1026400070E0812F0E940D13DC2FCC279E01282BD8
:10265000C901DF91CF911F910895FF920F931F93AE
:10266000CF93DF93F62EC0E0D0E08F2D0E9415139C
:102670008C01892B21F08F2D0E941513EC01C017BE
:10268000D10799F7CE01DF91CF911F910F91FF9064
:1026900008951F93CF93DF93182F66E270E00E9496
:1026A0000D13C82FD0E067E270E0812F0E940D1358
:1026B000DC2FCC279E01282BC901DF91CF911F91E0
:1026C0000895FF920F931F93CF93DF93F62EC0E0F0
:1026D000D0E08F2D0E9449138C01892B21F08F2D82
:1026E0000E944913EC01C017D10799F7CE01DF9181
:1026F000CF911F910F91FF9008956F927F928F92CB
:102700009F92AF92BF92CF92DF92EF92FF920F9380
:102710001F93CF93DF931F92CDB7DEB7882E962EEF
:102720006A01590164E270E0892D99830E940D13BA
:10273000E82EF12C65E270E0892D0E940D13FE2C2D
:10274000EE24E82A37016C0C7D1CA3015770E82C9D
:102750009981F92EE90CF11CE90CF11CF70180813B
:102760009181840F951F9A01200F311F213038402D
:1027700098F060E078E06B01C41AD50AA601B501B3
:102780000E94BE12A8014C195D09B5016C0D7D1D9A
:10279000F7018081918102C0A801B5010E94BE129B
:1027A000060D171D412F64E270E0892D0E94B412BE
:1027B000402F65E270E0892D0F90DF91CF911F913E
:1027C0000F91FF90EF90DF90CF90BF90AF909F90D0
:1027D0008F907F906F900C94B412CF92DF92EF9213
:1027E000FF920F931F93CF93DF93EC017A018B013C
:1027F0006C01C40ED51ECC15DD05A9F00E94261271
:102800008FE00E941F128D2F0E941F128C2F0E949A
:102810001F12219680E00E941F12F80181938F0100
:102820000E942812E8CFC701DF91CF911F910F912D
:10283000FF90EF90DF90CF900895AF92BF92CF922C
:10284000DF92EF92FF920F931F93CF93DF9300D00D
:10285000CDB7DEB75A834983590129813A81377050
:102860006C01C60ED11CC60ED11CF6018085918567
:10287000820F931FA801420F531F4130584098F018
:10288000E0E0F8E07F01E21AF30AA701B5010E9437
:10289000ED13A8014E195F09B5016E0D7F1DF601FC
:1028A0008085918502C0A801B5010F900F90DF913E
:1028B000CF911F910F91FF90EF90DF90CF90BF903D
:1028C000AF900C94ED138F929F92AF92BF92CF92E4
:1028D000DF92EF92FF920F931F93CF93DF936C01E0
:1028E000962E5A017901802E68E270E0892D0E94AF
:1028F0000D13C82FD0E069E270E0892D0E940D13FE
:10290000DC2FCC27C82B87019501AE01692DC601AC
:102910000E941D1481101AC0CE0DDF1D4D2F68E2DC
:1029200070E0892D0E94B4124C2F69E270E0892D6D
:10293000DF91CF911F910F91FF90EF90DF90CF909B
:10294000BF90AF909F908F900C94B412DF91CF9175
:102950001F910F91FF90EF90DF90CF90BF90AF90BD
:102960009F908F900895CF93C62F61E070E08C2FD9
:102970000E94B41261E070E08C2F0E940D1381114F
:10298000F9CFCF9108950F93FC0130E080E092E100
:10299000AAE7B0E0481759076A077B0740F4B695E5
:1029A000A795979587953F5F3630A1F737E091E07F
:1029B0009327222311F020E501C020E7892F869577
:1029C0000C70082B022B0083917091830F91089556
:1029D0002091F605222399F04FB7F8942091F6053F
:1029E000213059F42DB32093F4053DB32091F50522
:1029F000209523232DBB4FBF02C04093F4058CBD0F
:102A00009DBD08958091F605882361F09FB7F894E5
:102A10002091F6058091F405213019F48DBB9FBFFC
:102A200008958FBF089590E0982F882744E050E0E4
:102A3000845F9B4F0C94BE1262E070E00C940D1307
:102A4000CF93DF93C82FD62F472F64E070E00E940A
:102A5000B4124D2F65E070E08C2FDF91CF910C9474
:102A6000B412462F62E070E00C94B412CF93DF935F
:102A7000C82FD62F472F60E170E00E94B4124D2F6F
:102A800061E170E08C2FDF91CF910C94B4120F9321
:102A90001F93CF93DF9300D01F92CDB7DEB7182FCF
:102AA00000E021E040E059E06DE370E0CE010196E6
:102AB0000E94C31489819A810E94E81463E070E047
:102AC000812F0E940D138B830E9402158B810F9022
:102AD0000F900F90DF91CF911F910F9108950F9359
:102AE0001F93CF93DF9300D0CDB7DEB7182F00E050
:102AF00021E040E059E06DE370E0CE0101960E94D4
:102B0000C31489819A810E94E81440E150E0612F4A
:102B100088E695E00E94B3146FEF812F0E94311573
:102B20000E9402150F900F90DF91CF911F910F918E
:102B30000895CF92DF92EF92FF920F931F93CF935E
:102B4000DF9300D0CDB7DEB79FEF960F9530C0F57D
:102B5000F22E6A01E62E182F0E946F1500E021E088
:102B600040E059E06DE370E0CE0101960E94C3148D
:102B700089819A810E94E8144E2D4F2960E070E00F
:102B8000812F0E94B412C114D10411F0B6010AC001
:102B900060917805709179056F5F7F4F709379052B
:102BA00060937805812F0E94201541E050E0612F4D
:102BB00088E695E00E94B3140E94021581E001C0EE
:102BC00080E00F900F90DF91CF911F910F91FF90B8
:102BD000EF90DF90CF900895AF92BF92CF92DF92A7
:102BE000EF92FF920F931F93CF93DF9300D0CDB757
:102BF000DEB7182F5B016A0100E021E040E059E0F8
:102C00006DE370E0CE0101960E94C31489819A8120
:102C10000E94E814612F88E695E00E9461137C0110
:102C20000097A1F463E070E0812F0E940D138431BE
:102C300019F1882309F121E030E08C3111F420E012
:102C400030E0EE24FF24E21AF30A16C0C816D906B3
:102C50000CF476011E141F047CF400E09701A5011A
:102C6000612F88E695E00E94631440E450E0612FF4
:102C700088E695E00E94B3140E940215C7010F90E8
:102C80000F90DF91CF911F910F91FF90EF90DF9008
:102C9000CF90BF90AF9008950F931F93CF93DF9382
:102CA00000D000D0CDB7DEB7182F00E021E040E023
:102CB00059E06DE370E0CE0101960E94C314898152
:102CC0009A810E94E814612F88E695E00E946113C2
:102CD0008B839C830E9402158B819C810F900F90A7
:102CE0000F900F90DF91CF911F910F910895EF9268
:102CF000FF920F931F93CF93DF9300D0CDB7DEB732
:102D0000182F7B0100E021E040E059E06DE370E026
:102D1000CE0101960E94C31489819A810E94E81411
:102D200001E021E030E0A701612F88E695E00E94F4
:102D300063140E94021581E090E00F900F90DF91E4
:102D4000CF911F910F91FF90EF9008958F929F92D6
:102D5000AF92BF92DF92EF92FF920F931F93CF93A8
:102D6000DF9300D0CDB7DEB7D82E5B014A017901E1
:102D700000E021E040E059E06DE370E0CE01019613
:102D80000E94C31489819A810E94E8146D2D88E6FF
:102D900095E00E942D138E159F0530F46D2D88E669
:102DA00095E00E942D137C0187019401A5016D2DF2
:102DB00088E695E00E947D130E940215C7010F90DE
:102DC0000F90DF91CF911F910F91FF90EF90DF90C7
:102DD000BF90AF909F908F900895CF92DF92EF9227
:102DE000FF920F931F93CF93DF9300D0CDB7DEB741
:102DF000FB019081911109C09181911106C09281CE
:102E0000911103C09381992309F141155105F1F006
:102E10006A017F01182F00E021E040E059E06DE3F6
:102E200070E0CE0101960E94C31489819A810E94AC
:102E3000E814B701812F0E941315B601812F0E945B
:102E400036150E94021581E090E002C080E090E01B
:102E50000F900F90DF91CF911F910F91FF90EF9006
:102E6000DF90CF9008950F931F93CF93DF9300D0FF
:102E7000CDB7DEB7182F00E021E040E059E06DE368
:102E800070E0CE0101960E94C31489819A810E944C
:102E9000E81440E250E0612F88E695E00E94B31408
:102EA000812F0E941C1584FD21C0812F0E941C15BA
:102EB00083FF09C068E1812F0E9431150E9402152D
:102EC00080E090E01BC00E9402150E94040800E010
:102ED00021E040E059E06DE370E0CE0101960E94F0
:102EE000C31489819A810E94E814DACF60E1812FAE
:102EF0000E9431150E94021581E090E00F900F9022
:102F0000DF91CF911F910F91089544E050E0BC01F3
:102F100081E090E00C94BE1244E050E0BC0185E0FA
:102F200090E00C94BE1244E050E0BC018FE090E0D1
:102F30000C94BE122F923F924F925F926F927F92AB
:102F40008F929F92AF92BF92CF92DF92EF92FF92B9
:102F50000F931F93CF93DF9300D000D000D0CDB755
:102F6000DEB76C011B0129013A014701580182E8D3
:102F700095E0F6019783868388E695E00E944C12DF
:102F800080E590E00E94E81446E050E0B10189E05D
:102F900090E00E94BE1200E020E040E060E0CE0140
:102FA00001960E946C0ACE0103960E9493170E941C
:102FB000021585017401A3019201B101F601868118
:102FC00097810E9436278C010197B9F580E590E042
:102FD0000E94E814F60166817781CE0101960E9475
:102FE0007022CE0103960E949317F60166817781C5
:102FF000CE0101960E948622CE0103960E9485177B
:10300000F60166817781CE0101960E947B22CE0176
:1030100003960E948C170E940215F6016681778143
:10302000CE0101960E9491228B819C81AD81BE814F
:10303000F60182839383A483B583C80126960FB6D5
:10304000F894DEBF0FBECDBFDF91CF911F910F91DE
:10305000FF90EF90DF90CF90BF90AF909F908F90B8
:103060007F906F905F904F903F902F900895EF92D8
:10307000FF920F931F93CF93DF9300D000D000D027
:10308000CDB7DEB7FC01268137812115310509F462
:1030900043C08C01C9010E9475277C01029721F071
:1030A00084E0E816F104D1F580E590E00E94E81490
:1030B000F80166817781CE0101960E947022CE01CF
:1030C00003960E949317F80166817781CE010196DD
:1030D0000E948622CE0103960E948517F801668120
:1030E0007781CE0101960E947B22CE0103960E9439
:1030F0008C170E940215F80166817781CE01019636
:103100000E9491228B819C81AD81BE81F8018283D6
:103110009383A483B58302C0E12CF12CC7012696CA
:103120000FB6F894DEBF0FBECDBFDF91CF911F91D8
:103130000F91FF90EF900895CF93DF93EC010E94E1
:10314000620A80E590E00E94E814BE016E5F7F4F46
:1031500044E050E08FE090E00E94ED130E940215E1
:10316000CE01DF91CF91089523EA33E0FC01318352
:103170002083FB014281538164817581FC0142837C
:1031800053836483758308950F9300E020E040E04B
:1031900060E088EE95E00E946C0A85EC95E00E9464
:1031A0009C118AE795E00F910C94620AFB01428121
:1031B000538164817581FC014283538364837583E9
:1031C000178216820895CF93DF93FB0120E080E001
:1031D00090E0AAE03191332301F160ED630F6A3092
:1031E00080F4A89FB001A99F700D1124CB01C09756
:1031F000830F911D37FD9A958F3F910559F350F339
:1032000013C03E3289F4233079F0EA01C20FD11D98
:103210008A832F5F80E090E0DDCF233029F4FA012C
:10322000858381E090E002C080E090E0DF91CF9163
:1032300008950F9300E020E040E060E08EEE95E01E
:103240000E946C0A0F9108958F929F92AF92BF9245
:10325000CF92DF92EF92FF920F931F93CF93DF9362
:1032600000D000D01F92CDB7DEB78C016B010E9459
:103270005C07F801778366837627672776277A834A
:103280006983085F1F4F42E050E0BE016F5F7F4FD0
:10329000C8010E94101081E090E09C838B8342E083
:1032A00050E0BE016D5F7F4FC8010E94101080E0AA
:1032B00091E09C838B8342E050E0BE016D5F7F4FC5
:1032C000C8010E9410101C821B8242E050E0BE0127
:1032D0006D5F7F4FC8010E94101042E050E0BE01B8
:1032E0006D5F7F4FC8010E94101042E050E0BE01A8
:1032F0006D5F7F4FC8010E9410105601F50180815B
:10330000882329F1C6017C01FC012081019621114D
:1033100016C0570147018C189D081814190494F41D
:103320008D8241E050E0BE016B5F7F4FC8010E947B
:103330001010A401B601C8010E94101003C02E3263
:1033400011F7E7CF6701FFEFCF1ADF0AD7CF1D8252
:1033500041E050E0BE016B5F7F4FC8010E9410103A
:10336000E12CFF24F394FC82EB8242E050E0BE01AA
:103370006D5F7F4FC8010E941010FC82EB8242E01B
:1033800050E0BE016D5F7F4FC8010E94101081E0C8
:1033900090E00F900F900F900F900F90DF91CF91D2
:1033A0001F910F91FF90EF90DF90CF90BF90AF9063
:1033B0009F908F9008954F925F926F927F928F921D
:1033C0009F92AF92BF92CF92DF92EF92FF920F93B4
:1033D0001F93CF93DF93CDB7DEB765970FB6F89401
:1033E000DEBF0FBECDBF7C015B016A010E945C079E
:1033F0002B013C018701085F1F4F4501A12CB12C17
:10340000C8010E94B21018161906A4F00E945C07A9
:10341000DC01CB0184199509A609B709881699061C
:10342000AA06BB06D0F062E370E080E090E00E9464
:103430008D07E6CFF7014281538164817581808DCC
:10344000918DA28DB38D481759076A077B0741F408
:10345000848D958DC59721F406C02FEF3FEFFDC0F9
:103460002EEF3FEFFAC0C8010E94D40F0C97ECF08A
:103470004CE050E0BE016F5F7F4FC8010E944D10CD
:103480006C818B810E9464229A8B898BF701E68084
:10349000F7806A8189810E946422E816F90641F466
:1034A00089899A8997FF04C009C02DEF3FEFD5C0E5
:1034B000C8010E94EE0F2CEF3FEFCFC08F709270CB
:1034C000892B31F0C8010E94EE0F2BEF3FEFC5C0F2
:1034D00068858F810E9464225C01892B31F4C801C8
:1034E0000E94EE0F2AEF3FEFB8C0E12CF12C6E8165
:1034F0008D810E946422E816F90640F541E050E013
:10350000BE01635F7F4FC8010E944D108D85811100
:1035100013C08D858111F2CFC8010E942410C8010B
:103520000E942410C8010E942410C8010E94241087
:10353000FFEFEF1AFF0ADBCF8D859FEF980F9D8776
:10354000882339F3C8010E942410F6CFE12CF12C16
:1035500041E050E0BE016D5E7F4FC8010E944D10FA
:103560008B89982F907C61F4882371F08B899FEF71
:10357000980F9B8B882341F0C8010E942410F6CF3E
:10358000C8010E9424101B8A8B898111E1CF42E07F
:1035900050E0BE01615F7F4FC8010E944D1042E0C4
:1035A00050E0BE01635F7F4FC8010E944D10C8010B
:1035B0000E942410C8010E942410C8010E942410F7
:1035C000C8010E94241042E050E0BE016F5E7F4FB0
:1035D000C8010E944D108F8598898115914001F591
:1035E0002D853E8532272327322721303105C1F42E
:1035F00089899A898115944031F0C8010E94EE0FA3
:1036000027EF3FEF2AC0B6016E5F7F4F44E050E0E6
:10361000C8012C8B3D8B0E944D102C893D891DC00B
:10362000812C912C89899A8998278927982788162F
:10363000990638F4C8010E9424108FEF881A980A5E
:10364000F1CFEFEFEE1AFE0AEA14FB0409F080CF87
:10365000C8010E94EE0F26EF3FEFC90165960FB635
:10366000F894DEBF0FBECDBFDF91CF911F910F91B8
:10367000FF90EF90DF90CF90BF90AF909F908F9092
:103680007F906F905F904F9008958F929F92AF922E
:10369000BF92CF92DF92EF92FF920F931F93CF933F
:1036A000DF9300D000D000D0CDB7DEB77C014B0156
:1036B0005A010E94E3188C01892B09F05BC0F701C5
:1036C00042815381648175818091F0059091F1056B
:1036D000A091F205B091F305481759076A077B07D7
:1036E00009F44BC00E945C076701F8E0CF0ED11CC3
:1036F0006F7077277C5FC6010E948510813009F0CA
:103700003EC083EA93E09A838983F70182819381A3
:10371000A481B5818B839C83AD83BE8345E350E058
:10372000BE016F5F7F4FC6010E940410892B19F400
:1037300000E010E01BC0B401C7010E942419892BCE
:10374000B9F3C6010E940C10892B91F383E0882EF7
:10375000912CA50168E873E1C7010E94DB198C0177
:10376000F1E08F1A910811F0019699F3C6010E94B9
:10377000EF0F05C001E010E002C00EEF1FEFC8011F
:1037800026960FB6F894DEBF0FBECDBFDF91CF9166
:103790001F910F91FF90EF90DF90CF90BF90AF906F
:1037A0009F908F900895CF93CFB7F8948091F705AD
:1037B000811127C0EAE9F0E08491E6E8F0E0949115
:1037C000E82FF0E0EE0FFF1FE255FF4FA591B491F7
:1037D000EC91E92321F461E08AE00E946A0861E04B
:1037E0008AE00E942E088CB580618CBD8CB5806407
:1037F0008CBD61E08DE00E942E0861E08BE00E94AC
:103800002E088091F7058F5F8093F705CFBFCF918A
:103810000895FC01148215821682178208951F9361
:10382000CF93DF931F92CDB7DEB7162FFC016081D7
:1038300088EF95E049830E946D1F612F88EF95E026
:103840000E94241F4981642F88EF95E00E94241F65
:1038500088EF95E00F90DF91CF911F910C94F61FA8
:103860001F93CF93DF9300D0CDB7DEB7162FFC01A7
:10387000608188EF95E04A8359830E946D1F612F14
:1038800088EF95E00E94241F5981652F88EF95E00D
:103890000E94241F4A81642F88EF95E00E94241F14
:1038A00088EF95E00F900F90DF91CF911F910C94CE
:1038B000F61F1F93CF93DF93EC01162F688188EFDB
:1038C00095E00E946D1F612F88EF95E00E94241FF4
:1038D00088EF95E00E94F61F41E0688188EF95E04F
:1038E0000E94F01FC8EED3E088EF95E00E94C81E4A
:1038F0001816190634F0209711F02197F5CF80E0C3
:1039000006C0CD2BE1F388EF95E00E94D01EDF9139
:10391000CF911F9108950F93CF93DF93EC016370C4
:1039200041704295407F2F70422B6295660F607EFA
:10393000462B6EE10E940F1C002321F0083018F086
:1039400007E001C001E08FEF800F61E070E002C08E
:10395000660F771F8A95E2F7072E000C880B990BEC
:103960000E94062C9B01AC0160E074E284EF99E4B4
:103970000E94632B0E94D52B6C837D838E839F8353
:103980006FE1CE010E94591C8F780295007F482F6D
:10399000402B6FE1CE01DF91CF910F910C940F1C62
:1039A0001F93CF93DF93EC01162F688188EF95E08A
:1039B0000E946D1F612F88EF95E00E94241F88EF01
:1039C00095E00E94F61F42E0688188EF95E00E9432
:1039D000F01FC0EDD7E088EF95E00E94C81E029767
:1039E0003CF4209711F02197F6CF80E090E011C0D1
:1039F000CD2BD9F388EF95E00E94D01EC82F88EF19
:103A000095E00E94D01E20E030E03C2FA901482B19
:103A1000CA01DF91CF911F910895CF92DF92EF926B
:103A2000FF920F931F93CF93DF938C01D62FF42E29
:103A30006EE00E94D01C41E050E09A0102C0220FCB
:103A4000331FDA95E2F7E90180959095822393235D
:103A5000892B89F060E1C8010E94D01CFF2021F071
:103A6000AC014C2B5D2B05C0C095D095AC014C230F
:103A70005D2360E125C066E0C8010E94D01C6C0196
:103A800068E0C8010E94D01C9E0120953095FF205F
:103A900061F07C01E222F322A6014C2B5D2B66E053
:103AA000C8010E94301CA7010AC0C82BD92BA6014F
:103AB0004223532366E0C8010E94301CAE0168E037
:103AC000C801DF91CF911F910F91FF90EF90DF9090
:103AD000CF900C94301C0C940D1DFF920F931F93EC
:103AE000CF93DF938C01F62E6EE00E94D01CC1E0D4
:103AF000D0E002C0CC0FDD1FFA94E2F78C239D23A7
:103B0000892B49F060E1C8010E94D01CC823D92349
:103B100081E0CD2B09F480E0DF91CF911F910F91CF
:103B2000FF9008950C946D1DCF92DF92EF92FF925B
:103B30000F931F93CF93DF931F92CDB7DEB76C0126
:103B4000162F60E029830E94D01C41E050E0BA01AA
:103B500002C0660F771F1A95E2F78B01AC01462B66
:103B6000572B60E0C6010E94301C66E0C6010E942F
:103B7000D01C7801E094F094AC014E215F2166E006
:103B8000C6010E94301C6EE0C6010E94D01CAC0130
:103B90004E215F216EE0C6010E94301C6EE1C6011D
:103BA0000E94591C8F7D482F40646EE1C6010E941F
:103BB0000F1C6FE1C6010E94591C2981482F222346
:103BC00011F0486801C04777F60184819581A6818C
:103BD000B781892B8A2B8B2B49F480E894E8AEE1DE
:103BE000B0E084839583A683B78340616FE1C6010B
:103BF0000E940F1C60E2C6010E94D01CAC01402B49
:103C0000512B60E2C6010E94301C60E1C6010E9497
:103C1000D01CAC014E215F2160E1C6010F90DF9105
:103C2000CF911F910F91FF90EF90DF90CF900C9468
:103C3000301C0F931F93CF93DF93EC01162F042FAB
:103C40006EE00E94D01C9C01802F8D7F813059F046
:103C500041E050E0012E02C0440F551F0A94E2F7E4
:103C6000422B532B0DC0E1E0F0E0012E02C0EE0F1D
:103C7000FF1F0A94E2F7E095F095A9014E235F2318
:103C80006EE0CE010E94301C023049F441E0612F09
:103C9000CE01DF91CF911F910F910C940D1D033038
:103CA00051F420E041E0612FCE01DF91CF911F91CF
:103CB0000F910C94941DDF91CF911F910F91089556
:103CC0000C94191ECF93DF93EC016FE10E94591CF5
:103CD00082FF06C0482F4B7F6FE1CE010E940F1C70
:103CE00041E06B81CE010E94191E40E06B81CE0144
:103CF0000E940D1D61E070E080E090E00E948D0761
:103D000041E06B81CE01DF91CF910C940D1DCF93DB
:103D1000DF93662321F0DF91CF910C94621EEC01BA
:103D200042E16DE70E940F1C44E36DE7CE01DF9195
:103D3000CF910C940F1C0F93CF93DF93EC0188EF7E
:103D400095E00E94631F8B818F3F21F0CE010E947E
:103D5000621E04C060E0CE010E94871E63E1CE01B6
:103D60000E94D01C81159F4F49F401E020E040E003
:103D700062E0CE010E948B1C81E001C080E0DF91F7
:103D8000CF910F910895FC01608343830C949B1E97
:103D90008091280690E020912906821B91090895C0
:103DA0009091290680912806981750F4E92FF0E0A9
:103DB000E65DF94F208130E09F5F9093290602C0B5
:103DC0002FEF3FEFC9010895E09129068091280661
:103DD000E81730F4F0E0E65DF94F808190E0089557
:103DE0008FEF9FEF08950895CF92DF92EF92FF92A9
:103DF0000F931F93CF93DF937C01262F972F8A0178
:103E000080910406882391F0C62FD72F6E01C40E2F
:103E1000D51ECC15DD0571F06991D701ED91FC91AE
:103E20000190F081E02DC7010995F3CF642F822F17
:103E30000E94B920C801DF91CF911F910F91FF908F
:103E4000EF90DF90CF900895CF93DF931F92CDB77F
:103E5000DEB76983209104062223D1F02091050664
:103E6000203240F021E030E0FC013383228380E007
:103E700090E015C080910606E82FF0E0E95FF94F69
:103E8000998190838F5F809306068093050605C015
:103E900061E0CE0101960E94B92081E090E00F9090
:103EA000DF91CF910895FC011382128288EE93E096
:103EB000A0E0B0E084839583A683B78383EE93E08C
:103EC00091838083089510922906109228061092FB
:103ED0000606109205060C94FD1F81E080930406EF
:103EE00060932706109206061092050608950C941A
:103EF0006D1F0F93062F21E04091050667E076E0E5
:103F0000809127060E9463201092060610920506F3
:103F1000109204060F9108954F925F926F927F92D4
:103F2000AF92BF92CF92EF92FF920F931F93CF93D6
:103F3000DF935C01F62ED42F28013901EE2021F108
:103F40000E946D1FCE2DC43008F0C3E0C150C0F0F8
:103F5000D501ED91FC91B8E0CB9FC0011124A301E4
:103F6000920104C056954795379527958A95D2F7C3
:103F7000CA01B9010190F081E02DC5010995E6CF94
:103F800060E0C5010E94791F4D2FD13208F040E258
:103F90002C2D6AE276E08F2D0E941B2010922906BC
:103FA00080932806DF91CF911F910F91FF90EF90A2
:103FB000CF90BF90AF907F906F905F904F9008959B
:103FC000CF92EF920F931F93C22EE12C00E010E0EE
:103FD00098010E948C1F1F910F91EF90CF90089530
:103FE00021E00C94E01F21E00C94E01F61E00C94B0
:103FF000791F88EF95E00C94531F1092B70681E06B
:104000008093B5061092B40661E082E10E946A08CE
:1040100061E083E10E946A08E9EBF0E080818E7F35
:10402000808380818D7F808388E48093B80085E4DD
:104030008093BC000895413208F043C09091B706C8
:104040009111FCCF91E09093B7062093B5062FEF26
:1040500020934A0610928F06240F20938E06909389
:10406000B6069091B606880F892B8093B60680918C
:10407000B406813061F41092B4068091B606809344
:10408000BB008091BC0083FDF8CF85EC01C085EEBC
:104090008093BC008091B7068130E1F380918F0658
:1040A000841710F440918F0620E936E0FB01D90116
:1040B0008A2F821B841718F48D918193F9CF842F56
:1040C000089580E008950F93413208F04AC090911E
:1040D000B7069111FCCF32E03093B7060093B506D6
:1040E0003FEF30934A0610928F0640938E06FB01F5
:1040F00060E976E0DB013A2F361B341718F4319172
:104100003D93F9CF1092B6063091B606880F832BF7
:104110008093B6068091B406813061F41092B406A3
:104120008091B6068093BB008091BC0083FDF8CFE0
:1041300085EC01C085EE8093BC00222321F08091A4
:10414000B7068230D1F380914A068F3F79F0809193
:104150004A06803241F080914A06803331F094E083
:1041600005C091E003C092E001C093E0892F0F9158
:10417000089540916C06262F30E0240F311D213226
:104180003105DCF42091B7062430C9F4FC0180E04D
:1041900090E0861758F430916C062191DC01A25909
:1041A000B94FA30FB11D2C930196F3CF80916C06EC
:1041B000680F60936C0680E0089581E0089582E0C6
:1041C000089585ED8093BC008091BC0084FDFCCFF8
:1041D0001092B706089585EC8093BC001092B70644
:1041E00008951F920F920FB60F9211242F933F93B1
:1041F0004F935F936F937F938F939F93AF93BF93EF
:10420000EF93FF938091B900887F803609F49EC0B8
:1042100078F5883209F45DC090F4803109F456C015
:1042200038F4882309F4F5C0883009F44FC0F5C08C
:10423000883109F44EC0803209F45FC0EEC080348A
:1042400009F46AC058F4803309F457C0883309F080
:10425000E4C080934A060E94EB20DFC0803509F459
:104260004FC0883509F45DC0883409F0D6C0D3C08A
:10427000883909F4C4C0A8F4883709F467C038F451
:10428000883609F463C0803709F460C0C6C0883836
:1042900009F4B5C0803909F45FC0803809F0BDC0A9
:1042A0005BC0803B09F483C038F4803A09F466C0EF
:1042B000883A09F47CC0B1C0803C09F4A4C0883CB1
:1042C00009F4A1C0883B09F487C0A7C08091B60655
:1042D00010C090918F0680918E06981770F5E0912E
:1042E0008F0681E08E0F80938F06F0E0E057F94F44
:1042F00080818093BB0085EC83C080934A068BC08D
:10430000E0918F0681E08E0F80938F068091BB0035
:10431000F0E0E057F94F808390918F0680918E06F0
:104320006BC0E0918F0681E08E0F80938F068091A5
:10433000BB00F0E0E057F94F80838091B506811112
:104340006AC081E08093B40684EA5EC083E0809313
:10435000B70610924B06CFCF80914B06803208F003
:104360004EC0E0914B0681E08E0F80934B0680910A
:10437000BB00F0E0E45BF94F8083BDCF0E94EB20EF
:1043800080914B06803230F4E0914B06F0E0E45B24
:10439000F94F108260914B0670E0E091B006F09109
:1043A000B1068CE496E0099510924B0636C084E085
:1043B0008093B70610926D0610926C06E091B206DB
:1043C000F091B306099580916C06811105C081E0DA
:1043D00080936C0610926E06E0916D0681E08E0F60
:1043E00080936D06F0E0E259F94F80818093BB0025
:1043F00090916D0680916C06981708F47CCF85E843
:104400008093BC000AC085EC8093BC001092B70674
:1044100004C010924A060E94E120FF91EF91BF91E3
:10442000AF919F918F917F916F915F914F913F914C
:104430002F910F900FBE0F901F901895CF93DF9381
:1044400000D000D0CDB7DEB76115710581059105AB
:1044500079F09B01AC0169833A834B835C830E94B2
:104460008D2929813A814B815C810E94312D03C0C5
:1044700060E070E0CB010F900F900F900F90DF91F4
:10448000CF910895CF92DF92EF92FF920F931F93F7
:10449000621773078407950784F489019A016B01F9
:1044A0007C01C901B8016C197D098E099F090E9420
:1044B0001E226C0D7D1D8E1D9F1D1F910F91FF9063
:1044C000EF90DF90CF90089570E09B01382BC901E9
:1044D00008950E9624E1FC0111922A95E9F70895BA
:1044E000CF93DF93EC01625F7F4F0E94780ACE0189
:1044F000DF91CF910895CF93DF93EC016E5E7F4FF4
:104500000E94780ACE01DF91CF910895CF93DF9377
:10451000EC016A5E7F4F0E94780ACE01DF91CF9155
:104520000895CF93DF93EC01625E7F4F0E94780A7B
:10453000CE01DF91CF91089580E3FB018083329615
:10454000842F82958F7090E1899F401911244A3001
:1045500014F4405D01C0495C4293482F8111F0CFB3
:1045600008950F9300E020E040E060E088EB96E0E3
:104570000E946C0A0F9108957F928F929F92AF9242
:10458000BF92CF92DF92EF92FF920F931F93CF9340
:10459000DF93CDB7DEB7AC970FB6F894DEBF0FBE92
:1045A000CDBF7C01762E942E852E20E2B22ECE0138
:1045B00001966C01FC012B2D11922A95E9F70FEF62
:1045C0002FEF4FEF6FEF86960E946C0A83EA93E01D
:1045D0009AA389A389A59AA5ABA5BCA58BA39CA3E7
:1045E000ADA3BEA387010D5B1F4F43E450E0BE01A6
:1045F0006F5D7F4FC8010E940410019609F4BFC08F
:1046000081E089838A8386E0A82EAB821C82F70131
:1046100064817581868197810E94502D6D837E8390
:104620008F83988789869A8680E890E09C878B871D
:104630004CE150E0B601C8010E941010F6012B2D8C
:1046400011922A95E9F7470188E0880E911CF40140
:10465000D60101900D92AA94E1F740E150E0B60135
:10466000C8010E941010F6011192BA94E9F796E081
:10467000A92EB12C40E250E0B601C8010E941010F2
:10468000F1E0AF1AB108B1F783E6898392E89A8323
:1046900093E59B838C8385E38D8381E08E837F828A
:1046A0009DE3988797E099878A8786E0F401DE0189
:1046B0001B9601900D928A95E1F78CE0898B8A8B8D
:1046C00061EF73E0CE0143960E94872AF70143858C
:1046D000BE01675E7F4FC7010E949C22F70144859F
:1046E000BE01655E7F4FC7010E949C22F701458590
:1046F000BE01635E7F4FC7010E949C224EE150E0E5
:10470000B601C8010E941010F3E07F121EC082E3C0
:10471000898384E08A83F70196859B8397859C83B0
:1047200090899D8391899E8396E39F838887828D5C
:104730008987838D8A87848D8B87858D8C874CE0D4
:1047400050E0B601C8010E94101087E3898386E01B
:104750008A8391E09B8393E09C838D838FE08E839B
:104760008AE38F838BE388878FEF898749E050E066
:10477000B601C8010E941010C8010E940C10AC962E
:104780000FB6F894DEBF0FBECDBFDF91CF911F9162
:104790000F91FF90EF90DF90CF90BF90AF909F90E0
:1047A0008F907F9008952F923F924F925F926F92D9
:1047B0007F928F929F92AF92BF92DF92EF92FF9281
:1047C0000F931F93CF93DF93CDB7DEB7E4970FB668
:1047D000F894DEBF0FBECDBF7C011A012B01390159
:1047E0000E945C074B015C0187010D5B1F4FC801F4
:1047F0000E94B21018161906A4F00E945C07DC0192
:10480000CB0188199909AA09BB09281639064A0655
:104810005B06F0F062E370E080E090E00E948D07BC
:10482000E6CF42E250E0BE016F5F7F4FC8010E94B9
:104830004D108981823031F4F8018489958983345F
:10484000910541F0D12CC8010E94EE0F8D2D5FC162
:104850008FEF5DC16D817E818F8198850E94502D83
:104860004B015C01F301608371838283938346E093
:1048700050E0B701685F7F4FCE014D960E94682AD5
:10488000892B99F4F70180819181A281B3818816E7
:104890009906AA06BB0648F084819581A681B78156
:1048A00088159905AA05BB0528F4C8010E94EE0FDA
:1048B00080E02DC189899A89AB89BC89F7018687F7
:1048C0009787A08BB18B8EECA82EB12CC8010E94CB
:1048D0002410F1E0AF1AB108C9F7D12CC7018296B4
:1048E0009AA789A7F701B696FCA7EBA708969EA7FB
:1048F0008DA73C974F01899698AB8FA73897FAAB55
:10490000E9AB1701F6E12F0E311CC5979CAB8BABC1
:10491000C8010E94D40F181619060CF094CFC801D4
:104920000E9424108333910509F4CBC0FCF481303C
:104930009105C9F11CF4892B59F3DDC08330910531
:10494000D1F1069709F0D7C0C8010E9424105C017C
:1049500044E050E06BA97CA9C8010E944D10412C95
:10496000512CBB24F4E0AF1AB10840C08A33910542
:1049700009F47BC03CF48533910569F0C69709F4CE
:1049800040C0B9C08B33910509F485C08F3F9105B4
:1049900009F4BECFB0C0C8010E942410C8010E9413
:1049A0002410D82EB5CFC8010E94241044E050E056
:1049B00069A97AA93AC0C8010E9424105C0144E0A8
:1049C00050E0B101C8010E944D10412C512CBB2474
:1049D00094E0A91AB1084A145B040CF099CFC801FD
:1049E0000E942410EFEF4E1A5E0AF5CF4A145B04C2
:1049F0000CF08ECFC8010E9424108FEF481A580A7D
:104A0000F5CFC8010E942410B82EF701828D8111C4
:104A100010C0838D81110DC0848D81110AC0858DD8
:104A2000811107C044E050E0B401C8010E944D105C
:104A30006FCFEFA5F8A94080518062807380B401E8
:104A4000CE0183960E94780A8DA19EA1AFA1B8A540
:104A500084159505A605B70529F3BB2009F458CFA1
:104A6000C8010E942410BA94F8CFC8010E942410F3
:104A700044E050E06BA57CA5C8010E944D10F701F1
:104A800066A177A180A591A50E94502D66A377A36A
:104A900080A791A73DCFC8010E94241044E050E0B8
:104AA0006DA57EA5C8010E944D10F70162A573A5F2
:104AB00084A595A50E94502D62A773A784A795A7EA
:104AC00027CFC8010E94241044E050E069A57AA5D0
:104AD000C8010E944D10F70162A173A184A195A1A4
:104AE0000E94502D62A373A384A395A366A777A702
:104AF00080AB91AB0DCFC8010E942410B82EBB2013
:104B000009F406CFC8010E942410BA94F8CFE496A5
:104B10000FB6F894DEBF0FBECDBFDF91CF911F91CE
:104B20000F91FF90EF90DF90BF90AF909F908F908C
:104B30007F906F905F904F903F902F9008952F92AD
:104B40003F924F925F926F927F928F929F92AF921D
:104B5000BF92CF92DF92EF92FF920F931F93CF936A
:104B6000DF93CDB7DEB727970FB6F894DEBF0FBE41
:104B7000CDBF8C0120ED37E040E050E061E070E017
:104B800080E090E00E944222D80114966D937D93BC
:104B90008D939C931797F80160837183828393832D
:104BA0005801F3E4AF0EB11CC5010E94EF0F64E49D
:104BB00070E0C5010E948510882309F43CC10E9461
:104BC0005C072B013C01812C912C1D82C8018E5B5E
:104BD0009F4F9F838E8343E0342E58EEC52E53E0C3
:104BE000D52EE12CF12C62E0262EAE81BF818C9176
:104BF000833009F407C1811120C0F80184819581B7
:104C0000A681B7810196A11DB11D84839583A683DA
:104C1000B7830E945C076419750986099709A70183
:104C200096010E940F2DA90161E0C8010E94BC22DB
:104C300081E0AE81BF818C93C6C08430F9F4F80165
:104C400084819581A681B7810196A11DB11D8483C0
:104C50009583A683B7830E945C076419750986094A
:104C60009709A70196010E940F2DA90163E0C801D1
:104C70000E94BC22AE81BF812C92A5C0813061F51B
:104C8000F80142AD53AD64AD75AD9E012F5F3F4F4E
:104C9000C8010E94D3238D83823009F094C089819A
:104CA0009A81AB81BC81F80184839583A683B78305
:104CB0000E945C076419750986099709A701960186
:104CC0000E940F2DA90163E0C8010E94BC22ED8162
:104CD000AE81BF81EC937EC0823009F074C0D801F0
:104CE000DA964D915D916D917C91DD979E012F5FDC
:104CF0003F4FC8010E94D3238D83853009F05CC0EB
:104D0000EE81FF813082F80182A193A1A4A1B5A117
:104D1000892B8A2B8B2B41F484E893E0A0E0B0E050
:104D200082A393A3A4A3B5A3F80186A197A1A0A5EC
:104D3000B1A5892B8A2B8B2B61F482A193A1A4A10D
:104D4000B5A1B695A7959795879586A397A3A0A794
:104D5000B1A7F80182A593A5A4A5B5A5892B8A2B97
:104D60008B2BA9F482A193A1A4A1B5A1AC01BD0193
:104D700023E076956795579547952A95D1F7841B3B
:104D8000950BA60BB70B82A793A7A4A7B5A7F8010D
:104D900086A197A1A0A5B1A586A797A7A0ABB1AB07
:104DA00082A593A5A4A5B5A582AB93ABA4ABB5ABE7
:104DB00088248394912C0EC0FD81F63021F4AE81BD
:104DC000BF811C9207C0BD81BF3F21F4EE81FF81EE
:104DD00010821D82F1E08F16910409F406CF0E9423
:104DE0005C07DC01CB0184199509A609B709F80114
:104DF00026A937A940AD51AD281739074A075B07E7
:104E000008F0F3CEC5010E94EF0FF801848195816F
:104E1000A681B7810196A11DB11D84839583A683C8
:104E2000B7830E945C07F801FE96608371838283DA
:104E30009383C40102C080E090E027960FB6F894F7
:104E4000DEBF0FBECDBFDF91CF911F910F91FF90BD
:104E5000EF90DF90CF90BF90AF909F908F907F901A
:104E60006F905F904F903F902F900895CF92DF9278
:104E7000EF92FF920F931F93CF93DF93EC016B019F
:104E80001AA21BA21CA21DA21EA21FA218A619A62E
:104E90001AA61BA61CA61DA62EAB3FAB48AF59AF4A
:104EA000EAAEFBAE0CAF1DAF8C01085F1F4F86E072
:104EB000F80111928A95E9F7CE010E94692286E0F5
:104EC000F601D80101900D928A95E1F7FE01EE5BA3
:104ED000FF4F1082CE01DF91CF911F910F91FF9074
:104EE000EF90DF90CF900C949F25CF92DF92EF92BE
:104EF000FF920F931F93CF93DF93EC010E945C0707
:104F00006B017C018E01025C1F4FF8018081918151
:104F1000A281B381A7019601281B390B4A0B5B0BB9
:104F2000CA01B901683E33E073078105910508F4B1
:104F300041C028EE33E040E050E00E940F2DC61A39
:104F4000D70AE80AF90AF801C082D182E282F38224
:104F50008EA59FA5A8A9B9A969017A01CC0CDD1C71
:104F6000EE1CFF1C8C159D05AE05BF0528F41EA682
:104F70001FA618AA19AA08C0821B930BA40BB50B75
:104F80008EA79FA7A8ABB9AB8AA99BA9ACA9BDA9BD
:104F90008C159D05AE05BF0528F41AAA1BAA1CAAEC
:104FA0001DAA08C0821B930BA40BB50B8AAB9BAB4D
:104FB000ACABBDAB8EA59FA5A8A9B9A9892B8A2B9F
:104FC0008B2B69F4FE01EE5BFF4F8081833039F457
:104FD00084E08083CE010E949F25019602C080E07C
:104FE00090E04AA95BA96CA97DA9452B462B472BCC
:104FF00081F4FE01EE5BFF4F2081233011F021117F
:1050000008C01082CE010E946922CE010E949F2515
:105010000396DF91CF911F910F91FF90EF90DF905A
:10502000CF900895CF93DF938230910510F482E002
:1050300090E0E091C006F091C10620E030E0C0E0D1
:10504000D0E0309711F14081518148175907C0F0E5
:105050004817590761F482819381209719F09B8347
:105060008A832BC09093C1068093C00626C0211569
:10507000310519F04217530718F49A01BE01DF01F8
:10508000EF010280F381E02DDCCF2115310509F11C
:10509000281B390B2430310590F412968D919C9188
:1050A00013976115710521F0FB019383828304C07E
:1050B0009093C1068093C006FD01329644C0FD0165
:1050C000E20FF31F81939193225031092D933C936A
:1050D0003AC02091BE063091BF06232B41F42091A7
:1050E0000201309103013093BF062093BE06209148
:1050F0000001309101012115310541F42DB73EB772
:105100004091040150910501241B350BE091BE062E
:10511000F091BF06E217F307A0F42E1B3F0B2817F0
:10512000390778F0AC014E5F5F4F2417350748F020
:105130004E0F5F1F5093BF064093BE06819391931D
:1051400002C0E0E0F0E0CF01DF91CF9108950F932E
:105150001F93CF93DF93009709F48CC0FC01329723
:10516000138212820091C0061091C106011511052B
:1051700081F420813181820F931F2091BE063091EE
:10518000BF062817390779F5F093BF06E093BE06EE
:1051900071C0D80140E050E0AE17BF0750F412963E
:1051A0002D913C911397AD012115310509F1D901DC
:1051B000F3CF9D01DA013383228360817181860FF1
:1051C000971F8217930769F4EC0128813981260F14
:1051D000371F2E5F3F4F318320838A819B819383CA
:1051E0008283452B29F4F093C106E093C00642C0A8
:1051F0001396FC93EE931297ED01499159919E01FC
:10520000240F351FE217F30771F480819181840F19
:10521000951F029611969C938E938281938113968B
:105220009C938E931297E0E0F0E0D80112968D9156
:105230009C911397009719F0F8018C01F6CF8D918E
:105240009C9198012E5F3F4F820F931F2091BE06C5
:105250003091BF062817390769F4309729F4109266
:10526000C1061092C00602C0138212821093BF06BC
:105270000093BE06DF91CF911F910F9108958F92F9
:105280009F92AF92BF92CF92DF92EF92FF92CF9315
:10529000DF93EC01688179818A819B8161157105B9
:1052A0008105910521F464E279ED8BE597E02DE12C
:1052B00033EF41E050E00E94312D49015A019B013A
:1052C000AC01A7EAB1E40E94572D6B017C01ACEE62
:1052D000B4EFA50194010E94652DDC01CB018C0D7A
:1052E0009D1DAE1DBF1DB7FF03C00197A109B048AA
:1052F00088839983AA83BB83BC01CD019F77DF910B
:10530000CF91FF90EF90DF90CF90BF90AF909F90A4
:105310008F9008950E943F29089586E091E00E94B1
:105320003F29089560930601709307018093080157
:10533000909309010895A0E0B0E0E1EAF9E20C944D
:105340006E2DEC01009721F4CB010E941228B8C009
:10535000FC01E60FF71F9C0122503109E217F30709
:1053600008F4ACC0D9010D911C91119706171707CD
:10537000B0F00530110508F49FC0C80104978617E6
:10538000970708F499C002501109061B170B0193E7
:1053900011936D937C93CF010E94A7288DC05B0170
:1053A000A01AB10A4C01800E911EA091C006B091C6
:1053B000C10640E050E0E12CF12C109709F44AC0FE
:1053C000A815B905D1F56D907C901197630182E025
:1053D000C80ED11CCA14DB0480F1A3014A195B0971
:1053E0006A0182E0C80ED11C1296BC9012971396E7
:1053F000AC91B5E0CB16D10440F0B282A3835183C7
:105400004083D9016D937C930AC00E5F1F4FC30187
:10541000800F911FF90191838083EB2DFA2FE11406
:10542000F10431F0D7011396FC93EE93129744C028
:10543000F093C106E093C0063FC08D919C911197F7
:105440004817590708F4AC017D0112960D90BC91E4
:10545000A02DB3CF8091BE069091BF068815990507
:10546000E1F446175707C8F48091000190910101BB
:10547000009741F48DB79EB740910401509105010A
:10548000841B950BE817F907C8F4F093BF06E09367
:10549000BE06F901718360830FC0CB010E94122800
:1054A0007C01009759F0A801BE010E94752ACE0127
:1054B0000E94A728C70104C0CE0102C080E090E08E
:1054C000CDB7DEB7EEE00C948A2DF8940C94BE2D87
:1054D000FB01DC0104C08D910190801921F4415041
:1054E0005040C8F7881B990B0895FB01DC0102C0EE
:1054F00001900D9241505040D8F70895FB01DC0116
:105500008D91019080190110D9F3990B0895FB0139
:10551000DC0101900D920020E1F70895453251051C
:1055200020F4423010F00C94992AFB011082CB0138
:105530000895BB274A3031F4992322F4BDE29095B7
:1055400081959F4F0C94DD2A2532310520F42230BD
:1055500010F00C94AF2AFA011082CA010895BB27FB
:10556000FA01A62F6217710581059105330B30FBF7
:1055700066F0AA27660F771F881F991FAA1FA21718
:1055800010F0A21B63953850A9F7A05DAA3308F06C
:10559000A95DA19336F7B111B1931082CA010C94A1
:1055A000FF2C4532510520F4423010F00C94DC2AD7
:1055B000FB011082CB010895BB27FB015527AA27C9
:1055C000880F991FAA1FA41710F0A41B8395505190
:1055D000B9F7A05DAA3308F0A95DA193009779F708
:1055E000B111B1931192CB010C94FF2C5058BB27F1
:1055F000AA270E940E2B0C94582C0E944A2C38F09B
:105600000E94512C20F039F49F3F19F426F40C9499
:10561000472C0EF4E095E7FB0C94412CE92F0E94F7
:10562000692C58F3BA17620773078407950720F0AF
:1056300079F4A6F50C948B2C0EF4E0950B2EBA2F72
:10564000A02D0B01B90190010C01CA01A001112488
:10565000FF27591B99F0593F50F4503E68F11A1634
:10566000F040A22F232F342F4427585FF3CF4695C5
:1056700037952795A795F0405395C9F77EF41F16E7
:10568000BA0B620B730B840BBAF09150A1F0FF0FB1
:10569000BB1F661F771F881FC2F70EC0BA0F621F9D
:1056A000731F841F48F4879577956795B795F7958D
:1056B0009E3F08F0B0CF9395880F08F09927EE0F22
:1056C0009795879508950E94772B0C94582C0E94EB
:1056D000512C58F00E944A2C40F029F45F3F29F0E9
:1056E0000C94412C51110C948C2C0C94472C0E943E
:1056F000692C68F39923B1F3552391F3951B550B4E
:10570000BB27AA2762177307840738F09F5F5F4F94
:10571000220F331F441FAA1FA9F335D00E2E3AF0D3
:10572000E0E832D091505040E695001CCAF72BD0EB
:10573000FE2F29D0660F771F881FBB1F261737073C
:105740004807AB07B0E809F0BB0B802DBF01FF276E
:1057500093585F4F3AF09E3F510578F00C94412CDE
:105760000C948C2C5F3FE4F3983ED4F386957795A8
:105770006795B795F7959F5FC9F7880F911D969527
:10578000879597F90895E1E0660F771F881FBB1F83
:10579000621773078407BA0720F0621B730B840B30
:1057A000BA0BEE1F88F7E09508950E94712C88F0DF
:1057B0009F5798F0B92F9927B751B0F0E1F0660FD5
:1057C000771F881F991F1AF0BA95C9F714C0B13016
:1057D00091F00E948B2CB1E008950C948B2C672FD4
:1057E000782F8827B85F39F0B93FCCF38695779545
:1057F0006795B395D9F73EF490958095709561952E
:105800007F4F8F4F9F4F0895E89409C097FB3EF458
:1058100090958095709561957F4F8F4F9F4F9923FD
:10582000A9F0F92F96E9BB279395F695879577957B
:105830006795B795F111F8CFFAF4BB0F11F460FF3B
:105840001BC06F5F7F4F8F4F9F4F16C0882311F093
:1058500096E911C0772321F09EE8872F762F05C0A7
:10586000662371F096E8862F70E060E02AF09A9542
:10587000660F771F881FDAF7880F9695879597F937
:10588000089597F99F6780E870E060E008959FEFC2
:1058900080EC089500240A941616170618060906C7
:1058A000089500240A941216130614060506089596
:1058B000092E0394000C11F4882352F0BB0F40F41E
:1058C000BF2B11F460FF04C06F5F7F4F8F4F9F4F5E
:1058D000089557FD9058440F551F59F05F3F71F0E0
:1058E0004795880F97FB991F61F09F3F79F0879547
:1058F0000895121613061406551FF2CF4695F1DFD0
:1059000008C0161617061806991FF1CF869571055F
:10591000610508940895E894BB2766277727CB0193
:1059200097F908950E94A52C0C94582C0E944A2C9B
:1059300038F00E94512C20F0952311F00C94412C4A
:105940000C94472C11240C948C2C0E94692C70F31D
:10595000959FC1F3950F50E0551F629FF001729F14
:10596000BB27F00DB11D639FAA27F00DB11DAA1F23
:10597000649F6627B00DA11D661F829F2227B00D70
:10598000A11D621F739FB00DA11D621F839FA00DFB
:10599000611D221F749F3327A00D611D231F849F4B
:1059A000600D211D822F762F6A2F11249F575040A2
:1059B0009AF0F1F088234AF0EE0FFF1FBB1F661F1D
:1059C000771F881F91505040A9F79E3F510580F0E6
:1059D0000C94412C0C948C2C5F3FE4F3983ED4F350
:1059E000869577956795B795F795E7959F5FC1F78A
:1059F000FE2B880F911D9695879597F90895DC01E8
:105A0000FC01672F71917723E1F7329704C07C91F5
:105A10006D9370836291AE17BF07C8F30895A1E23A
:105A20001A2EAA1BBB1BFD010DC0AA1FBB1FEE1F18
:105A3000FF1FA217B307E407F50720F0A21BB30B63
:105A4000E40BF50B661F771F881F991F1A9469F7DF
:105A500060957095809590959B01AC01BD01CF013B
:105A60000895052E97FB1EF400940E94482D57FDC3
:105A700007D00E940F2D07FC03D04EF40C94482D44
:105A800050954095309521953F4F4F4F5F4F08956A
:105A900090958095709561957F4F8F4F9F4F08959A
:105AA00069279627692778278727782708950E94EE
:105AB000A72DA59F900DB49F900DA49F800D911DC3
:105AC00011240895B7FF0C94572D0E94572D821B67
:105AD000930B08952F923F924F925F926F927F9215
