:100000000C9466000C948E000C948E000C948E0060
:100010000C948E000C948E000C94BE0F0C948E00E9
:100020000C948E000C948E000C948E000C948E0018
:100030000C948E000C948E000C948E000C948E0008
:100040000C94DF070C948E000C94A10A0C94D30A34
:100050000C948E000C948E000C948E000C948E00E8
:100060000C9496210C948E00000000080002010000
:100070000003040700000000000000000102040863
:100080001020408001020408102001020408102002
:10009000040404040404040402020202020203032E
:1000A0000303030300000000250028002B000000CC
:1000B0000000240027002A009000030BED0CB70F6E
:1000C000B9126919BE199E205623EE0011241FBED5
:1000D000CFEFD8E0DEBFCDBF14E0A0E0B1E0E2EAB0
:1000E000FCE502C005900D92A434B107D9F727E0D2
:1000F000A4E4B4E001C01D92AA31B207E1F710E018
:10010000C5E6D0E004C02197FE010E94192ECC352F
:10011000D107C9F70E94310B0C940A2B0C940000F4
:100120000F9300E020E040E060E086E095E00E9470
:10013000C60C01E021E041E06AE080E095E00E9429
:10014000C60C85EE94E00E9441128AEC94E00E9475
:1001500041128FEA94E00E9441126AED71E089E851
:1001600094E00E94660D8FE794E00E94AE1C8EE73B
:1001700094E00E94240F8DE794E00E94240F8CE706
:1001800094E00E94240F84E794E00E943D0EE4E492
:10019000F4E0148215821682178280E090E0A6ECCB
:1001A000B2EC80879187A287B38784879587A687DB
:1001B000B787808B918BA28BB38B848B958BA68B0F
:1001C000B78B808F918FA28FB38F148E158E168E62
:1001D000178E10A211A212A20F91089589E894E03F
:1001E0000C94F80C0F931F93CF93DF9300D000D0A3
:1001F00000D0CDB7DEB78C014091100150911101B4
:1002000080E094E09A8389838091020590910305B0
:10021000A0910405B09105058B839C83AD83BE83BB
:10022000BE016F5F7F4F8FEA94E00E94A910B80172
:100230008FEA94E00E94AA098FEA94E00E94B1102C
:1002400088E1EFE8F4E0DF011D928A95E9F7269650
:100250000FB6F894DEBF0FBECDBFDF91CF911F91D7
:100260000F9108958F929F92AF92BF92CF92DF929B
:10027000EF92FF920F931F93CF93DF9300D000D0A4
:1002800000D0CDB7DEB760E47FE188EB95E00E9457
:1002900035100E9429084B015C010E9429080E9428
:1002A0007C2C60937004709371048093720490931B
:1002B000730426E040E051EE60E070E085E195E0F7
:1002C0000E94150C6CE171E085E195E00E94CF0978
:1002D00060E082E00E94370961E082E00E94FB0852
:1002E00060E082E00E94370960E088E00E94370900
:1002F00061E088E00E94FB0860E088E00E94370926
:1003000060E089E00E94370961E089E00E94FB0813
:1003100060E089E00E94370961E083E00E943709CC
:1003200061E083E00E94FB0861E083E00E943709FE
:1003300061E085E00E94370961E085E00E94FB08EA
:1003400061E085E00E94370961E086E00E9437099C
:1003500061E086E00E94FB0861E086E00E943709C8
:1003600061E087E00E94370961E087E00E94FB08B6
:1003700061E087E00E94370961E084E00E9437096C
:1003800061E084E00E94FB0861E084E00E9437099C
:1003900099EAE92E94E0F92E670100918704109103
:1003A0008804C8010E942E2ED6018D936D010F5F27
:1003B0001F4F1093880400938704BFEACB16B4E064
:1003C000DB0659F7E9E6F4E0D7018D917D018193D1
:1003D000BFEAEB16B4E0FB06B9F710EAE12E1FE026
:1003E000F12E00E010E020E63AEE40E050E069EA4D
:1003F00074E082ED95E00E943F18892B61F46CE275
:1004000071E085E195E00E94CF0960E177E280E04C
:1004100090E00E945A086AE671E085E195E00E944A
:10042000CF0962ED75E0CE0101960E944119BE012F
:100430006F5F7F4F85E195E00E94E10960911401B3
:100440007091150185EE94E00E942A1160911201CD
:10045000709113018AEC94E00E942A1160911001BE
:10046000709111018FEA94E00E942A116CED75E001
:1004700080E090E00E945A0869E771E0CE010196A1
:100480000E94660DCE0101960E94F200CE010196F7
:100490000E94F80C6AE871E0CE0101960E94660D98
:1004A000CE0101960E94F200CE0101960E94F80C46
:1004B0004AE06091AF04CE0101960E94920DCE01F8
:1004C00001960E94F200CE0101960E94F80C6BEAA0
:1004D00071E0CE0101960E94660DCE0101960E9448
:1004E000F200CE0101960E94F80C4AE06091A90446
:1004F000CE0101960E94920DCE0101960E94F2005B
:10050000CE0101960E94F80C4AE06091AA04CE0147
:1005100001960E94920DCE0101960E94F200CE013A
:1005200001960E94F80C4AE06091AB04CE0101965E
:100530000E94920DCE0101960E94F200CE0101961A
:100540000E94F80C4AE06091AC04CE0101960E9432
:10055000920DCE0101960E94F200CE0101960E94FA
:10056000F80C4AE06091AD04CE0101960E94920D14
:10057000CE0101960E94F200CE0101960E94F80C75
:100580004AE06091AE04CE0101960E94920DCE0128
:1005900001960E94F200CE0101960E94F80C809113
:1005A0000E0190910F010E942E2E682F70E080E0C6
:1005B00090E00E947C2C60934404709345048093E7
:1005C0004604909347046EEB71E085E195E00E944C
:1005D000B8096EEB71E0CE0101960E94660DCE0166
:1005E00001960E94F200CE0101960E94F80C00E0F4
:1005F00010E06FEC71E085E195E00E94B8094AE0F7
:1006000050E0B80185E195E00E94860A69ED71E04D
:1006100085E195E00E94B8096BED71E085E195E018
:100620000E94B809C8010E942E2E4AE050E0682FAF
:1006300085E195E00E949A0A69ED71E085E195E017
:100640000E94B8096FEC71E0CE0101960E94660D20
:10065000CE0101960E94F200CE0101960E94F80C94
:100660004AE0B801CE0101960E94BF0DCE0101966D
:100670000E94F200CE0101960E94F80C6BED71E031
:10068000CE0101960E94660DCE0101960E94F200F5
:10069000CE0101960E94F80CC8010E942E2E4AE05D
:1006A000682FCE0101960E94920DCE0101960E9404
:1006B000F200CE0101960E94F80C0F5F1F4F083028
:1006C000110509F096CF4FEF6EE38FE794E00E949B
:1006D000681F882309F4F9C062EE71E085E195E0B6
:1006E0000E94CF0962EE71E0CE0101960E94660D74
:1006F000CE0101960E94F200CE0101960E94F80CF4
:1007000040E060E08FE794E00E94051F40E060E079
:100710008FE794E00E94101E40E061E08FE794E0D4
:100720000E94051F40E061E08FE794E00E94101EE8
:1007300040E062E08FE794E00E94051F40E062E045
:100740008FE794E00E94101E40E063E08FE794E0A2
:100750000E94051F40E063E08FE794E00E94101EB6
:1007600040E064E08FE794E00E94051F40E064E011
:100770008FE794E00E94101E40E065E08FE794E070
:100780000E94051F40E065E08FE794E00E94101E84
:1007900040E066E08FE794E00E94051F40E066E0DD
:1007A0008FE794E00E94101E40E067E08FE794E03E
:1007B0000E94051F40E067E08FE794E00E94101E52
:1007C00040E068E08FE794E00E94051F40E068E0A9
:1007D0008FE794E00E94101E40E069E08FE794E00C
:1007E0000E94051F40E069E08FE794E00E94101E20
:1007F00040E06AE08FE794E00E94051F40E06AE075
:100800008FE794E00E94101E40E06BE08FE794E0D9
:100810000E94051F40E06BE08FE794E00E94101EED
:1008200041E06CE08FE794E00E94051F41E06DE03D
:100830008FE794E00E94051F41E06EE08FE794E0AF
:100840000E94051F41E06FE08FE794E00E94051FC2
:1008500000E010E0602F8FE794E00E94371E002E2A
:1008600001C0880F0A94EAF720916704822B8093D5
:1008700067040F5F1F4F0830110561F708E010E0B3
:10088000602F8FE794E00E94371E002E01C0880F72
:100890000A94EAF720916804822B809368040F5F22
:1008A0001F4F0F30110561F76091670480910C01B3
:1008B00090910D010E94362E6091680480910A018A
:1008C00090910B010E94362E14C069EF71E085E112
:1008D00095E00E94CF0969EF71E0CE0101960E9478
:1008E000660DCE0101960E94F200CE0101960E9493
:1008F000F80C0E9429086B017C0163E172E0CE01D3
:1009000001960E94660DCE0101960E94F200CE0172
:1009100001960E94F80CB601681979094AE0CE01E7
:1009200001960E94EB0DCE0101960E94F200CE01CD
:1009300001960E94F80C26960FB6F894DEBF0FBE03
:10094000CDBFDF91CF911F910F91FF90EF90DF907E
:10095000CF90BF90AF909F908F900895CF93DF93EB
:1009600000D000D000D0CDB7DEB769E272E085E1FB
:1009700095E00E94CF0969E272E0CE0101960E94E3
:10098000660DCE0101960E94F200CE0101960E94F2
:10099000F80C64EF71E080E090E00E945A0860E09B
:1009A00084E00E94370926960FB6F894DEBF0FBE8A
:1009B000CDBFDF91CF910895CF93DF93CDB7DEB751
:1009C0002C970FB6F894DEBF0FBECDBF48E150E0C4
:1009D0006FE874E085EE94E00E94F2106FE874E036
:1009E000CE0107960E94660D60E472E0CE01079684
:1009F0000E94170E8823C9F065E472E085E195E056
:100A00000E94CF0965E472E0CE0101960E94660D56
:100A1000CE0101960E94F200CE0101960E94F80CD0
:100A200088EB95E00E94C80F18C166E572E0CE0120
:100A300007960E94170E882341F061E082E00E9431
:100A4000370981E08093600408C163E672E0CE015B
:100A500007960E94170E882339F060E082E00E941A
:100A6000370910926004F9C061E772E0CE01079681
:100A70000E94170E882371F06DE772E085E195E022
:100A80000E94CF0960E083E00E94370981E08093F3
:100A90006304E3C069E872E0CE0107960E94170E76
:100AA000882369F066E972E085E195E00E94CF094C
:100AB00061E083E00E94370910926304CEC063EACC
:100AC00072E0CE0107960E94170E882371F06FEA3C
:100AD00072E085E195E00E94CF0960E085E00E9428
:100AE000370981E080936404B8C06BEB72E0CE01FB
:100AF00007960E94170E882369F068EC72E085E182
:100B000095E00E94CF0961E085E00E9437091092CC
:100B10006404A3C065ED72E0CE0107960E94170E33
:100B2000882371F061EE72E085E195E00E94CF09C3
:100B300060E086E00E94370981E0809365048DC003
:100B40006DEE72E0CE0107960E94170E882369F0C1
:100B50006AEF72E085E195E00E94CF0961E086E0EE
:100B60000E9437091092650478C067E073E0CE01F7
:100B700007960E94170E882371F063E173E085E108
:100B800095E00E94CF0960E087E00E94370981E08C
:100B90008093660462C06FE173E0CE0107960E9405
:100BA000170E882369F06CE273E085E195E00E94FE
:100BB000CF0961E087E00E943709109266044DC0BA
:100BC00069E373E0CE0107960E94170E882341F077
:100BD00061E088E00E94370981E0809361043DC0B4
:100BE00060E473E0CE0107960E94170E882339F067
:100BF00060E088E00E943709109261042EC068E42A
:100C000073E0CE0107960E94170E882371F06FE4FF
:100C100073E085E195E00E94CF0961E089E00E94E0
:100C2000370981E08093620418C066E573E0CE0165
:100C300007960E94170E882339F060E089E00E9431
:100C400037091092620409C06EE573E0CE01079681
:100C50000E94170E81110E94AE04CE0107960E94D9
:100C6000F80C2C960FB6F894DEBF0FBECDBFDF9107
:100C7000CF9108958F929F92AF92BF92CF92DF92C1
:100C8000EF92FF92CF93DF9300D000D000D0CDB78A
:100C9000DEB70E9429084B015C016BE18EE794E00E
:100CA0000E94780F882369F08EE794E00E949A0FE3
:100CB00060934C0470934D0480934E0490934F04C2
:100CC00020C064E673E085E195E00E94CF0964E608
:100CD00073E0CE0101960E94660DCE0101960E943E
:100CE000F200CE0101960E94F80C80E090E0A6ECA4
:100CF000B2EC80934C0490934D04A0934E04B093B7
:100D00004F046AE18DE794E00E94780F882369F030
:100D10008DE794E00E949A0F609350047093510401
:100D2000809352049093530420C06AE773E085E1F6
:100D300095E00E94CF096AE773E0CE0101960E9418
:100D4000660DCE0101960E94F200CE0101960E942E
:100D5000F80C80E090E0A6ECB2EC80935004909305
:100D60005104A0935204B093530468E18CE794E0DB
:100D70000E94780F882369F08CE794E00E949A0F14
:100D800060935404709355048093560490935704D1
:100D900020C060E973E085E195E00E94CF0960E939
:100DA00073E0CE0101960E94660DCE0101960E946D
:100DB000F200CE0101960E94F80C80E090E0A6ECD3
:100DC000B2EC8093540490935504A0935604B093CE
:100DD000570484E794E00E94540E8823C9F084E706
:100DE00094E00E94820E609358047093590480939B
:100DF0005A0490935B0484E794E00E94D30E6093BE
:100E00005C0470935D0480935E0490935F0428C03B
:100E100066EA73E085E195E00E94CF0966EA73E037
:100E2000CE0101960E94660DCE0101960E94F2004D
:100E3000CE0101960E94F80C80E090E0A6ECB2ECA6
:100E40008093580490935904A0935A04B0935B0480
:100E500080935C0490935D04A0935E04B0935F0460
:100E60000E9429080E947C2C20917004309171040A
:100E700040917204509173040E946E2B20E030E088
:100E80004AE754E40E94DB2B6093480470934904C2
:100E900080934A0490934B044091120150911301A6
:100EA00080E094E09A838983809102059091030504
:100EB000A0910405B09105058B839C83AD83BE830F
:100EC000BE016F5F7F4F8AEC94E00E94A9104CE254
:100ED00050E064E474E08AEC94E00E94B5108AEC7F
:100EE00094E00E94B11069EB73E085E195E00E9407
:100EF000CF0969EB73E0CE0101960E94660DCE0129
:100F000001960E94F200CE0101960E94F80C88E141
:100F1000EFE8F4E0DF011D928A95E9F785EE94E0B1
:100F20000E9457119093A8048093A70418161906DD
:100F300014F40E94DC0488E1EFE8F4E0DF011D9284
:100F40008A95E9F782ED95E00E94DC180E94290855
:100F50006B017C016CEC73E0CE0101960E94660D82
:100F6000CE0101960E94F200CE0101960E94F80C7B
:100F7000B601681979094AE0CE0101960E94EB0D8D
:100F8000CE0101960E94F200CE0101960E94F80C5B
:100F900060ED77E080E090E00E945A0826960FB658
:100FA000F894DEBF0FBECDBFDF91CF91FF90EF90E1
:100FB000DF90CF90BF90AF909F908F9008951F9239
:100FC0000F920FB60F9211242F933F938F939F93FD
:100FD000AF93BF9380910D0590910E05A0910F05E1
:100FE000B091100530910C0523E0230F2D3720F42C
:100FF0000196A11DB11D05C026E8230F0296A11D73
:10100000B11D20930C0580930D0590930E05A093C0
:101010000F05B09310058091110590911205A091D4
:101020001305B09114050196A11DB11D8093110502
:1010300090931205A0931305B0931405BF91AF913F
:101040009F918F913F912F910F900FBE0F901F9006
:1010500018952FB7F89460910D0570910E05809149
:101060000F05909110052FBF08953FB7F894809118
:10107000110590911205A0911305B091140526B5A4
:10108000A89B05C02F3F19F00196A11DB11D3FBFC0
:10109000BA2FA92F982F8827820F911DA11DB11D4E
:1010A000BC01CD0142E0660F771F881F991F4A954A
:1010B000D1F708958F929F92AF92BF92CF92DF9215
:1010C000EF92FF926B017C010E9435084B015C019D
:1010D000C114D104E104F10401F10E94D1080E947D
:1010E0003508DC01CB0188199909AA09BB09883E9A
:1010F0009340A105B10560F321E0C21AD108E108CF
:10110000F10888EE880E83E0981EA11CB11CC11462
:10111000D104E104F10419F7DBCFFF90EF90DF90E9
:10112000CF90BF90AF909F908F900895789484B5A2
:10113000826084BD84B5816084BD85B5826085BDD3
:1011400085B5816085BDEEE6F0E0808181608083B9
:10115000E1E8F0E01082808182608083808181609C
:101160008083E0E8F0E0808181608083E1EBF0E063
:10117000808184608083E0EBF0E080818160808307
:10118000EAE7F0E0808184608083808182608083F0
:101190008081816080838081806880831092C1001B
:1011A00008950895833081F028F4813099F08230D9
:1011B000A1F008958730A9F08830B9F08430D1F4D7
:1011C000809180008F7D03C0809180008F77809315
:1011D0008000089584B58F7702C084B58F7D84BD6B
:1011E00008958091B0008F7703C08091B0008F7D0B
:1011F0008093B0000895CF93DF9390E0FC01E45812
:10120000FF4F2491FC01E057FF4F8491882361F147
:1012100090E0880F991FFC01E255FF4FC591D491D2
:10122000FC01EC55FF4FA591B491611109C09FB726
:10123000F8948881209582238883EC912E230BC01B
:10124000623061F49FB7F8943881822F80958323B0
:101250008883EC912E2B2C939FBF06C08FB7F894F8
:10126000E8812E2B28838FBFDF91CF9108951F93A4
:10127000CF93DF93282F30E0F901E859FF4F849195
:10128000F901E458FF4FD491F901E057FF4FC491A1
:10129000CC23C9F0162F81110E94D208EC2FF0E068
:1012A000EE0FFF1FEC55FF4FA591B4918FB7F89447
:1012B000111105C09C91ED2FE095E92302C0EC913E
:1012C000ED2BEC938FBFDF91CF911F91089580E0BC
:1012D00090E00895CF92DF92EF92FF920F931F93C9
:1012E000CF93DF936C017A018B01C0E0D0E0CE1583
:1012F000DF0589F0D8016D918D01D601ED91FC914A
:101300000190F081E02DC6010995892B11F47E0131
:1013100002C02196ECCFC701DF91CF911F910F91B1
:10132000FF90EF90DF90CF9008956115710579F0EF
:10133000FB0101900020E9F73197AF01461B570BE5
:10134000DC01ED91FC910280F381E02D099480E0B5
:1013500090E00895DC01ED91FC91DB0114964D9134
:101360005C9115976D917C910280F381E02D099439
:101370000C949509DC01ED91FC910190F081E02D38
:101380000994DB01ED91FC9111970190F081E02D22
:10139000BC01CD0109946BED73E00C9495090F939A
:1013A0001F93CF93DF93EC010E9495098C01CE012E
:1013B0000E94CB09800F911FDF91CF911F910F9158
:1013C00008950F931F93CF93DF93EC010E94C109FF
:1013D0008C01CE010E94CB09800F911FDF91CF912C
:1013E0001F910F9108954F925F926F927F92EF92AB
:1013F000FF920F931F93CF93DF93CDB7DEB7A197E3
:101400000FB6F894DEBF0FBECDBF7C01FA01CB0151
:1014100019A2223008F42AE08E010F5D1F4F422EE0
:10142000512C612C712CBF01A30192010E94872DC8
:10143000F901CA01015011096A3014F4605D01C05C
:10144000695CD8016C93232B242B252B61F7B80101
:10145000C7010E949509A1960FB6F894DEBF0FBE92
:10146000CDBFDF91CF911F910F91FF90EF907F90B3
:101470006F905F904F900895CF92DF92EF92FF921E
:101480000F931F93CF93DF93EC016A017B0121152A
:10149000310579F4E881F9810190F081E02D642F24
:1014A000DF91CF911F910F91FF90EF90DF90CF9040
:1014B00009942A303105E9F477FF1AC06DE20E94E1
:1014C000BA098C0144275527BA014C195D096E09E8
:1014D0007F092AE0CE010E94F309800F911FDF915E
:1014E000CF911F910F91FF90EF90DF90CF900895D3
:1014F0002AE0B701A601CE01DF91CF911F910F9194
:10150000FF90EF90DF90CF900C94F3099A01AB011C
:10151000770F660B770B0C943C0A2115310541F4CB
:10152000DC01ED91FC910190F081E02D642F099494
:101530000C94F3099A01462F50E060E070E00C949F
:101540008D0A1F920F920FB60F9211242F938F9333
:101550009F93EF93FF93E0912505F09126058081FD
:10156000E0912B05F0912C0582FD12C090818091B5
:101570002E058F5F8F7320912F05821751F0E09118
:101580002E05F0E0EB5EFA4F958F80932E0501C09B
:101590008081FF91EF919F918F912F910F900FBEBE
:1015A0000F901F9018951F920F920FB60F92112453
:1015B0002F933F934F935F936F937F938F939F935B
:1015C000AF93BF93EF93FF9385E195E00E948B0B60
:1015D000FF91EF91BF91AF919F918F917F916F910B
:1015E0005F914F913F912F910F900FBE0F901F90E1
:1015F000189585E195E00E94400B21E0892B09F4C4
:1016000020E0822F0895E5E1F5E01382128288EE52
:1016100093E0A0E0B0E084839583A683B7838EEE49
:1016200093E09183808385EC90E09587848784ECB8
:1016300090E09787868780EC90E0918B808B81EC9F
:1016400090E0938B828B82EC90E0958B848B86EC80
:1016500090E0978B868B118E128E138E148E0895C8
:1016600008950E9496080E94300B0E943201CDE737
:10167000DBE00E943A062097E1F30E947D0BF9CF50
:10168000FC01918D228D892F90E0805C9F4F821B01
:1016900091098F7399270895FC01918D828D981778
:1016A00031F0828DE80FF11D858D90E008958FEF68
:1016B0009FEF0895FC01918D828D981761F0828DC6
:1016C000DF01A80FB11D5D968C91928D9F5F9F7376
:1016D000928F90E008958FEF9FEF0895FC01538D56
:1016E000448D252F30E0842F90E0821B930B5417FC
:1016F00010F0CF9608950197089589EF9AE0892B0D
:1017000049F080E090E0892B29F00E94F90A8111CC
:101710000C9400000895FC01848DDF01A80FB11D19
:10172000A35ABF4F2C91848D90E001968F73992717
:10173000848FA689B7892C93A089B1898C91806404
:101740008C93938D848D981306C00288F389E02DC5
:1017500080818F7D80830895CF93DF93EC01888D06
:101760008823C9F0EA89FB89808185FD05C0A889A5
:10177000B9898C9186FD0FC00FB607FCF5CF80812B
:1017800085FFF2CFA889B9898C9185FFEDCFCE0175
:101790000E948B0BE7CFDF91CF910895EF92FF92DC
:1017A0000F931F93CF93DF93EC0181E0888F9B8D84
:1017B0008C8D981305C0E889F989808185FD24C046
:1017C000F62E0B8D10E00F5F1F4F0F731127E02EC9
:1017D0008C8DE8120CC00FB607FCFACFE889F989A6
:1017E000808185FFF5CFCE010E948B0BF1CF8B8DD1
:1017F000FE01E80FF11DE35AFF4FF0820B8FEA89DB
:10180000FB898081806207C0EE89FF896083E88957
:10181000F98980818064808381E090E0DF91CF91BD
:101820001F910F91FF90EF900895CF92DF92EF926A
:10183000FF921F93CF93DF93EC016A017B01122F7C
:10184000E889F98982E080834115514E610571056F
:10185000B1F060E079E08DE390E0A70196010E948D
:10186000872DDA01C9010197A109B109B695A7959C
:1018700097958795AC01411580E15807A8F0E88954
:10188000F989108260E874E88EE190E0A701960182
:101890000E94872DBA01A9014150510961097109BE
:1018A0007695679557954795EC85FD855083EE8530
:1018B000FF854083188EEC89FD891083EA89FB89B6
:1018C000808180618083EA89FB8980818860808350
:1018D000EA89FB89808180688083EA89FB8980812D
:1018E0008F7D8083DF91CF911F91FF90EF90DF90EC
:1018F000CF9008958F929F92AF92BF92CF92DF9236
:10190000EF92FF920F931F93CF93DF937C018B0194
:101910006C0182E0C80ED11C4701E5E08E0E911CDF
:10192000C0E0D0E0F60161916F014AE050E0C801EB
:101930000E949A0A5C016EE2C8010E94BA098A0DEF
:101940009B1DC80FD91FC814D90461F74AE050E0A5
:10195000F7016581C8010E949A0A8C0F9D1FDF91D3
:10196000CF911F910F91FF90EF90DF90CF90BF909C
:10197000AF909F908F90089520E034E0FC01318378
:101980002083128213821482158208950F93FC0122
:1019900080E094E091838083628343832483058382
:1019A0000F91089520E034E0FC0131832083FB0196
:1019B0004081518162817381FC014283538364833E
:1019C00075830895FB014081518162817381FC011F
:1019D00042835383648375830895E2EBF5E080E0EE
:1019E00094E0918380831282138214821582089579
:1019F000FC01808191810C944C29CF93DF93EC0101
:101A000088819981009711F00E944C2919821882CF
:101A10001D821C821B821A82DF91CF9108950F9341
:101A20001F93CF93DF93EC018B016F5F7F4F888112
:101A300099810E94402A009731F0998388831B8303
:101A40000A8381E001C080E0DF91CF911F910F9167
:101A50000895CF93DF93EC0188819981892B29F038
:101A60008A819B818617970760F4CE010E940F0D33
:101A7000882341F08C819D81892B19F4E881F981BB
:101A8000108281E0DF91CF910895EF92FF920F9342
:101A90001F93CF93DF93EC017B018A01BA010E946F
:101AA000290D811104C0CE010E94FD0C07C01D83C9
:101AB0000C83B701888199810E942C2BCE01DF9184
:101AC000CF911F910F91FF90EF900895FC0111822B
:101AD000108213821282158214826115710551F0F1
:101AE000FB0101900020E9F73197AF01461B570B2E
:101AF0000C94450D0895CF93DF93EC0161157105AA
:101B000059F0FB0101900020E9F73197AF01461B26
:101B1000570B0E94450D02C00E94FD0CCE01DF91C3
:101B2000CF9108950F931F93CF93DF93CDB7DEB777
:101B300029970FB6F894DEBF0FBECDBF8C01862F5C
:101B4000F80111821082138212821582148250E0F1
:101B5000BE016F5F7F4F90E00E94492BBE016F5F17
:101B60007F4FC8010E947B0D29960FB6F894DEBF07
:101B70000FBECDBFDF91CF911F910F9108950F93AD
:101B80001F93CF93DF93CDB7DEB762970FB6F8946C
:101B9000DEBF0FBECDBF8C01CB01F80111821082D8
:101BA000138212821582148250E0BE016F5F7F4F54
:101BB0000E94332BBE016F5F7F4FC8010E947B0DD7
:101BC00062960FB6F894DEBF0FBECDBFDF91CF9106
:101BD0001F910F9108950F931F93CF93DF93CDB76C
:101BE000DEB761970FB6F894DEBF0FBECDBF8C0194
:101BF000CB01F801118210821382128215821482A5
:101C000050E0BE016F5F7F4F0E94492BBE016F5FA6
:101C10007F4FC8010E947B0D61960FB6F894DEBF1E
:101C20000FBECDBFDF91CF911F910F910895FC01A1
:101C300024813581232B31F421E061157105A1F058
:101C4000FB0108C0FC01808191816115710531F4AF
:101C500021E0FC018081882339F005C00E94232BFC
:101C600021E0892B09F020E0822F0895DC01ED911D
:101C7000FC910190F081E02D0994089560E470E0FA
:101C800080E596E00E941C206EEF70E080E596E013
:101C90000E94360E80E596E00E949B206FE070E087
:101CA00080E090E00C945A08CF93DF93EC0180E53C
:101CB00096E00E940820CE010E943E0E60E470E093
:101CC00080E596E00E941C2067EE70E080E596E0DB
:101CD0000E94360E80E596E00E949B2041E050E095
:101CE00060E470E080E596E00E94982080E596E050
:101CF0000E94751F21E0029709F020E0822FDF91FA
:101D0000CF910895CF93DF9360E470E080E596E093
:101D10000E941C2063EE70E080E596E00E94360E83
:101D200080E596E00E949B2062E370E080E090E016
:101D30000E945A0843E050E060E470E080E596E0DD
:101D40000E94982080E596E00E946D1F892BD1F3B8
:101D500080E596E00E94751FD82F80E0C82F80E5AF
:101D600096E00E94751FC82BD92B80E596E00E9453
:101D7000751FBE0180E090E00E947C2C22E538EBCC
:101D80004FE253E40E940A2D20E030E040E857E3A0
:101D90000E940A2D26E636E64BE352E40E946E2BA3
:101DA000DF91CF910895CF93DF9360E470E080E5F9
:101DB00096E00E941C2065EE70E080E596E00E94AF
:101DC000360E80E596E00E949B2062E370E080E0A2
:101DD00090E00E945A0843E050E060E470E080E543
:101DE00096E00E94982080E596E00E946D1F892B66
:101DF000D1F380E596E00E94751FD82F80E0C82FB0
:101E000080E596E00E94751FC82BD92B80E596E0EF
:101E10000E94751FBE0180E090E00E947C2C20E0B3
:101E200030E04AEF52E40E940A2D20E030E040E822
:101E300057E30E940A2D20E030E040EC50E40E947D
:101E40006E2BDF91CF91089508951F93CF93DF9369
:101E500000D0CDB7DEB7162FFC01608180E596E09B
:101E60004A8359830E941220612F80E596E00E94E8
:101E7000C91F5981652F80E596E00E94C91F4A81DC
:101E8000642F80E596E00E94C91F80E596E00F90E0
:101E90000F90DF91CF911F910C949B201F93CF93B4
:101EA000DF93EC01162F688180E596E00E941220F6
:101EB000612F80E596E00E94C91F80E596E00E94B0
:101EC0009B2042E0688180E596E00E94952080E5B5
:101ED00096E00E94751FD82F80E0C82F80E596E01D
:101EE0000E94751F8C2B9D2BDF91CF911F91089520
:101EF000CF93DF93EC01688380E596E00E94082091
:101F000066E0CE010E944E0F8435910511F080E00D
:101F10000EC067E0CE010E944E0F81159440B9F7C4
:101F200040E050E061E0CE010E94250F81E0DF91AA
:101F3000CF910895CF93DF9365E00E944E0FEC019F
:101F4000BC017F7080E090E00E947C2C20E030E0BB
:101F500040E85DE30E940A2DD4FF06C020E030E097
:101F600040E853E40E946E2BDF91CF9108958FEFEC
:101F70009FEF9093B9058093B80508951F920F9233
:101F80000FB60F9211240F900FBE0F901F9018954F
:101F9000A8950895DA01F90160348FE178071CF4FF
:101FA0006115710539F489E090E08D939C9380E48C
:101FB0009FE158C0603A8FE078073CF088E090E0FD
:101FC0008D939C9380EA9FE04DC0603D87E0780749
:101FD0003CF087E090E08D939C9380ED97E042C0C9
:101FE000683E83E078073CF086E090E08D939C9318
:101FF00088EE93E037C0643F81E078073CF085E0ED
:1020000090E08D939C9384EF91E02CC06A3F710522
:102010003CF084E090E08D939C938AEF90E022C0A6
:10202000683771053CF083E090E08D939C9388E7DE
:1020300090E018C06C3371053CF082E090E08D9325
:102040009C938CE390E00EC06E3171053CF081E012
:1020500090E08D939C938EE190E004C01D921C92C1
:102060008FE090E09183808308950F931F93CF9327
:10207000DF9300D0CDB7DEB78C019E012F5F3F4FBD
:10208000AC010E94CA0FF801808183FD02C098E074
:1020900001C098E28770892B98E10FB6F894A89553
:1020A000909360000FBE8093600089819A810F90A9
:1020B0000F90DF91CF911F910F910895DC01ED9169
:1020C000FC91048CF58DE02D099420E034E0FC01B6
:1020D00031832083FB014089518962897389FC0126
:1020E00042835383648375830895FC0184899589B1
:1020F0000895FC01818D928D0895CF93DF931F92F7
:10210000CDB7DEB76983DC01ED91FC910280F381EC
:10211000E02D41E050E0BE016F5F7F4F09950F90C9
:10212000DF91CF9108950895CF93DF93EC01888DCF
:10213000843061F00E941416E88DF0E0EE0FFF1F6E
:10214000E85CF94F1182108284E0888FDF91CF9193
:102150000895FC01178A168A6E5F7F4F808D0C945C
:102160009217FC01808D0C94D817CF93DF93EC016C
:102170009A018E899F89AB01BC01888D0E944B1703
:102180002E893F89280F391F3F8B2E8BDF91CF91EE
:1021900008950F931F93CF93DF931F92CDB7DEB7B0
:1021A000FC01218D328D232B61F08C0141E050E048
:1021B000BE016F5F7F4F808D0E9491161816190621
:1021C0001CF08FEF9FEF08C0F801818D928D019771
:1021D000928F818F898190E00F90DF91CF911F9135
:1021E0000F910895CF93DF93FC01218D328D21153E
:1021F000310519F48FEF9FEF11C0EC01421753071F
:1022000008F0A901888D0E9491161816190694F7F6
:10221000298D3A8D281B390B3A8F298FDF91CF9169
:102220000895CF93DF931F92CDB7DEB7FC01218DC8
:10223000328D232B49F0BE016F5F7F4F808D0E944E
:102240001C17898190E002C08FEF9FEF0F90DF9104
:10225000CF910895EF92FF921F93CF93DF93FC01EC
:10226000208D243011F080E01CC07B01EC0110E0D7
:10227000812F0E94EC15811102C0188F05C0883192
:10228000E1F31F5F1430A1F7888D843061F3FD8680
:10229000EC861A8E198E20E0A70162E00E943E169D
:1022A00081E0DF91CF911F91FF90EF9008950F9300
:1022B0001F93CF93DF93CDB7DEB728970FB6F8946F
:1022C000DEBF0FBECDBF8C01F801818D928D892BB1
:1022D00049F0D801ED91FC910284F385E02DC8010D
:1022E0000995F2CF808D0E94F1161816190654F543
:1022F00048E050E0BE016F5F7F4FD80158968C9147
:102300000E9491169C0118161906D4F4BE016F5F45
:102310007F4FC8010E960E94E20C8D8190E0982FAD
:1023200088272E81820F911DF801958B848B2F8138
:1023300030E0322F22278885280F311D328F218FE0
:10234000C90102C080E090E028960FB6F894DEBF85
:102350000FBECDBFDF91CF911F910F9108958F9246
:102360009F92AF92BF92CF92DF92EF92FF920F9324
:102370001F93CF93DF9300D000D000D0CDB7DEB74E
:10238000FC01208D243009F068C06A017B018C01BA
:1023900053E0852E54E0952EA12CB12CC4010E944F
:1023A0009213811103C0F801A08E0AC08831D9F3BD
:1023B000FFEFAF1ABF0A9394E4E0AE16B10471F7D1
:1023C000F801808D843009F448C096E0E6E1F1E040
:1023D000DE01119601900D929A95E1F7F701938134
:1023E0009F779C8394819D8395819E83B7016E5FC7
:1023F0007F4F90E0982F882744E050E0845F9B4F08
:102400000E946313F801E08CF12CF4E0EF0EF11C54
:10241000FE2CEE246D2DC70140960E94CF126C2D2C
:10242000C70141960E94CF12F801808D90E0982F4D
:10243000882746E050E0BE016F5F7F4F8A5F9B4F69
:102440000E946313F801128E118E20E8A60162E04B
:10245000808D0E943E1681E001C080E026960FB676
:10246000F894DEBF0FBECDBFDF91CF911F910F91CA
:10247000FF90EF90DF90CF90BF90AF909F908F90A4
:102480000895CF93DF93EC011B821A8288EE93E0CC
:10249000A0E0B0E08C839D83AE83BF8386E094E0B0
:1024A00099838883CE010E960E94BC0C84E0888FAD
:1024B000DF91CF910895CF92DF92EF92FF920F9329
:1024C0001F93CF93DF93CDB7DEB7AF970FB6F894D6
:1024D000DEBF0FBECDBF8C016B017A01CE0101962C
:1024E0000E94BC0CCE0109960E944112CE018A9630
:1024F0000E94BC0C62ED75E0CE0184960E945919D1
:10250000BE016C5D7F4FCE0101960E947B19AE012A
:10251000465D5F4FB601CE0101960E94EA1B8130F5
:102520009105C1F4D801ED91FC910488F589E02D65
:1025300080E094E09DA38CA38CA59DA5AEA5BFA52E
:102540008EA39FA3A8A7B9A7A701BE016C5D7F4F6B
:10255000C8010995AF960FB6F894DEBF0FBECDBF88
:10256000DF91CF911F910F91FF90EF90DF90CF906F
:1025700008950F9300E020E040E060E08AEB95E0F2
:102580000E94C60C0F9108958EBD00000DB407FE89
:10259000FDCF8EB508952A9808952A9A08951F931D
:1025A000CF93DF9300D0CDB7DEB7182F6A8399831E
:1025B0000E94CB1280EF0E94C4129981892F0E9441
:1025C000C412812F0E94C4126A81862F0E94C412F5
:1025D0000E94CD1281E00F900F90DF91CF911F915B
:1025E0000895CF93DF93EC016CE271E080E090E01E
:1025F0000E945A080E94781C229A80914E068823D5
:1026000099F02FB7F89480914E06813059F48DB32C
:1026100080934C069DB380914D06809589238DBB98
:102620002FBF02C020934C0680E58CBD1DBC60E826
:1026300080E090E00E94CF1265E58BE190E00E947F
:10264000CF1265E58AE190E00E94CF1280914E069C
:10265000882351F09FB7F89420914E0680914C0644
:10266000213029F58DBB9FBF80E090E4998388835A
:1026700080E090E69987888780E098E49B838A834E
:1026800080E098E69B878A8780E090E59D838C8335
:1026900080E090E79D878C8780E098E59F838E831C
:1026A00080E098E79F878E87DF91CF9108958FBF55
:1026B000DBCF9B0190E00496982F8827642F820F30
:1026C000931F0C94CF12CF92DF92EF92FF920F9351
:1026D0001F93CF93DF93EC017A018B016C01C40E41
:1026E000D51ECC15DD05A1F00E94CB1280EF0E9413
:1026F000C4128D2F0E94C4128C2F0E94C4122196E6
:10270000F80181918F010E94C4120E94CD12E9CF7D
:10271000C701DF91CF911F910F91FF90EF90DF9054
:10272000CF9008951F93CF93DF931F92CDB7DEB75D
:10273000182F99830E94CB128FE00E94C4129981B6
:10274000892F0E94C412812F0E94C41280E00E942F
:10275000C41289830E94CD1289810F90DF91CF919D
:102760001F91089590E00496982F8827860F971F51
:102770000C9492131F93CF93DF93182F60E270E0B5
:102780000E94B213C82FD0E061E270E0812F0E9456
:10279000B213DC2FCC279E01282BC901DF91CF91EA
:1027A0001F910895FF920F931F93CF93DF93F62EFF
:1027B000C0E0D0E08F2D0E94BA138C01892B21F04C
:1027C0008F2D0E94BA13EC01C017D10799F7CE01E3
:1027D000DF91CF911F910F91FF9008951F93CF9399
:1027E000DF93182F66E270E00E94B213C82FD0E08A
:1027F00067E270E0812F0E94B213DC2FCC279E018C
:10280000282BC901DF91CF911F910895FF920F935B
:102810001F93CF93DF93F62EC0E0D0E08F2D0E9460
:10282000EE138C01892B21F08F2D0E94EE13EC0109
:10283000C017D10799F7CE01DF91CF911F910F916A
:10284000FF9008956F927F928F929F92AF92BF9266
:10285000CF92DF92EF92FF920F931F93CF93DF936C
:102860001F92CDB7DEB7882E962E6A01590164E219
:1028700070E0892D99830E94B213E82EF12C65E255
:1028800070E0892D0E94B213FE2CEE24E82A370155
:102890006C0C7D1CA3015770E82C9981F92EE90C72
:1028A000F11CE90CF11CF70180819181840F951FC7
:1028B0009A01200F311F2130384098F060E078E015
:1028C0006B01C41AD50AA601B5010E946313A801C1
:1028D0004C195D09B5016C0D7D1DF7018081918159
:1028E00002C0A801B5010E946313060D171D412FF8
:1028F00064E270E0892D0E945913402F65E270E078
:10290000892D0F90DF91CF911F910F91FF90EF9044
:10291000DF90CF90BF90AF909F908F907F906F90FF
:102920000C945913CF92DF92EF92FF920F931F9363
:10293000CF93DF93EC017A018B016C01C40ED51E9D
:10294000CC15DD05A9F00E94CB128FE00E94C412C5
:102950008D2F0E94C4128C2F0E94C412219680E0F9
:102960000E94C412F80181938F010E94CD12E8CF1A
:10297000C701DF91CF911F910F91FF90EF90DF90F2
:10298000CF900895AF92BF92CF92DF92EF92FF92D5
:102990000F931F93CF93DF9300D0CDB7DEB75A8349
:1029A0004983590129813A8137706C01C60ED11CC7
:1029B000C60ED11CF60180859185820F931FA80158
:1029C000420F531F4130584098F0E0E0F8E07F019B
:1029D000E21AF30AA701B5010E949214A8014E1948
:1029E0005F09B5016E0D7F1DF6018085918502C0DE
:1029F000A801B5010F900F90DF91CF911F910F911A
:102A0000FF90EF90DF90CF90BF90AF900C94921416
:102A10008F929F92AF92BF92CF92DF92EF92FF92EE
:102A20000F931F93CF93DF936C01962E5A01790178
:102A3000802E68E270E0892D0E94B213C82FD0E08A
:102A400069E270E0892D0E94B213DC2FCC27C82BDD
:102A500087019501AE01692DC6010E94C214811043
:102A60001AC0CE0DDF1D4D2F68E270E0892D0E9447
:102A700059134C2F69E270E0892DDF91CF911F919E
:102A80000F91FF90EF90DF90CF90BF90AF909F900D
:102A90008F900C945913DF91CF911F910F91FF905C
:102AA000EF90DF90CF90BF90AF909F908F90089560
:102AB000CF93C62F61E070E08C2F0E94591361E024
:102AC00070E08C2F0E94B2138111F9CFCF9108953D
:102AD0000F93FC0130E080E092E1AAE7B0E04817F4
:102AE00059076A077B0740F4B695A7959795879590
:102AF0003F5F3630A1F737E091E09327222311F0B2
:102B000020E501C020E7892F86950C70082B022B49
:102B10000083917091830F91089520914E06222396
:102B200099F04FB7F89420914E06213059F42DB307
:102B300020934C063DB320914D06209523232DBBB9
:102B40004FBF02C040934C068CBD9DBD089580913F
:102B50004E06882361F09FB7F89420914E0680912D
:102B60004C06213019F48DBB9FBF08958FBF089587
:102B700090E0982F882744E050E0845F9B4F0C94AE
:102B8000631362E070E00C94B213CF93DF93C82F0D
:102B9000D62F472F64E070E00E9459134D2F65E057
:102BA00070E08C2FDF91CF910C945913462F62E087
:102BB00070E00C945913CF93DF93C82FD62F472F73
:102BC00060E170E00E9459134D2F61E170E08C2F9D
:102BD000DF91CF910C9459130F931F93CF93DF93F1
:102BE00000D01F92CDB7DEB7182F00E021E040E003
:102BF00059E06DE370E0CE0101960E94681589816D
:102C00009A810E948D1563E070E0812F0E94B213BB
:102C10008B830E94A7158B810F900F900F90DF91EF
:102C2000CF911F910F9108950F931F93CF93DF932F
:102C300000D0CDB7DEB7182F00E021E040E059E02A
:102C40006DE370E0CE0101960E94681589819A813A
:102C50000E948D1540E150E0612F80EC95E00E94CC
:102C600058156FEF812F0E94D6150E94A7150F905F
:102C70000F90DF91CF911F910F910895CF92DF9226
:102C8000EF92FF920F931F93CF93DF9300D0CDB7B6
:102C9000DEB79FEF960F9530C0F5F22E6A01E62E53
:102CA000182F0E94141600E021E040E059E06DE387
:102CB00070E0CE0101960E94681589819A810E9478
:102CC0008D154E2D4F2960E070E0812F0E94591321
:102CD000C114D10411F0B6010AC06091D005709101
:102CE000D1056F5F7F4F7093D1056093D005812F21
:102CF0000E94C51541E050E0612F80EC95E00E94F4
:102D000058150E94A71581E001C080E00F900F9038
:102D1000DF91CF911F910F91FF90EF90DF90CF90B7
:102D20000895AF92BF92CF92DF92EF92FF920F93EE
:102D30001F93CF93DF9300D0CDB7DEB7182F5B0181
:102D40006A0100E021E040E059E06DE370E0CE016F
:102D500001960E94681589819A810E948D15612FC4
:102D600080EC95E00E9406147C010097A1F463E0DA
:102D700070E0812F0E94B213843119F1882309F188
:102D800021E030E08C3111F420E030E0EE24FF242B
:102D9000E21AF30A16C0C816D9060CF476011E14FE
:102DA0001F047CF400E09701A501612F80EC95E001
:102DB0000E94081540E450E0612F80EC95E00E94ED
:102DC00058150E94A715C7010F900F90DF91CF9162
:102DD0001F910F91FF90EF90DF90CF90BF90AF9039
:102DE00008950F931F93CF93DF9300D000D0CDB7FA
:102DF000DEB7182F00E021E040E059E06DE370E01D
:102E0000CE0101960E94681589819A810E948D15D4
:102E1000612F80EC95E00E9406148B839C830E94B6
:102E2000A7158B819C810F900F900F900F90DF91D1
:102E3000CF911F910F910895EF92FF920F931F93DF
:102E4000CF93DF9300D0CDB7DEB7182F7B0100E022
:102E500021E040E059E06DE370E0CE0101960E9470
:102E6000681589819A810E948D1501E021E030E08A
:102E7000A701612F80EC95E00E9408150E94A7151C
:102E800081E090E00F900F90DF91CF911F910F9113
:102E9000FF90EF9008958F929F92AF92BF92DF9232
:102EA000EF92FF920F931F93CF93DF9300D0CDB794
:102EB000DEB7D82E5B014A01790100E021E040E055
:102EC00059E06DE370E0CE0101960E94681589819A
:102ED0009A810E948D156D2D80EC95E00E94D21391
:102EE0008E159F0530F46D2D80EC95E00E94D21375
:102EF0007C0187019401A5016D2D80EC95E00E9475
:102F000022140E94A715C7010F900F90DF91CF9157
:102F10001F910F91FF90EF90DF90BF90AF909F9027
:102F20008F900895CF92DF92EF92FF920F931F93AD
:102F3000CF93DF9300D0CDB7DEB7FB019081911125
:102F400009C09181911106C09281911103C09381B2
:102F5000992309F141155105F1F06A017F01182FFC
:102F600000E021E040E059E06DE370E0CE01019621
:102F70000E94681589819A810E948D15B701812F61
:102F80000E94B815B601812F0E94DB150E94A7157B
:102F900081E090E002C080E090E00F900F90DF9120
:102FA000CF911F910F91FF90EF90DF90CF900895F8
:102FB0000F931F93CF93DF9300D0CDB7DEB7182FB9
:102FC00000E021E040E059E06DE370E0CE010196C1
:102FD0000E94681589819A810E948D1540E250E017
:102FE000612F80EC95E00E945815812F0E94C11539
:102FF00084FD21C0812F0E94C11583FF09C068E1B3
:10300000812F0E94D6150E94A71580E090E01BC07A
:103010000E94A7150E94D10800E021E040E059E09D
:103020006DE370E0CE0101960E94681589819A8156
:103030000E948D15DACF60E1812F0E94D6150E9483
:10304000A71581E090E00F900F90DF91CF911F9135
:103050000F91089544E050E0BC0181E090E00C94B1
:10306000631344E050E0BC0185E090E00C946313EE
:1030700044E050E0BC018FE090E00C9463132F9289
:103080003F924F925F926F927F928F929F92AF92F8
:10309000BF92CF92DF92EF92FF920F931F93CF9345
:1030A000DF9300D000D000D0CDB7DEB76C011B019C
:1030B00029013A01470158018AED95E0F60197830D
:1030C000868380EC95E00E94F11280E590E00E94FA
:1030D0008D1546E050E0B10189E090E00E94631355
:1030E00000E020E040E060E0CE0101960E94C60CC6
:1030F000CE0103960E9438180E94A715850174011D
:10310000A3019201B101F601868197810E94DB271C
:103110008C010197B9F580E590E00E948D15F601CC
:1031200066817781CE0101960E941523CE01039618
:103130000E943818F60166817781CE0101960E94BF
:103140002B23CE0103960E942A18F601668177810F
:10315000CE0101960E942023CE0103960E943118D1
:103160000E94A715F60166817781CE0101960E9423
:1031700036238B819C81AD81BE81F601828393834E
:10318000A483B583C80126960FB6F894DEBF0FBEA0
:10319000CDBFDF91CF911F910F91FF90EF90DF9006
:1031A000CF90BF90AF909F908F907F906F905F90E7
:1031B0004F903F902F900895EF92FF920F931F939F
:1031C000CF93DF9300D000D000D0CDB7DEB7FC01A5
:1031D000268137812115310509F443C08C01C901CD
:1031E0000E941A287C01029721F084E0E816F1047D
:1031F000D1F580E590E00E948D15F8016681778118
:10320000CE0101960E941523CE0103960E94381824
:10321000F80166817781CE0101960E942B23CE01B1
:1032200003960E942A18F80166817781CE010196E3
:103230000E942023CE0103960E9431180E94A715F8
:10324000F80166817781CE0101960E9436238B8139
:103250009C81AD81BE81F80182839383A483B58371
:1032600002C0E12CF12CC70126960FB6F894DEBF00
:103270000FBECDBFDF91CF911F910F91FF90EF90C7
:103280000895CF93DF93EC010E94BC0C80E590E0A1
:103290000E948D15BE016E5F7F4F44E050E08FE0CD
:1032A00090E00E9492140E94A715CE01DF91CF9169
:1032B000089520E034E0FC0131832083FB0142814A
:1032C000538164817581FC014283538364837583D8
:1032D00008950F9300E020E040E060E080E496E095
:1032E0000E94C60C8DE196E00E94411282ED95E0AD
:1032F0000F910C94BC0CFB01428153816481758158
:10330000FC01428353836483758317821682089578
:10331000CF93DF93FB0120E080E090E0AAE03191C1
:10332000332301F160ED630F6A3080F4A89FB00190
:10333000A99F700D1124CB01C097830F911D37FDFC
:103340009A958F3F910559F350F313C03E3289F49B
:10335000233079F0EA01C20FD11D8A832F5F80E00C
:1033600090E0DDCF233029F4FA01858381E090E0FD
:1033700002C080E090E0DF91CF9108950F9300E0CC
:1033800020E040E060E086E496E00E94C60C0F91E9
:1033900008958F929F92AF92BF92CF92DF92EF9259
:1033A000FF920F931F93CF93DF9300D000D01F9213
:1033B000CDB7DEB78C016B010E942908F801778335
:1033C00066837627672776277A836983085F1F4F8E
:1033D00042E050E0BE016F5F7F4FC8010E94B51010
:1033E00081E090E09C838B8342E050E0BE016D5F02
:1033F0007F4FC8010E94B51080E091E09C838B83D1
:1034000042E050E0BE016D5F7F4FC8010E94B510E1
:103410001C821B8242E050E0BE016D5F7F4FC801FD
:103420000E94B51042E050E0BE016D5F7F4FC801C1
:103430000E94B51042E050E0BE016D5F7F4FC801B1
:103440000E94B5105601F5018081882329F1C6013B
:103450007C01FC0120810196211116C05701470112
:103460008C189D081814190494F48D8241E050E0E2
:10347000BE016B5F7F4FC8010E94B510A401B60169
:10348000C8010E94B51003C02E3211F7E7CF6701C3
:10349000FFEFCF1ADF0AD7CF1D8241E050E0BE0117
:1034A0006B5F7F4FC8010E94B510E12CFF24F3949D
:1034B000FC82EB8242E050E0BE016D5F7F4FC801AD
:1034C0000E94B510FC82EB8242E050E0BE016D5FCD
:1034D0007F4FC8010E94B51081E090E00F900F90DF
:1034E0000F900F900F90DF91CF911F910F91FF9050
:1034F000EF90DF90CF90BF90AF909F908F90089506
:103500004F925F926F927F928F929F92AF92BF92F3
:10351000CF92DF92EF92FF920F931F93CF93DF939F
:10352000CDB7DEB765970FB6F894DEBF0FBECDBF3F
:103530007C015B016A010E9429082B013C01870183
:10354000085F1F4F4501A12CB12CC8010E945711E3
:1035500018161906A4F00E942908DC01CB01841971
:103560009509A609B70988169906AA06BB06D0F0E0
:1035700062E370E080E090E00E945A08E6CFF70135
:103580004281538164817581808D918DA28DB38D2F
:10359000481759076A077B0741F4848D958DC597B5
:1035A00021F406C02FEF3FEFFDC02EEF3FEFFAC032
:1035B000C8010E9479100C97ECF04CE050E0BE017D
:1035C0006F5F7F4FC8010E94F2106C818B810E9457
:1035D00009239A8B898BF701E680F7806A818981BC
:1035E0000E940923E816F90641F489899A8997FF10
:1035F00004C009C02DEF3FEFD5C0C8010E94931051
:103600002CEF3FEFCFC08F709270892B31F0C80143
:103610000E9493102BEF3FEFC5C068858F810E94F9
:1036200009235C01892B31F4C8010E9493102AEF11
:103630003FEFB8C0E12CF12C6E818D810E940923EF
:10364000E816F90640F541E050E0BE01635F7F4FA8
:10365000C8010E94F2108D85811113C08D858111E2
:10366000F2CFC8010E94C910C8010E94C910C80148
:103670000E94C910C8010E94C910FFEFEF1AFF0A8B
:10368000DBCF8D859FEF980F9D87882339F3C80185
:103690000E94C910F6CFE12CF12C41E050E0BE01B0
:1036A0006D5E7F4FC8010E94F2108B89982F907C2D
:1036B00061F4882371F08B899FEF980F9B8B88238F
:1036C00041F0C8010E94C910F6CFC8010E94C9107C
:1036D0001B8A8B898111E1CF42E050E0BE01615F1E
:1036E0007F4FC8010E94F21042E050E0BE01635FCC
:1036F0007F4FC8010E94F210C8010E94C910C80182
:103700000E94C910C8010E94C910C8010E94C910B6
:1037100042E050E0BE016F5E7F4FC8010E94F21090
:103720008F8598898115914001F52D853E85322739
:103730002327322721303105C1F489899A898115DF
:10374000944031F0C8010E94931027EF3FEF2AC048
:10375000B6016E5F7F4F44E050E0C8012C8B3D8B7B
:103760000E94F2102C893D891DC0812C912C8989E1
:103770009A899827892798278816990638F4C801C6
:103780000E94C9108FEF881A980AF1CFEFEFEE1A56
:10379000FE0AEA14FB0409F080CFC8010E949310CE
:1037A00026EF3FEFC90165960FB6F894DEBF0FBE56
:1037B000CDBFDF91CF911F910F91FF90EF90DF90E0
:1037C000CF90BF90AF909F908F907F906F905F90C1
:1037D0004F9008958F929F92AF92BF92CF92DF92B7
:1037E000EF92FF920F931F93CF93DF9300D000D0FF
:1037F00000D0CDB7DEB77C014B015A010E94881979
:103800008C01892B09F05BC0F701428153816481EF
:1038100075818091480690914906A0914A06B09121
:103820004B06481759076A077B0709F44BC00E94EB
:1038300029086701F8E0CF0ED11C6F7077277C5FF5
:10384000C6010E942A11813009F03EC080E094E058
:103850009A838983F70182819381A481B5818B83C7
:103860009C83AD83BE8345E350E0BE016F5F7F4F15
:10387000C6010E94A910892B19F400E010E01BC0BA
:10388000B401C7010E94C919892BB9F3C6010E946E
:10389000B110892B91F383E0882E912CA50168E863
:1038A00073E1C7010E94801A8C01F1E08F1A910820
:1038B00011F0019699F3C6010E94941005C001E031
:1038C00010E002C00EEF1FEFC80126960FB6F89465
:1038D000DEBF0FBECDBFDF91CF911F910F91FF9043
:1038E000EF90DF90CF90BF90AF909F908F90089512
:1038F000CF93CFB7F89480914F06811127C0EAE9A2
:10390000F0E08491E6E8F0E09491E82FF0E0EE0F2B
:10391000FF1FE255FF4FA591B491EC91E92321F4EB
:1039200061E08AE00E94370961E08AE00E94FB08BA
:103930008CB580618CBD8CB580648CBD61E08DE000
:103940000E94FB0861E08BE00E94FB0880914F061B
:103950008F5F80934F06CFBFCF910895FC011482F3
:1039600015821682178208951F93CF93DF931F92BB
:10397000CDB7DEB7162FFC01608180E596E0498364
:103980000E941220612F80E596E00E94C91F4981A4
:10399000642F80E596E00E94C91F80E596E00F90B5
:1039A000DF91CF911F910C949B201F93CF93DF93B6
:1039B00000D0CDB7DEB7162FFC01608180E596E020
:1039C0004A8359830E941220612F80E596E00E946D
:1039D000C91F5981652F80E596E00E94C91F4A8161
:1039E000642F80E596E00E94C91F80E596E00F9065
:1039F0000F90DF91CF911F910C949B201F93CF9339
:103A0000DF93EC01162F688180E596E00E9412207A
:103A1000612F80E596E00E94C91F80E596E00E9434
:103A20009B2041E0688180E596E00E949520C8EEE9
:103A3000D3E080E596E00E946D1F1816190634F059
:103A4000209711F02197F5CF80E006C0CD2BE1F350
:103A500080E596E00E94751FDF91CF911F91089538
:103A60000F93CF93DF93EC01637041704295407FD9
:103A70002F70422B6295660F607E462B6EE10E948E
:103A8000B41C002321F0083018F007E001C001E069
:103A90008FEF800F61E070E002C0660F771F8A959C
:103AA000E2F7072E000C880B990B0E947E2C9B01DD
:103AB000AC0160E074E284EF99E40E94DB2B0E9489
:103AC0004D2C6C837D838E839F836FE1CE010E949A
:103AD000FE1C8F780295007F482F402B6FE1CE01AE
:103AE000DF91CF910F910C94B41C1F93CF93DF9370
:103AF000EC01162F688180E596E00E941220612F6C
:103B000080E596E00E94C91F80E596E00E949B2018
:103B100042E0688180E596E00E949520C0EDD7E004
:103B200080E596E00E946D1F02973CF4209711F00B
:103B30002197F6CF80E090E011C0CD2BD9F380E53E
:103B400096E00E94751FC82F80E596E00E94751FC1
:103B500020E030E03C2FA901482BCA01DF91CF9132
:103B60001F910895CF92DF92EF92FF920F931F93D0
:103B7000CF93DF938C01D62FF42E6EE00E94751D3B
:103B800041E050E09A0102C0220F331FDA95E2F7BC
:103B9000E9018095909582239323892B89F060E138
:103BA000C8010E94751DFF2021F0AC014C2B5D2B3C
:103BB00005C0C095D095AC014C235D2360E125C0C4
:103BC00066E0C8010E94751D6C0168E0C8010E9492
:103BD000751D9E0120953095FF2061F07C01E22249
:103BE000F322A6014C2B5D2B66E0C8010E94D51C78
:103BF000A7010AC0C82BD92BA6014223532366E094
:103C0000C8010E94D51CAE0168E0C801DF91CF91C8
:103C10001F910F91FF90EF90DF90CF900C94D51CE7
:103C20000C94B21DFF920F931F93CF93DF938C01DF
:103C3000F62E6EE00E94751DC1E0D0E002C0CC0FF0
:103C4000DD1FFA94E2F78C239D23892B49F060E174
:103C5000C8010E94751DC823D92381E0CD2B09F42A
:103C600080E0DF91CF911F910F91FF9008950C9408
:103C7000121ECF92DF92EF92FF920F931F93CF937A
:103C8000DF931F92CDB7DEB76C01162F60E029835A
:103C90000E94751D41E050E0BA0102C0660F771F17
:103CA0001A95E2F78B01AC01462B572B60E0C60159
:103CB0000E94D51C66E0C6010E94751D7801E09443
:103CC000F094AC014E215F2166E0C6010E94D51C34
:103CD0006EE0C6010E94751DAC014E215F216EE0B1
:103CE000C6010E94D51C6EE1C6010E94FE1C8F7D9C
:103CF000482F40646EE1C6010E94B41C6FE1C6010A
:103D00000E94FE1C2981482F222311F0486801C01F
:103D10004777F60184819581A681B781892B8A2B0B
:103D20008B2B49F480E894E8AEE1B0E0848395837E
:103D3000A683B78340616FE1C6010E94B41C60E2B4
:103D4000C6010E94751DAC01402B512B60E2C601DB
:103D50000E94D51C60E1C6010E94751DAC014E2178
:103D60005F2160E1C6010F90DF91CF911F910F910C
:103D7000FF90EF90DF90CF900C94D51C0F931F9382
:103D8000CF93DF93EC01162F042F6EE00E94751D78
:103D90009C01802F8D7F813059F041E050E0012E51
:103DA00002C0440F551F0A94E2F7422B532B0DC05B
:103DB000E1E0F0E0012E02C0EE0FFF1F0A94E2F7EF
:103DC000E095F095A9014E235F236EE0CE010E949D
:103DD000D51C023049F441E0612FCE01DF91CF9133
:103DE0001F910F910C94B21D033051F420E041E07B
:103DF000612FCE01DF91CF911F910F910C94391E4D
:103E0000DF91CF911F910F9108950C94BE1ECF9317
:103E1000DF93EC016FE10E94FE1C82FF06C0482F79
:103E20004B7F6FE1CE010E94B41C41E06B81CE015B
:103E30000E94BE1E40E06B81CE010E94B21D61E077
:103E400070E080E090E00E945A0841E06B81CE0172
:103E5000DF91CF910C94B21DCF93DF93662321F0B5
:103E6000DF91CF910C94071FEC0142E16DE70E94B6
:103E7000B41C44E36DE7CE01DF91CF910C94B41CE8
:103E80000F93CF93DF93EC0180E596E00E9408202A
:103E90008B818F3F21F0CE010E94071F04C060E09C
:103EA000CE010E942C1F63E1CE010E94751D811579
:103EB0009F4F49F401E020E040E062E0CE010E9423
:103EC000301D81E001C080E0DF91CF910F91089516
:103ED000FC01608343830C94401F8091800690E036
:103EE00020918106821B910908959091810680910D
:103EF0008006981750F4E92FF0E0EE57F94F208133
:103F000030E09F5F9093810602C02FEF3FEFC90121
:103F10000895E091810680918006E81730F4F0E082
:103F2000EE57F94F808190E008958FEF9FEF08954D
:103F30000895CF92DF92EF92FF920F931F93CF934A
:103F4000DF937C01262F972F8A0180915C068823BE
:103F500091F0C62FD72F6E01C40ED51ECC15DD05EE
:103F600071F06991D701ED91FC910190F081E02D04
:103F7000C7010995F3CF642F822F0E945E21C801EB
:103F8000DF91CF911F910F91FF90EF90DF90CF9035
:103F90000895CF93DF931F92CDB7DEB76983209149
:103FA0005C062223D1F020915D06203240F021E012
:103FB00030E0FC013383228380E090E015C08091E3
:103FC0005E06E82FF0E0E15AF94F998190838F5F08
:103FD00080935E0680935D0605C061E0CE01019688
:103FE0000E945E2181E090E00F90DF91CF910895D3
:103FF000FC011382128288EE93E0A0E0B0E084839B
:104000009583A683B7838EE294E09183808308959D
:10401000109281061092800610925E0610925D0644
:104020000C94A22081E080935C0660937F0610923E
:104030005E0610925D0608950C9412200F93062FD1
:1040400021E040915D066FE576E080917F060E9459
:10405000082110925E0610925D0610925C060F9188
:1040600008954F925F926F927F92AF92BF92CF92DC
:10407000EF92FF920F931F93CF93DF935C01F62E85
:10408000D42F28013901EE2021F10E941220CE2DDB
:10409000C43008F0C3E0C150C0F0D501ED91FC91EF
:1040A000B8E0CB9FC0011124A301920104C0569532
:1040B0004795379527958A95D2F7CA01B90101909E
:1040C000F081E02DC5010995E6CF60E0C5010E94B1
:1040D0001E204D2FD13208F040E22C2D62E876E010
:1040E0008F2D0E94C0201092810680938006DF9160
:1040F000CF911F910F91FF90EF90CF90BF90AF9015
:104100007F906F905F904F900895CF92EF920F93B2
:104110001F93C22EE12C00E010E098010E94312094
:104120001F910F91EF90CF90089521E00C9485207E
:1041300021E00C94852061E00C941E2080E596E03F
:104140000C94F81F10920F0781E080930D071092D6
:104150000C0761E082E10E94370961E083E10E947F
:104160003709E9EBF0E080818E7F808380818D7F4D
:10417000808388E48093B80085E48093BC00089530
:10418000413208F043C090910F079111FCCF91E0AC
:1041900090930F0720930D072FEF2093A206109204
:1041A000E706240F2093E60690930E0790910E07E2
:1041B000880F892B80930E0780910C07813061F462
:1041C00010920C0780910E078093BB008091BC0079
:1041D00083FDF8CF85EC01C085EE8093BC00809113
:1041E0000F078130E1F38091E706841710F44091C6
:1041F000E70628EE36E0FB01D9018A2F821B8417DF
:1042000018F48D918193F9CF842F089580E008955B
:104210000F93413208F04AC090910F079111FCCFE3
:1042200032E030930F0700930D073FEF3093A20663
:104230001092E7064093E606FB0168EE76E0DB01AC
:104240003A2F361B341718F431913D93F9CF109261
:104250000E0730910E07880F832B80930E078091F5
:104260000C07813061F410920C0780910E07809347
:10427000BB008091BC0083FDF8CF85EC01C085EECA
:104280008093BC00222321F080910F078230D1F36C
:104290008091A2068F3F79F08091A206803241F092
:1042A0008091A206803331F094E005C091E003C014
:1042B00092E001C093E0892F0F9108954091C406C8
:1042C000262F30E0240F311D21323105DCF42091FE
:1042D0000F072430C9F4FC0180E090E0861758F401
:1042E0003091C4062191DC01AA53B94FA30FB11D2F
:1042F0002C930196F3CF8091C406680F6093C40697
:1043000080E0089581E0089582E0089585ED80932E
:10431000BC008091BC0084FDFCCF10920F07089573
:1043200085EC8093BC0010920F0708951F920F92A6
:104330000FB60F9211242F933F934F935F936F9378
:104340007F938F939F93AF93BF93EF93FF9380914E
:10435000B900887F803609F49EC078F5883209F468
:104360005DC090F4803109F456C038F4882309F414
:10437000F5C0883009F44FC0F5C0883109F44EC04B
:10438000803209F45FC0EEC0803409F46AC058F48A
:10439000803309F457C0883309F0E4C08093A20643
:1043A0000E949021DFC0803509F44FC0883509F4A0
:1043B0005DC0883409F0D6C0D3C0883909F4C4C0C0
:1043C000A8F4883709F467C038F4883609F463C064
:1043D000803709F460C0C6C0883809F4B5C0803998
:1043E00009F45FC0803809F0BDC05BC0803B09F4B0
:1043F00083C038F4803A09F466C0883A09F47CC076
:10440000B1C0803C09F4A4C0883C09F4A1C0883B39
:1044100009F487C0A7C080910E0710C09091E706ED
:104420008091E606981770F5E091E70681E08E0F1F
:104430008093E706F0E0E851F94F80818093BB005C
:1044400085EC83C08093A2068BC0E091E70681E0F3
:104450008E0F8093E7068091BB00F0E0E851F94FA2
:1044600080839091E7068091E6066BC0E091E706B5
:1044700081E08E0F8093E7068091BB00F0E0E85169
:10448000F94F808380910D0781116AC081E080938C
:104490000C0784EA5EC083E080930F071092A306A6
:1044A000CFCF8091A306803208F04EC0E091A306E2
:1044B00081E08E0F8093A3068091BB00F0E0EC5565
:1044C000F94F8083BDCF0E9490218091A306803256
:1044D00030F4E091A306F0E0EC55F94F10826091C2
:1044E000A30670E0E0910807F091090784EA96E0DE
:1044F00009951092A30636C084E080930F071092AE
:10450000C5061092C406E0910A07F0910B070995C1
:104510008091C406811105C081E08093C406109289
:10452000C606E091C50681E08E0F8093C506F0E0D7
:10453000EA53F94F80818093BB009091C50680912A
:10454000C406981708F47CCF85E88093BC000AC0A5
:1045500085EC8093BC0010920F0704C01092A20655
:104560000E948621FF91EF91BF91AF919F918F9112
:104570007F916F915F914F913F912F910F900FBE5F
:104580000F901F901895CF93DF9300D000D0CDB738
:10459000DEB7611571058105910579F09B01AC01CC
:1045A00069833A834B835C830E94322A29813A8152
:1045B0004B815C810E94A92D03C060E070E0CB01BB
:1045C0000F900F900F900F90DF91CF910895CF92A1
:1045D000DF92EF92FF920F931F9362177307840786
:1045E000950784F489019A016B017C01C901B80126
:1045F0006C197D098E099F090E94C3226C0D7D1DD7
:104600008E1D9F1D1F910F91FF90EF90DF90CF9017
:10461000089570E09B01382BC90108950E9624E19E
:10462000FC0111922A95E9F70895CF93DF93EC01ED
:10463000625F7F4F0E94D20CCE01DF91CF9108952F
:10464000CF93DF93EC016E5E7F4F0E94D20CCE01C0
:10465000DF91CF910895CF93DF93EC016A5E7F4F96
:104660000E94D20CCE01DF91CF910895CF93DF93BA
:10467000EC01625E7F4F0E94D20CCE01DF91CF91A0
:10468000089580E3FB0180833296842F82958F709A
:1046900090E1899F401911244A3014F4405D01C013
:1046A000495C4293482F8111F0CF08950F9300E0A9
:1046B00020E040E060E080E197E00E94C60C0F91AE
:1046C00008957F928F929F92AF92BF92CF92DF9286
:1046D000EF92FF920F931F93CF93DF93CDB7DEB787
:1046E000AC970FB6F894DEBF0FBECDBF7C01762E1F
:1046F000942E852E20E2B22ECE0101966C01FC0193
:104700002B2D11922A95E9F70FEF2FEF4FEF6FEF57
:1047100086960E94C60C80E094E09AA389A389A59E
:104720009AA5ABA5BCA58BA39CA3ADA3BEA38701F3
:104730000D5B1F4F43E450E0BE016F5D7F4FC8012A
:104740000E94A910019609F4BFC081E089838A8381
:1047500086E0A82EAB821C82F70164817581868178
:1047600097810E94C82D6D837E838F839887898669
:104770009A8680E890E09C878B874CE150E0B601F8
:10478000C8010E94B510F6012B2D11922A95E9F768
:10479000470188E0880E911CF401D60101900D922A
:1047A000AA94E1F740E150E0B601C8010E94B510BB
:1047B000F6011192BA94E9F796E0A92EB12C40E2E5
:1047C00050E0B601C8010E94B510F1E0AF1AB1087F
:1047D000B1F783E6898392E89A8393E59B838C8380
:1047E00085E38D8381E08E837F829DE3988797E0C8
:1047F00099878A8786E0F401DE011B9601900D926D
:104800008A95E1F78CE0898B8A8B6CE374E0CE01AA
:1048100043960E942C2BF7014385BE01675E7F4FB4
:10482000C7010E944123F7014485BE01655E7F4FA9
:10483000C7010E944123F7014585BE01635E7F4F9A
:10484000C7010E9441234EE150E0B601C8010E9419
:10485000B510F3E07F121EC082E3898384E08A836F
:10486000F70196859B8397859C8390899D83918989
:104870009E8396E39F838887828D8987838D8A872D
:10488000848D8B87858D8C874CE050E0B601C80104
:104890000E94B51087E3898386E08A8391E09B8339
:1048A00093E09C838D838FE08E838AE38F838BE3F9
:1048B00088878FEF898749E050E0B601C8010E94E0
:1048C000B510C8010E94B110AC960FB6F894DEBFC7
:1048D0000FBECDBFDF91CF911F910F91FF90EF9051
:1048E000DF90CF90BF90AF909F908F907F90089572
:1048F0002F923F924F925F926F927F928F929F92F0
:10490000AF92BF92DF92EF92FF920F931F93CF93DC
:10491000DF93CDB7DEB7E4970FB6F894DEBF0FBED6
:10492000CDBF7C011A012B0139010E9429084B01DE
:104930005C0187010D5B1F4FC8010E9457111816BB
:104940001906A4F00E942908DC01CB0188199909F5
:10495000AA09BB09281639064A065B06F0F062E38D
:1049600070E080E090E00E945A08E6CF42E250E01A
:10497000BE016F5F7F4FC8010E94F21089818230B3
:1049800031F4F801848995898334910541F0D12C63
:10499000C8010E9493108D2D5FC18FEF5DC16D81A5
:1049A0007E818F8198850E94C82D4B015C01F301A7
:1049B000608371838283938346E050E0B701685F30
:1049C0007F4FCE014D960E940D2B892B99F4F70154
:1049D00080819181A281B38188169906AA06BB06BF
:1049E00048F084819581A681B78188159905AA052B
:1049F000BB0528F4C8010E94931080E02DC189896D
:104A00009A89AB89BC89F70186879787A08BB18B80
:104A10008EECA82EB12CC8010E94C910F1E0AF1A8B
:104A2000B108C9F7D12CC70182969AA789A7F701C7
:104A3000B696FCA7EBA708969EA78DA73C974F01BB
:104A4000899698AB8FA73897FAABE9AB1701F6E1D7
:104A50002F0E311CC5979CAB8BABC8010E947910FF
:104A6000181619060CF094CFC8010E94C9108333A0
:104A7000910509F4CBC0FCF481309105C9F11CF417
:104A8000892B59F3DDC083309105D1F1069709F0E8
:104A9000D7C0C8010E94C9105C0144E050E06BA976
:104AA0007CA9C8010E94F210412C512CBB24F4E0D7
:104AB000AF1AB10840C08A33910509F47BC03CF4B9
:104AC0008533910569F0C69709F440C0B9C08B33AE
:104AD000910509F485C08F3F910509F4BECFB0C0A0
:104AE000C8010E94C910C8010E94C910D82EB5CFB4
:104AF000C8010E94C91044E050E069A97AA93AC0EF
:104B0000C8010E94C9105C0144E050E0B101C80135
:104B10000E94F210412C512CBB2494E0A91AB10838
:104B20004A145B040CF099CFC8010E94C910EFEF42
:104B30004E1A5E0AF5CF4A145B040CF08ECFC80102
:104B40000E94C9108FEF481A580AF5CFC8010E9479
:104B5000C910B82EF701828D811110C0838D81118B
:104B60000DC0848D81110AC0858D811107C044E07C
:104B700050E0B401C8010E94F2106FCFEFA5F8A970
:104B80004080518062807380B401CE0183960E9480
:104B9000D20C8DA19EA1AFA1B8A584159505A6053F
:104BA000B70529F3BB2009F458CFC8010E94C910EA
:104BB000BA94F8CFC8010E94C91044E050E06BA538
:104BC0007CA5C8010E94F210F70166A177A180A51B
:104BD00091A50E94C82D66A377A380A791A73DCF7A
:104BE000C8010E94C91044E050E06DA57EA5C8012F
:104BF0000E94F210F70162A573A584A595A50E94F5
:104C0000C82D62A773A784A795A727CFC8010E94C4
:104C1000C91044E050E069A57AA5C8010E94F210CD
:104C2000F70162A173A184A195A10E94C82D62A37E
:104C300073A384A395A366A777A780AB91AB0DCF91
:104C4000C8010E94C910B82EBB2009F406CFC801C4
:104C50000E94C910BA94F8CFE4960FB6F894DEBF5C
:104C60000FBECDBFDF91CF911F910F91FF90EF90BD
:104C7000DF90BF90AF909F908F907F906F905F90EC
:104C80004F903F902F9008952F923F924F925F92B6
:104C90006F927F928F929F92AF92BF92CF92DF924C
:104CA000EF92FF920F931F93CF93DF93CDB7DEB7B1
:104CB00027970FB6F894DEBF0FBECDBF8C0120ED55
:104CC00037E040E050E061E070E080E090E00E947A
:104CD000E722D80114966D937D938D939C9317973B
:104CE000F80160837183828393835801F3E4AF0EEC
:104CF000B11CC5010E94941064E470E0C5010E94DB
:104D00002A11882309F43CC10E9429082B013C0187
:104D1000812C912C1D82C8018E5B9F4F9F838E83B7
:104D200043E0342E58EEC52E53E0D52EE12CF12C65
:104D300062E0262EAE81BF818C91833009F407C1D9
:104D4000811120C0F80184819581A681B7810196E7
:104D5000A11DB11D84839583A683B7830E94290872
:104D60006419750986099709A70196010E94872D84
:104D7000A90161E0C8010E94612381E0AE81BF8189
:104D80008C93C6C08430F9F4F80184819581A681A2
:104D9000B7810196A11DB11D84839583A683B78336
:104DA0000E9429086419750986099709A7019601C7
:104DB0000E94872DA90163E0C8010E946123AE8192
:104DC000BF812C92A5C0813061F5F80142AD53AD91
:104DD00064AD75AD9E012F5F3F4FC8010E947824DE
:104DE0008D83823009F094C089819A81AB81BC8126
:104DF000F80184839583A683B7830E9429086419E8
:104E0000750986099709A70196010E94872DA901B6
:104E100063E0C8010E946123ED81AE81BF81EC9304
:104E20007EC0823009F074C0D801DA964D915D9150
:104E30006D917C91DD979E012F5F3F4FC8010E94CD
:104E400078248D83853009F05CC0EE81FF8130824B
:104E5000F80182A193A1A4A1B5A1892B8A2B8B2B48
:104E600041F484E893E0A0E0B0E082A393A3A4A37C
:104E7000B5A3F80186A197A1A0A5B1A5892B8A2B7E
:104E80008B2B61F482A193A1A4A1B5A1B695A7959E
:104E90009795879586A397A3A0A7B1A7F80182A5A8
:104EA00093A5A4A5B5A5892B8A2B8B2BA9F482A148
:104EB00093A1A4A1B5A1AC01BD0123E076956795AE
:104EC000579547952A95D1F7841B950BA60BB70BE1
:104ED00082A793A7A4A7B5A7F80186A197A1A0A52B
:104EE000B1A586A797A7A0ABB1AB82A593A5A4A5B2
:104EF000B5A582AB93ABA4ABB5AB88248394912CBE
:104F00000EC0FD81F63021F4AE81BF811C9207C036
:104F1000BD81BF3F21F4EE81FF8110821D82F1E04F
:104F20008F16910409F406CF0E942908DC01CB01F9
:104F300084199509A609B709F80126A937A940AD32
:104F400051AD281739074A075B0708F0F3CEC501B2
:104F50000E949410F80184819581A681B781019601
:104F6000A11DB11D84839583A683B7830E94290860
:104F7000F801FE966083718382839383C40102C02B
:104F800080E090E027960FB6F894DEBF0FBECDBF4D
:104F9000DF91CF911F910F91FF90EF90DF90CF9015
:104FA000BF90AF909F908F907F906F905F904F9049
:104FB0003F902F900895CF92DF92EF92FF920F9340
:104FC0001F93CF93DF93EC016B011AA21BA21CA2CB
:104FD0001DA21EA21FA218A619A61AA61BA61CA6D1
:104FE0001DA62EAB3FAB48AF59AFEAAEFBAE0CAF40
:104FF0001DAF8C01085F1F4F86E0F80111928A9562
:10500000E9F7CE010E940E2386E0F601D801019057
:105010000D928A95E1F7FE01EE5BFF4F1082CE0103
:10502000DF91CF911F910F91FF90EF90DF90CF9084
:105030000C944426CF92DF92EF92FF920F931F932E
:10504000CF93DF93EC010E9429086B017C018E0154
:10505000025C1F4FF80180819181A281B381A70179
:105060009601281B390B4A0B5B0BCA01B901683E3C
:1050700033E073078105910508F441C028EE33E061
:1050800040E050E00E94872DC61AD70AE80AF90AC4
:10509000F801C082D182E282F3828EA59FA5A8A9E1
:1050A000B9A969017A01CC0CDD1CEE1CFF1C8C1522
:1050B0009D05AE05BF0528F41EA61FA618AA19AAAD
:1050C00008C0821B930BA40BB50B8EA79FA7A8ABA0
:1050D000B9AB8AA99BA9ACA9BDA98C159D05AE0544
:1050E000BF0528F41AAA1BAA1CAA1DAA08C0821B65
:1050F000930BA40BB50B8AAB9BABACABBDAB8EA536
:105100009FA5A8A9B9A9892B8A2B8B2B69F4FE012D
:10511000EE5BFF4F8081833039F484E08083CE01E1
:105120000E944426019602C080E090E04AA95BA953
:105130006CA97DA9452B462B472B81F4FE01EE5B24
:10514000FF4F2081233011F0211108C01082CE01C1
:105150000E940E23CE010E9444260396DF91CF9138
:105160001F910F91FF90EF90DF90CF900895CF9314
:10517000DF938230910510F482E090E0E09118070F
:10518000F091190720E030E0C0E0D0E0309711F155
:105190004081518148175907C0F04817590761F4F9
:1051A00082819381209719F09B838A832BC09093EF
:1051B00019078093180726C02115310519F04217E9
:1051C000530718F49A01BE01DF01EF010280F38159
:1051D000E02DDCCF2115310509F1281B390B2430D6
:1051E000310590F412968D919C911397611571057C
:1051F00021F0FB019383828304C09093190780936D
:105200001807FD01329644C0FD01E20FF31F8193A0
:105210009193225031092D933C933AC02091160767
:1052200030911707232B41F42091020130910301A3
:105230003093170720931607209100013091010148
:105240002115310541F42DB73EB74091040150912D
:105250000501241B350BE0911607F0911707E217A3
:10526000F307A0F42E1B3F0B2817390778F0AC0189
:105270004E5F5F4F2417350748F04E0F5F1F509366
:105280001707409316078193919302C0E0E0F0E086
:10529000CF01DF91CF9108950F931F93CF93DF93A9
:1052A000009709F48CC0FC0132971382128200919E
:1052B0001807109119070115110581F4208131811A
:1052C000820F931F2091160730911707281739076F
:1052D00079F5F0931707E093160771C0D80140E005
:1052E00050E0AE17BF0750F412962D913C911397E2
:1052F000AD012115310509F1D901F3CF9D01DA0185
:105300003383228360817181860F971F82179307F1
:1053100069F4EC0128813981260F371F2E5F3F4F3A
:10532000318320838A819B8193838283452B29F457
:10533000F0931907E093180742C01396FC93EE937D
:105340001297ED01499159919E01240F351FE217E3
:10535000F30771F480819181840F951F0296119655
:105360009C938E938281938113969C938E93129734
:10537000E0E0F0E0D80112968D919C911397009790
:1053800019F0F8018C01F6CF8D919C9198012E5F58
:105390003F4F820F931F2091160730911707281750
:1053A000390769F4309729F41092190710921807F9
:1053B00002C0138212821093170700931607DF9121
:1053C000CF911F910F9108958F929F92AF92BF92AC
:1053D000CF92DF92EF92FF92CF93DF93EC0168813F
:1053E00079818A819B81611571058105910521F47F
:1053F00064E279ED8BE597E02DE133EF41E050E099
:105400000E94A92D49015A019B01AC01A7EAB1E410
:105410000E94CF2D6B017C01ACEEB4EFA50194018D
:105420000E94DD2DDC01CB018C0D9D1DAE1DBF1D2D
:10543000B7FF03C00197A109B04888839983AA8365
:10544000BB83BC01CD019F77DF91CF91FF90EF909F
:10545000DF90CF90BF90AF909F908F9008950E9463
:10546000E429089586E091E00E94E429089560937C
:105470000601709307018093080190930901089534
:10548000A0E0B0E0E6E4FAE20C94E62DEC0100972F
:1054900021F4CB010E94B728B8C0FC01E60FF71F2A
:1054A0009C0122503109E217F30708F4ACC0D9017E
:1054B0000D911C91119706171707B0F005301105D3
:1054C00008F49FC0C80104978617970708F499C08D
:1054D00002501109061B170B019311936D937C93D6
:1054E000CF010E944C298DC05B01A01AB10A4C016A
:1054F000800E911EA0911807B091190740E050E06E
:10550000E12CF12C109709F44AC0A815B905D1F582
:105510006D907C901197630182E0C80ED11CCA1473
:10552000DB0480F1A3014A195B096A0182E0C80E1D
:10553000D11C1296BC9012971396AC91B5E0CB1685
:10554000D10440F0B282A38351834083D9016D938B
:105550007C930AC00E5F1F4FC301800F911FF9019A
:1055600091838083EB2DFA2FE114F10431F0D70100
:105570001396FC93EE93129744C0F0931907E093AF
:1055800018073FC08D919C9111974817590708F44F
:10559000AC017D0112960D90BC91A02DB3CF8091EE
:1055A00016079091170788159905E1F446175707D4
:1055B000C8F48091000190910101009741F48DB7EA
:1055C0009EB74091040150910501841B950BE8178B
:1055D000F907C8F4F0931707E0931607F9017183F0
:1055E00060830FC0CB010E94B7287C01009759F05F
:1055F000A801BE010E941A2BCE010E944C29C701AE
:1056000004C0CE0102C080E090E0CDB7DEB7EEE08E
:105610000C94022EF8940C94442EFB01DC0104C07F
:105620008D910190801921F441505040C8F7881B9A
:10563000990B0895FB01DC0102C001900D924150CD
:105640005040D8F70895FB01DC018D91019080193D
:105650000110D9F3990B0895FB01DC0101900D9223
:105660000020E1F708954532510520F4423010F052
:105670000C943E2BFB011082CB010895BB274A30CE
:1056800031F4992322F4BDE2909581959F4F0C94BB
:10569000552B4532510520F4423010F00C94542B18
:1056A000FB011082CB010895BB27FB015527AA27D8
:1056B000880F991FAA1FA41710F0A41B839550519F
:1056C000B9F7A05DAA3308F0A95DA193009779F717
:1056D000B111B1931192CB010C94772D5058BB2787
:1056E000AA270E94862B0C94D02C0E94C22C38F042
:1056F0000E94C92C20F039F49F3F19F426F40C9431
:10570000BF2C0EF4E095E7FB0C94B92CE92F0E9416
:10571000E12C58F3BA17620773078407950720F046
:1057200079F4A6F50C94032D0EF4E0950B2EBA2F08
:10573000A02D0B01B90190010C01CA01A001112497
:10574000FF27591B99F0593F50F4503E68F11A1643
:10575000F040A22F232F342F4427585FF3CF4695D4
:1057600037952795A795F0405395C9F77EF41F16F6
:10577000BA0B620B730B840BBAF09150A1F0FF0FC0
:10578000BB1F661F771F881FC2F70EC0BA0F621FAC
:10579000731F841F48F4879577956795B795F7959C
:1057A0009E3F08F0B0CF9395880F08F09927EE0F31
:1057B0009795879508950E94EF2B0C94D02C0E940A
:1057C000C92C58F00E94C22C40F029F45F3F29F008
:1057D0000C94B92C51110C94042D0C94BF2C0E94E4
:1057E000E12C68F39923B1F3552391F3951B550BE5
:1057F000BB27AA2762177307840738F09F5F5F4FA4
:10580000220F331F441FAA1FA9F335D00E2E3AF0E2
:10581000E0E832D091505040E695001CCAF72BD0FA
:10582000FE2F29D0660F771F881FBB1F261737074B
:105830004807AB07B0E809F0BB0B802DBF01FF277D
:1058400093585F4F3AF09E3F510578F00C94B92C75
:105850000C94042D5F3FE4F3983ED4F3869577953E
:105860006795B795F7959F5FC9F7880F911D969536
:10587000879597F90895E1E0660F771F881FBB1F92
:10588000621773078407BA0720F0621B730B840B3F
:10589000BA0BEE1F88F7E09508950E94E92C88F076
:1058A0009F5798F0B92F9927B751B0F0E1F0660FE4
:1058B000771F881F991F1AF0BA95C9F714C0B13025
:1058C00091F00E94032DB1E008950C94032D672FF1
:1058D000782F8827B85F39F0B93FCCF38695779554
:1058E0006795B395D9F73EF490958095709561953D
:1058F0007F4F8F4F9F4F0895E89409C097FB3EF468
:1059000090958095709561957F4F8F4F9F4F99230C
:10591000A9F0F92F96E9BB279395F695879577958A
:105920006795B795F111F8CFFAF4BB0F11F460FF4A
:105930001BC06F5F7F4F8F4F9F4F16C0882311F0A2
:1059400096E911C0772321F09EE8872F762F05C0B6
:10595000662371F096E8862F70E060E02AF09A9551
:10596000660F771F881FDAF7880F9695879597F946
:10597000089597F99F6780E870E060E008959FEFD1
:1059800080EC089500240A941616170618060906D6
:10599000089500240A9412161306140605060895A5
:1059A000092E0394000C11F4882352F0BB0F40F42D
:1059B000BF2B11F460FF04C06F5F7F4F8F4F9F4F6D
:1059C000089557FD9058440F551F59F05F3F71F0EF
:1059D0004795880F97FB991F61F09F3F79F0879556
:1059E0000895121613061406551FF2CF4695F1DFDF
:1059F00008C0161617061806991FF1CF869571056F
:105A0000610508940895E894BB2766277727CB01A2
:105A100097F908950E941D2D0C94D02C0E94C22C41
:105A200038F00E94C92C20F0952311F00C94B92C69
:105A30000C94BF2C11240C94042D0E94E12C70F3C3
:105A4000959FC1F3950F50E0551F629FF001729F23
:105A5000BB27F00DB11D639FAA27F00DB11DAA1F32
:105A6000649F6627B00DA11D661F829F2227B00D7F
:105A7000A11D621F739FB00DA11D621F839FA00D0A
:105A8000611D221F749F3327A00D611D231F849F5A
:105A9000600D211D822F762F6A2F11249F575040B1
:105AA0009AF0F1F088234AF0EE0FFF1FBB1F661F2C
:105AB000771F881F91505040A9F79E3F510580F0F5
:105AC0000C94B92C0C94042D5F3FE4F3983ED4F36E
:105AD000869577956795B795F795E7959F5FC1F799
