:100000000C9466000C948E000C948E000C948E0060
:100010000C948E000C948E000C94090F0C948E009E
:100020000C948E000C948E000C948E000C948E0018
:100030000C948E000C948E000C948E000C948E0008
:100040000C942A070C948E000C94EC090C941E0A54
:100050000C948E000C948E000C948E000C948E00E8
:100060000C947C200C948E0000000008000201001B
:100070000003040700000000000000000102040863
:100080001020408001020408102001020408102002
:10009000040404040404040402020202020203032E
:1000A0000303030300000000250028002B000000CC
:1000B0000000240027002A0090004E0A380C020F8E
:1000C00004124F18A418841F3C22EE0011241FBEF6
:1000D000CFEFD8E0DEBFCDBF14E0A0E0B1E0E4E3B5
:1000E000F9E502C005900D92A03AB107D9F727E0D3
:1000F000A0EAB4E001C01D92A237B207E1F710E018
:10010000C5E6D0E004C02197FE010E94622CCC35E8
:10011000D107C9F70E947C0A0C9453290C94000063
:100120000F9300E020E040E060E08EE595E00E9463
:10013000110C01E021E041E06AE088E595E00E94D1
:10014000110C8DE395E00E948C1182E295E00E94F3
:100150008C1187E095E00E948C116AED71E081EED0
:1001600094E00E94B10C87ED94E00E94941B86ED10
:1001700094E00E946F0E85ED94E00E946F0E84ED76
:1001800094E00E946F0E8CEC94E00E94880DE0EAEF
:10019000F4E0148215821682178280E090E0A6ECCB
:1001A000B2EC80879187A287B38784879587A687DB
:1001B000B787808B918BA28BB38B848B958BA68B0F
:1001C000B78B808F918FA28FB38F148E158E168E62
:1001D000178E10A211A212A20F91089581EE94E041
:1001E0000C94430C0F931F93CF93DF9300D000D058
:1001F00000D0CDB7DEB78C014091100150911101B4
:100200008DE594E09A83898380915A0590915B05EE
:10021000A0915C05B0915D058B839C83AD83BE830B
:10022000BE016F5F7F4F87E095E00E94F40FB80139
:1002300087E095E00E94F50887E095E00E94FC0FBA
:1002400026960FB6F894DEBF0FBECDBFDF91CF91DB
:100250001F910F9108958F929F92AF92BF92CF926C
:10026000DF92EF92FF920F931F93CF93DF9300D013
:1002700000D000D0CDB7DEB760E47FE180E196E04A
:100280000E94800F0E9474074B015C0126E040E051
:1002900051EE60E070E08DE695E00E94600B6CE14D
:1002A00071E08DE695E00E941A0960E082E00E940C
:1002B000820861E082E00E94460860E082E00E94DD
:1002C000820860E088E00E94820861E088E00E9485
:1002D000460860E088E00E94820860E089E00E94B1
:1002E000820861E089E00E94460860E089E00E949F
:1002F000820861E083E00E94820861E083E00E945E
:10030000460861E083E00E94820861E085E00E9487
:10031000820861E085E00E94460861E085E00E9475
:10032000820861E086E00E94820861E086E00E9427
:10033000460861E086E00E94820861E087E00E9452
:10034000820861E087E00E94460861E087E00E9441
:10035000820861E084E00E94820861E084E00E94FB
:10036000460861E084E00E94820891E0E92E95E071
:10037000F92E67010091DF041091E004C8010E948A
:10038000772CD6018D936D010F5F1F4F1093E00402
:100390000093DF04B7E0CB16B5E0DB0659F7E5ECD8
:1003A000F4E0D7018D917D018193B7E0EB16B5E0C4
:1003B000FB06B9F710EAE12E1FE0F12E00E010E095
:1003C00020E63AEE40E050E061E075E08AE296E037
:1003D0000E948A17892B61F46CE271E08DE695E04A
:1003E0000E941A0960E177E280E090E00E94A50790
:1003F0006AE671E08DE695E00E941A096AE276E00D
:10040000CE0101960E942718BE016F5F7F4F8DE6D7
:1004100095E00E942C0960911401709115018DE303
:1004200095E00E947510609112017091130182E2B3
:1004300095E00E947510609110017091110187E0A4
:1004400095E00E9475106CED75E080E090E00E94F0
:10045000A50769E771E0CE0101960E94B10CCE01BB
:1004600001960E94F200CE0101960E94430C6AE8B8
:1004700071E0CE0101960E94B10CCE0101960E945E
:10048000F200CE0101960E94430C4AE060910705FC
:10049000CE0101960E94DD0CCE0101960E94F20071
:1004A000CE0101960E94430C6BEA71E0CE010196E9
:1004B0000E94B10CCE0101960E94F200CE0101967D
:1004C0000E94430C4AE060910105CE0101960E9412
:1004D000DD0CCE0101960E94F200CE0101960E9431
:1004E000430C4AE060910205CE0101960E94DD0CAA
:1004F000CE0101960E94F200CE0101960E94430CAB
:100500004AE060910305CE0101960E94DD0CCE0108
:1005100001960E94F200CE0101960E94430C4AE02F
:1005200060910405CE0101960E94DD0CCE0101967A
:100530000E94F200CE0101960E94430C4AE06091B5
:100540000505CE0101960E94DD0CCE0101960E94A8
:10055000F200CE0101960E94430C4AE0609106052C
:10056000CE0101960E94DD0CCE0101960E94F200A0
:10057000CE0101960E94430C80910E0190910F01D3
:100580000E94772C682F70E080E090E00E94C52ADE
:100590006093A0047093A1048093A2049093A30499
:1005A0006EEB71E08DE695E00E9403096EEB71E061
:1005B000CE0101960E94B10CCE0101960E94F2007C
:1005C000CE0101960E94430C00E010E06FEC71E058
:1005D0008DE695E00E9403094AE050E0B8018DE6FF
:1005E00095E00E94D10969ED71E08DE695E00E94E9
:1005F00003096BED71E08DE695E00E940309C801E7
:100600000E94772C4AE050E0682F8DE695E00E942A
:10061000E50969ED71E08DE695E00E9403096FEC54
:1006200071E0CE0101960E94B10CCE0101960E94AC
:10063000F200CE0101960E94430C4AE0B801CE01BF
:1006400001960E940A0DCE0101960E94F200CE0191
:1006500001960E94430C6BED71E0CE0101960E9461
:10066000B10CCE0101960E94F200CE0101960E94CB
:10067000430CC8010E94772C4AE0682FCE010196F6
:100680000E94DD0CCE0101960E94F200CE0101967F
:100690000E94430C0F5F1F4F0830110509F096CFE1
:1006A0004FEF6EE387ED94E00E944E1E882309F41D
:1006B000F9C062EE71E08DE695E00E941A0962EEE3
:1006C00071E0CE0101960E94B10CCE0101960E940C
:1006D000F200CE0101960E94430C40E060E087EDFD
:1006E00094E00E94EB1D40E060E087ED94E00E9402
:1006F000F61C40E061E087ED94E00E94EB1D40E0D5
:1007000061E087ED94E00E94F61C40E062E087ED36
:1007100094E00E94EB1D40E062E087ED94E00E94CF
:10072000F61C40E063E087ED94E00E94EB1D40E0A2
:1007300063E087ED94E00E94F61C40E064E087ED02
:1007400094E00E94EB1D40E064E087ED94E00E949D
:10075000F61C40E065E087ED94E00E94EB1D40E070
:1007600065E087ED94E00E94F61C40E066E087EDCE
:1007700094E00E94EB1D40E066E087ED94E00E946B
:10078000F61C40E067E087ED94E00E94EB1D40E03E
:1007900067E087ED94E00E94F61C40E068E087ED9A
:1007A00094E00E94EB1D40E068E087ED94E00E9439
:1007B000F61C40E069E087ED94E00E94EB1D40E00C
:1007C00069E087ED94E00E94F61C40E06AE087ED66
:1007D00094E00E94EB1D40E06AE087ED94E00E9407
:1007E000F61C40E06BE087ED94E00E94EB1D40E0DA
:1007F0006BE087ED94E00E94F61C41E06CE087ED31
:1008000094E00E94EB1D41E06DE087ED94E00E94D2
:10081000EB1D41E06EE087ED94E00E94EB1D41E0AE
:100820006FE087ED94E00E94EB1D00E010E0602F88
:1008300087ED94E00E941D1D002E01C0880F0A94D0
:10084000EAF72091C304822B8093C3040F5F1F4FEC
:100850000830110561F708E010E0602F87ED94E0A3
:100860000E941D1D002E01C0880F0A94EAF72091F6
:10087000C404822B8093C4040F5F1F4F0F301105F7
:1008800061F76091C30480910C0190910D010E9469
:100890007F2C6091C40480910A0190910B010E9409
:1008A0007F2C14C069EF71E08DE695E00E941A0973
:1008B00069EF71E0CE0101960E94B10CCE01019664
:1008C0000E94F200CE0101960E94430C0E94740720
:1008D0006B017C0163E172E0CE0101960E94B10CD4
:1008E000CE0101960E94F200CE0101960E94430CB7
:1008F000B601681979094AE0CE0101960E94360DC9
:10090000CE0101960E94F200CE0101960E94430C96
:1009100026960FB6F894DEBF0FBECDBFDF91CF9104
:100920001F910F91FF90EF90DF90CF90BF90AF900D
:100930009F908F900895CF93DF9300D000D000D088
:10094000CDB7DEB769E272E08DE695E00E941A0944
:1009500069E272E0CE0101960E94B10CCE010196CF
:100960000E94F200CE0101960E94430C64EF71E0F8
:1009700080E090E00E94A50760E084E00E94820889
:1009800026960FB6F894DEBF0FBECDBFDF91CF9194
:100990000895CF93DF93CDB7DEB72C970FB6F894B9
:1009A000DEBF0FBECDBF48E150E067EE74E08DE3DF
:1009B00095E00E943D1067EE74E0CE0107960E941C
:1009C000B10C60E472E0CE0107960E94620D8823AC
:1009D00059F065E472E08DE695E00E941A0980E125
:1009E00096E00E94130F28C166E572E0CE010796DB
:1009F0000E94620D882341F061E082E00E9482083B
:100A000081E08093BC0418C163E672E0CE010796D2
:100A10000E94620D882339F060E082E00E94820823
:100A20001092BC0409C161E772E0CE0107960E94F2
:100A3000620D882371F06DE772E08DE695E00E940B
:100A40001A0960E083E00E94820881E08093BF047D
:100A5000F3C069E872E0CE0107960E94620D882318
:100A600069F066E972E08DE695E00E941A0961E09E
:100A700083E00E9482081092BF04DEC063EA72E045
:100A8000CE0107960E94620D882371F06FEA72E032
:100A90008DE695E00E941A0960E085E00E948208D8
:100AA00081E08093C004C8C06BEB72E0CE01079672
:100AB0000E94620D882369F068EC72E08DE695E093
:100AC0000E941A0961E085E00E9482081092C00429
:100AD000B3C065ED72E0CE0107960E94620D8823D7
:100AE00071F061EE72E08DE695E00E941A0960E017
:100AF00086E00E94820881E08093C1049DC06DEE73
:100B000072E0CE0107960E94620D882369F06AEFB9
:100B100072E08DE695E00E941A0961E086E00E948D
:100B200082081092C10488C067E073E0CE01079686
:100B30000E94620D882371F063E173E08DE695E019
:100B40000E941A0960E087E00E94820881E0809399
:100B5000C20472C06FE173E0CE0107960E94620D7D
:100B6000882369F06CE273E08DE695E00E941A0933
:100B700061E087E00E9482081092C2045DC069E3D0
:100B800073E0CE0107960E94620D882341F061E078
:100B900088E00E94820881E08093BD044DC060E43B
:100BA00073E0CE0107960E94620D882339F060E061
:100BB00088E00E9482081092BD043EC068E473E0A1
:100BC000CE0107960E94620D882371F06FE473E0F6
:100BD0008DE695E00E941A0961E089E00E94820892
:100BE00081E08093BE0428C066E573E0CE010796DD
:100BF0000E94620D882339F060E089E00E9482083B
:100C00001092BE0419C06EE573E0CE0107960E94F3
:100C1000620D882319F00E949B040EC064E673E005
:100C2000CE0101960E94B10CCE0101960E94F20005
:100C3000CE0101960E94430C88E1E7EEF4E0DF016B
:100C40001D928A95E9F7CE0107960E94430C2C96D7
:100C50000FB6F894DEBF0FBECDBFDF91CF910895E0
:100C6000CF93DF9300D000D000D0CDB7DEB70E9485
:100C700074076BE186ED94E00E94C30E882369F04F
:100C800086ED94E00E94E50E6093A8047093A90499
:100C90008093AA049093AB0412C06FE773E08DE6D3
:100CA00095E00E941A0980E090E0A6ECB2EC8093F7
:100CB000A8049093A904A093AA04B093AB046AE19A
:100CC00085ED94E00E94C30E882369F085ED94E0E1
:100CD0000E94E50E6093AC047093AD048093AE0463
:100CE0009093AF0412C065E973E08DE695E00E9431
:100CF0001A0980E090E0A6ECB2EC8093AC049093EB
:100D0000AD04A093AE04B093AF0468E184ED94E029
:100D10000E94C30E882369F084ED94E00E94E50EE2
:100D20006093B0047093B1048093B2049093B304C1
:100D300012C06BEA73E08DE695E00E941A0980E02C
:100D400090E0A6ECB2EC8093B0049093B104A09331
:100D5000B204B093B3048CEC94E00E949F0D8823FE
:100D6000C9F08CEC94E00E94CD0D6093B4047093B4
:100D7000B5048093B6049093B7048CEC94E00E9481
:100D80001E0E6093B8047093B9048093BA049093D4
:100D9000BB041AC061EC73E08DE695E00E941A096D
:100DA00080E090E0A6ECB2EC8093B4049093B5049C
:100DB000A093B604B093B7048093B8049093B90499
:100DC000A093BA04B093BB040E94740728EE33E0EA
:100DD00040E050E00E94D02BCA01B9010E94C52A10
:100DE0006093A4047093A5048093A6049093A70431
:100DF00064ED73E0CE0101960E94B10CCE01019624
:100E00000E94F200CE0101960E94430C65E274E05C
:100E10008DE695E00E941A098DE395E00E94A210EC
:100E2000909300058093FF041816190614F40E948D
:100E3000C9040E94740760ED77E080E090E00E94B2
:100E4000A50726960FB6F894DEBF0FBECDBFDF9183
:100E5000CF9108951F920F920FB60F9211242F93E6
:100E60003F938F939F93AF93BF938091650590912C
:100E70006605A0916705B09168053091640523E08F
:100E8000230F2D3720F40196A11DB11D05C026E8C2
:100E9000230F0296A11DB11D209364058093650563
:100EA00090936605A0936705B093680580916905E6
:100EB00090916A05A0916B05B0916C050196A11DFA
:100EC000B11D8093690590936A05A0936B05B0935B
:100ED0006C05BF91AF919F918F913F912F910F9092
:100EE0000FBE0F901F9018952FB7F894609165056D
:100EF0007091660580916705909168052FBF0895F0
:100F00003FB7F8948091690590916A05A0916B05AF
:100F1000B0916C0526B5A89B05C02F3F19F001962E
:100F2000A11DB11D3FBFBA2FA92F982F8827820F6F
:100F3000911DA11DB11DBC01CD0142E0660F771FBF
:100F4000881F991F4A95D1F708958F929F92AF926B
:100F5000BF92CF92DF92EF92FF926B017C010E94D1
:100F600080074B015C01C114D104E104F10401F1DB
:100F70000E941C080E948007DC01CB018819990996
:100F8000AA09BB09883E9340A105B10560F321E0A1
:100F9000C21AD108E108F10888EE880E83E0981E95
:100FA000A11CB11CC114D104E104F10419F7DBCF79
:100FB000FF90EF90DF90CF90BF90AF909F908F9079
:100FC0000895789484B5826084BD84B5816084BDC1
:100FD00085B5826085BD85B5816085BDEEE6F0E0B2
:100FE000808181608083E1E8F0E01082808182600E
:100FF0008083808181608083E0E8F0E0808181608F
:101000008083E1EBF0E0808184608083E0EBF0E0BE
:10101000808181608083EAE7F0E080818460808362
:10102000808182608083808181608083808180680C
:1010300080831092C10008950895833081F028F4D0
:10104000813099F08230A1F008958730A9F088307E
:10105000B9F08430D1F4809180008F7D03C08091FD
:1010600080008F7780938000089584B58F7702C0C9
:1010700084B58F7D84BD08958091B0008F7703C0C3
:101080008091B0008F7D8093B0000895CF93DF935F
:1010900090E0FC01E458FF4F2491FC01E057FF4F22
:1010A0008491882361F190E0880F991FFC01E2553B
:1010B000FF4FC591D491FC01EC55FF4FA591B49120
:1010C000611109C09FB7F894888120958223888395
:1010D000EC912E230BC0623061F49FB7F8943881F5
:1010E000822F809583238883EC912E2B2C939FBF96
:1010F00006C08FB7F894E8812E2B28838FBFDF912D
:10110000CF9108951F93CF93DF93282F30E0F901FB
:10111000E859FF4F8491F901E458FF4FD491F90148
:10112000E057FF4FC491CC23C9F0162F81110E94C4
:101130001D08EC2FF0E0EE0FFF1FEC55FF4FA591BF
:10114000B4918FB7F894111105C09C91ED2FE095E3
:10115000E92302C0EC91ED2BEC938FBFDF91CF918F
:101160001F91089580E090E00895CF92DF92EF9272
:10117000FF920F931F93CF93DF936C017A018B0142
:10118000C0E0D0E0CE15DF0589F0D8016D918D016A
:10119000D601ED91FC910190F081E02DC6010995F9
:1011A000892B11F47E0102C02196ECCFC701DF919B
:1011B000CF911F910F91FF90EF90DF90CF90089506
:1011C0006115710579F0FB0101900020E9F7319775
:1011D000AF01461B570BDC01ED91FC910280F381BE
:1011E000E02D099480E090E00895DC01ED91FC9100
:1011F000DB0114964D915C9115976D917C91028065
:10120000F381E02D09940C94E008DC01ED91FC9150
:101210000190F081E02D0994DB01ED91FC91119793
:101220000190F081E02DBC01CD01099468E374E0E8
:101230000C94E0080F931F93CF93DF93EC010E946F
:10124000E0088C01CE010E941609800F911FDF91EA
:10125000CF911F910F9108950F931F93CF93DF9319
:10126000EC010E940C098C01CE010E941609800F2E
:10127000911FDF91CF911F910F9108954F925F922F
:101280006F927F92EF92FF920F931F93CF93DF9312
:10129000CDB7DEB7A1970FB6F894DEBF0FBECDBFB6
:1012A0007C01FA01CB0119A2223008F42AE08E0158
:1012B0000F5D1F4F422E512C612C712CBF01A301D9
:1012C00092010E94D02BF901CA01015011096A3024
:1012D00014F4605D01C0695CD8016C93232B242B4E
:1012E000252B61F7B801C7010E94E008A1960FB64F
:1012F000F894DEBF0FBECDBFDF91CF911F910F914C
:10130000FF90EF907F906F905F904F900895CF92F5
:10131000DF92EF92FF920F931F93CF93DF93EC0135
:101320006A017B012115310579F4E881F981019089
:10133000F081E02D642FDF91CF911F910F91FF90ED
:10134000EF90DF90CF9009942A303105E9F477FFD0
:101350001AC06DE20E9405098C0144275527BA0185
:101360004C195D096E097F092AE0CE010E943E09F1
:10137000800F911FDF91CF911F910F91FF90EF9000
:10138000DF90CF9008952AE0B701A601CE01DF914A
:10139000CF911F910F91FF90EF90DF90CF900C9421
:1013A0003E099A01AB01770F660B770B0C94870906
:1013B0002115310541F4DC01ED91FC910190F081A2
:1013C000E02D642F09940C943E099A01462F50E0B9
:1013D00060E070E00C94D8091F920F920FB60F9244
:1013E00011242F938F939F93EF93FF93E0917D05AB
:1013F000F0917E058081E0918305F091840582FD66
:1014000012C09081809186058F5F8F732091870530
:10141000821751F0E0918605F0E0E359FA4F958F7D
:101420008093860501C08081FF91EF919F918F91FC
:101430002F910F900FBE0F901F9018951F920F9233
:101440000FB60F9211242F933F934F935F936F9397
:101450007F938F939F93AF93BF93EF93FF938DE60B
:1014600095E00E94D60AFF91EF91BF91AF919F91B5
:101470008F917F916F915F914F913F912F910F903D
:101480000FBE0F901F9018958DE695E00E948B0A75
:1014900021E0892B09F420E0822F0895EDE6F5E0A4
:1014A0001382128288EE93E0A0E0B0E084839583FB
:1014B000A683B7838BE494E09183808385EC90E0EE
:1014C0009587848784EC90E09787868780EC90E00E
:1014D000918B808B81EC90E0938B828B82EC90E0FF
:1014E000958B848B86EC90E0978B868B118E128E79
:1014F000138E148E089508950E94E1070E947B0ABE
:101500000E942B01C8ECDAE00E9430062097E1F33C
:101510000E94C80AF9CFFC01918D228D892F90E09D
:10152000805C9F4F821B91098F7399270895FC015E
:10153000918D828D981731F0828DE80FF11D858D88
:1015400090E008958FEF9FEF0895FC01918D828DBB
:10155000981761F0828DDF01A80FB11D5D968C9107
:10156000928D9F5F9F73928F90E008958FEF9FEF12
:101570000895FC01538D448D252F30E0842F90E099
:10158000821B930B541710F0CF960895019708957E
:1015900084E49AE0892B49F080E090E0892B29F0DF
:1015A0000E94440A81110C9400000895FC01848D6E
:1015B000DF01A80FB11DA35ABF4F2C91848D90E07D
:1015C00001968F739927848FA689B7892C93A08958
:1015D000B1898C9180648C93938D848D981306C00F
:1015E0000288F389E02D80818F7D80830895CF93D9
:1015F000DF93EC01888D8823C9F0EA89FB8980811B
:1016000085FD05C0A889B9898C9186FD0FC00FB6EC
:1016100007FCF5CF808185FFF2CFA889B9898C912D
:1016200085FFEDCFCE010E94D60AE7CFDF91CF91A3
:101630000895EF92FF920F931F93CF93DF93EC01E6
:1016400081E0888F9B8D8C8D981305C0E889F9897E
:10165000808185FD24C0F62E0B8D10E00F5F1F4F9B
:101660000F731127E02E8C8DE8120CC00FB607FC0B
:10167000FACFE889F989808185FFF5CFCE010E94F4
:10168000D60AF1CF8B8DFE01E80FF11DE35AFF4F13
:10169000F0820B8FEA89FB898081806207C0EE8926
:1016A000FF896083E889F98980818064808381E093
:1016B00090E0DF91CF911F910F91FF90EF900895EF
:1016C000CF92DF92EF92FF921F93CF93DF93EC01C3
:1016D0006A017B01122FE889F98982E08083411534
:1016E000514E61057105B1F060E079E08DE390E065
:1016F000A70196010E94D02BDA01C9010197A10927
:10170000B109B695A79597958795AC01411580E1EC
:101710005807A8F0E889F989108260E874E88EE13A
:1017200090E0A70196010E94D02BBA01A901415077
:101730005109610971097695679557954795EC852B
:10174000FD855083EE85FF854083188EEC89FD89E9
:101750001083EA89FB89808180618083EA89FB8923
:10176000808188608083EA89FB89808180688083AA
:10177000EA89FB8980818F7D8083DF91CF911F91E2
:10178000FF90EF90DF90CF9008958F929F92AF924D
:10179000BF92CF92DF92EF92FF920F931F93CF935E
:1017A000DF937C018B016C0182E0C80ED11C4701E4
:1017B000E5E08E0E911CC0E0D0E0F60161916F0172
:1017C0004AE050E0C8010E94E5095C016EE2C801F0
:1017D0000E9405098A0D9B1DC80FD91FC814D90482
:1017E00061F74AE050E0F7016581C8010E94E50910
:1017F0008C0F9D1FDF91CF911F910F91FF90EF9064
:10180000DF90CF90BF90AF909F908F9008952DE57F
:1018100034E0FC013183208312821382148215820A
:1018200008950F93FC018DE594E09183808362839A
:101830004383248305830F9108952DE534E0FC0153
:1018400031832083FB014081518162817381FC01DE
:1018500042835383648375830895FB0140815181E2
:1018600062817381FC01428353836483758308958D
:10187000EAE0F6E08DE594E09183808312821382A2
:10188000148215820895FC01808191810C94952722
:10189000CF93DF93EC0188819981009711F00E942A
:1018A0009527198218821D821C821B821A82DF9161
:1018B000CF9108950F931F93CF93DF93EC018B018A
:1018C0006F5F7F4F888199810E948928009731F04E
:1018D000998388831B830A8381E001C080E0DF91C4
:1018E000CF911F910F910895CF93DF93EC018881E1
:1018F0009981892B29F08A819B818617970760F44B
:10190000CE010E945A0C882341F08C819D81892B45
:1019100019F4E881F981108281E0DF91CF91089577
:10192000EF92FF920F931F93CF93DF93EC017B0114
:101930008A01BA010E94740C811104C0CE010E9478
:10194000480C07C01D830C83B701888199810E94D0
:101950007529CE01DF91CF911F910F91FF90EF90EC
:101960000895FC0111821082138212821582148262
:101970006115710551F0FB0101900020E9F73197E5
:10198000AF01461B570B0C94900C0895CF93DF9337
:10199000EC016115710559F0FB0101900020E9F798
:1019A0003197AF01461B570B0E94900C02C00E945A
:1019B000480CCE01DF91CF9108950F931F93CF93E1
:1019C000DF93CDB7DEB729970FB6F894DEBF0FBE11
:1019D000CDBF8C01862FF8011182108213821282F2
:1019E0001582148250E0BE016F5F7F4F90E00E942D
:1019F0009229BE016F5F7F4FC8010E94C60C2996D5
:101A00000FB6F894DEBF0FBECDBFDF91CF911F910F
:101A10000F9108950F931F93CF93DF93CDB7DEB748
:101A200062970FB6F894DEBF0FBECDBF8C01CB011D
:101A3000F80111821082138212821582148250E002
:101A4000BE016F5F7F4F0E947C29BE016F5F7F4F99
:101A5000C8010E94C60C62960FB6F894DEBF0FBE96
:101A6000CDBFDF91CF911F910F9108950F931F93D9
:101A7000CF93DF93CDB7DEB761970FB6F894DEBF93
:101A80000FBECDBF8C01CB01F801118210821382F1
:101A900012821582148250E0BE016F5F7F4F0E9458
:101AA0009229BE016F5F7F4FC8010E94C60C6196EC
:101AB0000FB6F894DEBF0FBECDBFDF91CF911F915F
:101AC0000F910895FC0124813581232B31F421E00D
:101AD00061157105A1F0FB0108C0FC0180819181B5
:101AE0006115710531F421E0FC018081882339F012
:101AF00005C00E946C2921E0892B09F020E0822F8B
:101B00000895DC01ED91FC910190F081E02D0994A4
:101B1000089560E470E088EA96E00E94021F6EEF8C
:101B200070E088EA96E00E94810D88EA96E00E94C3
:101B3000811F6FE070E080E090E00C94A507CF93E8
:101B4000DF93EC0188EA96E00E94EE1ECE010E942F
:101B5000890D60E470E088EA96E00E94021F67EE5B
:101B600070E088EA96E00E94810D88EA96E00E9483
:101B7000811F41E050E060E470E088EA96E00E9456
:101B80007E1F88EA96E00E945B1E21E0029709F022
:101B900020E0822FDF91CF910895CF93DF9360E40F
:101BA00070E088EA96E00E94021F63EE70E088EA27
:101BB00096E00E94810D88EA96E00E94811F62E310
:101BC00070E080E090E00E94A50743E050E060E410
:101BD00070E088EA96E00E947E1F88EA96E00E9404
:101BE000531E892BD1F388EA96E00E945B1ED82F02
:101BF00080E0C82F88EA96E00E945B1EC82BD92B94
:101C000088EA96E00E945B1EBE0180E090E00E94A0
:101C1000C52A22E538EB4FE253E40E94532B20E023
:101C200030E040E857E30E94532B26E636E64BE3CC
:101C300052E40E94B729DF91CF910895CF93DF93AB
:101C400060E470E088EA96E00E94021F65EE70E0B2
:101C500088EA96E00E94810D88EA96E00E94811F42
:101C600062E370E080E090E00E94A50743E050E06E
:101C700060E470E088EA96E00E947E1F88EA96E0C1
:101C80000E94531E892BD1F388EA96E00E945B1EC6
:101C9000D82F80E0C82F88EA96E00E945B1EC82BF0
:101CA000D92B88EA96E00E945B1EBE0180E090E09E
:101CB0000E94C52A20E030E04AEF52E40E94532BF4
:101CC00020E030E040E857E30E94532B20E030E072
:101CD00040EC50E40E94B729DF91CF910895089518
:101CE0001F93CF93DF9300D0CDB7DEB7162FFC0143
:101CF000608188EA96E04A8359830E94F81E612F2A
:101D000088EA96E00E94AF1E5981652F88EA96E026
:101D10000E94AF1E4A81642F88EA96E00E94AF1E9F
:101D200088EA96E00F900F90DF91CF911F910C946D
:101D3000811F1F93CF93DF93EC01162F688188EAF0
:101D400096E00E94F81E612F88EA96E00E94AF1E7E
:101D500088EA96E00E94811F42E0688188EA96E066
:101D60000E947B1F88EA96E00E945B1ED82F80E0CD
:101D7000C82F88EA96E00E945B1E8C2B9D2BDF917A
:101D8000CF911F910895CF93DF93EC01688388EA88
:101D900096E00E94EE1E66E0CE010E94990E843508
:101DA000910511F080E00EC067E0CE010E94990E0F
:101DB00081159440B9F740E050E061E0CE010E9407
:101DC000700E81E0DF91CF910895CF93DF9365E0AE
:101DD0000E94990EEC01BC017F7080E090E00E94AF
:101DE000C52A20E030E040E85DE30E94532BD4FF99
:101DF00006C020E030E040E853E40E94B729DF91BC
:101E0000CF9108958FEF9FEF909311068093100666
:101E100008951F920F920FB60F9211240F900FBECC
:101E20000F901F901895A8950895DA01F901603474
:101E30008FE178071CF46115710539F489E090E0B1
:101E40008D939C9380E49FE158C0603A8FE07807BF
:101E50003CF088E090E08D939C9380EA9FE04DC039
:101E6000603D87E078073CF087E090E08D939C939D
:101E700080ED97E042C0683E83E078073CF086E062
:101E800090E08D939C9388EE93E037C0643F81E0AF
:101E900078073CF085E090E08D939C9384EF91E08F
:101EA0002CC06A3F71053CF084E090E08D939C93D8
:101EB0008AEF90E022C0683771053CF083E090E043
:101EC0008D939C9388E790E018C06C3371053CF0CB
:101ED00082E090E08D939C938CE390E00EC06E3195
:101EE00071053CF081E090E08D939C938EE190E051
:101EF00004C01D921C928FE090E09183808308952E
:101F00000F931F93CF93DF9300D0CDB7DEB78C0133
:101F10009E012F5F3F4FAC010E94150FF801808199
:101F200083FD02C098E001C098E28770892B98E198
:101F30000FB6F894A895909360000FBE8093600050
:101F400089819A810F900F90DF91CF911F910F910E
:101F50000895DC01ED91FC91048CF58DE02D099440
:101F60002DE534E0FC0131832083FB014089518958
:101F700062897389FC014283538364837583089566
:101F8000FC01848995890895FC01818D928D0895C5
:101F9000CF93DF931F92CDB7DEB76983DC01ED915C
:101FA000FC910280F381E02D41E050E0BE016F5FC3
:101FB0007F4F09950F90DF91CF9108950895CF93AA
:101FC000DF93EC01888D843061F00E945F15E88D0D
:101FD000F0E0EE0FFF1FE057F94F1182108284E00E
:101FE000888FDF91CF910895FC01178A168A6E5F62
:101FF0007F4F808D0C94DD16FC01808D0C9423178F
:10200000CF93DF93EC019A018E899F89AB01BC01CC
:10201000888D0E9496162E893F89280F391F3F8B85
:102020002E8BDF91CF9108950F931F93CF93DF9362
:102030001F92CDB7DEB7FC01218D328D232B61F0CD
:102040008C0141E050E0BE016F5F7F4F808D0E94A8
:10205000DC15181619061CF08FEF9FEF08C0F80169
:10206000818D928D0197928F818F898190E00F9061
:10207000DF91CF911F910F910895CF93DF93FC01D2
:10208000218D328D2115310519F48FEF9FEF11C08D
:10209000EC014217530708F0A901888D0E94DC1556
:1020A0001816190694F7298D3A8D281B390B3A8F8B
:1020B000298FDF91CF910895CF93DF931F92CDB7F2
:1020C000DEB7FC01218D328D232B49F0BE016F5FFD
:1020D0007F4F808D0E946716898190E002C08FEF4C
:1020E0009FEF0F90DF91CF910895EF92FF921F9392
:1020F000CF93DF93FC01208D243011F080E01CC0D1
:102100007B01EC0110E0812F0E943715811102C084
:10211000188F05C08831E1F31F5F1430A1F7888D57
:10212000843061F3FD86EC861A8E198E20E0A701BB
:1021300062E00E94891581E0DF91CF911F91FF90AD
:10214000EF9008950F931F93CF93DF93CDB7DEB732
:1021500028970FB6F894DEBF0FBECDBF8C01F801F3
:10216000818D928D892B49F0D801ED91FC910284EB
:10217000F385E02DC8010995F2CF808D0E943C16B1
:102180001816190654F548E050E0BE016F5F7F4F06
:10219000D80158968C910E94DC159C0118161906DE
:1021A000D4F4BE016F5F7F4FC8010E960E942D0CC4
:1021B0008D8190E0982F88272E81820F911DF80144
:1021C000958B848B2F8130E0322F22278885280F32
:1021D000311D328F218FC90102C080E090E0289626
:1021E0000FB6F894DEBF0FBECDBFDF91CF911F9128
:1021F0000F9108958F929F92AF92BF92CF92DF92EC
:10220000EF92FF920F931F93CF93DF9300D000D0F4
:1022100000D0CDB7DEB7FC01208D243009F068C0B6
:102220006A017B018C0153E0852E54E0952EA12C90
:10223000B12CC4010E94DD12811103C0F801A08EEF
:102240000AC08831D9F3FFEFAF1ABF0A9394E4E0D4
:10225000AE16B10471F7F801808D843009F448C0DE
:1022600096E0E6E1F1E0DE01119601900D929A957B
:10227000E1F7F70193819F779C8394819D839581FA
:102280009E83B7016E5F7F4F90E0982F882744E0D0
:1022900050E0845F9B4F0E94AE12F801E08CF12C5D
:1022A000F4E0EF0EF11CFE2CEE246D2DC7014096DC
:1022B0000E941A126C2DC70141960E941A12F80151
:1022C000808D90E0982F882746E050E0BE016F5F38
:1022D0007F4F8A5F9B4F0E94AE12F801128E118EC3
:1022E00020E8A60162E0808D0E94891581E001C08E
:1022F00080E026960FB6F894DEBF0FBECDBFDF910B
:10230000CF911F910F91FF90EF90DF90CF90BF90F2
:10231000AF909F908F900895CF93DF93EC011B8235
:102320001A8288EE93E0A0E0B0E08C839D83AE83B8
:10233000BF8383E694E099838883CE010E960E9442
:10234000070C84E0888FDF91CF910895CF92DF92C0
:10235000EF92FF920F931F93CF93DF93CDB7DEB72A
:10236000AF970FB6F894DEBF0FBECDBF8C016B01E7
:102370007A01CE0101960E94070CCE0109960E94B7
:102380008C11CE018A960E94070C6AE276E0CE019B
:1023900084960E943F18BE016C5D7F4FCE0101966E
:1023A0000E946118AE01465D5F4FB601CE010196F5
:1023B0000E94D01A81309105C1F4D801ED91FC91B1
:1023C0000488F589E02D8DE594E09DA38CA38CA570
:1023D0009DA5AEA5BFA58EA39FA3A8A7B9A7A7013A
:1023E000BE016C5D7F4FC8010995AF960FB6F8949A
:1023F000DEBF0FBECDBFDF91CF911F910F91FF9038
:10240000EF90DF90CF9008950F9300E020E040E040
:1024100060E082E196E00E94110C0F9108958EBD5C
:1024200000000DB407FEFDCF8EB508952A980895DB
:102430002A9A08951F93CF93DF9300D0CDB7DEB7CC
:10244000182F6A8399830E94161280EF0E940F1240
:102450009981892F0E940F12812F0E940F126A8189
:10246000862F0E940F120E94181281E00F900F9089
:10247000DF91CF911F910895CF93DF93EC016CE230
:1024800071E080E090E00E94A5070E945E1B229A06
:102490008091A606882399F02FB7F8948091A6061C
:1024A000813059F48DB38093A4069DB38091A50625
:1024B000809589238DBB2FBF02C02093A40680E5A1
:1024C0008CBD1DBC60E880E090E00E941A1265E5BA
:1024D0008BE190E00E941A1265E58AE190E00E948B
:1024E0001A128091A606882351F09FB7F894209184
:1024F000A6068091A406213029F58DBB9FBF80E000
:1025000090E49983888380E090E69987888780E0CB
:1025100098E49B838A8380E098E69B878A8780E0A3
:1025200090E59D838C8380E090E79D878C8780E099
:1025300098E59F838E8380E098E79F878E87DF9161
:10254000CF9108958FBFDBCF9B0190E00496982F29
:102550008827642F820F931F0C941A12CF92DF9258
:10256000EF92FF920F931F93CF93DF93EC017A01C9
:102570008B016C01C40ED51ECC15DD05A1F00E94A7
:10258000161280EF0E940F128D2F0E940F128C2FB7
:102590000E940F122196F80181918F010E940F1263
:1025A0000E941812E9CFC701DF91CF911F910F91BF
:1025B000FF90EF90DF90CF9008951F93CF93DF931C
:1025C0001F92CDB7DEB7182F99830E9416128FE0A5
:1025D0000E940F129981892F0E940F12812F0E9451
:1025E0000F1280E00E940F1289830E9418128981C5
:1025F0000F90DF91CF911F91089590E00496982F4E
:102600008827860F971F0C94DD121F93CF93DF93BB
:10261000182F60E270E00E94FD12C82FD0E061E246
:1026200070E0812F0E94FD12DC2FCC279E01282B09
:10263000C901DF91CF911F910895FF920F931F93CE
:10264000CF93DF93F62EC0E0D0E08F2D0E940513CC
:102650008C01892B21F08F2D0E940513EC01C017EE
:10266000D10799F7CE01DF91CF911F910F91FF9084
:1026700008951F93CF93DF93182F66E270E00E94B6
:10268000FD12C82FD0E067E270E0812F0E94FD129A
:10269000DC2FCC279E01282BC901DF91CF911F9100
:1026A0000895FF920F931F93CF93DF93F62EC0E010
:1026B000D0E08F2D0E9439138C01892B21F08F2DB2
:1026C0000E943913EC01C017D10799F7CE01DF91B1
:1026D000CF911F910F91FF9008956F927F928F92EB
:1026E0009F92AF92BF92CF92DF92EF92FF920F93A1
:1026F0001F93CF93DF931F92CDB7DEB7882E962E10
:102700006A01590164E270E0892D99830E94FD12EB
:10271000E82EF12C65E270E0892D0E94FD12FE2C5E
:10272000EE24E82A37016C0C7D1CA3015770E82CBD
:102730009981F92EE90CF11CE90CF11CF70180815B
:102740009181840F951F9A01200F311F213038404D
:1027500098F060E078E06B01C41AD50AA601B501D3
:102760000E94AE12A8014C195D09B5016C0D7D1DCA
:10277000F7018081918102C0A801B5010E94AE12CB
:10278000060D171D412F64E270E0892D0E94A412EE
:10279000402F65E270E0892D0F90DF91CF911F915E
:1027A0000F91FF90EF90DF90CF90BF90AF909F90F0
:1027B0008F907F906F900C94A412CF92DF92EF9243
:1027C000FF920F931F93CF93DF93EC017A018B015C
:1027D0006C01C40ED51ECC15DD05A9F00E941612A1
:1027E0008FE00E940F128D2F0E940F128C2F0E94DB
:1027F0000F12219680E00E940F12F80181938F0141
:102800000E941812E8CFC701DF91CF911F910F915D
:10281000FF90EF90DF90CF900895AF92BF92CF924C
:10282000DF92EF92FF920F931F93CF93DF9300D02D
:10283000CDB7DEB75A834983590129813A81377070
:102840006C01C60ED11CC60ED11CF6018085918587
:10285000820F931FA801420F531F4130584098F038
:10286000E0E0F8E07F01E21AF30AA701B5010E9457
:10287000DD13A8014E195F09B5016E0D7F1DF6012C
:102880008085918502C0A801B5010F900F90DF915E
:10289000CF911F910F91FF90EF90DF90CF90BF905D
:1028A000AF900C94DD138F929F92AF92BF92CF9214
:1028B000DF92EF92FF920F931F93CF93DF936C0100
:1028C000962E5A017901802E68E270E0892D0E94CF
:1028D000FD12C82FD0E069E270E0892D0E94FD1240
:1028E000DC2FCC27C82B87019501AE01692DC601CD
:1028F0000E940D1481101AC0CE0DDF1D4D2F68E20D
:1029000070E0892D0E94A4124C2F69E270E0892D9D
:10291000DF91CF911F910F91FF90EF90DF90CF90BB
:10292000BF90AF909F908F900C94A412DF91CF91A5
:102930001F910F91FF90EF90DF90CF90BF90AF90DD
:102940009F908F900895CF93C62F61E070E08C2FF9
:102950000E94A41261E070E08C2F0E94FD12811190
:10296000F9CFCF9108950F93FC0130E080E092E120
:10297000AAE7B0E0481759076A077B0740F4B69505
:10298000A795979587953F5F3630A1F737E091E09F
:102990009327222311F020E501C020E7892F869597
:1029A0000C70082B022B0083917091830F91089576
:1029B0002091A606222399F04FB7F8942091A606FD
:1029C000213059F42DB32093A4063DB32091A506E0
:1029D000209523232DBB4FBF02C04093A4068CBD7E
:1029E0009DBD08958091A606882361F09FB7F89455
:1029F0002091A6068091A406213019F48DBB9FBFBB
:102A000008958FBF089590E0982F882744E050E004
:102A1000845F9B4F0C94AE1262E070E00C94FD1248
:102A2000CF93DF93C82FD62F472F64E070E00E942A
:102A3000A4124D2F65E070E08C2FDF91CF910C94A4
:102A4000A412462F62E070E00C94A412CF93DF939F
:102A5000C82FD62F472F60E170E00E94A4124D2F9F
:102A600061E170E08C2FDF91CF910C94A4120F9351
:102A70001F93CF93DF9300D01F92CDB7DEB7182FEF
:102A800000E021E040E059E06DE370E0CE01019606
:102A90000E94B31489819A810E94D81463E070E087
:102AA000812F0E94FD128B830E94F2148B810F9064
:102AB0000F900F90DF91CF911F910F9108950F9379
:102AC0001F93CF93DF9300D0CDB7DEB7182F00E070
:102AD00021E040E059E06DE370E0CE0101960E94F4
:102AE000B31489819A810E94D81440E150E0612F8B
:102AF00088E196E00E94A3146FEF812F0E942115B8
:102B00000E94F2140F900F90DF91CF911F910F91BF
:102B10000895CF92DF92EF92FF920F931F93CF937E
:102B2000DF9300D0CDB7DEB79FEF960F9530C0F59D
:102B3000F22E6A01E62E182F0E945F1500E021E0B8
:102B400040E059E06DE370E0CE0101960E94B314BD
:102B500089819A810E94D8144E2D4F2960E070E03F
:102B6000812F0E94A412C114D10411F0B6010AC031
:102B700060912806709129066F5F7F4F7093290638
:102B800060932806812F0E94101541E050E0612FCC
:102B900088E196E00E94A3140E94F21481E001C033
:102BA00080E00F900F90DF91CF911F910F91FF90D8
:102BB000EF90DF90CF900895AF92BF92CF92DF92C7
:102BC000EF92FF920F931F93CF93DF9300D0CDB777
:102BD000DEB7182F5B016A0100E021E040E059E018
:102BE0006DE370E0CE0101960E94B31489819A8151
:102BF0000E94D814612F88E196E00E9451137C0155
:102C00000097A1F463E070E0812F0E94FD128431EF
:102C100019F1882309F121E030E08C3111F420E032
:102C200030E0EE24FF24E21AF30A16C0C816D906D3
:102C30000CF476011E141F047CF400E09701A5013A
:102C4000612F88E196E00E94531440E450E0612F28
:102C500088E196E00E94A3140E94F214C7010F902D
:102C60000F90DF91CF911F910F91FF90EF90DF9028
:102C7000CF90BF90AF9008950F931F93CF93DF93A2
:102C800000D000D0CDB7DEB7182F00E021E040E043
:102C900059E06DE370E0CE0101960E94B314898182
:102CA0009A810E94D814612F88E196E00E94511306
:102CB0008B839C830E94F2148B819C810F900F90D8
:102CC0000F900F90DF91CF911F910F910895EF9288
:102CD000FF920F931F93CF93DF9300D0CDB7DEB752
:102CE000182F7B0100E021E040E059E06DE370E047
:102CF000CE0101960E94B31489819A810E94D81452
:102D000001E021E030E0A701612F88E196E00E9418
:102D100053140E94F21481E090E00F900F90DF9125
:102D2000CF911F910F91FF90EF9008958F929F92F6
:102D3000AF92BF92DF92EF92FF920F931F93CF93C8
:102D4000DF9300D0CDB7DEB7D82E5B014A01790101
:102D500000E021E040E059E06DE370E0CE01019633
:102D60000E94B31489819A810E94D8146D2D88E144
:102D700096E00E941D138E159F0530F46D2D88E19D
:102D800096E00E941D137C0187019401A5016D2D21
:102D900088E196E00E946D130E94F214C7010F9023
:102DA0000F90DF91CF911F910F91FF90EF90DF90E7
:102DB000BF90AF909F908F900895CF92DF92EF9247
:102DC000FF920F931F93CF93DF9300D0CDB7DEB761
:102DD000FB019081911109C09181911106C09281EE
:102DE000911103C09381992309F141155105F1F027
:102DF0006A017F01182F00E021E040E059E06DE317
:102E000070E0CE0101960E94B31489819A810E94DC
:102E1000D814B701812F0E940315B601812F0E949B
:102E200026150E94F21481E090E002C080E090E05C
:102E30000F900F90DF91CF911F910F91FF90EF9026
:102E4000DF90CF9008950F931F93CF93DF9300D01F
:102E5000CDB7DEB7182F00E021E040E059E06DE388
:102E600070E0CE0101960E94B31489819A810E947C
:102E7000D81440E250E0612F88E196E00E94A3144C
:102E8000812F0E940C1584FD21C0812F0E940C15FA
:102E900083FF09C068E1812F0E9421150E94F2146E
:102EA00080E090E01BC00E94F2140E941C0800E029
:102EB00021E040E059E06DE370E0CE0101960E9410
:102EC000B31489819A810E94D814DACF60E1812FEE
:102ED0000E9421150E94F21481E090E00F900F9063
:102EE000DF91CF911F910F91089544E050E0BC0114
:102EF00081E090E00C94AE1244E050E0BC0185E02B
:102F000090E00C94AE1244E050E0BC018FE090E001
:102F10000C94AE122F923F924F925F926F927F92DB
:102F20008F929F92AF92BF92CF92DF92EF92FF92D9
:102F30000F931F93CF93DF9300D000D000D0CDB775
:102F4000DEB76C011B0129013A014701580182E3F8
:102F500096E0F6019783868388E196E00E943C1212
:102F600080E590E00E94D81446E050E0B10189E08D
:102F700090E00E94AE1200E020E040E060E0CE0170
:102F800001960E94110CCE0103960E9483170E94A5
:102F9000F21485017401A3019201B101F601868149
:102FA00097810E94C1268C010197B9F580E590E0D8
:102FB0000E94D814F60166817781CE0101960E94A5
:102FC000FB21CE0103960E948317F601668177816B
:102FD000CE0101960E941122CE0103960E94751720
:102FE000F60166817781CE0101960E940622CE010C
:102FF00003960E947C170E94F214F6016681778185
:10300000CE0101960E941C228B819C81AD81BE81E4
:10301000F60182839383A483B583C80126960FB6F5
:10302000F894DEBF0FBECDBFDF91CF911F910F91FE
:10303000FF90EF90DF90CF90BF90AF909F908F90D8
:103040007F906F905F904F903F902F900895CF9317
:10305000DF93EC010E94070C80E590E00E94D814F9
:10306000BE016E5F7F4F44E050E08FE090E00E9431
:10307000DD130E94F214CE01DF91CF9108952DE56A
:1030800034E0FC0131832083FB0142815381648160
:103090007581FC01428353836483758308950F9384
:1030A00000E020E040E060E088E996E00E94110C3A
:1030B00085E796E00E948C118AE296E00F910C94CD
:1030C000070CFB014281538164817581FC014283BD
:1030D000538364837583178216820895CF93DF9399
:1030E000FB0120E080E090E0AAE03191332301F180
:1030F00060ED630F6A3080F4A89FB001A99F700D46
:103100001124CB01C097830F911D37FD9A958F3FF6
:10311000910559F350F313C03E3289F4233079F00E
:10312000EA01C20FD11D8A832F5F80E090E0DDCFDE
:10313000233029F4FA01858381E090E002C080E029
:1031400090E0DF91CF9108950F9300E020E040E000
:1031500060E08EE996E00E94110C0F9108958F9225
:103160009F92AF92BF92CF92DF92EF92FF920F9316
:103170001F93CF93DF9300D000D01F92CDB7DEB75F
:103180008C016B010E947407F801778366837627B0
:10319000672776277A836983085F1F4F42E050E0F4
:1031A000BE016F5F7F4FC8010E94001081E090E078
:1031B0009C838B8342E050E0BE016D5F7F4FC8016E
:1031C0000E94001080E091E09C838B8342E050E0FD
:1031D000BE016D5F7F4FC8010E9400101C821B82E0
:1031E00042E050E0BE016D5F7F4FC8010E940010B9
:1031F00042E050E0BE016D5F7F4FC8010E940010A9
:1032000042E050E0BE016D5F7F4FC8010E94001098
:103210005601F5018081882329F1C6017C01FC015A
:1032200020810196211116C0570147018C189D0875
:103230001814190494F48D8241E050E0BE016B5FD4
:103240007F4FC8010E940010A401B601C8010E946E
:10325000001003C02E3211F7E7CF6701FFEFCF1A3E
:10326000DF0AD7CF1D8241E050E0BE016B5F7F4F88
:10327000C8010E940010E12CFF24F394FC82EB8231
:1032800042E050E0BE016D5F7F4FC8010E94001018
:10329000FC82EB8242E050E0BE016D5F7F4FC801CF
:1032A0000E94001081E090E00F900F900F900F901F
:1032B0000F90DF91CF911F910F91FF90EF90DF90D2
:1032C000CF90BF90AF909F908F9008954F925F9254
:1032D0006F927F928F929F92AF92BF92CF92DF9226
:1032E000EF92FF920F931F93CF93DF93CDB7DEB78B
:1032F00065970FB6F894DEBF0FBECDBF7C015B01B2
:103300006A010E9474072B013C018701085F1F4F6F
:103310004501A12CB12CC8010E94A2101816190653
:10332000A4F00E947407DC01CB0184199509A60959
:10333000B70988169906AA06BB06D0F062E370E0CA
:1033400080E090E00E94A507E6CFF701428153811B
:1033500064817581808D918DA28DB38D4817590739
:103360006A077B0741F4848D958DC59721F406C0CB
:103370002FEF3FEFFDC02EEF3FEFFAC0C8010E94D4
:10338000C40F0C97ECF04CE050E0BE016F5F7F4F34
:10339000C8010E943D106C818B810E94EF219A8BA5
:1033A000898BF701E680F7806A8189810E94EF218D
:1033B000E816F90641F489899A8997FF04C009C083
:1033C0002DEF3FEFD5C0C8010E94DE0F2CEF3FEF7D
:1033D000CFC08F709270892B31F0C8010E94DE0F30
:1033E0002BEF3FEFC5C068858F810E94EF215C0104
:1033F000892B31F4C8010E94DE0F2AEF3FEFB8C0DD
:10340000E12CF12C6E818D810E94EF21E816F906E6
:1034100040F541E050E0BE01635F7F4FC8010E946C
:103420003D108D85811113C08D858111F2CFC801AA
:103430000E941410C8010E941410C8010E941410A8
:10344000C8010E941410FFEFEF1AFF0ADBCF8D8531
:103450009FEF980F9D87882339F3C8010E941410AD
:10346000F6CFE12CF12C41E050E0BE016D5E7F4FC4
:10347000C8010E943D108B89982F907C61F48823AD
:1034800071F08B899FEF980F9B8B882341F0C801C7
:103490000E941410F6CFC8010E9414101B8A8B8959
:1034A0008111E1CF42E050E0BE01615F7F4FC80172
:1034B0000E943D1042E050E0BE01635F7F4FC801B3
:1034C0000E943D10C8010E941410C8010E941410EF
:1034D000C8010E941410C8010E94141042E050E07C
:1034E000BE016F5E7F4FC8010E943D108F85988995
:1034F0008115914001F52D853E85322723273227FE
:1035000021303105C1F489899A898115944031F0BF
:10351000C8010E94DE0F27EF3FEF2AC0B6016E5FA1
:103520007F4F44E050E0C8012C8B3D8B0E943D1042
:103530002C893D891DC0812C912C89899A899827D5
:10354000892798278816990638F4C8010E94141014
:103550008FEF881A980AF1CFEFEFEE1AFE0AEA14FD
:10356000FB0409F080CFC8010E94DE0F26EF3FEF79
:10357000C90165960FB6F894DEBF0FBECDBFDF91CF
:10358000CF911F910F91FF90EF90DF90CF90BF9060
:10359000AF909F908F907F906F905F904F90089525
:1035A0008F929F92AF92BF92CF92DF92EF92FF9253
:1035B0000F931F93CF93DF9300D000D000D0CDB7EF
:1035C000DEB77C014B015A010E946E188C01892BD9
:1035D00009F05BC0F701428153816481758180915C
:1035E000A0069091A106A091A206B091A30648174B
:1035F00059076A077B0709F44BC00E9474076701EB
:10360000F8E0CF0ED11C6F7077277C5FC6010E9457
:103610007510813009F03EC08DE594E09A8389836E
:10362000F70182819381A481B5818B839C83AD83D3
:10363000BE8345E350E0BE016F5F7F4FC6010E942D
:10364000F40F892B19F400E010E01BC0B401C7018E
:103650000E94AF18892BB9F3C6010E94FC0F892B79
:1036600091F383E0882E912CA50168E873E1C701EE
:103670000E9466198C01F1E08F1A910811F00196F1
:1036800099F3C6010E94DF0F05C001E010E002C0FF
:103690000EEF1FEFC80126960FB6F894DEBF0FBEDF
:1036A000CDBFDF91CF911F910F91FF90EF90DF90F1
:1036B000CF90BF90AF909F908F900895CF93CFB74A
:1036C000F8948091A706811127C0EAE9F0E084917F
:1036D000E6E8F0E09491E82FF0E0EE0FFF1FE255EE
:1036E000FF4FA591B491EC91E92321F461E08AE0C8
:1036F0000E94820861E08AE00E9446088CB58061E1
:103700008CBD8CB580648CBD61E08DE00E94460864
:1037100061E08BE00E9446088091A7068F5F80934E
:10372000A706CFBFCF910895FC011482158216829F
:10373000178208951F93CF93DF931F92CDB7DEB703
:10374000162FFC01608188EA96E049830E94F81EEA
:10375000612F88EA96E00E94AF1E4981642F88EAB3
:1037600096E00E94AF1E88EA96E00F90DF91CF911D
:103770001F910C94811F1F93CF93DF9300D0CDB77F
:10378000DEB7162FFC01608188EA96E04A835983F0
:103790000E94F81E612F88EA96E00E94AF1E5981B0
:1037A000652F88EA96E00E94AF1E4A81642F88EA5E
:1037B00096E00E94AF1E88EA96E00F900F90DF918E
:1037C000CF911F910C94811F1F93CF93DF93EC0136
:1037D000162F688188EA96E00E94F81E612F88EA19
:1037E00096E00E94AF1E88EA96E00E94811F41E0A9
:1037F000688188EA96E00E947B1FC8EED3E088EAE1
:1038000096E00E94531E1816190634F0209711F006
:103810002197F5CF80E006C0CD2BE1F388EA96E052
:103820000E945B1EDF91CF911F9108950F93CF935C
:10383000DF93EC01637041704295407F2F70422B03
:103840006295660F607E462B6EE10E949A1B0023F4
:1038500021F0083018F007E001C001E08FEF800F81
:1038600061E070E002C0660F771F8A95E2F7072ECD
:10387000000C880B990B0E94C72A9B01AC0160E0E9
:1038800074E284EF99E40E94242A0E94962A6C83B1
:103890007D838E839F836FE1CE010E94E41B8F782E
:1038A0000295007F482F402B6FE1CE01DF91CF9131
:1038B0000F910C949A1B1F93CF93DF93EC01162F5B
:1038C000688188EA96E00E94F81E612F88EA96E0F7
:1038D0000E94AF1E88EA96E00E94811F42E0688144
:1038E00088EA96E00E947B1FC0EDD7E088EA96E068
:1038F0000E94531E02973CF4209711F02197F6CFB7
:1039000080E090E011C0CD2BD9F388EA96E00E94C8
:103910005B1EC82F88EA96E00E945B1E20E030E024
:103920003C2FA901482BCA01DF91CF911F91089527
:10393000CF92DF92EF92FF920F931F93CF93DF937B
:103940008C01D62FF42E6EE00E945B1C41E050E00B
:103950009A0102C0220F331FDA95E2F7E901809540
:10396000909582239323892B89F060E1C8010E94FE
:103970005B1CFF2021F0AC014C2B5D2B05C0C095DA
:10398000D095AC014C235D2360E125C066E0C80101
:103990000E945B1C6C0168E0C8010E945B1C9E01D8
:1039A00020953095FF2061F07C01E222F322A601F0
:1039B0004C2B5D2B66E0C8010E94BB1BA7010AC00F
:1039C000C82BD92BA6014223532366E0C8010E94CD
:1039D000BB1BAE0168E0C801DF91CF911F910F9131
:1039E000FF90EF90DF90CF900C94BB1B0C94981C31
:1039F000FF920F931F93CF93DF938C01F62E6EE00F
:103A00000E945B1CC1E0D0E002C0CC0FDD1FFA9425
:103A1000E2F78C239D23892B49F060E1C8010E94C5
:103A20005B1CC823D92381E0CD2B09F480E0DF9112
:103A3000CF911F910F91FF9008950C94F81CCF9295
:103A4000DF92EF92FF920F931F93CF93DF931F921A
:103A5000CDB7DEB76C01162F60E029830E945B1C96
:103A600041E050E0BA0102C0660F771F1A95E2F7F5
:103A70008B01AC01462B572B60E0C6010E94BB1B9B
:103A800066E0C6010E945B1C7801E094F094AC01F2
:103A90004E215F2166E0C6010E94BB1B6EE0C6019D
:103AA0000E945B1CAC014E215F216EE0C6010E94AA
:103AB000BB1B6EE1C6010E94E41B8F7D482F406452
:103AC0006EE1C6010E949A1B6FE1C6010E94E41BD1
:103AD0002981482F222311F0486801C04777F60159
:103AE00084819581A681B781892B8A2B8B2B49F400
:103AF00080E894E8AEE1B0E084839583A683B78341
:103B000040616FE1C6010E949A1B60E2C6010E94FB
:103B10005B1CAC01402B512B60E2C6010E94BB1B19
:103B200060E1C6010E945B1CAC014E215F2160E197
:103B3000C6010F90DF91CF911F910F91FF90EF90F1
:103B4000DF90CF900C94BB1B0F931F93CF93DF9309
:103B5000EC01162F042F6EE00E945B1C9C01802F4D
:103B60008D7F813059F041E050E0012E02C0440FBA
:103B7000551F0A94E2F7422B532B0DC0E1E0F0E011
:103B8000012E02C0EE0FFF1F0A94E2F7E095F095B8
:103B9000A9014E235F236EE0CE010E94BB1B0230C1
:103BA00049F441E0612FCE01DF91CF911F910F9138
:103BB0000C94981C033051F420E041E0612FCE01B9
:103BC000DF91CF911F910F910C941F1DDF91CF9129
:103BD0001F910F9108950C94A41DCF93DF93EC01D6
:103BE0006FE10E94E41B82FF06C0482F4B7F6FE10C
:103BF000CE010E949A1B41E06B81CE010E94A41D60
:103C000040E06B81CE010E94981C61E070E080E092
:103C100090E00E94A50741E06B81CE01DF91CF913A
:103C20000C94981CCF93DF93662321F0DF91CF9102
:103C30000C94ED1DEC0142E16DE70E949A1B44E3F8
:103C40006DE7CE01DF91CF910C949A1B0F93CF9328
:103C5000DF93EC0188EA96E00E94EE1E8B818F3F95
:103C600021F0CE010E94ED1D04C060E0CE010E9453
:103C7000121E63E1CE010E945B1C81159F4F49F427
:103C800001E020E040E062E0CE010E94161C81E0ED
:103C900001C080E0DF91CF910F910895FC01608316
:103CA00043830C94261E8091D80690E02091D9067B
:103CB000821B910908959091D9068091D806981792
:103CC00050F4E92FF0E0E652F94F208130E09F5F99
:103CD0009093D90602C02FEF3FEFC9010895E091FC
:103CE000D9068091D806E81730F4F0E0E652F94F93
:103CF000808190E008958FEF9FEF08950895CF920F
:103D0000DF92EF92FF920F931F93CF93DF937C018B
:103D1000262F972F8A018091B406882391F0C62F11
:103D2000D72F6E01C40ED51ECC15DD0571F069913B
:103D3000D701ED91FC910190F081E02DC70109952B
:103D4000F3CF642F822F0E944420C801DF91CF91CE
:103D50001F910F91FF90EF90DF90CF900895CF9338
:103D6000DF931F92CDB7DEB769832091B40622237B
:103D7000D1F02091B506203240F021E030E0FC0186
:103D80003383228380E090E015C08091B606E82F4F
:103D9000F0E0E954F94F998190838F5F8093B606E4
:103DA0008093B50605C061E0CE0101960E944420D3
:103DB00081E090E00F90DF91CF910895FC01138294
:103DC000128288EE93E0A0E0B0E084839583A6831E
:103DD000B7838BE894E09183808308951092D9068D
:103DE0001092D8061092B6061092B5060C94881F51
:103DF00081E08093B4066093D7061092B6061092C5
:103E0000B50608950C94F81E0F93062F21E04091FB
:103E1000B50667EB76E08091D7060E94EE1F109200
:103E2000B6061092B5061092B4060F9108954F92FF
:103E30005F926F927F92AF92BF92CF92EF92FF927A
:103E40000F931F93CF93DF935C01F62ED42F28019D
:103E50003901EE2021F10E94F81ECE2DC43008F069
:103E6000C3E0C150C0F0D501ED91FC91B8E0CB9F0B
:103E7000C0011124A301920104C0569547953795BE
:103E800027958A95D2F7CA01B9010190F081E02DFA
:103E9000C5010995E6CF60E0C5010E94041F4D2FC2
:103EA000D13208F040E22C2D6AED76E08F2D0E9491
:103EB000A61F1092D9068093D806DF91CF911F914B
:103EC0000F91FF90EF90CF90BF90AF907F906F9049
:103ED0005F904F900895CF92EF920F931F93C22E51
:103EE000E12C00E010E098010E94171F1F910F9134
:103EF000EF90CF90089521E00C946B1F21E00C947B
:103F00006B1F61E00C94041F88EA96E00C94DE1E9F
:103F10001092670781E0809365071092640761E063
:103F200082E10E94820861E083E10E948208E9EB5D
:103F3000F0E080818E7F808380818D7F808388E424
:103F40008093B80085E48093BC000895413208F066
:103F500043C0909167079111FCCF91E09093670760
:103F6000209365072FEF2093FA0610923F07240F46
:103F700020933E079093660790916607880F892BE0
:103F80008093660780916407813061F41092640722
:103F9000809166078093BB008091BC0083FDF8CFC1
:103FA00085EC01C085EE8093BC008091670781306D
:103FB000E1F380913F07841710F440913F0720E41C
:103FC00037E0FB01D9018A2F821B841718F48D91E9
:103FD0008193F9CF842F089580E008950F934132A3
:103FE00008F04AC0909167079111FCCF32E03093FE
:103FF0006707009365073FEF3093FA0610923F077B
:1040000040933E07FB0160E477E0DB013A2F361B6B
:10401000341718F431913D93F9CF1092660730911F
:104020006607880F832B8093660780916407813031
:1040300061F410926407809166078093BB008091C1
:10404000BC0083FDF8CF85EC01C085EE8093BC00F9
:10405000222321F0809167078230D1F38091FA0604
:104060008F3F79F08091FA06803241F08091FA0614
:10407000803331F094E005C091E003C092E001C0CC
:1040800093E0892F0F91089540911C07262F30E06F
:10409000240F311D21323105DCF4209167072430D3
:1040A000C9F4FC0180E090E0861758F430911C07B9
:1040B0002191DC01A25EB84FA30FB11D2C93019694
:1040C000F3CF80911C07680F60931C0780E0089570
:1040D00081E0089582E0089585ED8093BC00809191
:1040E000BC0084FDFCCF10926707089585EC809397
:1040F000BC001092670708951F920F920FB60F929F
:1041000011242F933F934F935F936F937F938F93DC
:104110009F93AF93BF93EF93FF938091B900887FF4
:10412000803609F49EC078F5883209F45DC090F4B9
:10413000803109F456C038F4882309F4F5C088307A
:1041400009F44FC0F5C0883109F44EC0803209F43B
:104150005FC0EEC0803409F46AC058F4803309F4BB
:1041600057C0883309F0E4C08093FA060E94762095
:10417000DFC0803509F44FC0883509F45DC088344C
:1041800009F0D6C0D3C0883909F4C4C0A8F4883770
:1041900009F467C038F4883609F463C0803709F43D
:1041A00060C0C6C0883809F4B5C0803909F45FC062
:1041B000803809F0BDC05BC0803B09F483C038F48F
:1041C000803A09F466C0883A09F47CC0B1C0803CEA
:1041D00009F4A4C0883C09F4A1C0883B09F487C055
:1041E000A7C08091660710C090913F0780913E075D
:1041F000981770F5E0913F0781E08E0F80933F079D
:10420000F0E0E05CF84F80818093BB0085EC83C0D8
:104210008093FA068BC0E0913F0781E08E0F809378
:104220003F078091BB00F0E0E05CF84F8083909105
:104230003F0780913E076BC0E0913F0781E08E0F02
:1042400080933F078091BB00F0E0E05CF84F8083F3
:104250008091650781116AC081E08093640784EAD8
:104260005EC083E0809367071092FB06CFCF8091FA
:10427000FB06803208F04EC0E091FB0681E08E0F15
:104280008093FB068091BB00F0E0E450F94F8083FF
:10429000BDCF0E9476208091FB06803230F4E09101
:1042A000FB06F0E0E450F94F10826091FB0670E0ED
:1042B000E0916007F09161078CEF96E0099510920C
:1042C000FB0636C084E08093670710921D071092AA
:1042D0001C07E0916207F0916307099580911C0724
:1042E000811105C081E080931C0710921E07E091A8
:1042F0001D0781E08E0F80931D07F0E0E25EF84F0E
:1043000080818093BB0090911D0780911C079817B6
:1043100008F47CCF85E88093BC000AC085EC8093CC
:10432000BC001092670704C01092FA060E946C202D
:10433000FF91EF91BF91AF919F918F917F916F917D
:104340005F914F913F912F910F900FBE0F901F9053
:104350001895CF93DF9300D000D0CDB7DEB76115AD
:1043600071058105910579F09B01AC0169833A8360
:104370004B835C830E947B2829813A814B815C813D
:104380000E94F22B03C060E070E0CB010F900F9011
:104390000F900F90DF91CF910895CF92DF92EF921F
:1043A000FF920F931F93621773078407950784F496
:1043B00089019A016B017C01C901B8016C197D0961
:1043C0008E099F090E94A9216C0D7D1D8E1D9F1DC8
:1043D0001F910F91FF90EF90DF90CF90089570E0C4
:1043E0009B01382BC90108950E9624E1FC0111921E
:1043F0002A95E9F70895CF93DF93EC01625F7F4F31
:104400000E941D0CCE01DF91CF910895CF93DF93D1
:10441000EC016E5E7F4F0E941D0CCE01DF91CF91AB
:104420000895CF93DF93EC016A5E7F4F0E941D0CCD
:10443000CE01DF91CF910895CF93DF93EC01625EBF
:104440007F4F0E941D0CCE01DF91CF91089580E334
:10445000FB0180833296842F82958F7090E1899F33
:10446000401911244A3014F4405D01C0495C429364
:10447000482F8111F0CF08950F9300E020E040E035
:1044800060E088E697E00E94110C0F9108957F92FA
:104490008F929F92AF92BF92CF92DF92EF92FF9254
:1044A0000F931F93CF93DF93CDB7DEB7AC970FB6C3
:1044B000F894DEBF0FBECDBF7C01762E942E852EE4
:1044C00020E2B22ECE0101966C01FC012B2D11923F
:1044D0002A95E9F70FEF2FEF4FEF6FEF86960E94C7
:1044E000110C8DE594E09AA389A389A59AA5ABA5A3
:1044F000BCA58BA39CA3ADA3BEA387010D5B1F4FDF
:1045000043E450E0BE016F5D7F4FC8010E94F40F8D
:10451000019609F4BFC081E089838A8386E0A82ED2
:10452000AB821C82F70164817581868197810E942C
:10453000112C6D837E838F83988789869A8680E885
:1045400090E09C878B874CE150E0B601C8010E9447
:104550000010F6012B2D11922A95E9F7470188E00A
:10456000880E911CF401D60101900D92AA94E1F7F6
:1045700040E150E0B601C8010E940010F60111921E
:10458000BA94E9F796E0A92EB12C40E250E0B601CA
:10459000C8010E940010F1E0AF1AB108B1F783E63C
:1045A000898392E89A8393E59B838C8385E38D834B
:1045B00081E08E837F829DE3988797E099878A8741
:1045C00086E0F401DE011B9601900D928A95E1F7D9
:1045D0008CE0898B8A8B69E974E0CE0143960E9456
:1045E0007529F7014385BE01675E7F4FC7010E94B1
:1045F0002722F7014485BE01655E7F4FC7010E94F7
:104600002722F7014585BE01635E7F4FC7010E94E7
:1046100027224EE150E0B601C8010E940010F3E0ED
:104620007F121EC082E3898384E08A83F701968526
:104630009B8397859C8390899D8391899E8396E334
:104640009F838887828D8987838D8A87848D8B87D6
:10465000858D8C874CE050E0B601C8010E940010A7
:1046600087E3898386E08A8391E09B8393E09C8340
:104670008D838FE08E838AE38F838BE388878FEF30
:10468000898749E050E0B601C8010E940010C801C6
:104690000E94FC0FAC960FB6F894DEBF0FBECDBFE4
:1046A000DF91CF911F910F91FF90EF90DF90CF900E
:1046B000BF90AF909F908F907F9008952F923F92E0
:1046C0004F925F926F927F928F929F92AF92BF9222
:1046D000DF92EF92FF920F931F93CF93DF93CDB7AB
:1046E000DEB7E4970FB6F894DEBF0FBECDBF7C01F6
:1046F0001A012B0139010E9474074B015C018701EB
:104700000D5B1F4FC8010E94A21018161906A4F0D5
:104710000E947407DC01CB0188199909AA09BB0919
:10472000281639064A065B06F0F062E370E080E086
:1047300090E00E94A507E6CF42E250E0BE016F5F25
:104740007F4FC8010E943D108981823031F4F80109
:10475000848995898334910541F0D12CC8010E9448
:10476000DE0F8D2D5FC18FEF5DC16D817E818F81E9
:1047700098850E94112C4B015C01F30160837183C9
:104780008283938346E050E0B701685F7F4FCE019C
:104790004D960E945629892B99F4F70180819181C9
:1047A000A281B38188169906AA06BB0648F08481C7
:1047B0009581A681B78188159905AA05BB0528F4BE
:1047C000C8010E94DE0F80E02DC189899A89AB89DA
:1047D000BC89F70186879787A08BB18B8EECA82EBA
:1047E000B12CC8010E941410F1E0AF1AB108C9F74A
:1047F000D12CC70182969AA789A7F701B696FCA784
:10480000EBA708969EA78DA73C974F01899698AB7A
:104810008FA73897FAABE9AB1701F6E12F0E311CE1
:10482000C5979CAB8BABC8010E94C40F1816190624
:104830000CF094CFC8010E9414108333910509F441
:10484000CBC0FCF481309105C9F11CF4892B59F3DC
:10485000DDC083309105D1F1069709F0D7C0C801BA
:104860000E9414105C0144E050E06BA97CA9C801CF
:104870000E943D10412C512CBB24F4E0AF1AB1082A
:1048800040C08A33910509F47BC03CF4853391051F
:1048900069F0C69709F440C0B9C08B33910509F49B
:1048A00085C08F3F910509F4BECFB0C0C8010E94FA
:1048B0001410C8010E941410D82EB5CFC8010E9450
:1048C000141044E050E069A97AA93AC0C8010E94D6
:1048D00014105C0144E050E0B101C8010E943D1099
:1048E000412C512CBB2494E0A91AB1084A145B0452
:1048F0000CF099CFC8010E941410EFEF4E1A5E0A17
:10490000F5CF4A145B040CF08ECFC8010E9414103E
:104910008FEF481A580AF5CFC8010E941410B82E1C
:10492000F701828D811110C0838D81110DC0848D9E
:1049300081110AC0858D811107C044E050E0B401A7
:10494000C8010E943D106FCFEFA5F8A940805180AB
:1049500062807380B401CE0183960E941D0C8DA1EC
:104960009EA1AFA1B8A584159505A605B70529F3A5
:10497000BB2009F458CFC8010E941410BA94F8CF94
:10498000C8010E94141044E050E06BA57CA5C8014A
:104990000E943D10F70166A177A180A591A50E9414
:1049A000112C66A377A380A791A73DCFC8010E94D1
:1049B000141044E050E06DA57EA5C8010E943D1092
:1049C000F70162A573A584A595A50E94112C62A785
:1049D00073A784A795A727CFC8010E94141044E0AD
:1049E00050E069A57AA5C8010E943D10F70162A1B7
:1049F00073A184A195A10E94112C62A373A384A327
:104A000095A366A777A780AB91AB0DCFC8010E9495
:104A10001410B82EBB2009F406CFC8010E94141050
:104A2000BA94F8CFE4960FB6F894DEBF0FBECDBFB0
:104A3000DF91CF911F910F91FF90EF90DF90BF908A
:104A4000AF909F908F907F906F905F904F903F902E
:104A50002F9008952F923F924F925F926F927F9284
:104A60008F929F92AF92BF92CF92DF92EF92FF927E
:104A70000F931F93CF93DF93CDB7DEB727970FB672
:104A8000F894DEBF0FBECDBF8C0120ED37E040E0D3
:104A900050E061E070E080E090E00E94CD21D8011C
:104AA00014966D937D938D939C931797F801608373
:104AB0007183828393835801F3E4AF0EB11CC50167
:104AC0000E94DF0F64E470E0C5010E947510882326
:104AD00009F43CC10E9474072B013C01812C912CEC
:104AE0001D82C8018E5B9F4F9F838E8343E0342ECF
:104AF00058EEC52E53E0D52EE12CF12C62E0262E87
:104B0000AE81BF818C91833009F407C1811120C02F
:104B1000F80184819581A681B7810196A11DB11DFF
:104B200084839583A683B7830E94740764197509EB
:104B300086099709A70196010E94D02BA90161E07F
:104B4000C8010E94472281E0AE81BF818C93C6C01C
:104B50008430F9F4F80184819581A681B7810196AA
:104B6000A11DB11D84839583A683B7830E9474071A
:104B70006419750986099709A70196010E94D02B2F
:104B8000A90163E0C8010E944722AE81BF812C9237
:104B9000A5C0813061F5F80142AD53AD64AD75AD8E
:104BA0009E012F5F3F4FC8010E945E238D8382309C
:104BB00009F094C089819A81AB81BC81F80184831A
:104BC0009583A683B7830E947407641975098609C3
:104BD0009709A70196010E94D02BA90163E0C801A3
:104BE0000E944722ED81AE81BF81EC937EC082306E
:104BF00009F074C0D801DA964D915D916D917C9168
:104C0000DD979E012F5F3F4FC8010E945E238D8379
:104C1000853009F05CC0EE81FF813082F80182A10D
:104C200093A1A4A1B5A1892B8A2B8B2B41F484E8F5
:104C300093E0A0E0B0E082A393A3A4A3B5A3F801FE
:104C400086A197A1A0A5B1A5892B8A2B8B2B61F4F6
:104C500082A193A1A4A1B5A1B695A7959795879593
:104C600086A397A3A0A7B1A7F80182A593A5A4A5A1
:104C7000B5A5892B8A2B8B2BA9F482A193A1A4A182
:104C8000B5A1AC01BD0123E0769567955795479591
:104C90002A95D1F7841B950BA60BB70B82A793A778
:104CA000A4A7B5A7F80186A197A1A0A5B1A586A73D
:104CB00097A7A0ABB1AB82A593A5A4A5B5A582ABE0
:104CC00093ABA4ABB5AB88248394912C0EC0FD812B
:104CD000F63021F4AE81BF811C9207C0BD81BF3F79
:104CE00021F4EE81FF8110821D82F1E08F16910484
:104CF00009F406CF0E947407DC01CB0184199509E1
:104D0000A609B709F80126A937A940AD51AD281762
:104D100039074A075B0708F0F3CEC5010E94DF0F91
:104D2000F80184819581A681B7810196A11DB11DED
:104D300084839583A683B7830E947407F801FE9647
:104D40006083718382839383C40102C080E090E01A
:104D500027960FB6F894DEBF0FBECDBFDF91CF917F
:104D60001F910F91FF90EF90DF90CF90BF90AF9089
:104D70009F908F907F906F905F904F903F902F907B
:104D80000895CF92DF92EF92FF920F931F93CF93EC
:104D9000DF93EC016B011AA21BA21CA21DA21EA292
:104DA0001FA218A619A61AA61BA61CA61DA62EABE6
:104DB0003FAB48AF59AFEAAEFBAE0CAF1DAF8C01B5
:104DC000085F1F4F86E0F80111928A95E9F7CE013E
:104DD0000E94F42186E0F601D80101900D928A9597
:104DE000E1F7FE01EE5BFF4F1082CE01DF91CF9124
:104DF0001F910F91FF90EF90DF90CF900C942A2598
:104E0000CF93DF938230910510F482E090E0E0913F
:104E10007007F091710720E030E0C0E0D0E03097FB
:104E200011F14081518148175907C0F048175907BF
:104E300061F482819381209719F09B838A832BC030
:104E4000909371078093700726C02115310519F0E2
:104E50004217530718F49A01BE01DF01EF010280E7
:104E6000F381E02DDCCF2115310509F1281B390B29
:104E70002430310590F412968D919C911397611511
:104E8000710521F0FB019383828304C09093710725
:104E900080937007FD01329644C0FD01E20FF31FBD
:104EA00081939193225031092D933C933AC02091E4
:104EB0006E0730916F07232B41F42091020130914E
:104EC000030130936F0720936E072091000130910A
:104ED00001012115310541F42DB73EB74091040180
:104EE00050910501241B350BE0916E07F0916F077F
:104EF000E217F307A0F42E1B3F0B2817390778F0B1
:104F0000AC014E5F5F4F2417350748F04E0F5F1F0F
:104F100050936F0740936E078193919302C0E0E036
:104F2000F0E0CF01DF91CF9108950F931F93CF93BE
:104F3000DF93009709F48CC0FC0132971382128230
:104F400000917007109171070115110581F42081FE
:104F50003181820F931F20916E0730916F072817C0
:104F6000390779F5F0936F07E0936E0771C0D801A8
:104F700040E050E0AE17BF0750F412962D913C91DF
:104F80001397AD012115310509F1D901F3CF9D0129
:104F9000DA013383228360817181860F971F821724
:104FA000930769F4EC0128813981260F371F2E5FA2
:104FB0003F4F318320838A819B8193838283452B5A
:104FC00029F4F0937107E093700742C01396FC93A5
:104FD000EE931297ED01499159919E01240F351FCF
:104FE000E217F30771F480819181840F951F029677
:104FF00011969C938E938281938113969C938E93AA
:105000001297E0E0F0E0D80112968D919C911397F1
:10501000009719F0F8018C01F6CF8D919C919801C1
:105020002E5F3F4F820F931F20916E0730916F07C5
:105030002817390769F4309729F4109271071092F4
:10504000700702C01382128210936F0700936E07DD
:10505000DF91CF911F910F9108958F929F92AF9200
:10506000BF92CF92DF92EF92FF92CF93DF93EC014A
:10507000688179818A819B8161157105810591051E
:1050800021F464E279ED8BE597E02DE133EF41E027
:1050900050E00E94F22B49015A019B01AC01A7EAA2
:1050A000B1E40E94182C6B017C01ACEEB4EFA501B9
:1050B00094010E94262CDC01CB018C0D9D1DAE1DA0
:1050C000BF1DB7FF03C00197A109B048888399832A
:1050D000AA83BB83BC01CD019F77DF91CF91FF9065
:1050E000EF90DF90CF90BF90AF909F908F900895FA
:1050F0000E942D28089586E091E00E942D280895B1
:105100006093060170930701809308019093090151
:105110000895A0E0B0E0EFE8F8E20C942F2CEC0149
:10512000009721F4CB010E940027B8C0FC01E60FD4
:10513000F71F9C0122503109E217F30708F4ACC0B5
:10514000D9010D911C91119706171707B0F0053082
:10515000110508F49FC0C80104978617970708F443
:1051600099C002501109061B170B019311936D93FF
:105170007C93CF010E9495278DC05B01A01AB10AD4
:105180004C01800E911EA0917007B091710740E014
:1051900050E0E12CF12C109709F44AC0A815B9058C
:1051A000D1F56D907C901197630182E0C80ED11CFF
:1051B000CA14DB0480F1A3014A195B096A0182E089
:1051C000C80ED11C1296BC9012971396AC91B5E004
:1051D000CB16D10440F0B282A38351834083D9011E
:1051E0006D937C930AC00E5F1F4FC301800F911F08
:1051F000F90191838083EB2DFA2FE114F10431F052
:10520000D7011396FC93EE93129744C0F093710765
:10521000E09370073FC08D919C91119748175907F3
:1052200008F4AC017D0112960D90BC91A02DB3CF76
:1052300080916E0790916F0788159905E1F44617E4
:105240005707C8F48091000190910101009741F443
:105250008DB79EB74091040150910501841B950BB9
:10526000E817F907C8F4F0936F07E0936E07F901A8
:10527000718360830FC0CB010E9400277C010097DF
:1052800059F0A801BE010E946329CE010E94952712
:10529000C70104C0CE0102C080E090E0CDB7DEB708
:1052A000EEE00C944B2CF8940C948D2CFB01DC015B
:1052B00004C08D910190801921F441505040C8F7ED
:1052C000881B990B0895FB01DC0102C001900D922F
:1052D00041505040D8F70895FB01DC018D910190B9
:1052E00080190110D9F3990B0895FB01DC0101909D
:1052F0000D920020E1F708954532510520F4423027
:1053000010F00C948729FB011082CB010895BB2774
:105310004A3031F4992322F4BDE2909581959F4F54
:105320000C949E294532510520F4423010F00C9423
:105330009D29FB011082CB010895BB27FB01552756
:10534000AA27880F991FAA1FA41710F0A41B8395E2
:105350005051B9F7A05DAA3308F0A95DA193009759
:1053600079F7B111B1931192CB010C94C02B505825
:10537000BB27AA270E94CF290C94192B0E940B2B24
:1053800038F00E94122B20F039F49F3F19F426F4D4
:105390000C94082B0EF4E095E7FB0C94022BE92FFC
:1053A0000E942A2B58F3BA176207730784079507E0
:1053B00020F079F4A6F50C944C2B0EF4E0950B2E0E
:1053C000BA2FA02D0B01B90190010C01CA01A00157
:1053D0001124FF27591B99F0593F50F4503E68F1B2
:1053E0001A16F040A22F232F342F4427585FF3CFF3
:1053F000469537952795A795F0405395C9F77EF4C4
:105400001F16BA0B620B730B840BBAF09150A1F00C
:10541000FF0FBB1F661F771F881FC2F70EC0BA0F92
:10542000621F731F841F48F4879577956795B7951A
:10543000F7959E3F08F0B0CF9395880F08F0992715
:10544000EE0F9795879508950E94382A0C94192B92
:105450000E94122B58F00E940B2B40F029F45F3F62
:1054600029F00C94022B51110C944D2B0C94082B09
:105470000E942A2B68F39923B1F3552391F3951BCE
:10548000550BBB27AA2762177307840738F09F5F65
:105490005F4F220F331F441FAA1FA9F335D00E2ED2
:1054A0003AF0E0E832D091505040E695001CCAF73F
:1054B0002BD0FE2F29D0660F771F881FBB1F261702
:1054C00037074807AB07B0E809F0BB0B802DBF01D9
:1054D000FF2793585F4F3AF09E3F510578F00C94A8
:1054E000022B0C944D2B5F3FE4F3983ED4F386954A
:1054F00077956795B795F7959F5FC9F7880F911DC9
:105500009695879597F90895E1E0660F771F881FB4
:10551000BB1F621773078407BA0720F0621B730B67
:10552000840BBA0BEE1F88F7E09508950E94322B8A
:1055300088F09F5798F0B92F9927B751B0F0E1F054
:10554000660F771F881F991F1AF0BA95C9F714C004
:10555000B13091F00E944C2BB1E008950C944C2B8B
:10556000672F782F8827B85F39F0B93FCCF386953D
:1055700077956795B395D9F73EF49095809570959A
:1055800061957F4F8F4F9F4F0895E89409C097FB17
:105590003EF490958095709561957F4F8F4F9F4F0A
:1055A0009923A9F0F92F96E9BB279395F69587954E
:1055B00077956795B795F111F8CFFAF4BB0F11F411
:1055C00060FF1BC06F5F7F4F8F4F9F4F16C08823B8
:1055D00011F096E911C0772321F09EE8872F762FEE
:1055E00005C0662371F096E8862F70E060E02AF02F
:1055F0009A95660F771F881FDAF7880F969587951B
:1056000097F9089597F99F6780E870E060E0089542
:105610009FEF80EC089500240A94161617061806CA
:105620000906089500240A941216130614060506A6
:105630000895092E0394000C11F4882352F0BB0F37
:1056400040F4BF2B11F460FF04C06F5F7F4F8F4F9A
:105650009F4F089557FD9058440F551F59F05F3FD5
:1056600071F04795880F97FB991F61F09F3F79F084
:1056700087950895121613061406551FF2CF469506
:10568000F1DF08C0161617061806991FF1CF869588
:105690007105610508940895E894BB27662777276C
:1056A000CB0197F908950E94662B0C94192B0E9448
:1056B0000B2B38F00E94122B20F0952311F00C9444
:1056C000022B0C94082B11240C944D2B0E942A2B96
:1056D00070F3959FC1F3950F50E0551F629FF00145
:1056E000729FBB27F00DB11D639FAA27F00DB11D5E
:1056F000AA1F649F6627B00DA11D661F829F2227E7
:10570000B00DA11D621F739FB00DA11D621F839F6D
:10571000A00D611D221F749F3327A00D611D231F43
:10572000849F600D211D822F762F6A2F11249F5791
:1057300050409AF0F1F088234AF0EE0FFF1FBB1F94
:10574000661F771F881F91505040A9F79E3F510553
:1057500080F00C94022B0C944D2B5F3FE4F3983EA9
:10576000D4F3869577956795B795F795E7959F5FFD
:10577000C1F7FE2B880F911D9695879597F908958F
:10578000DC01FC01672F71917723E1F7329704C0A8
:105790007C916D9370836291AE17BF07C8F3089533
:1057A000A1E21A2EAA1BBB1BFD010DC0AA1FBB1F25
:1057B000EE1FFF1FA217B307E407F50720F0A21B97
:1057C000B30BE40BF50B661F771F881F991F1A9404
:1057D00069F760957095809590959B01AC01BD012E
:1057E000CF010895052E97FB1EF400940E94092C0A
:1057F00057FD07D00E94D02B07FC03D04EF40C9429
:10580000092C50954095309521953F4F4F4F5F4F54
:10581000089590958095709561957F4F8F4F9F4F1C
:105820000895692796276927782787277827089575
:105830000E94682CA59F900DB49F900DA49F800D91
:10584000911D11240895B7FF0C94182C0E94182C58
:10585000821B930B08952F923F924F925F926F920B
:105860007F928F929F92AF92BF92CF92DF92EF92F0
:10587000FF920F931F93CF93DF93CDB7DEB7CA1B71
:10588000DB0B0FB6F894DEBF0FBECDBF09942A889C
:10589000398848885F846E847D848C849B84AA8444
:1058A000B984C884DF80EE80FD800C811B81AA81D1
:1058B000B981CE0FD11D0FB6F894DEBF0FBECDBF9C
:1058C000ED010895EE0FFF1F0590F491E02D09946E
:1058D000A29FB001B39FC001A39F700D811D112431
:1058E000911DB29F700D811D1124911D0895F9998C
:1058F000FECF92BD81BDF89A992780B50895262FD5
:10590000F999FECF1FBA92BD81BD20BD0FB6F894A4
:10591000FA9AF99A0FBE0196089510E0C5E6D0E014
:1059200004C0FE010E94622C2196C636D107C9F739
:04593000F894FFCF19
:1059340000007207200001000000080007000600B4
:10594400BA22B922B82201005E00000052756E6EC0
:10595400696E672053657475702E2E004661696CFC
:10596400656420746F20636F6E6669677572652065
:1059740045746865726E6574207573696E6720443A
:105984004843502C2072657374617274696E672089
:10599400736B657463682E2E2E00436F6E666967A1
:1059A400757265642049503A0052756E6E696E676F
:1059B4002053657475702E2E2E00436F6E74656EC1
:1059C4007473206F66207468652073656E736F72DC
:1059D40041727261792E6D61633A00496E64697631
:1059E400696475616C2076616C7565733A00454530
:1059F40050524F4D20636F6E74656E74733A00415C
:105A04006464726573733A20000900446174613AF6
:105A140020004469676974616C20494F2063617296
:105A24006420666F756E6421004469676974616CF3
:105A340020696F2063617264206E6F7420666F75D5
:105A44006E640054696D6520746F2072756E2074E5
:105A54006865205365747570005265736574746964
:105A64006E6720426F6F746C6F616465722E2E00D6
:105A7400706F6B650049277665206265656E2070DE
:105A84006F6B65642100736E617052656C61795F40
:105A94006F6E00736E617052656C61795F6F6666DC
:105AA40000736E617076325F305F6F6E00736E618B
:105AB4007076325F30206F6E00736E617076325F85
:105AC400305F6F666600736E617076325F30206F90
:105AD400666600736E617076325F315F6F6E00735D
