:100000000C9466000C948E000C948E000C948E0060
:100010000C948E000C948E000C94810F0C948E0026
:100020000C948E000C948E000C948E000C948E0018
:100030000C948E000C948E000C948E000C948E0008
:100040000C9428070C948E000C94EA090C941C0A5A
:100050000C948E000C948E000C948E000C948E00E8
:100060000C9459210C948E0000000008000201003D
:100070000003040700000000000000000102040863
:100080001020408001020408102001020408102002
:10009000040404040404040402020202020203032E
:1000A0000303030300000000250028002B000000CC
:1000B0000000240027002A0090004C0AFC0A7A0F56
:1000C0007C122C19811961201923EC0011241FBE08
:1000D000CFEFD8E0DEBFCDBF13E0A0E0B1E0ECE0B1
:1000E000FCE502C005900D92A63FB107D9F726E0C6
:1000F000A6EFB3E001C01D92A83BB207E1F710E004
:10010000C5E6D0E004C02197FE010E94DC2DCC356D
:10011000D107C9F70E947A0A0C94CD2A0C940000EA
:100120000F9300E020E040E060E084EA94E00E9469
:10013000D50A01E021E041E06AE08EE994E00E9406
:10014000D50A83E894E00E94041288E694E00E94B5
:1001500004128DE494E00E9404126BED71E087E2DA
:1001600094E00E94750B8DE194E00E94711C8CE17B
:1001700094E00E94E70E8BE194E00E94E70E83E199
:1001800094E00E94000EE6EFF3E08DE99FEFAFEF01
:10019000BFEF80839183A283B38380E090E0A6ECDD
:1001A000B2EC84839583A683B78380879187A287E7
:1001B000B38784879587A687B787808B918BA28B1F
:1001C000B38B148A158A168A178A108E8DE99FEFD1
:1001D000948F838F0F91089587E294E00C94070B1E
:1001E0000F931F93CF93DF93CDB7DEB762970FB610
:1001F000F894DEBF0FBECDBF8C01609111047091E9
:1002000012044AE0CE0107960E94EE0B66E171E00F
:10021000CE0101960E94750BBE01695F7F4FCE0132
:1002200001960E94740C60EE71E00E94870CB80188
:100230000E94740CBC01CE010D960E94A10BCE0150
:1002400001960E94070BCE0107960E94070B409172
:100250000A0150910B0180EA93E09A83898380918F
:10026000A0049091A104A091A204B091A3048B8357
:100270009C83AD83BE83BE016F5F7F4F8DE494E0AE
:100280000E946C10BE01635F7F4F8DE494E00E947A
:10029000F3088DE494E00E947410CE010D960E9444
:1002A000070B62960FB6F894DEBF0FBECDBFDF918D
:1002B000CF911F910F9108956F927F928F929F928D
:1002C000AF92BF92CF92DF92EF92FF920F931F9364
:1002D000CF93DF9300D000D000D0CDB7DEB760E47D
:1002E0007FE186E595E00E94F80F0E9472074B01BE
:1002F0005C0126E040E051EE60E070E083EB94E0CA
:100300000E94940D6CE171E083EB94E00E94180967
:1003100060E082E00E94800861E082E00E94440880
:1003200060E082E00E94800860E085E00E94800832
:1003300061E085E00E94440860E085E00E9480085A
:1003400060E086E00E94800861E086E00E94440848
:1003500060E086E00E94800861E083E00E948008FF
:1003600061E083E00E94440861E083E00E9480082D
:1003700061E087E00E94800861E087E00E94440815
:1003800061E087E00E94800861E084E00E948008CC
:1003900061E084E00E94440861E084E00E948008FB
:1003A00097E4E92E94E0F92E00E010E06090250437
:1003B00070902604C3010E94F12DF70181937F0103
:1003C000282F30E0002E02C0220F331F0A94E2F7DC
:1003D00080910F0490911004282B392B3093100436
:1003E00020930F04FFEF6F1A7F0A70922604609229
:1003F00025040F5F1F4F06301105C1F610EAE12EEC
:100400001FE0F12E00E010E020E63AEE40E050E080
:1004100067E474E080E795E00E940218892B61F49C
:100420006CE271E083EB94E00E94180960E177E2EE
:1004300080E090E00E94A3076AE671E083EB94E01D
:100440000E94180960E775E0CE0101960E94041928
:10045000BE016F5F7F4F83EB94E00E942A09609199
:100460000E0170910F0183E894E00E94ED106091FD
:100470000C0170910D0188E694E00E94ED106091EE
:100480000A0170910B018DE494E00E94ED106CED77
:1004900075E080E090E00E94A30769E771E0CE017B
:1004A00001960E94750BCE0101960E94F000CE01CC
:1004B00001960E94070B6AE871E0CE0101960E9446
:1004C000750BCE0101960E94F000CE0101960E94AC
:1004D000070B4AE060914D04CE0101960E94C10BCA
:1004E000CE0101960E94F000CE0101960E94070BFA
:1004F0006CEA71E0CE0101960E94750BCE01019667
:100500000E94F000CE0101960E94070B4AE0609124
:100510004704CE0101960E94C10BCE0101960E94B4
:10052000F000CE0101960E94070B4AE0609148045A
:10053000CE0101960E94C10BCE0101960E94F000EF
:10054000CE0101960E94070B4AE060914904CE015A
:1005500001960E94C10BCE0101960E94F000CE01CF
:1005600001960E94070B4AE060914A04CE01019671
:100570000E94C10BCE0101960E94F000CE010196AF
:100580000E94070B4AE060914B04CE0101960E9445
:10059000C10BCE0101960E94F000CE0101960E948F
:1005A000070B4AE060914C04CE0101960E94C10BFA
:1005B000CE0101960E94F000CE0101960E94070B29
:1005C0006FEB71E083EB94E00E9401096FEB71E047
:1005D000CE0101960E94750BCE0101960E94F0009B
:1005E000CE0101960E94070B00E010E060ED71E083
:1005F00083EB94E00E9401094AE050E0B80183EBEC
:1006000094E00E94CF096AED71E083EB94E00E94D0
:1006100001096CED71E083EB94E00E940109C801CF
:100620000E94F12D4AE050E0682F83EB94E00E9495
:10063000E3096AED71E083EB94E00E94010960ED4B
:1006400071E0CE0101960E94750BCE0101960E94C9
:10065000F000CE0101960E94070B4AE0B801CE01DE
:1006600001960E94EE0BCE0101960E94F000CE0191
:1006700001960E94070B6CED71E0CE0101960E947D
:10068000750BCE0101960E94F000CE0101960E94EA
:10069000070BC8010E94F12D4AE0682FCE01019698
:1006A0000E94C10BCE0101960E94F000CE0101967E
:1006B0000E94070B0F5F1F4F0830110509F096CFFE
:1006C0004FEF6EE38DE194E00E942B1F882309F425
:1006D000D6C063EE71E083EB94E00E94180963EEEC
:1006E00071E0CE0101960E94750BCE0101960E9429
:1006F000F000CE0101960E94070B40E060E08DE122
:1007000094E00E94C81E40E060E08DE194E00E9409
:10071000D31D40E061E08DE194E00E94C81E40E0FE
:1007200061E08DE194E00E94D31D40E062E08DE144
:1007300094E00E94C81E40E062E08DE194E00E94D7
:10074000D31D40E063E08DE194E00E94C81E40E0CC
:1007500063E08DE194E00E94D31D40E064E08DE110
:1007600094E00E94C81E40E064E08DE194E00E94A5
:10077000D31D40E065E08DE194E00E94C81E40E09A
:1007800065E08DE194E00E94D31D40E066E08DE1DC
:1007900094E00E94C81E40E066E08DE194E00E9473
:1007A000D31D40E067E08DE194E00E94C81E40E068
:1007B00067E08DE194E00E94D31D40E068E08DE1A8
:1007C00094E00E94C81E40E068E08DE194E00E9441
:1007D000D31D40E069E08DE194E00E94C81E40E036
:1007E00069E08DE194E00E94D31D40E06AE08DE174
:1007F00094E00E94C81E40E06AE08DE194E00E940F
:10080000D31D40E06BE08DE194E00E94C81E40E003
:100810006BE08DE194E00E94D31D41E06CE08DE13E
:1008200094E00E94C81E41E06DE08DE194E00E94DA
:10083000C81E41E06EE08DE194E00E94C81E41E0D8
:100840006FE08DE194E00E94C81E00E010E0602F90
:100850008DE194E00E94FA1D90E0002E02C0880F06
:10086000991F0A94E2F7C82AD92AD0921204C0929A
:1008700011040F5F1F4F0F30110549F714C06AEFC5
:1008800071E083EB94E00E9418096AEF71E0CE01F9
:1008900001960E94750BCE0101960E94F000CE01D8
:1008A00001960E94070B0E9472076B017C0164E1B4
:1008B00072E0CE0101960E94750BCE0101960E9456
:1008C000F000CE0101960E94070BB6016819790964
:1008D0004AE0CE0101960E941A0CCE0101960E94B8
:1008E000F000CE0101960E94070B26960FB6F894F1
:1008F000DEBF0FBECDBFDF91CF911F910F91FF9053
:10090000EF90DF90CF90BF90AF909F908F907F90AF
:100910006F900895CF93DF9300D000D000D0CDB773
:10092000DEB76AE272E083EB94E00E9418096AE2A3
:1009300072E0CE0101960E94750BCE0101960E94D5
:10094000F000CE0101960E94070B64EF71E080E099
:1009500090E00E94A30760E084E00E948008269651
:100960000FB6F894DEBF0FBECDBFDF91CF910895D3
:10097000CF93DF93CDB7DEB72C970FB6F894DEBFD9
:100980000FBECDBF48E150E06DE274E083E894E033
:100990000E94B5106DE274E0CE0107960E94750BBF
:1009A00061E472E0CE0107960E94A00C8823C9F092
:1009B00066E472E083EB94E00E94180966E472E05A
:1009C000CE0101960E94750BCE0101960E94F000A7
:1009D000CE0101960E94070B86E595E00E948B0FE1
:1009E000D2C067E572E0CE0107960E94A00C882372
:1009F00041F061E082E00E94800881E080930A0477
:100A0000C2C064E672E0CE0107960E94A00C882363
:100A100039F060E082E00E94800810920A04B3C0BE
:100A200062E772E0CE0107960E94A00C882371F065
:100A300060E872E083EB94E00E94180960E083E0D4
:100A40000E94800881E080930D049DC06EE872E0F2
:100A5000CE0107960E94A00C882369F06DE972E030
:100A600083EB94E00E94180961E083E00E94800813
:100A700010920D0488C06CEA72E0CE0107960E94C5
:100A8000A00C882371F06AEB72E083EB94E00E9483
:100A9000180960E087E00E94800881E080930E04DE
:100AA00072C068EC72E0CE0107960E94A00C882309
:100AB00069F067ED72E083EB94E00E94180961E051
:100AC00087E00E94800810920E045DC066EE72E01E
:100AD000CE0107960E94A00C882341F061E085E0DA
:100AE0000E94800881E080930B044DC06DEE72E09F
:100AF000CE0107960E94A00C882339F060E085E0C3
:100B00000E94800810920B043EC065EF72E0CE0197
:100B100007960E94A00C882371F06CEF72E083EBC3
:100B200094E00E94180961E086E00E94800881E05C
:100B300080930C0428C063E073E0CE0107960E9406
:100B4000A00C882339F060E086E00E9480081092B3
:100B50000C0419C06BE073E0CE0107960E94A00C54
:100B6000882319F00E948A040EC061E173E0CE016F
:100B700001960E94750BCE0101960E94F000CE01F5
:100B800001960E94070B88E1EDE2F4E0DF011D927F
:100B90008A95E9F7CE0107960E94070B2C960FB6AF
:100BA000F894DEBF0FBECDBFDF91CF9108958F9235
:100BB0009F92AF92BF92CF92DF92EF92FF92CF932C
:100BC000DF9300D000D000D0CDB7DEB70E9472070F
:100BD0004B015C016BE18CE194E00E943B0F8823A8
:100BE00069F08CE194E00E945D0F6093FA037093CA
:100BF000FB038093FC039093FD0320C06CE273E041
:100C000083EB94E00E9418096CE273E0CE01019638
:100C10000E94750BCE0101960E94F000CE01019654
:100C20000E94070B80E090E0A6ECB2EC8093FA0300
:100C30009093FB03A093FC03B093FD036AE18BE167
:100C400094E00E943B0F882369F08BE194E00E94BE
:100C50005D0F6093FE037093FF03809300049093F5
:100C6000010420C062E473E083EB94E00E94180961
:100C700062E473E0CE0101960E94750BCE010196ED
:100C80000E94F000CE0101960E94070B80E090E0E8
:100C9000A6ECB2EC8093FE039093FF03A0930004B4
:100CA000B093010483E194E00E94170E8823C9F0F9
:100CB00083E194E00E94450E609302047093030464
:100CC000809304049093050483E194E00E94960EBF
:100CD00060930604709307048093080490930904BA
:100CE00028C068E573E083EB94E00E94180968E58A
:100CF00073E0CE0101960E94750BCE0101960E9411
:100D0000F000CE0101960E94070B80E090E0A6EC77
:100D1000B2EC8093020490930304A0930404B09374
:100D200005048093060490930704A0930804B093ED
:100D300009040E9472076093F6037093F70380938F
:100D4000F8039093F90340910C0150910D0180EA52
:100D500093E09A8389838091A0049091A104A0914B
:100D6000A204B091A3048B839C83AD83BE83BE0198
:100D70006F5F7F4F88E694E00E946C104DE150E079
:100D800066EF73E088E694E00E94781088E694E0CD
:100D90000E9474106BE673E083EB94E00E941809E4
:100DA0006BE673E0CE0101960E94750BCE010196B1
:100DB0000E94F000CE0101960E94070B83E894E0A8
:100DC0000E941A1190934604809345041816190640
:100DD00014F40E94B80480E795E00E949F180E94D6
:100DE00072076B017C016EE773E0CE0101960E94F1
:100DF000750BCE0101960E94F000CE0101960E9473
:100E0000070BB601681979094AE0CE0101960E94E4
:100E10001A0CCE0101960E94F000CE0101960E94AC
:100E2000070B60ED77E080E090E00E94A307269634
:100E30000FB6F894DEBF0FBECDBFDF91CF91FF900C
:100E4000EF90DF90CF90BF90AF909F908F900895DC
:100E50001F920F920FB60F9211242F933F938F93EF
:100E60009F93AF93BF938091AB049091AC04A091FA
:100E7000AD04B091AE043091AA0423E0230F2D37C6
:100E800020F40196A11DB11D05C026E8230F02968E
:100E9000A11DB11D2093AA048093AB049093AC04D0
:100EA000A093AD04B093AE048091AF049091B004D0
:100EB000A091B104B091B2040196A11DB11D80931F
:100EC000AF049093B004A093B104B093B204BF9167
:100ED000AF919F918F913F912F910F900FBE0F90E7
:100EE0001F9018952FB7F8946091AB047091AC04E3
:100EF0008091AD049091AE042FBF08953FB7F89450
:100F00008091AF049091B004A091B104B091B2046B
:100F100026B5A89B05C02F3F19F00196A11DB11D54
:100F20003FBFBA2FA92F982F8827820F911DA11D8F
:100F3000B11DBC01CD0142E0660F771F881F991FCC
:100F40004A95D1F708958F929F92AF92BF92CF9218
:100F5000DF92EF92FF926B017C010E947E074B01B2
:100F60005C01C114D104E104F10401F10E941A08EA
:100F70000E947E07DC01CB0188199909AA09BB09E7
:100F8000883E9340A105B10560F321E0C21AD10863
:100F9000E108F10888EE880E83E0981EA11CB11CC0
:100FA000C114D104E104F10419F7DBCFFF90EF90F5
:100FB000DF90CF90BF90AF909F908F9008957894DE
:100FC00084B5826084BD84B5816084BD85B582604E
:100FD00085BD85B5816085BDEEE6F0E080818160EC
:100FE0008083E1E8F0E010828081826080838081EC
:100FF00081608083E0E8F0E0808181608083E1EBC4
:10100000F0E0808184608083E0EBF0E080818160AB
:101010008083EAE7F0E08081846080838081826061
:10102000808380818160808380818068808310924A
:10103000C10008950895833081F028F4813099F03B
:101040008230A1F008958730A9F08830B9F084305B
:10105000D1F4809180008F7D03C0809180008F77D4
:1010600080938000089584B58F7702C084B58F7D0A
:1010700084BD08958091B0008F7703C08091B00047
:101080008F7D8093B0000895CF93DF9390E0FC01B3
:10109000E458FF4F2491FC01E057FF4F84918823CF
:1010A00061F190E0880F991FFC01E255FF4FC59157
:1010B000D491FC01EC55FF4FA591B491611109C089
:1010C0009FB7F8948881209582238883EC912E2302
:1010D0000BC0623061F49FB7F8943881822F8095FD
:1010E00083238883EC912E2B2C939FBF06C08FB750
:1010F000F894E8812E2B28838FBFDF91CF9108953C
:101100001F93CF93DF93282F30E0F901E859FF4F69
:101110008491F901E458FF4FD491F901E057FF4F52
:10112000C491CC23C9F0162F81110E941B08EC2F0B
:10113000F0E0EE0FFF1FEC55FF4FA591B4918FB774
:10114000F894111105C09C91ED2FE095E92302C0A0
:10115000EC91ED2BEC938FBFDF91CF911F91089510
:1011600080E090E00895CF92DF92EF92FF920F938C
:101170001F93CF93DF936C017A018B01C0E0D0E025
:10118000CE15DF0589F0D8016D918D01D601ED9165
:10119000FC910190F081E02DC6010995892B11F495
:1011A0007E0102C02196ECCFC701DF91CF911F9144
:1011B0000F91FF90EF90DF90CF900895611571052A
:1011C00079F0FB0101900020E9F73197AF01461B50
:1011D000570BDC01ED91FC910280F381E02D099425
:1011E00080E090E00895DC01ED91FC91DB01149624
:1011F0004D915C9115976D917C910280F381E02D6A
:1012000009940C94DE08DC01ED91FC910190F081D1
:10121000E02D0994DB01ED91FC9111970190F08193
:10122000E02DBC01CD0109946DE873E00C94DE085B
:101230000F931F93CF93DF93EC010E94DE088C0184
:10124000CE010E941409800F911FDF91CF911F9151
:101250000F9108950F931F93CF93DF93EC010E949A
:101260000A098C01CE010E941409800F911FDF91A1
:10127000CF911F910F9108954F925F926F927F923D
:10128000EF92FF920F931F93CF93DF93CDB7DEB70B
:10129000A1970FB6F894DEBF0FBECDBF7C01FA0157
:1012A000CB0119A2223008F42AE08E010F5D1F4FF6
:1012B000422E512C612C712CBF01A30192010E947E
:1012C0004A2DF901CA01015011096A3014F4605D18
:1012D00001C0695CD8016C93232B242B252B61F76B
:1012E000B801C7010E94DE08A1960FB6F894DEBFD0
:1012F0000FBECDBFDF91CF911F910F91FF90EF9067
:101300007F906F905F904F900895CF92DF92EF9211
:10131000FF920F931F93CF93DF93EC016A017B0140
:101320002115310579F4E881F9810190F081E02DF2
:10133000642FDF91CF911F910F91FF90EF90DF907D
:10134000CF9009942A303105E9F477FF1AC06DE295
:101350000E9403098C0144275527BA014C195D09E5
:101360006E097F092AE0CE010E943C09800F911F7F
:10137000DF91CF911F910F91FF90EF90DF90CF9071
:1013800008952AE0B701A601CE01DF91CF911F9108
:101390000F91FF90EF90DF90CF900C943C099A0151
:1013A000AB01770F660B770B0C948509211531057E
:1013B00041F4DC01ED91FC910190F081E02D642F6E
:1013C00009940C943C099A01462F50E060E070E0CB
:1013D0000C94D6091F920F920FB60F9211242F93DF
:1013E0008F939F93EF93FF93E091C304F091C40414
:1013F0008081E091C904F091CA0482FD12C09081FD
:101400008091CC048F5F8F732091CD04821751F0AF
:10141000E091CC04F0E0ED54FB4F958F8093CC0429
:1014200001C08081FF91EF919F918F912F910F903B
:101430000FBE0F901F9018951F920F920FB60F922C
:1014400011242F933F934F935F936F937F938F93C9
:101450009F93AF93BF93EF93FF9383EB94E00E942E
:101460000A0DFF91EF91BF91AF919F918F917F9165
:101470006F915F914F913F912F910F900FBE0F9001
:101480001F90189583EB94E00E94BF0C21E0892BFC
:1014900009F420E0822F0895E3EBF4E01382128236
:1014A00088EE93E0A0E0B0E084839583A683B783C1
:1014B00086EA93E09183808385EC90E0958784872A
:1014C00084EC90E09787868780EC90E0918B808B0E
:1014D00081EC90E0938B828B82EC90E0958B848BF7
:1014E00086EC90E0978B868B118E128E138E148E65
:1014F000089508950E94DF070E94790A0E945C0106
:10150000CCEFDCE00E94D7052097E1F30E94FC0CB1
:10151000F9CF8F929F92AF92BF92CF92DF92EF92CC
:10152000FF920F931F93CF93DF937C018B016C018C
:1015300082E0C80ED11C4701E5E08E0E911CC0E090
:10154000D0E0F60161916F014AE050E0C8010E94CD
:10155000E3095C016EE2C8010E9403098A0D9B1D2C
:10156000C80FD91FC814D90461F74AE050E0F70149
:101570006581C8010E94E3098C0F9D1FDF91CF9107
:101580001F910F91FF90EF90DF90CF90BF90AF90A1
:101590009F908F90089520EA33E0FC0131832083EF
:1015A000128213821482158208950F93FC0180EA3F
:1015B00093E09183808362834383248305830F9127
:1015C000089520EA33E0FC0131832083FB01408150
:1015D000518162817381FC014283538364837583EB
:1015E0000895FB014081518162817381FC01428336
:1015F0005383648375830895E0E5F5E080EA93E022
:101600009183808312821382148215820895FC01D3
:10161000808191810C940F29CF93DF93EC01888115
:101620009981009711F00E940F29198218821D825A
:101630001C821B821A82DF91CF9108950F931F9312
:10164000CF93DF93EC018B016F5F7F4F888199818E
:101650000E94032A009731F0998388831B830A83B1
:1016600081E001C080E0DF91CF911F910F9108953B
:10167000CF93DF93EC0188819981892B29F08A81AE
:101680009B818617970760F4CE010E941E0B88236A
:1016900041F08C819D81892B19F4E881F9811082B8
:1016A00081E0DF91CF910895EF92FF920F931F9306
:1016B000CF93DF93EC017B018A01BA010E94380BC2
:1016C000811104C0CE010E940C0B07C01D830C8346
:1016D000B701888199810E94EF2ACE01DF91CF91D5
:1016E0001F910F91FF90EF900895FC0111821082DD
:1016F00013821282158214826115710551F0FB016B
:1017000001900020E9F73197AF01461B570B0C946D
:10171000540B0895CF93DF93EC01FB0186179707D5
:1017200061F0608171816115710529F044815581F5
:101730000E94540B02C00E940C0BCE01DF91CF918E
:101740000895FC0111821082138212821582148284
:101750000C948A0BCF93DF93EC016115710559F05E
:10176000FB0101900020E9F73197AF01461B570BB1
:101770000E94540B02C00E940C0BCE01DF91CF914E
:1017800008950F931F93CF93DF93CDB7DEB72997BB
:101790000FB6F894DEBF0FBECDBF8C01862FF801C7
:1017A00011821082138212821582148250E0BE01CF
:1017B0006F5F7F4F90E00E940C2BBE016F5F7F4FE9
:1017C000C8010E94AA0B29960FB6F894DEBF0FBE7F
:1017D000CDBFDF91CF911F910F9108950F931F936C
:1017E000CF93DF93CDB7DEB762970FB6F894DEBF25
:1017F0000FBECDBF8C01CB01F80111821082138284
:1018000012821582148250E0BE016F5F7F4F0E94EA
:10181000F62ABE016F5F7F4FC8010E94AA0B629635
:101820000FB6F894DEBF0FBECDBFDF91CF911F91F1
:101830000F9108950F931F93CF93DF93CDB7DEB72A
:1018400061970FB6F894DEBF0FBECDBF8C01CB0100
:10185000F80111821082138212821582148250E0E4
:10186000BE016F5F7F4F0E940C2BBE016F5F7F4FE9
:10187000C8010E94AA0B61960FB6F894DEBF0FBE96
:10188000CDBFDF91CF911F910F910895EF92FF92FD
:101890000F931F93CF93DF93FC0124813581611552
:1018A000710511F480E019C041155105A9F07B01C3
:1018B000EC018A01020F131FB8010E94380B882324
:1018C00089F3288139818C819D81B701820F931F13
:1018D0000E94EF2A1D830C8381E0DF91CF911F913D
:1018E0000F91FF90EF900895CF93DF93EC01FB01F0
:1018F00044815581608171810E94460C811103C031
:10190000CE010E940C0BCE01DF91CF910895CF93B1
:10191000DF93EC016115710561F0FB01019000207E
:10192000E9F73197AF01461B570B0E94460C811116
:1019300003C0CE010E940C0BCE01DF91CF91089520
:10194000FC0124813581232B31F421E061157105DF
:10195000A1F0FB0108C0FC01808191816115710536
:1019600031F421E0FC018081882339F005C00E9418
:10197000E62A21E0892B09F020E0822F0895FC015E
:10198000918D228D892F90E0805C9F4F821B910961
:101990008F7399270895FC01918D828D981731F0EE
:1019A000828DE80FF11D858D90E008958FEF9FEFF8
:1019B0000895FC01918D828D981761F0828DDF0171
:1019C000A80FB11D5D968C91928D9F5F9F73928F32
:1019D00090E008958FEF9FEF0895FC01538D448DA3
:1019E000252F30E0842F90E0821B930B541710F0CA
:1019F000CF9608950197089582E49AE0892B49F0E3
:101A000080E090E0892B29F00E94420A81110C9419
:101A100000000895FC01848DDF01A80FB11DA35AB9
:101A2000BF4F2C91848D90E001968F739927848FFE
:101A3000A689B7892C93A089B1898C9180648C93F5
:101A4000938D848D981306C00288F389E02D8081E0
:101A50008F7D80830895CF93DF93EC01888D882359
:101A6000C9F0EA89FB89808185FD05C0A889B9890B
:101A70008C9186FD0FC00FB607FCF5CF808185FFE6
:101A8000F2CFA889B9898C9185FFEDCFCE010E9454
:101A90000A0DE7CFDF91CF910895EF92FF920F9358
:101AA0001F93CF93DF93EC0181E0888F9B8D8C8D0A
:101AB000981305C0E889F989808185FD24C0F62E38
:101AC0000B8D10E00F5F1F4F0F731127E02E8C8DD1
:101AD000E8120CC00FB607FCFACFE889F9898081BB
:101AE00085FFF5CFCE010E940A0DF1CF8B8DFE014F
:101AF000E80FF11DE35AFF4FF0820B8FEA89FB8953
:101B00008081806207C0EE89FF896083E889F98956
:101B100080818064808381E090E0DF91CF911F918C
:101B20000F91FF90EF900895CF92DF92EF92FF9286
:101B30001F93CF93DF93EC016A017B01122FE88999
:101B4000F98982E080834115514E61057105B1F03C
:101B500060E079E08DE390E0A70196010E944A2DB4
:101B6000DA01C9010197A109B109B695A795979521
:101B70008795AC01411580E15807A8F0E889F989FB
:101B8000108260E874E88EE190E0A70196010E945F
:101B90004A2DBA01A901415051096109710976958F
:101BA000679557954795EC85FD855083EE85FF85B4
:101BB0004083188EEC89FD891083EA89FB89808136
:101BC00080618083EA89FB89808188608083EA89DB
:101BD000FB89808180688083EA89FB8980818F7D91
:101BE0008083DF91CF911F91FF90EF90DF90CF9096
:101BF0000895DC01ED91FC910190F081E02D0994B4
:101C0000089560E470E08EEE95E00E94DF1F6EEFB5
:101C100070E08EEE95E00E94F90D8EEE95E00E9448
:101C20005E206FE070E080E090E00C94A307CF931B
:101C3000DF93EC018EEE95E00E94CB1FCE010E9457
:101C4000010E60E470E08EEE95E00E94DF1F67EE0B
:101C500070E08EEE95E00E94F90D8EEE95E00E9408
:101C60005E2041E050E060E470E08EEE95E00E947E
:101C70005B208EEE95E00E94381F21E0029709F06C
:101C800020E0822FDF91CF910895CF93DF9360E41E
:101C900070E08EEE95E00E94DF1F63EE70E08EEE46
:101CA00095E00E94F90D8EEE95E00E945E2062E3C1
:101CB00070E080E090E00E94A30743E050E060E421
:101CC00070E08EEE95E00E945B208EEE95E00E9423
:101CD000301F892BD1F38EEE95E00E94381FD82F4C
:101CE00080E0C82F8EEE95E00E94381FC82BD92BBC
:101CF0008EEE95E00E94381FBE0180E090E00E94C9
:101D00003F2C22E538EB4FE253E40E94CD2C20E03B
:101D100030E040E857E30E94CD2C26E636E64BE360
:101D200052E40E94312BDF91CF910895CF93DF933E
:101D300060E470E08EEE95E00E94DF1F65EE70E0DB
:101D40008EEE95E00E94F90D8EEE95E00E945E20E9
:101D500062E370E080E090E00E94A30743E050E07F
:101D600060E470E08EEE95E00E945B208EEE95E0E0
:101D70000E94301F892BD1F38EEE95E00E94381F10
:101D8000D82F80E0C82F8EEE95E00E94381FC82B18
:101D9000D92B8EEE95E00E94381FBE0180E090E0C6
:101DA0000E943F2C20E030E04AEF52E40E94CD2C0C
:101DB00020E030E040E857E30E94CD2C20E030E006
:101DC00040EC50E40E94312BDF91CF9108950895AB
:101DD0001F93CF93DF9300D0CDB7DEB7162FFC0152
:101DE00060818EEE95E04A8359830E94D51F612F52
:101DF0008EEE95E00E948C1F5981652F8EEE95E046
:101E00000E948C1F4A81642F8EEE95E00E948C1FE9
:101E10008EEE95E00F900F90DF91CF911F910C9473
:101E20005E201F93CF93DF93EC01162F68818EEE17
:101E300095E00E94D51F612F8EEE95E00E948C1FC9
:101E40008EEE95E00E945E2042E068818EEE95E085
:101E50000E9458208EEE95E00E94381FD82F80E017
:101E6000C82F8EEE95E00E94381F8C2B9D2BDF91A2
:101E7000CF911F910895CF93DF93EC0168838EEE8D
:101E800095E00E94CB1F66E0CE010E94110F8435C1
:101E9000910511F080E00EC067E0CE010E94110FA5
:101EA00081159440B9F740E050E061E0CE010E9416
:101EB000E80E81E0DF91CF910895CF93DF9365E045
:101EC0000E94110FEC01BC017F7080E090E00E9445
:101ED0003F2C20E030E040E85DE30E94CD2CD4FFB1
:101EE00006C020E030E040E853E40E94312BDF914F
:101EF000CF9108958FEF9FEF9093570580935605EC
:101F000008951F920F920FB60F9211240F900FBEDB
:101F10000F901F901895A8950895DA01F901603483
:101F20008FE178071CF46115710539F489E090E0C0
:101F30008D939C9380E49FE158C0603A8FE07807CE
:101F40003CF088E090E08D939C9380EA9FE04DC048
:101F5000603D87E078073CF087E090E08D939C93AC
:101F600080ED97E042C0683E83E078073CF086E071
:101F700090E08D939C9388EE93E037C0643F81E0BE
:101F800078073CF085E090E08D939C9384EF91E09E
:101F90002CC06A3F71053CF084E090E08D939C93E7
:101FA0008AEF90E022C0683771053CF083E090E052
:101FB0008D939C9388E790E018C06C3371053CF0DA
:101FC00082E090E08D939C938CE390E00EC06E31A4
:101FD00071053CF081E090E08D939C938EE190E060
:101FE00004C01D921C928FE090E09183808308953D
:101FF0000F931F93CF93DF9300D0CDB7DEB78C0143
:102000009E012F5F3F4FAC010E948D0FF801808130
:1020100083FD02C098E001C098E28770892B98E1A7
:102020000FB6F894A895909360000FBE809360005F
:1020300089819A810F900F90DF91CF911F910F911D
:102040000895DC01ED91FC91048CF58DE02D09944F
:1020500020EA33E0FC0131832083FB014089518970
:1020600062897389FC014283538364837583089575
:10207000FC01848995890895FC01818D928D0895D4
:10208000CF93DF931F92CDB7DEB76983DC01ED916B
:10209000FC910280F381E02D41E050E0BE016F5FD2
:1020A0007F4F09950F90DF91CF9108950895CF93B9
:1020B000DF93EC01888D843061F00E94D715E88DA4
:1020C000F0E0EE0FFF1FEA52FA4F1182108284E017
:1020D000888FDF91CF910895FC01178A168A6E5F71
:1020E0007F4F808D0C945517FC01808D0C949B17AD
:1020F000CF93DF93EC019A018E899F89AB01BC01DC
:10210000888D0E940E172E893F89280F391F3F8B1B
:102110002E8BDF91CF9108950F931F93CF93DF9371
:102120001F92CDB7DEB7FC01218D328D232B61F0DC
:102130008C0141E050E0BE016F5F7F4F808D0E94B7
:102140005416181619061CF08FEF9FEF08C0F801FF
:10215000818D928D0197928F818F898190E00F9070
:10216000DF91CF911F910F910895CF93DF93FC01E1
:10217000218D328D2115310519F48FEF9FEF11C09C
:10218000EC014217530708F0A901888D0E945416EC
:102190001816190694F7298D3A8D281B390B3A8F9A
:1021A000298FDF91CF910895CF93DF931F92CDB701
:1021B000DEB7FC01218D328D232B49F0BE016F5F0C
:1021C0007F4F808D0E94DF16898190E002C08FEFE3
:1021D0009FEF0F90DF91CF910895EF92FF921F93A1
:1021E000CF93DF93FC01208D243011F080E01CC0E0
:1021F0007B01EC0110E0812F0E94AF15811102C01C
:10220000188F05C08831E1F31F5F1430A1F7888D66
:10221000843061F3FD86EC861A8E198E20E0A701CA
:1022200062E00E94011681E0DF91CF911F91FF9043
:10223000EF9008950F931F93CF93DF93CDB7DEB741
:1022400028970FB6F894DEBF0FBECDBF8C01F80102
:10225000818D928D892B49F0D801ED91FC910284FA
:10226000F385E02DC8010995F2CF808D0E94B41648
:102270001816190654F548E050E0BE016F5F7F4F15
:10228000D80158968C910E9454169C011816190674
:10229000D4F4BE016F5F7F4FC8010E960E94F10A11
:1022A0008D8190E0982F88272E81820F911DF80153
:1022B000958B848B2F8130E0322F22278885280F41
:1022C000311D328F218FC90102C080E090E0289635
:1022D0000FB6F894DEBF0FBECDBFDF91CF911F9137
:1022E0000F9108958F929F92AF92BF92CF92DF92FB
:1022F000EF92FF920F931F93CF93DF9300D000D004
:1023000000D0CDB7DEB7FC01208D243009F068C0C5
:102310006A017B018C0153E0852E54E0952EA12C9F
:10232000B12CC4010E945513811103C0F801A08E85
:102330000AC08831D9F3FFEFAF1ABF0A9394E4E0E3
:10234000AE16B10471F7F801808D843009F448C0ED
:1023500096E0E0E1F1E0DE01119601900D929A9590
:10236000E1F7F70193819F779C8394819D83958109
:102370009E83B7016E5F7F4F90E0982F882744E0DF
:1023800050E0845F9B4F0E942613F801E08CF12CF3
:10239000F4E0EF0EF11CFE2CEE246D2DC7014096EB
:1023A0000E9492126C2DC70141960E949212F80170
:1023B000808D90E0982F882746E050E0BE016F5F47
:1023C0007F4F8A5F9B4F0E942613F801128E118E59
:1023D00020E8A60162E0808D0E94011681E001C024
:1023E00080E026960FB6F894DEBF0FBECDBFDF911A
:1023F000CF911F910F91FF90EF90DF90CF90BF9002
:10240000AF909F908F900895CF93DF93EC011B8244
:102410001A8288EE93E0A0E0B0E08C839D83AE83C7
:10242000BF8388EB93E099838883CE010E960E9448
:10243000CB0A84E0888FDF91CF910895CF92DF920D
:10244000EF92FF920F931F93CF93DF93CDB7DEB739
:10245000AF970FB6F894DEBF0FBECDBF8C016B01F6
:102460007A01CE0101960E94CB0ACE0109960E9404
:102470000412CE018A960E94CB0A60E775E0CE0175
:1024800084960E941C19BE016C5D7F4FCE0101969F
:102490000E943E19AE01465D5F4FB601CE01019626
:1024A0000E94AD1B81309105C1F4D801ED91FC91E2
:1024B0000488F589E02D80EA93E09DA38CA38CA588
:1024C0009DA5AEA5BFA58EA39FA3A8A7B9A7A70149
:1024D000BE016C5D7F4FC8010995AF960FB6F894A9
:1024E000DEBF0FBECDBFDF91CF911F910F91FF9047
:1024F000EF90DF90CF9008950F9300E020E040E050
:1025000060E088E595E00E94D50A0F9108958EBDA0
:1025100000000DB407FEFDCF8EB508952A980895EA
:102520002A9A08951F93CF93DF9300D0CDB7DEB7DB
:10253000182F6A8399830E948E1280EF0E9487125F
:102540009981892F0E948712812F0E9487126A81A8
:10255000862F0E9487120E94901281E00F900F90A8
:10256000DF91CF911F910895CF93DF93EC016CE23F
:1025700071E080E090E00E94A3070E943B1C229A39
:102580008091EC05882399F02FB7F8948091EC05A1
:10259000813059F48DB38093EA059DB38091EB05AA
:1025A000809589238DBB2FBF02C02093EA0580E56B
:1025B0008CBD1DBC60E880E090E00E94921265E551
:1025C0008BE190E00E94921265E58AE190E00E9422
:1025D00092128091EC05882351F09FB7F8942091D6
:1025E000EC058091EA05213029F58DBB9FBF80E085
:1025F00090E49983888380E090E69987888780E0DB
:1026000098E49B838A8380E098E69B878A8780E0B2
:1026100090E59D838C8380E090E79D878C8780E0A8
:1026200098E59F838E8380E098E79F878E87DF9170
:10263000CF9108958FBFDBCF9B0190E00496982F38
:102640008827642F820F931F0C949212CF92DF92EF
:10265000EF92FF920F931F93CF93DF93EC017A01D8
:102660008B016C01C40ED51ECC15DD05A1F00E94B6
:102670008E1280EF0E9487128D2F0E9487128C2F5E
:102680000E9487122196F80181918F010E94871282
:102690000E949012E9CFC701DF91CF911F910F9156
:1026A000FF90EF90DF90CF9008951F93CF93DF932B
:1026B0001F92CDB7DEB7182F99830E948E128FE03C
:1026C0000E9487129981892F0E948712812F0E9470
:1026D000871280E00E94871289830E94901289816C
:1026E0000F90DF91CF911F91089590E00496982F5D
:1026F0008827860F971F0C9455131F93CF93DF9352
:10270000182F60E270E00E947513C82FD0E061E2DC
:1027100070E0812F0E947513DC2FCC279E01282B9F
:10272000C901DF91CF911F910895FF920F931F93DD
:10273000CF93DF93F62EC0E0D0E08F2D0E947D1363
:102740008C01892B21F08F2D0E947D13EC01C01785
:10275000D10799F7CE01DF91CF911F910F91FF9093
:1027600008951F93CF93DF93182F66E270E00E94C5
:102770007513C82FD0E067E270E0812F0E947513B7
:10278000DC2FCC279E01282BC901DF91CF911F910F
:102790000895FF920F931F93CF93DF93F62EC0E01F
:1027A000D0E08F2D0E94B1138C01892B21F08F2D49
:1027B0000E94B113EC01C017D10799F7CE01DF9148
:1027C000CF911F910F91FF9008956F927F928F92FA
:1027D0009F92AF92BF92CF92DF92EF92FF920F93B0
:1027E0001F93CF93DF931F92CDB7DEB7882E962E1F
:1027F0006A01590164E270E0892D99830E94751382
:10280000E82EF12C65E270E0892D0E947513FE2CF4
:10281000EE24E82A37016C0C7D1CA3015770E82CCC
:102820009981F92EE90CF11CE90CF11CF70180816A
:102830009181840F951F9A01200F311F213038405C
:1028400098F060E078E06B01C41AD50AA601B501E2
:102850000E942613A8014C195D09B5016C0D7D1D60
:10286000F7018081918102C0A801B5010E94261361
:10287000060D171D412F64E270E0892D0E941C1384
:10288000402F65E270E0892D0F90DF91CF911F916D
:102890000F91FF90EF90DF90CF90BF90AF909F90FF
:1028A0008F907F906F900C941C13CF92DF92EF92D9
:1028B000FF920F931F93CF93DF93EC017A018B016B
:1028C0006C01C40ED51ECC15DD05A9F00E948E1238
:1028D0008FE00E9487128D2F0E9487128C2F0E94FA
:1028E0008712219680E00E948712F80181938F0160
:1028F0000E949012E8CFC701DF91CF911F910F91F5
:10290000FF90EF90DF90CF900895AF92BF92CF925B
:10291000DF92EF92FF920F931F93CF93DF9300D03C
:10292000CDB7DEB75A834983590129813A8137707F
:102930006C01C60ED11CC60ED11CF6018085918596
:10294000820F931FA801420F531F4130584098F047
:10295000E0E0F8E07F01E21AF30AA701B5010E9466
:102960005514A8014E195F09B5016E0D7F1DF601C2
:102970008085918502C0A801B5010F900F90DF916D
:10298000CF911F910F91FF90EF90DF90CF90BF906C
:10299000AF900C9455148F929F92AF92BF92CF92AA
:1029A000DF92EF92FF920F931F93CF93DF936C010F
:1029B000962E5A017901802E68E270E0892D0E94DE
:1029C0007513C82FD0E069E270E0892D0E9475135D
:1029D000DC2FCC27C82B87019501AE01692DC601DC
:1029E0000E94851481101AC0CE0DDF1D4D2F68E2A4
:1029F00070E0892D0E941C134C2F69E270E0892D34
:102A0000DF91CF911F910F91FF90EF90DF90CF90CA
:102A1000BF90AF909F908F900C941C13DF91CF913B
:102A20001F910F91FF90EF90DF90CF90BF90AF90EC
:102A30009F908F900895CF93C62F61E070E08C2F08
:102A40000E941C1361E070E08C2F0E9475138111AD
:102A5000F9CFCF9108950F93FC0130E080E092E12F
:102A6000AAE7B0E0481759076A077B0740F4B69514
:102A7000A795979587953F5F3630A1F737E091E0AE
:102A80009327222311F020E501C020E7892F8695A6
:102A90000C70082B022B0083917091830F91089585
:102AA0002091EC05222399F04FB7F8942091EC0582
:102AB000213059F42DB32093EA053DB32091EB0565
:102AC000209523232DBB4FBF02C04093EA058CBD48
:102AD0009DBD08958091EC05882361F09FB7F8941F
:102AE0002091EC058091EA05213019F48DBB9FBF40
:102AF00008958FBF089590E0982F882744E050E014
:102B0000845F9B4F0C94261362E070E00C94751365
:102B1000CF93DF93C82FD62F472F64E070E00E9439
:102B20001C134D2F65E070E08C2FDF91CF910C943A
:102B30001C13462F62E070E00C941C13CF93DF93BC
:102B4000C82FD62F472F60E170E00E941C134D2F35
:102B500061E170E08C2FDF91CF910C941C130F93E7
:102B60001F93CF93DF9300D01F92CDB7DEB7182FFE
:102B700000E021E040E059E06DE370E0CE01019615
:102B80000E942B1589819A810E94501563E070E0A4
:102B9000812F0E9475138B830E946A158B810F9081
:102BA0000F900F90DF91CF911F910F9108950F9388
:102BB0001F93CF93DF9300D0CDB7DEB7182F00E07F
:102BC00021E040E059E06DE370E0CE0101960E9403
:102BD0002B1589819A810E94501540E150E0612FA8
:102BE0008EE595E00E941B156FEF812F0E949915CD
:102BF0000E946A150F900F90DF91CF911F910F9156
:102C00000895CF92DF92EF92FF920F931F93CF938D
:102C1000DF9300D0CDB7DEB79FEF960F9530C0F5AC
:102C2000F22E6A01E62E182F0E94D71500E021E04F
:102C300040E059E06DE370E0CE0101960E942B1553
:102C400089819A810E9450154E2D4F2960E070E0D5
:102C5000812F0E941C13C114D10411F0B6010AC0C7
:102C600060916E0570916F056F5F7F4F70936F0578
:102C700060936E05812F0E94881541E050E0612F1E
:102C80008EE595E00E941B150E946A1581E001C047
:102C900080E00F900F90DF91CF911F910F91FF90E7
:102CA000EF90DF90CF900895AF92BF92CF92DF92D6
:102CB000EF92FF920F931F93CF93DF9300D0CDB786
:102CC000DEB7182F5B016A0100E021E040E059E027
:102CD0006DE370E0CE0101960E942B1589819A81E7
:102CE0000E945015612F8EE595E00E94C9137C016A
:102CF0000097A1F463E070E0812F0E947513843186
:102D000019F1882309F121E030E08C3111F420E041
:102D100030E0EE24FF24E21AF30A16C0C816D906E2
:102D20000CF476011E141F047CF400E09701A50149
:102D3000612F8EE595E00E94CB1440E450E0612FB6
:102D40008EE595E00E941B150E946A15C7010F9041
:102D50000F90DF91CF911F910F91FF90EF90DF9037
:102D6000CF90BF90AF9008950F931F93CF93DF93B1
:102D700000D000D0CDB7DEB7182F00E021E040E052
:102D800059E06DE370E0CE0101960E942B15898118
:102D90009A810E945015612F8EE595E00E94C9131B
:102DA0008B839C830E946A158B819C810F900F906E
:102DB0000F900F90DF91CF911F910F910895EF9297
:102DC000FF920F931F93CF93DF9300D0CDB7DEB761
:102DD000182F7B0100E021E040E059E06DE370E056
:102DE000CE0101960E942B1589819A810E9450156F
:102DF00001E021E030E0A701612F8EE595E00E941F
:102E0000CB140E946A1581E090E00F900F90DF9143
:102E1000CF911F910F91FF90EF9008958F929F9205
:102E2000AF92BF92DF92EF92FF920F931F93CF93D7
:102E3000DF9300D0CDB7DEB7D82E5B014A01790110
:102E400000E021E040E059E06DE370E0CE01019642
:102E50000E942B1589819A810E9450156D2D8EE557
:102E600095E00E9495138E159F0530F46D2D8EE52B
:102E700095E00E9495137C0187019401A5016D2DB9
:102E80008EE595E00E94E5130E946A15C7010F9038
:102E90000F90DF91CF911F910F91FF90EF90DF90F6
:102EA000BF90AF909F908F900895CF92DF92EF9256
:102EB000FF920F931F93CF93DF9300D0CDB7DEB770
:102EC000FB019081911109C09181911106C09281FD
:102ED000911103C09381992309F141155105F1F036
:102EE0006A017F01182F00E021E040E059E06DE326
:102EF00070E0CE0101960E942B1589819A810E9473
:102F00005015B701812F0E947B15B601812F0E94B9
:102F10009E150E946A1581E090E002C080E090E07A
:102F20000F900F90DF91CF911F910F91FF90EF9035
:102F3000DF90CF9008950F931F93CF93DF9300D02E
:102F4000CDB7DEB7182F00E021E040E059E06DE397
:102F500070E0CE0101960E942B1589819A810E9412
:102F6000501540E250E0612F8EE595E00E941B1560
:102F7000812F0E94841584FD21C0812F0E94841519
:102F800083FF09C068E1812F0E9499150E946A158C
:102F900080E090E01BC00E946A150E941A0800E0C1
:102FA00021E040E059E06DE370E0CE0101960E941F
:102FB0002B1589819A810E945015DACF60E1812F0B
:102FC0000E9499150E946A1581E090E00F900F9081
:102FD000DF91CF911F910F91089544E050E0BC0123
:102FE00081E090E00C94261344E050E0BC0185E0C1
:102FF00090E00C94261344E050E0BC018FE090E098
:103000000C9426132F923F924F925F926F927F9271
:103010008F929F92AF92BF92CF92DF92EF92FF92E8
:103020000F931F93CF93DF9300D000D000D0CDB784
:10303000DEB76C011B0129013A014701580188E7FD
:1030400095E0F601978386838EE595E00E94B412A1
:1030500080E590E00E94501546E050E0B10189E023
:1030600090E00E94261300E020E040E060E0CE0106
:1030700001960E94D50ACE0103960E94FB170E947A
:103080006A1585017401A3019201B101F6018681DF
:1030900097810E949E278C010197B9F580E590E009
:1030A0000E945015F60166817781CE0101960E943B
:1030B000D822CE0103960E94FB17F6016681778124
:1030C000CE0101960E94EE22CE0103960E94ED17DA
:1030D000F60166817781CE0101960E94E322CE013E
:1030E00003960E94F4170E946A15F60166817781A3
:1030F000CE0101960E94F9228B819C81AD81BE8117
:10310000F60182839383A483B583C80126960FB604
:10311000F894DEBF0FBECDBFDF91CF911F910F910D
:10312000FF90EF90DF90CF90BF90AF909F908F90E7
:103130007F906F905F904F903F902F900895EF9207
:10314000FF920F931F93CF93DF9300D000D000D056
:10315000CDB7DEB7FC01268137812115310509F491
:1031600043C08C01C9010E94DD277C01029721F038
:1031700084E0E816F104D1F580E590E00E94501556
:10318000F80166817781CE0101960E94D822CE0196
:1031900003960E94FB17F80166817781CE010196A4
:1031A0000E94EE22CE0103960E94ED17F80166817F
:1031B0007781CE0101960E94E322CE0103960E9400
:1031C000F4170E946A15F80166817781CE01019695
:1031D0000E94F9228B819C81AD81BE81F80182839E
:1031E0009383A483B58302C0E12CF12CC7012696FA
:1031F0000FB6F894DEBF0FBECDBFDF91CF911F9108
:103200000F91FF90EF900895CF93DF93EC010E9410
:10321000CB0A80E590E00E945015BE016E5F7F4FA3
:1032200044E050E08FE090E00E9455140E946A153F
:10323000CE01DF91CF91089520EA33E0FC01318384
:103240002083FB014281538164817581FC014283AB
:1032500053836483758308950F9300E020E040E07A
:1032600060E08EED95E00E94D50A8BEB95E00E9420
:10327000041280E795E00F910C94CB0AFB01428188
:10328000538164817581FC01428353836483758318
:10329000178216820895CF93DF93FB0120E080E030
:1032A00090E0AAE03191332301F160ED630F6A30C1
:1032B00080F4A89FB001A99F700D1124CB01C09785
:1032C000830F911D37FD9A958F3F910559F350F368
:1032D00013C03E3289F4233079F0EA01C20FD11DC8
:1032E0008A832F5F80E090E0DDCF233029F4FA015C
:1032F000858381E090E002C080E090E0DF91CF9193
:1033000008950F9300E020E040E060E084EE95E057
:103310000E94D50A0F9108958F929F92AF92BF920B
:10332000CF92DF92EF92FF920F931F93CF93DF9391
:1033300000D000D01F92CDB7DEB78C016B010E9488
:103340007207F801778366837627672776277A8363
:103350006983085F1F4F42E050E0BE016F5F7F4FFF
:10336000C8010E94781081E090E09C838B8342E04A
:1033700050E0BE016D5F7F4FC8010E94781080E071
:1033800091E09C838B8342E050E0BE016D5F7F4FF4
:10339000C8010E9478101C821B8242E050E0BE01EE
:1033A0006D5F7F4FC8010E94781042E050E0BE017F
:1033B0006D5F7F4FC8010E94781042E050E0BE016F
:1033C0006D5F7F4FC8010E9478105601F501808122
:1033D000882329F1C6017C01FC012081019621117D
:1033E00016C0570147018C189D081814190494F44D
:1033F0008D8241E050E0BE016B5F7F4FC8010E94AB
:103400007810A401B601C8010E94781003C02E32C2
:1034100011F7E7CF6701FFEFCF1ADF0AD7CF1D8281
:1034200041E050E0BE016B5F7F4FC8010E94781001
:10343000E12CFF24F394FC82EB8242E050E0BE01D9
:103440006D5F7F4FC8010E947810FC82EB8242E0E2
:1034500050E0BE016D5F7F4FC8010E94781081E08F
:1034600090E00F900F900F900F900F90DF91CF9101
:103470001F910F91FF90EF90DF90CF90BF90AF9092
:103480009F908F9008954F925F926F927F928F924C
:103490009F92AF92BF92CF92DF92EF92FF920F93E3
:1034A0001F93CF93DF93CDB7DEB765970FB6F89430
:1034B000DEBF0FBECDBF7C015B016A010E947207B7
:1034C0002B013C018701085F1F4F4501A12CB12C46
:1034D000C8010E941A1118161906A4F00E9472075A
:1034E000DC01CB0184199509A609B709881699064C
:1034F000AA06BB06D0F062E370E080E090E00E9494
:10350000A307E6CFF7014281538164817581808DE5
:10351000918DA28DB38D481759076A077B0741F437
:10352000848D958DC59721F406C02FEF3FEFFDC028
:103530002EEF3FEFFAC0C8010E943C100C97ECF050
:103540004CE050E0BE016F5F7F4FC8010E94B51094
:103550006C818B810E94CC229A8B898BF701E6804B
:10356000F7806A8189810E94CC22E816F90641F42D
:1035700089899A8997FF04C009C02DEF3FEFD5C014
:10358000C8010E9456102CEF3FEFCFC08F70927091
:10359000892B31F0C8010E9456102BEF3FEFC5C0B8
:1035A00068858F810E94CC225C01892B31F4C8018F
:1035B0000E9456102AEF3FEFB8C0E12CF12C6E812B
:1035C0008D810E94CC22E816F90640F541E050E0DA
:1035D000BE01635F7F4FC8010E94B5108D858111C8
:1035E00013C08D858111F2CFC8010E948C10C801D3
:1035F0000E948C10C8010E948C10C8010E948C107F
:10360000FFEFEF1AFF0ADBCF8D859FEF980F9D87A5
:10361000882339F3C8010E948C10F6CFE12CF12CDD
:1036200041E050E0BE016D5E7F4FC8010E94B510C1
:103630008B89982F907C61F4882371F08B899FEFA0
:10364000980F9B8B882341F0C8010E948C10F6CF05
:10365000C8010E948C101B8A8B898111E1CF42E046
:1036600050E0BE01615F7F4FC8010E94B51042E08B
:1036700050E0BE01635F7F4FC8010E94B510C801D2
:103680000E948C10C8010E948C10C8010E948C10EE
:10369000C8010E948C1042E050E0BE016F5E7F4F77
:1036A000C8010E94B5108F8598898115914001F558
:1036B0002D853E8532272327322721303105C1F45D
:1036C00089899A898115944031F0C8010E94561069
:1036D00027EF3FEF2AC0B6016E5F7F4F44E050E016
:1036E000C8012C8B3D8B0E94B5102C893D891DC0D3
:1036F000812C912C89899A8998278927982788165F
:10370000990638F4C8010E948C108FEF881A980A25
:10371000F1CFEFEFEE1AFE0AEA14FB0409F080CFB6
:10372000C8010E94561026EF3FEFC90165960FB6FB
:10373000F894DEBF0FBECDBFDF91CF911F910F91E7
:10374000FF90EF90DF90CF90BF90AF909F908F90C1
:103750007F906F905F904F9008958F929F92AF925D
:10376000BF92CF92DF92EF92FF920F931F93CF936E
:10377000DF9300D000D000D0CDB7DEB77C014B0185
:103780005A010E944B198C01892B09F05BC0F7018B
:1037900042815381648175818091E6059091E705AE
:1037A000A091E805B091E905481759076A077B071A
:1037B00009F44BC00E9472076701F8E0CF0ED11CDC
:1037C0006F7077277C5FC6010E94ED10813009F091
:1037D0003EC080EA93E09A838983F70182819381D6
:1037E000A481B5818B839C83AD83BE8345E350E088
:1037F000BE016F5F7F4FC6010E946C10892B19F4C8
:1038000000E010E01BC0B401C7010E948C19892B95
:10381000B9F3C6010E947410892B91F383E0882EBE
:10382000912CA50168E873E1C7010E94431A8C013D
:10383000F1E08F1A910811F0019699F3C6010E94E8
:10384000571005C001E010E002C00EEF1FEFC801E5
:1038500026960FB6F894DEBF0FBECDBFDF91CF9195
:103860001F910F91FF90EF90DF90CF90BF90AF909E
:103870009F908F900895CF93CFB7F8948091ED05E6
:10388000811127C0EAE9F0E08491E6E8F0E0949144
:10389000E82FF0E0EE0FFF1FE255FF4FA591B49126
:1038A000EC91E92321F461E08AE00E94800861E064
:1038B0008AE00E9444088CB580618CBD8CB5806420
:1038C0008CBD61E08DE00E94440861E08BE00E94C5
:1038D00044088091ED058F5F8093ED05CFBFCF91B8
:1038E0000895FC01148215821682178208951F9391
:1038F000CF93DF931F92CDB7DEB7162FFC01608107
:103900008EEE95E049830E94D51F612F8EEE95E0E3
:103910000E948C1F4981642F8EEE95E00E948C1FBF
:103920008EEE95E00F90DF91CF911F910C945E2069
:103930001F93CF93DF9300D0CDB7DEB7162FFC01D6
:1039400060818EEE95E04A8359830E94D51F612FD6
:103950008EEE95E00E948C1F5981652F8EEE95E0CA
:103960000E948C1F4A81642F8EEE95E00E948C1F6E
:103970008EEE95E00F900F90DF91CF911F910C94F8
:103980005E201F93CF93DF93EC01162F68818EEE9C
:1039900095E00E94D51F612F8EEE95E00E948C1F4E
:1039A0008EEE95E00E945E2041E068818EEE95E00B
:1039B0000E945820C8EED3E08EEE95E00E94301FA2
:1039C0001816190634F0209711F02197F5CF80E0F2
:1039D00006C0CD2BE1F38EEE95E00E94381FDF91FB
:1039E000CF911F9108950F93CF93DF93EC016370F4
:1039F00041704295407F2F70422B6295660F607E2A
:103A0000462B6EE10E94771C002321F0083018F04D
:103A100007E001C001E08FEF800F61E070E002C0BD
:103A2000660F771F8A95E2F7072E000C880B990B1B
:103A30000E94412C9B01AC0160E074E284EF99E4A8
:103A40000E949E2B0E94102C6C837D838E839F830B
:103A50006FE1CE010E94C11C8F780295007F482F34
:103A6000402B6FE1CE01DF91CF910F910C94771C29
:103A70001F93CF93DF93EC01162F68818EEE95E0B4
:103A80000E94D51F612F8EEE95E00E948C1F8EEE56
:103A900095E00E945E2042E068818EEE95E00E94F3
:103AA0005820C0EDD7E08EEE95E00E94301F0297BF
:103AB0003CF4209711F02197F6CF80E090E011C000
:103AC000CD2BD9F38EEE95E00E94381FC82F8EEED5
:103AD00095E00E94381F20E030E03C2FA901482BE0
:103AE000CA01DF91CF911F910895CF92DF92EF929B
:103AF000FF920F931F93CF93DF938C01D62FF42E59
:103B00006EE00E94381D41E050E09A0102C0220F91
:103B1000331FDA95E2F7E90180959095822393238C
:103B2000892B89F060E1C8010E94381DFF2021F037
:103B3000AC014C2B5D2B05C0C095D095AC014C233E
:103B40005D2360E125C066E0C8010E94381D6C015C
:103B500068E0C8010E94381D9E0120953095FF2025
:103B600061F07C01E222F322A6014C2B5D2B66E082
:103B7000C8010E94981CA7010AC0C82BD92BA60116
:103B80004223532366E0C8010E94981CAE0168E0FE
:103B9000C801DF91CF911F910F91FF90EF90DF90BF
:103BA000CF900C94981C0C94751DFF920F931F934B
:103BB000CF93DF938C01F62E6EE00E94381DC1E09A
:103BC000D0E002C0CC0FDD1FFA94E2F78C239D23D6
:103BD000892B49F060E1C8010E94381DC823D92310
:103BE00081E0CD2B09F480E0DF91CF911F910F91FF
:103BF000FF9008950C94D51DCF92DF92EF92FF9223
:103C00000F931F93CF93DF931F92CDB7DEB76C0155
:103C1000162F60E029830E94381D41E050E0BA0170
:103C200002C0660F771F1A95E2F78B01AC01462B95
:103C3000572B60E0C6010E94981C66E0C6010E94F6
:103C4000381D7801E094F094AC014E215F2166E0CC
:103C5000C6010E94981C6EE0C6010E94381DAC018E
:103C60004E215F216EE0C6010E94981C6EE1C601E4
:103C70000E94C11C8F7D482F40646EE1C6010E94E6
:103C8000771C6FE1C6010E94C11C2981482F2223A5
:103C900011F0486801C04777F60184819581A681BB
:103CA000B781892B8A2B8B2B49F480E894E8AEE10D
:103CB000B0E084839583A683B78340616FE1C6013A
:103CC0000E94771C60E2C6010E94381DAC01402BA7
:103CD000512B60E2C6010E94981C60E1C6010E945F
:103CE000381DAC014E215F2160E1C6010F90DF91CC
:103CF000CF911F910F91FF90EF90DF90CF900C9498
:103D0000981C0F931F93CF93DF93EC01162F042F72
:103D10006EE00E94381D9C01802F8D7F813059F00C
:103D200041E050E0012E02C0440F551F0A94E2F713
:103D3000422B532B0DC0E1E0F0E0012E02C0EE0F4C
:103D4000FF1F0A94E2F7E095F095A9014E235F2347
:103D50006EE0CE010E94981C023049F441E0612FD0
:103D6000CE01DF91CF911F910F910C94751D0330FF
:103D700051F420E041E0612FCE01DF91CF911F91FE
:103D80000F910C94FC1DDF91CF911F910F9108951D
:103D90000C94811ECF93DF93EC016FE10E94C11C54
:103DA00082FF06C0482F4B7F6FE1CE010E94771C37
:103DB00041E06B81CE010E94811E40E06B81CE010B
:103DC0000E94751D61E070E080E090E00E94A30712
:103DD00041E06B81CE01DF91CF910C94751DCF93A3
:103DE000DF93662321F0DF91CF910C94CA1EEC0182
:103DF00042E16DE70E94771C44E36DE7CE01DF915D
:103E0000CF910C94771C0F93CF93DF93EC018EEE40
:103E100095E00E94CB1F8B818F3F21F0CE010E9445
:103E2000CA1E04C060E0CE010E94EF1E63E1CE0115
:103E30000E94381D81159F4F49F401E020E040E0C9
:103E400062E0CE010E94F31C81E001C080E0DF91BE
:103E5000CF910F910895FC01608343830C94031F5D
:103E600080911E0690E020911F06821B9109089503
:103E700090911F0680911E06981750F4E92FF0E0EC
:103E8000E05EF94F208130E09F5F90931F0602C0F3
:103E90002FEF3FEFC9010895E0911F0680911E06A4
:103EA000E81730F4F0E0E05EF94F808190E008958B
:103EB0008FEF9FEF08950895CF92DF92EF92FF92D8
:103EC0000F931F93CF93DF937C01262F972F8A01A7
:103ED0008091FA05882391F0C62FD72F6E01C40E6A
:103EE000D51ECC15DD0571F06991D701ED91FC91DE
:103EF0000190F081E02DC7010995F3CF642F822F47
:103F00000E942121C801DF91CF911F910F91FF9055
:103F1000EF90DF90CF900895CF93DF931F92CDB7AE
:103F2000DEB769832091FA052223D1F02091FB05A9
:103F3000203240F021E030E0FC013383228380E036
:103F400090E015C08091FC05E82FF0E0E350FA4FB7
:103F5000998190838F5F8093FC058093FB0505C05A
:103F600061E0CE0101960E94212181E090E00F9056
:103F7000DF91CF910895FC011382128288EE93E0C5
:103F8000A0E0B0E084839583A683B78380EE93E0BE
:103F900091838083089510921F0610921E0610923E
:103FA000FC051092FB050C94652081E08093FA05D6
:103FB00060931D061092FC051092FB0508950C9469
:103FC000D51F0F93062F21E04091FB056DEF75E0A3
:103FD00080911D060E94CB201092FC051092FB05DB
:103FE0001092FA050F9108954F925F926F927F920F
:103FF000AF92BF92CF92EF92FF920F931F93CF9306
:10400000DF935C01F62ED42F28013901EE2021F137
:104010000E94D51FCE2DC43008F0C3E0C150C0F0BF
:10402000D501ED91FC91B8E0CB9FC0011124A30113
:10403000920104C056954795379527958A95D2F7F2
:10404000CA01B9010190F081E02DC5010995E6CFC3
:1040500060E0C5010E94E11F4D2FD13208F040E21F
:104060002C2D60E276E08F2D0E94832010921F0697
:1040700080931E06DF91CF911F910F91FF90EF90DB
:10408000CF90BF90AF907F906F905F904F900895CA
:10409000CF92EF920F931F93C22EE12C00E010E01D
:1040A00098010E94F41F1F910F91EF90CF900895F7
:1040B00021E00C94482021E00C94482061E00C940D
:1040C000E11F8EEE95E00C94BB1F1092AD0681E0CF
:1040D0008093AB061092AA0661E082E10E948008FC
:1040E00061E083E10E948008E9EBF0E080818E7F4F
:1040F000808380818D7F808388E48093B80085E40D
:104100008093BC000895413208F043C09091AD0601
:104110009111FCCF91E09093AD062093AB062FEF69
:104120002093400610928506240F209384069093D6
:10413000AC069091AC06880F892B8093AC068091D9
:10414000AA06813061F41092AA068091AC06809391
:10415000BB008091BC0083FDF8CF85EC01C085EEEB
:104160008093BC008091AD068130E1F3809185069B
:10417000841710F44091850626E836E0FB01D9014A
:104180008A2F821B841718F48D918193F9CF842F85
:10419000089580E008950F93413208F04AC090914D
:1041A000AD069111FCCF32E03093AD060093AB0623
:1041B0003FEF309340061092850640938406FB0142
:1041C00066E876E0DB013A2F361B341718F431919C
:1041D0003D93F9CF1092AC063091AC06880F832B3B
:1041E0008093AC068091AA06813061F41092AA06F1
:1041F0008091AC068093BB008091BC0083FDF8CF1A
:1042000085EC01C085EE8093BC00222321F08091D3
:10421000AD068230D1F3809140068F3F79F08091D6
:104220004006803241F080914006803331F094E0C6
:1042300005C091E003C092E001C093E0892F0F9187
:10424000089540916206262F30E0240F311D21325F
:104250003105DCF42091AD062430C9F4FC0180E086
:1042600090E0861758F4309162062191DC01AC5938
:10427000B94FA30FB11D2C930196F3CF8091620625
:10428000680F6093620680E0089581E0089582E0FF
:10429000089585ED8093BC008091BC0084FDFCCF27
:1042A0001092AD06089585EC8093BC001092AD0687
:1042B00008951F920F920FB60F9211242F933F93E0
:1042C0004F935F936F937F938F939F93AF93BF931E
:1042D000EF93FF938091B900887F803609F49EC0E8
:1042E00078F5883209F45DC090F4803109F456C045
:1042F00038F4882309F4F5C0883009F44FC0F5C0BC
:10430000883109F44EC0803209F45FC0EEC08034B9
:1043100009F46AC058F4803309F457C0883309F0AF
:10432000E4C0809340060E945321DFC0803509F429
:104330004FC0883509F45DC0883409F0D6C0D3C0B9
:10434000883909F4C4C0A8F4883709F467C038F480
:10435000883609F463C0803709F460C0C6C0883865
:1043600009F4B5C0803909F45FC0803809F0BDC0D8
:104370005BC0803B09F483C038F4803A09F466C01E
:10438000883A09F47CC0B1C0803C09F4A4C0883CE0
:1043900009F4A1C0883B09F487C0A7C08091AC068E
:1043A00010C09091850680918406981770F5E09171
:1043B000850681E08E0F80938506F0E0EA57F94F7D
:1043C00080818093BB0085EC83C0809340068BC0C6
:1043D000E091850681E08E0F809385068091BB0079
:1043E000F0E0EA57F94F808390918506809184062A
:1043F0006BC0E091850681E08E0F809385068091E9
:10440000BB00F0E0EA57F94F80838091AB06811141
:104410006AC081E08093AA0684EA5EC083E080934C
:10442000AD0610924106CFCF80914106803208F050
:104430004EC0E091410681E08E0F8093410680914D
:10444000BB00F0E0EE5BF94F8083BDCF0E945321AB
:1044500080914106803230F4E0914106F0E0EE5B5D
:10446000F94F10826091410670E0E091A606F0914C
:10447000A70682E496E009951092410636C084E0D2
:104480008093AD061092630610926206E091A80632
:10449000F091A906099580916206811105C081E01D
:1044A0008093620610926406E091630681E08E0FAD
:1044B00080936306F0E0EC59F94F80818093BB0054
:1044C0009091630680916206981708F47CCF85E886
:1044D0008093BC000AC085EC8093BC001092AD06AE
:1044E00004C0109240060E944921FF91EF91BF91B4
:1044F000AF919F918F917F916F915F914F913F917C
:104500002F910F900FBE0F901F901895CF93DF93B0
:1045100000D000D0CDB7DEB76115710581059105DA
:1045200079F09B01AC0169833A834B835C830E94E1
:10453000F52929813A814B815C810E946C2D03C051
:1045400060E070E0CB010F900F900F900F90DF9123
:10455000CF910895CF92DF92EF92FF920F931F9326
:10456000621773078407950784F489019A016B0128
:104570007C01C901B8016C197D098E099F090E944F
:1045800086226C0D7D1D8E1D9F1D1F910F91FF902A
:10459000EF90DF90CF90089570E09B01382BC90118
:1045A00008950E9624E1FC0111922A95E9F70895E9
:1045B000CF93DF93EC01625F7F4F0E94E10ACE014F
:1045C000DF91CF910895CF93DF93EC016E5E7F4F23
:1045D0000E94E10ACE01DF91CF910895CF93DF933E
:1045E000EC016A5E7F4F0E94E10ACE01DF91CF911C
:1045F0000895CF93DF93EC01625E7F4F0E94E10A42
:10460000CE01DF91CF91089580E3FB018083329644
:10461000842F82958F7090E1899F401911244A3030
:1046200014F4405D01C0495C4293482F8111F0CFE2
:1046300008950F9300E020E040E060E08EEA96E00D
:104640000E94D50A0F9108957F928F929F92AF9208
:10465000BF92CF92DF92EF92FF920F931F93CF936F
:10466000DF93CDB7DEB7AC970FB6F894DEBF0FBEC1
:10467000CDBF7C01762E942E852E20E2B22ECE0167
:1046800001966C01FC012B2D11922A95E9F70FEF91
:104690002FEF4FEF6FEF86960E94D50A80EA93E0E6
:1046A0009AA389A389A59AA5ABA5BCA58BA39CA316
:1046B000ADA3BEA387010D5B1F4F43E450E0BE01D5
:1046C0006F5D7F4FC8010E946C10019609F4BFC056
:1046D00081E089838A8386E0A82EAB821C82F70161
:1046E00064817581868197810E948B2D6D837E8385
:1046F0008F83988789869A8680E890E09C878B874D
:104700004CE150E0B601C8010E947810F6012B2D53
:1047100011922A95E9F7470188E0880E911CF4016F
:10472000D60101900D92AA94E1F740E150E0B60164
:10473000C8010E947810F6011192BA94E9F796E048
:10474000A92EB12C40E250E0B601C8010E947810B9
:10475000F1E0AF1AB108B1F783E6898392E89A8352
:1047600093E59B838C8385E38D8381E08E837F82B9
:104770009DE3988797E099878A8786E0F401DE01B8
:104780001B9601900D928A95E1F78CE0898B8A8BBC
:104790006EEE73E0CE0143960E94EF2AF701438547
:1047A000BE01675E7F4FC7010E940423F701448565
:1047B000BE01655E7F4FC7010E940423F701458556
:1047C000BE01635E7F4FC7010E9404234EE150E0AB
:1047D000B601C8010E947810F3E07F121EC082E388
:1047E000898384E08A83F70196859B8397859C83E0
:1047F00090899D8391899E8396E39F838887828D8C
:104800008987838D8A87848D8B87858D8C874CE003
:1048100050E0B601C8010E94781087E3898386E0E2
:104820008A8391E09B8393E09C838D838FE08E83CA
:104830008AE38F838BE388878FEF898749E050E095
:10484000B601C8010E947810C8010E947410AC968D
:104850000FB6F894DEBF0FBECDBFDF91CF911F9191
:104860000F91FF90EF90DF90CF90BF90AF909F900F
:104870008F907F9008952F923F924F925F926F9208
:104880007F928F929F92AF92BF92DF92EF92FF92B0
:104890000F931F93CF93DF93CDB7DEB7E4970FB697
:1048A000F894DEBF0FBECDBF7C011A012B01390188
:1048B0000E9472074B015C0187010D5B1F4FC8010D
:1048C0000E941A1118161906A4F00E947207DC0142
:1048D000CB0188199909AA09BB09281639064A0685
:1048E0005B06F0F062E370E080E090E00E94A307D6
:1048F000E6CF42E250E0BE016F5F7F4FC8010E94E9
:10490000B5108981823031F4F80184899589833426
:10491000910541F0D12CC8010E9456108D2D5FC128
:104920008FEF5DC16D817E818F8198850E948B2D77
:104930004B015C01F301608371838283938346E0C2
:1049400050E0B701685F7F4FCE014D960E94D02A9C
:10495000892B99F4F70180819181A281B381881616
:104960009906AA06BB0648F084819581A681B78185
:1049700088159905AA05BB0528F4C8010E945610A0
:1049800080E02DC189899A89AB89BC89F701868726
:104990009787A08BB18B8EECA82EB12CC8010E94FA
:1049A0008C10F1E0AF1AB108C9F7D12CC70182967B
:1049B0009AA789A7F701B696FCA7EBA708969EA72A
:1049C0008DA73C974F01899698AB8FA73897FAAB84
:1049D000E9AB1701F6E12F0E311CC5979CAB8BABF1
:1049E000C8010E943C10181619060CF094CFC8019B
:1049F0000E948C108333910509F4CBC0FCF4813004
:104A00009105C9F11CF4892B59F3DDC08330910560
:104A1000D1F1069709F0D7C0C8010E948C105C0143
:104A200044E050E06BA97CA9C8010E94B510412C5C
:104A3000512CBB24F4E0AF1AB10840C08A33910571
:104A400009F47BC03CF48533910569F0C69709F4FD
:104A500040C0B9C08B33910509F485C08F3F9105E3
:104A600009F4BECFB0C0C8010E948C10C8010E94DA
:104A70008C10D82EB5CFC8010E948C1044E050E0B5
:104A800069A97AA93AC0C8010E948C105C0144E06F
:104A900050E0B101C8010E94B510412C512CBB243B
:104AA00094E0A91AB1084A145B040CF099CFC8012C
:104AB0000E948C10EFEF4E1A5E0AF5CF4A145B0489
:104AC0000CF08ECFC8010E948C108FEF481A580A44
:104AD000F5CFC8010E948C10B82EF701828D81118C
:104AE00010C0838D81110DC0848D81110AC0858D08
:104AF000811107C044E050E0B401C8010E94B51024
:104B00006FCFEFA5F8A94080518062807380B40117
:104B1000CE0183960E94E10A8DA19EA1AFA1B8A506
:104B200084159505A605B70529F3BB2009F458CFD0
:104B3000C8010E948C10BA94F8CFC8010E948C1052
:104B400044E050E06BA57CA5C8010E94B510F701B8
:104B500066A177A180A591A50E948B2D66A377A35E
:104B600080A791A73DCFC8010E948C1044E050E07F
:104B70006DA57EA5C8010E94B510F70162A573A5B9
:104B800084A595A50E948B2D62A773A784A795A7DE
:104B900027CFC8010E948C1044E050E069A57AA597
:104BA000C8010E94B510F70162A173A184A195A16B
:104BB0000E948B2D62A373A384A395A366A777A7F6
:104BC00080AB91AB0DCFC8010E948C10B82EBB20DA
:104BD00009F406CFC8010E948C10BA94F8CFE4966D
:104BE0000FB6F894DEBF0FBECDBFDF91CF911F91FE
:104BF0000F91FF90EF90DF90BF90AF909F908F90BC
:104C00007F906F905F904F903F902F9008952F92DC
:104C10003F924F925F926F927F928F929F92AF924C
:104C2000BF92CF92DF92EF92FF920F931F93CF9399
:104C3000DF93CDB7DEB727970FB6F894DEBF0FBE70
:104C4000CDBF8C0120ED37E040E050E061E070E046
:104C500080E090E00E94AA22D80114966D937D9383
:104C60008D939C931797F80160837183828393835C
:104C70005801F3E4AF0EB11CC5010E94571064E463
:104C800070E0C5010E94ED10882309F43CC10E9428
:104C900072072B013C01812C912C1D82C8018E5B77
:104CA0009F4F9F838E8343E0342E58EEC52E53E0F2
:104CB000D52EE12CF12C62E0262EAE81BF818C91A5
:104CC000833009F407C1811120C0F80184819581E6
:104CD000A681B7810196A11DB11D84839583A6830A
:104CE000B7830E9472076419750986099709A7019D
:104CF00096010E944A2DA90161E0C8010E94242367
:104D000081E0AE81BF818C93C6C08430F9F4F80194
:104D100084819581A681B7810196A11DB11D8483EF
:104D20009583A683B7830E94720764197509860963
:104D30009709A70196010E944A2DA90163E0C801C5
:104D40000E942423AE81BF812C92A5C0813061F5E1
:104D5000F80142AD53AD64AD75AD9E012F5F3F4F7D
:104D6000C8010E943B248D83823009F094C0898160
:104D70009A81AB81BC81F80184839583A683B78334
:104D80000E9472076419750986099709A70196019F
:104D90000E944A2DA90163E0C8010E942423ED81ED
:104DA000AE81BF81EC937EC0823009F074C0D8011F
:104DB000DA964D915D916D917C91DD979E012F5F0B
:104DC0003F4FC8010E943B248D83853009F05CC0B1
:104DD000EE81FF813082F80182A193A1A4A1B5A147
:104DE000892B8A2B8B2B41F484E893E0A0E0B0E080
:104DF00082A393A3A4A3B5A3F80186A197A1A0A51C
:104E0000B1A5892B8A2B8B2B61F482A193A1A4A13C
:104E1000B5A1B695A7959795879586A397A3A0A7C3
:104E2000B1A7F80182A593A5A4A5B5A5892B8A2BC6
:104E30008B2BA9F482A193A1A4A1B5A1AC01BD01C2
:104E400023E076956795579547952A95D1F7841B6A
:104E5000950BA60BB70B82A793A7A4A7B5A7F8013C
:104E600086A197A1A0A5B1A586A797A7A0ABB1AB36
:104E700082A593A5A4A5B5A582AB93ABA4ABB5AB16
:104E800088248394912C0EC0FD81F63021F4AE81EC
:104E9000BF811C9207C0BD81BF3F21F4EE81FF811D
:104EA00010821D82F1E08F16910409F406CF0E9452
:104EB0007207DC01CB0184199509A609B709F8012D
:104EC00026A937A940AD51AD281739074A075B0716
:104ED00008F0F3CEC5010E945710F8018481958136
:104EE000A681B7810196A11DB11D84839583A683F8
:104EF000B7830E947207F801FE96608371838283F4
:104F00009383C40102C080E090E027960FB6F89426
:104F1000DEBF0FBECDBFDF91CF911F910F91FF90EC
:104F2000EF90DF90CF90BF90AF909F908F907F9049
:104F30006F905F904F903F902F900895CF92DF92A7
:104F4000EF92FF920F931F93CF93DF93EC016B01CE
:104F50001AA21BA21CA21DA21EA21FA218A619A65D
:104F60001AA61BA61CA61DA62EAB3FAB48AF59AF79
:104F7000EAAEFBAE0CAF1DAF8C01085F1F4F86E0A1
:104F8000F80111928A95E9F7CE010E94D12286E0BC
:104F9000F601D80101900D928A95E1F7FE01EE5BD2
:104FA000FF4F1082CE01DF91CF911F910F91FF90A3
:104FB000EF90DF90CF900C940726CF92DF92EF9284
:104FC000FF920F931F93CF93DF93EC010E94720720
:104FD0006B017C018E01025C1F4FF8018081918181
:104FE000A281B381A7019601281B390B4A0B5B0BE9
:104FF000CA01B901683E33E073078105910508F4E1
:1050000041C028EE33E040E050E00E944A2DC61A2D
:10501000D70AE80AF90AF801C082D182E282F38253
:105020008EA59FA5A8A9B9A969017A01CC0CDD1CA0
:10503000EE1CFF1C8C159D05AE05BF0528F41EA6B1
:105040001FA618AA19AA08C0821B930BA40BB50BA4
:105050008EA79FA7A8ABB9AB8AA99BA9ACA9BDA9EC
:105060008C159D05AE05BF0528F41AAA1BAA1CAA1B
:105070001DAA08C0821B930BA40BB50B8AAB9BAB7C
:10508000ACABBDAB8EA59FA5A8A9B9A9892B8A2BCE
:105090008B2B69F4FE01EE5BFF4F8081833039F486
:1050A00084E08083CE010E940726019602C080E042
:1050B00090E04AA95BA96CA97DA9452B462B472BFB
:1050C00081F4FE01EE5BFF4F2081233011F02111AE
:1050D00008C01082CE010E94D122CE010E94072674
:1050E0000396DF91CF911F910F91FF90EF90DF908A
:1050F000CF900895CF93DF938230910510F482E032
:1051000090E0E091B606F091B70620E030E0C0E014
:10511000D0E0309711F14081518148175907C0F014
:105120004817590761F482819381209719F09B8376
:105130008A832BC09093B7068093B60626C02115AC
:10514000310519F04217530718F49A01BE01DF0127
:10515000EF010280F381E02DDCCF2115310509F14B
:10516000281B390B2430310590F412968D919C91B7
:1051700013976115710521F0FB019383828304C0AD
:105180009093B7068093B606FD01329644C0FD01A8
:10519000E20FF31F81939193225031092D933C9399
:1051A0003AC02091B4063091B506232B41F42091EA
:1051B0000201309103013093B5062093B40620918B
:1051C0000001309101012115310541F42DB73EB7A1
:1051D0004091040150910501241B350BE091B40668
:1051E000F091B506E217F307A0F42E1B3F0B28172A
:1051F000390778F0AC014E5F5F4F2417350748F050
:105200004E0F5F1F5093B5064093B4068193919360
:1052100002C0E0E0F0E0CF01DF91CF9108950F935D
:105220001F93CF93DF93009709F48CC0FC01329752
:10523000138212820091B6061091B706011511056E
:1052400081F420813181820F931F2091B406309127
:10525000B5062817390779F5F093B506E093B4063B
:1052600071C0D80140E050E0AE17BF0750F412966D
:105270002D913C911397AD012115310509F1D9010B
:10528000F3CF9D01DA013383228360817181860F20
:10529000971F8217930769F4EC0128813981260F43
:1052A000371F2E5F3F4F318320838A819B819383F9
:1052B0008283452B29F4F093B706E093B60642C0EB
:1052C0001396FC93EE931297ED01499159919E012B
:1052D000240F351FE217F30771F480819181840F49
:1052E000951F029611969C938E93828193811396BB
:1052F0009C938E931297E0E0F0E0D80112968D9186
:105300009C911397009719F0F8018C01F6CF8D91BD
:105310009C9198012E5F3F4F820F931F2091B406FE
:105320003091B5062817390769F4309729F410929F
:10533000B7061092B60602C0138212821093B50609
:105340000093B406DF91CF911F910F9108958F9232
:105350009F92AF92BF92CF92DF92EF92FF92CF9344
:10536000DF93EC01688179818A819B8161157105E8
:105370008105910521F464E279ED8BE597E02DE15B
:1053800033EF41E050E00E946C2D49015A019B012E
:10539000AC01A7EAB1E40E94922D6B017C01ACEE56
:1053A000B4EFA50194010E94A02DDC01CB018C0D6E
:1053B0009D1DAE1DBF1DB7FF03C00197A109B048D9
:1053C00088839983AA83BB83BC01CD019F77DF913A
:1053D000CF91FF90EF90DF90CF90BF90AF909F90D4
:1053E0008F9008950E94A729089586E091E00E9479
:1053F000A72908956093060170930701809308011F
:10540000909309010895A0E0B0E0E9E0FAE20C947D
:10541000A92DEC01009721F4CB010E947A28B8C095
:10542000FC01E60FF71F9C0122503109E217F30738
:1054300008F4ACC0D9010D911C91119706171707FC
:10544000B0F00530110508F49FC0C8010497861715
:10545000970708F499C002501109061B170B019316
:1054600011936D937C93CF010E940F298DC05B0136
:10547000A01AB10A4C01800E911EA091B606B091FF
:10548000B70640E050E0E12CF12C109709F44AC037
:10549000A815B905D1F56D907C901197630182E054
:1054A000C80ED11CCA14DB0480F1A3014A195B09A0
:1054B0006A0182E0C80ED11C1296BC901297139616
:1054C000AC91B5E0CB16D10440F0B282A3835183F6
:1054D0004083D9016D937C930AC00E5F1F4FC301B7
:1054E000800F911FF90191838083EB2DFA2FE11436
:1054F000F10431F0D7011396FC93EE93129744C058
:10550000F093B706E093B6063FC08D919C9111973A
:105510004817590708F4AC017D0112960D90BC9113
:10552000A02DB3CF8091B4069091B506881599054A
:10553000E1F446175707C8F48091000190910101EA
:10554000009741F48DB79EB7409104015091050139
:10555000841B950BE817F907C8F4F093B506E093A0
:10556000B406F901718360830FC0CB010E947A28D1
:105570007C01009759F0A801BE010E94DD2ACE01EE
:105580000E940F29C70104C0CE0102C080E090E054
:10559000CDB7DEB7EEE00C94C52DF8940C94F92D40
:1055A000FB01DC0104C08D910190801921F4415070
:1055B0005040C8F7881B990B0895FB01DC0102C01D
:1055C00001900D9241505040D8F70895FB01DC0145
:1055D0008D91019080190110D9F3990B0895FB0169
:1055E000DC0101900D920020E1F70895453251054C
:1055F00020F4423010F00C94012BFB011082CB01FF
:105600000895BB274A3031F4992322F4BDE29095E6
:1056100081959F4F0C94182B4532510520F4423050
:1056200010F00C94172BFB011082CB010895BB27BF
:10563000FB015527AA27880F991FAA1FA41710F04E
:10564000A41B83955051B9F7A05DAA3308F0A95D5A
:10565000A193009779F7B111B1931192CB010C94FA
:105660003A2D5058BB27AA270E94492B0C94932C03
:105670000E94852C38F00E948C2C20F039F49F3F3A
:1056800019F426F40C94822C0EF4E095E7FB0C94AC
:105690007C2CE92F0E94A42C58F3BA1762077307D9
:1056A0008407950720F079F4A6F50C94C62C0EF427
:1056B000E0950B2EBA2FA02D0B01B90190010C0122
:1056C000CA01A0011124FF27591B99F0593F50F43A
:1056D000503E68F11A16F040A22F232F342F442792
:1056E000585FF3CF469537952795A795F04053958A
:1056F000C9F77EF41F16BA0B620B730B840BBAF05A
:105700009150A1F0FF0FBB1F661F771F881FC2F7C4
:105710000EC0BA0F621F731F841F48F487957795D8
:105720006795B795F7959E3F08F0B0CF9395880F92
:1057300008F09927EE0F9795879508950E94B22B50
:105740000C94932C0E948C2C58F00E94852C40F0D5
:1057500029F45F3F29F00C947C2C51110C94C72C38
:105760000C94822C0E94A42C68F39923B1F3552346
:1057700091F3951B550BBB27AA2762177307840764
:1057800038F09F5F5F4F220F331F441FAA1FA9F3FA
:1057900035D00E2E3AF0E0E832D091505040E695E8
:1057A000001CCAF72BD0FE2F29D0660F771F881F49
:1057B000BB1F261737074807AB07B0E809F0BB0B3C
:1057C000802DBF01FF2793585F4F3AF09E3F510550
:1057D00078F00C947C2C0C94C72C5F3FE4F3983E3B
:1057E000D4F3869577956795B795F7959F5FC9F739
:1057F000880F911D9695879597F90895E1E0660FBA
:10580000771F881FBB1F621773078407BA0720F032
:10581000621B730B840BBA0BEE1F88F7E09508959B
:105820000E94AC2C88F09F5798F0B92F9927B75158
:10583000B0F0E1F0660F771F881F991F1AF0BA9534
:10584000C9F714C0B13091F00E94C62CB1E00895A0
:105850000C94C62C672F782F8827B85F39F0B93F92
:10586000CCF3869577956795B395D9F73EF49095E7
:105870008095709561957F4F8F4F9F4F0895E89465
:1058800009C097FB3EF490958095709561957F4F88
:105890008F4F9F4F9923A9F0F92F96E9BB27939536
:1058A000F695879577956795B795F111F8CFFAF446
:1058B000BB0F11F460FF1BC06F5F7F4F8F4F9F4F77
:1058C00016C0882311F096E911C0772321F09EE8D5
:1058D000872F762F05C0662371F096E8862F70E03B
:1058E00060E02AF09A95660F771F881FDAF7880F15
:1058F0009695879597F9089597F99F6780E870E0E6
:1059000060E008959FEF80EC089500240A94161635
:10591000170618060906089500240A94121613069D
:10592000140605060895092E0394000C11F488232B
:1059300052F0BB0F40F4BF2B11F460FF04C06F5F47
:105940007F4F8F4F9F4F089557FD9058440F551F1D
:1059500059F05F3F71F04795880F97FB991F61F0F1
:105960009F3F79F087950895121613061406551F68
:10597000F2CF4695F1DF08C0161617061806991FD4
:10598000F1CF86957105610508940895E894BB27C9
:1059900066277727CB0197F908950E94E02C0C9495
:1059A000932C0E94852C38F00E948C2C20F095239B
:1059B00011F00C947C2C0C94822C11240C94C72C88
:1059C0000E94A42C70F3959FC1F3950F50E0551FD2
:1059D000629FF001729FBB27F00DB11D639FAA2744
:1059E000F00DB11DAA1F649F6627B00DA11D661F93
:1059F000829F2227B00DA11D621F739FB00DA11DB4
:105A0000621F839FA00D611D221F749F3327A00D6D
:105A1000611D231F849F600D211D822F762F6A2F09
:105A200011249F5750409AF0F1F088234AF0EE0F6E
:105A3000FF1FBB1F661F771F881F91505040A9F79B
:105A40009E3F510580F00C947C2C0C94C72C5F3F3A
:105A5000E4F3983ED4F3869577956795B795F795D7
:105A6000E7959F5FC1F7FE2B880F911D969587954F
:105A700097F90895DC01FC01672F71917723E1F715
:105A8000329704C07C916D9370836291AE17BF070B
:105A9000C8F30895A1E21A2EAA1BBB1BFD010DC07D
:105AA000AA1FBB1FEE1FFF1FA217B307E407F507CE
:105AB00020F0A21BB30BE40BF50B661F771F881FAA
:105AC000991F1A9469F760957095809590959B0140
:105AD000AC01BD01CF010895052E97FB1EF4009483
