:100000000C9466000C948E000C948E000C948E0060
:100010000C948E000C948E000C94210F0C948E0086
:100020000C948E000C948E000C948E000C948E0018
:100030000C948E000C948E000C948E000C948E0008
:100040000C9442070C948E000C94040A0C94360A0B
:100050000C948E000C948E000C948E000C948E00E8
:100060000C94F7200C948E000000000800020100A0
:100070000003040700000000000000000102040863
:100080001020408001020408102001020408102002
:10009000040404040404040402020202020203032E
:1000A0000303030300000000250028002B000000CC
:1000B0000000240027002A009000660A160B1A0F81
:1000C0001C12CC182119FF1FB722EE0011241FBEED
:1000D000CFEFD8E0DEBFCDBF14E0A0E0B1E0E4E6B2
:1000E000FBE502C005900D92A234B107D9F727E0D5
:1000F000A2E4B4E001C01D92A731B207E1F710E01D
:10010000C5E6D0E004C02197FE010E947A2DCC35CF
:10011000D107C9F70E94940A0C946B2A0C94000032
:100120000F9300E020E040E060E083E095E00E9473
:10013000EF0A01E021E041E06AE08DEF94E00E94E7
:10014000EF0A82EE94E00E94A41187EC94E00E94F2
:10015000A4118CEA94E00E94A41168ED71E086E895
:1001600094E00E948F0B8CE794E00E94111C8BE7B7
:1001700094E00E94870E8AE794E00E94870E89E748
:1001800094E00E94870E81E794E00E94A00DE2E4D3
:10019000F4E0148215821682178280E090E0A6ECCB
:1001A000B2EC80879187A287B38784879587A687DB
:1001B000B787808B918BA28BB38B848B958BA68B0F
:1001C000B78B808F918FA28FB38F148E158E168E62
:1001D000178E10A211A212A20F91089586E894E042
:1001E0000C94210B0F931F93CF93DF9300D000D07B
:1001F00000D0CDB7DEB78C0140910E0150910F01B8
:100200008CEE93E09A8389838091FF04909100059E
:10021000A0910105B09102058B839C83AD83BE83C1
:10022000BE016F5F7F4F8CEA94E00E940C10B80112
:100230008CEA94E00E940D098CEA94E00E9414106C
:1002400088E1ECE8F4E0DF011D928A95E9F7269653
:100250000FB6F894DEBF0FBECDBFDF91CF911F91D7
:100260000F9108958F929F92AF92BF92CF92DF929B
:10027000EF92FF920F931F93CF93DF9300D000D0A4
:1002800000D0CDB7DEB760E47FE185EB95E00E945A
:10029000980F0E948C074B015C010E948C070E9402
:1002A000DD2B60936D0470936E0480936F049093C4
:1002B000700426E040E051EE60E070E082E195E0FD
:1002C0000E94340D6AE171E082E195E00E943209FA
:1002D00060E082E00E949A0861E082E00E945E088D
:1002E00060E082E00E949A0860E088E00E949A083C
:1002F00061E088E00E945E0860E088E00E949A0861
:1003000060E089E00E949A0861E089E00E945E084E
:1003100060E089E00E949A0861E083E00E949A0808
:1003200061E083E00E945E0861E083E00E949A0839
:1003300061E085E00E949A0861E085E00E945E0825
:1003400061E085E00E949A0861E086E00E949A08D8
:1003500061E086E00E945E0861E086E00E949A0803
:1003600061E087E00E949A0861E087E00E945E08F1
:1003700061E087E00E949A0861E084E00E949A08A8
:1003800061E084E00E945E0861E084E00E949A08D7
:1003900096EAE92E94E0F92E670100918404109109
:1003A0008504C8010E948F2DD6018D936D010F5FCA
:1003B0001F4F1093850400938404BCEACB16B4E06D
:1003C000DB0659F7E6E6F4E0D7018D917D018193D4
:1003D000BCEAEB16B4E0FB06B9F710EAE12E1FE029
:1003E000F12E00E010E020E63AEE40E050E066EA50
:1003F00074E08FEC95E00E94A217892B61F46AE209
:1004000071E082E195E00E94320960E177E280E0EC
:1004100090E00E94BD0768E671E082E195E00E94ED
:1004200032096FEC75E0CE0101960E94A418BE015E
:100430006F5F7F4F82E195E00E9444096091120155
:100440007091130182EE94E00E948D106091100172
:100450007091110187EC94E00E948D1060910E0163
:1004600070910F018CEA94E00E948D106CED75E0A4
:1004700080E090E00E94BD0767E771E0CE01019641
:100480000E948F0BCE0101960E94F200CE010196D0
:100490000E94210B68E871E0CE0101960E948F0B4B
:1004A000CE0101960E94F200CE0101960E94210B1E
:1004B0004AE06091AC04CE0101960E94BB0BCE01D4
:1004C00001960E94F200CE0101960E94210B69EA7A
:1004D00071E0CE0101960E948F0BCE0101960E9421
:1004E000F200CE0101960E94210B4AE06091A60421
:1004F000CE0101960E94BB0BCE0101960E94F20034
:10050000CE0101960E94210B4AE06091A704CE0122
:1005100001960E94BB0BCE0101960E94F200CE0113
:1005200001960E94210B4AE06091A804CE01019639
:100530000E94BB0BCE0101960E94F200CE010196F3
:100540000E94210B4AE06091A904CE0101960E940D
:10055000BB0BCE0101960E94F200CE0101960E94D3
:10056000210B4AE06091AA04CE0101960E94BB0BC8
:10057000CE0101960E94F200CE0101960E94210B4D
:100580004AE06091AB04CE0101960E94BB0BCE0104
:1005900001960E94F200CE0101960E94210B8091EB
:1005A0000C0190910D010E948F2D682F70E080E06A
:1005B00090E00E94DD2B609342047093430480938B
:1005C0004404909345046CEB71E082E195E00E9455
:1005D0001B096CEB71E0CE0101960E948F0BCE01DE
:1005E00001960E94F200CE0101960E94210B00E0CC
:1005F00010E06DEC71E082E195E00E941B094AE099
:1006000050E0B80182E195E00E94E90967ED71E0F0
:1006100082E195E00E941B0969ED71E082E195E0BD
:100620000E941B09C8010E948F2D4AE050E0682FEC
:1006300082E195E00E94FD0967ED71E082E195E0BD
:100640000E941B096DEC71E0CE0101960E948F0B98
:10065000CE0101960E94F200CE0101960E94210B6C
:100660004AE0B801CE0101960E94E80BCE01019646
:100670000E94F200CE0101960E94210B69ED71E00B
:10068000CE0101960E948F0BCE0101960E94F200CE
:10069000CE0101960E94210BC8010E948F2D4AE0D5
:1006A000682FCE0101960E94BB0BCE0101960E94DD
:1006B000F200CE0101960E94210B0F5F1F4F083000
:1006C000110509F096CF4FEF6EE38CE794E00E949E
:1006D000C91E882309F494C060EE71E082E195E0C0
:1006E0000E94320960EE71E0CE0101960E948F0BEC
:1006F000CE0101960E94F200CE0101960E94210BCC
:1007000040E060E08CE794E00E94661E40E061E01B
:100710008CE794E00E94661E40E062E08CE794E083
:100720000E94661E40E063E08CE794E00E94661E33
:1007300040E064E08CE794E00E94661E40E065E0E3
:100740008CE794E00E94661E40E066E08CE794E04F
:100750000E94661E40E067E08CE794E00E94661EFF
:1007600040E068E08CE794E00E94661E40E069E0AB
:100770008CE794E00E94661E40E06AE08CE794E01B
:100780000E94661E40E06BE08CE794E00E94661ECB
:1007900041E06CE08CE794E00E94661E41E06DE071
:1007A0008CE794E00E94661E41E06EE08CE794E0E6
:1007B0000E94661E41E06FE08CE794E00E94661E96
:1007C00000E010E0602F8CE794E00E94981D90E01C
:1007D000002E02C0880F991F0A94E2F72091650449
:1007E000BC01622B609365040F5F1F4F063011053B
:1007F00049F780910A0190910B010E94972D14C036
:1008000067EF71E082E195E00E94320967EF71E0E5
:10081000CE0101960E948F0BCE0101960E94F2003C
:10082000CE0101960E94210B0E948C076B017C0176
:1008300061E172E0CE0101960E948F0BCE0101961C
:100840000E94F200CE0101960E94210BB6016819A8
:1008500079094AE0CE0101960E94140CCE0101965E
:100860000E94F200CE0101960E94210B26960FB63F
:10087000F894DEBF0FBECDBFDF91CF911F910F91D6
:10088000FF90EF90DF90CF90BF90AF909F908F90B0
:100890000895CF93DF9300D000D000D0CDB7DEB75E
:1008A00067E272E082E195E00E94320967E272E05D
:1008B000CE0101960E948F0BCE0101960E94F2009C
:1008C000CE0101960E94210B64EF71E080E090E080
:1008D0000E94BD0760E084E00E949A0826960FB649
:1008E000F894DEBF0FBECDBFDF91CF910895CF93B7
:1008F000DF93CDB7DEB72C970FB6F894DEBF0FBEEF
:10090000CDBF48E150E06CE874E082EE94E00E94D4
:1009100055106CE874E0CE0107960E948F0B6EE3D1
:1009200072E0CE0107960E94400C8823C9F063E470
:1009300072E082E195E00E94320963E472E0CE0148
:1009400001960E948F0BCE0101960E94F200CE010B
:1009500001960E94210B85EB95E00E942B0F18C198
:1009600064E572E0CE0107960E94400C882341F0B6
:1009700061E082E00E949A0881E080935E0408C1F1
:1009800061E672E0CE0107960E94400C882339F0A0
:1009900060E082E00E949A0810925E04F9C06FE65F
:1009A00072E0CE0107960E94400C882371F06BE73D
:1009B00072E082E195E00E94320960E083E00E94EB
:1009C0009A0881E080936104E3C067E872E0CE0199
:1009D00007960E94400C882369F064E972E082E186
:1009E00095E00E94320961E083E00E949A0810922B
:1009F0006104CEC061EA72E0CE0107960E94400C0D
:100A0000882371F06DEA72E082E195E00E9432097C
:100A100060E085E00E949A0881E080936204B8C09B
:100A200069EB72E0CE0107960E94400C882369F0C2
:100A300066EC72E082E195E00E94320961E085E0B7
:100A40000E949A0810926204A3C063ED72E0CE0186
:100A500007960E94400C882371F06FED72E082E1EE
:100A600095E00E94320960E086E00E949A0881E0E9
:100A7000809363048DC06BEE72E0CE0107960E94F6
:100A8000400C882369F068EF72E082E195E00E94F3
:100A9000320961E086E00E949A081092630478C0EF
:100AA00065E073E0CE0107960E94400C882371F048
:100AB00061E173E082E195E00E94320960E087E045
:100AC0000E949A0881E08093640462C06DE173E043
:100AD000CE0107960E94400C882369F06AE273E019
:100AE00082E195E00E94320961E087E00E949A0865
:100AF000109264044DC067E373E0CE0107960E9434
:100B0000400C882341F061E088E00E949A0881E06F
:100B100080935F043DC06EE373E0CE0107960E94B0
:100B2000400C882339F060E088E00E949A08109217
:100B30005F042EC066E473E0CE0107960E94400C6D
:100B4000882371F06DE473E082E195E00E94320940
:100B500061E089E00E949A0881E08093600418C0F7
:100B600064E573E0CE0107960E94400C882339F0BB
:100B700060E089E00E949A081092600409C06CE568
:100B800073E0CE0107960E94400C81110E94490437
:100B9000CE0107960E94210B2C960FB6F894DEBF6B
:100BA0000FBECDBFDF91CF9108958F929F92AF92EC
:100BB000BF92CF92DF92EF92FF92CF93DF9300D05C
:100BC00000D000D0CDB7DEB70E948C074B015C018E
:100BD0006AE18BE794E00E94DB0E882369F08BE7E3
:100BE00094E00E94FD0E60934A0470934B0480933E
:100BF0004C0490934D0414C062E673E082E195E0EA
:100C00000E94320962E673E0CE0101960E948F0BCA
:100C1000CE0101960E94F200CE0101960E94210BA6
:100C20006BE18AE794E00E94DB0E882369F08AE793
:100C300094E00E94FD0E60934E0470934F048093E5
:100C400050049093510414C068E773E082E195E08A
:100C50000E94320968E773E0CE0101960E948F0B73
:100C6000CE0101960E94F200CE0101960E94210B56
:100C700068E189E794E00E94DB0E882369F089E748
:100C800094E00E94FD0E609352047093530480938D
:100C900054049093550414C06EE873E082E195E02B
:100CA0000E9432096EE873E0CE0101960E948F0B1C
:100CB000CE0101960E94F200CE0101960E94210B06
:100CC00081E794E00E94B70D8823C9F081E794E0A2
:100CD0000E94E50D60935604709357048093580466
:100CE0009093590481E794E00E94360E60935A0471
:100CF00070935B0480935C0490935D0414C064EA79
:100D000073E082E195E00E94320964EA73E0CE016B
:100D100001960E948F0BCE0101960E94F200CE0137
:100D200001960E94210B0E948C070E94DD2B2091CE
:100D30006D0430916E0440916F04509170040E94D4
:100D4000CF2A20E030E04AE754E40E943C2B609335
:100D5000460470934704809348049093490440915B
:100D60001001509111018CEE93E09A838983809158
:100D7000FF0490910005A0910105B09102058B83BD
:100D80009C83AD83BE83BE016F5F7F4F87EC94E091
:100D90000E940C104BE250E062E474E087EC94E0B7
:100DA0000E94181087EC94E00E94141067EB73E027
:100DB00082E195E00E94320967EB73E0CE01019673
:100DC0000E948F0BCE0101960E94F200CE01019687
:100DD0000E94210B88E1ECE8F4E0DF011D928A9586
:100DE000E9F782EE94E00E94BA109093A5048093F4
:100DF000A4041816190614F40E94770488E1ECE89C
:100E0000F4E0DF011D928A95E9F78FEC95E00E94EE
:100E10003F180E948C076B017C016AEC73E0CE01E5
:100E200001960E948F0BCE0101960E94F200CE0126
:100E300001960E94210BB601681979094AE0CE019A
:100E400001960E94140CCE0101960E94F200CE0180
:100E500001960E94210B60ED77E080E090E00E9417
:100E6000BD0726960FB6F894DEBF0FBECDBFDF914B
:100E7000CF91FF90EF90DF90CF90BF90AF909F9079
:100E80008F9008951F920F920FB60F9211242F93F7
:100E90003F938F939F93AF93BF9380910A05909157
:100EA0000B05A0910C05B0910D053091090523E0CB
:100EB000230F2D3720F40196A11DB11D05C026E892
:100EC000230F0296A11DB11D2093090580930A05E9
:100ED00090930B05A0930C05B0930D0580910E0522
:100EE00090910F05A0911005B09111050196A11DDB
:100EF000B11D80930E0590930F05A0931005B0933C
:100F00001105BF91AF919F918F913F912F910F90BC
:100F10000FBE0F901F9018952FB7F89460910A0597
:100F200070910B0580910C0590910D052FBF0895D0
:100F30003FB7F89480910E0590910F05A091100590
:100F4000B091110526B5A89B05C02F3F19F0019659
:100F5000A11DB11D3FBFBA2FA92F982F8827820F3F
:100F6000911DA11DB11DBC01CD0142E0660F771F8F
:100F7000881F991F4A95D1F708958F929F92AF923B
:100F8000BF92CF92DF92EF92FF926B017C010E94A1
:100F900098074B015C01C114D104E104F10401F193
:100FA0000E9434080E949807DC01CB018819990936
:100FB000AA09BB09883E9340A105B10560F321E071
:100FC000C21AD108E108F10888EE880E83E0981E65
:100FD000A11CB11CC114D104E104F10419F7DBCF49
:100FE000FF90EF90DF90CF90BF90AF909F908F9049
:100FF0000895789484B5826084BD84B5816084BD91
:1010000085B5826085BD85B5816085BDEEE6F0E081
:10101000808181608083E1E8F0E0108280818260DD
:101020008083808181608083E0E8F0E0808181605E
:101030008083E1EBF0E0808184608083E0EBF0E08E
:10104000808181608083EAE7F0E080818460808332
:1010500080818260808380818160808380818068DC
:1010600080831092C10008950895833081F028F4A0
:10107000813099F08230A1F008958730A9F088304E
:10108000B9F08430D1F4809180008F7D03C08091CD
:1010900080008F7780938000089584B58F7702C099
:1010A00084B58F7D84BD08958091B0008F7703C093
:1010B0008091B0008F7D8093B0000895CF93DF932F
:1010C00090E0FC01E458FF4F2491FC01E057FF4FF2
:1010D0008491882361F190E0880F991FFC01E2550B
:1010E000FF4FC591D491FC01EC55FF4FA591B491F0
:1010F000611109C09FB7F894888120958223888365
:10110000EC912E230BC0623061F49FB7F8943881C4
:10111000822F809583238883EC912E2B2C939FBF65
:1011200006C08FB7F894E8812E2B28838FBFDF91FC
:10113000CF9108951F93CF93DF93282F30E0F901CB
:10114000E859FF4F8491F901E458FF4FD491F90118
:10115000E057FF4FC491CC23C9F0162F81110E9494
:101160003508EC2FF0E0EE0FFF1FEC55FF4FA59177
:10117000B4918FB7F894111105C09C91ED2FE095B3
:10118000E92302C0EC91ED2BEC938FBFDF91CF915F
:101190001F91089580E090E00895CF92DF92EF9242
:1011A000FF920F931F93CF93DF936C017A018B0112
:1011B000C0E0D0E0CE15DF0589F0D8016D918D013A
:1011C000D601ED91FC910190F081E02DC6010995C9
:1011D000892B11F47E0102C02196ECCFC701DF916B
:1011E000CF911F910F91FF90EF90DF90CF900895D6
:1011F0006115710579F0FB0101900020E9F7319745
:10120000AF01461B570BDC01ED91FC910280F3818D
:10121000E02D099480E090E00895DC01ED91FC91CF
:10122000DB0114964D915C9115976D917C91028034
:10123000F381E02D09940C94F808DC01ED91FC9108
:101240000190F081E02D0994DB01ED91FC91119763
:101250000190F081E02DBC01CD01099469ED73E0AE
:101260000C94F8080F931F93CF93DF93EC010E9427
:10127000F8088C01CE010E942E09800F911FDF918A
:10128000CF911F910F9108950F931F93CF93DF93E9
:10129000EC010E9424098C01CE010E942E09800FCE
:1012A000911FDF91CF911F910F9108954F925F92FF
:1012B0006F927F92EF92FF920F931F93CF93DF93E2
:1012C000CDB7DEB7A1970FB6F894DEBF0FBECDBF86
:1012D0007C01FA01CB0119A2223008F42AE08E0128
:1012E0000F5D1F4F422E512C612C712CBF01A301A9
:1012F00092010E94E82CF901CA01015011096A30DB
:1013000014F4605D01C0695CD8016C93232B242B1D
:10131000252B61F7B801C7010E94F808A1960FB606
:10132000F894DEBF0FBECDBFDF91CF911F910F911B
:10133000FF90EF907F906F905F904F900895CF92C5
:10134000DF92EF92FF920F931F93CF93DF93EC0105
:101350006A017B012115310579F4E881F981019059
:10136000F081E02D642FDF91CF911F910F91FF90BD
:10137000EF90DF90CF9009942A303105E9F477FFA0
:101380001AC06DE20E941D098C0144275527BA013D
:101390004C195D096E097F092AE0CE010E945609A9
:1013A000800F911FDF91CF911F910F91FF90EF90D0
:1013B000DF90CF9008952AE0B701A601CE01DF911A
:1013C000CF911F910F91FF90EF90DF90CF900C94F1
:1013D00056099A01AB01770F660B770B0C949F09A6
:1013E0002115310541F4DC01ED91FC910190F08172
:1013F000E02D642F09940C9456099A01462F50E071
:1014000060E070E00C94F0091F920F920FB60F92FB
:1014100011242F938F939F93EF93FF93E0912205D5
:10142000F09123058081E0912805F091290582FD46
:1014300012C0908180912B058F5F8F7320912C05B6
:10144000821751F0E0912B05F0E0EE5EFA4F958F98
:1014500080932B0501C08081FF91EF919F918F9127
:101460002F910F900FBE0F901F9018951F920F9203
:101470000FB60F9211242F933F934F935F936F9367
:101480007F938F939F93AF93BF93EF93FF9382E1EB
:1014900095E00E94AA0CFF91EF91BF91AF919F91AF
:1014A0008F917F916F915F914F913F912F910F900D
:1014B0000FBE0F901F90189582E195E00E945F0C7F
:1014C00021E0892B09F420E0822F0895E2E1F5E084
:1014D0001382128288EE93E0A0E0B0E084839583CB
:1014E000A683B78382EF93E09183808385EC90E0BD
:1014F0009587848784EC90E09787868780EC90E0DE
:10150000918B808B81EC90E0938B828B82EC90E0CE
:10151000958B848B86EC90E0978B868B118E128E48
:10152000138E148E089508950E94F9070E94930A5D
:101530000E943201CCE9DCE00E94D5052097E1F35E
:101540000E949C0CF9CF8F929F92AF92BF92CF9244
:10155000DF92EF92FF920F931F93CF93DF937C0163
:101560008B016C0182E0C80ED11C4701E5E08E0EB4
:10157000911CC0E0D0E0F60161916F014AE050E0BB
:10158000C8010E94FD095C016EE2C8010E941D09AC
:101590008A0D9B1DC80FD91FC814D90461F74AE0F2
:1015A00050E0F7016581C8010E94FD098C0F9D1F65
:1015B000DF91CF911F910F91FF90EF90DF90CF902F
:1015C000BF90AF909F908F9008952CEE33E0FC0178
:1015D00031832083128213821482158208950F931F
:1015E000FC018CEE93E091838083628343832483A8
:1015F00005830F9108952CEE33E0FC0131832083A5
:10160000FB014081518162817381FC0142835383DC
:10161000648375830895FB014081518162817381E8
:10162000FC0142835383648375830895EFEAF5E0F8
:101630008CEE93E091838083128213821482158250
:101640000895FC01808191810C94AD28CF93DF93A4
:10165000EC0188819981009711F00E94AD281982D0
:1016600018821D821C821B821A82DF91CF910895FD
:101670000F931F93CF93DF93EC018B016F5F7F4F2D
:10168000888199810E94A129009731F099838883EC
:101690001B830A8381E001C080E0DF91CF911F911D
:1016A0000F910895CF93DF93EC0188819981892B65
:1016B00029F08A819B818617970760F4CE010E94EA
:1016C000380B882341F08C819D81892B19F4E881A6
:1016D000F981108281E0DF91CF910895EF92FF921E
:1016E0000F931F93CF93DF93EC017B018A01BA0123
:1016F0000E94520B811104C0CE010E94260B07C02C
:101700001D830C83B701888199810E948D2ACE01A7
:10171000DF91CF911F910F91FF90EF900895FC0101
:101720001182108213821282158214826115710552
:1017300051F0FB0101900020E9F73197AF01461B02
:10174000570B0C946E0B0895CF93DF93EC0161154A
:10175000710559F0FB0101900020E9F73197AF01C5
:10176000461B570B0E946E0B02C00E94260BCE0137
:10177000DF91CF9108950F931F93CF93DF93CDB750
:10178000DEB729970FB6F894DEBF0FBECDBF8C0130
:10179000862FF80111821082138212821582148220
:1017A00050E0BE016F5F7F4F90E00E94AA2ABE0109
:1017B0006F5F7F4FC8010E94A40B29960FB6F89463
:1017C000DEBF0FBECDBFDF91CF911F910F91089566
:1017D0000F931F93CF93DF93CDB7DEB762970FB60A
:1017E000F894DEBF0FBECDBF8C01CB01F801118292
:1017F0001082138212821582148250E0BE016F5F44
:101800007F4F0E94942ABE016F5F7F4FC8010E94E4
:10181000A40B62960FB6F894DEBF0FBECDBFDF916A
:10182000CF911F910F9108950F931F93CF93DF9343
:10183000CDB7DEB761970FB6F894DEBF0FBECDBF50
:101840008C01CB01F8011182108213821282158261
:10185000148250E0BE016F5F7F4F0E94AA2ABE0132
:101860006F5F7F4FC8010E94A40B61960FB6F8947A
:10187000DEBF0FBECDBFDF91CF911F910F910895B5
:10188000FC0124813581232B31F421E061157105A0
:10189000A1F0FB0108C0FC018081918161157105F7
:1018A00031F421E0FC018081882339F005C00E94D9
:1018B000842A21E0892B09F020E0822F0895FC0181
:1018C000918D228D892F90E0805C9F4F821B910922
:1018D0008F7399270895FC01918D828D981731F0AF
:1018E000828DE80FF11D858D90E008958FEF9FEFB9
:1018F0000895FC01918D828D981761F0828DDF0132
:10190000A80FB11D5D968C91928D9F5F9F73928FF2
:1019100090E008958FEF9FEF0895FC01538D448D63
:10192000252F30E0842F90E0821B930B541710F08A
:10193000CF960895019708958CE59AE0892B49F098
:1019400080E090E0892B29F00E945C0A81110C94C0
:1019500000000895FC01848DDF01A80FB11DA35A7A
:10196000BF4F2C91848D90E001968F739927848FBF
:10197000A689B7892C93A089B1898C9180648C93B6
:10198000938D848D981306C00288F389E02D8081A1
:101990008F7D80830895CF93DF93EC01888D88231A
:1019A000C9F0EA89FB89808185FD05C0A889B989CC
:1019B0008C9186FD0FC00FB607FCF5CF808185FFA7
:1019C000F2CFA889B9898C9185FFEDCFCE010E9415
:1019D000AA0CE7CFDF91CF910895EF92FF920F937A
:1019E0001F93CF93DF93EC0181E0888F9B8D8C8DCB
:1019F000981305C0E889F989808185FD24C0F62EF9
:101A00000B8D10E00F5F1F4F0F731127E02E8C8D91
:101A1000E8120CC00FB607FCFACFE889F98980817B
:101A200085FFF5CFCE010E94AA0CF1CF8B8DFE0170
:101A3000E80FF11DE35AFF4FF0820B8FEA89FB8913
:101A40008081806207C0EE89FF896083E889F98917
:101A500080818064808381E090E0DF91CF911F914D
:101A60000F91FF90EF900895CF92DF92EF92FF9247
:101A70001F93CF93DF93EC016A017B01122FE8895A
:101A8000F98982E080834115514E61057105B1F0FD
:101A900060E079E08DE390E0A70196010E94E82CD8
:101AA000DA01C9010197A109B109B695A7959795E2
:101AB0008795AC01411580E15807A8F0E889F989BC
:101AC000108260E874E88EE190E0A70196010E9420
:101AD000E82CBA01A90141505109610971097695B3
:101AE000679557954795EC85FD855083EE85FF8575
:101AF0004083188EEC89FD891083EA89FB898081F7
:101B000080618083EA89FB89808188608083EA899B
:101B1000FB89808180688083EA89FB8980818F7D51
:101B20008083DF91CF911F91FF90EF90DF90CF9056
:101B30000895DC01ED91FC910190F081E02D099474
:101B4000089560E470E08DE496E00E947D1F6EEFE2
:101B500070E08DE496E00E94990D8DE496E00E947D
:101B6000FC1F6FE070E080E090E00C94BD07CF9325
:101B7000DF93EC018DE496E00E94691FCE010E9484
:101B8000A10D60E470E08DE496E00E947D1F67EE99
:101B900070E08DE496E00E94990D8DE496E00E943D
:101BA000FC1F41E050E060E470E08DE496E00E94AC
:101BB000F91F8DE496E00E94D61E21E0029709F0FD
:101BC00020E0822FDF91CF910895CF93DF9360E4DF
:101BD00070E08DE496E00E947D1F63EE70E08DE47E
:101BE00096E00E94990D8DE496E00E94FC1F62E34E
:101BF00070E080E090E00E94BD0743E050E060E4C8
:101C000070E08DE496E00E94F91F8DE496E00E945A
:101C1000CE1E892BD1F38DE496E00E94D61ED82FDC
:101C200080E0C82F8DE496E00E94D61EC82BD92BE9
:101C30008DE496E00E94D61EBE0180E090E00E94F6
:101C4000DD2B22E538EB4FE253E40E946B2C20E0C1
:101C500030E040E857E30E946B2C26E636E64BE383
:101C600052E40E94CF2ADF91CF910895CF93DF9362
:101C700060E470E08DE496E00E947D1F65EE70E008
:101C80008DE496E00E94990D8DE496E00E94FC1F81
:101C900062E370E080E090E00E94BD0743E050E026
:101CA00060E470E08DE496E00E94F91F8DE496E018
:101CB0000E94CE1E892BD1F38DE496E00E94D61EA1
:101CC000D82F80E0C82F8DE496E00E94D61EC82B46
:101CD000D92B8DE496E00E94D61EBE0180E090E0F4
:101CE0000E94DD2B20E030E04AEF52E40E946B2C92
:101CF00020E030E040E857E30E946B2C20E030E029
:101D000040EC50E40E94CF2ADF91CF9108950895CE
:101D10001F93CF93DF9300D0CDB7DEB7162FFC0112
:101D200060818DE496E04A8359830E94731F612F7E
:101D30008DE496E00E942A1F5981652F8DE496E07C
:101D40000E942A1F4A81642F8DE496E00E942A1F78
:101D50008DE496E00F900F90DF91CF911F910C943E
:101D6000FC1F1F93CF93DF93EC01162F68818DE446
:101D700096E00E94731F612F8DE496E00E942A1F57
:101D80008DE496E00E94FC1F42E068818DE496E0BD
:101D90000E94F61F8DE496E00E94D61ED82F80E0A8
:101DA000C82F8DE496E00E94D61E8C2B9D2BDF91D0
:101DB000CF911F910895CF93DF93EC0168838DE459
:101DC00096E00E94691F66E0CE010E94B10E843544
:101DD000910511F080E00EC067E0CE010E94B10EC7
:101DE00081159440B9F740E050E061E0CE010E94D7
:101DF000880E81E0DF91CF910895CF93DF9365E066
:101E00000E94B10EEC01BC017F7080E090E00E9466
:101E1000DD2B20E030E040E85DE30E946B2CD4FF36
:101E200006C020E030E040E853E40E94CF2ADF9172
:101E3000CF9108958FEF9FEF9093B6058093B505EE
:101E400008951F920F920FB60F9211240F900FBE9C
:101E50000F901F901895A8950895DA01F901603444
:101E60008FE178071CF46115710539F489E090E081
:101E70008D939C9380E49FE158C0603A8FE078078F
:101E80003CF088E090E08D939C9380EA9FE04DC009
:101E9000603D87E078073CF087E090E08D939C936D
:101EA00080ED97E042C0683E83E078073CF086E032
:101EB00090E08D939C9388EE93E037C0643F81E07F
:101EC00078073CF085E090E08D939C9384EF91E05F
:101ED0002CC06A3F71053CF084E090E08D939C93A8
:101EE0008AEF90E022C0683771053CF083E090E013
:101EF0008D939C9388E790E018C06C3371053CF09B
:101F000082E090E08D939C938CE390E00EC06E3164
:101F100071053CF081E090E08D939C938EE190E020
:101F200004C01D921C928FE090E0918380830895FD
:101F30000F931F93CF93DF9300D0CDB7DEB78C0103
:101F40009E012F5F3F4FAC010E942D0FF801808151
:101F500083FD02C098E001C098E28770892B98E168
:101F60000FB6F894A895909360000FBE8093600020
:101F700089819A810F900F90DF91CF911F910F91DE
:101F80000895DC01ED91FC91048CF58DE02D099410
:101F90002CEE33E0FC0131832083FB014089518921
:101FA00062897389FC014283538364837583089536
:101FB000FC01848995890895FC01818D928D089595
:101FC000CF93DF931F92CDB7DEB76983DC01ED912C
:101FD000FC910280F381E02D41E050E0BE016F5F93
:101FE0007F4F09950F90DF91CF9108950895CF937A
:101FF000DF93EC01888D843061F00E947715E88DC5
:10200000F0E0EE0FFF1FEB5CF94F1182108284E0CD
:10201000888FDF91CF910895FC01178A168A6E5F31
:102020007F4F808D0C94F516FC01808D0C943B172E
:10203000CF93DF93EC019A018E899F89AB01BC019C
:10204000888D0E94AE162E893F89280F391F3F8B3D
:102050002E8BDF91CF9108950F931F93CF93DF9332
:102060001F92CDB7DEB7FC01218D328D232B61F09D
:102070008C0141E050E0BE016F5F7F4F808D0E9478
:10208000F415181619061CF08FEF9FEF08C0F80121
:10209000818D928D0197928F818F898190E00F9031
:1020A000DF91CF911F910F910895CF93DF93FC01A2
:1020B000218D328D2115310519F48FEF9FEF11C05D
:1020C000EC014217530708F0A901888D0E94F4150E
:1020D0001816190694F7298D3A8D281B390B3A8F5B
:1020E000298FDF91CF910895CF93DF931F92CDB7C2
:1020F000DEB7FC01218D328D232B49F0BE016F5FCD
:102100007F4F808D0E947F16898190E002C08FEF03
:102110009FEF0F90DF91CF910895EF92FF921F9361
:10212000CF93DF93FC01208D243011F080E01CC0A0
:102130007B01EC0110E0812F0E944F15811102C03C
:10214000188F05C08831E1F31F5F1430A1F7888D27
:10215000843061F3FD86EC861A8E198E20E0A7018B
:1021600062E00E94A11581E0DF91CF911F91FF9065
:10217000EF9008950F931F93CF93DF93CDB7DEB702
:1021800028970FB6F894DEBF0FBECDBF8C01F801C3
:10219000818D928D892B49F0D801ED91FC910284BB
:1021A000F385E02DC8010995F2CF808D0E94541669
:1021B0001816190654F548E050E0BE016F5F7F4FD6
:1021C000D80158968C910E94F4159C011816190696
:1021D000D4F4BE016F5F7F4FC8010E960E940B0BB7
:1021E0008D8190E0982F88272E81820F911DF80114
:1021F000958B848B2F8130E0322F22278885280F02
:10220000311D328F218FC90102C080E090E02896F5
:102210000FB6F894DEBF0FBECDBFDF91CF911F91F7
:102220000F9108958F929F92AF92BF92CF92DF92BB
:10223000EF92FF920F931F93CF93DF9300D000D0C4
:1022400000D0CDB7DEB7FC01208D243009F068C086
:102250006A017B018C0153E0852E54E0952EA12C60
:10226000B12CC4010E94F512811103C0F801A08EA7
:102270000AC08831D9F3FFEFAF1ABF0A9394E4E0A4
:10228000AE16B10471F7F801808D843009F448C0AE
:1022900096E0E4E1F1E0DE01119601900D929A954D
:1022A000E1F7F70193819F779C8394819D839581CA
:1022B0009E83B7016E5F7F4F90E0982F882744E0A0
:1022C00050E0845F9B4F0E94C612F801E08CF12C15
:1022D000F4E0EF0EF11CFE2CEE246D2DC7014096AC
:1022E0000E9432126C2DC70141960E943212F801F1
:1022F000808D90E0982F882746E050E0BE016F5F08
:102300007F4F8A5F9B4F0E94C612F801128E118E7A
:1023100020E8A60162E0808D0E94A11581E001C045
:1023200080E026960FB6F894DEBF0FBECDBFDF91DA
:10233000CF911F910F91FF90EF90DF90CF90BF90C2
:10234000AF909F908F900895CF93DF93EC011B8205
:102350001A8288EE93E0A0E0B0E08C839D83AE8388
:10236000BF8384E094E099838883CE010E960E9417
:10237000E50A84E0888FDF91CF910895CF92DF92B4
:10238000EF92FF920F931F93CF93DF93CDB7DEB7FA
:10239000AF970FB6F894DEBF0FBECDBF8C016B01B7
:1023A0007A01CE0101960E94E50ACE0109960E94AB
:1023B000A411CE018A960E94E50A6FEC75E0CE0169
:1023C00084960E94BC18BE016C5D7F4FCE010196C1
:1023D0000E94DE18AE01465D5F4FB601CE01019648
:1023E0000E944D1B81309105C1F4D801ED91FC9103
:1023F0000488F589E02D8CEE93E09DA38CA38CA539
:102400009DA5AEA5BFA58EA39FA3A8A7B9A7A70109
:10241000BE016C5D7F4FC8010995AF960FB6F89469
:10242000DEBF0FBECDBFDF91CF911F910F91FF9007
:10243000EF90DF90CF9008950F9300E020E040E010
:1024400060E087EB95E00E94EF0A0F9108958EBD42
:1024500000000DB407FEFDCF8EB508952A980895AB
:102460002A9A08951F93CF93DF9300D0CDB7DEB79C
:10247000182F6A8399830E942E1280EF0E942712E0
:102480009981892F0E942712812F0E9427126A8129
:10249000862F0E9427120E94301281E00F900F9029
:1024A000DF91CF911F910895CF93DF93EC016CE200
:1024B00071E080E090E00E94BD070E94DB1B229A41
:1024C00080914B06882399F02FB7F89480914B06A2
:1024D000813059F48DB3809349069DB380914A06AB
:1024E000809589238DBB2FBF02C02093490680E5CC
:1024F0008CBD1DBC60E880E090E00E94321265E572
:102500008BE190E00E94321265E58AE190E00E9442
:10251000321280914B06882351F09FB7F894209196
:102520004B0680914906213029F58DBB9FBF80E085
:1025300090E49983888380E090E69987888780E09B
:1025400098E49B838A8380E098E69B878A8780E073
:1025500090E59D838C8380E090E79D878C8780E069
:1025600098E59F838E8380E098E79F878E87DF9131
:10257000CF9108958FBFDBCF9B0190E00496982FF9
:102580008827642F820F931F0C943212CF92DF9210
:10259000EF92FF920F931F93CF93DF93EC017A0199
:1025A0008B016C01C40ED51ECC15DD05A1F00E9477
:1025B0002E1280EF0E9427128D2F0E9427128C2F3F
:1025C0000E9427122196F80181918F010E94271203
:1025D0000E943012E9CFC701DF91CF911F910F9177
:1025E000FF90EF90DF90CF9008951F93CF93DF93EC
:1025F0001F92CDB7DEB7182F99830E942E128FE05D
:102600000E9427129981892F0E942712812F0E94F0
:10261000271280E00E94271289830E94301289814C
:102620000F90DF91CF911F91089590E00496982F1D
:102630008827860F971F0C94F5121F93CF93DF9373
:10264000182F60E270E00E941513C82FD0E061E2FD
:1026500070E0812F0E941513DC2FCC279E01282BC0
:10266000C901DF91CF911F910895FF920F931F939E
:10267000CF93DF93F62EC0E0D0E08F2D0E941D1384
:102680008C01892B21F08F2D0E941D13EC01C017A6
:10269000D10799F7CE01DF91CF911F910F91FF9054
:1026A00008951F93CF93DF93182F66E270E00E9486
:1026B0001513C82FD0E067E270E0812F0E94151338
:1026C000DC2FCC279E01282BC901DF91CF911F91D0
:1026D0000895FF920F931F93CF93DF93F62EC0E0E0
:1026E000D0E08F2D0E9451138C01892B21F08F2D6A
:1026F0000E945113EC01C017D10799F7CE01DF9169
:10270000CF911F910F91FF9008956F927F928F92BA
:102710009F92AF92BF92CF92DF92EF92FF920F9370
:102720001F93CF93DF931F92CDB7DEB7882E962EDF
:102730006A01590164E270E0892D99830E941513A2
:10274000E82EF12C65E270E0892D0E941513FE2C15
:10275000EE24E82A37016C0C7D1CA3015770E82C8D
:102760009981F92EE90CF11CE90CF11CF70180812B
:102770009181840F951F9A01200F311F213038401D
:1027800098F060E078E06B01C41AD50AA601B501A3
:102790000E94C612A8014C195D09B5016C0D7D1D82
:1027A000F7018081918102C0A801B5010E94C61283
:1027B000060D171D412F64E270E0892D0E94BC12A6
:1027C000402F65E270E0892D0F90DF91CF911F912E
:1027D0000F91FF90EF90DF90CF90BF90AF909F90C0
:1027E0008F907F906F900C94BC12CF92DF92EF92FB
:1027F000FF920F931F93CF93DF93EC017A018B012C
:102800006C01C40ED51ECC15DD05A9F00E942E1258
:102810008FE00E9427128D2F0E9427128C2F0E947A
:102820002712219680E00E942712F80181938F01E0
:102830000E943012E8CFC701DF91CF911F910F9115
:10284000FF90EF90DF90CF900895AF92BF92CF921C
:10285000DF92EF92FF920F931F93CF93DF9300D0FD
:10286000CDB7DEB75A834983590129813A81377040
:102870006C01C60ED11CC60ED11CF6018085918557
:10288000820F931FA801420F531F4130584098F008
:10289000E0E0F8E07F01E21AF30AA701B5010E9427
:1028A000F513A8014E195F09B5016E0D7F1DF601E4
:1028B0008085918502C0A801B5010F900F90DF912E
:1028C000CF911F910F91FF90EF90DF90CF90BF902D
:1028D000AF900C94F5138F929F92AF92BF92CF92CC
:1028E000DF92EF92FF920F931F93CF93DF936C01D0
:1028F000962E5A017901802E68E270E0892D0E949F
:102900001513C82FD0E069E270E0892D0E941513DD
:10291000DC2FCC27C82B87019501AE01692DC6019C
:102920000E94251481101AC0CE0DDF1D4D2F68E2C4
:1029300070E0892D0E94BC124C2F69E270E0892D55
:10294000DF91CF911F910F91FF90EF90DF90CF908B
:10295000BF90AF909F908F900C94BC12DF91CF915D
:102960001F910F91FF90EF90DF90CF90BF90AF90AD
:102970009F908F900895CF93C62F61E070E08C2FC9
:102980000E94BC1261E070E08C2F0E94151381112F
:10299000F9CFCF9108950F93FC0130E080E092E1F0
:1029A000AAE7B0E0481759076A077B0740F4B695D5
:1029B000A795979587953F5F3630A1F737E091E06F
:1029C0009327222311F020E501C020E7892F869567
:1029D0000C70082B022B0083917091830F91089546
:1029E00020914B06222399F04FB7F89420914B0683
:1029F000213059F42DB3209349063DB320914A0666
:102A0000209523232DBB4FBF02C0409349068CBDA8
:102A10009DBD089580914B06882361F09FB7F8947F
:102A200020914B0680914906213019F48DBB9FBF40
:102A300008958FBF089590E0982F882744E050E0D4
:102A4000845F9B4F0C94C61262E070E00C941513E7
:102A5000CF93DF93C82FD62F472F64E070E00E94FA
:102A6000BC124D2F65E070E08C2FDF91CF910C945C
:102A7000BC12462F62E070E00C94BC12CF93DF933F
:102A8000C82FD62F472F60E170E00E94BC124D2F57
:102A900061E170E08C2FDF91CF910C94BC120F9309
:102AA0001F93CF93DF9300D01F92CDB7DEB7182FBF
:102AB00000E021E040E059E06DE370E0CE010196D6
:102AC0000E94CB1489819A810E94F01463E070E027
:102AD000812F0E9415138B830E940A158B810F9002
:102AE0000F900F90DF91CF911F910F9108950F9349
:102AF0001F93CF93DF9300D0CDB7DEB7182F00E040
:102B000021E040E059E06DE370E0CE0101960E94C3
:102B1000CB1489819A810E94F01440E150E0612F2A
:102B20008DEB95E00E94BB146FEF812F0E94391549
:102B30000E940A150F900F90DF91CF911F910F9176
:102B40000895CF92DF92EF92FF920F931F93CF934E
:102B5000DF9300D0CDB7DEB79FEF960F9530C0F56D
:102B6000F22E6A01E62E182F0E94771500E021E070
:102B700040E059E06DE370E0CE0101960E94CB1475
:102B800089819A810E94F0144E2D4F2960E070E0F7
:102B9000812F0E94BC12C114D10411F0B6010AC0E9
:102BA0006091CD057091CE056F5F7F4F7093CE051C
:102BB0006093CD05812F0E94281541E050E0612FE0
:102BC0008DEB95E00E94BB140E940A1581E001C0C4
:102BD00080E00F900F90DF91CF911F910F91FF90A8
:102BE000EF90DF90CF900895AF92BF92CF92DF9297
:102BF000EF92FF920F931F93CF93DF9300D0CDB747
:102C0000DEB7182F5B016A0100E021E040E059E0E7
:102C10006DE370E0CE0101960E94CB1489819A8108
:102C20000E94F014612F8DEB95E00E9469137C01E6
:102C30000097A1F463E070E0812F0E9415138431A6
:102C400019F1882309F121E030E08C3111F420E002
:102C500030E0EE24FF24E21AF30A16C0C816D906A3
:102C60000CF476011E141F047CF400E09701A5010A
:102C7000612F8DEB95E00E946B1440E450E0612FD2
:102C80008DEB95E00E94BB140E940A15C7010F90BE
:102C90000F90DF91CF911F910F91FF90EF90DF90F8
:102CA000CF90BF90AF9008950F931F93CF93DF9372
:102CB00000D000D0CDB7DEB7182F00E021E040E013
:102CC00059E06DE370E0CE0101960E94CB1489813A
:102CD0009A810E94F014612F8DEB95E00E94691398
:102CE0008B839C830E940A158B819C810F900F908F
:102CF0000F900F90DF91CF911F910F910895EF9258
:102D0000FF920F931F93CF93DF9300D0CDB7DEB721
:102D1000182F7B0100E021E040E059E06DE370E016
:102D2000CE0101960E94CB1489819A810E94F014F1
:102D300001E021E030E0A701612F8DEB95E00E94DA
:102D40006B140E940A1581E090E00F900F90DF91C4
:102D5000CF911F910F91FF90EF9008958F929F92C6
:102D6000AF92BF92DF92EF92FF920F931F93CF9398
:102D7000DF9300D0CDB7DEB7D82E5B014A017901D1
:102D800000E021E040E059E06DE370E0CE01019603
:102D90000E94CB1489819A810E94F0146D2D8DEBD5
:102DA00095E00E9435138E159F0530F46D2D8DEB47
:102DB00095E00E9435137C0187019401A5016D2DDA
:102DC0008DEB95E00E9485130E940A15C7010F90B4
:102DD0000F90DF91CF911F910F91FF90EF90DF90B7
:102DE000BF90AF909F908F900895CF92DF92EF9217
:102DF000FF920F931F93CF93DF9300D0CDB7DEB731
:102E0000FB019081911109C09181911106C09281BD
:102E1000911103C09381992309F141155105F1F0F6
:102E20006A017F01182F00E021E040E059E06DE3E6
:102E300070E0CE0101960E94CB1489819A810E9494
:102E4000F014B701812F0E941B15B601812F0E943B
:102E50003E150E940A1581E090E002C080E090E0FB
:102E60000F900F90DF91CF911F910F91FF90EF90F6
:102E7000DF90CF9008950F931F93CF93DF9300D0EF
:102E8000CDB7DEB7182F00E021E040E059E06DE358
:102E900070E0CE0101960E94CB1489819A810E9434
:102EA000F01440E250E0612F8DEB95E00E94BB14DE
:102EB000812F0E94241584FD21C0812F0E9424159A
:102EC00083FF09C068E1812F0E9439150E940A150D
:102ED00080E090E01BC00E940A150E94340800E0C8
:102EE00021E040E059E06DE370E0CE0101960E94E0
:102EF000CB1489819A810E94F014DACF60E1812F8E
:102F00000E9439150E940A1581E090E00F900F9001
:102F1000DF91CF911F910F91089544E050E0BC01E3
:102F200081E090E00C94C61244E050E0BC0185E0E2
:102F300090E00C94C61244E050E0BC018FE090E0B9
:102F40000C94C6122F923F924F925F926F927F9293
:102F50008F929F92AF92BF92CF92DF92EF92FF92A9
:102F60000F931F93CF93DF9300D000D000D0CDB745
:102F7000DEB76C011B0129013A014701580187EDB9
:102F800095E0F601978386838DEB95E00E945412BD
:102F900080E590E00E94F01446E050E0B10189E045
:102FA00090E00E94C61200E020E040E060E0CE0128
:102FB00001960E94EF0ACE0103960E949B170E9481
:102FC0000A1585017401A3019201B101F601868100
:102FD00097810E943C278C010197B9F580E590E02C
:102FE0000E94F014F60166817781CE0101960E945D
:102FF0007622CE0103960E949B17F60166817781A7
:10300000CE0101960E948C22CE0103960E948D175C
:10301000F60166817781CE0101960E948122CE0160
:1030200003960E9494170E940A15F6016681778123
:10303000CE0101960E9497228B819C81AD81BE8139
:10304000F60182839383A483B583C80126960FB6C5
:10305000F894DEBF0FBECDBFDF91CF911F910F91CE
:10306000FF90EF90DF90CF90BF90AF909F908F90A8
:103070007F906F905F904F903F902F900895EF92C8
:10308000FF920F931F93CF93DF9300D000D000D017
:10309000CDB7DEB7FC01268137812115310509F452
:1030A00043C08C01C9010E947B277C01029721F05B
:1030B00084E0E816F104D1F580E590E00E94F01478
:1030C000F80166817781CE0101960E947622CE01B9
:1030D00003960E949B17F80166817781CE010196C5
:1030E0000E948C22CE0103960E948D17F801668102
:1030F0007781CE0101960E948122CE0103960E9423
:1031000094170E940A15F80166817781CE01019615
:103110000E9497228B819C81AD81BE81F8018283C0
:103120009383A483B58302C0E12CF12CC7012696BA
:103130000FB6F894DEBF0FBECDBFDF91CF911F91C8
:103140000F91FF90EF900895CF93DF93EC010E94D1
:10315000E50A80E590E00E94F014BE016E5F7F4FAB
:1031600044E050E08FE090E00E94F5130E940A15C1
:10317000CE01DF91CF9108952CEE33E0FC01318335
:103180002083FB014281538164817581FC0142836C
:1031900053836483758308950F9300E020E040E03B
:1031A00060E08DE396E00E94EF0A8AE196E00E94DB
:1031B000A4118FEC95E00F910C94E50AFB0142817C
:1031C000538164817581FC014283538364837583D9
:1031D000178216820895CF93DF93FB0120E080E0F1
:1031E00090E0AAE03191332301F160ED630F6A3082
:1031F00080F4A89FB001A99F700D1124CB01C09746
:10320000830F911D37FD9A958F3F910559F350F328
:1032100013C03E3289F4233079F0EA01C20FD11D88
:103220008A832F5F80E090E0DDCF233029F4FA011C
:10323000858381E090E002C080E090E0DF91CF9153
:1032400008950F9300E020E040E060E083E496E022
:103250000E94EF0A0F9108958F929F92AF92BF92B2
:10326000CF92DF92EF92FF920F931F93CF93DF9352
:1032700000D000D01F92CDB7DEB78C016B010E9449
:103280008C07F801778366837627672776277A830A
:103290006983085F1F4F42E050E0BE016F5F7F4FC0
:1032A000C8010E94181081E090E09C838B8342E06B
:1032B00050E0BE016D5F7F4FC8010E94181080E092
:1032C00091E09C838B8342E050E0BE016D5F7F4FB5
:1032D000C8010E9418101C821B8242E050E0BE010F
:1032E0006D5F7F4FC8010E94181042E050E0BE01A0
:1032F0006D5F7F4FC8010E94181042E050E0BE0190
:103300006D5F7F4FC8010E9418105601F501808142
:10331000882329F1C6017C01FC012081019621113D
:1033200016C0570147018C189D081814190494F40D
:103330008D8241E050E0BE016B5F7F4FC8010E946B
:103340001810A401B601C8010E94181003C02E3243
:1033500011F7E7CF6701FFEFCF1ADF0AD7CF1D8242
:1033600041E050E0BE016B5F7F4FC8010E94181022
:10337000E12CFF24F394FC82EB8242E050E0BE019A
:103380006D5F7F4FC8010E941810FC82EB8242E003
:1033900050E0BE016D5F7F4FC8010E94181081E0B0
:1033A00090E00F900F900F900F900F90DF91CF91C2
:1033B0001F910F91FF90EF90DF90CF90BF90AF9053
:1033C0009F908F9008954F925F926F927F928F920D
:1033D0009F92AF92BF92CF92DF92EF92FF920F93A4
:1033E0001F93CF93DF93CDB7DEB765970FB6F894F1
:1033F000DEBF0FBECDBF7C015B016A010E948C075E
:103400002B013C018701085F1F4F4501A12CB12C06
:10341000C8010E94BA1018161906A4F00E948C0761
:10342000DC01CB0184199509A609B709881699060C
:10343000AA06BB06D0F062E370E080E090E00E9454
:10344000BD07E6CFF7014281538164817581808D8C
:10345000918DA28DB38D481759076A077B0741F4F8
:10346000848D958DC59721F406C02FEF3FEFFDC0E9
:103470002EEF3FEFFAC0C8010E94DC0F0C97ECF072
:103480004CE050E0BE016F5F7F4FC8010E945510B5
:103490006C818B810E946A229A8B898BF701E6806E
:1034A000F7806A8189810E946A22E816F90641F450
:1034B00089899A8997FF04C009C02DEF3FEFD5C0D5
:1034C000C8010E94F60F2CEF3FEFCFC08F709270B3
:1034D000892B31F0C8010E94F60F2BEF3FEFC5C0DA
:1034E00068858F810E946A225C01892B31F4C801B2
:1034F0000E94F60F2AEF3FEFB8C0E12CF12C6E814D
:103500008D810E946A22E816F90640F541E050E0FC
:10351000BE01635F7F4FC8010E9455108D858111E8
:1035200013C08D858111F2CFC8010E942C10C801F3
:103530000E942C10C8010E942C10C8010E942C105F
:10354000FFEFEF1AFF0ADBCF8D859FEF980F9D8766
:10355000882339F3C8010E942C10F6CFE12CF12CFE
:1035600041E050E0BE016D5E7F4FC8010E945510E2
:103570008B89982F907C61F4882371F08B899FEF61
:10358000980F9B8B882341F0C8010E942C10F6CF26
:10359000C8010E942C101B8A8B898111E1CF42E067
:1035A00050E0BE01615F7F4FC8010E94551042E0AC
:1035B00050E0BE01635F7F4FC8010E945510C801F3
:1035C0000E942C10C8010E942C10C8010E942C10CF
:1035D000C8010E942C1042E050E0BE016F5E7F4F98
:1035E000C8010E9455108F8598898115914001F579
:1035F0002D853E8532272327322721303105C1F41E
:1036000089899A898115944031F0C8010E94F60F8A
:1036100027EF3FEF2AC0B6016E5F7F4F44E050E0D6
:10362000C8012C8B3D8B0E9455102C893D891DC0F3
:10363000812C912C89899A8998278927982788161F
:10364000990638F4C8010E942C108FEF881A980A46
:10365000F1CFEFEFEE1AFE0AEA14FB0409F080CF77
:10366000C8010E94F60F26EF3FEFC90165960FB61D
:10367000F894DEBF0FBECDBFDF91CF911F910F91A8
:10368000FF90EF90DF90CF90BF90AF909F908F9082
:103690007F906F905F904F9008958F929F92AF921E
:1036A000BF92CF92DF92EF92FF920F931F93CF932F
:1036B000DF9300D000D000D0CDB7DEB77C014B0146
:1036C0005A010E94EB188C01892B09F05BC0F701AD
:1036D00042815381648175818091450690914606AF
:1036E000A0914706B0914806481759076A077B071B
:1036F00009F44BC00E948C076701F8E0CF0ED11C83
:103700006F7077277C5FC6010E948D10813009F0B1
:103710003EC08CEE93E09A838983F7018281938186
:10372000A481B5818B839C83AD83BE8345E350E048
:10373000BE016F5F7F4FC6010E940C10892B19F4E8
:1037400000E010E01BC0B401C7010E942C19892BB6
:10375000B9F3C6010E941410892B91F383E0882EDF
:10376000912CA50168E873E1C7010E94E3198C015F
:10377000F1E08F1A910811F0019699F3C6010E94A9
:10378000F70F05C001E010E002C00EEF1FEFC80107
:1037900026960FB6F894DEBF0FBECDBFDF91CF9156
:1037A0001F910F91FF90EF90DF90CF90BF90AF905F
:1037B0009F908F900895CF93CFB7F89480914C0647
:1037C000811127C0EAE9F0E08491E6E8F0E0949105
:1037D000E82FF0E0EE0FFF1FE255FF4FA591B491E7
:1037E000EC91E92321F461E08AE00E949A0861E00B
:1037F0008AE00E945E088CB580618CBD8CB58064C7
:103800008CBD61E08DE00E945E0861E08BE00E946B
:103810005E0880914C068F5F80934C06CFBFCF919E
:103820000895FC01148215821682178208951F9351
:10383000CF93DF931F92CDB7DEB7162FFC016081C7
:103840008DE496E049830E94731F612F8DE496E01A
:103850000E942A1F4981642F8DE496E00E942A1F4E
:103860008DE496E00F90DF91CF911F910C94FC1F97
:103870001F93CF93DF9300D0CDB7DEB7162FFC0197
:1038800060818DE496E04A8359830E94731F612F03
:103890008DE496E00E942A1F5981652F8DE496E001
:1038A0000E942A1F4A81642F8DE496E00E942A1FFD
:1038B0008DE496E00F900F90DF91CF911F910C94C3
:1038C000FC1F1F93CF93DF93EC01162F68818DE4CB
:1038D00096E00E94731F612F8DE496E00E942A1FDC
:1038E0008DE496E00E94FC1F41E068818DE496E043
:1038F0000E94F61FC8EED3E08DE496E00E94CE1E33
:103900001816190634F0209711F02197F5CF80E0B2
:1039100006C0CD2BE1F38DE496E00E94D61EDF9128
:10392000CF911F9108950F93CF93DF93EC016370B4
:1039300041704295407F2F70422B6295660F607EEA
:10394000462B6EE10E94171C002321F0083018F06E
:1039500007E001C001E08FEF800F61E070E002C07E
:10396000660F771F8A95E2F7072E000C880B990BDC
:103970000E94DF2B9B01AC0160E074E284EF99E4CC
:103980000E943C2B0E94AE2B6C837D838E839F8391
:103990006FE1CE010E94611C8F780295007F482F55
:1039A000402B6FE1CE01DF91CF910F910C94171C4A
:1039B0001F93CF93DF93EC01162F68818DE496E07F
:1039C0000E94731F612F8DE496E00E942A1F8DE4F0
:1039D00096E00E94FC1F42E068818DE496E00E9420
:1039E000F61FC0EDD7E08DE496E00E94CE1E029750
:1039F0003CF4209711F02197F6CF80E090E011C0C1
:103A0000CD2BD9F38DE496E00E94D61EC82F8DE40D
:103A100096E00E94D61E20E030E03C2FA901482B02
:103A2000CA01DF91CF911F910895CF92DF92EF925B
:103A3000FF920F931F93CF93DF938C01D62FF42E19
:103A40006EE00E94D81C41E050E09A0102C0220FB3
:103A5000331FDA95E2F7E90180959095822393234D
:103A6000892B89F060E1C8010E94D81CFF2021F059
:103A7000AC014C2B5D2B05C0C095D095AC014C23FF
:103A80005D2360E125C066E0C8010E94D81C6C017E
:103A900068E0C8010E94D81C9E0120953095FF2047
:103AA00061F07C01E222F322A6014C2B5D2B66E043
:103AB000C8010E94381CA7010AC0C82BD92BA60137
:103AC0004223532366E0C8010E94381CAE0168E01F
:103AD000C801DF91CF911F910F91FF90EF90DF9080
:103AE000CF900C94381CFF920F931F93CF93DF93CA
:103AF0008C01F62E6EE00E94D81CC1E0D0E002C01E
:103B0000CC0FDD1FFA94E2F78C239D23892B49F01B
:103B100060E1C8010E94D81CC823D92381E0CD2BC5
:103B200009F480E0DF91CF911F910F91FF900895EC
:103B30000C94731DCF92DF92EF92FF920F931F931D
:103B4000CF93DF931F92CDB7DEB76C01162F60E0E5
:103B500029830E94D81C41E050E0BA0102C0660FE0
:103B6000771F1A95E2F78B01AC01462B572B60E0CB
:103B7000C6010E94381C66E0C6010E94D81C78016C
:103B8000E094F094AC014E215F2166E0C6010E94F2
:103B9000381C6EE0C6010E94D81CAC014E215F218A
:103BA0006EE0C6010E94381C6EE1C6010E94611CD5
:103BB0008F7D482F40646EE1C6010E94171C6FE1A3
:103BC000C6010E94611C2981482F222311F04868F8
:103BD00001C04777F60184819581A681B781892B41
:103BE0008A2B8B2B49F480E894E8AEE1B0E0848323
:103BF0009583A683B78340616FE1C6010E94171CBD
:103C000060E2C6010E94D81CAC01402B512B60E23F
:103C1000C6010E94381C60E1C6010E94D81CAC019C
:103C20004E215F2160E1C6010F90DF91CF911F917E
:103C30000F91FF90EF90DF90CF900C94381C0F9372
:103C40001F93CF93DF93EC01162F042F6EE00E9499
:103C5000D81C9C01802F8D7F813059F041E050E0CD
:103C6000012E02C0440F551F0A94E2F7422B532B3A
:103C70000DC0E1E0F0E0012E02C0EE0FFF1F0A943C
:103C8000E2F7E095F095A9014E235F236EE0CE01A7
:103C90000E94381C023049F441E0612FCE01DF91CF
:103CA000CF911F910F910C94151D033051F420E01A
:103CB00041E0612FCE01DF91CF911F910F910C94C4
:103CC0009A1DDF91CF911F910F9108950C941F1EA3
:103CD000CF93DF93EC016FE10E94611C82FF06C06D
:103CE000482F4B7F6FE1CE010E94171C41E06B8192
:103CF000CE010E941F1E40E06B81CE010E94151D67
:103D000061E070E080E090E00E94BD0741E06B81DF
:103D1000CE01DF91CF910C94151DCF93DF936623D5
:103D200021F0DF91CF910C94681EEC0142E16DE728
:103D30000E94171C44E36DE7CE01DF91CF910C94F4
:103D4000171C0F93CF93DF93EC018DE496E00E9454
:103D5000691F8B818F3F21F0CE010E94681E04C035
:103D600060E0CE010E948D1E63E1CE010E94D81C4E
:103D700081159F4F49F401E020E040E062E0CE0170
:103D80000E94931C81E001C080E0DF91CF910F91F0
:103D90000895FC01608343830C94A11E80917D06ED
:103DA00090E020917E06821B9109089590917E06F5
:103DB00080917D06981750F4E92FF0E0E158F94F13
:103DC000208130E09F5F90937E0602C02FEF3FEF8F
:103DD000C9010895E0917E0680917D06E81730F4D0
:103DE000F0E0E158F94F808190E008958FEF9FEF68
:103DF00008950895CF92DF92EF92FF920F931F9351
:103E0000CF93DF937C01262F972F8A01809159064B
:103E1000882391F0C62FD72F6E01C40ED51ECC1566
:103E2000DD0571F06991D701ED91FC910190F08170
:103E3000E02DC7010995F3CF642F822F0E94BF2088
:103E4000C801DF91CF911F910F91FF90EF90DF900C
:103E5000CF900895CF93DF931F92CDB7DEB76983DC
:103E6000209159062223D1F020915A06203240F0A9
:103E700021E030E0FC013383228380E090E015C034
:103E800080915B06E82FF0E0E45AF94F9981908326
:103E90008F5F80935B0680935A0605C061E0CE0178
:103EA00001960E94BF2081E090E00F90DF91CF91BA
:103EB0000895FC011382128288EE93E0A0E0B0E046
:103EC00084839583A683B7838CE294E09183808377
:103ED000089510927E0610927D0610925B06109255
:103EE0005A060C94032081E08093590660937C0667
:103EF00010925B0610925A0608950C94731F0F934C
:103F0000062F21E040915A066CE576E080917C0610
:103F10000E94692010925B0610925A061092590670
:103F20000F9108954F925F926F927F92AF92BF92DE
:103F3000CF92EF92FF920F931F93CF93DF935C0189
:103F4000F62ED42F28013901EE2021F10E94731F93
:103F5000CE2DC43008F0C3E0C150C0F0D501ED91C2
:103F6000FC91B8E0CB9FC0011124A301920104C0D1
:103F700056954795379527958A95D2F7CA01B90185
:103F80000190F081E02DC5010995E6CF60E0C50103
:103F90000E947F1F4D2FD13208F040E22C2D6FE799
:103FA00076E08F2D0E94212010927E0680937D0660
:103FB000DF91CF911F910F91FF90EF90CF90BF9025
:103FC000AF907F906F905F904F900895CF92EF9257
:103FD0000F931F93C22EE12C00E010E098010E9485
:103FE000921F1F910F91EF90CF90089521E00C94B4
:103FF000E61F21E00C94E61F61E00C947F1F8DE426
:1040000096E00C94591F10920C0781E080930A07E8
:104010001092090761E082E10E949A0861E083E161
:104020000E949A08E9EBF0E080818E7F8083808196
:104030008D7F808388E48093B80085E48093BC0002
:104040000895413208F043C090910C079111FCCFC4
:1040500091E090930C0720930A072FEF20939F067F
:104060001092E406240F2093E30690930B0790919F
:104070000B07880F892B80930B07809109078130EC
:1040800061F41092090780910B078093BB00809127
:10409000BC0083FDF8CF85EC01C085EE8093BC00A9
:1040A00080910C078130E1F38091E406841710F4CD
:1040B0004091E40625EE36E0FB01D9018A2F821BF0
:1040C000841718F48D918193F9CF842F089580E09F
:1040D00008950F93413208F04AC090910C07911156
:1040E000FCCF32E030930C0700930A073FEF309388
:1040F0009F061092E4064093E306FB0165EE76E02E
:10410000DB013A2F361B341718F431913D93F9CF68
:1041100010920B0730910B07880F832B80930B07AE
:1041200080910907813061F41092090780910B0793
:104130008093BB008091BC0083FDF8CF85EC01C06B
:1041400085EE8093BC00222321F080910C07823001
:10415000D1F380919F068F3F79F080919F06803246
:1041600041F080919F06803331F094E005C091E0EA
:1041700003C092E001C093E0892F0F910895409110
:10418000C106262F30E0240F311D21323105DCF429
:1041900020910C072430C9F4FC0180E090E08617E0
:1041A00058F43091C1062191DC01AD53B94FA30FF2
:1041B000B11D2C930196F3CF8091C106680F6093D7
:1041C000C10680E0089581E0089582E0089585EDBC
:1041D0008093BC008091BC0084FDFCCF10920C0742
:1041E000089585EC8093BC0010920C0708951F92EF
:1041F0000F920FB60F9211242F933F934F935F931B
:104200006F937F938F939F93AF93BF93EF93FF939E
:104210008091B900887F803609F49EC078F5883295
:1042200009F45DC090F4803109F456C038F4882355
:1042300009F4F5C0883009F44FC0F5C0883109F49D
:104240004EC0803209F45FC0EEC0803409F46AC009
:1042500058F4803309F457C0883309F0E4C08093E0
:104260009F060E94F120DFC0803509F44FC08835D9
:1042700009F45DC0883409F0D6C0D3C0883909F488
:10428000C4C0A8F4883709F467C038F4883609F444
:1042900063C0803709F460C0C6C0883809F4B5C06F
:1042A000803909F45FC0803809F0BDC05BC0803B35
:1042B00009F483C038F4803A09F466C0883A09F4F6
:1042C0007CC0B1C0803C09F4A4C0883C09F4A1C002
:1042D000883B09F487C0A7C080910B0710C090915C
:1042E000E4068091E306981770F5E091E40681E01A
:1042F0008E0F8093E406F0E0EB51F94F80818093BC
:10430000BB0085EC83C080939F068BC0E091E406E0
:1043100081E08E0F8093E4068091BB00F0E0EB51CA
:10432000F94F80839091E4068091E3066BC0E091A1
:10433000E40681E08E0F8093E4068091BB00F0E0FC
:10434000EB51F94F808380910A0781116AC081E0A7
:104350008093090784EA5EC083E080930C07109283
:10436000A006CFCF8091A006803208F04EC0E09129
:10437000A00681E08E0F8093A0068091BB00F0E044
:10438000EF55F94F8083BDCF0E94F1208091A006A8
:10439000803230F4E091A006F0E0EF55F94F108242
:1043A0006091A00670E0E0910507F091060781EAB0
:1043B00096E009951092A00636C084E080930C0721
:1043C0001092C2061092C106E0910707F09108070B
:1043D00009958091C106811105C081E08093C106D5
:1043E0001092C306E091C20681E08E0F8093C20650
:1043F000F0E0ED53F94F80818093BB009091C206AD
:104400008091C106981708F47CCF85E88093BC00A2
:104410000AC085EC8093BC0010920C0704C0109277
:104420009F060E94E720FF91EF91BF91AF919F916E
:104430008F917F916F915F914F913F912F910F904D
:104440000FBE0F901F901895CF93DF9300D000D030
:10445000CDB7DEB7611571058105910579F09B0136
:10446000AC0169833A834B835C830E949329298141
:104470003A814B815C810E940A2D03C060E070E0AC
:10448000CB010F900F900F900F90DF91CF91089577
:10449000CF92DF92EF92FF920F931F9362177307F1
:1044A0008407950784F489019A016B017C01C90195
:1044B000B8016C197D098E099F090E9424226C0D98
:1044C0007D1D8E1D9F1D1F910F91FF90EF90DF901E
:1044D000CF90089570E09B01382BC90108950E9686
:1044E00024E1FC0111922A95E9F70895CF93DF9317
:1044F000EC01625F7F4F0E94FB0ACE01DF91CF91FA
:104500000895CF93DF93EC016E5E7F4F0E94FB0A0C
:10451000CE01DF91CF910895CF93DF93EC016A5ED6
:104520007F4F0E94FB0ACE01DF91CF910895CF9378
:10453000DF93EC01625E7F4F0E94FB0ACE01DF91A8
:10454000CF91089580E3FB0180833296842F82957A
:104550008F7090E1899F401911244A3014F4405D16
:1045600001C0495C4293482F8111F0CF08950F9309
:1045700000E020E040E060E08DE097E00E94EF0A7C
:104580000F9108957F928F929F92AF92BF92CF9298
:10459000DF92EF92FF920F931F93CF93DF93CDB7EC
:1045A000DEB7AC970FB6F894DEBF0FBECDBF7C016F
:1045B000762E942E852E20E2B22ECE0101966C012D
:1045C000FC012B2D11922A95E9F70FEF2FEF4FEFFA
:1045D0006FEF86960E94EF0A8CEE93E09AA389A370
:1045E00089A59AA5ABA5BCA58BA39CA3ADA3BEA38F
:1045F00087010D5B1F4F43E450E0BE016F5D7F4FAD
:10460000C8010E940C10019609F4BFC081E08983A3
:104610008A8386E0A82EAB821C82F70164817581B3
:10462000868197810E94292D6D837E838F83988751
:1046300089869A8680E890E09C878B874CE150E0E1
:10464000B601C8010E941810F6012B2D11922A956F
:10465000E9F7470188E0880E911CF401D60101902A
:104660000D92AA94E1F740E150E0B601C8010E9422
:104670001810F6011192BA94E9F796E0A92EB12C20
:1046800040E250E0B601C8010E941810F1E0AF1AF4
:10469000B108B1F783E6898392E89A8393E59B8317
:1046A0008C8385E38D8381E08E837F829DE3988771
:1046B00097E099878A8786E0F401DE011B960190D6
:1046C0000D928A95E1F78CE0898B8A8B6AE374E01E
:1046D000CE0143960E948D2AF7014385BE01675E95
:1046E0007F4FC7010E94A222F7014485BE01655E8B
:1046F0007F4FC7010E94A222F7014585BE01635E7C
:104700007F4FC7010E94A2224EE150E0B601C801CE
:104710000E941810F3E07F121EC082E3898384E0B8
:104720008A83F70196859B8397859C8390899D83D7
:1047300091899E8396E39F838887828D8987838D65
:104740008A87848D8B87858D8C874CE050E0B601FD
:10475000C8010E94181087E3898386E08A8391E06C
:104760009B8393E09C838D838FE08E838AE38F838A
:104770008BE388878FEF898749E050E0B601C80155
:104780000E941810C8010E941410AC960FB6F8943D
:10479000DEBF0FBECDBFDF91CF911F910F91FF9074
:1047A000EF90DF90CF90BF90AF909F908F907F90D1
:1047B00008952F923F924F925F926F927F928F92C5
:1047C0009F92AF92BF92DF92EF92FF920F931F934F
:1047D000CF93DF93CDB7DEB7E4970FB6F894DEBF83
:1047E0000FBECDBF7C011A012B0139010E948C073D
:1047F0004B015C0187010D5B1F4FC8010E94BA107D
:1048000018161906A4F00E948C07DC01CB01881948
:104810009909AA09BB09281639064A065B06F0F071
:1048200062E370E080E090E00E94BD07E6CF42E2E4
:1048300050E0BE016F5F7F4FC8010E945510898113
:10484000823031F4F801848995898334910541F0EF
:10485000D12CC8010E94F60F8D2D5FC18FEF5DC175
:104860006D817E818F8198850E94292D4B015C018D
:10487000F301608371838283938346E050E0B70144
:10488000685F7F4FCE014D960E946E2A892B99F466
:10489000F70180819181A281B38188169906AA06C9
:1048A000BB0648F084819581A681B781881599055A
:1048B000AA05BB0528F4C8010E94F60F80E02DC1AF
:1048C00089899A89AB89BC89F70186879787A08BEC
:1048D000B18B8EECA82EB12CC8010E942C10F1E0F7
:1048E000AF1AB108C9F7D12CC70182969AA789A738
:1048F000F701B696FCA7EBA708969EA78DA73C9755
:104900004F01899698AB8FA73897FAABE9AB17019F
:10491000F6E12F0E311CC5979CAB8BABC8010E94F2
:10492000DC0F181619060CF094CFC8010E942C1049
:104930008333910509F4CBC0FCF481309105C9F1B2
:104940001CF4892B59F3DDC083309105D1F1069712
:1049500009F0D7C0C8010E942C105C0144E050E06F
:104960006BA97CA9C8010E945510412C512CBB2475
:10497000F4E0AF1AB10840C08A33910509F47BC056
:104980003CF48533910569F0C69709F440C0B9C07D
:104990008B33910509F485C08F3F910509F4BECF93
:1049A000B0C0C8010E942C10C8010E942C10D82E43
:1049B000B5CFC8010E942C1044E050E069A97AA943
:1049C0003AC0C8010E942C105C0144E050E0B101E3
:1049D000C8010E945510412C512CBB2494E0A91A07
:1049E000B1084A145B040CF099CFC8010E942C1046
:1049F000EFEF4E1A5E0AF5CF4A145B040CF08ECF2F
:104A0000C8010E942C108FEF481A580AF5CFC80130
:104A10000E942C10B82EF701828D811110C0838D59
:104A200081110DC0848D81110AC0858D811107C04F
:104A300044E050E0B401C8010E9455106FCFEFA5CB
:104A4000F8A94080518062807380B401CE018396C2
:104A50000E94FB0A8DA19EA1AFA1B8A58415950562
:104A6000A605B70529F3BB2009F458CFC8010E9459
:104A70002C10BA94F8CFC8010E942C1044E050E0EA
:104A80006BA57CA5C8010E945510F70166A177A10E
:104A900080A591A50E94292D66A377A380A791A741
:104AA0003DCFC8010E942C1044E050E06DA57EA5CA
:104AB000C8010E945510F70162A573A584A595A5AC
:104AC0000E94292D62A773A784A795A727CFC801A5
:104AD0000E942C1044E050E069A57AA5C8010E940C
:104AE0005510F70162A173A184A195A10E94292DFF
:104AF00062A373A384A395A366A777A780AB91ABAA
:104B00000DCFC8010E942C10B82EBB2009F406CF8F
:104B1000C8010E942C10BA94F8CFE4960FB6F8940E
:104B2000DEBF0FBECDBFDF91CF911F910F91FF90E0
:104B3000EF90DF90BF90AF909F908F907F906F909D
:104B40005F904F903F902F9008952F923F924F92F9
:104B50005F926F927F928F929F92AF92BF92CF920D
:104B6000DF92EF92FF920F931F93CF93DF93CDB716
:104B7000DEB727970FB6F894DEBF0FBECDBF8C010E
:104B800020ED37E040E050E061E070E080E090E050
:104B90000E944822D80114966D937D938D939C9327
:104BA0001797F80160837183828393835801F3E43C
:104BB000AF0EB11CC5010E94F70F64E470E0C5019F
:104BC0000E948D10882309F43CC10E948C072B01A0
:104BD0003C01812C912C1D82C8018E5B9F4F9F83CD
:104BE0008E8343E0342E58EEC52E53E0D52EE12CB3
:104BF000F12C62E0262EAE81BF818C91833009F4C6
:104C000007C1811120C0F80184819581A681B781F7
:104C10000196A11DB11D84839583A683B7830E944D
:104C20008C076419750986099709A70196010E94E6
:104C3000E82CA90161E0C8010E94C22281E0AE8196
:104C4000BF818C93C6C08430F9F4F80184819581CA
:104C5000A681B7810196A11DB11D84839583A6838A
:104C6000B7830E948C076419750986099709A70103
:104C700096010E94E82CA90163E0C8010E94C222AB
:104C8000AE81BF812C92A5C0813061F5F80142ADA3
:104C900053AD64AD75AD9E012F5F3F4FC8010E94BB
:104CA000D9238D83823009F094C089819A81AB81A8
:104CB000BC81F80184839583A683B7830E948C0707
:104CC0006419750986099709A70196010E94E82CC5
:104CD000A90163E0C8010E94C222ED81AE81BF81BB
:104CE000EC937EC0823009F074C0D801DA964D9101
:104CF0005D916D917C91DD979E012F5F3F4FC801C3
:104D00000E94D9238D83853009F05CC0EE81FF813C
:104D10003082F80182A193A1A4A1B5A1892B8A2B8D
:104D20008B2B41F484E893E0A0E0B0E082A393A34E
:104D3000A4A3B5A3F80186A197A1A0A5B1A5892B2D
:104D40008A2B8B2B61F482A193A1A4A1B5A1B69566
:104D5000A7959795879586A397A3A0A7B1A7F801D4
:104D600082A593A5A4A5B5A5892B8A2B8B2BA9F485
:104D700082A193A1A4A1B5A1AC01BD0123E07695C8
:104D80006795579547952A95D1F7841B950BA60BE8
:104D9000B70B82A793A7A4A7B5A7F80186A197A1EF
:104DA000A0A5B1A586A797A7A0ABB1AB82A593A5F7
:104DB000A4A5B5A582AB93ABA4ABB5AB8824839473
:104DC000912C0EC0FD81F63021F4AE81BF811C9282
:104DD00007C0BD81BF3F21F4EE81FF8110821D829B
:104DE000F1E08F16910409F406CF0E948C07DC01D4
:104DF000CB0184199509A609B709F80126A937A995
:104E000040AD51AD281739074A075B0708F0F3CECC
:104E1000C5010E94F70FF80184819581A681B781B1
:104E20000196A11DB11D84839583A683B7830E943B
:104E30008C07F801FE966083718382839383C4019B
:104E400002C080E090E027960FB6F894DEBF0FBE58
:104E5000CDBFDF91CF911F910F91FF90EF90DF9029
:104E6000CF90BF90AF909F908F907F906F905F900A
:104E70004F903F902F900895CF92DF92EF92FF9244
:104E80000F931F93CF93DF93EC016B011AA21BA228
:104E90001CA21DA21EA21FA218A619A61AA61BA616
:104EA0001CA61DA62EAB3FAB48AF59AFEAAEFBAE7A
:104EB0000CAF1DAF8C01085F1F4F86E0F801119207
:104EC0008A95E9F7CE010E946F2286E0F601D801AB
:104ED00001900D928A95E1F7FE01EE5BFF4F108283
:104EE000CE01DF91CF911F910F91FF90EF90DF9056
:104EF000CF900C94A525CF92DF92EF92FF920F9363
:104F00001F93CF93DF93EC010E948C076B017C0110
:104F10008E01025C1F4FF80180819181A281B381D3
:104F2000A7019601281B390B4A0B5B0BCA01B9017B
:104F3000683E33E073078105910508F441C028EE0F
:104F400033E040E050E00E94E82CC61AD70AE80A95
:104F5000F90AF801C082D182E282F3828EA59FA570
:104F6000A8A9B9A969017A01CC0CDD1CEE1CFF1CB3
:104F70008C159D05AE05BF0528F41EA61FA618AA10
:104F800019AA08C0821B930BA40BB50B8EA79FA771
:104F9000A8ABB9AB8AA99BA9ACA9BDA98C159D05E5
:104FA000AE05BF0528F41AAA1BAA1CAA1DAA08C090
:104FB000821B930BA40BB50B8AAB9BABACABBDAB0D
:104FC0008EA59FA5A8A9B9A9892B8A2B8B2B69F43B
:104FD000FE01EE5BFF4F8081833039F484E08083F3
:104FE000CE010E94A525019602C080E090E04AA96A
:104FF0005BA96CA97DA9452B462B472B81F4FE01AB
:10500000EE5BFF4F2081233011F0211108C0108288
:10501000CE010E946F22CE010E94A5250396DF914A
:10502000CF911F910F91FF90EF90DF90CF90089557
:10503000CF93DF938230910510F482E090E0E0910D
:105040001507F091160720E030E0C0E0D0E030977F
:1050500011F14081518148175907C0F0481759078D
:1050600061F482819381209719F09B838A832BC0FE
:10507000909316078093150726C02115310519F066
:105080004217530718F49A01BE01DF01EF010280B5
:10509000F381E02DDCCF2115310509F1281B390BF7
:1050A0002430310590F412968D919C9113976115DF
:1050B000710521F0FB019383828304C0909316074E
:1050C00080931507FD01329644C0FD01E20FF31FE6
:1050D00081939193225031092D933C933AC02091B2
:1050E000130730911407232B41F4209102013091D2
:1050F000030130931407209313072091000130918E
:1051000001012115310541F42DB73EB7409104014D
:1051100050910501241B350BE0911307F091140702
:10512000E217F307A0F42E1B3F0B2817390778F07E
:10513000AC014E5F5F4F2417350748F04E0F5F1FDD
:1051400050931407409313078193919302C0E0E0BA
:10515000F0E0CF01DF91CF9108950F931F93CF938C
:10516000DF93009709F48CC0FC01329713821282FE
:1051700000911507109116070115110581F4208182
:105180003181820F931F2091130730911407281744
:10519000390779F5F0931407E093130771C0D8012C
:1051A00040E050E0AE17BF0750F412962D913C91AD
:1051B0001397AD012115310509F1D901F3CF9D01F7
:1051C000DA013383228360817181860F971F8217F2
:1051D000930769F4EC0128813981260F371F2E5F70
:1051E0003F4F318320838A819B8193838283452B28
:1051F00029F4F0931607E093150742C01396FC9329
:10520000EE931297ED01499159919E01240F351F9C
:10521000E217F30771F480819181840F951F029644
:1052200011969C938E938281938113969C938E9377
:105230001297E0E0F0E0D80112968D919C911397BF
:10524000009719F0F8018C01F6CF8D919C9198018F
:105250002E5F3F4F820F931F209113073091140749
:105260002817390769F4309729F41092160710921D
:10527000150702C0138212821093140700931307BC
:10528000DF91CF911F910F9108958F929F92AF92CE
:10529000BF92CF92DF92EF92FF92CF93DF93EC0118
:1052A000688179818A819B816115710581059105EC
:1052B00021F464E279ED8BE597E02DE133EF41E0F5
:1052C00050E00E940A2D49015A019B01AC01A7EA56
:1052D000B1E40E94302D6B017C01ACEEB4EFA5016E
:1052E00094010E943E2DDC01CB018C0D9D1DAE1D55
:1052F000BF1DB7FF03C00197A109B04888839983F8
:10530000AA83BB83BC01CD019F77DF91CF91FF9032
:10531000EF90DF90CF90BF90AF909F908F900895C7
:105320000E944529089586E091E00E94452908954C
:10533000609306017093070180930801909309011F
:105340000895A0E0B0E0E7EAF9E20C94472DEC0103
:10535000009721F4CB010E941828B8C0FC01E60F89
:10536000F71F9C0122503109E217F30708F4ACC083
:10537000D9010D911C91119706171707B0F0053050
:10538000110508F49FC0C80104978617970708F411
:1053900099C002501109061B170B019311936D93CD
:1053A0007C93CF010E94AD288DC05B01A01AB10A89
:1053B0004C01800E911EA0911507B091160740E098
:1053C00050E0E12CF12C109709F44AC0A815B9055A
:1053D000D1F56D907C901197630182E0C80ED11CCD
:1053E000CA14DB0480F1A3014A195B096A0182E057
:1053F000C80ED11C1296BC9012971396AC91B5E0D2
:10540000CB16D10440F0B282A38351834083D901EB
:105410006D937C930AC00E5F1F4FC301800F911FD5
:10542000F90191838083EB2DFA2FE114F10431F01F
:10543000D7011396FC93EE93129744C0F09316078E
:10544000E09315073FC08D919C911197481759071C
:1054500008F4AC017D0112960D90BC91A02DB3CF44
:10546000809113079091140788159905E1F4461768
:105470005707C8F48091000190910101009741F411
:105480008DB79EB74091040150910501841B950B87
:10549000E817F907C8F4F0931407E0931307F9012C
:1054A000718360830FC0CB010E9418287C01009794
:1054B00059F0A801BE010E947B2ACE010E94AD28AE
:1054C000C70104C0CE0102C080E090E0CDB7DEB7D6
:1054D000EEE00C94632DF8940C94A52DFB01DC01F7
:1054E00004C08D910190801921F441505040C8F7BB
:1054F000881B990B0895FB01DC0102C001900D92FD
:1055000041505040D8F70895FB01DC018D91019086
:1055100080190110D9F3990B0895FB01DC0101906A
:105520000D920020E1F708954532510520F44230F4
:1055300010F00C949F2AFB011082CB010895BB2729
:105540004A3031F4992322F4BDE2909581959F4F22
:105550000C94B62A4532510520F4423010F00C94D8
:10556000B52AFB011082CB010895BB27FB0155270B
:10557000AA27880F991FAA1FA41710F0A41B8395B0
:105580005051B9F7A05DAA3308F0A95DA193009727
:1055900079F7B111B1931192CB010C94D82C5058DA
:1055A000BB27AA270E94E72A0C94312C0E94232CA7
:1055B00038F00E942A2C20F039F49F3F19F426F489
:1055C0000C94202C0EF4E095E7FB0C941A2CE92F98
:1055D0000E94422C58F3BA17620773078407950795
:1055E00020F079F4A6F50C94642C0EF4E0950B2EC3
:1055F000BA2FA02D0B01B90190010C01CA01A00125
:105600001124FF27591B99F0593F50F4503E68F17F
:105610001A16F040A22F232F342F4427585FF3CFC0
:10562000469537952795A795F0405395C9F77EF491
:105630001F16BA0B620B730B840BBAF09150A1F0DA
:10564000FF0FBB1F661F771F881FC2F70EC0BA0F60
:10565000621F731F841F48F4879577956795B795E8
:10566000F7959E3F08F0B0CF9395880F08F09927E3
:10567000EE0F9795879508950E94502B0C94312C2E
:105680000E942A2C58F00E94232C40F029F45F3FFE
:1056900029F00C941A2C51110C94652C0C94202C8C
:1056A0000E94422C68F39923B1F3552391F3951B83
:1056B000550BBB27AA2762177307840738F09F5F33
:1056C0005F4F220F331F441FAA1FA9F335D00E2EA0
:1056D0003AF0E0E832D091505040E695001CCAF70D
:1056E0002BD0FE2F29D0660F771F881FBB1F2617D0
:1056F00037074807AB07B0E809F0BB0B802DBF01A7
:10570000FF2793585F4F3AF09E3F510578F00C9475
:105710001A2C0C94652C5F3FE4F3983ED4F38695E5
:1057200077956795B795F7959F5FC9F7880F911D96
:105730009695879597F90895E1E0660F771F881F82
:10574000BB1F621773078407BA0720F0621B730B35
:10575000840BBA0BEE1F88F7E09508950E944A2C3F
:1057600088F09F5798F0B92F9927B751B0F0E1F022
:10577000660F771F881F991F1AF0BA95C9F714C0D2
:10578000B13091F00E94642CB1E008950C94642C27
:10579000672F782F8827B85F39F0B93FCCF386950B
:1057A00077956795B395D9F73EF490958095709568
:1057B00061957F4F8F4F9F4F0895E89409C097FBE5
:1057C0003EF490958095709561957F4F8F4F9F4FD8
:1057D0009923A9F0F92F96E9BB279395F69587951C
:1057E00077956795B795F111F8CFFAF4BB0F11F4DF
:1057F00060FF1BC06F5F7F4F8F4F9F4F16C0882386
:1058000011F096E911C0772321F09EE8872F762FBB
:1058100005C0662371F096E8862F70E060E02AF0FC
:105820009A95660F771F881FDAF7880F96958795E8
:1058300097F9089597F99F6780E870E060E0089510
:105840009FEF80EC089500240A9416161706180698
:105850000906089500240A94121613061406050674
:105860000895092E0394000C11F4882352F0BB0F05
:1058700040F4BF2B11F460FF04C06F5F7F4F8F4F68
:105880009F4F089557FD9058440F551F59F05F3FA3
:1058900071F04795880F97FB991F61F09F3F79F052
:1058A00087950895121613061406551FF2CF4695D4
:1058B000F1DF08C0161617061806991FF1CF869556
:1058C0007105610508940895E894BB27662777273A
:1058D000CB0197F908950E947E2C0C94312C0E94E4
:1058E000232C38F00E942A2C20F0952311F00C94E0
:1058F0001A2C0C94202C11240C94652C0E94422C00
:1059000070F3959FC1F3950F50E0551F629FF00112
:10591000729FBB27F00DB11D639FAA27F00DB11D2B
:10592000AA1F649F6627B00DA11D661F829F2227B4
:10593000B00DA11D621F739FB00DA11D621F839F3B
:10594000A00D611D221F749F3327A00D611D231F11
:10595000849F600D211D822F762F6A2F11249F575F
:1059600050409AF0F1F088234AF0EE0FFF1FBB1F62
:10597000661F771F881F91505040A9F79E3F510521
:1059800080F00C941A2C0C94652C5F3FE4F3983E45
:10599000D4F3869577956795B795F795E7959F5FCB
:1059A000C1F7FE2B880F911D9695879597F908955D
:1059B000DC01FC01672F71917723E1F7329704C076
:1059C0007C916D9370836291AE17BF07C8F3089501
:1059D000A1E21A2EAA1BBB1BFD010DC0AA1FBB1FF3
:1059E000EE1FFF1FA217B307E407F50720F0A21B65
:1059F000B30BE40BF50B661F771F881F991F1A94D2
:105A000069F760957095809590959B01AC01BD01FB
:105A1000CF010895052E97FB1EF400940E94212DBE
:105A200057FD07D00E94E82C07FC03D04EF40C94DD
:105A3000212D50954095309521953F4F4F4F5F4F09
:105A4000089590958095709561957F4F8F4F9F4FEA
:105A50000895692796276927782787277827089543
:105A60000E94802DA59F900DB49F900DA49F800D46
:105A7000911D11240895B7FF0C94302D0E94302DF4
:105A8000821B930B08952F923F924F925F926F92D9
:105A90007F928F929F92AF92BF92CF92DF92EF92BE
:105AA000FF920F931F93CF93DF93CDB7DEB7CA1B3F
:105AB000DB0B0FB6F894DEBF0FBECDBF09942A886A
:105AC000398848885F846E847D848C849B84AA8412
:105AD000B984C884DF80EE80FD800C811B81AA819F
