:100000000C9466000C948E000C948E000C948E0060
:100010000C948E000C948E000C9453100C948E0053
:100020000C948E000C948E000C948E000C948E0018
:100030000C948E000C948E000C948E000C948E0008
:100040000C9413080C948E000C94D50A0C94070B96
:100050000C948E000C948E000C948E000C948E00E8
:100060000C942B220C948E0000000008000201006A
:100070000003040700000000000000000102040863
:100080001020408001020408102001020408102002
:10009000040404040404040402020202020203032E
:1000A0000303030300000000250028002B000000CC
:1000B0000000240027002A009000370B210D4C106F
:1000C0004E13FE19531A3321EB23EE0011241FBEE9
:1000D000CFEFD8E0DEBFCDBF14E0A0E0B1E0EAEDA5
:1000E000FDE502C005900D92A63AB107D9F727E0C9
:1000F000A6EAB4E001C01D92A837B207E1F710E00C
:10010000C5E6D0E004C02197FE010E94B52ECC3593
:10011000D107C9F70E94650B0C949F2B0C9400002B
:100120000F9300E020E040E060E084E695E00E946C
:10013000FA0C01E021E041E06AE08EE595E00E94E2
:10014000FA0C83E495E00E94D61288E295E00E94C2
:10015000D6128DE095E00E94D61269E272E087EE39
:1001600094E00E949A0D8DED94E00E94431D8CED69
:1001700094E00E94B90F8BED94E00E94B90F8AEDD4
:1001800094E00E94B90F82ED94E00E94D20EE6EA5C
:10019000F4E0148215821682178280E090E0A6ECCB
:1001A000B2EC80879187A287B38784879587A687DB
:1001B000B787808B918BA28BB38B848B958BA68B0F
:1001C000B78B808F918FA28FB38F148E158E168E62
:1001D000178E10A211A212A20F91089587EE94E03B
:1001E0000C942C0D0F931F93CF93DF93CDB7DEB7F5
:1001F0002C970FB6F894DEBF0FBECDBF8C01609177
:10020000A6047091A7048091A8049091A9040E946B
:10021000E22C605E754C4AE0CE0101960E94130EFE
:10022000B801CE0101960E94990EBC01CE0107963D
:100230000E94C60DCE0101960E942C0D4091100126
:100240005091110183E694E09A838983809160053F
:1002500090916105A0916205B09163058B839C83A9
:10026000AD83BE83BE016F5F7F4F8DE095E00E943E
:100270003E11BE01695F7F4F8DE095E00E94DE096F
:100280008DE095E00E944611CE0107960E942C0D4C
:100290002C960FB6F894DEBF0FBECDBFDF91CF9185
:1002A0001F910F9108958F929F92AF92BF92CF921C
:1002B000DF92EF92FF920F931F93CF93DF9300D0C3
:1002C00000D000D0CDB7DEB760E47FE186E196E0F4
:1002D0000E94CA100E945D084B015C0126E040E0CC
:1002E00051EE60E070E083E795E00E94490C6CE11C
:1002F00071E083E795E00E94030A60E082E00E94DB
:100300006B0961E082E00E942F0960E082E00E94B8
:100310006B0960E088E00E946B0961E088E00E9460
:100320002F0960E088E00E946B0960E089E00E948C
:100330006B0961E089E00E942F0960E089E00E947A
:100340006B0961E083E00E946B0961E083E00E9439
:100350002F0961E083E00E946B0961E085E00E9463
:100360006B0961E085E00E942F0961E085E00E9451
:100370006B0961E086E00E946B0961E086E00E9403
:100380002F0961E086E00E946B0961E087E00E942E
:100390006B0961E087E00E942F0961E087E00E941D
:1003A0006B0961E084E00E946B0961E084E00E94D7
:1003B0002F0961E084E00E946B0997E0E92E95E047
:1003C000F92E67010091E5041091E604C8010E942E
:1003D000CA2ED6018D936D010F5F1F4F1093E60457
:1003E0000093E504BDE0CB16B5E0DB0659F7EBEC76
:1003F000F4E0D7018D917D018193BDE0EB16B5E06E
:10040000FB06B9F786E196E00E945D1010EAE12E46
:100410001FE0F12E00E010E020E63AEE40E050E070
:1004200067E075E080E396E00E94D418892B61F4C0
:100430006CE271E083E795E00E94030A60E177E2F5
:1004400080E090E00E948E0886E196E00E945D10B8
:100450006AE671E083E795E00E94030A62E971E0D1
:1004600083E795E00E94030A60E376E0CE010196FF
:100470000E94D619BE016F5F7F4F83E795E00E940F
:10048000150A609114017091150183E495E00E94B2
:10049000BF11609112017091130188E295E00E94F2
:1004A000BF1160911001709111018DE095E00E94E3
:1004B000BF116CED75E080E090E00E948E0861EA6B
:1004C00071E083E795E00E94030A86E196E00E94CE
:1004D0005D1062EB71E0CE0101960E949A0DCE0193
:1004E00001960E94F200CE0101960E942C0D63EC51
:1004F00071E083E795E00E94030A69ED71E0CE01A7
:1005000001960E949A0DCE0101960E94F200CE0142
:1005100001960E942C0D4AE060910D05CE010196D6
:100520000E94E60DCE0101960E94F200CE010196D6
:100530000E942C0D6AEF71E0CE0101960E949A0D87
:10054000CE0101960E94F200CE0101960E942C0D70
:100550004AE060910705CE0101960E94E60DCE01AA
:1005600001960E94F200CE0101960E942C0D4AE0F5
:1005700060910805CE0101960E94E60DCE0101961C
:100580000E94F200CE0101960E942C0D4AE060917B
:100590000905CE0101960E94E60DCE0101960E944A
:1005A000F200CE0101960E942C0D4AE060910A05EE
:1005B000CE0101960E94E60DCE0101960E94F20046
:1005C000CE0101960E942C0D4AE060910B05CE01F0
:1005D00001960E94E60DCE0101960E94F200CE0126
:1005E00001960E942C0D4AE060910C05CE01019607
:1005F0000E94E60DCE0101960E94F200CE01019606
:100600000E942C0D80910E0190910F010E94CA2E24
:10061000682F70E080E090E00E94182D6093A6049F
:100620007093A7048093A8049093A9046DE072E0EE
:1006300083E795E00E94EC096DE072E0CE0101963F
:100640000E949A0DCE0101960E94F200CE01019601
:100650000E942C0D00E010E06EE172E083E795E06F
:100660000E94EC094AE050E0B80183E795E00E945F
:10067000BA0A68E272E083E795E00E94EC096AE258
:1006800072E083E795E00E94EC09C8010E94CA2E3F
:100690004AE050E0682F83E795E00E94CE0A68E2C6
:1006A00072E083E795E00E94EC096EE172E0CE0112
:1006B00001960E949A0DCE0101960E94F200CE0191
:1006C00001960E942C0D4AE0B801CE0101960E94CD
:1006D000130ECE0101960E94F200CE0101960E94F7
:1006E0002C0D6AE272E0CE0101960E949A0DCE01B5
:1006F00001960E94F200CE0101960E942C0DC801C5
:100700000E94CA2E4AE0682FCE0101960E94E60D93
:10071000CE0101960E94F200CE0101960E942C0D9E
:100720000F5F1F4F0830110509F096CF4FEF6EE3B2
:100730008DED94E00E94FD1F882309F4F9C061E368
:1007400072E083E795E00E94030A61E372E0CE0164
:1007500001960E949A0DCE0101960E94F200CE01F0
:1007600001960E942C0D40E060E08DED94E00E9427
:100770009A1F40E060E08DED94E00E94A51E40E0ED
:1007800061E08DED94E00E949A1F40E061E08DED04
:1007900094E00E94A51E40E062E08DED94E00E948E
:1007A0009A1F40E062E08DED94E00E94A51E40E0BB
:1007B00063E08DED94E00E949A1F40E063E08DEDD0
:1007C00094E00E94A51E40E064E08DED94E00E945C
:1007D0009A1F40E064E08DED94E00E94A51E40E089
:1007E00065E08DED94E00E949A1F40E065E08DED9C
:1007F00094E00E94A51E40E066E08DED94E00E942A
:100800009A1F40E066E08DED94E00E94A51E40E056
:1008100067E08DED94E00E949A1F40E067E08DED67
:1008200094E00E94A51E40E068E08DED94E00E94F7
:100830009A1F40E068E08DED94E00E94A51E40E024
:1008400069E08DED94E00E949A1F40E069E08DED33
:1008500094E00E94A51E40E06AE08DED94E00E94C5
:100860009A1F40E06AE08DED94E00E94A51E40E0F2
:100870006BE08DED94E00E949A1F40E06BE08DEDFF
:1008800094E00E94A51E41E06CE08DED94E00E9492
:100890009A1F41E06DE08DED94E00E949A1F41E0C7
:1008A0006EE08DED94E00E949A1F41E06FE08DEDC7
:1008B00094E00E949A1F00E010E0602F8DED94E01C
:1008C0000E94CC1E002E01C0880F0A94EAF72091E6
:1008D000C904822B8093C9040F5F1F4F0830110594
:1008E00061F708E010E0602F8DED94E00E94CC1ECF
:1008F000002E01C0880F0A94EAF72091CA04822BC7
:100900008093CA040F5F1F4F0F30110561F760918C
:10091000C90480910C0190910D010E94D22E60912A
:10092000CA0480910A0190910B010E94D22E14C03A
:1009300068E472E083E795E00E94030A68E472E0ED
:10094000CE0101960E949A0DCE0101960E94F200FE
:10095000CE0101960E942C0D0E945D086B017C0166
:1009600062E672E0CE0101960E949A0DCE010196D8
:100970000E94F200CE0101960E942C0DB60168196A
:1009800079094AE0CE0101960E943F0ECE01019600
:100990000E94F200CE0101960E942C0D26960FB601
:1009A000F894DEBF0FBECDBFDF91CF911F910F91A5
:1009B000FF90EF90DF90CF90BF90AF909F908F907F
:1009C0000895CF93DF9300D000D000D0CDB7DEB72D
:1009D00068E772E083E795E00E94030A68E772E047
:1009E000CE0101960E949A0DCE0101960E94F2005E
:1009F000CE0101960E942C0D64EF71E080E090E042
:100A00000E948E0860E084E00E946B0926960FB673
:100A1000F894DEBF0FBECDBFDF91CF910895CF9385
:100A2000DF93CDB7DEB72C970FB6F894DEBF0FBEBD
:100A3000CDBF48E150E06DEE74E083E495E00E94A4
:100A400087116DEE74E0CE0107960E949A0D6FE853
:100A500072E0CE0107960E94AC0E8823C9F064E9CB
:100A600072E083E795E00E94030A64E972E0CE0138
:100A700001960E949A0DCE0101960E94F200CE01CD
:100A800001960E942C0D86E196E00E945D1028C11F
:100A900065EA72E0CE0107960E94AC0E882341F011
:100AA00061E082E00E946B0981E08093C20418C17A
:100AB00062EB72E0CE0107960E94AC0E882339F0FB
:100AC00060E082E00E946B091092C20409C160ECF0
:100AD00072E0CE0107960E94AC0E882371F06CEC98
:100AE00072E083E795E00E94030A60E083E00E94E1
:100AF0006B0981E08093C504F3C068ED72E0CE011C
:100B000007960E94AC0E882369F065EE72E083E7D9
:100B100095E00E94030A61E083E00E946B09109255
:100B2000C504DEC062EF72E0CE0107960E94AC0EF3
:100B3000882371F06EEF72E083E795E00E94030A6C
:100B400060E085E00E946B0981E08093C604C8C024
:100B50006AE073E0CE0107960E94AC0E882369F02C
:100B600067E173E083E795E00E94030A61E085E0B6
:100B70000E946B091092C604B3C064E273E0CE0118
:100B800007960E94AC0E882371F060E373E083E760
:100B900095E00E94030A60E086E00E946B0981E014
:100BA0008093C7049DC06CE373E0CE0107960E945A
:100BB000AC0E882369F069E473E083E795E00E9456
:100BC000030A61E086E00E946B091092C70488C0A6
:100BD00066E573E0CE0107960E94AC0E882371F0A3
:100BE00062E673E083E795E00E94030A60E087E035
:100BF0000E946B0981E08093C80472C06EE673E0C6
:100C0000CE0107960E94AC0E882369F06BE773E073
:100C100083E795E00E94030A61E087E00E946B0988
:100C20001092C8045DC068E873E0CE0107960E9488
:100C3000AC0E882341F061E088E00E946B0981E0FE
:100C40008093C3044DC06FE873E0CE0107960E9405
:100C5000AC0E882339F060E088E00E946B091092A6
:100C6000C3043EC067E973E0CE0107960E94AC0E54
:100C7000882371F06EE973E083E795E00E94030A30
:100C800061E089E00E946B0981E08093C40428C080
:100C900065EA73E0CE0107960E94AC0E882339F016
:100CA00060E089E00E946B091092C40419C06CE8EE
:100CB00071E0CE0107960E94AC0E882319F00E94C5
:100CC000E1040EC06DEA73E0CE0101960E949A0D18
:100CD000CE0101960E94F200CE0101960E942C0DD9
:100CE00088E1EDEEF4E0DF011D928A95E9F7CE018F
:100CF00007960E942C0D2C960FB6F894DEBF0FBEFF
:100D0000CDBFDF91CF9108958F929F92AF92BF9206
:100D1000CF92DF92EF92FF92CF93DF9300D000D07B
:100D200000D0CDB7DEB70E945D084B015C016BE1DE
:100D30008CED94E00E940D10882369F08CED94E016
:100D40000E942F106093AE047093AF048093B004A0
:100D50009093B10420C068EC73E083E795E00E94B3
:100D6000030A68EC73E0CE0101960E949A0DCE0151
:100D700001960E94F200CE0101960E942C0D80E0A7
:100D800090E0A6ECB2EC8093AE049093AF04A093F5
:100D9000B004B093B1046AE18BED94E00E940D10B1
:100DA000882369F08BED94E00E942F106093B204C9
:100DB0007093B3048093B4049093B50420C06EED97
:100DC00073E083E795E00E94030A6EED73E0CE01C5
:100DD00001960E949A0DCE0101960E94F200CE016A
:100DE00001960E942C0D80E090E0A6ECB2EC80937E
:100DF000B2049093B304A093B404B093B50468E133
:100E00008AED94E00E940D10882369F08AED94E049
:100E10000E942F106093B6047093B7048093B804B7
:100E20009093B90420C064EF73E083E795E00E94DB
:100E3000030A64EF73E0CE0101960E949A0DCE0181
:100E400001960E94F200CE0101960E942C0D80E0D6
:100E500090E0A6ECB2EC8093B6049093B704A09314
:100E6000B804B093B90482ED94E00E94E90E88239F
:100E7000C9F082ED94E00E94170F6093BA0470935A
:100E8000BB048093BC049093BD0482ED94E00E9467
:100E9000680F6093BE047093BF048093C004909366
:100EA000C10428C06AE074E083E795E00E94030A69
:100EB0006AE074E0CE0101960E949A0DCE0101967F
:100EC0000E94F200CE0101960E942C0D80E090E07D
:100ED000A6ECB2EC8093BA049093BB04A093BC043C
:100EE000B093BD048093BE049093BF04A093C0044C
:100EF000B093C1040E945D0828EE33E040E050E06A
:100F00000E94232ECA01B9010E94182D6093AA04E1
:100F10007093AB048093AC049093AD0440911201A4
:100F20005091130183E694E09A8389838091600550
:100F300090916105A0916205B09163058B839C83BC
:100F4000AD83BE83BE016F5F7F4F88E295E00E9454
:100F50003E114CE250E066EA74E088E295E00E94BF
:100F60004A1188E295E00E9446116DE174E083E742
:100F700095E00E94030A6DE174E0CE0101960E94A3
:100F80009A0DCE0101960E94F200CE0101960E94B8
:100F90002C0D83E495E00E94EC119093060580935C
:100FA00005051816190614F40E940F0580E396E053
:100FB0000E9471190E945D086B017C0160E374E07E
:100FC000CE0101960E949A0DCE0101960E94F20078
:100FD000CE0101960E942C0DB601681979094AE0EC
:100FE000CE0101960E943F0ECE0101960E94F200B2
:100FF000CE0101960E942C0D60ED77E080E090E03C
:101000000E948E0826960FB6F894DEBF0FBECDBFA5
:10101000DF91CF91FF90EF90DF90CF90BF90AF9096
:101020009F908F9008951F920F920FB60F921124E8
:101030002F933F938F939F93AF93BF9380916B05B3
:1010400090916C05A0916D05B0916E0530916A0587
:1010500023E0230F2D3720F40196A11DB11D05C0FB
:1010600026E8230F0296A11DB11D20936A058093E7
:101070006B0590936C05A0936D05B0936E05809100
:101080006F0590917005A0917105B0917205019660
:10109000A11DB11D80936F0590937005A0937105FC
:1010A000B0937205BF91AF919F918F913F912F9116
:1010B0000F900FBE0F901F9018952FB7F894609166
:1010C0006B0570916C0580916D0590916E052FBF39
:1010D00008953FB7F89480916F0590917005A091A5
:1010E0007105B091720526B5A89B05C02F3F19F078
:1010F0000196A11DB11D3FBFBA2FA92F982F882798
:10110000820F911DA11DB11DBC01CD0142E0660FF2
:10111000771F881F991F4A95D1F708958F929F9244
:10112000AF92BF92CF92DF92EF92FF926B017C0160
:101130000E9469084B015C01C114D104E104F1046F
:1011400001F10E9405090E946908DC01CB018819A0
:101150009909AA09BB09883E9340A105B10560F32E
:1011600021E0C21AD108E108F10888EE880E83E078
:10117000981EA11CB11CC114D104E104F10419F79B
:10118000DBCFFF90EF90DF90CF90BF90AF909F901C
:101190008F900895789484B5826084BD84B5816011
:1011A00084BD85B5826085BD85B5816085BDEEE66F
:1011B000F0E0808181608083E1E8F0E0108280814E
:1011C00082608083808181608083E0E8F0E08081BC
:1011D00081608083E1EBF0E0808184608083E0EBDC
:1011E000F0E0808181608083EAE7F0E080818460C4
:1011F0008083808182608083808181608083808120
:10120000806880831092C10008950895833081F032
:1012100028F4813099F08230A1F008958730A9F048
:101220008830B9F08430D1F4809180008F7D03C084
:10123000809180008F7780938000089584B58F77A8
:1012400002C084B58F7D84BD08958091B0008F77F2
:1012500003C08091B0008F7D8093B0000895CF933C
:10126000DF9390E0FC01E458FF4F2491FC01E0572C
:10127000FF4F8491882361F190E0880F991FFC0152
:10128000E255FF4FC591D491FC01EC55FF4FA5915C
:10129000B491611109C09FB7F89488812095822389
:1012A0008883EC912E230BC0623061F49FB7F894D1
:1012B0003881822F809583238883EC912E2B2C9369
:1012C0009FBF06C08FB7F894E8812E2B28838FBF6D
:1012D000DF91CF9108951F93CF93DF93282F30E0B4
:1012E000F901E859FF4F8491F901E458FF4FD49177
:1012F000F901E057FF4FC491CC23C9F0162F81119B
:101300000E940609EC2FF0E0EE0FFF1FEC55FF4F97
:10131000A591B4918FB7F894111105C09C91ED2F50
:10132000E095E92302C0EC91ED2BEC938FBFDF91A8
:10133000CF911F91089580E090E00895CF92DF92C1
:10134000EF92FF920F931F93CF93DF936C017A017B
:101350008B01C0E0D0E0CE15DF0589F0D8016D919A
:101360008D01D601ED91FC910190F081E02DC60137
:101370000995892B11F47E0102C02196ECCFC7019B
:10138000DF91CF911F910F91FF90EF90DF90CF9061
:1013900008956115710579F0FB0101900020E9F7CE
:1013A0003197AF01461B570BDC01ED91FC91028098
:1013B000F381E02D099480E090E00895DC01ED9147
:1013C000FC91DB0114964D915C9115976D917C9188
:1013D0000280F381E02D09940C94C909DC01ED91A0
:1013E000FC910190F081E02D0994DB01ED91FC91DD
:1013F00011970190F081E02DBC01CD0109946EE3BD
:1014000074E00C94C9090F931F93CF93DF93EC0101
:101410000E94C9098C01CE010E94FF09800F911F13
:10142000DF91CF911F910F9108950F931F93CF9349
:10143000DF93EC010E94F5098C01CE010E94FF09A7
:10144000800F911FDF91CF911F910F9108954F92BF
:101450005F926F927F92EF92FF920F931F93CF93C1
:10146000DF93CDB7DEB7A1970FB6F894DEBF0FBEFE
:10147000CDBF7C01FA01CB0119A2223008F42AE089
:101480008E010F5D1F4F422E512C612C712CBF011C
:10149000A30192010E94232EF901CA0101501109F2
:1014A0006A3014F4605D01C0695CD8016C93232B31
:1014B000242B252B61F7B801C7010E94C909A19609
:1014C0000FB6F894DEBF0FBECDBFDF91CF911F9155
:1014D0000F91FF90EF907F906F905F904F900895E5
:1014E000CF92DF92EF92FF920F931F93CF93DF93F0
:1014F000EC016A017B012115310579F4E881F9815C
:101500000190F081E02D642FDF91CF911F910F9119
:10151000FF90EF90DF90CF9009942A303105E9F4E5
:1015200077FF1AC06DE20E94EE098C01442755270F
:10153000BA014C195D096E097F092AE0CE010E94AB
:10154000270A800F911FDF91CF911F910F91FF907C
:10155000EF90DF90CF9008952AE0B701A601CE0169
:10156000DF91CF911F910F91FF90EF90DF90CF907F
:101570000C94270A9A01AB01770F660B770B0C943A
:10158000700A2115310541F4DC01ED91FC910190C7
:10159000F081E02D642F09940C94270A9A01462FBC
:1015A00050E060E070E00C94C10A1F920F920FB6F9
:1015B0000F9211242F938F939F93EF93FF93E091BA
:1015C0008305F09184058081E0918905F0918A0579
:1015D00082FD12C0908180918C058F5F8F73209166
:1015E0008D05821751F0E0918C05F0E0ED58FA4F2F
:1015F000958F80938C0501C08081FF91EF919F9121
:101600008F912F910F900FBE0F901F9018951F92E2
:101610000F920FB60F9211242F933F934F935F9326
:101620006F937F938F939F93AF93BF93EF93FF93AA
:1016300083E795E00E94BF0BFF91EF91BF91AF91BF
:101640009F918F917F916F915F914F913F912F91DA
:101650000F900FBE0F901F90189583E795E00E94A2
:10166000740B21E0892B09F420E0822F0895E3E731
:10167000F5E01382128288EE93E0A0E0B0E084836C
:101680009583A683B78381E594E09183808385EC7D
:1016900090E09587848784EC90E09787868780EC3C
:1016A00090E0918B808B81EC90E0938B828B82EC2D
:1016B00090E0958B848B86EC90E0978B868B118ED7
:1016C000128E138E148E089508950E94CA080E94E7
:1016D000640B0E945301C1EBDBE00E94840620975B
:1016E000E1F30E94B10BF9CFFC01918D228D892F7E
:1016F00090E0805C9F4F821B91098F73992708951A
:10170000FC01918D828D981731F0828DE80FF11DCB
:10171000858D90E008958FEF9FEF0895FC01918DE6
:10172000828D981761F0828DDF01A80FB11D5D9643
:101730008C91928D9F5F9F73928F90E008958FEFB1
:101740009FEF0895FC01538D448D252F30E0842FA9
:1017500090E0821B930B541710F0CF9608950197D9
:1017600008958DE29BE0892B49F080E090E0892B81
:1017700029F00E942D0B81110C9400000895FC01AA
:10178000848DDF01A80FB11DA35ABF4F2C91848D0A
:1017900090E001968F739927848FA689B7892C933F
:1017A000A089B1898C9180648C93938D848D9813DA
:1017B00006C00288F389E02D80818F7D80830895A3
:1017C000CF93DF93EC01888D8823C9F0EA89FB89E8
:1017D000808185FD05C0A889B9898C9186FD0FC0DF
:1017E0000FB607FCF5CF808185FFF2CFA889B989B4
:1017F0008C9185FFEDCFCE010E94BF0BE7CFDF912B
:10180000CF910895EF92FF920F931F93CF93DF93A1
:10181000EC0181E0888F9B8D8C8D981305C0E88941
:10182000F989808185FD24C0F62E0B8D10E00F5FB5
:101830001F4F0F731127E02E8C8DE8120CC00FB6CE
:1018400007FCFACFE889F989808185FFF5CFCE01C1
:101850000E94BF0BF1CF8B8DFE01E80FF11DE35A03
:10186000FF4FF0820B8FEA89FB898081806207C07D
:10187000EE89FF896083E889F989808180648083AB
:1018800081E090E0DF91CF911F910F91FF90EF9059
:101890000895CF92DF92EF92FF921F93CF93DF9341
:1018A000EC016A017B01122FE889F98982E08083CB
:1018B0004115514E61057105B1F060E079E08DE3AD
:1018C00090E0A70196010E94232EDA01C901019739
:1018D000A109B109B695A79597958795AC014115D2
:1018E00080E15807A8F0E889F989108260E874E877
:1018F0008EE190E0A70196010E94232EBA01A90172
:101900004150510961097109769567955795479539
:10191000EC85FD855083EE85FF854083188EEC892C
:10192000FD891083EA89FB89808180618083EA894F
:10193000FB89808188608083EA89FB898081806857
:101940008083EA89FB8980818F7D8083DF91CF91BD
:101950001F91FF90EF90DF90CF9008958F929F920C
:10196000AF92BF92CF92DF92EF92FF920F931F93AD
:10197000CF93DF937C018B016C0182E0C80ED11CF8
:101980004701E5E08E0E911CC0E0D0E0F6016191C8
:101990006F014AE050E0C8010E94CE0A5C016EE28D
:1019A000C8010E94EE098A0D9B1DC80FD91FC814DB
:1019B000D90461F74AE050E0F7016581C8010E944F
:1019C000CE0A8C0F9D1FDF91CF911F910F91FF9039
:1019D000EF90DF90CF90BF90AF909F908F90089541
:1019E00023E634E0FC0131832083128213821482C7
:1019F000158208950F93FC0183E694E09183808320
:101A000062834383248305830F91089523E634E0A2
:101A1000FC0131832083FB0140815181628173810C
:101A2000FC0142835383648375830895FB014081E5
:101A3000518162817381FC01428353836483758386
:101A40000895E0E1F6E083E694E0918380831282DA
:101A50001382148215820895FC01808191810C9477
:101A6000E129CF93DF93EC0188819981009711F0F0
:101A70000E94E129198218821D821C821B821A820F
:101A8000DF91CF9108950F931F93CF93DF93EC01D4
:101A90008B016F5F7F4F888199810E94D52A0097C3
:101AA00031F0998388831B830A8381E001C080E041
:101AB000DF91CF911F910F910895CF93DF93EC01A8
:101AC00088819981892B29F08A819B8186179707C4
:101AD00060F4CE010E94430D882341F08C819D81EA
:101AE000892B19F4E881F981108281E0DF91CF918F
:101AF0000895EF92FF920F931F93CF93DF93EC0122
:101B00007B018A01BA010E945D0D811104C0CE01E2
:101B10000E94310D07C01D830C83B7018881998114
:101B20000E94C12BCE01DF91CF911F910F91FF90A9
:101B3000EF900895FC0111821082138212821582A7
:101B400014826115710551F0FB0101900020E9F745
:101B50003197AF01461B570B0C94790D0895CF9325
:101B6000DF93EC01FB018617970761F060817181BB
:101B70006115710529F0448155810E94790D02C0DB
:101B80000E94310DCE01DF91CF910895FC011182A9
:101B9000108213821282158214820C94AF0DCF939F
:101BA000DF93EC016115710559F0FB0101900020F4
:101BB000E9F73197AF01461B570B0E94790D02C020
:101BC0000E94310DCE01DF91CF9108950F931F93A5
:101BD000CF93DF93CDB7DEB729970FB6F894DEBF6A
:101BE0000FBECDBF8C01862FF801118210821382A7
:101BF00012821582148250E0BE016F5F7F4F90E029
:101C00000E94DE2BBE016F5F7F4FC8010E94CF0D87
:101C100029960FB6F894DEBF0FBECDBFDF91CF91EE
:101C20001F910F9108950F931F93CF93DF93CDB71B
:101C3000DEB762970FB6F894DEBF0FBECDBF8C0142
:101C4000CB01F80111821082138212821582148254
:101C500050E0BE016F5F7F4F0E94C82BBE016F5FD7
:101C60007F4FC8010E94CF0D62960FB6F894DEBF79
:101C70000FBECDBFDF91CF911F910F9108950F93AC
:101C80001F93CF93DF93CDB7DEB761970FB6F8946C
:101C9000DEBF0FBECDBF8C01CB01F80111821082D7
:101CA000138212821582148250E0BE016F5F7F4F53
:101CB0000E94DE2BBE016F5F7F4FC8010E94CF0DD7
:101CC00061960FB6F894DEBF0FBECDBFDF91CF9106
:101CD0001F910F910895EF92FF920F931F93CF934F
:101CE000DF93FC01248135816115710511F480E0D9
:101CF00019C041155105A9F07B01EC018A01020FC1
:101D0000131FB8010E945D0D882389F32881398152
:101D10008C819D81B701820F931F0E94C12B1D836F
:101D20000C8381E0DF91CF911F910F91FF90EF9095
:101D30000895CF93DF93EC01FB01448155816081CD
:101D400071810E946B0E811103C0CE010E94310D82
:101D5000CE01DF91CF910895FC0124813581232BA1
:101D600031F421E061157105A1F0FB0108C0FC010F
:101D7000808191816115710531F421E0FC01808140
:101D8000882339F005C00E94B82B21E0892B09F087
:101D900020E0822F0895DC01ED91FC910190F0810B
:101DA000E02D0994089560E470E08EEA96E00E94C8
:101DB000B1206EEF70E08EEA96E00E94CB0E8EEAC4
:101DC00096E00E9430216FE070E080E090E00C949B
:101DD0008E08CF93DF93EC018EEA96E00E949D205F
:101DE000CE010E94D30E60E470E08EEA96E00E947D
:101DF000B12067EE70E08EEA96E00E94CB0E8EEA8C
:101E000096E00E94302141E050E060E470E08EEA0C
:101E100096E00E942D218EEA96E00E940A2021E0A1
:101E2000029709F020E0822FDF91CF910895CF93A0
:101E3000DF9360E470E08EEA96E00E94B12063EEEA
:101E400070E08EEA96E00E94CB0E8EEA96E00E9449
:101E5000302162E370E080E090E00E948E0843E071
:101E600050E060E470E08EEA96E00E942D218EEA58
:101E700096E00E940220892BD1F38EEA96E00E9420
:101E80000A20D82F80E0C82F8EEA96E00E940A2010
:101E9000C82BD92B8EEA96E00E940A20BE0180E072
:101EA00090E00E94182D22E538EB4FE253E40E94A7
:101EB000A62D20E030E040E857E30E94A62D26E65C
:101EC00036E64BE352E40E94032CDF91CF91089554
:101ED000CF93DF9360E470E08EEA96E00E94B12039
:101EE00065EE70E08EEA96E00E94CB0E8EEA96E0F8
:101EF0000E94302162E370E080E090E00E948E0852
:101F000043E050E060E470E08EEA96E00E942D210C
:101F10008EEA96E00E940220892BD1F38EEA96E0A9
:101F20000E940A20D82F80E0C82F8EEA96E00E94F7
:101F30000A20C82BD92B8EEA96E00E940A20BE0107
:101F400080E090E00E94182D20E030E04AEF52E45B
:101F50000E94A62D20E030E040E857E30E94A62D25
:101F600020E030E040EC50E40E94032CDF91CF9160
:101F7000089508951F93CF93DF9300D0CDB7DEB7B8
:101F8000162FFC0160818EEA96E04A8359830E94F5
:101F9000A720612F8EEA96E00E945E205981652F6E
:101FA0008EEA96E00E945E204A81642F8EEA96E0D7
:101FB0000E945E208EEA96E00F900F90DF91CF9105
:101FC0001F910C9430211F93CF93DF93EC01162FB8
:101FD00068818EEA96E00E94A720612F8EEA96E043
:101FE0000E945E208EEA96E00E94302142E06881E5
:101FF0008EEA96E00E942A218EEA96E00E940A204C
:10200000D82F80E0C82F8EEA96E00E940A208C2B01
:102010009D2BDF91CF911F910895CF93DF93EC011A
:1020200068838EEA96E00E949D2066E0CE010E94C1
:10203000E30F8435910511F080E00EC067E0CE011A
:102040000E94E30F81159440B9F740E050E061E051
:10205000CE010E94BA0F81E0DF91CF910895CF9316
:10206000DF9365E00E94E30FEC01BC017F7080E02C
:1020700090E00E94182D20E030E040E85DE30E94EF
:10208000A62DD4FF06C020E030E040E853E40E94D3
:10209000032CDF91CF9108958FEF9FEF9093170658
:1020A0008093160608951F920F920FB60F92112477
:1020B0000F900FBE0F901F901895A8950895DA0104
:1020C000F90160348FE178071CF46115710539F46A
:1020D00089E090E08D939C9380E49FE158C0603A42
:1020E0008FE078073CF088E090E08D939C9380EA45
:1020F0009FE04DC0603D87E078073CF087E090E0CE
:102100008D939C9380ED97E042C0683E83E0780712
:102110003CF086E090E08D939C9388EE93E037C08E
:10212000643F81E078073CF085E090E08D939C93DC
:1021300084EF91E02CC06A3F71053CF084E090E0B0
:102140008D939C938AEF90E022C0683771053CF034
:1021500083E090E08D939C9388E790E018C06C3307
:1021600071053CF082E090E08D939C938CE390E0CD
:102170000EC06E3171053CF081E090E08D939C9330
:102180008EE190E004C01D921C928FE090E091835C
:10219000808308950F931F93CF93DF9300D0CDB723
:1021A000DEB78C019E012F5F3F4FAC010E945F1094
:1021B000F801808183FD02C098E001C098E2877039
:1021C000892B98E10FB6F894A895909360000FBE04
:1021D0008093600089819A810F900F90DF91CF9159
:1021E0001F910F910895DC01ED91FC91048CF58D08
:1021F000E02D099423E634E0FC0131832083FB01C8
:102200004089518962897389FC01428353836483C5
:1022100075830895FC01848995890895FC01818D59
:10222000928D0895CF93DF931F92CDB7DEB7698368
:10223000DC01ED91FC910280F381E02D41E050E062
:10224000BE016F5F7F4F09950F90DF91CF91089589
:102250000895CF93DF93EC01888D843061F00E9464
:10226000A916E88DF0E0EE0FFF1FEA56F94F118234
:10227000108284E0888FDF91CF910895FC01178A46
:10228000168A6E5F7F4F808D0C942718FC01808D1D
:102290000C946D18CF93DF93EC019A018E899F897E
:1022A000AB01BC01888D0E94E0172E893F89280F61
:1022B000391F3F8B2E8BDF91CF9108950F931F9382
:1022C000CF93DF931F92CDB7DEB7FC01218D328D06
:1022D000232B61F08C0141E050E0BE016F5F7F4F26
:1022E000808D0E942617181619061CF08FEF9FEF9D
:1022F00008C0F801818D928D0197928F818F89811D
:1023000090E00F90DF91CF911F910F910895CF939F
:10231000DF93FC01218D328D2115310519F48FEFEA
:102320009FEF11C0EC014217530708F0A901888DF7
:102330000E9426171816190694F7298D3A8D281B26
:10234000390B3A8F298FDF91CF910895CF93DF9387
:102350001F92CDB7DEB7FC01218D328D232B49F0C2
:10236000BE016F5F7F4F808D0E94B117898190E021
:1023700002C08FEF9FEF0F90DF91CF910895EF9202
:10238000FF921F93CF93DF93FC01208D243011F037
:1023900080E01CC07B01EC0110E0812F0E948116BF
:1023A000811102C0188F05C08831E1F31F5F14301E
:1023B000A1F7888D843061F3FD86EC861A8E198E24
:1023C00020E0A70162E00E94D31681E0DF91CF9167
:1023D0001F91FF90EF9008950F931F93CF93DF937A
:1023E000CDB7DEB728970FB6F894DEBF0FBECDBFCE
:1023F0008C01F801818D928D892B49F0D801ED91E6
:10240000FC910284F385E02DC8010995F2CF808DFF
:102410000E9486171816190654F548E050E0BE01D0
:102420006F5F7F4FD80158968C910E9426179C01B0
:1024300018161906D4F4BE016F5F7F4FC8010E96BF
:102440000E94160D8D8190E0982F88272E81820F93
:10245000911DF801958B848B2F8130E0322F22273C
:102460008885280F311D328F218FC90102C080E07D
:1024700090E028960FB6F894DEBF0FBECDBFDF9177
:10248000CF911F910F9108958F929F92AF92BF921B
:10249000CF92DF92EF92FF920F931F93CF93DF9330
:1024A00000D000D000D0CDB7DEB7FC01208D2430A5
:1024B00009F068C06A017B018C0153E0852E54E06D
:1024C000952EA12CB12CC4010E942714811103C0A8
:1024D000F801A08E0AC08831D9F3FFEFAF1ABF0A06
:1024E0009394E4E0AE16B10471F7F801808D843066
:1024F00009F448C096E0E6E1F1E0DE0111960190B2
:102500000D929A95E1F7F70193819F779C839481CF
:102510009D8395819E83B7016E5F7F4F90E0982FDA
:10252000882744E050E0845F9B4F0E94F813F80135
:10253000E08CF12CF4E0EF0EF11CFE2CEE246D2D5E
:10254000C70140960E9464136C2DC70141960E94FA
:102550006413F801808D90E0982F882746E050E0C2
:10256000BE016F5F7F4F8A5F9B4F0E94F813F80197
:10257000128E118E20E8A60162E0808D0E94D31693
:1025800081E001C080E026960FB6F894DEBF0FBE52
:10259000CDBFDF91CF911F910F91FF90EF90DF9012
:1025A000CF90BF90AF909F908F900895CF93DF937F
:1025B000EC011B821A8288EE93E0A0E0B0E08C83ED
:1025C0009D83AE83BF8389E694E099838883CE019F
:1025D0000E960E94F00C84E0888FDF91CF910895D1
:1025E000CF92DF92EF92FF920F931F93CF93DF93DF
:1025F000CDB7DEB7AF970FB6F894DEBF0FBECDBF35
:102600008C016B017A01CE0101960E94F00CCE0183
:1026100009960E94D612CE018A960E94F00C60E3C1
:1026200076E0CE0184960E94EE19BE016C5D7F4F6C
:10263000CE0101960E94101AAE01465D5F4FB601B1
:10264000CE0101960E947F1C81309105C1F4D80112
:10265000ED91FC910488F589E02D83E694E09DA33B
:102660008CA38CA59DA5AEA5BFA58EA39FA3A8A74F
:10267000B9A7A701BE016C5D7F4FC8010995AF9650
:102680000FB6F894DEBF0FBECDBFDF91CF911F9183
:102690000F91FF90EF90DF90CF9008950F9300E09F
:1026A00020E040E060E088E196E00E94FA0C0F91A3
:1026B00008958EBD00000DB407FEFDCF8EB50895C0
:1026C0002A9808952A9A08951F93CF93DF9300D0F4
:1026D000CDB7DEB7182F6A8399830E94601380EF0D
:1026E0000E9459139981892F0E945913812F0E94AA
:1026F00059136A81862F0E9459130E94621381E048
:102700000F900F90DF91CF911F910895CF93DF939A
:10271000EC016CE271E080E090E00E948E080E9483
:102720000D1D229A8091AC06882399F02FB7F8945A
:102730008091AC06813059F48DB38093AA069DB385
:102740008091AB06809589238DBB2FBF02C020935B
:10275000AA0680E58CBD1DBC60E880E090E00E9488
:10276000641365E58BE190E00E94641365E58AE1FE
:1027700090E00E9464138091AC06882351F09FB7CB
:10278000F8942091AC068091AA06213029F58DBBE2
:102790009FBF80E090E49983888380E090E69987EA
:1027A000888780E098E49B838A8380E098E69B8713
:1027B0008A8780E090E59D838C8380E090E79D8709
:1027C0008C8780E098E59F838E8380E098E79F87E1
:1027D0008E87DF91CF9108958FBFDBCF9B0190E073
:1027E0000496982F8827642F820F931F0C946413EC
:1027F000CF92DF92EF92FF920F931F93CF93DF93CD
:10280000EC017A018B016C01C40ED51ECC15DD05DF
:10281000A1F00E94601380EF0E9459138D2F0E9437
:1028200059138C2F0E9459132196F80181918F0121
:102830000E9459130E946213E9CFC701DF91CF9123
:102840001F910F91FF90EF90DF90CF9008951F930D
:10285000CF93DF931F92CDB7DEB7182F99830E94D5
:1028600060138FE00E9459139981892F0E94591398
:10287000812F0E94591380E00E94591389830E947E
:10288000621389810F90DF91CF911F91089590E09D
:102890000496982F8827860F971F0C9427141F9350
:1028A000CF93DF93182F60E270E00E944714C82F87
:1028B000D0E061E270E0812F0E944714DC2FCC272A
:1028C0009E01282BC901DF91CF911F910895FF929E
:1028D0000F931F93CF93DF93F62EC0E0D0E08F2DA0
:1028E0000E944F148C01892B21F08F2D0E944F14D0
:1028F000EC01C017D10799F7CE01DF91CF911F915D
:102900000F91FF9008951F93CF93DF93182F66E2E6
:1029100070E00E944714C82FD0E067E270E0812F7A
:102920000E944714DC2FCC279E01282BC901DF9180
:10293000CF911F910895FF920F931F93CF93DF9331
:10294000F62EC0E0D0E08F2D0E9483148C01892BDD
:1029500021F08F2D0E948314EC01C017D10799F745
:10296000CE01DF91CF911F910F91FF9008956F924B
:102970007F928F929F92AF92BF92CF92DF92EF920F
:10298000FF920F931F93CF93DF931F92CDB7DEB7C4
:10299000882E962E6A01590164E270E0892D998390
:1029A0000E944714E82EF12C65E270E0892D0E9408
:1029B0004714FE2CEE24E82A37016C0C7D1CA30181
:1029C0005770E82C9981F92EE90CF11CE90CF11CE7
:1029D000F70180819181840F951F9A01200F311F8B
:1029E0002130384098F060E078E06B01C41AD50AD5
:1029F000A601B5010E94F813A8014C195D09B501A3
:102A00006C0D7D1DF7018081918102C0A801B50187
:102A10000E94F813060D171D412F64E270E0892D06
:102A20000E94EE13402F65E270E0892D0F90DF9138
:102A3000CF911F910F91FF90EF90DF90CF90BF90BB
:102A4000AF909F908F907F906F900C94EE13CF92E9
:102A5000DF92EF92FF920F931F93CF93DF93EC01DE
:102A60007A018B016C01C40ED51ECC15DD05A9F0D1
:102A70000E9460138FE00E9459138D2F0E945913FA
:102A80008C2F0E945913219680E00E945913F8015F
:102A900081938F010E946213E8CFC701DF91CF912C
:102AA0001F910F91FF90EF90DF90CF900895AF921C
:102AB000BF92CF92DF92EF92FF920F931F93CF932B
:102AC000DF9300D0CDB7DEB75A83498359012981FE
:102AD0003A8137706C01C60ED11CC60ED11CF601AE
:102AE00080859185820F931FA801420F531F4130AB
:102AF000584098F0E0E0F8E07F01E21AF30AA701FD
:102B0000B5010E942715A8014E195F09B5016E0D88
:102B10007F1DF6018085918502C0A801B5010F9047
:102B20000F90DF91CF911F910F91FF90EF90DF9069
:102B3000CF90BF90AF900C9427158F929F92AF9239
:102B4000BF92CF92DF92EF92FF920F931F93CF939A
:102B5000DF936C01962E5A017901802E68E270E0B5
:102B6000892D0E944714C82FD0E069E270E0892DBA
:102B70000E944714DC2FCC27C82B87019501AE019A
:102B8000692DC6010E94571581101AC0CE0DDF1D98
:102B90004D2F68E270E0892D0E94EE134C2F69E200
:102BA00070E0892DDF91CF911F910F91FF90EF90F1
:102BB000DF90CF90BF90AF909F908F900C94EE13CA
:102BC000DF91CF911F910F91FF90EF90DF90CF9009
:102BD000BF90AF909F908F900895CF93C62F61E0E4
:102BE00070E08C2F0E94EE1361E070E08C2F0E9449
:102BF00047148111F9CFCF9108950F93FC0130E074
:102C000080E092E1AAE7B0E0481759076A077B071E
:102C100040F4B695A795979587953F5F3630A1F715
:102C200037E091E09327222311F020E501C020E74F
:102C3000892F86950C70082B022B0083917091834D
:102C40000F9108952091AC06222399F04FB7F89484
:102C50002091AC06213059F42DB32093AA063DB340
:102C60002091AB06209523232DBB4FBF02C040937C
:102C7000AA068CBD9DBD08958091AC06882361F0A5
:102C80009FB7F8942091AC068091AA06213019F4E0
:102C90008DBB9FBF08958FBF089590E0982F882720
:102CA00044E050E0845F9B4F0C94F81362E070E0C6
:102CB0000C944714CF93DF93C82FD62F472F64E08F
:102CC00070E00E94EE134D2F65E070E08C2FDF91D5
:102CD000CF910C94EE13462F62E070E00C94EE134B
:102CE000CF93DF93C82FD62F472F60E170E00E946B
:102CF000EE134D2F61E170E08C2FDF91CF910C949A
:102D0000EE130F931F93CF93DF9300D01F92CDB795
:102D1000DEB7182F00E021E040E059E06DE370E0FD
:102D2000CE0101960E94FD1589819A810E9422168A
:102D300063E070E0812F0E9447148B830E943C1651
:102D40008B810F900F900F90DF91CF911F910F917A
:102D500008950F931F93CF93DF9300D0CDB7DEB7C5
:102D6000182F00E021E040E059E06DE370E0CE0173
:102D700001960E94FD1589819A810E94221640E1E8
:102D800050E0612F8EE196E00E94ED156FEF812FEC
:102D90000E946B160E943C160F900F90DF91CF910E
:102DA0001F910F910895CF92DF92EF92FF920F93B0
:102DB0001F93CF93DF9300D0CDB7DEB79FEF960F71
:102DC0009530C0F5F22E6A01E62E182F0E94A91642
:102DD00000E021E040E059E06DE370E0CE010196B3
:102DE0000E94FD1589819A810E9422164E2D4F293D
:102DF00060E070E0812F0E94EE13C114D10411F045
:102E0000B6010AC060912E0670912F066F5F7F4F4A
:102E100070932F0660932E06812F0E945A1641E070
:102E200050E0612F8EE196E00E94ED150E943C1665
:102E300081E001C080E00F900F90DF91CF911F9152
:102E40000F91FF90EF90DF90CF900895AF92BF92D7
:102E5000CF92DF92EF92FF920F931F93CF93DF9366
:102E600000D0CDB7DEB7182F5B016A0100E021E08A
:102E700040E059E06DE370E0CE0101960E94FD153F
:102E800089819A810E942216612F8EE196E00E942C
:102E90009B147C010097A1F463E070E0812F0E94F5
:102EA0004714843119F1882309F121E030E08C3195
:102EB00011F420E030E0EE24FF24E21AF30A16C0F9
:102EC000C816D9060CF476011E141F047CF400E029
:102ED0009701A501612F8EE196E00E949D1540E4C7
:102EE00050E0612F8EE196E00E94ED150E943C16A5
:102EF000C7010F900F90DF91CF911F910F91FF901D
:102F0000EF90DF90CF90BF90AF9008950F931F93F5
:102F1000CF93DF9300D000D0CDB7DEB7182F00E0FD
:102F200021E040E059E06DE370E0CE0101960E949F
:102F3000FD1589819A810E942216612F8EE196E00B
:102F40000E949B148B839C830E943C168B819C81E6
:102F50000F900F900F900F90DF91CF911F910F91D5
:102F60000895EF92FF920F931F93CF93DF9300D0BA
:102F7000CDB7DEB7182F7B0100E021E040E059E03B
:102F80006DE370E0CE0101960E94FD1589819A8162
:102F90000E94221601E021E030E0A701612F8EE1BE
:102FA00096E00E949D150E943C1681E090E00F90F3
:102FB0000F90DF91CF911F910F91FF90EF900895A7
:102FC0008F929F92AF92BF92DF92EF92FF920F93F8
:102FD0001F93CF93DF9300D0CDB7DEB7D82E5B0120
:102FE0004A01790100E021E040E059E06DE370E042
:102FF000CE0101960E94FD1589819A810E942216B8
:103000006D2D8EE196E00E9467148E159F0530F4B9
:103010006D2D8EE196E00E9467147C01870194017A
:10302000A5016D2D8EE196E00E94B7140E943C161A
:10303000C7010F900F90DF91CF911F910F91FF90DB
:10304000EF90DF90BF90AF909F908F900895CF92B8
:10305000DF92EF92FF920F931F93CF93DF9300D0F5
:10306000CDB7DEB7FB019081911109C0918191111B
:1030700006C09281911103C09381992309F14115F2
:103080005105F1F06A017F01182F00E021E040E0D6
:1030900059E06DE370E0CE0101960E94FD15898133
:1030A0009A810E942216B701812F0E944D16B60107
:1030B000812F0E9470160E943C1681E090E002C0B1
:1030C00080E090E00F900F90DF91CF911F910F91D2
:1030D000FF90EF90DF90CF9008950F931F93CF93C1
:1030E000DF9300D0CDB7DEB7182F00E021E040E03D
:1030F00059E06DE370E0CE0101960E94FD158981D3
:103100009A810E94221640E250E0612F8EE196E003
:103110000E94ED15812F0E94561684FD21C0812F3B
:103120000E94561683FF09C068E1812F0E946B162A
:103130000E943C1680E090E01BC00E943C160E945A
:10314000050900E021E040E059E06DE370E0CE01C8
:1031500001960E94FD1589819A810E942216DACF7C
:1031600060E1812F0E946B160E943C1681E090E086
:103170000F900F90DF91CF911F910F91089544E030
:1031800050E0BC0181E090E00C94F81344E050E082
:10319000BC0185E090E00C94F81344E050E0BC01E1
:1031A0008FE090E00C94F8132F923F924F925F9231
:1031B0006F927F928F929F92AF92BF92CF92DF9247
:1031C000EF92FF920F931F93CF93DF9300D000D025
:1031D00000D0CDB7DEB76C011B0129013A014701D0
:1031E000580188E396E0F601978386838EE196E0A6
:1031F0000E94861380E590E00E94221646E050E08F
:10320000B10189E090E00E94F81300E020E040E086
:1032100060E0CE0101960E94FA0CCE0103960E9456
:10322000CD180E943C1685017401A3019201B101E1
:10323000F601868197810E9470288C010197B9F56B
:1032400080E590E00E942216F60166817781CE012A
:1032500001960E94AA23CE0103960E94CD18F60182
:1032600066817781CE0101960E94C023CE0103962C
:103270000E94BF18F60166817781CE0101960E94F7
:10328000B523CE0103960E94C6180E943C16F60193
:1032900066817781CE0101960E94CB238B819C8130
:1032A000AD81BE81F60182839383A483B583C80177
:1032B00026960FB6F894DEBF0FBECDBFDF91CF913B
:1032C0001F910F91FF90EF90DF90CF90BF90AF9044
:1032D0009F908F907F906F905F904F903F902F9036
:1032E0000895EF92FF920F931F93CF93DF9300D037
:1032F00000D000D0CDB7DEB7FC0126813781211583
:10330000310509F443C08C01C9010E94AF287C013A
:10331000029721F084E0E816F104D1F580E590E011
:103320000E942216F80166817781CE0101960E94E3
:10333000AA23CE0103960E94CD18F80166817781F9
:10334000CE0101960E94C023CE0103960E94BF18B1
:10335000F80166817781CE0101960E94B523CE01E6
:1033600003960E94C6180E943C16F8016681778178
:10337000CE0101960E94CB238B819C81AD81BE81C1
:10338000F80182839383A483B58302C0E12CF12CDE
:10339000C70126960FB6F894DEBF0FBECDBFDF91F2
:1033A000CF911F910F91FF90EF900895CF93DF93EE
:1033B000EC010E94F00C80E590E00E942216BE0114
:1033C0006E5F7F4F44E050E08FE090E00E94271551
:1033D0000E943C16CE01DF91CF91089523E634E0A0
:1033E000FC0131832083FB0142815381648175811B
:1033F000FC01428353836483758308950F9300E037
:1034000020E040E060E08EE996E00E94FA0C8BE755
:1034100096E00E94D61280E396E00F910C94F00C97
:10342000FB014281538164817581FC014283538396
:1034300064837583178216820895CF93DF93FB010F
:1034400020E080E090E0AAE03191332301F160EDCB
:10345000630F6A3080F4A89FB001A99F700D1124FA
:10346000CB01C097830F911D37FD9A958F3F910532
:1034700059F350F313C03E3289F4233079F0EA0156
:10348000C20FD11D8A832F5F80E090E0DDCF233013
:1034900029F4FA01858381E090E002C080E090E0A9
:1034A000DF91CF9108950F9300E020E040E060E0CD
:1034B00084EA96E00E94FA0C0F9108958F929F92F1
:1034C000AF92BF92CF92DF92EF92FF920F931F9332
:1034D000CF93DF9300D000D01F92CDB7DEB78C0121
:1034E0006B010E945D08F801778366837627672762
:1034F00076277A836983085F1F4F42E050E0BE0160
:103500006F5F7F4FC8010E944A1181E090E09C8369
:103510008B8342E050E0BE016D5F7F4FC8010E9487
:103520004A1180E091E09C838B8342E050E0BE0131
:103530006D5F7F4FC8010E944A111C821B8242E0CE
:1035400050E0BE016D5F7F4FC8010E944A1142E00A
:1035500050E0BE016D5F7F4FC8010E944A1142E0FA
:1035600050E0BE016D5F7F4FC8010E944A115601B5
:10357000F5018081882329F1C6017C01FC012081AD
:103580000196211116C0570147018C189D08181487
:10359000190494F48D8241E050E0BE016B5F7F4FCF
:1035A000C8010E944A11A401B601C8010E944A1133
:1035B00003C02E3211F7E7CF6701FFEFCF1ADF0A02
:1035C000D7CF1D8241E050E0BE016B5F7F4FC80145
:1035D0000E944A11E12CFF24F394FC82EB8242E02A
:1035E00050E0BE016D5F7F4FC8010E944A11FC820E
:1035F000EB8242E050E0BE016D5F7F4FC8010E9448
:103600004A1181E090E00F900F900F900F900F9073
:10361000DF91CF911F910F91FF90EF90DF90CF90AE
:10362000BF90AF909F908F9008954F925F926F924E
:103630007F928F929F92AF92BF92CF92DF92EF9242
:10364000FF920F931F93CF93DF93CDB7DEB76597AC
:103650000FB6F894DEBF0FBECDBF7C015B016A01DF
:103660000E945D082B013C018701085F1F4F450147
:10367000A12CB12CC8010E94EC1118161906A4F057
:103680000E945D08DC01CB0184199509A609B709E0
:1036900088169906AA06BB06D0F062E370E080E0C7
:1036A00090E00E948E08E6CFF70142815381648149
:1036B0007581808D918DA28DB38D481759076A074A
:1036C0007B0741F4848D958DC59721F406C02FEFBB
:1036D0003FEFFDC02EEF3FEFFAC0C8010E940E1170
:1036E0000C97ECF04CE050E0BE016F5F7F4FC801DB
:1036F0000E9487116C818B810E949E239A8B898BFB
:10370000F701E680F7806A8189810E949E23E8168E
:10371000F90641F489899A8997FF04C009C02DEF01
:103720003FEFD5C0C8010E9428112CEF3FEFCFC05A
:103730008F709270892B31F0C8010E9428112BEFF5
:103740003FEFC5C068858F810E949E235C01892B55
:1037500031F4C8010E9428112AEF3FEFB8C0E12CD4
:10376000F12C6E818D810E949E23E816F90640F5AA
:1037700041E050E0BE01635F7F4FC8010E948711A6
:103780008D85811113C08D858111F2CFC8010E94F2
:103790005E11C8010E945E11C8010E945E11C8013D
:1037A0000E945E11FFEFEF1AFF0ADBCF8D859FEFBE
:1037B000980F9D87882339F3C8010E945E11F6CFC8
:1037C000E12CF12C41E050E0BE016D5E7F4FC8015D
:1037D0000E9487118B89982F907C61F4882371F067
:1037E0008B899FEF980F9B8B882341F0C8010E9423
:1037F0005E11F6CFC8010E945E111B8A8B89811170
:10380000E1CF42E050E0BE01615F7F4FC8010E94FE
:10381000871142E050E0BE01635F7F4FC8010E9404
:103820008711C8010E945E11C8010E945E11C80183
:103830000E945E11C8010E945E1142E050E0BE018C
:103840006F5E7F4FC8010E9487118F85988981150F
:10385000914001F52D853E853227232732272130DF
:103860003105C1F489899A898115944031F0C801E4
:103870000E94281127EF3FEF2AC0B6016E5F7F4FED
:1038800044E050E0C8012C8B3D8B0E9487112C89AD
:103890003D891DC0812C912C89899A899827892777
:1038A00098278816990638F4C8010E945E118FEF98
:1038B000881A980AF1CFEFEFEE1AFE0AEA14FB0419
:1038C00009F080CFC8010E94281126EF3FEFC901FF
:1038D00065960FB6F894DEBF0FBECDBFDF91CF91D6
:1038E0001F910F91FF90EF90DF90CF90BF90AF901E
:1038F0009F908F907F906F905F904F9008958F92E0
:103900009F92AF92BF92CF92DF92EF92FF920F936E
:103910001F93CF93DF9300D000D000D0CDB7DEB798
:103920007C014B015A010E941D1A8C01892B09F060
:103930005BC0F70142815381648175818091A60645
:103940009091A706A091A806B091A906481759071B
:103950006A077B0709F44BC00E945D086701F8E025
:10396000CF0ED11C6F7077277C5FC6010E94BF11FC
:10397000813009F03EC083E694E09A838983F701A1
:1039800082819381A481B5818B839C83AD83BE8327
:1039900045E350E0BE016F5F7F4FC6010E943E11BC
:1039A000892B19F400E010E01BC0B401C7010E948C
:1039B0005E1A892BB9F3C6010E944611892B91F337
:1039C00083E0882E912CA50168E873E1C7010E946D
:1039D000151B8C01F1E08F1A910811F0019699F3F3
:1039E000C6010E94291105C001E010E002C00EEFDF
:1039F0001FEFC80126960FB6F894DEBF0FBECDBFED
:103A0000DF91CF911F910F91FF90EF90DF90CF90BA
:103A1000BF90AF909F908F900895CF93CFB7F894B9
:103A20008091AD06811127C0EAE9F0E08491E6E8D3
:103A3000F0E09491E82FF0E0EE0FFF1FE255FF4F0A
:103A4000A591B491EC91E92321F461E08AE00E9410
:103A50006B0961E08AE00E942F098CB580618CBD02
:103A60008CB580648CBD61E08DE00E942F0961E01F
:103A70008BE00E942F098091AD068F5F8093AD0689
:103A8000CFBFCF910895FC01148215821682178250
:103A900008951F93CF93DF931F92CDB7DEB7162FF4
:103AA000FC0160818EEA96E049830E94A720612F85
:103AB0008EEA96E00E945E204981642F8EEA96E0AD
:103AC0000E945E208EEA96E00F90DF91CF911F91C9
:103AD0000C9430211F93CF93DF9300D0CDB7DEB786
:103AE000162FFC0160818EEA96E04A8359830E947A
:103AF000A720612F8EEA96E00E945E205981652FF3
:103B00008EEA96E00E945E204A81642F8EEA96E05B
:103B10000E945E208EEA96E00F900F90DF91CF9189
:103B20001F910C9430211F93CF93DF93EC01162F3C
:103B300068818EEA96E00E94A720612F8EEA96E0C7
:103B40000E945E208EEA96E00E94302141E068816A
:103B50008EEA96E00E942A21C8EED3E08EEA96E033
:103B60000E9402201816190634F0209711F02197B0
:103B7000F5CF80E006C0CD2BE1F38EEA96E00E94FF
:103B80000A20DF91CF911F9108950F93CF93DF9378
:103B9000EC01637041704295407F2F70422B62951B
:103BA000660F607E462B6EE10E94491D002321F0C6
:103BB000083018F007E001C001E08FEF800F61E0EE
:103BC00070E002C0660F771F8A95E2F7072E000C9F
:103BD000880B990B0E941A2D9B01AC0160E074E2E6
:103BE00084EF99E40E94702C0E94E92C6C837D8301
:103BF0008E839F836FE1CE010E94931D8F78029583
:103C0000007F482F402B6FE1CE01DF91CF910F91C4
:103C10000C94491D1F93CF93DF93EC01162F6881FD
:103C20008EEA96E00E94A720612F8EEA96E00E941D
:103C30005E208EEA96E00E94302142E068818EEAA2
:103C400096E00E942A21C0EDD7E08EEA96E00E941D
:103C5000022002973CF4209711F02197F6CF80E0E4
:103C600090E011C0CD2BD9F38EEA96E00E940A2095
:103C7000C82F8EEA96E00E940A2020E030E03C2F18
:103C8000A901482BCA01DF91CF911F910895CF92CE
:103C9000DF92EF92FF920F931F93CF93DF938C01EC
:103CA000D62FF42E6EE00E940A1E41E050E09A01E9
:103CB00002C0220F331FDA95E2F7E9018095909553
:103CC00082239323892B89F060E1C8010E940A1E98
:103CD000FF2021F0AC014C2B5D2B05C0C095D09589
:103CE000AC014C235D2360E125C066E0C8010E9461
:103CF0000A1E6C0168E0C8010E940A1E9E01209500
:103D00003095FF2061F07C01E222F322A6014C2BCA
:103D10005D2B66E0C8010E946A1DA7010AC0C82B7E
:103D2000D92BA6014223532366E0C8010E946A1DD5
:103D3000AE0168E0C801DF91CF911F910F91FF9014
:103D4000EF90DF90CF900C946A1D0C94471EFF9269
:103D50000F931F93CF93DF938C01F62E6EE00E949A
:103D60000A1EC1E0D0E002C0CC0FDD1FFA94E2F7DA
:103D70008C239D23892B49F060E1C8010E940A1E13
:103D8000C823D92381E0CD2B09F480E0DF91CF91C6
:103D90001F910F91FF9008950C94A71ECF92DF9270
:103DA000EF92FF920F931F93CF93DF931F92CDB7A4
:103DB000DEB76C01162F60E029830E940A1E41E0E5
:103DC00050E0BA0102C0660F771F1A95E2F78B0127
:103DD000AC01462B572B60E0C6010E946A1D66E0CD
:103DE000C6010E940A1E7801E094F094AC014E21B5
:103DF0005F2166E0C6010E946A1D6EE0C6010E9456
:103E00000A1EAC014E215F216EE0C6010E946A1DB0
:103E10006EE1C6010E94931D8F7D482F40646EE1C4
:103E2000C6010E94491D6FE1C6010E94931D2981B0
:103E3000482F222311F0486801C04777F60184819A
:103E40009581A681B781892B8A2B8B2B49F480E839
:103E500094E8AEE1B0E084839583A683B7834061A4
:103E60006FE1C6010E94491D60E2C6010E940A1E60
:103E7000AC01402B512B60E2C6010E946A1D60E13B
:103E8000C6010E940A1EAC014E215F2160E1C601FD
:103E90000F90DF91CF911F910F91FF90EF90DF90E6
:103EA000CF900C946A1D0F931F93CF93DF93EC0177
:103EB000162F042F6EE00E940A1E9C01802F8D7F1A
:103EC000813059F041E050E0012E02C0440F551FEF
:103ED0000A94E2F7422B532B0DC0E1E0F0E0012EF3
:103EE00002C0EE0FFF1F0A94E2F7E095F095A901DA
:103EF0004E235F236EE0CE010E946A1D023049F41A
:103F000041E0612FCE01DF91CF911F910F910C9471
:103F1000471E033051F420E041E0612FCE01DF91D4
:103F2000CF911F910F910C94CE1EDF91CF911F91D5
:103F30000F9108950C94531FCF93DF93EC016FE121
:103F40000E94931D82FF06C0482F4B7F6FE1CE0178
:103F50000E94491D41E06B81CE010E94531F40E049
:103F60006B81CE010E94471E61E070E080E090E02E
:103F70000E948E0841E06B81CE01DF91CF910C94BD
:103F8000471ECF93DF93662321F0DF91CF910C94EE
:103F90009C1FEC0142E16DE70E94491D44E36DE77F
:103FA000CE01DF91CF910C94491D0F93CF93DF93F6
:103FB000EC018EEA96E00E949D208B818F3F21F0DC
:103FC000CE010E949C1F04C060E0CE010E94C11F70
:103FD00063E1CE010E940A1E81159F4F49F401E062
:103FE00020E040E062E0CE010E94C51D81E001C0FA
:103FF00080E0DF91CF910F910895FC0160834383AE
:104000000C94D51F8091DE0690E02091DF06821B84
:10401000910908959091DF068091DE06981750F47B
:10402000E92FF0E0E052F94F208130E09F5F90935C
:10403000DF0602C02FEF3FEFC9010895E091DF06D0
:104040008091DE06E81730F4F0E0E052F94F80810D
:1040500090E008958FEF9FEF08950895CF92DF923B
:10406000EF92FF920F931F93CF93DF937C01262F44
:10407000972F8A018091BA06882391F0C62FD72FF7
:104080006E01C40ED51ECC15DD0571F06991D70106
:10409000ED91FC910190F081E02DC7010995F3CFDE
:1040A000642F822F0E94F321C801DF91CF911F91CD
:1040B0000F91FF90EF90DF90CF900895CF93DF9313
:1040C0001F92CDB7DEB769832091BA062223D1F0C3
:1040D0002091BB06203240F021E030E0FC01338328
:1040E000228380E090E015C08091BC06E82FF0E0CC
:1040F000E354F94F998190838F5F8093BC0680933E
:10410000BB0605C061E0CE0101960E94F32181E06B
:1041100090E00F90DF91CF910895FC0113821282FD
:1041200088EE93E0A0E0B0E084839583A683B78314
:1041300081E994E09183808308951092DF061092C4
:10414000DE061092BC061092BB060C94372181E06B
:104150008093BA066093DD061092BC061092BB06EF
:1041600008950C94A7200F93062F21E04091BB06E1
:104170006DEB76E08091DD060E949D211092BC06D9
:104180001092BB061092BA060F9108954F925F925B
:104190006F927F92AF92BF92CF92EF92FF920F9366
:1041A0001F93CF93DF935C01F62ED42F28013901A2
:1041B000EE2021F10E94A720CE2DC43008F0C3E0EC
:1041C000C150C0F0D501ED91FC91B8E0CB9FC0018A
:1041D0001124A301920104C0569547953795279560
:1041E0008A95D2F7CA01B9010190F081E02DC5018D
:1041F0000995E6CF60E0C5010E94B3204D2FD13272
:1042000008F040E22C2D60EE76E08F2D0E945521C3
:104210001092DF068093DE06DF91CF911F910F9100
:10422000FF90EF90CF90BF90AF907F906F905F9096
:104230004F900895CF92EF920F931F93C22EE12CCF
:1042400000E010E098010E94C6201F910F91EF90AE
:10425000CF90089521E00C941A2121E00C941A21AA
:1042600061E00C94B3208EEA96E00C948D201092BD
:104270006D0781E080936B0710926A0761E082E12D
:104280000E946B0961E083E10E946B09E9EBF0E0B9
:1042900080818E7F808380818D7F808388E480937E
:1042A000B80085E48093BC000895413208F043C013
:1042B00090916D079111FCCF91E090936D07209341
:1042C0006B072FEF2093000710924507240F2093D0
:1042D000440790936C0790916C07880F892B80930B
:1042E0006C0780916A07813061F410926A078091AF
:1042F0006C078093BB008091BC0083FDF8CF85ECF8
:1043000001C085EE8093BC0080916D078130E1F3A0
:1043100080914507841710F44091450726E437E063
:10432000FB01D9018A2F821B841718F48D91819388
:10433000F9CF842F089580E008950F93413208F05B
:104340004AC090916D079111FCCF32E030936D0718
:1043500000936B073FEF309300071092450740939F
:104360004407FB0166E477E0DB013A2F361B341784
:1043700018F431913D93F9CF10926C0730916C078E
:10438000880F832B80936C0780916A07813061F4DA
:1043900010926A0780916C078093BB008091BC00EB
:1043A00083FDF8CF85EC01C085EE8093BC0022230D
:1043B00021F080916D078230D1F3809100078F3F0B
:1043C00079F080910007803241F0809100078033BE
:1043D00031F094E005C091E003C092E001C093E0A9
:1043E000892F0F91089540912207262F30E0240F46
:1043F000311D21323105DCF420916D072430C9F4E0
:10440000FC0180E090E0861758F43091220721915A
:10441000DC01AC5DB84FA30FB11D2C930196F3CF17
:1044200080912207680F6093220780E0089581E061
:10443000089582E0089585ED8093BC008091BC00D2
:1044400084FDFCCF10926D07089585EC8093BC002D
:1044500010926D0708951F920F920FB60F921124BC
:104460002F933F934F935F936F937F938F939F937C
:10447000AF93BF93EF93FF938091B900887F80360D
:1044800009F49EC078F5883209F45DC090F480315B
:1044900009F456C038F4882309F4F5C0883009F4CB
:1044A0004FC0F5C0883109F44EC0803209F45FC0B6
:1044B000EEC0803409F46AC058F4803309F457C060
:1044C000883309F0E4C0809300070E942522DFC0F2
:1044D000803509F44FC0883509F45DC0883409F08F
:1044E000D6C0D3C0883909F4C4C0A8F4883709F409
:1044F00067C038F4883609F463C0803709F460C0B7
:10450000C6C0883809F4B5C0803909F45FC0803866
:1045100009F0BDC05BC0803B09F483C038F4803A29
:1045200009F466C0883A09F47CC0B1C0803C09F443
:10453000A4C0883C09F4A1C0883B09F487C0A7C087
:1045400080916C0710C0909145078091440798179F
:1045500070F5E091450781E08E0F80934507F0E00C
:10456000EA5BF84F80818093BB0085EC83C0809329
:1045700000078BC0E091450781E08E0F80934507CF
:104580008091BB00F0E0EA5BF84F80839091450793
:10459000809144076BC0E091450781E08E0F8093C6
:1045A00045078091BB00F0E0EA5BF84F8083809183
:1045B0006B0781116AC081E080936A0784EA5EC05C
:1045C00083E080936D0710920107CFCF80910107A0
:1045D000803208F04EC0E091010781E08E0F809399
:1045E00001078091BB00F0E0EE5FF84F8083BDCF04
:1045F0000E94252280910107803230F4E09101076A
:10460000F0E0EE5FF84F10826091010770E0E091FA
:104610006607F091670782E097E00995109201071D
:1046200036C084E080936D07109223071092220712
:10463000E0916807F091690709958091220781113F
:1046400005C081E08093220710922407E0912307A0
:1046500081E08E0F80932307F0E0EC5DF84F8081BE
:104660008093BB009091230780912207981708F44C
:104670007CCF85E88093BC000AC085EC8093BC00A9
:1046800010926D0704C0109200070E941B22FF9138
:10469000EF91BF91AF919F918F917F916F915F91BA
:1046A0004F913F912F910F900FBE0F901F90189533
:1046B000CF93DF9300D000D0CDB7DEB76115710581
:1046C0008105910579F09B01AC0169833A834B83A5
:1046D0005C830E94C72A29813A814B815C810E94B8
:1046E000452E03C060E070E0CB010F900F900F905B
:1046F0000F90DF91CF910895CF92DF92EF92FF92CA
:104700000F931F93621773078407950784F4890139
:104710009A016B017C01C901B8016C197D098E09F0
:104720009F090E9458236C0D7D1D8E1D9F1D1F919A
:104730000F91FF90EF90DF90CF90089570E09B0174
:10474000382BC90108950E9624E1FC0111922A9597
:10475000E9F70895CF93DF93EC01625F7F4F0E94EA
:10476000060DCE01DF91CF910895CF93DF93EC0139
:104770006E5E7F4F0E94060DCE01DF91CF910895AE
:10478000CF93DF93EC016A5E7F4F0E94060DCE014E
:10479000DF91CF910895CF93DF93EC01625E7F4F5D
:1047A0000E94060DCE01DF91CF91089580E3FB01B9
:1047B00080833296842F82958F7090E1899F401973
:1047C00011244A3014F4405D01C0495C4293482FE3
:1047D0008111F0CF08950F9300E020E040E060E009
:1047E0008EE697E00E94FA0C0F9108957F928F92C7
:1047F0009F92AF92BF92CF92DF92EF92FF920F9370
:104800001F93CF93DF93CDB7DEB7AC970FB6F89475
:10481000DEBF0FBECDBF7C01762E942E852E20E20A
:10482000B22ECE0101966C01FC012B2D11922A951E
:10483000E9F70FEF2FEF4FEF6FEF86960E94FA0C1C
:1048400083E694E09AA389A389A59AA5ABA5BCA504
:104850008BA39CA3ADA3BEA387010D5B1F4F43E4B5
:1048600050E0BE016F5D7F4FC8010E943E1101966E
:1048700009F4BFC081E089838A8386E0A82EAB82D9
:104880001C82F70164817581868197810E94642E64
:104890006D837E838F83988789869A8680E890E0EF
:1048A0009C878B874CE150E0B601C8010E944A11F9
:1048B000F6012B2D11922A95E9F7470188E0880E21
:1048C000911CF401D60101900D92AA94E1F740E108
:1048D00050E0B601C8010E944A11F6011192BA9443
:1048E000E9F796E0A92EB12C40E250E0B601C801EC
:1048F0000E944A11F1E0AF1AB108B1F783E689834B
:1049000092E89A8393E59B838C8385E38D8381E092
:104910008E837F829DE3988797E099878A8786E0D8
:10492000F401DE011B9601900D928A95E1F78CE06F
:10493000898B8A8B6FE974E0CE0143960E94C12B6C
:10494000F7014385BE01675E7F4FC7010E94D623F2
:10495000F7014485BE01655E7F4FC7010E94D623E3
:10496000F7014585BE01635E7F4FC7010E94D623D4
:104970004EE150E0B601C8010E944A11F3E07F12F7
:104980001EC082E3898384E08A83F70196859B8336
:1049900097859C8390899D8391899E8396E39F83CD
:1049A0008887828D8987838D8A87848D8B87858D83
:1049B0008C874CE050E0B601C8010E944A1187E3A1
:1049C000898386E08A8391E09B8393E09C838D8337
:1049D0008FE08E838AE38F838BE388878FEF8987CD
:1049E00049E050E0B601C8010E944A11C8010E9486
:1049F0004611AC960FB6F894DEBF0FBECDBFDF9167
:104A0000CF911F910F91FF90EF90DF90CF90BF90CB
:104A1000AF909F908F907F9008952F923F924F92EA
:104A20005F926F927F928F929F92AF92BF92DF922E
:104A3000EF92FF920F931F93CF93DF93CDB7DEB723
:104A4000E4970FB6F894DEBF0FBECDBF7C011A010C
:104A50002B0139010E945D084B015C0187010D5B50
:104A60001F4FC8010E94EC1118161906A4F00E94ED
:104A70005D08DC01CB0188199909AA09BB09281630
:104A800039064A065B06F0F062E370E080E090E0F1
:104A90000E948E08E6CF42E250E0BE016F5F7F4F7A
:104AA000C8010E9487118981823031F4F80184891C
:104AB00095898334910541F0D12CC8010E942811B9
:104AC0008D2D5FC18FEF5DC16D817E818F81988556
:104AD0000E94642E4B015C01F30160837183828329
:104AE000938346E050E0B701685F7F4FCE014D965B
:104AF0000E94A22B892B99F4F70180819181A281D8
:104B0000B38188169906AA06BB0648F08481958170
:104B1000A681B78188159905AA05BB0528F4C801A7
:104B20000E94281180E02DC189899A89AB89BC89AE
:104B3000F70186879787A08BB18B8EECA82EB12CBE
:104B4000C8010E945E11F1E0AF1AB108C9F7D12C7B
:104B5000C70182969AA789A7F701B696FCA7EBA78B
:104B600008969EA78DA73C974F01899698AB8FA773
:104B70003897FAABE9AB1701F6E12F0E311CC59758
:104B80009CAB8BABC8010E940E11181619060CF0D5
:104B900094CFC8010E945E118333910509F4CBC004
:104BA000FCF481309105C9F11CF4892B59F3DDC067
:104BB00083309105D1F1069709F0D7C0C8010E9452
:104BC0005E115C0144E050E06BA97CA9C8010E9421
:104BD0008711412C512CBB24F4E0AF1AB10840C01E
:104BE0008A33910509F47BC03CF48533910569F063
:104BF000C69709F440C0B9C08B33910509F485C04C
:104C00008F3F910509F4BECFB0C0C8010E945E116C
:104C1000C8010E945E11D82EB5CFC8010E945E1156
:104C200044E050E069A97AA93AC0C8010E945E1127
:104C30005C0144E050E0B101C8010E948711412CA1
:104C4000512CBB2494E0A91AB1084A145B040CF05F
:104C500099CFC8010E945E11EFEF4E1A5E0AF5CFA0
:104C60004A145B040CF08ECFC8010E945E118FEFD6
:104C7000481A580AF5CFC8010E945E11B82EF701F4
:104C8000828D811110C0838D81110DC0848D8111A1
:104C90000AC0858D811107C044E050E0B401C8010D
:104CA0000E9487116FCFEFA5F8A9408051806280E4
:104CB0007380B401CE0183960E94060D8DA19EA142
:104CC000AFA1B8A584159505A605B70529F3BB20A6
:104CD00009F458CFC8010E945E11BA94F8CFC801F8
:104CE0000E945E1144E050E06BA57CA5C8010E94C3
:104CF0008711F70166A177A180A591A50E94642E76
:104D000066A377A380A791A73DCFC8010E945E113B
:104D100044E050E06DA57EA5C8010E948711F7010F
:104D200062A573A584A595A50E94642E62A773A7AA
:104D300084A795A727CFC8010E945E1144E050E0E8
:104D400069A57AA5C8010E948711F70162A173A124
:104D500084A195A10E94642E62A373A384A395A34A
:104D600066A777A780AB91AB0DCFC8010E945E11FB
:104D7000B82EBB2009F406CFC8010E945E11BA9478
:104D8000F8CFE4960FB6F894DEBF0FBECDBFDF912B
:104D9000CF911F910F91FF90EF90DF90BF90AF9058
:104DA0009F908F907F906F905F904F903F902F904B
:104DB00008952F923F924F925F926F927F928F92BF
:104DC0009F92AF92BF92CF92DF92EF92FF920F939A
:104DD0001F93CF93DF93CDB7DEB727970FB6F89425
:104DE000DEBF0FBECDBF8C0120ED37E040E050E0CC
:104DF00061E070E080E090E00E947C23D80114968E
:104E00006D937D938D939C931797F80160837183C5
:104E1000828393835801F3E4AF0EB11CC5010E9455
:104E2000291164E470E0C5010E94BF11882309F4D0
:104E30003CC10E945D082B013C01812C912C1D82FC
:104E4000C8018E5B9F4F9F838E8343E0342E58EEC4
:104E5000C52E53E0D52EE12CF12C62E0262EAE813A
:104E6000BF818C91833009F407C1811120C0F80102
:104E700084819581A681B7810196A11DB11D84838E
:104E80009583A683B7830E945D0864197509860916
:104E90009709A70196010E94232EA90161E0C8018C
:104EA0000E94F62381E0AE81BF818C93C6C084301E
:104EB000F9F4F80184819581A681B7810196A11D3D
:104EC000B11D84839583A683B7830E945D0864190E
:104ED000750986099709A70196010E94232EA90149
:104EE00063E0C8010E94F623AE81BF812C92A5C069
:104EF000813061F5F80142AD53AD64AD75AD9E01F1
:104F00002F5F3F4FC8010E940D258D83823009F02D
:104F100094C089819A81AB81BC81F8018483958397
:104F2000A683B7830E945D086419750986099709ED
:104F3000A70196010E94232EA90163E0C8010E94E7
:104F4000F623ED81AE81BF81EC937EC0823009F003
:104F500074C0D801DA964D915D916D917C91DD9789
:104F60009E012F5F3F4FC8010E940D258D83853024
:104F700009F05CC0EE81FF813082F80182A193A12B
:104F8000A4A1B5A1892B8A2B8B2B41F484E893E053
:104F9000A0E0B0E082A393A3A4A3B5A3F80186A1E7
:104FA00097A1A0A5B1A5892B8A2B8B2B61F482A197
:104FB00093A1A4A1B5A1B695A7959795879586A32A
:104FC00097A3A0A7B1A7F80182A593A5A4A5B5A50D
:104FD000892B8A2B8B2BA9F482A193A1A4A1B5A123
:104FE000AC01BD0123E076956795579547952A95C5
:104FF000D1F7841B950BA60BB70B82A793A7A4A789
:10500000B5A7F80186A197A1A0A5B1A586A797A7E6
:10501000A0ABB1AB82A593A5A4A5B5A582AB93AB7C
:10502000A4ABB5AB88248394912C0EC0FD81F630DF
:1050300021F4AE81BF811C9207C0BD81BF3F21F426
:10504000EE81FF8110821D82F1E08F16910409F438
:1050500006CF0E945D08DC01CB0184199509A609E1
:10506000B709F80126A937A940AD51AD281739076E
:105070004A075B0708F0F3CEC5010E942911F80129
:1050800084819581A681B7810196A11DB11D84837C
:105090009583A683B7830E945D08F801FE9660831E
:1050A000718382839383C40102C080E090E02796DD
:1050B0000FB6F894DEBF0FBECDBFDF91CF911F9129
:1050C0000F91FF90EF90DF90CF90BF90AF909F90A7
:1050D0008F907F906F905F904F903F902F900895AA
:1050E000CF92DF92EF92FF920F931F93CF93DF93B4
:1050F000EC016B011AA21BA21CA21DA21EA21FA2E0
:1051000018A619A61AA61BA61CA61DA62EAB3FAB59
:1051100048AF59AFEAAEFBAE0CAF1DAF8C01085FD4
:105120001F4F86E0F80111928A95E9F7CE010E949F
:10513000A32386E0F601D80101900D928A95E1F74C
:10514000FE01EE5BFF4F1082CE01DF91CF911F91E8
:105150000F91FF90EF90DF90CF900C94D926CF92D3
:10516000DF92EF92FF920F931F93CF93DF93EC01A7
:105170000E945D086B017C018E01025C1F4FF801EB
:1051800080819181A281B381A7019601281B390BEF
:105190004A0B5B0BCA01B901683E33E07307810516
:1051A000910508F441C028EE33E040E050E00E9451
:1051B000232EC61AD70AE80AF90AF801C082D1825A
:1051C000E282F3828EA59FA5A8A9B9A969017A01F7
:1051D000CC0CDD1CEE1CFF1C8C159D05AE05BF051F
:1051E00028F41EA61FA618AA19AA08C0821B930B92
:1051F000A40BB50B8EA79FA7A8ABB9AB8AA99BA997
:10520000ACA9BDA98C159D05AE05BF0528F41AAA49
:105210001BAA1CAA1DAA08C0821B930BA40BB50BCA
:105220008AAB9BABACABBDAB8EA59FA5A8A9B9A91A
:10523000892B8A2B8B2B69F4FE01EE5BFF4F80815B
:10524000833039F484E08083CE010E94D926019610
:1052500002C080E090E04AA95BA96CA97DA9452B1A
:10526000462B472B81F4FE01EE5BFF4F208123305C
:1052700011F0211108C01082CE010E94A323CE019B
:105280000E94D9260396DF91CF911F910F91FF9035
:10529000EF90DF90CF900895CF93DF938230910508
:1052A00010F482E090E0E0917607F091770720E03B
:1052B00030E0C0E0D0E0309711F1408151814817D3
:1052C0005907C0F04817590761F4828193812097EC
:1052D00019F09B838A832BC090937707809376077E
:1052E00026C02115310519F04217530718F49A0109
:1052F000BE01DF01EF010280F381E02DDCCF21153B
:10530000310509F1281B390B2430310590F4129630
:105310008D919C9113976115710521F0FB01938389
:10532000828304C09093770780937607FD013296BD
:1053300044C0FD01E20FF31F819391932250310984
:105340002D933C933AC02091740730917507232B1D
:1053500041F42091020130910301309375072093AD
:10536000740720910001309101012115310541F4AC
:105370002DB73EB74091040150910501241B350B18
:10538000E0917407F0917507E217F307A0F42E1B64
:105390003F0B2817390778F0AC014E5F5F4F241799
:1053A000350748F04E0F5F1F509375074093740701
:1053B0008193919302C0E0E0F0E0CF01DF91CF91C3
:1053C00008950F931F93CF93DF93009709F48CC038
:1053D000FC013297138212820091760710917707B1
:1053E0000115110581F420813181820F931F2091D5
:1053F0007407309175072817390779F5F093750709
:10540000E093740771C0D80140E050E0AE17BF07C9
:1054100050F412962D913C911397AD012115310551
:1054200009F1D901F3CF9D01DA0133832283608131
:105430007181860F971F8217930769F4EC01288109
:105440003981260F371F2E5F3F4F318320838A819A
:105450009B8193838283452B29F4F0937707E09314
:10546000760742C01396FC93EE931297ED01499193
:1054700059919E01240F351FE217F30771F48081C3
:105480009181840F951F029611969C938E93828131
:10549000938113969C938E931297E0E0F0E0D801ED
:1054A00012968D919C911397009719F0F8018C0139
:1054B000F6CF8D919C9198012E5F3F4F820F931FE5
:1054C00020917407309175072817390769F43097D0
:1054D00029F4109277071092760702C01382128285
:1054E0001093750700937407DF91CF911F910F916F
:1054F00008958F929F92AF92BF92CF92DF92EF92D8
:10550000FF92CF93DF93EC01688179818A819B813F
:10551000611571058105910521F464E279ED8BE552
:1055200097E02DE133EF41E050E00E94452E490124
:105530005A019B01AC01A7EAB1E40E946B2E6B01FA
:105540007C01ACEEB4EFA50194010E94792EDC0140
:10555000CB018C0D9D1DAE1DBF1DB7FF03C0019774
:10556000A109B04888839983AA83BB83BC01CD017C
:105570009F77DF91CF91FF90EF90DF90CF90BF901A
:10558000AF909F908F9008950E94792A089586E0A9
:1055900091E00E94792A08956093060170930701B3
:1055A00080930801909309010895A0E0B0E0EBED2D
:1055B000FAE20C94822EEC01009721F4CB010E94B8
:1055C0004C29B8C0FC01E60FF71F9C01225031099D
:1055D000E217F30708F4ACC0D9010D911C911197A3
:1055E00006171707B0F00530110508F49FC0C80171
:1055F00004978617970708F499C002501109061BF3
:10560000170B019311936D937C93CF010E94E129B5
:105610008DC05B01A01AB10A4C01800E911EA091B1
:105620007607B091770740E050E0E12CF12C10971D
:1056300009F44AC0A815B905D1F56D907C90119771
:10564000630182E0C80ED11CCA14DB0480F1A301FF
:105650004A195B096A0182E0C80ED11C1296BC90FF
:1056600012971396AC91B5E0CB16D10440F0B282FC
:10567000A38351834083D9016D937C930AC00E5F4D
:105680001F4FC301800F911FF90191838083EB2D80
:10569000FA2FE114F10431F0D7011396FC93EE9345
:1056A000129744C0F0937707E09376073FC08D913F
:1056B0009C9111974817590708F4AC017D01129687
:1056C0000D90BC91A02DB3CF809174079091750778
:1056D00088159905E1F446175707C8F48091000131
:1056E00090910101009741F48DB79EB7409104015C
:1056F00050910501841B950BE817F907C8F4F09346
:105700007507E0937407F901718360830FC0CB01C3
:105710000E944C297C01009759F0A801BE010E940B
:10572000AF2BCE010E94E129C70104C0CE0102C007
:1057300080E090E0CDB7DEB7EEE00C949E2EF894BA
:105740000C94E02EFB01DC0104C08D9101908019C6
:1057500021F441505040C8F7881B990B0895FB0174
:10576000DC0102C001900D9241505040D8F70895DD
:10577000FB01DC018D91019080190110D9F3990B87
:105780000895FB01DC0101900D920020E1F70895DE
:105790004532510520F4423010F00C94D32BFB011C
:1057A0001082CB010895BB274A3031F4992322F4AB
:1057B000BDE2909581959F4F0C94EA2B453251059F
:1057C00020F4423010F00C94E92BFB011082CB0145
:1057D0000895BB27FB015527AA27880F991FAA1FE9
:1057E000A41710F0A41B83955051B9F7A05DAA33FC
:1057F00008F0A95DA193009779F7B111B1931192C7
:10580000CB010C94132E5058BB27AA270E941B2CA7
:105810000C946C2D0E945E2D38F00E94652D20F0B6
:1058200039F49F3F19F426F40C945B2D0EF4E095A7
:10583000E7FB0C94552DE92F0E947D2D58F3BA17E4
:10584000620773078407950720F079F4A6F50C9496
:105850009F2D0EF4E0950B2EBA2FA02D0B01B90150
:1058600090010C01CA01A0011124FF27591B99F0D6
:10587000593F50F4503E68F11A16F040A22F232FE2
:10588000342F4427585FF3CF469537952795A79532
:10589000F0405395C9F77EF41F16BA0B620B730BD9
:1058A000840BBAF09150A1F0FF0FBB1F661F771F4A
:1058B000881FC2F70EC0BA0F621F731F841F48F4FF
:1058C000879577956795B795F7959E3F08F0B0CF88
:1058D0009395880F08F09927EE0F9795879508956F
:1058E0000E94842C0C946C2D0E94652D58F00E940F
:1058F0005E2D40F029F45F3F29F00C94552D511195
:105900000C94A02D0C945B2D0E947D2D68F399239F
:10591000B1F3552391F3951B550BBB27AA276217AB
:105920007307840738F09F5F5F4F220F331F441FB8
:10593000AA1FA9F335D00E2E3AF0E0E832D09150EC
:105940005040E695001CCAF72BD0FE2F29D0660FD9
:10595000771F881FBB1F261737074807AB07B0E81C
:1059600009F0BB0B802DBF01FF2793585F4F3AF022
:105970009E3F510578F00C94552D0C94A02D5F3F5F
:10598000E4F3983ED4F3869577956795B795F795A8
:105990009F5FC9F7880F911D9695879597F9089590
:1059A000E1E0660F771F881FBB1F6217730784072C
:1059B000BA0720F0621B730B840BBA0BEE1F88F73B
:1059C000E09508950E94E92C6894B1110C94A02DE3
:1059D00008950E94852D88F09F5798F0B92F992738
:1059E000B751B0F0E1F0660F771F881F991F1AF0CA
:1059F000BA95C9F714C0B13091F00E949F2DB1E063
:105A000008950C949F2D672F782F8827B85F39F061
:105A1000B93FCCF3869577956795B395D9F73EF462
:105A200090958095709561957F4F8F4F9F4F08950A
:105A3000E89409C097FB3EF4909580957095619528
:105A40007F4F8F4F9F4F9923A9F0F92F96E9BB27DE
:105A50009395F695879577956795B795F111F8CF5A
:105A6000FAF4BB0F11F460FF1BC06F5F7F4F8F4FC5
:105A70009F4F16C0882311F096E911C0772321F0BB
:105A80009EE8872F762F05C0662371F096E8862F53
:105A900070E060E02AF09A95660F771F881FDAF7AA
:105AA000880F9695879597F9089597F99F6780E8ED
:105AB00070E060E008959FEF80EC089500240A9460
:105AC0001616170618060906089500240A941216D9
:105AD0001306140605060895092E0394000C11F40C
