:100000000C9466000C948E000C948E000C948E0060
:100010000C948E000C948E000C94E80F0C948E00BF
:100020000C948E000C948E000C948E000C948E0018
:100030000C948E000C948E000C948E000C948E0008
:100040000C9462070C948E000C94240A0C94560AAB
:100050000C948E000C948E000C948E000C948E00E8
:100060000C94C0210C948E000000000800020100D6
:100070000003040700000000000000000102040863
:100080001020408001020408102001020408102002
:10009000040404040404040402020202020203032E
:1000A0000303030300000000250028002B000000CC
:1000B0000000240027002A009000860A360BE10F7A
:1000C000E3129319E819C8208023F20011241FBEFF
:1000D000CFEFD8E0DEBFCDBF14E0A0E0B1E0E4E3B5
:1000E000FDE502C005900D92A030B107D9F726E0DA
:1000F000A0E0B4E001C01D92A83CB207E1F710E017
:10010000C5E6D0E004C02197FE010E94702ECC35D8
:10011000D107C9F70E94B40A0C94342B0C94000048
:100120000F9300E020E040E060E084EB94E00E9468
:100130000F0B01E021E041E06AE08EEA94E00E94CA
:100140000F0B83E994E00E946B1288E794E00E9411
:100150006B128DE594E00E946B126BED71E087E30A
:1001600094E00E94AF0B8DE294E00E94D81C0E94A4
:10017000AC0770932C0460932B048AE294E00E94F5
:100180004E0F89E294E00E944E0F81E294E00E94BB
:10019000670EE0E0F4E08DE99FEFAFEFBFEF808303
:1001A0009183A283B38380E090E0A6ECB2EC8483D9
:1001B0009583A683B78380879187A287B387848737
:1001C0009587A687B787808B918BA28BB38B148A78
:1001D000158A168A178A108E8DE99FEF928F818F6C
:1001E0000F91089587E394E00C94410B0F931F93B4
:1001F000CF93DF93CDB7DEB768970FB6F894DEBF25
:100200000FBECDBF8C010E94AC07AB01BC012AE040
:10021000CE0101960E94800C6091190470911A041D
:100220004AE0CE010D960E94280C66E171E0CE01F5
:1002300007960E94AF0BBE01635F7F4FCE0107960A
:100240000E94DB0C67E771E00E94EE0CBE016F5F5D
:100250007F4F0E94DB0C60EE71E00E94EE0CB80153
:100260000E94DB0CBC01CE0143960E94DB0BCE0149
:1002700007960E94410BCE010D960E94410BCE01C4
:1002800001960E94410B40910A0150910B018AEAAC
:1002900093E09A8389838091B0049091B104A091F6
:1002A000B204B091B3048B839C83AD83BE83BE0143
:1002B0006F5F7F4F8DE594E00E94D310BE016D5EAD
:1002C0007F4F8DE594E00E942D098DE594E00E941A
:1002D000DB10CE0143960E94410B68960FB6F8944E
:1002E000DEBF0FBECDBFDF91CF911F910F9108955B
:1002F0006F927F928F929F92AF92BF92CF92DF9236
:10030000EF92FF920F931F93CF93DF9300D000D013
:1003100000D0CDB7DEB760E47FE186E695E00E94CD
:100320005F100E94AC074B015C0126E040E051EEFB
:1003300060E070E083EC94E00E94FB0D6CE171E002
:1003400083EC94E00E94520960E082E00E94BA08C7
:1003500061E082E00E947E0860E082E00E94BA08CC
:1003600060E085E00E94BA0861E085E00E947E08B6
:1003700060E085E00E94BA0860E086E00E94BA086A
:1003800061E086E00E947E0860E086E00E94BA0894
:1003900061E083E00E94BA0861E083E00E947E0889
:1003A00061E083E00E94BA0861E087E00E94BA0839
:1003B00061E087E00E947E0861E087E00E94BA0861
:1003C00061E084E00E94BA0861E084E00E947E0857
:1003D00061E084E00E94BA0897E5692E94E0792EE6
:1003E0002BE1E22E24E0F22E009135041091360428
:1003F000C8010E94852EF30181933F01F70181938B
:100400007F010F5F1F4F1093360400933504FDE505
:100410006F16F4E07F0641F710EAE12E1FE0F12E9F
:1004200000E010E020E63AEE40E050E067E574E0DE
:1004300080E895E00E946918892B61F46CE271E014
:1004400083EC94E00E94520960E177E280E090E062
:100450000E94DD076AE671E083EC94E00E94520995
:1004600060E875E0CE0101960E946B19BE016F5FD6
:100470007F4F83EC94E00E94640960910E017091BB
:100480000F0183E994E00E94541160910C01709176
:100490000D0188E794E00E94541160910A01709167
:1004A0000B018DE594E00E9454116CED75E080E045
:1004B00090E00E94DD0769E771E0CE0101960E949D
:1004C000AF0BCE0101960E94F600CE0101960E946C
:1004D000410B6AE871E0CE0101960E94AF0BCE019C
:1004E00001960E94F600CE0101960E94410B4AE05F
:1004F00060915D04CE0101960E94FB0BCE01019636
:100500000E94F600CE0101960E94410B6CEA71E058
:10051000CE0101960E94AF0BCE0101960E94F6001B
:10052000CE0101960E94410B4AE060915704CE0132
:1005300001960E94FB0BCE0101960E94F600CE01AF
:1005400001960E94410B4AE060915804CE01019649
:100550000E94FB0BCE0101960E94F600CE0101968F
:100560000E94410B4AE060915904CE0101960E941D
:10057000FB0BCE0101960E94F600CE0101960E946F
:10058000410B4AE060915A04CE0101960E94FB0B98
:10059000CE0101960E94F600CE0101960E94410B09
:1005A0004AE060915B04CE0101960E94FB0BCE01F4
:1005B00001960E94F600CE0101960E94410B4AE08E
:1005C00060915C04CE0101960E94FB0BCE01019666
:1005D0000E94F600CE0101960E94410B6FEB71E084
:1005E00083EC94E00E943B096FEB71E0CE01019631
:1005F0000E94AF0BCE0101960E94F600CE0101963B
:100600000E94410B00E010E060ED71E083EC94E0AB
:100610000E943B094AE050E0B80183EC94E00E945C
:10062000090A6AED71E083EC94E00E943B096CEDED
:1006300071E083EC94E00E943B09C8010E94852E82
:100640004AE050E0682F83EC94E00E941D0A6AEDB6
:1006500071E083EC94E00E943B0960ED71E0CE0113
:1006600001960E94AF0BCE0101960E94F600CE01CA
:1006700001960E94410B4AE0B801CE0101960E940A
:10068000280CCE0101960E94F600CE0101960E9430
:10069000410B6CED71E0CE0101960E94AF0BCE01D3
:1006A00001960E94F600CE0101960E94410BC801FE
:1006B0000E94852E4AE0682FCE0101960E94FB0B16
:1006C000CE0101960E94F600CE0101960E94410BD8
:1006D0000F5F1F4F0830110509F096CF4FEF6EE303
:1006E0008DE294E00E94921F882309F4D6C063EE45
:1006F00071E083EC94E00E94520963EE71E0CE0158
:1007000001960E94AF0BCE0101960E94F600CE0129
:1007100001960E94410B40E060E08DE294E00E946F
:100720002F1F40E060E08DE294E00E943A1E40E01E
:1007300061E08DE294E00E942F1F40E061E08DE2D5
:1007400094E00E943A1E40E062E08DE294E00E9454
:100750002F1F40E062E08DE294E00E943A1E40E0EC
:1007600063E08DE294E00E942F1F40E063E08DE2A1
:1007700094E00E943A1E40E064E08DE294E00E9422
:100780002F1F40E064E08DE294E00E943A1E40E0BA
:1007900065E08DE294E00E942F1F40E065E08DE26D
:1007A00094E00E943A1E40E066E08DE294E00E94F0
:1007B0002F1F40E066E08DE294E00E943A1E40E088
:1007C00067E08DE294E00E942F1F40E067E08DE239
:1007D00094E00E943A1E40E068E08DE294E00E94BE
:1007E0002F1F40E068E08DE294E00E943A1E40E056
:1007F00069E08DE294E00E942F1F40E069E08DE205
:1008000094E00E943A1E40E06AE08DE294E00E948B
:100810002F1F40E06AE08DE294E00E943A1E40E023
:100820006BE08DE294E00E942F1F40E06BE08DE2D0
:1008300094E00E943A1E41E06CE08DE294E00E9458
:100840002F1F41E06DE08DE294E00E942F1F41E0F8
:100850006EE08DE294E00E942F1F41E06FE08DE298
:1008600094E00E942F1F00E010E0602F8DE294E0E2
:100870000E94611E90E0002E02C0880F991F0A940A
:10088000E2F7C82AD92AD0921A04C09219040F5F3D
:100890001F4F0F30110549F714C06AEF71E083EC68
:1008A00094E00E9452096AEF71E0CE0101960E9425
:1008B000AF0BCE0101960E94F600CE0101960E9478
:1008C000410B0E94AC076B017C0164E172E0CE0138
:1008D00001960E94AF0BCE0101960E94F600CE0158
:1008E00001960E94410BB601681979094AE0CE01D0
:1008F00001960E94540CCE0101960E94F600CE0192
:1009000001960E94410B26960FB6F894DEBF0FBEEB
:10091000CDBFDF91CF911F910F91FF90EF90DF90AE
:10092000CF90BF90AF909F908F907F906F900895E1
:10093000CF93DF9300D000D000D0CDB7DEB76AE20E
:1009400072E083EC94E00E9452096AE272E0CE0108
:1009500001960E94AF0BCE0101960E94F600CE01D7
:1009600001960E94410B64EF71E080E090E00E94EC
:10097000DD0760E084E00E94BA0826960FB6F8947E
:10098000DEBF0FBECDBFDF91CF910895CF93DF9330
:10099000CDB7DEB72C970FB6F894DEBF0FBECDBF34
:1009A00048E150E06DE374E083E994E00E941C119B
:1009B0006DE374E0CE0107960E94AF0B61E472E034
:1009C000CE0107960E94070D882349F066E472E085
:1009D00083EC94E00E94520966E472E0C7C067E5C8
:1009E00072E0CE0107960E94070D882361F061E056
:1009F00082E00E94BA0881E08093140486E695E0C4
:100A00000E94F20FD9C064E672E0CE0107960E9400
:100A1000070D882339F060E082E00E94BA08109246
:100A20001404ECCF62E772E0CE0107960E94070D36
:100A3000882371F060E872E083EC94E00E94520930
:100A400060E083E00E94BA0881E080931704D6CF6B
:100A50006EE872E0CE0107960E94070D882369F0C8
:100A60006DE972E083EC94E00E94520961E083E05A
:100A70000E94BA0810921704C1CF6CEA72E0CE014E
:100A800007960E94070D882371F06AEB72E083ECF1
:100A900094E00E94520960E087E00E94BA0881E079
:100AA00080931804ABCF68EC72E0CE0107960E94E9
:100AB000070D882369F067ED72E083EC94E00E94F3
:100AC000520961E087E00E94BA081092180496CF9C
:100AD00066EE72E0CE0107960E94070D882341F072
:100AE00061E085E00E94BA0881E08093150486CF1A
:100AF0006DEE72E0CE0107960E94070D882339F053
:100B000060E085E00E94BA081092150477CF65EF87
:100B100072E0CE0107960E94070D882371F06CEFFA
:100B200072E083EC94E00E94520961E086E00E944A
:100B3000BA0881E08093160461CF63E073E0CE01D0
:100B400007960E94070D882339F060E086E00E9436
:100B5000BA081092160452CF6BE073E0CE010796EC
:100B60000E94070D882379F060E173E0CE010196C1
:100B70000E94AF0BCE0101960E94F600CE010196B5
:100B80000E94410B3BCF65E173E0CE0107960E94C6
:100B9000070D882319F00E9498040EC06BE173E0E2
:100BA000CE0101960E94AF0BCE0101960E94F60085
:100BB000CE0101960E94410B88E1EDE3F4E0DF01F4
:100BC0001D928A95E9F7CE0107960E94410B2C965B
:100BD0000FB6F894DEBF0FBECDBFDF91CF91089561
:100BE0008F929F92AF92BF92CF92DF92EF92FF923D
:100BF000CF93DF9300D000D000D0CDB7DEB70E94F6
:100C0000AC074B015C016BE18AE294E00E94A20F09
:100C1000882369F08AE294E00E94C40F6093040480
:100C200070930504809306049093070420C066E344
:100C300073E083EC94E00E94520966E373E0CE0116
:100C400001960E94AF0BCE0101960E94F600CE01E4
:100C500001960E94410B80E090E0A6ECB2EC8093FC
:100C6000040490930504A0930604B09307046AE17A
:100C700089E294E00E94A20F882369F089E294E05F
:100C80000E94C40F609308047093090480930A04BF
:100C900090930B0420C06CE473E083EC94E00E941A
:100CA00052096CE473E0CE0101960E94AF0BCE01B5
:100CB00001960E94F600CE0101960E94410B80E051
:100CC00090E0A6ECB2EC8093080490930904A09302
:100CD0000A04B0930B0481E294E00E947E0E882304
:100CE000C9F081E294E00E94AC0E60930C04709312
:100CF0000D0480930E0490930F0481E294E00E940F
:100D0000FD0E60931004709311048093120490936D
:100D1000130428C062E673E083EC94E00E94520959
:100D200062E673E0CE0101960E94AF0BCE01019600
:100D30000E94F600CE0101960E94410B80E090E0F7
:100D4000A6ECB2EC80930C0490930D04A0930E04D7
:100D5000B0930F048093100490931104A093120495
:100D6000B09313040E94AC076B017C0180912B04AB
:100D700090912C04B601681B790B613D87E07807E0
:100D800008F456C04AE0CE0101960E94540CCE01F0
:100D900001960E94F600CE0101960E94410B0E942E
:100DA000AC07609300047093010480930204909355
:100DB000030440910C0150910D018AEA93E09A835B
:100DC00089838091B0049091B104A091B204B09154
:100DD000B3048B839C83AD83BE83BE016F5F7F4F63
:100DE00088E794E00E94D31041E250E060E074E0B4
:100DF00088E794E00E94DF1088E794E00E94DB100F
:100E000065E773E083EC94E00E94520965E773E0C4
:100E1000CE0101960E94AF0BCE0101960E94F60012
:100E2000CE0101960E94410BD0922C04C0922B045B
:100E300083E994E00E9481119093560480935504B5
:100E40001816190614F40E94C60480E895E00E9462
:100E500006190E94AC076B017C0168E873E0CE01C3
:100E600001960E94AF0BCE0101960E94F600CE01C2
:100E700001960E94410BB601681979094AE0CE013A
:100E800001960E94540CCE0101960E94F600CE01FC
:100E900001960E94410B68EE73E080E090E00E94B2
:100EA000DD0726960FB6F894DEBF0FBECDBFDF91EB
:100EB000CF91FF90EF90DF90CF90BF90AF909F9039
:100EC0008F9008951F920F920FB60F9211242F93B7
:100ED0003F938F939F93AF93BF938091BB04909167
:100EE000BC04A091BD04B091BE043091BA0423E0CB
:100EF000230F2D3720F40196A11DB11D05C026E852
:100F0000230F0296A11DB11D2093BA048093BB0448
:100F10009093BC04A093BD04B093BE048091BF0421
:100F20009091C004A091C104B091C2040196A11D8A
:100F3000B11D8093BF049093C004A093C104B093EB
:100F4000C204BF91AF919F918F913F912F910F90CC
:100F50000FBE0F901F9018952FB7F8946091BB04A7
:100F60007091BC048091BD049091BE042FBF089580
:100F70003FB7F8948091BF049091C004A091C10440
:100F8000B091C20426B5A89B05C02F3F19F0019669
:100F9000A11DB11D3FBFBA2FA92F982F8827820FFF
:100FA000911DA11DB11DBC01CD0142E0660F771F4F
:100FB000881F991F4A95D1F708958F929F92AF92FB
:100FC000BF92CF92DF92EF92FF926B017C010E9461
:100FD000B8074B015C01C114D104E104F10401F133
:100FE0000E9454080E94B807DC01CB0188199909B6
:100FF000AA09BB09883E9340A105B10560F321E031
:10100000C21AD108E108F10888EE880E83E0981E24
:10101000A11CB11CC114D104E104F10419F7DBCF08
:10102000FF90EF90DF90CF90BF90AF909F908F9008
:101030000895789484B5826084BD84B5816084BD50
:1010400085B5826085BD85B5816085BDEEE6F0E041
:10105000808181608083E1E8F0E01082808182609D
:101060008083808181608083E0E8F0E0808181601E
:101070008083E1EBF0E0808184608083E0EBF0E04E
:10108000808181608083EAE7F0E0808184608083F2
:10109000808182608083808181608083808180689C
:1010A00080831092C10008950895833081F028F460
:1010B000813099F08230A1F008958730A9F088300E
:1010C000B9F08430D1F4809180008F7D03C080918D
:1010D00080008F7780938000089584B58F7702C059
:1010E00084B58F7D84BD08958091B0008F7703C053
:1010F0008091B0008F7D8093B0000895CF93DF93EF
:1011000090E0FC01E458FF4F2491FC01E057FF4FB1
:101110008491882361F190E0880F991FFC01E255CA
:10112000FF4FC591D491FC01EC55FF4FA591B491AF
:10113000611109C09FB7F894888120958223888324
:10114000EC912E230BC0623061F49FB7F894388184
:10115000822F809583238883EC912E2B2C939FBF25
:1011600006C08FB7F894E8812E2B28838FBFDF91BC
:10117000CF9108951F93CF93DF93282F30E0F9018B
:10118000E859FF4F8491F901E458FF4FD491F901D8
:10119000E057FF4FC491CC23C9F0162F81110E9454
:1011A0005508EC2FF0E0EE0FFF1FEC55FF4FA59117
:1011B000B4918FB7F894111105C09C91ED2FE09573
:1011C000E92302C0EC91ED2BEC938FBFDF91CF911F
:1011D0001F91089580E090E00895CF92DF92EF9202
:1011E000FF920F931F93CF93DF936C017A018B01D2
:1011F000C0E0D0E0CE15DF0589F0D8016D918D01FA
:10120000D601ED91FC910190F081E02DC601099588
:10121000892B11F47E0102C02196ECCFC701DF912A
:10122000CF911F910F91FF90EF90DF90CF90089595
:101230006115710579F0FB0101900020E9F7319704
:10124000AF01461B570BDC01ED91FC910280F3814D
:10125000E02D099480E090E00895DC01ED91FC918F
:10126000DB0114964D915C9115976D917C910280F4
:10127000F381E02D09940C941809DC01ED91FC91A7
:101280000190F081E02D0994DB01ED91FC91119723
:101290000190F081E02DBC01CD01099467E973E074
:1012A0000C9418090F931F93CF93DF93EC010E94C6
:1012B00018098C01CE010E944E09800F911FDF9109
:1012C000CF911F910F9108950F931F93CF93DF93A9
:1012D000EC010E9444098C01CE010E944E09800F4E
:1012E000911FDF91CF911F910F9108954F925F92BF
:1012F0006F927F92EF92FF920F931F93CF93DF93A2
:10130000CDB7DEB7A1970FB6F894DEBF0FBECDBF45
:101310007C01FA01CB0119A2223008F42AE08E01E7
:101320000F5D1F4F422E512C612C712CBF01A30168
:1013300092010E94DE2DF901CA01015011096A30A3
:1013400014F4605D01C0695CD8016C93232B242BDD
:10135000252B61F7B801C7010E941809A1960FB6A5
:10136000F894DEBF0FBECDBFDF91CF911F910F91DB
:10137000FF90EF907F906F905F904F900895CF9285
:10138000DF92EF92FF920F931F93CF93DF93EC01C5
:101390006A017B012115310579F4E881F981019019
:1013A000F081E02D642FDF91CF911F910F91FF907D
:1013B000EF90DF90CF9009942A303105E9F477FF60
:1013C0001AC06DE20E943D098C0144275527BA01DD
:1013D0004C195D096E097F092AE0CE010E94760949
:1013E000800F911FDF91CF911F910F91FF90EF9090
:1013F000DF90CF9008952AE0B701A601CE01DF91DA
:10140000CF911F910F91FF90EF90DF90CF900C94B0
:1014100076099A01AB01770F660B770B0C94BF0925
:101420002115310541F4DC01ED91FC910190F08131
:10143000E02D642F09940C9476099A01462F50E010
:1014400060E070E00C94100A1F920F920FB60F929A
:1014500011242F938F939F93EF93FF93E091D304E5
:10146000F091D4048081E091D904F091DA0482FDF6
:1014700012C090818091DC048F5F8F732091DD0416
:10148000821751F0E091DC04F0E0ED53FB4F958FB3
:101490008093DC0401C08081FF91EF919F918F9137
:1014A0002F910F900FBE0F901F9018951F920F92C3
:1014B0000FB60F9211242F933F934F935F936F9327
:1014C0007F938F939F93AF93BF93EF93FF9383EC9F
:1014D00094E00E94710DFF91EF91BF91AF919F91A8
:1014E0008F917F916F915F914F913F912F910F90CD
:1014F0000FBE0F901F90189583EC94E00E94260D6C
:1015000021E0892B09F420E0822F0895E3ECF4E038
:101510001382128288EE93E0A0E0B0E0848395838A
:10152000A683B78380EB93E09183808385EC90E082
:101530009587848784EC90E09787868780EC90E09D
:10154000918B808B81EC90E0938B828B82EC90E08E
:10155000958B848B86EC90E0978B868B118E128E08
:10156000138E148E089508950E9419080E94B30ADC
:101570000E947801C3E6DDE00E94F0052097E1F3C8
:101580000E94630DF9CF8F929F92AF92BF92CF923C
:10159000DF92EF92FF920F931F93CF93DF937C0123
:1015A0008B016C0182E0C80ED11C4701E5E08E0E74
:1015B000911CC0E0D0E0F60161916F014AE050E07B
:1015C000C8010E941D0A5C016EE2C8010E943D092B
:1015D0008A0D9B1DC80FD91FC814D90461F74AE0B2
:1015E00050E0F7016581C8010E941D0A8C0F9D1F04
:1015F000DF91CF911F910F91FF90EF90DF90CF90EF
:10160000BF90AF909F908F9008952AEA33E0FC013D
:1016100031832083128213821482158208950F93DE
:10162000FC018AEA93E0918380836283438324836D
:1016300005830F9108952AEA33E0FC01318320836A
:10164000FB014081518162817381FC01428353839C
:10165000648375830895FB014081518162817381A8
:10166000FC0142835383648375830895E0E6F5E0CB
:101670008AEA93E091838083128213821482158216
:101680000895FC01808191810C947629CF93DF939A
:10169000EC0188819981009711F00E9476291982C6
:1016A00018821D821C821B821A82DF91CF910895BD
:1016B0000F931F93CF93DF93EC018B016F5F7F4FED
:1016C000888199810E946A2A009731F099838883E2
:1016D0001B830A8381E001C080E0DF91CF911F91DD
:1016E0000F910895CF93DF93EC0188819981892B25
:1016F00029F08A819B818617970760F4CE010E94AA
:10170000580B882341F08C819D81892B19F4E88145
:10171000F981108281E0DF91CF910895EF92FF92DD
:101720000F931F93CF93DF93EC017B018A01BA01E2
:101730000E94720B811104C0CE010E94460B07C0AB
:101740001D830C83B701888199810E94562BCE019D
:10175000DF91CF911F910F91FF90EF900895FC01C1
:101760001182108213821282158214826115710512
:1017700051F0FB0101900020E9F73197AF01461BC2
:10178000570B0C948E0B0895CF93DF93EC01FB0164
:101790008617970761F0608171816115710529F0E5
:1017A000448155810E948E0B02C00E94460BCE01DF
:1017B000DF91CF910895FC01118210821382128271
:1017C000158214820C94C40BCF93DF93EC01611546
:1017D000710559F0FB0101900020E9F73197AF0145
:1017E000461B570B0E948E0B02C00E94460BCE0177
:1017F000DF91CF9108950F931F93CF93DF93CDB7D0
:10180000DEB729970FB6F894DEBF0FBECDBF8C01AF
:10181000862FF8011182108213821282158214829F
:1018200050E0BE016F5F7F4F90E00E94A02BBE0191
:101830006F5F7F4FC8010E94E40B29960FB6F894A2
:10184000DEBF0FBECDBFDF91CF911F910F910895E5
:101850000F931F93CF93DF93CDB7DEB762970FB689
:10186000F894DEBF0FBECDBF8C01CB01F801118211
:101870001082138212821582148250E0BE016F5FC3
:101880007F4F0E945D2BBE016F5F7F4FC8010E949A
:10189000E40B62960FB6F894DEBF0FBECDBFDF91AA
:1018A000CF911F910F9108950F931F93CF93DF93C3
:1018B000CDB7DEB761970FB6F894DEBF0FBECDBFD0
:1018C0008C01CB01F80111821082138212821582E1
:1018D000148250E0BE016F5F7F4F0E94A02BBE01BB
:1018E0006F5F7F4FC8010E94E40B61960FB6F894BA
:1018F000DEBF0FBECDBFDF91CF911F910F91089535
:101900000F931F93CF93DF93CDB7DEB7A1970FB699
:10191000F894DEBF0FBECDBF8C01CB01BA01F80138
:1019200011821082138212821582148230E0AE017D
:101930004F5F5F4F0E94732BBE016F5F7F4FC801E7
:101940000E94E40BA1960FB6F894DEBF0FBECDBF88
:10195000DF91CF911F910F910895EF92FF920F9316
:101960001F93CF93DF93FC012481358161157105AD
:1019700011F480E019C041155105A9F07B01EC017B
:101980008A01020F131FB8010E94720B882389F38A
:10199000288139818C819D81B701820F931F0E941C
:1019A000562B1D830C8381E0DF91CF911F910F9106
:1019B000FF90EF900895CF93DF93EC01FB014481FA
:1019C0005581608171810E94AD0C811103C0CE01EF
:1019D0000E94460BCE01DF91CF910895CF93DF9304
:1019E000EC016115710561F0FB0101900020E9F740
:1019F0003197AF01461B570B0E94AD0C811103C0FC
:101A0000CE010E94460BCE01DF91CF910895FC01DB
:101A100024813581232B31F421E061157105A1F07A
:101A2000FB0108C0FC01808191816115710531F4D1
:101A300021E0FC018081882339F005C00E944D2BF4
:101A400021E0892B09F020E0822F0895FC01918D7F
:101A5000228D892F90E0805C9F4F821B91098F73AC
:101A600099270895FC01918D828D981731F0828D10
:101A7000E80FF11D858D90E008958FEF9FEF089599
:101A8000FC01918D828D981761F0828DDF01A80F86
:101A9000B11D5D968C91928D9F5F9F73928F90E0A8
:101AA00008958FEF9FEF0895FC01538D448D252FEE
:101AB00030E0842F90E0821B930B541710F0CF96E8
:101AC0000895019708958CE79AE0892B49F080E00A
:101AD00090E0892B29F00E947C0A81110C9400006F
:101AE0000895FC01848DDF01A80FB11DA35ABF4FDB
:101AF0002C91848D90E001968F739927848FA6890D
:101B0000B7892C93A089B1898C9180648C93938D33
:101B1000848D981306C00288F389E02D80818F7D23
:101B200080830895CF93DF93EC01888D8823C9F0DB
:101B3000EA89FB89808185FD05C0A889B9898C91D6
:101B400086FD0FC00FB607FCF5CF808185FFF2CF71
:101B5000A889B9898C9185FFEDCFCE010E94710DC6
:101B6000E7CFDF91CF910895EF92FF920F931F93EC
:101B7000CF93DF93EC0181E0888F9B8D8C8D981340
:101B800005C0E889F989808185FD24C0F62E0B8D7A
:101B900010E00F5F1F4F0F731127E02E8C8DE8129E
:101BA0000CC00FB607FCFACFE889F989808185FF60
:101BB000F5CFCE010E94710DF1CF8B8DFE01E80FA4
:101BC000F11DE35AFF4FF0820B8FEA89FB89808178
:101BD000806207C0EE89FF896083E889F989808186
:101BE0008064808381E090E0DF91CF911F910F911D
:101BF000FF90EF900895CF92DF92EF92FF921F93A4
:101C0000CF93DF93EC016A017B01122FE889F989F8
:101C100082E080834115514E61057105B1F060E0AD
:101C200079E08DE390E0A70196010E94DE2DDA01B4
:101C3000C9010197A109B109B695A795979587950F
:101C4000AC01411580E15807A8F0E889F9891082B4
:101C500060E874E88EE190E0A70196010E94DE2D15
:101C6000BA01A90141505109610971097695679539
:101C700057954795EC85FD855083EE85FF8540831C
:101C8000188EEC89FD891083EA89FB898081806147
:101C90008083EA89FB89808188608083EA89FB8967
:101CA000808180688083EA89FB8980818F7D808341
:101CB000DF91CF911F91FF90EF90DF90CF9008952B
:101CC000DC01ED91FC910190F081E02D09940895E3
:101CD00060E470E08EEF95E00E9446206EEF70E0C9
:101CE0008EEF95E00E94600E8EEF95E00E94C52079
:101CF0006FE070E080E090E00C94DD07CF93DF931D
:101D0000EC018EEF95E00E943220CE010E94680E19
:101D100060E470E08EEF95E00E94462067EE70E090
:101D20008EEF95E00E94600E8EEF95E00E94C52038
:101D300041E050E060E470E08EEF95E00E94C22048
:101D40008EEF95E00E949F1F21E0029709F020E0AE
:101D5000822FDF91CF910895CF93DF9360E470E0FD
:101D60008EEF95E00E94462063EE70E08EEF95E0E6
:101D70000E94600E8EEF95E00E94C52062E370E045
:101D800080E090E00E94DD0743E050E060E470E016
:101D90008EEF95E00E94C2208EEF95E00E94971F83
:101DA000892BD1F38EEF95E00E949F1FD82F80E002
:101DB000C82F8EEF95E00E949F1FC82BD92B8EEF66
:101DC00095E00E949F1FBE0180E090E00E94D32C0E
:101DD00022E538EB4FE253E40E94612D20E030E031
:101DE00040E857E30E94612D26E636E64BE352E4D5
:101DF0000E94C52BDF91CF910895CF93DF9360E4CC
:101E000070E08EEF95E00E94462065EE70E08EEF68
:101E100095E00E94600E8EEF95E00E94C52062E37F
:101E200070E080E090E00E94DD0743E050E060E475
:101E300070E08EEF95E00E94C2208EEF95E00E9448
:101E4000971F892BD1F38EEF95E00E949F1FD82F0B
:101E500080E0C82F8EEF95E00E949F1FC82BD92BE2
:101E60008EEF95E00E949F1FBE0180E090E00E94EF
:101E7000D32C20E030E04AEF52E40E94612D20E0B4
:101E800030E040E857E30E94612D20E030E040EC74
:101E900050E40E94C52BDF91CF91089508951F93C0
:101EA000CF93DF9300D0CDB7DEB7162FFC01608152
:101EB0008EEF95E04A8359830E943C20612F8EEF7C
:101EC00095E00E94F31F5981652F8EEF95E00E94E7
:101ED000F31F4A81642F8EEF95E00E94F31F8EEF6F
:101EE00095E00F900F90DF91CF911F910C94C5203A
:101EF0001F93CF93DF93EC01162F68818EEF95E04F
:101F00000E943C20612F8EEF95E00E94F31F8EEF20
:101F100095E00E94C52042E068818EEF95E00E9426
:101F2000BF208EEF95E00E949F1FD82F80E0C82F22
:101F30008EEF95E00E949F1F8C2B9D2BDF91CF9100
:101F40001F910895CF93DF93EC0168838EEF95E0A6
:101F50000E94322066E0CE010E94780F8435910500
:101F600011F080E00EC067E0CE010E94780F81156D
:101F70009440B9F740E050E061E0CE010E944F0F7D
:101F800081E0DF91CF910895CF93DF9365E00E94C8
:101F9000780FEC01BC017F7080E090E00E94D32CB0
:101FA00020E030E040E85DE30E94612DD4FF06C0F0
:101FB00020E030E040E853E40E94C52BDF91CF9150
:101FC00008958FEF9FEF90936705809366050895BE
:101FD0001F920F920FB60F9211240F900FBE0F9009
:101FE0001F901895A8950895DA01F90160348FE1E2
:101FF00078071CF46115710539F489E090E08D9340
:102000009C9380E49FE158C0603A8FE078073CF0F1
:1020100088E090E08D939C9380EA9FE04DC0603D06
:1020200087E078073CF087E090E08D939C9380ED0B
:1020300097E042C0683E83E078073CF086E090E09D
:102040008D939C9388EE93E037C0643F81E07807DE
:102050003CF085E090E08D939C9384EF91E02CC060
:102060006A3F71053CF084E090E08D939C938AEF89
:1020700090E022C0683771053CF083E090E08D93DA
:102080009C9388E790E018C06C3371053CF082E0C7
:1020900090E08D939C938CE390E00EC06E317105BF
:1020A0003CF081E090E08D939C938EE190E004C041
:1020B0001D921C928FE090E09183808308950F938E
:1020C0001F93CF93DF9300D0CDB7DEB78C019E0175
:1020D0002F5F3F4FAC010E94F40FF801808183FD18
:1020E00002C098E001C098E28770892B98E10FB692
:1020F000F894A895909360000FBE8093600089814A
:102100009A810F900F90DF91CF911F910F910895B9
:10211000DC01ED91FC91048CF58DE02D09942AEA07
:1021200033E0FC0131832083FB01408951896289BE
:102130007389FC0142835383648375830895FC0192
:10214000848995890895FC01818D928D0895CF939E
:10215000DF931F92CDB7DEB76983DC01ED91FC916F
:102160000280F381E02D41E050E0BE016F5F7F4FC0
:1021700009950F90DF91CF9108950895CF93DF9344
:10218000EC01888D843061F00E943E16E88DF0E00D
:10219000EE0FFF1FEA51FA4F1182108284E0888F00
:1021A000DF91CF910895FC01178A168A6E5F7F4FE9
:1021B000808D0C94BC17FC01808D0C940218CF9379
:1021C000DF93EC019A018E899F89AB01BC01888D58
:1021D0000E9475172E893F89280F391F3F8B2E8B40
:1021E000DF91CF9108950F931F93CF93DF931F92A9
:1021F000CDB7DEB7FC01218D328D232B61F08C0130
:1022000041E050E0BE016F5F7F4F808D0E94BB16A2
:10221000181619061CF08FEF9FEF08C0F801818D8A
:10222000928D0197928F818F898190E00F90DF913D
:10223000CF911F910F910895CF93DF93FC01218DD2
:10224000328D2115310519F48FEF9FEF11C0EC018C
:102250004217530708F0A901888D0E94BB16181673
:10226000190694F7298D3A8D281B390B3A8F298F3F
:10227000DF91CF910895CF93DF931F92CDB7DEB753
:10228000FC01218D328D232B49F0BE016F5F7F4F02
:10229000808D0E944617898190E002C08FEF9FEFEA
:1022A0000F90DF91CF910895EF92FF921F93CF93FC
:1022B000DF93FC01208D243011F080E01CC07B01F5
:1022C000EC0110E0812F0E941616811102C0188FB8
:1022D00005C08831E1F31F5F1430A1F7888D843089
:1022E00061F3FD86EC861A8E198E20E0A70162E06C
:1022F0000E94681681E0DF91CF911F91FF90EF90CF
:1023000008950F931F93CF93DF93CDB7DEB7289730
:102310000FB6F894DEBF0FBECDBF8C01F801818DE2
:10232000928D892B49F0D801ED91FC910284F385BF
:10233000E02DC8010995F2CF808D0E941B17181659
:10234000190654F548E050E0BE016F5F7F4FD80199
:1023500058968C910E94BB169C0118161906D4F44D
:10236000BE016F5F7F4FC8010E960E942B0B8D81BF
:1023700090E0982F88272E81820F911DF801958B70
:10238000848B2F8130E0322F22278885280F311D42
:10239000328F218FC90102C080E090E028960FB6ED
:1023A000F894DEBF0FBECDBFDF91CF911F910F918B
:1023B00008958F929F92AF92BF92CF92DF92EF9249
:1023C000FF920F931F93CF93DF9300D000D000D0E4
:1023D000CDB7DEB7FC01208D243009F068C06A015A
:1023E0007B018C0153E0852E54E0952EA12CB12C5D
:1023F000C4010E94BC13811103C0F801A08E0AC061
:102400008831D9F3FFEFAF1ABF0A9394E4E0AE1618
:10241000B10471F7F801808D843009F448C096E06A
:10242000E0E1F1E0DE01119601900D929A95E1F75D
:10243000F70193819F779C8394819D8395819E83EF
:10244000B7016E5F7F4F90E0982F882744E050E0FF
:10245000845F9B4F0E948D13F801E08CF12CF4E017
:10246000EF0EF11CFE2CEE246D2DC70140960E944C
:10247000F9126C2DC70141960E94F912F801808D66
:1024800090E0982F882746E050E0BE016F5F7F4FB5
:102490008A5F9B4F0E948D13F801128E118E20E8E7
:1024A000A60162E0808D0E94681681E001C080E094
:1024B00026960FB6F894DEBF0FBECDBFDF91CF9149
:1024C0001F910F91FF90EF90DF90CF90BF90AF9052
:1024D0009F908F900895CF93DF93EC011B821A8217
:1024E00088EE93E0A0E0B0E08C839D83AE83BF8351
:1024F00082EC93E099838883CE010E960E94050BAF
:1025000084E0888FDF91CF910895CF92DF92EF9290
:10251000FF920F931F93CF93DF93CDB7DEB7AF97A3
:102520000FB6F894DEBF0FBECDBF8C016B017A01F0
:10253000CE0101960E94050BCE0109960E946B12F6
:10254000CE018A960E94050B60E875E0CE01849664
:102550000E948319BE016C5D7F4FCE0101960E94DF
:10256000A519AE01465D5F4FB601CE0101960E94EE
:10257000141C81309105C1F4D801ED91FC910488BF
:10258000F589E02D8AEA93E09DA38CA38CA59DA5F7
:10259000AEA5BFA58EA39FA3A8A7B9A7A701BE01FB
:1025A0006C5D7F4FC8010995AF960FB6F894DEBFFA
:1025B0000FBECDBFDF91CF911F910F91FF90EF9094
:1025C000DF90CF9008950F9300E020E040E060E0BE
:1025D00088E695E00E940F0B0F9108958EBD0000D4
:1025E0000DB407FEFDCF8EB508952A9808952A9A56
:1025F00008951F93CF93DF9300D0CDB7DEB7182F88
:102600006A8399830E94F51280EF0E94EE129981ED
:10261000892F0E94EE12812F0E94EE126A81862F6E
:102620000E94EE120E94F71281E00F900F90DF914E
:10263000CF911F910895CF93DF93EC016CE271E08D
:1026400080E090E00E94DD070E94A21C229A809107
:10265000FC05882399F02FB7F8948091FC05813010
:1026600059F48DB38093FA059DB38091FB05809555
:1026700089238DBB2FBF02C02093FA0580E58CBD56
:102680001DBC60E880E090E00E94F91265E58BE1F6
:1026900090E00E94F91265E58AE190E00E94F9124B
:1026A0008091FC05882351F09FB7F8942091FC0598
:1026B0008091FA05213029F58DBB9FBF80E090E421
:1026C0009983888380E090E69987888780E098E402
:1026D0009B838A8380E098E69B878A8780E090E5E9
:1026E0009D838C8380E090E79D878C8780E098E5D0
:1026F0009F838E8380E098E79F878E87DF91CF91BD
:1027000008958FBFDBCF9B0190E00496982F882718
:10271000642F820F931F0C94F912CF92DF92EF92E5
:10272000FF920F931F93CF93DF93EC017A018B01FC
:102730006C01C40ED51ECC15DD05A1F00E94F5126A
:1027400080EF0E94EE128D2F0E94EE128C2F0E94BD
:10275000EE122196F80181918F010E94EE120E94E3
:10276000F712E9CFC701DF91CF911F910F91FF9031
:10277000EF90DF90CF9008951F93CF93DF931F9238
:10278000CDB7DEB7182F99830E94F5128FE00E9413
:10279000EE129981892F0E94EE12812F0E94EE1273
:1027A00080E00E94EE1289830E94F71289810F90C7
:1027B000DF91CF911F91089590E00496982F88277C
:1027C000860F971F0C94BC131F93CF93DF93182F82
:1027D00060E270E00E94DC13C82FD0E061E270E09C
:1027E000812F0E94DC13DC2FCC279E01282BC901EE
:1027F000DF91CF911F910895FF920F931F93CF9375
:10280000DF93F62EC0E0D0E08F2D0E94E4138C0100
:10281000892B21F08F2D0E94E413EC01C017D10702
:1028200099F7CE01DF91CF911F910F91FF900895FD
:102830001F93CF93DF93182F66E270E00E94DC13A2
:10284000C82FD0E067E270E0812F0E94DC13DC2FFC
:10285000CC279E01282BC901DF91CF911F910895AC
:10286000FF920F931F93CF93DF93F62EC0E0D0E03B
:102870008F2D0E9418148C01892B21F08F2D0E941E
:102880001814EC01C017D10799F7CE01DF91CF9151
:102890001F910F91FF9008956F927F928F929F9258
:1028A000AF92BF92CF92DF92EF92FF920F931F935E
:1028B000CF93DF931F92CDB7DEB7882E962E6A0195
:1028C000590164E270E0892D99830E94DC13E82E9F
:1028D000F12C65E270E0892D0E94DC13FE2CEE24C1
:1028E000E82A37016C0C7D1CA3015770E82C9981F4
:1028F000F92EE90CF11CE90CF11CF70180819181A2
:10290000840F951F9A01200F311F2130384098F015
:1029100060E078E06B01C41AD50AA601B5010E94F7
:102920008D13A8014C195D09B5016C0D7D1DF701D2
:102930008081918102C0A801B5010E948D13060D0E
:10294000171D412F64E270E0892D0E948313402FF0
:1029500065E270E0892D0F90DF91CF911F910F916B
:10296000FF90EF90DF90CF90BF90AF909F908F90AF
:102970007F906F900C948313CF92DF92EF92FF922F
:102980000F931F93CF93DF93EC017A018B016C01BE
:10299000C40ED51ECC15DD05A9F00E94F5128FE0FE
:1029A0000E94EE128D2F0E94EE128C2F0E94EE12CA
:1029B000219680E00E94EE12F80181938F010E941F
:1029C000F712E8CFC701DF91CF911F910F91FF90D0
:1029D000EF90DF90CF900895AF92BF92CF92DF92A9
:1029E000EF92FF920F931F93CF93DF9300D0CDB759
:1029F000DEB75A834983590129813A8137706C01C6
:102A0000C60ED11CC60ED11CF60180859185820FA1
:102A1000931FA801420F531F4130584098F0E0E047
:102A2000F8E07F01E21AF30AA701B5010E94BC1485
:102A3000A8014E195F09B5016E0D7F1DF601808555
:102A4000918502C0A801B5010F900F90DF91CF9141
:102A50001F910F91FF90EF90DF90CF90BF90AF90BC
:102A60000C94BC148F929F92AF92BF92CF92DF9240
:102A7000EF92FF920F931F93CF93DF936C01962EEB
:102A80005A017901802E68E270E0892D0E94DC13E2
:102A9000C82FD0E069E270E0892D0E94DC13DC2FA2
:102AA000CC27C82B87019501AE01692DC6010E9474
:102AB000EC1481101AC0CE0DDF1D4D2F68E270E0BE
:102AC000892D0E9483134C2F69E270E0892DDF91DC
:102AD000CF911F910F91FF90EF90DF90CF90BF901B
:102AE000AF909F908F900C948313DF91CF911F91A3
:102AF0000F91FF90EF90DF90CF90BF90AF909F909D
:102B00008F900895CF93C62F61E070E08C2F0E94C4
:102B1000831361E070E08C2F0E94DC138111F9CFE8
:102B2000CF9108950F93FC0130E080E092E1AAE795
:102B3000B0E0481759076A077B0740F4B695A79598
:102B4000979587953F5F3630A1F737E091E093275F
:102B5000222311F020E501C020E7892F86950C7013
:102B6000082B022B0083917091830F91089520917F
:102B7000FC05222399F04FB7F8942091FC052130F1
:102B800059F42DB32093FA053DB32091FB05209510
:102B900023232DBB4FBF02C04093FA058CBD9DBDC2
:102BA00008958091FC05882361F09FB7F8942091E7
:102BB000FC058091FA05213019F48DBB9FBF089563
:102BC0008FBF089590E0982F882744E050E0845FFD
:102BD0009B4F0C948D1362E070E00C94DC13CF9348
:102BE000DF93C82FD62F472F64E070E00E94831335
:102BF0004D2F65E070E08C2FDF91CF910C94831303
:102C0000462F62E070E00C948313CF93DF93C82FBC
:102C1000D62F472F60E170E00E9483134D2F61E1B2
:102C200070E08C2FDF91CF910C9483130F931F933F
:102C3000CF93DF9300D01F92CDB7DEB7182F00E0FF
:102C400021E040E059E06DE370E0CE0101960E9482
:102C5000921589819A810E94B71563E070E0812FF7
:102C60000E94DC138B830E94D1158B810F900F90F3
:102C70000F90DF91CF911F910F9108950F931F93A4
:102C8000CF93DF9300D0CDB7DEB7182F00E021E05F
:102C900040E059E06DE370E0CE0101960E9492158C
:102CA00089819A810E94B71540E150E0612F8EE63C
:102CB00095E00E9482156FEF812F0E9400160E94FE
:102CC000D1150F900F90DF91CF911F910F91089523
:102CD000CF92DF92EF92FF920F931F93CF93DF93E8
:102CE00000D0CDB7DEB79FEF960F9530C0F5F22E2E
:102CF0006A01E62E182F0E943E1600E021E040E017
:102D000059E06DE370E0CE0101960E949215898131
:102D10009A810E94B7154E2D4F2960E070E0812FF7
:102D20000E948313C114D10411F0B6010AC060914E
:102D30007E0570917F056F5F7F4F70937F05609375
:102D40007E05812F0E94EF1541E050E0612F8EE655
:102D500095E00E9482150E94D11581E001C080E0BB
:102D60000F900F90DF91CF911F910F91FF90EF90F7
:102D7000DF90CF900895AF92BF92CF92DF92EF9203
:102D8000FF920F931F93CF93DF9300D0CDB7DEB7A1
:102D9000182F5B016A0100E021E040E059E06DE39B
:102DA00070E0CE0101960E94921589819A810E945D
:102DB000B715612F8EE695E00E9430147C010097D4
:102DC000A1F463E070E0812F0E94DC13843119F1DB
:102DD000882309F121E030E08C3111F420E030E06B
:102DE000EE24FF24E21AF30A16C0C816D9060CF422
:102DF00076011E141F047CF400E09701A501612FE9
:102E00008EE695E00E94321540E450E0612F8EE698
:102E100095E00E9482150E94D115C7010F900F9076
:102E2000DF91CF911F910F91FF90EF90DF90CF90A6
:102E3000BF90AF9008950F931F93CF93DF9300D06F
:102E400000D0CDB7DEB7182F00E021E040E059E018
:102E50006DE370E0CE0101960E94921589819A81FE
:102E60000E94B715612F8EE695E00E9430148B8387
:102E70009C830E94D1158B819C810F900F900F90A5
:102E80000F90DF91CF911F910F910895EF92FF92D4
:102E90000F931F93CF93DF9300D0CDB7DEB7182FDA
:102EA0007B0100E021E040E059E06DE370E0CE01FD
:102EB00001960E94921589819A810E94B71501E0BE
:102EC00021E030E0A701612F8EE695E00E943215E7
:102ED0000E94D11581E090E00F900F90DF91CF918B
:102EE0001F910F91FF90EF9008958F929F92AF9254
:102EF000BF92DF92EF92FF920F931F93CF93DF93D6
:102F000000D0CDB7DEB7D82E5B014A01790100E0D1
:102F100021E040E059E06DE370E0CE0101960E94AF
:102F2000921589819A810E94B7156D2D8EE695E0E4
:102F30000E94FC138E159F0530F46D2D8EE695E0F2
:102F40000E94FC137C0187019401A5016D2D8EE682
:102F500095E00E944C140E94D115C7010F900F906C
:102F6000DF91CF911F910F91FF90EF90DF90BF9075
:102F7000AF909F908F900895CF92DF92EF92FF9243
:102F80000F931F93CF93DF9300D0CDB7DEB7FB0134
:102F90009081911109C09181911106C09281911186
:102FA00003C09381992309F141155105F1F06A019C
:102FB0007F01182F00E021E040E059E06DE370E070
:102FC000CE0101960E94921589819A810E94B715BF
:102FD000B701812F0E94E215B601812F0E940516CC
:102FE0000E94D11581E090E002C080E090E00F9057
:102FF0000F90DF91CF911F910F91FF90EF90DF9095
:10300000CF9008950F931F93CF93DF9300D0CDB748
:10301000DEB7182F00E021E040E059E06DE370E0FA
:10302000CE0101960E94921589819A810E94B7155E
:1030300040E250E0612F8EE695E00E948215812FDC
:103040000E94EB1584FD21C0812F0E94EB1583FFA8
:1030500009C068E1812F0E9400160E94D11580E00E
:1030600090E01BC00E94D1150E94540800E021E0AE
:1030700040E059E06DE370E0CE0101960E949215A8
:1030800089819A810E94B715DACF60E1812F0E9471
:1030900000160E94D11581E090E00F900F90DF9113
:1030A000CF911F910F91089544E050E0BC0181E061
:1030B00090E00C948D1344E050E0BC0185E090E07A
:1030C0000C948D1344E050E0BC018FE090E00C9430
:1030D0008D132F923F924F925F926F927F928F92B9
:1030E0009F92AF92BF92CF92DF92EF92FF920F9397
:1030F0001F93CF93DF9300D000D000D0CDB7DEB7C1
:103100006C011B0129013A014701580188E895E04B
:10311000F601978386838EE695E00E941B1380E577
:1031200090E00E94B71546E050E0B10189E090E0E0
:103130000E948D1300E020E040E060E0CE010196A7
:103140000E940F0BCE0103960E9462180E94D115B7
:1031500085017401A3019201B101F6018681978175
:103160000E9405288C010197B9F580E590E00E9446
:10317000B715F60166817781CE0101960E943F2343
:10318000CE0103960E946218F60166817781CE0116
:1031900001960E945523CE0103960E945418F60111
:1031A00066817781CE0101960E944A23CE01039663
:1031B0000E945B180E94D115F60166817781CE01CD
:1031C00001960E9460238B819C81AD81BE81F601B6
:1031D00082839383A483B583C80126960FB6F8949F
:1031E000DEBF0FBECDBFDF91CF911F910F91FF903A
:1031F000EF90DF90CF90BF90AF909F908F907F9097
:103200006F905F904F903F902F900895EF92FF92B4
:103210000F931F93CF93DF9300D000D000D0CDB792
:10322000DEB7FC01268137812115310509F443C041
:103230008C01C9010E9444287C01029721F084E09E
:10324000E816F104D1F580E590E00E94B715F80189
:1032500066817781CE0101960E943F23CE010396BD
:103260000E946218F80166817781CE0101960E9462
:103270005523CE0103960E945418F8016681778188
:10328000CE0101960E944A23CE0103960E945B184C
:103290000E94D115F80166817781CE0101960E94C6
:1032A00060238B819C81AD81BE81F80182839383F1
:1032B000A483B58302C0E12CF12CC70126960FB67A
:1032C000F894DEBF0FBECDBFDF91CF911F910F915C
:1032D000FF90EF900895CF93DF93EC010E94050BD0
:1032E00080E590E00E94B715BE016E5F7F4F44E01D
:1032F00050E08FE090E00E94BC140E94D115CE01F6
:10330000DF91CF9108952AEA33E0FC0131832083D5
:10331000FB014281538164817581FC0142835383A7
:103320006483758308950F9300E020E040E060E03F
:103330008EEE95E00E940F0B8BEC95E00E946B12D5
:1033400080E895E00F910C94050BFB0142815381BD
:1033500064817581FC014283538364837583178282
:1033600016820895CF93DF93FB0120E080E090E088
:10337000AAE03191332301F160ED630F6A3080F4EC
:10338000A89FB001A99F700D1124CB01C097830F96
:10339000911D37FD9A958F3F910559F350F313C056
:1033A0003E3289F4233079F0EA01C20FD11D8A83BD
:1033B0002F5F80E090E0DDCF233029F4FA01858390
:1033C00081E090E002C080E090E0DF91CF9108952D
:1033D0000F9300E020E040E060E084EF95E00E9481
:1033E0000F0B0F9108958F929F92AF92BF92CF9241
:1033F000DF92EF92FF920F931F93CF93DF9300D052
:1034000000D01F92CDB7DEB78C016B010E94AC07D4
:10341000F801778366837627672776277A8369831F
:10342000085F1F4F42E050E0BE016F5F7F4FC80151
:103430000E94DF1081E090E09C838B8342E050E0AB
:10344000BE016D5F7F4FC8010E94DF1080E091E0F8
:103450009C838B8342E050E0BE016D5F7F4FC801CB
:103460000E94DF101C821B8242E050E0BE016D5FB3
:103470007F4FC8010E94DF1042E050E0BE016D5F47
:103480007F4FC8010E94DF1042E050E0BE016D5F37
:103490007F4FC8010E94DF105601F501808188230B
:1034A00029F1C6017C01FC0120810196211116C081
:1034B000570147018C189D081814190494F48D8243
:1034C00041E050E0BE016B5F7F4FC8010E94DF10FA
:1034D000A401B601C8010E94DF1003C02E3211F70B
:1034E000E7CF6701FFEFCF1ADF0AD7CF1D8241E098
:1034F00050E0BE016B5F7F4FC8010E94DF10E12CDE
:10350000FF24F394FC82EB8242E050E0BE016D5F49
:103510007F4FC8010E94DF10FC82EB8242E050E046
:10352000BE016D5F7F4FC8010E94DF1081E090E017
:103530000F900F900F900F900F90DF91CF911F91F0
:103540000F91FF90EF90DF90CF90BF90AF909F9042
:103550008F9008954F925F926F927F928F929F9279
:10356000AF92BF92CF92DF92EF92FF920F931F9391
:10357000CF93DF93CDB7DEB765970FB6F894DEBF74
:103580000FBECDBF7C015B016A010E94AC072B011D
:103590003C018701085F1F4F4501A12CB12CC801D8
:1035A0000E94811118161906A4F00E94AC07DC01D4
:1035B000CB0184199509A609B70988169906AA06A8
:1035C000BB06D0F062E370E080E090E00E94DD078F
:1035D000E6CFF7014281538164817581808D918DA1
:1035E000A28DB38D481759076A077B0741F4848D74
:1035F000958DC59721F406C02FEF3FEFFDC02EEF4C
:103600003FEFFAC0C8010E94A3100C97ECF04CE009
:1036100050E0BE016F5F7F4FC8010E941C116C819A
:103620008B810E9433239A8B898BF701E680F78088
:103630006A8189810E943323E816F90641F4898959
:103640009A8997FF04C009C02DEF3FEFD5C0C8018C
:103650000E94BD102CEF3FEFCFC08F709270892B6E
:1036600031F0C8010E94BD102BEF3FEFC5C0688547
:103670008F810E9433235C01892B31F4C8010E94A1
:10368000BD102AEF3FEFB8C0E12CF12C6E818D8187
:103690000E943323E816F90640F541E050E0BE01F0
:1036A000635F7F4FC8010E941C118D85811113C07B
:1036B0008D858111F2CFC8010E94F310C8010E94CC
:1036C000F310C8010E94F310C8010E94F310FFEF2D
:1036D000EF1AFF0ADBCF8D859FEF980F9D87882318
:1036E00039F3C8010E94F310F6CFE12CF12C41E030
:1036F00050E0BE016D5E7F4FC8010E941C118B8996
:10370000982F907C61F4882371F08B899FEF980F3C
:103710009B8B882341F0C8010E94F310F6CFC801AB
:103720000E94F3101B8A8B898111E1CF42E050E0A7
:10373000BE01615F7F4FC8010E941C1142E050E052
:10374000BE01635F7F4FC8010E941C11C8010E9427
:10375000F310C8010E94F310C8010E94F310C801C1
:103760000E94F31042E050E0BE016F5E7F4FC8013F
:103770000E941C118F8598898115914001F52D8536
:103780003E8532272327322721303105C1F489892C
:103790009A898115944031F0C8010E94BD1027EF2D
:1037A0003FEF2AC0B6016E5F7F4F44E050E0C80192
:1037B0002C8B3D8B0E941C112C893D891DC0812CB6
:1037C000912C89899A89982789279827881699069C
:1037D00038F4C8010E94F3108FEF881A980AF1CFCD
:1037E000EFEFEE1AFE0AEA14FB0409F080CFC801DD
:1037F0000E94BD1026EF3FEFC90165960FB6F89401
:10380000DEBF0FBECDBFDF91CF911F910F91FF9013
:10381000EF90DF90CF90BF90AF909F908F907F9070
:103820006F905F904F9008958F929F92AF92BF924A
:10383000CF92DF92EF92FF920F931F93CF93DF937C
:1038400000D000D000D0CDB7DEB77C014B015A01CB
:103850000E94B2198C01892B09F05BC0F7014281EB
:103860005381648175818091F6059091F705A0914F
:10387000F805B091F905481759076A077B0709F45D
:103880004BC00E94AC076701F8E0CF0ED11C6F70EF
:1038900077277C5FC6010E945411813009F03EC039
:1038A0008AEA93E09A838983F70182819381A481D4
:1038B000B5818B839C83AD83BE8345E350E0BE011D
:1038C0006F5F7F4FC6010E94D310892B19F400E06F
:1038D00010E01BC0B401C7010E94F319892BB9F392
:1038E000C6010E94DB10892B91F383E0882E912C76
:1038F000A50168E873E1C7010E94AA1A8C01F1E0F2
:103900008F1A910811F0019699F3C6010E94BE101A
:1039100005C001E010E002C00EEF1FEFC8012696BF
:103920000FB6F894DEBF0FBECDBFDF91CF911F91D0
:103930000F91FF90EF90DF90CF90BF90AF909F904E
:103940008F900895CF93CFB7F8948091FD058111A2
:1039500027C0EAE9F0E08491E6E8F0E09491E82FEE
:10396000F0E0EE0FFF1FE255FF4FA591B491EC91EF
:10397000E92321F461E08AE00E94BA0861E08AE06C
:103980000E947E088CB580618CBD8CB580648CBD36
:1039900061E08DE00E947E0861E08BE00E947E087D
:1039A0008091FD058F5F8093FD05CFBFCF91089576
:1039B000FC01148215821682178208951F93CF93FB
:1039C000DF931F92CDB7DEB7162FFC0160818EEF1B
:1039D00095E049830E943C20612F8EEF95E00E9484
:1039E000F31F4981642F8EEF95E00E94F31F8EEF45
:1039F00095E00F90DF91CF911F910C94C5201F93FC
:103A0000CF93DF9300D0CDB7DEB7162FFC016081D6
:103A10008EEF95E04A8359830E943C20612F8EEF00
:103A200095E00E94F31F5981652F8EEF95E00E946B
:103A3000F31F4A81642F8EEF95E00E94F31F8EEFF3
:103A400095E00F900F90DF91CF911F910C94C520BE
:103A50001F93CF93DF93EC01162F68818EEF95E0D3
:103A60000E943C20612F8EEF95E00E94F31F8EEFA5
:103A700095E00E94C52041E068818EEF95E00E94AC
:103A8000BF20C8EED3E08EEF95E00E94971F181676
:103A9000190634F0209711F02197F5CF80E006C089
:103AA000CD2BE1F38EEF95E00E949F1FDF91CF9128
:103AB0001F9108950F93CF93DF93EC0163704170D2
:103AC0004295407F2F70422B6295660F607E462B99
:103AD0006EE10E94DE1C002321F0083018F007E0A0
:103AE00001C001E08FEF800F61E070E002C0660F5F
:103AF000771F8A95E2F7072E000C880B990B0E941E
:103B0000D52C9B01AC0160E074E284EF99E40E9443
:103B1000322C0E94A42C6C837D838E839F836FE163
:103B2000CE010E94281D8F780295007F482F402BE0
:103B30006FE1CE01DF91CF910F910C94DE1C1F93AA
:103B4000CF93DF93EC01162F68818EEF95E00E94F2
:103B50003C20612F8EEF95E00E94F31F8EEF95E0E1
:103B60000E94C52042E068818EEF95E00E94BF2050
:103B7000C0EDD7E08EEF95E00E94971F02973CF4CE
:103B8000209711F02197F6CF80E090E011C0CD2B67
:103B9000D9F38EEF95E00E949F1FC82F8EEF95E01E
:103BA0000E949F1F20E030E03C2FA901482BCA0152
:103BB000DF91CF911F910895CF92DF92EF92FF9204
:103BC0000F931F93CF93DF938C01D62FF42E6EE0CB
:103BD0000E949F1D41E050E09A0102C0220F331F56
:103BE000DA95E2F7E9018095909582239323892B5A
:103BF00089F060E1C8010E949F1DFF2021F0AC0107
:103C00004C2B5D2B05C0C095D095AC014C235D239A
:103C100060E125C066E0C8010E949F1D6C0168E05C
:103C2000C8010E949F1D9E0120953095FF2061F0E4
:103C30007C01E222F322A6014C2B5D2B66E0C80139
:103C40000E94FF1CA7010AC0C82BD92BA601422342
:103C5000532366E0C8010E94FF1CAE0168E0C80162
:103C6000DF91CF911F910F91FF90EF90DF90CF9058
:103C70000C94FF1C0C94DC1DFF920F931F93CF93A9
:103C8000DF938C01F62E6EE00E949F1DC1E0D0E014
:103C900002C0CC0FDD1FFA94E2F78C239D23892B01
:103CA00049F060E1C8010E949F1DC823D92381E02B
:103CB000CD2B09F480E0DF91CF911F910F91FF9000
:103CC00008950C943C1ECF92DF92EF92FF920F93D7
:103CD0001F93CF93DF931F92CDB7DEB76C01162FE2
:103CE00060E029830E949F1D41E050E0BA0102C0BC
:103CF000660F771F1A95E2F78B01AC01462B572B05
:103D000060E0C6010E94FF1C66E0C6010E949F1D84
:103D10007801E094F094AC014E215F2166E0C60189
:103D20000E94FF1C6EE0C6010E949F1DAC014E2147
:103D30005F216EE0C6010E94FF1C6EE1C6010E9479
:103D4000281D8F7D482F40646EE1C6010E94DE1C55
:103D50006FE1C6010E94281D2981482F222311F0FE
:103D6000486801C04777F60184819581A681B781B3
:103D7000892B8A2B8B2B49F480E894E8AEE1B0E0E4
:103D800084839583A683B78340616FE1C6010E9457
:103D9000DE1C60E2C6010E949F1DAC01402B512B2E
:103DA00060E2C6010E94FF1C60E1C6010E949F1DE7
:103DB000AC014E215F2160E1C6010F90DF91CF91F0
:103DC0001F910F91FF90EF90DF90CF900C94FF1C0C
:103DD0000F931F93CF93DF93EC01162F042F6EE008
:103DE0000E949F1D9C01802F8D7F813059F041E002
:103DF00050E0012E02C0440F551F0A94E2F7422BF7
:103E0000532B0DC0E1E0F0E0012E02C0EE0FFF1FCA
:103E10000A94E2F7E095F095A9014E235F236EE046
:103E2000CE010E94FF1C023049F441E0612FCE0117
:103E3000DF91CF911F910F910C94DC1D033051F451
:103E400020E041E0612FCE01DF91CF911F910F91D2
:103E50000C94631EDF91CF911F910F9108950C94E4
:103E6000E81ECF93DF93EC016FE10E94281D82FFD3
:103E700006C0482F4B7F6FE1CE010E94DE1C41E05F
:103E80006B81CE010E94E81E40E06B81CE010E9452
:103E9000DC1D61E070E080E090E00E94DD0741E021
:103EA0006B81CE01DF91CF910C94DC1DCF93DF931A
:103EB000662321F0DF91CF910C94311FEC0142E198
:103EC0006DE70E94DE1C44E36DE7CE01DF91CF91E8
:103ED0000C94DE1C0F93CF93DF93EC018EEF95E0F3
:103EE0000E9432208B818F3F21F0CE010E94311F32
:103EF00004C060E0CE010E94561F63E1CE010E9423
:103F00009F1D81159F4F49F401E020E040E062E0F1
:103F1000CE010E945A1D81E001C080E0DF91CF9167
:103F20000F910895FC01608343830C946A1F809174
:103F30002E0690E020912F06821B91090895909102
:103F40002F0680912E06981750F4E92FF0E0E05DDF
:103F5000F94F208130E09F5F90932F0602C02FEF32
:103F60003FEFC9010895E0912F0680912E06E817D2
:103F700030F4F0E0E05DF94F808190E008958FEF3C
:103F80009FEF08950895CF92DF92EF92FF920F93E3
:103F90001F93CF93DF937C01262F972F8A01809167
:103FA0000A06882391F0C62FD72F6E01C40ED51EA6
:103FB000CC15DD0571F06991D701ED91FC9101906F
:103FC000F081E02DC7010995F3CF642F822F0E9465
:103FD0008821C801DF91CF911F910F91FF90EF9041
:103FE000DF90CF900895CF93DF931F92CDB7DEB7C8
:103FF000698320910A062223D1F020910B062032FA
:1040000040F021E030E0FC013383228380E090E047
:1040100015C080910C06E82FF0E0E35FF94F99811D
:1040200090838F5F80930C0680930B0605C061E040
:10403000CE0101960E94882181E090E00F90DF91EF
:10404000CF910895FC011382128288EE93E0A0E0E4
:10405000B0E084839583A683B7838AEE93E091834F
:104060008083089510922F0610922E0610920C064F
:1040700010920B060C94CC2081E080930A0660938A
:104080002D0610920C0610920B0608950C943C20FD
:104090000F93062F21E040910B066DE076E08091B2
:1040A0002D060E94322110920C0610920B061092DF
:1040B0000A060F9108954F925F926F927F92AF928E
:1040C000BF92CF92EF92FF920F931F93CF93DF9304
:1040D0005C01F62ED42F28013901EE2021F10E9437
:1040E0003C20CE2DC43008F0C3E0C150C0F0D50153
:1040F000ED91FC91B8E0CB9FC0011124A301920186
:1041000004C056954795379527958A95D2F7CA01E9
:10411000B9010190F081E02DC5010995E6CF60E07D
:10412000C5010E9448204D2FD13208F040E22C2DCD
:1041300060E376E08F2D0E94EA2010922F06809394
:104140002E06DF91CF911F910F91FF90EF90CF90AE
:10415000BF90AF907F906F905F904F900895CF92F7
:10416000EF920F931F93C22EE12C00E010E0980114
:104170000E945B201F910F91EF90CF90089521E056
:104180000C94AF2021E00C94AF2061E00C94482007
:104190008EEF95E00C9422201092BD0681E0809372
:1041A000BB061092BA0661E082E10E94BA0861E0A3
:1041B00083E10E94BA08E9EBF0E080818E7F808382
:1041C00080818D7F808388E48093B80085E480932C
:1041D000BC000895413208F043C09091BD06911192
:1041E000FCCF91E09093BD062093BB062FEF209368
:1041F000500610929506240F209394069093BC06C7
:104200009091BC06880F892B8093BC068091BA06DA
:10421000813061F41092BA068091BC068093BB0095
:104220008091BC0083FDF8CF85EC01C085EE8093C2
:10423000BC008091BD068130E1F380919506841722
:1042400010F44091950626E936E0FB01D9018A2F4A
:10425000821B841718F48D918193F9CF842F0895D0
:1042600080E008950F93413208F04AC09091BD0656
:104270009111FCCF32E03093BD060093BB063FEFB7
:10428000309350061092950640939406FB0166E920
:1042900076E0DB013A2F361B341718F431913D9349
:1042A000F9CF1092BC063091BC06880F832B809307
:1042B000BC068091BA06813061F41092BA068091F2
:1042C000BC068093BB008091BC0083FDF8CF85ECD9
:1042D00001C085EE8093BC00222321F08091BD06B1
:1042E0008230D1F3809150068F3F79F08091500653
:1042F000803241F080915006803331F094E005C067
:1043000091E003C092E001C093E0892F0F910895DE
:1043100040917206262F30E0240F311D21323105E5
:10432000DCF42091BD062430C9F4FC0180E090E06B
:10433000861758F4309172062191DC01AC58B94FC0
:10434000A30FB11D2C930196F3CF80917206680FD5
:104350006093720680E0089581E0089582E00895F8
:1043600085ED8093BC008091BC0084FDFCCF109251
:10437000BD06089585EC8093BC001092BD0608959B
:104380001F920F920FB60F9211242F933F934F93CA
:104390005F936F937F938F939F93AF93BF93EF93AD
:1043A000FF938091B900887F803609F49EC078F52C
:1043B000883209F45DC090F4803109F456C038F4B5
:1043C000882309F4F5C0883009F44FC0F5C088315E
:1043D00009F44EC0803209F45FC0EEC0803409F4A5
:1043E0006AC058F4803309F457C0883309F0E4C038
:1043F000809350060E94BA21DFC0803509F44FC077
:10440000883509F45DC0883409F0D6C0D3C0883936
:1044100009F4C4C0A8F4883709F467C038F48836B2
:1044200009F463C0803709F460C0C6C0883809F455
:10443000B5C0803909F45FC0803809F0BDC05BC0E9
:10444000803B09F483C038F4803A09F466C0883AA6
:1044500009F47CC0B1C0803C09F4A4C0883C09F4D4
:10446000A1C0883B09F487C0A7C08091BC0610C0DA
:104470009091950680919406981770F5E0919506B5
:1044800081E08E0F80939506F0E0EA56F94F808127
:104490008093BB0085EC83C0809350068BC0E09175
:1044A000950681E08E0F809395068091BB00F0E029
:1044B000EA56F94F808390919506809194066BC0DF
:1044C000E091950681E08E0F809395068091BB0068
:1044D000F0E0EA56F94F80838091BB0681116AC0F3
:1044E00081E08093BA0684EA5EC083E08093BD06D3
:1044F00010925106CFCF80915106803208F04EC005
:10450000E091510681E08E0F809351068091BB00AF
:10451000F0E0EE5AF94F8083BDCF0E94BA2180911E
:104520005106803230F4E0915106F0E0EE5AF94F36
:1045300010826091510670E0E091B606F091B706E6
:1045400082E596E009951092510636C084E080938A
:10455000BD061092730610927206E091B806F091B3
:10456000B906099580917206811105C081E080939A
:10457000720610927406E091730681E08E0F8093AC
:104580007306F0E0EC58F94F80818093BB00909166
:10459000730680917206981708F47CCF85E88093A3
:1045A000BC000AC085EC8093BC001092BD0604C01C
:1045B000109250060E94B021FF91EF91BF91AF91F0
:1045C0009F918F917F916F915F914F913F912F912B
:1045D0000F900FBE0F901F901895CF93DF9300D0D0
:1045E00000D0CDB7DEB7611571058105910579F071
:1045F0009B01AC0169833A834B835C830E945C2AF4
:1046000029813A814B815C810E94002E03C060E0C9
:1046100070E0CB010F900F900F900F90DF91CF9132
:104620000895CF92DF92EF92FF920F931F9362173C
:1046300073078407950784F489019A016B017C0153
:10464000C901B8016C197D098E099F090E94ED22EC
:104650006C0D7D1D8E1D9F1D1F910F91FF90EF9082
:10466000DF90CF90089570E09B01382BC901089529
:104670000E9624E1FC0111922A95E9F70895CF9353
:10468000DF93EC01625F7F4F0E941B0BCE01DF9135
:10469000CF910895CF93DF93EC016E5E7F4F0E9420
:1046A0001B0BCE01DF91CF910895CF93DF93EC01E7
:1046B0006A5E7F4F0E941B0BCE01DF91CF91089560
:1046C000CF93DF93EC01625E7F4F0E941B0BCE0104
:1046D000DF91CF91089580E3FB0180833296842F90
:1046E00082958F7090E1899F401911244A3014F40B
:1046F000405D01C0495C4293482F8111F0CF08957D
:104700000F9300E020E040E060E08EEB96E00E9436
:104710000F0B0F9108957F928F929F92AF92BF924D
:10472000CF92DF92EF92FF920F931F93CF93DF937D
:10473000CDB7DEB7AC970FB6F894DEBF0FBECDBFD6
:104740007C01762E942E852E20E2B22ECE0101968B
:104750006C01FC012B2D11922A95E9F70FEF2FEF39
:104760004FEF6FEF86960E940F0B8AEA93E09AA3B1
:1047700089A389A59AA5ABA5BCA58BA39CA3ADA332
:10478000BEA387010D5B1F4F43E450E0BE016F5D88
:104790007F4FC8010E94D310019609F4BFC081E089
:1047A00089838A8386E0A82EAB821C82F70164810C
:1047B0007581868197810E941F2E6D837E838F83F2
:1047C000988789869A8680E890E09C878B874CE161
:1047D00050E0B601C8010E94DF10F6012B2D1192A6
:1047E0002A95E9F7470188E0880E911CF401D6016B
:1047F00001900D92AA94E1F740E150E0B601C801A2
:104800000E94DF10F6011192BA94E9F796E0A92E02
:10481000B12C40E250E0B601C8010E94DF10F1E087
:10482000AF1AB108B1F783E6898392E89A8393E5DA
:104830009B838C8385E38D8381E08E837F829DE3E0
:10484000988797E099878A8786E0F401DE011B96B6
:1048500001900D928A95E1F78CE0898B8A8B68EF45
:1048600073E0CE0143960E94562BF7014385BE01AB
:10487000675E7F4FC7010E946B23F7014485BE012D
:10488000655E7F4FC7010E946B23F7014585BE011E
:10489000635E7F4FC7010E946B234EE150E0B6017B
:1048A000C8010E94DF10F3E07F121EC082E38983FB
:1048B00084E08A83F70196859B8397859C83908902
:1048C0009D8391899E8396E39F838887828D8987C4
:1048D000838D8A87848D8B87858D8C874CE050E013
:1048E000B601C8010E94DF1087E3898386E08A83CE
:1048F00091E09B8393E09C838D838FE08E838AE39A
:104900008F838BE388878FEF898749E050E0B6017A
:10491000C8010E94DF10C8010E94DB10AC960FB6E0
:10492000F894DEBF0FBECDBFDF91CF911F910F91E5
:10493000FF90EF90DF90CF90BF90AF909F908F90BF
:104940007F9008952F923F924F925F926F927F9245
:104950008F929F92AF92BF92DF92EF92FF920F934E
:104960001F93CF93DF93CDB7DEB7E4970FB6F894DC
:10497000DEBF0FBECDBF7C011A012B0139010E94A1
:10498000AC074B015C0187010D5B1F4FC8010E9402
:10499000811118161906A4F00E94AC07DC01CB01A6
:1049A00088199909AA09BB09281639064A065B061F
:1049B000F0F062E370E080E090E00E94DD07E6CF77
:1049C00042E250E0BE016F5F7F4FC8010E941C11A0
:1049D0008981823031F4F801848995898334910585
:1049E00041F0D12CC8010E94BD108D2D5FC18FEF09
:1049F0005DC16D817E818F8198850E941F2E4B0144
:104A00005C01F301608371838283938346E050E00D
:104A1000B701685F7F4FCE014D960E94372B892BDF
:104A200099F4F70180819181A281B381881699065A
:104A3000AA06BB0648F084819581A681B7818815B6
:104A40009905AA05BB0528F4C8010E94BD1080E0A5
:104A50002DC189899A89AB89BC89F7018687978797
:104A6000A08BB18B8EECA82EB12CC8010E94F31044
:104A7000F1E0AF1AB108C9F7D12CC70182969AA705
:104A800089A7F701B696FCA7EBA708969EA78DA766
:104A90003C974F01899698AB8FA73897FAABE9AB53
:104AA0001701F6E12F0E311CC5979CAB8BABC801EB
:104AB0000E94A310181619060CF094CFC8010E948A
:104AC000F3108333910509F4CBC0FCF481309105D8
:104AD000C9F11CF4892B59F3DDC083309105D1F164
:104AE000069709F0D7C0C8010E94F3105C0144E0AA
:104AF00050E06BA97CA9C8010E941C11412C512CCB
:104B0000BB24F4E0AF1AB10840C08A33910509F420
:104B10007BC03CF48533910569F0C69709F440C029
:104B2000B9C08B33910509F485C08F3F910509F415
:104B3000BECFB0C0C8010E94F310C8010E94F3109C
:104B4000D82EB5CFC8010E94F31044E050E069A907
:104B50007AA93AC0C8010E94F3105C0144E050E019
:104B6000B101C8010E941C11412C512CBB2494E0BE
:104B7000A91AB1084A145B040CF099CFC8010E942D
:104B8000F310EFEF4E1A5E0AF5CF4A145B040CF0F7
:104B90008ECFC8010E94F3108FEF481A580AF5CF44
:104BA000C8010E94F310B82EF701828D811110C048
:104BB000838D81110DC0848D81110AC0858D811175
:104BC00007C044E050E0B401C8010E941C116FCF3F
:104BD000EFA5F8A94080518062807380B401CE01B6
:104BE00083960E941B0B8DA19EA1AFA1B8A5841531
:104BF0009505A605B70529F3BB2009F458CFC801D0
:104C00000E94F310BA94F8CFC8010E94F31044E058
:104C100050E06BA57CA5C8010E941C11F70166A19C
:104C200077A180A591A50E941F2E66A377A380A7D8
:104C300091A73DCFC8010E94F31044E050E06DA55C
:104C40007EA5C8010E941C11F70162A573A584A569
:104C500095A50E941F2E62A773A784A795A727CFAB
:104C6000C8010E94F31044E050E069A57AA5C8018C
:104C70000E941C11F70162A173A184A195A10E9459
:104C80001F2E62A373A384A395A366A777A780AB07
:104C900091AB0DCFC8010E94F310B82EBB2009F4D0
:104CA00006CFC8010E94F310BA94F8CFE4960FB66D
:104CB000F894DEBF0FBECDBFDF91CF911F910F9152
:104CC000FF90EF90DF90BF90AF909F908F907F907C
:104CD0006F905F904F903F902F9008952F923F924A
:104CE0004F925F926F927F928F929F92AF92BF92FC
:104CF000CF92DF92EF92FF920F931F93CF93DF93A8
:104D0000CDB7DEB727970FB6F894DEBF0FBECDBF85
:104D10008C0120ED37E040E050E061E070E080E0A1
:104D200090E00E941123D80114966D937D938D938A
:104D30009C931797F8016083718382839383580152
:104D4000F3E4AF0EB11CC5010E94BE1064E470E034
:104D5000C5010E945411882309F43CC10E94AC078C
:104D60002B013C01812C912C1D82C8018E5B9F4F31
:104D70009F838E8343E0342E58EEC52E53E0D52E0C
:104D8000E12CF12C62E0262EAE81BF818C91833024
:104D900009F407C1811120C0F80184819581A681A1
:104DA000B7810196A11DB11D84839583A683B78326
:104DB0000E94AC076419750986099709A701960135
:104DC0000E94DE2DA90161E0C8010E948B2381E0D1
:104DD000AE81BF818C93C6C08430F9F4F801848120
:104DE0009581A681B7810196A11DB11D848395830C
:104DF000A683B7830E94AC076419750986099709D1
:104E0000A70196010E94DE2DA90163E0C8010E945E
:104E10008B23AE81BF812C92A5C0813061F5F80152
:104E200042AD53AD64AD75AD9E012F5F3F4FC801DC
:104E30000E94A2248D83823009F094C089819A81D6
:104E4000AB81BC81F80184839583A683B7830E94DC
:104E5000AC076419750986099709A70196010E9494
:104E6000DE2DA90163E0C8010E948B23ED81AE8194
:104E7000BF81EC937EC0823009F074C0D801DA960D
:104E80004D915D916D917C91DD979E012F5F3F4F1C
:104E9000C8010E94A2248D83853009F05CC0EE8198
:104EA000FF813082F80182A193A1A4A1B5A1892B31
:104EB0008A2B8B2B41F484E893E0A0E0B0E082A33E
:104EC00093A3A4A3B5A3F80186A197A1A0A5B1A51A
:104ED000892B8A2B8B2B61F482A193A1A4A1B5A16C
:104EE000B695A7959795879586A397A3A0A7B1A7F1
:104EF000F80182A593A5A4A5B5A5892B8A2B8B2B98
:104F0000A9F482A193A1A4A1B5A1AC01BD0123E0A4
:104F100076956795579547952A95D1F7841B950BFC
:104F2000A60BB70B82A793A7A4A7B5A7F80186A1E4
:104F300097A1A0A5B1A586A797A7A0ABB1AB82A565
:104F400093A5A4A5B5A582AB93ABA4ABB5AB8824C0
:104F50008394912C0EC0FD81F63021F4AE81BF8187
:104F60001C9207C0BD81BF3F21F4EE81FF811082FA
:104F70001D82F1E08F16910409F406CF0E94AC0760
:104F8000DC01CB0184199509A609B709F80126A906
:104F900037A940AD51AD281739074A075B0708F01C
:104FA000F3CEC5010E94BE10F80184819581A681CF
:104FB000B7810196A11DB11D84839583A683B78314
:104FC0000E94AC07F801FE9660837183828393830D
:104FD000C40102C080E090E027960FB6F894DEBFCF
:104FE0000FBECDBFDF91CF911F910F91FF90EF903A
:104FF000DF90CF90BF90AF909F908F907F906F90F9
:105000005F904F903F902F900895CF92DF92EF9254
:10501000FF920F931F93CF93DF93EC016B011AA2C2
:105020001BA21CA21DA21EA21FA218A619A61AA688
:105030001BA61CA61DA62EAB3FAB48AF59AFEAAED0
:10504000FBAE0CAF1DAF8C01085F1F4F86E0F8016F
:1050500011928A95E9F7CE010E94382386E0F60185
:10506000D80101900D928A95E1F7FE01EE5BFF4FAA
:105070001082CE01DF91CF911F910F91FF90EF90A1
:10508000DF90CF900C946E26CF92DF92EF92FF923A
:105090000F931F93CF93DF93EC010E94AC076B013A
:1050A0007C018E01025C1F4FF80180819181A281F9
:1050B000B381A7019601281B390B4A0B5B0BCA0170
:1050C000B901683E33E073078105910508F441C0DA
:1050D00028EE33E040E050E00E94DE2DC61AD70AE9
:1050E000E80AF90AF801C082D182E282F3828EA531
:1050F0009FA5A8A9B9A969017A01CC0CDD1CEE1CF9
:10510000FF1C8C159D05AE05BF0528F41EA61FA625
:1051100018AA19AA08C0821B930BA40BB50B8EA763
:105120009FA7A8ABB9AB8AA99BA9ACA9BDA98C15AF
:105130009D05AE05BF0528F41AAA1BAA1CAA1DAA24
:1051400008C0821B930BA40BB50B8AAB9BABACAB1B
:10515000BDAB8EA59FA5A8A9B9A9892B8A2B8B2B9E
:1051600069F4FE01EE5BFF4F8081833039F484E007
:105170008083CE010E946E26019602C080E090E0FE
:105180004AA95BA96CA97DA9452B462B472B81F425
:10519000FE01EE5BFF4F2081233011F0211108C08A
:1051A0001082CE010E943823CE010E946E26039603
:1051B000DF91CF911F910F91FF90EF90DF90CF90F3
:1051C0000895CF93DF938230910510F482E090E050
:1051D000E091C606F091C70620E030E0C0E0D0E0E4
:1051E000309711F14081518148175907C0F0481795
:1051F000590761F482819381209719F09B838A83F8
:105200002BC09093C7068093C60626C02115310592
:1052100019F04217530718F49A01BE01DF01EF019C
:105220000280F381E02DDCCF2115310509F1281B27
:10523000390B2430310590F412968D919C9113977F
:105240006115710521F0FB019383828304C0909363
:10525000C7068093C606FD01329644C0FD01E20FE9
:10526000F31F81939193225031092D933C933AC0BF
:105270002091C4063091C506232B41F420910201F0
:10528000309103013093C5062093C406209100019C
:10529000309101012115310541F42DB73EB7409100
:1052A000040150910501241B350BE091C406F091D7
:1052B000C506E217F307A0F42E1B3F0B281739078A
:1052C00078F0AC014E5F5F4F2417350748F04E0F62
:1052D0005F1F5093C5064093C4068193919302C00B
:1052E000E0E0F0E0CF01DF91CF9108950F931F939D
:1052F000CF93DF93009709F48CC0FC01329713829F
:1053000012820091C6061091C7060115110581F49D
:1053100020813181820F931F2091C4063091C506F0
:105320002817390779F5F093C506E093C40671C0D4
:10533000D80140E050E0AE17BF0750F412962D910F
:105340003C911397AD012115310509F1D901F3CF36
:105350009D01DA013383228360817181860F971F5B
:105360008217930769F4EC0128813981260F371FD2
:105370002E5F3F4F318320838A819B819383828379
:10538000452B29F4F093C706E093C60642C0139656
:10539000FC93EE931297ED01499159919E01240FD0
:1053A000351FE217F30771F480819181840F951FF7
:1053B000029611969C938E938281938113969C936F
:1053C0008E931297E0E0F0E0D80112968D919C91B7
:1053D0001397009719F0F8018C01F6CF8D919C91ED
:1053E00098012E5F3F4F820F931F2091C40630918A
:1053F000C5062817390769F4309729F41092C706B3
:105400001092C60602C0138212821093C506009342
:10541000C406DF91CF911F910F9108958F929F92B3
:10542000AF92BF92CF92DF92EF92FF92CF93DF9332
:10543000EC01688179818A819B8161157105810503
:10544000910521F464E279ED8BE597E02DE133EFEE
:1054500041E050E00E94002E49015A019B01AC013D
:10546000A7EAB1E40E94262E6B017C01ACEEB4EFFA
:10547000A50194010E94342EDC01CB018C0D9D1DF1
:10548000AE1DBF1DB7FF03C00197A109B0488883B7
:105490009983AA83BB83BC01CD019F77DF91CF9114
:1054A000FF90EF90DF90CF90BF90AF909F908F9044
:1054B00008950E940E2A089586E091E00E940E2A27
:1054C00008956093060170930701809308019093FB
:1054D00009010895A0E0B0E0E0E7FAE20C943D2E67
:1054E000EC01009721F4CB010E94E128B8C0FC0137
:1054F000E60FF71F9C0122503109E217F30708F469
:10550000ACC0D9010D911C91119706171707B0F087
:105510000530110508F49FC0C80104978617970746
:1055200008F499C002501109061B170B019311933F
:105530006D937C93CF010E9476298DC05B01A01AE8
:10554000B10A4C01800E911EA091C606B091C7060B
:1055500040E050E0E12CF12C109709F44AC0A81566
:10556000B905D1F56D907C901197630182E0C80E6A
:10557000D11CCA14DB0480F1A3014A195B096A013A
:1055800082E0C80ED11C1296BC9012971396AC9173
:10559000B5E0CB16D10440F0B282A383518340839F
:1055A000D9016D937C930AC00E5F1F4FC301800F1A
:1055B000911FF90191838083EB2DFA2FE114F104FF
:1055C00031F0D7011396FC93EE93129744C0F093F9
:1055D000C706E093C6063FC08D919C91119748176E
:1055E000590708F4AC017D0112960D90BC91A02DD5
:1055F000B3CF8091C4069091C50688159905E1F452
:1056000046175707C8F48091000190910101009757
:1056100041F48DB79EB74091040150910501841B60
:10562000950BE817F907C8F4F093C506E093C40694
:10563000F901718360830FC0CB010E94E1287C01D6
:10564000009759F0A801BE010E94442BCE010E9490
:105650007629C70104C0CE0102C080E090E0CDB73A
:10566000DEB7EEE00C94592EF8940C948D2EFB01CD
:10567000DC0104C08D910190801921F4415050400B
:10568000C8F7881B990B0895FB01DC0102C001904B
:105690000D9241505040D8F70895FB01DC018D91E7
:1056A000019080190110D9F3990B0895FB01DC01D9
:1056B00001900D920020E1F708954532510520F444
:1056C000423010F00C94682BFB011082CB0108953E
:1056D000BB274A3031F4992322F4BDE2909581959D
:1056E0009F4F0C94AC2B2532310520F4223010F062
:1056F0000C947E2BFA011082CA010895BB27FA018F
:10570000A62F6217710581059105330B30FB66F0FA
:10571000AA27660F771F881F991FAA1FA21710F0CC
:10572000A21B63953850A9F7A05DAA3308F0A95DC4
:10573000A19336F7B111B1931082CA010C94CE2D0A
:105740004532510520F4423010F00C94AB2BFB0194
:105750001082CB010895BB27FB015527AA27880F8C
:10576000991FAA1FA41710F0A41B83955051B9F7D5
:10577000A05DAA3308F0A95DA193009779F7B11154
:10578000B1931192CB010C94CE2D5058BB27AA2770
:105790000E94DD2B0C94272D0E94192D38F00E94B9
:1057A000202D20F039F49F3F19F426F40C94162D87
:1057B0000EF4E095E7FB0C94102DE92F0E94382D94
:1057C00058F3BA17620773078407950720F079F436
:1057D000A6F50C945A2D0EF4E0950B2EBA2FA02DA1
:1057E0000B01B90190010C01CA01A0011124FF278E
:1057F000591B99F0593F50F4503E68F11A16F04089
:10580000A22F232F342F4427585FF3CF4695379587
:105810002795A795F0405395C9F77EF41F16BA0B4C
:10582000620B730B840BBAF09150A1F0FF0FBB1FFA
:10583000661F771F881FC2F70EC0BA0F621F731F43
:10584000841F48F4879577956795B795F7959E3FA0
:1058500008F0B0CF9395880F08F09927EE0F979531
:10586000879508950E94462C0C94272D0E94202D88
:1058700058F00E94192D40F029F45F3F29F00C9454
:10588000102D51110C945B2D0C94162D0E94382D67
:1058900068F39923B1F3552391F3951B550BBB275F
:1058A000AA2762177307840738F09F5F5F4F220FA4
:1058B000331F441FAA1FA9F335D00E2E3AF0E0E89B
:1058C00032D091505040E695001CCAF72BD0FE2FE5
:1058D00029D0660F771F881FBB1F26173707480779
:1058E000AB07B0E809F0BB0B802DBF01FF27935831
:1058F0005F4F3AF09E3F510578F00C94102D0C94B8
:105900005B2D5F3FE4F3983ED4F3869577956795DA
:10591000B795F7959F5FC9F7880F911D9695879565
:1059200097F90895E1E0660F771F881FBB1F621784
:1059300073078407BA0720F0621B730B840BBA0B42
:10594000EE1F88F7E09508950E94402D88F09F573C
:1059500098F0B92F9927B751B0F0E1F0660F771F93
:10596000881F991F1AF0BA95C9F714C0B13091F089
:105970000E945A2DB1E008950C945A2D672F782F6C
:105980008827B85F39F0B93FCCF38695779567954E
:10599000B395D9F73EF490958095709561957F4FBA
:1059A0008F4F9F4F0895E89409C097FB3EF4909560
:1059B0008095709561957F4F8F4F9F4F9923A9F0E8
:1059C000F92F96E9BB279395F69587957795679577
:1059D000B795F111F8CFFAF4BB0F11F460FF1BC0BB
:1059E0006F5F7F4F8F4F9F4F16C0882311F096E94E
:1059F00011C0772321F09EE8872F762F05C06623FC
:105A000071F096E8862F70E060E02AF09A95660FB4
:105A1000771F881FDAF7880F9695879597F908956D
:105A200097F99F6780E870E060E008959FEF80EC51
:105A3000089500240A9416161706180609060895F4
:105A400000240A9412161306140605060895092E5A
:105A50000394000C11F4882352F0BB0F40F4BF2BC9
:105A600011F460FF04C06F5F7F4F8F4F9F4F089509
:105A700057FD9058440F551F59F05F3F71F04795FF
:105A8000880F97FB991F61F09F3F79F087950895E4
:105A9000121613061406551FF2CF4695F1DF08C003
:105AA000161617061806991FF1CF86957105610520
:105AB00008940895E894BB2766277727CB0197F9C8
:105AC00008950E94742D0C94272D0E94192D38F0F2
:105AD0000E94202D20F0952311F00C94102D0C9491
