:100000000C9466000C948E000C948E000C948E0060
:100010000C948E000C948E000C948A0E0C948E001E
:100020000C948E000C948E000C948E000C948E0018
:100030000C948E000C948E000C948E000C948E0008
:100040000C94AB060C948E000C946D090C949F09D3
:100050000C948E000C948E000C948E000C948E00E8
:100060000C9460200C948E00000000080002010037
:100070000003040700000000000000000102040863
:100080001020408001020408102001020408102002
:10009000040404040404040402020202020203032E
:1000A0000303030300000000250028002B000000CC
:1000B0000000240027002A009000CF09B90B830E0E
:1000C000851135188A18681F2022E40011241FBEEC
:1000D000CFEFD8E0DEBFCDBF13E0A0E0B1E0E6E3B4
:1000E000FAE502C005900D92A23FB107D9F726E0CC
:1000F000A2EFB3E001C01D92A03CB207E1F710E00F
:10010000C5E6D0E004C02197FE010E94E32CCC3567
:10011000D107C9F70E94FD090C94D4290C94000062
:100120000F9300E020E040E060E08CEA94E00E9461
:10013000920B01E021E041E06AE086EA94E00E944F
:10014000920B8BE894E00E940D1180E794E00E94EE
:100150000D1185E594E00E940D1168ED71E08FE2CC
:1001600094E00E94320C85E294E00E947A1B84E2C3
:1001700094E00E94F00D83E294E00E94F00D8BE188
:1001800094E00E94090DE2EFF3E080E090E0A6EC3D
:10019000B2EC84839583A683B78380879187A287F7
:1001A000B38784879587A687B787808B918BA28B2F
:1001B000B38B158A168A178A108E118E128E138EA3
:1001C000148E158E0F9108958FE294E00C94C40B59
:1001D0000F931F93CF93DF9300D000D000D0CDB703
:1001E000DEB78C0140910E0150910F018FEA93E030
:1001F0009A8389838091A8049091A904A091AA046C
:10020000B091AB048B839C83AD83BE83BE016F5FD3
:100210007F4F85E594E00E94750FB80185E594E075
:100220000E94760885E594E00E947D0F88E1E5E371
:10023000F4E0DF011D928A95E9F726960FB6F8944F
:10024000DEBF0FBECDBFDF91CF911F910F910895FB
:100250008F929F92AF92BF92CF92DF92EF92FF92D6
:100260000F931F93CF93DF9300D000D000D0CDB772
:10027000DEB760E47FE18EE595E00E94010F0E9409
:10028000F5064B015C010E94F5060E94462B609327
:100290001704709318048093190490931A0426E0AD
:1002A00040E051EE60E070E08BEB94E00E94E10AE8
:1002B0006AE171E08BEB94E00E949B0860E082E0D1
:1002C0000E94030861E082E00E94C70760E082E0CC
:1002D0000E94030860E085E00E94030861E085E079
:1002E0000E94C70760E085E00E94030860E086E0A6
:1002F0000E94030861E086E00E94C70760E086E094
:100300000E94030861E083E00E94030861E083E04B
:100310000E94C70761E083E00E94030861E087E074
:100320000E94030861E087E00E94C70761E087E060
:100330000E94030861E084E00E94030861E084E019
:100340000E94C70761E084E00E9403089FE4E92E51
:1003500094E0F92E670100912D0410912E04C8013C
:100360000E94F82CD6018D936D010F5F1F4F1093E3
:100370002E0400932D04B5E5CB16B4E0DB0659F747
:10038000E0E1F4E0D7018D917D018193B5E5EB16B5
:10039000B4E0FB06B9F710EAE12E1FE0F12E00E011
:1003A00010E020E63AEE40E050E06FE474E088E7C9
:1003B00095E00E940B17892B61F46AE271E08BEBE8
:1003C00094E00E949B0860E177E280E090E00E9468
:1003D000260768E671E08BEB94E00E949B0868E7D3
:1003E00075E0CE0101960E940D18BE016F5F7F4F30
:1003F0008BEB94E00E94AD086091120170911301A3
:100400008BE894E00E94F60F609110017091110149
:1004100080E794E00E94F60F60910E0170910F0149
:1004200085E594E00E94F60F6CED75E080E090E0C9
:100430000E94260767E771E0CE0101960E94320C08
:10044000CE0101960E94E800CE0101960E94C40BE5
:1004500068E871E0CE0101960E94320CCE0101964F
:100460000E94E800CE0101960E94C40B4AE0609110
:100470005504CE0101960E945E0CCE0101960E94A9
:10048000E800CE0101960E94C40B69EA71E0CE013A
:1004900001960E94320CCE0101960E94E800CE0126
:1004A00001960E94C40B4AE060914F04CE01019670
:1004B0000E945E0CCE0101960E94E800CE010196DA
:1004C0000E94C40B4AE060915004CE0101960E9444
:1004D0005E0CCE0101960E94E800CE0101960E94BA
:1004E000C40B4AE060915104CE0101960E945E0C5B
:1004F000CE0101960E94E800CE0101960E94C40B35
:100500004AE060915204CE0101960E945E0CCE0139
:1005100001960E94E800CE0101960E94C40B4AE0B9
:1005200060915304CE0101960E945E0CCE010196AB
:100530000E94E800CE0101960E94C40B4AE060913F
:100540005404CE0101960E945E0CCE0101960E94D9
:10055000E800CE0101960E94C40B80910C0190919D
:100560000D010E94F82C682F70E080E090E00E945E
:10057000462B6093F2037093F3038093F4039093FC
:10058000F5036CEB71E08BEB94E00E9484086CEB5C
:1005900071E0CE0101960E94320CCE0101960E94BC
:1005A000E800CE0101960E94C40B00E010E06DEC63
:1005B00071E08BEB94E00E9484084AE050E0B801BF
:1005C0008BEB94E00E94520967ED71E08BEB94E0B5
:1005D0000E94840869ED71E08BEB94E00E9484082E
:1005E000C8010E94F82C4AE050E0682F8BEB94E0A1
:1005F0000E94660967ED71E08BEB94E00E9484082D
:100600006DEC71E0CE0101960E94320CCE01019694
:100610000E94E800CE0101960E94C40B4AE0B80196
:10062000CE0101960E948B0CCE0101960E94E8003B
:10063000CE0101960E94C40B69ED71E0CE010196D6
:100640000E94320CCE0101960E94E800CE01019674
:100650000E94C40BC8010E94F82C4AE0682FCE010A
:1006600001960E945E0CCE0101960E94E800CE0128
:1006700001960E94C40B0F5F1F4F0830110509F04F
:1006800096CF4FEF6EE385E294E00E94321E8823FE
:1006900009F494C060EE71E08BEB94E00E949B083B
:1006A00060EE71E0CE0101960E94320CCE010196FF
:1006B0000E94E800CE0101960E94C40B40E060E079
:1006C00085E294E00E94CF1D40E061E085E294E085
:1006D0000E94CF1D40E062E085E294E00E94CF1DC1
:1006E00040E063E085E294E00E94CF1D40E064E0DA
:1006F00085E294E00E94CF1D40E065E085E294E051
:100700000E94CF1D40E066E085E294E00E94CF1D8C
:1007100040E067E085E294E00E94CF1D40E068E0A1
:1007200085E294E00E94CF1D40E069E085E294E01C
:100730000E94CF1D40E06AE085E294E00E94CF1D58
:1007400040E06BE085E294E00E94CF1D41E06CE068
:1007500085E294E00E94CF1D41E06DE085E294E0E7
:100760000E94CF1D41E06EE085E294E00E94CF1D23
:1007700041E06FE085E294E00E94CF1D00E010E0D0
:10078000602F85E294E00E94011D90E0002E02C0DF
:10079000880F991F0A94E2F720910604BC01622B8E
:1007A000609306040F5F1F4F0630110549F78091D3
:1007B0000A0190910B010E94002D14C067EF71E0B7
:1007C0008BEB94E00E949B0867EF71E0CE010196ED
:1007D0000E94320CCE0101960E94E800CE010196E3
:1007E0000E94C40B0E94F5066B017C0161E172E07E
:1007F000CE0101960E94320CCE0101960E94E800C3
:10080000CE0101960E94C40BB601681979094AE02D
:10081000CE0101960E94B70CCE0101960E94E8001D
:10082000CE0101960E94C40B26960FB6F894DEBF47
:100830000FBECDBFDF91CF911F910F91FF90EF9031
:10084000DF90CF90BF90AF909F908F900895CF93FF
:10085000DF9300D000D000D0CDB7DEB767E272E002
:100860008BEB94E00E949B0867E272E0CE01019658
:100870000E94320CCE0101960E94E800CE01019642
:100880000E94C40B64EF71E080E090E00E942607B4
:1008900060E084E00E94030826960FB6F894DEBF5D
:1008A0000FBECDBFDF91CF910895CF93DF93CDB72A
:1008B000DEB72C970FB6F894DEBF0FBECDBF48E170
:1008C00050E065E374E08BE894E00E94BE0F65E3BE
:1008D00074E0CE0107960E94320C6EE372E0CE0106
:1008E00007960E94E30C8823C9F063E472E08BEB67
:1008F00094E00E949B0863E472E0CE0101960E949E
:10090000320CCE0101960E94E800CE0101960E94B1
:10091000C40B8EE595E00E94940ED2C064E572E0AF
:10092000CE0107960E94E30C882341F061E082E04B
:100930000E94030881E080930704C2C061E672E070
:10094000CE0107960E94E30C882339F060E082E034
:100950000E94030810920704B3C06FE672E0CE0154
:1009600007960E94E30C882371F06DE772E08BEB31
:1009700094E00E949B0860E083E00E94030881E00D
:1009800080930A049DC06BE872E0CE0107960E9436
:10099000E30C882369F06AE972E08BEB94E00E9433
:1009A0009B0861E083E00E94030810920A0488C05B
:1009B00069EA72E0CE0107960E94E30C882371F089
:1009C00067EB72E08BEB94E00E949B0860E087E0AD
:1009D0000E94030881E080930B0472C065EC72E012
:1009E000CE0107960E94E30C882369F064ED72E063
:1009F0008BEB94E00E949B0861E087E00E94030873
:100A000010920B045DC063EE72E0CE0107960E9467
:100A1000E30C882341F061E085E00E94030881E057
:100A2000809308044DC06AEE72E0CE0107960E94E2
:100A3000E30C882339F060E085E00E9403081092FF
:100A400008043EC062EF72E0CE0107960E94E30CFC
:100A5000882371F069EF72E08BEB94E00E949B08B1
:100A600061E086E00E94030881E08093090428C0C9
:100A700060E073E0CE0107960E94E30C882339F012
:100A800060E086E00E9403081092090419C068E043
:100A900073E0CE0107960E94E30C882319F00E94B0
:100AA00027040EC06EE073E0CE0101960E94320C66
:100AB000CE0101960E94E800CE0101960E94C40B6F
:100AC00088E1E5E3F4E0DF011D928A95E9F7CE01C4
:100AD00007960E94C40B2C960FB6F894DEBF0FBE8B
:100AE000CDBFDF91CF9108958F929F92AF92BF9229
:100AF000CF92DF92EF92FF92CF93DF9300D000D09E
:100B000000D0CDB7DEB70E94F5064B015C016BE16A
:100B100084E294E00E94440E882369F084E294E029
:100B20000E94660E6093F6037093F7038093F803B8
:100B30009093F90314C069E273E08BEB94E00E9498
:100B40009B0869E273E0CE0101960E94320CCE014F
:100B500001960E94E800CE0101960E94C40B6AE152
:100B600083E294E00E94440E882369F083E294E0DB
:100B70000E94660E6093FA037093FB038093FC035C
:100B80009093FD0314C06FE373E08BEB94E00E943D
:100B90009B086FE373E0CE0101960E94320CCE01F8
:100BA00001960E94E800CE0101960E94C40B8BE1E1
:100BB00094E00E94200D8823C9F08BE194E00E940C
:100BC0004E0D6093FE037093FF0380930004909397
:100BD00001048BE194E00E949F0D609302047093E6
:100BE0000304809304049093050414C065E573E046
:100BF0008BEB94E00E949B0865E573E0CE010196C3
:100C00000E94320CCE0101960E94E800CE010196AE
:100C10000E94C40B0E94F5060E94462B20911704E7
:100C2000309118044091190450911A040E94382AF6
:100C300020E030E04AE754E40E94A52A60930C04C7
:100C400070930D0480930E0490930F044091100153
:100C5000509111018FEA93E09A8389838091A804CF
:100C60009091A904A091AA04B091AB048B839C83BA
:100C7000AD83BE83BE016F5F7F4F80E794E00E942B
:100C8000750F45E250E062EF73E080E794E00E9468
:100C9000810F80E794E00E947D0F68E673E08BEBA4
:100CA00094E00E949B0868E673E0CE0101960E94E2
:100CB000320CCE0101960E94E800CE0101960E94FE
:100CC000C40B8BE894E00E94231090934E04809311
:100CD0004D041816190614F40E94550488E795E08F
:100CE0000E94A8170E94F5066B017C016BE773E078
:100CF000CE0101960E94320CCE0101960E94E800BE
:100D0000CE0101960E94C40BB601681979094AE028
:100D1000CE0101960E94B70CCE0101960E94E80018
:100D2000CE0101960E94C40B60ED77E080E090E078
:100D30000E94260726960FB6F894DEBF0FBECDBFE1
:100D4000DF91CF91FF90EF90DF90CF90BF90AF9069
:100D50009F908F9008951F920F920FB60F921124BB
:100D60002F933F938F939F93AF93BF938091B3043F
:100D70009091B404A091B504B091B6043091B2043E
:100D800023E0230F2D3720F40196A11DB11D05C0CE
:100D900026E8230F0296A11DB11D2093B204809373
:100DA000B3049093B404A093B504B093B6048091B7
:100DB000B7049091B804A091B904B091BA04019617
:100DC000A11DB11D8093B7049093B804A093B904FA
:100DD000B093BA04BF91AF919F918F913F912F91A2
:100DE0000F900FBE0F901F9018952FB7F894609139
:100DF000B3047091B4048091B5049091B6042FBFF0
:100E000008953FB7F8948091B7049091B804A091E9
:100E1000B904B091BA0426B5A89B05C02F3F19F0BC
:100E20000196A11DB11D3FBFBA2FA92F982F88276A
:100E3000820F911DA11DB11DBC01CD0142E0660FC5
:100E4000771F881F991F4A95D1F708958F929F9217
:100E5000AF92BF92CF92DF92EF92FF926B017C0133
:100E60000E9401074B015C01C114D104E104F104AB
:100E700001F10E949D070E940107DC01CB01881946
:100E80009909AA09BB09883E9340A105B10560F301
:100E900021E0C21AD108E108F10888EE880E83E04B
:100EA000981EA11CB11CC114D104E104F10419F76E
:100EB000DBCFFF90EF90DF90CF90BF90AF909F90EF
:100EC0008F900895789484B5826084BD84B58160E4
:100ED00084BD85B5826085BD85B5816085BDEEE642
:100EE000F0E0808181608083E1E8F0E01082808121
:100EF00082608083808181608083E0E8F0E080818F
:100F000081608083E1EBF0E0808184608083E0EBAE
:100F1000F0E0808181608083EAE7F0E08081846096
:100F200080838081826080838081816080838081F2
:100F3000806880831092C10008950895833081F005
:100F400028F4813099F08230A1F008958730A9F01B
:100F50008830B9F08430D1F4809180008F7D03C057
:100F6000809180008F7780938000089584B58F777B
:100F700002C084B58F7D84BD08958091B0008F77C5
:100F800003C08091B0008F7D8093B0000895CF930F
:100F9000DF9390E0FC01E458FF4F2491FC01E057FF
:100FA000FF4F8491882361F190E0880F991FFC0125
:100FB000E255FF4FC591D491FC01EC55FF4FA5912F
:100FC000B491611109C09FB7F8948881209582235C
:100FD0008883EC912E230BC0623061F49FB7F894A4
:100FE0003881822F809583238883EC912E2B2C933C
:100FF0009FBF06C08FB7F894E8812E2B28838FBF40
:10100000DF91CF9108951F93CF93DF93282F30E086
:10101000F901E859FF4F8491F901E458FF4FD49149
:10102000F901E057FF4FC491CC23C9F0162F81116D
:101030000E949E07EC2FF0E0EE0FFF1FEC55FF4FD4
:10104000A591B4918FB7F894111105C09C91ED2F23
:10105000E095E92302C0EC91ED2BEC938FBFDF917B
:10106000CF911F91089580E090E00895CF92DF9294
:10107000EF92FF920F931F93CF93DF936C017A014E
:101080008B01C0E0D0E0CE15DF0589F0D8016D916D
:101090008D01D601ED91FC910190F081E02DC6010A
:1010A0000995892B11F47E0102C02196ECCFC7016E
:1010B000DF91CF911F910F91FF90EF90DF90CF9034
:1010C00008956115710579F0FB0101900020E9F7A1
:1010D0003197AF01461B570BDC01ED91FC9102806B
:1010E000F381E02D099480E090E00895DC01ED911A
:1010F000FC91DB0114964D915C9115976D917C915B
:101100000280F381E02D09940C946108DC01ED91DB
:10111000FC910190F081E02D0994DB01ED91FC91AF
:1011200011970190F081E02DBC01CD0109946AE88E
:1011300073E00C9461080F931F93CF93DF93EC013E
:101140000E9461088C01CE010E949708800F911FB8
:10115000DF91CF911F910F9108950F931F93CF931C
:10116000DF93EC010E948D088C01CE010E9497084C
:10117000800F911FDF91CF911F910F9108954F9292
:101180005F926F927F92EF92FF920F931F93CF9394
:10119000DF93CDB7DEB7A1970FB6F894DEBF0FBED1
:1011A000CDBF7C01FA01CB0119A2223008F42AE05C
:1011B0008E010F5D1F4F422E512C612C712CBF01EF
:1011C000A30192010E94512CF901CA010150110999
:1011D0006A3014F4605D01C0695CD8016C93232B04
:1011E000242B252B61F7B801C7010E946108A19645
:1011F0000FB6F894DEBF0FBECDBFDF91CF911F9128
:101200000F91FF90EF907F906F905F904F900895B7
:10121000CF92DF92EF92FF920F931F93CF93DF93C2
:10122000EC016A017B012115310579F4E881F9812E
:101230000190F081E02D642FDF91CF911F910F91EC
:10124000FF90EF90DF90CF9009942A303105E9F4B8
:1012500077FF1AC06DE20E9486088C01442755274B
:10126000BA014C195D096E097F092AE0CE010E947E
:10127000BF08800F911FDF91CF911F910F91FF90B9
:10128000EF90DF90CF9008952AE0B701A601CE013C
:10129000DF91CF911F910F91FF90EF90DF90CF9052
:1012A0000C94BF089A01AB01770F660B770B0C9477
:1012B00008092115310541F4DC01ED91FC91019003
:1012C000F081E02D642F09940C94BF089A01462FF9
:1012D00050E060E070E00C9459091F920F920FB635
:1012E0000F9211242F938F939F93EF93FF93E0918D
:1012F000CB04F091CC048081E091D104F091D20430
:1013000082FD12C090818091D4048F5F8F732091F1
:10131000D504821751F0E091D404F0E0E554FB4F7E
:10132000958F8093D40401C08081FF91EF919F91AC
:101330008F912F910F900FBE0F901F9018951F92B5
:101340000F920FB60F9211242F933F934F935F93F9
:101350006F937F938F939F93AF93BF93EF93FF937D
:101360008BEB94E00E94570AFF91EF91BF91AF91F0
:101370009F918F917F916F915F914F913F912F91AD
:101380000F900FBE0F901F9018958BEB94E00E946A
:101390000C0A21E0892B09F420E0822F0895EBEB61
:1013A000F4E01382128288EE93E0A0E0B0E0848340
:1013B0009583A683B7838DE993E09183808385EC41
:1013C00090E09587848784EC90E09787868780EC0F
:1013D00090E0918B808B81EC90E0938B828B82EC00
:1013E00090E0958B848B86EC90E0978B868B118EAA
:1013F000128E138E148E089508950E9462070E9423
:10140000FC090E942801C9E4DAE00E9474052097D3
:10141000E1F30E94490AF9CFFC01918D228D892FB9
:1014200090E0805C9F4F821B91098F7399270895EC
:10143000FC01918D828D981731F0828DE80FF11D9E
:10144000858D90E008958FEF9FEF0895FC01918DB9
:10145000828D981761F0828DDF01A80FB11D5D9616
:101460008C91928D9F5F9F73928F90E008958FEF84
:101470009FEF0895FC01538D448D252F30E0842F7C
:1014800090E0821B930B541710F0CF9608950197AC
:10149000089585EC99E0892B49F080E090E0892B54
:1014A00029F00E94C50981110C9400000895FC01E7
:1014B000848DDF01A80FB11DA35ABF4F2C91848DDD
:1014C00090E001968F739927848FA689B7892C9312
:1014D000A089B1898C9180648C93938D848D9813AD
:1014E00006C00288F389E02D80818F7D8083089576
:1014F000CF93DF93EC01888D8823C9F0EA89FB89BB
:10150000808185FD05C0A889B9898C9186FD0FC0B1
:101510000FB607FCF5CF808185FFF2CFA889B98986
:101520008C9185FFEDCFCE010E94570AE7CFDF9166
:10153000CF910895EF92FF920F931F93CF93DF9374
:10154000EC0181E0888F9B8D8C8D981305C0E88914
:10155000F989808185FD24C0F62E0B8D10E00F5F88
:101560001F4F0F731127E02E8C8DE8120CC00FB6A1
:1015700007FCFACFE889F989808185FFF5CFCE0194
:101580000E94570AF1CF8B8DFE01E80FF11DE35A3F
:10159000FF4FF0820B8FEA89FB898081806207C050
:1015A000EE89FF896083E889F9898081806480837E
:1015B00081E090E0DF91CF911F910F91FF90EF902C
:1015C0000895CF92DF92EF92FF921F93CF93DF9314
:1015D000EC016A017B01122FE889F98982E080839E
:1015E0004115514E61057105B1F060E079E08DE380
:1015F00090E0A70196010E94512CDA01C9010197E0
:10160000A109B109B695A79597958795AC014115A4
:1016100080E15807A8F0E889F989108260E874E849
:101620008EE190E0A70196010E94512CBA01A90118
:10163000415051096109710976956795579547950C
:10164000EC85FD855083EE85FF854083188EEC89FF
:10165000FD891083EA89FB89808180618083EA8922
:10166000FB89808188608083EA89FB89808180682A
:101670008083EA89FB8980818F7D8083DF91CF9190
:101680001F91FF90EF90DF90CF9008958F929F92DF
:10169000AF92BF92CF92DF92EF92FF920F931F9380
:1016A000CF93DF937C018B016C0182E0C80ED11CCB
:1016B0004701E5E08E0E911CC0E0D0E0F60161919B
:1016C0006F014AE050E0C8010E9466095C016EE2C9
:1016D000C8010E9486088A0D9B1DC80FD91FC81417
:1016E000D90461F74AE050E0F7016581C8010E9422
:1016F00066098C0F9D1FDF91CF911F910F91FF9075
:10170000EF90DF90CF90BF90AF909F908F90089513
:101710002FEA33E0FC01318320831282138214828A
:10172000158208950F93FC018FEA93E091838083E3
:1017300062834383248305830F9108952FEA33E066
:10174000FC0131832083FB014081518162817381DF
:10175000FC0142835383648375830895FB014081B8
:10176000518162817381FC01428353836483758359
:101770000895E8E5F5E08FEA93E091838083128293
:101780001382148215820895FC01808191810C944A
:101790001628CF93DF93EC0188819981009711F08F
:1017A0000E941628198218821D821C821B821A82AE
:1017B000DF91CF9108950F931F93CF93DF93EC01A7
:1017C0008B016F5F7F4F888199810E940A29009762
:1017D00031F0998388831B830A8381E001C080E014
:1017E000DF91CF911F910F910895CF93DF93EC017B
:1017F00088819981892B29F08A819B818617970797
:1018000060F4CE010E94DB0B882341F08C819D8126
:10181000892B19F4E881F981108281E0DF91CF9161
:101820000895EF92FF920F931F93CF93DF93EC01F4
:101830007B018A01BA010E94F50B811104C0CE011F
:101840000E94C90B07C01D830C83B7018881998151
:101850000E94F629CE01DF91CF911F910F91FF9049
:10186000EF900895FC01118210821382128215827A
:1018700014826115710551F0FB0101900020E9F718
:101880003197AF01461B570B0C94110C0895CF9361
:10189000DF93EC016115710559F0FB010190002007
:1018A000E9F73197AF01461B570B0E94110C02C09C
:1018B0000E94C90BCE01DF91CF9108950F931F9322
:1018C000CF93DF93CDB7DEB729970FB6F894DEBF7D
:1018D0000FBECDBF8C01862FF801118210821382BA
:1018E00012821582148250E0BE016F5F7F4F90E03C
:1018F0000E94132ABE016F5F7F4FC8010E94470CF0
:1019000029960FB6F894DEBF0FBECDBFDF91CF9101
:101910001F910F9108950F931F93CF93DF93CDB72E
:10192000DEB762970FB6F894DEBF0FBECDBF8C0155
:10193000CB01F80111821082138212821582148267
:1019400050E0BE016F5F7F4F0E94FD29BE016F5FB7
:101950007F4FC8010E94470C62960FB6F894DEBF15
:101960000FBECDBFDF91CF911F910F9108950F93BF
:101970001F93CF93DF93CDB7DEB761970FB6F8947F
:10198000DEBF0FBECDBF8C01CB01F80111821082EA
:10199000138212821582148250E0BE016F5F7F4F66
:1019A0000E94132ABE016F5F7F4FC8010E94470C3F
:1019B00061960FB6F894DEBF0FBECDBFDF91CF9119
:1019C0001F910F910895FC0124813581232B31F45F
:1019D00021E061157105A1F0FB0108C0FC018081C7
:1019E00091816115710531F421E0FC01808188232A
:1019F00039F005C00E94ED2921E0892B09F020E093
:101A0000822F0895DC01ED91FC910190F081E02D91
:101A10000994089560E470E086EF95E00E94E61E68
:101A20006EEF70E086EF95E00E94020D86EF95E084
:101A30000E94651F6FE070E080E090E00C94260744
:101A4000CF93DF93EC0186EF95E00E94D21ECE018A
:101A50000E940A0D60E470E086EF95E00E94E61EA9
:101A600067EE70E086EF95E00E94020D86EF95E04C
:101A70000E94651F41E050E060E470E086EF95E071
:101A80000E94621F86EF95E00E943F1E21E00297B0
:101A900009F020E0822FDF91CF910895CF93DF935B
:101AA00060E470E086EF95E00E94E61E63EE70E071
:101AB00086EF95E00E94020D86EF95E00E94651F7B
:101AC00062E370E080E090E00E94260743E050E08F
:101AD00060E470E086EF95E00E94621F86EF95E07B
:101AE0000E94371E892BD1F386EF95E00E943F1E9E
:101AF000D82F80E0C82F86EF95E00E943F1EC82BAC
:101B0000D92B86EF95E00E943F1EBE0180E090E059
:101B10000E94462B22E538EB4FE253E40E94D42B7F
:101B200020E030E040E857E30E94D42B26E636E67A
:101B30004BE352E40E94382ADF91CF910895CF936E
:101B4000DF9360E470E086EF95E00E94E61E65EEAC
:101B500070E086EF95E00E94020D86EF95E00E940E
:101B6000651F62E370E080E090E00E94260743E09A
:101B700050E060E470E086EF95E00E94621F86EF1F
:101B800095E00E94371E892BD1F386EF95E00E94E5
:101B90003F1ED82F80E0C82F86EF95E00E943F1EA1
:101BA000C82BD92B86EF95E00E943F1EBE0180E036
:101BB00090E00E94462B20E030E04AEF52E40E9481
:101BC000D42B20E030E040E857E30E94D42B20E003
:101BD00030E040EC50E40E94382ADF91CF91089524
:101BE00008951F93CF93DF9300D0CDB7DEB7162FA4
:101BF000FC01608186EF95E04A8359830E94DC1ED8
:101C0000612F86EF95E00E94931E5981652F86EF24
:101C100095E00E94931E4A81642F86EF95E00E9412
:101C2000931E86EF95E00F900F90DF91CF911F915B
:101C30000C94651F1F93CF93DF93EC01162F6881DF
:101C400086EF95E00E94DC1E612F86EF95E00E94F2
:101C5000931E86EF95E00E94651F42E0688186EF43
:101C600095E00E945F1F86EF95E00E943F1ED82FEF
:101C700080E0C82F86EF95E00E943F1E8C2B9D2BA5
:101C8000DF91CF911F910895CF93DF93EC0168838B
:101C900086EF95E00E94D21E66E0CE010E941A0EE9
:101CA0008435910511F080E00EC067E0CE010E94FE
:101CB0001A0E81159440B9F740E050E061E0CE0182
:101CC0000E94F10D81E0DF91CF910895CF93DF93D2
:101CD00065E00E941A0EEC01BC017F7080E090E08C
:101CE0000E94462B20E030E040E85DE30E94D42BC8
:101CF000D4FF06C020E030E040E853E40E94382AD8
:101D0000DF91CF9108958FEF9FEF90935F058093C0
:101D10005E0508951F920F920FB60F9211240F9037
:101D20000FBE0F901F901895A8950895DA01F9013C
:101D300060348FE178071CF46115710539F489E08E
:101D400090E08D939C9380E49FE158C0603A8FE0CF
:101D500078073CF088E090E08D939C9380EA9FE0C8
:101D60004DC0603D87E078073CF087E090E08D93C0
:101D70009C9380ED97E042C0683E83E078073CF09A
:101D800086E090E08D939C9388EE93E037C0643FAB
:101D900081E078073CF085E090E08D939C9384EFA0
:101DA00091E02CC06A3F71053CF084E090E08D9397
:101DB0009C938AEF90E022C0683771053CF083E085
:101DC00090E08D939C9388E790E018C06C33710588
:101DD0003CF082E090E08D939C938CE390E00EC009
:101DE0006E3171053CF081E090E08D939C938EE123
:101DF00090E004C01D921C928FE090E0918380835C
:101E000008950F931F93CF93DF9300D0CDB7DEB724
:101E10008C019E012F5F3F4FAC010E94960EF8018E
:101E2000808183FD02C098E001C098E28770892B11
:101E300098E10FB6F894A895909360000FBE809338
:101E4000600089819A810F900F90DF91CF911F914F
:101E50000F910895DC01ED91FC91048CF58DE02D3E
:101E600009942FEA33E0FC0131832083FB01408990
:101E7000518962897389FC0142835383648375832A
:101E80000895FC01848995890895FC01818D928DC6
:101E90000895CF93DF931F92CDB7DEB76983DC013E
:101EA000ED91FC910280F381E02D41E050E0BE0114
:101EB0006F5F7F4F09950F90DF91CF91089508953F
:101EC000CF93DF93EC01888D843061F00E94E014A1
:101ED000E88DF0E0EE0FFF1FE252FA4F1182108200
:101EE00084E0888FDF91CF910895FC01178A168ACC
:101EF0006E5F7F4F808D0C945E16FC01808D0C947C
:101F0000A416CF93DF93EC019A018E899F89AB01D0
:101F1000BC01888D0E9417162E893F89280F391F12
:101F20003F8B2E8BDF91CF9108950F931F93CF930B
:101F3000DF931F92CDB7DEB7FC01218D328D232BAD
:101F400061F08C0141E050E0BE016F5F7F4F808DFA
:101F50000E945D15181619061CF08FEF9FEF08C040
:101F6000F801818D928D0197928F818F898190E008
:101F70000F90DF91CF911F910F910895CF93DF9331
:101F8000FC01218D328D2115310519F48FEF9FEF62
:101F900011C0EC014217530708F0A901888D0E9477
:101FA0005D151816190694F7298D3A8D281B390BE3
:101FB0003A8F298FDF91CF910895CF93DF931F92AE
:101FC000CDB7DEB7FC01218D328D232B49F0BE0148
:101FD0006F5F7F4F808D0E94E815898190E002C07D
:101FE0008FEF9FEF0F90DF91CF910895EF92FF92C7
:101FF0001F93CF93DF93FC01208D243011F080E0FC
:102000001CC07B01EC0110E0812F0E94B8148111EB
:1020100002C0188F05C08831E1F31F5F1430A1F7AB
:10202000888D843061F3FD86EC861A8E198E20E04F
:10203000A70162E00E940A1581E0DF91CF911F9114
:10204000FF90EF9008950F931F93CF93DF93CDB739
:10205000DEB728970FB6F894DEBF0FBECDBF8C0158
:10206000F801818D928D892B49F0D801ED91FC9179
:102070000284F385E02DC8010995F2CF808D0E947E
:10208000BD151816190654F548E050E0BE016F5F03
:102090007F4FD80158968C910E945D159C011816AF
:1020A0001906D4F4BE016F5F7F4FC8010E960E94DF
:1020B000AE0B8D8190E0982F88272E81820F911D85
:1020C000F801958B848B2F8130E0322F2227888571
:1020D000280F311D328F218FC90102C080E090E0AE
:1020E00028960FB6F894DEBF0FBECDBFDF91CF911B
:1020F0001F910F9108958F929F92AF92BF92CF92AE
:10210000DF92EF92FF920F931F93CF93DF9300D054
:1021100000D000D0CDB7DEB7FC01208D243009F00F
:1021200068C06A017B018C0153E0852E54E0952E36
:10213000A12CB12CC4010E945E12811103C0F801D0
:10214000A08E0AC08831D9F3FFEFAF1ABF0A93946B
:10215000E4E0AE16B10471F7F801808D843009F423
:1021600048C096E0E4E1F1E0DE01119601900D92A5
:102170009A95E1F7F70193819F779C8394819D83E2
:1021800095819E83B7016E5F7F4F90E0982F8827DF
:1021900044E050E0845F9B4F0E942F12F801E08CD6
:1021A000F12CF4E0EF0EF11CFE2CEE246D2DC70196
:1021B00040960E949B116C2DC70141960E949B1175
:1021C000F801808D90E0982F882746E050E0BE010E
:1021D0006F5F7F4F8A5F9B4F0E942F12F801128E14
:1021E000118E20E8A60162E0808D0E940A1581E030
:1021F00001C080E026960FB6F894DEBF0FBECDBFBB
:10220000DF91CF911F910F91FF90EF90DF90CF90D2
:10221000BF90AF909F908F900895CF93DF93EC0184
:102220001B821A8288EE93E0A0E0B0E08C839D834D
:10223000AE83BF8385EB93E099838883CE010E96AE
:102240000E94880B84E0888FDF91CF910895CF9210
:10225000DF92EF92FF920F931F93CF93DF93CDB74F
:10226000DEB7AF970FB6F894DEBF0FBECDBF8C01BF
:102270006B017A01CE0101960E94880BCE0109966E
:102280000E940D11CE018A960E94880B68E775E0C6
:10229000CE0184960E942518BE016C5D7F4FCE0151
:1022A00001960E944718AE01465D5F4FB601CE0110
:1022B00001960E94B61A81309105C1F4D801ED91C2
:1022C000FC910488F589E02D8FEA93E09DA38CA30F
:1022D0008CA59DA5AEA5BFA58EA39FA3A8A7B9A7B2
:1022E000A701BE016C5D7F4FC8010995AF960FB67F
:1022F000F894DEBF0FBECDBFDF91CF911F910F913C
:10230000FF90EF90DF90CF9008950F9300E020E0D2
:1023100040E060E080E695E00E94920B0F91089506
:102320008EBD00000DB407FEFDCF8EB508952A982E
:1023300008952A9A08951F93CF93DF9300D0CDB7C5
:10234000DEB7182F6A8399830E94971180EF0E944D
:1023500090119981892F0E949011812F0E949011D4
:102360006A81862F0E9490110E94991181E00F903E
:102370000F90DF91CF911F910895CF93DF93EC01E0
:102380006CE271E080E090E00E9426070E94441B0E
:10239000229A8091F405882399F02FB7F8948091C0
:1023A000F405813059F48DB38093F2059DB380918B
:1023B000F305809589238DBB2FBF02C02093F205C2
:1023C00080E58CBD1DBC60E880E090E00E949B1120
:1023D00065E58BE190E00E949B1165E58AE190E064
:1023E0000E949B118091F405882351F09FB7F894C7
:1023F0002091F4058091F205213029F58DBB9FBF16
:1024000080E090E49983888380E090E699878887CC
:1024100080E098E49B838A8380E098E69B878A87A4
:1024200080E090E59D838C8380E090E79D878C879A
:1024300080E098E59F838E8380E098E79F878E8772
:10244000DF91CF9108958FBFDBCF9B0190E0049681
:10245000982F8827642F820F931F0C949B11CF9283
:10246000DF92EF92FF920F931F93CF93DF93EC01D4
:102470007A018B016C01C40ED51ECC15DD05A1F0CF
:102480000E94971180EF0E9490118D2F0E94901151
:102490008C2F0E9490112196F80181918F010E944A
:1024A00090110E949911E9CFC701DF91CF911F913F
:1024B0000F91FF90EF90DF90CF9008951F93CF93EF
:1024C000DF931F92CDB7DEB7182F99830E94971123
:1024D0008FE00E9490119981892F0E949011812F85
:1024E0000E94901180E00E94901189830E949911AE
:1024F00089810F90DF91CF911F91089590E004960C
:10250000982F8827860F971F0C945E121F93CF93E6
:10251000DF93182F60E270E00E947E12C82FD0E097
:1025200061E270E0812F0E947E12DC2FCC279E0199
:10253000282BC901DF91CF911F910895FF920F932E
:102540001F93CF93DF93F62EC0E0D0E08F2D0E9433
:1025500086128C01892B21F08F2D0E948612EC01AE
:10256000C017D10799F7CE01DF91CF911F910F913D
:10257000FF9008951F93CF93DF93182F66E270E0CA
:102580000E947E12C82FD0E067E270E0812F0E9487
:102590007E12DC2FCC279E01282BC901DF91CF9121
:1025A0001F910895FF920F931F93CF93DF93F62E01
:1025B000C0E0D0E08F2D0E94BA128C01892B21F04F
:1025C0008F2D0E94BA12EC01C017D10799F7CE01E6
:1025D000DF91CF911F910F91FF9008956F927F929D
:1025E0008F929F92AF92BF92CF92DF92EF92FF9223
:1025F0000F931F93CF93DF931F92CDB7DEB7882E33
:10260000962E6A01590164E270E0892D99830E9437
:102610007E12E82EF12C65E270E0892D0E947E1278
:10262000FE2CEE24E82A37016C0C7D1CA3015770A8
:10263000E82C9981F92EE90CF11CE90CF11CF70149
:1026400080819181840F951F9A01200F311F2130C5
:10265000384098F060E078E06B01C41AD50AA60112
:10266000B5010E942F12A8014C195D09B5016C0D2E
:102670007D1DF7018081918102C0A801B5010E94F2
:102680002F12060D171D412F64E270E0892D0E9464
:102690002512402F65E270E0892D0F90DF91CF91D8
:1026A0001F910F91FF90EF90DF90CF90BF90AF9070
:1026B0009F908F907F906F900C942512CF92DF9215
:1026C000EF92FF920F931F93CF93DF93EC017A0168
:1026D0008B016C01C40ED51ECC15DD05A9F00E943E
:1026E00097118FE00E9490118D2F0E9490118C2FD6
:1026F0000E949011219680E00E949011F801819330
:102700008F010E949911E8CFC701DF91CF911F91EE
:102710000F91FF90EF90DF90CF900895AF92BF920E
:10272000CF92DF92EF92FF920F931F93CF93DF939D
:1027300000D0CDB7DEB75A834983590129813A8148
:1027400037706C01C60ED11CC60ED11CF6018085F7
:102750009185820F931FA801420F531F41305840AB
:1027600098F0E0E0F8E07F01E21AF30AA701B50172
:102770000E945E13A8014E195F09B5016E0D7F1D01
:10278000F6018085918502C0A801B5010F900F90D8
:10279000DF91CF911F910F91FF90EF90DF90CF903D
:1027A000BF90AF900C945E138F929F92AF92BF92A6
:1027B000CF92DF92EF92FF920F931F93CF93DF930D
:1027C0006C01962E5A017901802E68E270E0892D05
:1027D0000E947E12C82FD0E069E270E0892D0E942D
:1027E0007E12DC2FCC27C82B87019501AE01692D05
:1027F000C6010E948E1381101AC0CE0DDF1D4D2F11
:1028000068E270E0892D0E9425124C2F69E270E089
:10281000892DDF91CF911F910F91FF90EF90DF9065
:10282000CF90BF90AF909F908F900C942512DF9126
:10283000CF911F910F91FF90EF90DF90CF90BF90BD
:10284000AF909F908F900895CF93C62F61E070E076
:102850008C2F0E94251261E070E08C2F0E947E1266
:102860008111F9CFCF9108950F93FC0130E080E002
:1028700092E1AAE7B0E0481759076A077B0740F4DE
:10288000B695A795979587953F5F3630A1F737E0C6
:1028900091E09327222311F020E501C020E7892F42
:1028A00086950C70082B022B0083917091830F91F9
:1028B00008952091F405222399F04FB7F8942091C0
:1028C000F405213059F42DB32093F2053DB3209146
:1028D000F305209523232DBB4FBF02C04093F20583
:1028E0008CBD9DBD08958091F405882361F09FB74C
:1028F000F8942091F4058091F205213019F48DBBF4
:102900009FBF08958FBF089590E0982F882744E0D7
:1029100050E0845F9B4F0C942F1262E070E00C94A7
:102920007E12CF93DF93C82FD62F472F64E070E03D
:102930000E9425124D2F65E070E08C2FDF91CF9122
:102940000C942512462F62E070E00C942512CF9370
:10295000DF93C82FD62F472F60E170E00E94251229
:102960004D2F61E170E08C2FDF91CF910C942512F7
:102970000F931F93CF93DF9300D01F92CDB7DEB795
:10298000182F00E021E040E059E06DE370E0CE0157
:1029900001960E94341489819A810E94591463E03F
:1029A00070E0812F0E947E128B830E9473148B81B2
:1029B0000F900F900F90DF91CF911F910F9108957D
:1029C0000F931F93CF93DF9300D0CDB7DEB7182FAF
:1029D00000E021E040E059E06DE370E0CE010196B7
:1029E0000E94341489819A810E94591440E150E078
:1029F000612F86E695E00E9424146FEF812F0E94DC
:102A0000A2140E9473140F900F90DF91CF911F9129
:102A10000F910895CF92DF92EF92FF920F931F9341
:102A2000CF93DF9300D0CDB7DEB79FEF960F9530F1
:102A3000C0F5F22E6A01E62E182F0E94E01400E085
:102A400021E040E059E06DE370E0CE0101960E9484
:102A5000341489819A810E9459144E2D4F2960E0C7
:102A600070E0812F0E942512C114D10411F0B6012B
:102A70000AC060917605709177056F5F7F4F709304
:102A8000770560937605812F0E94911441E050E014
:102A9000612F86E695E00E9424140E94731481E061
:102AA00001C080E00F900F90DF91CF911F910F91A7
:102AB000FF90EF90DF90CF900895AF92BF92CF92AA
:102AC000DF92EF92FF920F931F93CF93DF9300D08B
:102AD000CDB7DEB7182F5B016A0100E021E040E0CE
:102AE00059E06DE370E0CE0101960E9434148981B3
:102AF0009A810E945914612F86E695E00E94D212B5
:102B00007C010097A1F463E070E0812F0E947E12A7
:102B1000843119F1882309F121E030E08C3111F47E
:102B200020E030E0EE24FF24E21AF30A16C0C816B3
:102B3000D9060CF476011E141F047CF400E0970102
:102B4000A501612F86E695E00E94D41340E450E091
:102B5000612F86E695E00E9424140E947314C70139
:102B60000F900F90DF91CF911F910F91FF90EF90F9
:102B7000DF90CF90BF90AF9008950F931F93CF93A6
:102B8000DF9300D000D0CDB7DEB7182F00E021E0F2
:102B900040E059E06DE370E0CE0101960E943414EC
:102BA00089819A810E945914612F86E695E00E94DE
:102BB000D2128B839C830E9473148B819C810F9013
:102BC0000F900F900F90DF91CF911F910F9108956B
:102BD000EF92FF920F931F93CF93DF9300D0CDB767
:102BE000DEB7182F7B0100E021E040E059E06DE303
:102BF00070E0CE0101960E94341489819A810E946E
:102C0000591401E021E030E0A701612F86E695E04C
:102C10000E94D4130E94731481E090E00F900F90F3
:102C2000DF91CF911F910F91FF90EF9008958F92B8
:102C30009F92AF92BF92DF92EF92FF920F931F93FA
:102C4000CF93DF9300D0CDB7DEB7D82E5B014A011A
:102C5000790100E021E040E059E06DE370E0CE0151
:102C600001960E94341489819A810E9459146D2D15
:102C700086E695E00E949E128E159F0530F46D2D1C
:102C800086E695E00E949E127C0187019401A501D1
:102C90006D2D86E695E00E94EE120E947314C70126
:102CA0000F900F90DF91CF911F910F91FF90EF90B8
:102CB000DF90BF90AF909F908F900895CF92DF925A
:102CC000EF92FF920F931F93CF93DF9300D0CDB776
:102CD000DEB7FB019081911109C09181911106C06D
:102CE0009281911103C09381992309F141155105F6
:102CF000F1F06A017F01182F00E021E040E059E087
:102D00006DE370E0CE0101960E94341489819A81AE
:102D10000E945914B701812F0E948414B601812F9B
:102D20000E94A7140E94731481E090E002C080E02A
:102D300090E00F900F90DF91CF911F910F91FF9036
:102D4000EF90DF90CF9008950F931F93CF93DF9371
:102D500000D0CDB7DEB7182F00E021E040E059E009
:102D60006DE370E0CE0101960E94341489819A814E
:102D70000E94591440E250E0612F86E695E00E94DF
:102D80002414812F0E948D1484FD21C0812F0E9464
:102D90008D1483FF09C068E1812F0E94A2140E9454
:102DA000731480E090E01BC00E9473140E949D0782
:102DB00000E021E040E059E06DE370E0CE010196D3
:102DC0000E94341489819A810E945914DACF60E1FB
:102DD000812F0E94A2140E94731481E090E00F9052
:102DE0000F90DF91CF911F910F91089544E050E033
:102DF000BC0181E090E00C942F1244E050E0BC0153
:102E000085E090E00C942F1244E050E0BC018FE08C
:102E100090E00C942F122F923F924F925F926F92FC
:102E20007F928F929F92AF92BF92CF92DF92EF925A
:102E3000FF920F931F93CF93DF9300D000D000D069
:102E4000CDB7DEB76C011B0129013A0147015801DA
:102E500080E895E0F6019783868386E695E00E94F8
:102E6000BD1180E590E00E94591446E050E0B101A8
:102E700089E090E00E942F1200E020E040E060E056
:102E8000CE0101960E94920BCE0103960E94041778
:102E90000E94731485017401A3019201B101F6012E
:102EA000868197810E94A5268C010197B9F580E55E
:102EB00090E00E945914F60166817781CE01019657
:102EC0000E94DF21CE0103960E940417F60166815D
:102ED0007781CE0101960E94F521CE0103960E94D2
:102EE000F616F60166817781CE0101960E94EA21ED
:102EF000CE0103960E94FD160E947314F6016681AE
:102F00007781CE0101960E9400228B819C81AD8148
:102F1000BE81F60182839383A483B583C80126967C
:102F20000FB6F894DEBF0FBECDBFDF91CF911F91DA
:102F30000F91FF90EF90DF90CF90BF90AF909F9058
:102F40008F907F906F905F904F903F902F9008955B
:102F5000EF92FF920F931F93CF93DF9300D000D097
:102F600000D0CDB7DEB7FC012681378121153105B0
:102F700009F443C08C01C9010E94E4267C01029738
:102F800021F084E0E816F104D1F580E590E00E949C
:102F90005914F80166817781CE0101960E94DF21E4
:102FA000CE0103960E940417F80166817781CE0155
:102FB00001960E94F521CE0103960E94F616F801B3
:102FC00066817781CE0101960E94EA21CE010396A7
:102FD0000E94FD160E947314F80166817781CE016C
:102FE00001960E9400228B819C81AD81BE81F801F7
:102FF00082839383A483B58302C0E12CF12CC701A3
:1030000026960FB6F894DEBF0FBECDBFDF91CF91ED
:103010001F910F91FF90EF900895CF93DF93EC01F4
:103020000E94880B80E590E00E945914BE016E5FFB
:103030007F4F44E050E08FE090E00E945E130E94DA
:103040007314CE01DF91CF9108952FEA33E0FC0194
:1030500031832083FB014281538164817581FC01AE
:10306000428353836483758308950F9300E020E0C7
:1030700040E060E086EE95E00E94920B83EC95E0E4
:103080000E940D1188E795E00F910C94880BFB01CD
:103090004281538164817581FC014283538364833F
:1030A0007583178216820895CF93DF93FB0120E08A
:1030B00080E090E0AAE03191332301F160ED630FED
:1030C0006A3080F4A89FB001A99F700D1124CB0134
:1030D000C097830F911D37FD9A958F3F910559F346
:1030E00050F313C03E3289F4233079F0EA01C20F65
:1030F000D11D8A832F5F80E090E0DDCF233029F45B
:10310000FA01858381E090E002C080E090E0DF91E9
:10311000CF9108950F9300E020E040E060E08CEE56
:1031200095E00E94920B0F9108958F929F92AF921B
:10313000BF92CF92DF92EF92FF920F931F93CF93A4
:10314000DF9300D000D01F92CDB7DEB78C016B01AA
:103150000E94F506F801778366837627672776272E
:103160007A836983085F1F4F42E050E0BE016F5FC2
:103170007F4FC8010E94810F81E090E09C838B8388
:1031800042E050E0BE016D5F7F4FC8010E94810F99
:1031900080E091E09C838B8342E050E0BE016D5F54
:1031A0007F4FC8010E94810F1C821B8242E050E0C9
:1031B000BE016D5F7F4FC8010E94810F42E050E069
:1031C000BE016D5F7F4FC8010E94810F42E050E059
:1031D000BE016D5F7F4FC8010E94810F5601F5014E
:1031E0008081882329F1C6017C01FC0120810196A0
:1031F000211116C0570147018C189D081814190495
:1032000094F48D8241E050E0BE016B5F7F4FC801B6
:103210000E94810FA401B601C8010E94810F03C062
:103220002E3211F7E7CF6701FFEFCF1ADF0AD7CFB2
:103230001D8241E050E0BE016B5F7F4FC8010E94DC
:10324000810FE12CFF24F394FC82EB8242E050E0FA
:10325000BE016D5F7F4FC8010E94810FFC82EB822F
:1032600042E050E0BE016D5F7F4FC8010E94810FB8
:1032700081E090E00F900F900F900F900F90DF91F2
:10328000CF911F910F91FF90EF90DF90CF90BF9063
:10329000AF909F908F9008954F925F926F927F9220
:1032A0008F929F92AF92BF92CF92DF92EF92FF9256
:1032B0000F931F93CF93DF93CDB7DEB765970FB60C
:1032C000F894DEBF0FBECDBF7C015B016A010E9496
:1032D000F5062B013C018701085F1F4F4501A12C1A
:1032E000B12CC8010E94231018161906A4F00E94E0
:1032F000F506DC01CB0184199509A609B7098816E2
:103300009906AA06BB06D0F062E370E080E090E088
:103310000E942607E6CFF7014281538164817581BF
:10332000808D918DA28DB38D481759076A077B0751
:1033300041F4848D958DC59721F406C02FEF3FEFA2
:10334000FDC02EEF3FEFFAC0C8010E94450F0C9759
:10335000ECF04CE050E0BE016F5F7F4FC8010E946F
:10336000BE0F6C818B810E94D3219A8B898BF701D0
:10337000E680F7806A8189810E94D321E816F906E8
:1033800041F489899A8997FF04C009C02DEF3FEF66
:10339000D5C0C8010E945F0F2CEF3FEFCFC08F70E8
:1033A0009270892B31F0C8010E945F0F2BEF3FEF25
:1033B000C5C068858F810E94D3215C01892B31F4BF
:1033C000C8010E945F0F2AEF3FEFB8C0E12CF12C3B
:1033D0006E818D810E94D321E816F90640F541E007
:1033E00050E0BE01635F7F4FC8010E94BE0F8D8514
:1033F000811113C08D858111F2CFC8010E94950FF4
:10340000C8010E94950FC8010E94950FC8010E9433
:10341000950FFFEFEF1AFF0ADBCF8D859FEF980F17
:103420009D87882339F3C8010E94950FF6CFE12CC0
:10343000F12C41E050E0BE016D5E7F4FC8010E945B
:10344000BE0F8B89982F907C61F4882371F08B8953
:103450009FEF980F9B8B882341F0C8010E94950F26
:10346000F6CFC8010E94950F1B8A8B898111E1CF8D
:1034700042E050E0BE01615F7F4FC8010E94BE0F75
:1034800042E050E0BE01635F7F4FC8010E94BE0F63
:10349000C8010E94950FC8010E94950FC8010E94A3
:1034A000950FC8010E94950F42E050E0BE016F5E8B
:1034B0007F4FC8010E94BE0F8F859889811591406A
:1034C00001F52D853E85322723273227213031050E
:1034D000C1F489899A898115944031F0C8010E940C
:1034E0005F0F27EF3FEF2AC0B6016E5F7F4F44E0CA
:1034F00050E0C8012C8B3D8B0E94BE0F2C893D896A
:103500001DC0812C912C89899A8998278927982711
:103510008816990638F4C8010E94950F8FEF881A13
:10352000980AF1CFEFEFEE1AFE0AEA14FB0409F055
:1035300080CFC8010E945F0F26EF3FEFC90165965B
:103540000FB6F894DEBF0FBECDBFDF91CF911F91B4
:103550000F91FF90EF90DF90CF90BF90AF909F9032
:103560008F907F906F905F904F9008958F929F9271
:10357000AF92BF92CF92DF92EF92FF920F931F9381
:10358000CF93DF9300D000D000D0CDB7DEB77C0161
:103590004B015A010E9454188C01892B09F05BC021
:1035A000F70142815381648175818091EE0590918C
:1035B000EF05A091F005B091F105481759076A078A
:1035C0007B0709F44BC00E94F5066701F8E0CF0EB7
:1035D000D11C6F7077277C5FC6010E94F60F813087
:1035E00009F03EC08FEA93E09A838983F7018281D4
:1035F0009381A481B5818B839C83AD83BE8345E396
:1036000050E0BE016F5F7F4FC6010E94750F892B8E
:1036100019F400E010E01BC0B401C7010E94951826
:10362000892BB9F3C6010E947D0F892B91F383E0AA
:10363000882E912CA50168E873E1C7010E944C19FE
:103640008C01F1E08F1A910811F0019699F3C601EF
:103650000E94600F05C001E010E002C00EEF1FEFF6
:10366000C80126960FB6F894DEBF0FBECDBFDF911E
:10367000CF911F910F91FF90EF90DF90CF90BF906F
:10368000AF909F908F900895CF93CFB7F89480918B
:10369000F505811127C0EAE9F0E08491E6E8F0E061
:1036A0009491E82FF0E0EE0FFF1FE255FF4FA59138
:1036B000B491EC91E92321F461E08AE00E940308CF
:1036C00061E08AE00E94C7078CB580618CBD8CB533
:1036D00080648CBD61E08DE00E94C70761E08BE0F3
:1036E0000E94C7078091F5058F5F8093F505CFBFD6
:1036F000CF910895FC0114821582168217820895D5
:103700001F93CF93DF931F92CDB7DEB7162FFC0127
:10371000608186EF95E049830E94DC1E612F86EF71
:1037200095E00E94931E4981642F86EF95E00E94E8
:10373000931E86EF95E00F90DF91CF911F910C942F
:10374000651F1F93CF93DF9300D0CDB7DEB7162F41
:10375000FC01608186EF95E04A8359830E94DC1E5C
:10376000612F86EF95E00E94931E5981652F86EFA9
:1037700095E00E94931E4A81642F86EF95E00E9497
:10378000931E86EF95E00F900F90DF91CF911F91E0
:103790000C94651F1F93CF93DF93EC01162F688164
:1037A00086EF95E00E94DC1E612F86EF95E00E9477
:1037B000931E86EF95E00E94651F41E0688186EFC9
:1037C00095E00E945F1FC8EED3E086EF95E00E946F
:1037D000371E1816190634F0209711F02197F5CFEF
:1037E00080E006C0CD2BE1F386EF95E00E943F1EFE
:1037F000DF91CF911F9108950F93CF93DF93EC0149
:10380000637041704295407F2F70422B6295660F26
:10381000607E462B6EE10E94801B002321F0083061
:1038200018F007E001C001E08FEF800F61E070E069
:1038300002C0660F771F8A95E2F7072E000C880BEF
:10384000990B0E94482B9B01AC0160E074E284EF6D
:1038500099E40E94A52A0E94172B6C837D838E8396
:103860009F836FE1CE010E94CA1B8F780295007F73
:10387000482F402B6FE1CE01DF91CF910F910C9437
:10388000801B1F93CF93DF93EC01162F688186EF87
:1038900095E00E94DC1E612F86EF95E00E94931E4A
:1038A00086EF95E00E94651F42E0688186EF95E013
:1038B0000E945F1FC0EDD7E086EF95E00E94371EA3
:1038C00002973CF4209711F02197F6CF80E090E02A
:1038D00011C0CD2BD9F386EF95E00E943F1EC82F73
:1038E00086EF95E00E943F1E20E030E03C2FA901CA
:1038F000482BCA01DF91CF911F910895CF92DF929B
:10390000EF92FF920F931F93CF93DF938C01D62FEB
:10391000F42E6EE00E94411C41E050E09A0102C08A
:10392000220F331FDA95E2F7E90180959095822303
:103930009323892B89F060E1C8010E94411CFF207C
:1039400021F0AC014C2B5D2B05C0C095D095AC018E
:103950004C235D2360E125C066E0C8010E94411C44
:103960006C0168E0C8010E94411C9E0120953095C1
:10397000FF2061F07C01E222F322A6014C2B5D2B9B
:1039800066E0C8010E94A11BA7010AC0C82BD92B61
:10399000A6014223532366E0C8010E94A11BAE0189
:1039A00068E0C801DF91CF911F910F91FF90EF90D8
:1039B000DF90CF900C94A11BFF920F931F93CF9396
:1039C000DF938C01F62E6EE00E94411CC1E0D0E036
:1039D00002C0CC0FDD1FFA94E2F78C239D23892BC4
:1039E00049F060E1C8010E94411CC823D92381E04D
:1039F000CD2B09F480E0DF91CF911F910F91FF90C3
:103A000008950C94DC1CCF92DF92EF92FF920F93FB
:103A10001F93CF93DF931F92CDB7DEB76C01162FA4
:103A200060E029830E94411C41E050E0BA0102C0DD
:103A3000660F771F1A95E2F78B01AC01462B572BC7
:103A400060E0C6010E94A11B66E0C6010E94411C05
:103A50007801E094F094AC014E215F2166E0C6014C
:103A60000E94A11B6EE0C6010E94411CAC014E21C8
:103A70005F216EE0C6010E94A11B6EE1C6010E949B
:103A8000CA1B8F7D482F40646EE1C6010E94801BD7
:103A90006FE1C6010E94CA1B2981482F222311F021
:103AA000486801C04777F60184819581A681B78176
:103AB000892B8A2B8B2B49F480E894E8AEE1B0E0A7
:103AC00084839583A683B78340616FE1C6010E941A
:103AD000801B60E2C6010E94411CAC01402B512BAF
:103AE00060E2C6010E94A11B60E1C6010E94411C68
:103AF000AC014E215F2160E1C6010F90DF91CF91B3
:103B00001F910F91FF90EF90DF90CF900C94A11B2D
:103B10000F931F93CF93DF93EC01162F042F6EE0CA
:103B20000E94411C9C01802F8D7F813059F041E023
:103B300050E0012E02C0440F551F0A94E2F7422BB9
:103B4000532B0DC0E1E0F0E0012E02C0EE0FFF1F8D
:103B50000A94E2F7E095F095A9014E235F236EE009
:103B6000CE010E94A11B023049F441E0612FCE0139
:103B7000DF91CF911F910F910C947E1C033051F473
:103B800020E041E0612FCE01DF91CF911F910F9195
:103B90000C94031DDF91CF911F910F9108950C9408
:103BA000881DCF93DF93EC016FE10E94CA1B82FF57
:103BB00006C0482F4B7F6FE1CE010E94801B41E081
:103BC0006B81CE010E94881D40E06B81CE010E9476
:103BD0007E1C61E070E080E090E00E94260741E0FA
:103BE0006B81CE01DF91CF910C947E1CCF93DF933C
:103BF000662321F0DF91CF910C94D11DEC0142E1BD
:103C00006DE70E94801B44E36DE7CE01DF91CF9109
:103C10000C94801B0F93CF93DF93EC0186EF95E01C
:103C20000E94D21E8B818F3F21F0CE010E94D11DB8
:103C300004C060E0CE010E94F61D63E1CE010E9447
:103C4000411C81159F4F49F401E020E040E062E013
:103C5000CE010E94FC1B81E001C080E0DF91CF918A
:103C60000F910895FC01608343830C940A1E809198
:103C7000260690E020912706821B910908959091D5
:103C8000270680912606981750F4E92FF0E0E85DAA
:103C9000F94F208130E09F5F9093270602C02FEFFD
:103CA0003FEFC9010895E091270680912606E817A5
:103CB00030F4F0E0E85DF94F808190E008958FEFF7
:103CC0009FEF08950895CF92DF92EF92FF920F93A6
:103CD0001F93CF93DF937C01262F972F8A0180912A
:103CE0000206882391F0C62FD72F6E01C40ED51E71
:103CF000CC15DD0571F06991D701ED91FC91019032
:103D0000F081E02DC7010995F3CF642F822F0E9427
:103D10002820C801DF91CF911F910F91FF90EF9064
:103D2000DF90CF900895CF93DF931F92CDB7DEB78A
:103D30006983209102062223D1F0209103062032CC
:103D400040F021E030E0FC013383228380E090E00A
:103D500015C080910406E82FF0E0EB5FF94F9981E0
:103D600090838F5F809304068093030605C061E013
:103D7000CE0101960E94282081E090E00F90DF9113
:103D8000CF910895FC011382128288EE93E0A0E0A7
:103D9000B0E084839583A683B7838DED93E0918310
:103DA000808308951092270610922606109204062A
:103DB000109203060C946C1F81E0809302066093BE
:103DC0002506109204061092030608950C94DC1E3A
:103DD0000F93062F21E04091030665E076E0809185
:103DE00025060E94D21F109204061092030610921C
:103DF00002060F9108954F925F926F927F92AF9259
:103E0000BF92CF92EF92FF920F931F93CF93DF93C6
:103E10005C01F62ED42F28013901EE2021F10E94F9
:103E2000DC1ECE2DC43008F0C3E0C150C0F0D50177
:103E3000ED91FC91B8E0CB9FC0011124A301920148
:103E400004C056954795379527958A95D2F7CA01AC
:103E5000B9010190F081E02DC5010995E6CF60E040
:103E6000C5010E94E81E4D2FD13208F040E22C2DF2
:103E700068E276E08F2D0E948A1F109227068093B9
:103E80002606DF91CF911F910F91FF90EF90CF9079
:103E9000BF90AF907F906F905F904F900895CF92BA
:103EA000EF920F931F93C22EE12C00E010E09801D7
:103EB0000E94FB1E1F910F91EF90CF90089521E07B
:103EC0000C944F1F21E00C944F1F61E00C94E81EEE
:103ED00086EF95E00C94C21E1092B50681E08093A7
:103EE000B3061092B20661E082E10E94030861E02D
:103EF00083E10E940308E9EBF0E080818E7F8083FC
:103F000080818D7F808388E48093B80085E48093EE
:103F1000BC000895413208F043C09091B50691115C
:103F2000FCCF91E09093B5062093B3062FEF20933A
:103F3000480610928D06240F20938C069093B406A9
:103F40009091B406880F892B8093B4068091B206B5
:103F5000813061F41092B2068091B4068093BB0068
:103F60008091BC0083FDF8CF85EC01C085EE809385
:103F7000BC008091B5068130E1F380918D068417F5
:103F800010F440918D062EE836E0FB01D9018A2F0E
:103F9000821B841718F48D918193F9CF842F089593
:103FA00080E008950F93413208F04AC09091B50621
:103FB0009111FCCF32E03093B5060093B3063FEF8A
:103FC0003093480610928D0640938C06FB016EE8F4
:103FD00076E0DB013A2F361B341718F431913D930C
:103FE000F9CF1092B4063091B406880F832B8093DA
:103FF000B4068091B206813061F41092B2068091CD
:10400000B4068093BB008091BC0083FDF8CF85ECA3
:1040100001C085EE8093BC00222321F08091B5067B
:104020008230D1F3809148068F3F79F08091480625
:10403000803241F080914806803331F094E005C031
:1040400091E003C092E001C093E0892F0F910895A1
:1040500040916A06262F30E0240F311D21323105B0
:10406000DCF42091B5062430C9F4FC0180E090E036
:10407000861758F430916A062191DC01A459B94F92
:10408000A30FB11D2C930196F3CF80916A06680FA0
:1040900060936A0680E0089581E0089582E00895C3
:1040A00085ED8093BC008091BC0084FDFCCF109214
:1040B000B506089585EC8093BC001092B50608956E
:1040C0001F920F920FB60F9211242F933F934F938D
:1040D0005F936F937F938F939F93AF93BF93EF9370
:1040E000FF938091B900887F803609F49EC078F5EF
:1040F000883209F45DC090F4803109F456C038F478
:10410000882309F4F5C0883009F44FC0F5C0883120
:1041100009F44EC0803209F45FC0EEC0803409F467
:104120006AC058F4803309F457C0883309F0E4C0FA
:10413000809348060E945A20DFC0803509F44FC0A2
:10414000883509F45DC0883409F0D6C0D3C08839F9
:1041500009F4C4C0A8F4883709F467C038F4883675
:1041600009F463C0803709F460C0C6C0883809F418
:10417000B5C0803909F45FC0803809F0BDC05BC0AC
:10418000803B09F483C038F4803A09F466C0883A69
:1041900009F47CC0B1C0803C09F4A4C0883C09F497
:1041A000A1C0883B09F487C0A7C08091B40610C0A5
:1041B00090918D0680918C06981770F5E0918D0690
:1041C00081E08E0F80938D06F0E0E257F94F8081F9
:1041D0008093BB0085EC83C0809348068BC0E09140
:1041E0008D0681E08E0F80938D068091BB00F0E0FC
:1041F000E257F94F808390918D0680918C066BC0B9
:10420000E0918D0681E08E0F80938D068091BB003A
:10421000F0E0E257F94F80838091B30681116AC0C4
:1042200081E08093B20684EA5EC083E08093B506A5
:1042300010924906CFCF80914906803208F04EC0D7
:10424000E091490681E08E0F809349068091BB0082
:10425000F0E0E65BF94F8083BDCF0E945A20809149
:104260004906803230F4E0914906F0E0E65BF94F10
:1042700010826091490670E0E091AE06F091AF06C1
:104280008AE496E009951092490636C084E080934E
:10429000B50610926B0610926A06E091B006F09196
:1042A000B106099580916A06811105C081E080936D
:1042B0006A0610926C06E0916B0681E08E0F809387
:1042C0006B06F0E0E459F94F80818093BB00909138
:1042D0006B0680916A06981708F47CCF85E8809376
:1042E000BC000AC085EC8093BC001092B50604C0E7
:1042F000109248060E945020FF91EF91BF91AF911C
:104300009F918F917F916F915F914F913F912F91ED
:104310000F900FBE0F901F901895CF93DF9300D092
:1043200000D0CDB7DEB7611571058105910579F033
:104330009B01AC0169833A834B835C830E94FC2818
:1043400029813A814B815C810E94732C03C060E01B
:1043500070E0CB010F900F900F900F90DF91CF91F5
:104360000895CF92DF92EF92FF920F931F936217FF
:1043700073078407950784F489019A016B017C0116
:10438000C901B8016C197D098E099F090E948D2110
:104390006C0D7D1D8E1D9F1D1F910F91FF90EF9045
:1043A000DF90CF90089570E09B01382BC9010895EC
:1043B0000E9624E1FC0111922A95E9F70895CF9316
:1043C000DF93EC01625F7F4F0E949E0BCE01DF9175
:1043D000CF910895CF93DF93EC016E5E7F4F0E94E3
:1043E0009E0BCE01DF91CF910895CF93DF93EC0127
:1043F0006A5E7F4F0E949E0BCE01DF91CF910895A0
:10440000CF93DF93EC01625E7F4F0E949E0BCE0143
:10441000DF91CF91089580E3FB0180833296842F52
:1044200082958F7090E1899F401911244A3014F4CD
:10443000405D01C0495C4293482F8111F0CF08953F
:104440000F9300E020E040E060E086EB96E00E9401
:10445000920B0F9108957F928F929F92AF92BF928D
:10446000CF92DF92EF92FF920F931F93CF93DF9340
:10447000CDB7DEB7AC970FB6F894DEBF0FBECDBF99
:104480007C01762E942E852E20E2B22ECE0101964E
:104490006C01FC012B2D11922A95E9F70FEF2FEFFC
:1044A0004FEF6FEF86960E94920B8FEA93E09AA3EC
:1044B00089A389A59AA5ABA5BCA58BA39CA3ADA3F5
:1044C000BEA387010D5B1F4F43E450E0BE016F5D4B
:1044D0007F4FC8010E94750F019609F4BFC081E0AB
:1044E00089838A8386E0A82EAB821C82F7016481CF
:1044F0007581868197810E94922C6D837E838F8344
:10450000988789869A8680E890E09C878B874CE123
:1045100050E0B601C8010E94810FF6012B2D1192C7
:104520002A95E9F7470188E0880E911CF401D6012D
:1045300001900D92AA94E1F740E150E0B601C80164
:104540000E94810FF6011192BA94E9F796E0A92E24
:10455000B12C40E250E0B601C8010E94810FF1E0A9
:10456000AF1AB108B1F783E6898392E89A8393E59D
:104570009B838C8385E38D8381E08E837F829DE3A3
:10458000988797E099878A8786E0F401DE011B9679
:1045900001900D928A95E1F78CE0898B8A8B6BEE06
:1045A00073E0CE0143960E94F629F7014385BE01D0
:1045B000675E7F4FC7010E940B22F7014485BE0151
:1045C000655E7F4FC7010E940B22F7014585BE0142
:1045D000635E7F4FC7010E940B224EE150E0B6019F
:1045E000C8010E94810FF3E07F121EC082E389831D
:1045F00084E08A83F70196859B8397859C839089C5
:104600009D8391899E8396E39F838887828D898786
:10461000838D8A87848D8B87858D8C874CE050E0D5
:10462000B601C8010E94810F87E3898386E08A83EF
:1046300091E09B8393E09C838D838FE08E838AE35C
:104640008F838BE388878FEF898749E050E0B6013D
:10465000C8010E94810FC8010E947D0FAC960FB661
:10466000F894DEBF0FBECDBFDF91CF911F910F91A8
:10467000FF90EF90DF90CF90BF90AF909F908F9082
:104680007F9008952F923F924F925F926F927F9208
:104690008F929F92AF92BF92DF92EF92FF920F9311
:1046A0001F93CF93DF93CDB7DEB7E4970FB6F8949F
:1046B000DEBF0FBECDBF7C011A012B0139010E9464
:1046C000F5064B015C0187010D5B1F4FC8010E947D
:1046D000231018161906A4F00E94F506DC01CB0180
:1046E00088199909AA09BB09281639064A065B06E2
:1046F000F0F062E370E080E090E00E942607E6CFF1
:1047000042E250E0BE016F5F7F4FC8010E94BE0FC2
:104710008981823031F4F801848995898334910547
:1047200041F0D12CC8010E945F0F8D2D5FC18FEF2A
:104730005DC16D817E818F8198850E94922C4B0195
:104740005C01F301608371838283938346E050E0D0
:10475000B701685F7F4FCE014D960E94D729892B04
:1047600099F4F70180819181A281B381881699061D
:10477000AA06BB0648F084819581A681B781881579
:104780009905AA05BB0528F4C8010E945F0F80E0C7
:104790002DC189899A89AB89BC89F701868797875A
:1047A000A08BB18B8EECA82EB12CC8010E94950F66
:1047B000F1E0AF1AB108C9F7D12CC70182969AA7C8
:1047C00089A7F701B696FCA7EBA708969EA78DA729
:1047D0003C974F01899698AB8FA73897FAABE9AB16
:1047E0001701F6E12F0E311CC5979CAB8BABC801AE
:1047F0000E94450F181619060CF094CFC8010E94AC
:10480000950F8333910509F4CBC0FCF481309105F9
:10481000C9F11CF4892B59F3DDC083309105D1F126
:10482000069709F0D7C0C8010E94950F5C0144E0CB
:1048300050E06BA97CA9C8010E94BE0F412C512CED
:10484000BB24F4E0AF1AB10840C08A33910509F4E3
:104850007BC03CF48533910569F0C69709F440C0EC
:10486000B9C08B33910509F485C08F3F910509F4D8
:10487000BECFB0C0C8010E94950FC8010E94950F1D
:10488000D82EB5CFC8010E94950F44E050E069A929
:104890007AA93AC0C8010E94950F5C0144E050E03B
:1048A000B101C8010E94BE0F412C512CBB2494E0E1
:1048B000A91AB1084A145B040CF099CFC8010E94F0
:1048C000950FEFEF4E1A5E0AF5CF4A145B040CF019
:1048D0008ECFC8010E94950F8FEF481A580AF5CF66
:1048E000C8010E94950FB82EF701828D811110C06A
:1048F000838D81110DC0848D81110AC0858D811138
:1049000007C044E050E0B401C8010E94BE0F6FCF61
:10491000EFA5F8A94080518062807380B401CE0178
:1049200083960E949E0B8DA19EA1AFA1B8A5841570
:104930009505A605B70529F3BB2009F458CFC80192
:104940000E94950FBA94F8CFC8010E94950F44E0D9
:1049500050E06BA57CA5C8010E94BE0FF70166A1BF
:1049600077A180A591A50E94922C66A377A380A72A
:1049700091A73DCFC8010E94950F44E050E06DA57E
:104980007EA5C8010E94BE0FF70162A573A584A58C
:1049900095A50E94922C62A773A784A795A727CFFD
:1049A000C8010E94950F44E050E069A57AA5C801AE
:1049B0000E94BE0FF70162A173A184A195A10E947C
:1049C000922C62A373A384A395A366A777A780AB59
:1049D00091AB0DCFC8010E94950FB82EBB2009F4F2
:1049E00006CFC8010E94950FBA94F8CFE4960FB68F
:1049F000F894DEBF0FBECDBFDF91CF911F910F9115
:104A0000FF90EF90DF90BF90AF909F908F907F903E
:104A10006F905F904F903F902F9008952F923F920C
:104A20004F925F926F927F928F929F92AF92BF92BE
:104A3000CF92DF92EF92FF920F931F93CF93DF936A
:104A4000CDB7DEB727970FB6F894DEBF0FBECDBF48
:104A50008C0120ED37E040E050E061E070E080E064
:104A600090E00E94B121D80114966D937D938D93AF
:104A70009C931797F8016083718382839383580115
:104A8000F3E4AF0EB11CC5010E94600F64E470E056
:104A9000C5010E94F60F882309F43CC10E94F50667
:104AA0002B013C01812C912C1D82C8018E5B9F4FF4
:104AB0009F838E8343E0342E58EEC52E53E0D52ECF
:104AC000E12CF12C62E0262EAE81BF818C918330E7
:104AD00009F407C1811120C0F80184819581A68164
:104AE000B7810196A11DB11D84839583A683B783E9
:104AF0000E94F5066419750986099709A7019601B0
:104B00000E94512CA90161E0C8010E942B2281E082
:104B1000AE81BF818C93C6C08430F9F4F8018481E2
:104B20009581A681B7810196A11DB11D84839583CE
:104B3000A683B7830E94F50664197509860997094B
:104B4000A70196010E94512CA90163E0C8010E94AF
:104B50002B22AE81BF812C92A5C0813061F5F80176
:104B600042AD53AD64AD75AD9E012F5F3F4FC8019F
:104B70000E9442238D83823009F094C089819A81FA
:104B8000AB81BC81F80184839583A683B7830E949F
:104B9000F5066419750986099709A70196010E940F
:104BA000512CA90163E0C8010E942B22ED81AE8146
:104BB000BF81EC937EC0823009F074C0D801DA96D0
:104BC0004D915D916D917C91DD979E012F5F3F4FDF
:104BD000C8010E9442238D83853009F05CC0EE81BC
:104BE000FF813082F80182A193A1A4A1B5A1892BF4
:104BF0008A2B8B2B41F484E893E0A0E0B0E082A301
:104C000093A3A4A3B5A3F80186A197A1A0A5B1A5DC
:104C1000892B8A2B8B2B61F482A193A1A4A1B5A12E
:104C2000B695A7959795879586A397A3A0A7B1A7B3
:104C3000F80182A593A5A4A5B5A5892B8A2B8B2B5A
:104C4000A9F482A193A1A4A1B5A1AC01BD0123E067
:104C500076956795579547952A95D1F7841B950BBF
:104C6000A60BB70B82A793A7A4A7B5A7F80186A1A7
:104C700097A1A0A5B1A586A797A7A0ABB1AB82A528
:104C800093A5A4A5B5A582AB93ABA4ABB5AB882483
:104C90008394912C0EC0FD81F63021F4AE81BF814A
:104CA0001C9207C0BD81BF3F21F4EE81FF811082BD
:104CB0001D82F1E08F16910409F406CF0E94F506DB
:104CC000DC01CB0184199509A609B709F80126A9C9
:104CD00037A940AD51AD281739074A075B0708F0DF
:104CE000F3CEC5010E94600FF80184819581A681F1
:104CF000B7810196A11DB11D84839583A683B783D7
:104D00000E94F506F801FE96608371838283938387
:104D1000C40102C080E090E027960FB6F894DEBF91
:104D20000FBECDBFDF91CF911F910F91FF90EF90FC
:104D3000DF90CF90BF90AF909F908F907F906F90BB
:104D40005F904F903F902F900895CF92DF92EF9217
:104D5000FF920F931F93CF93DF93EC016B011AA285
:104D60001BA21CA21DA21EA21FA218A619A61AA64B
:104D70001BA61CA61DA62EAB3FAB48AF59AFEAAE93
:104D8000FBAE0CAF1DAF8C01085F1F4F86E0F80132
:104D900011928A95E9F7CE010E94D82186E0F601AA
:104DA000D80101900D928A95E1F7FE01EE5BFF4F6D
:104DB0001082CE01DF91CF911F910F91FF90EF9064
:104DC000DF90CF900C940E25CF92DF92EF92FF925E
:104DD0000F931F93CF93DF93EC010E94F5066B01B5
:104DE0007C018E01025C1F4FF80180819181A281BC
:104DF000B381A7019601281B390B4A0B5B0BCA0133
:104E0000B901683E33E073078105910508F441C09C
:104E100028EE33E040E050E00E94512CC61AD70A39
:104E2000E80AF90AF801C082D182E282F3828EA5F3
:104E30009FA5A8A9B9A969017A01CC0CDD1CEE1CBB
:104E4000FF1C8C159D05AE05BF0528F41EA61FA6E8
:104E500018AA19AA08C0821B930BA40BB50B8EA726
:104E60009FA7A8ABB9AB8AA99BA9ACA9BDA98C1572
:104E70009D05AE05BF0528F41AAA1BAA1CAA1DAAE7
:104E800008C0821B930BA40BB50B8AAB9BABACABDE
:104E9000BDAB8EA59FA5A8A9B9A9892B8A2B8B2B61
:104EA00069F4FE01EE5BFF4F8081833039F484E0CA
:104EB0008083CE010E940E25019602C080E090E022
:104EC0004AA95BA96CA97DA9452B462B472B81F4E8
:104ED000FE01EE5BFF4F2081233011F0211108C04D
:104EE0001082CE010E94D821CE010E940E25039689
:104EF000DF91CF911F910F91FF90EF90DF90CF90B6
:104F00000895CF93DF938230910510F482E090E012
:104F1000E091BE06F091BF0620E030E0C0E0D0E0B6
:104F2000309711F14081518148175907C0F0481757
:104F3000590761F482819381209719F09B838A83BA
:104F40002BC09093BF068093BE0626C02115310565
:104F500019F04217530718F49A01BE01DF01EF015F
:104F60000280F381E02DDCCF2115310509F1281BEA
:104F7000390B2430310590F412968D919C91139742
:104F80006115710521F0FB019383828304C0909326
:104F9000BF068093BE06FD01329644C0FD01E20FBC
:104FA000F31F81939193225031092D933C933AC082
:104FB0002091BC063091BD06232B41F420910201C3
:104FC000309103013093BD062093BC06209100016F
:104FD000309101012115310541F42DB73EB74091C3
:104FE000040150910501241B350BE091BC06F091A2
:104FF000BD06E217F307A0F42E1B3F0B2817390755
:1050000078F0AC014E5F5F4F2417350748F04E0F24
:105010005F1F5093BD064093BC068193919302C0DD
:10502000E0E0F0E0CF01DF91CF9108950F931F935F
:10503000CF93DF93009709F48CC0FC013297138261
:1050400012820091BE061091BF060115110581F470
:1050500020813181820F931F2091BC063091BD06C3
:105060002817390779F5F093BD06E093BC0671C0A7
:10507000D80140E050E0AE17BF0750F412962D91D2
:105080003C911397AD012115310509F1D901F3CFF9
:105090009D01DA013383228360817181860F971F1E
:1050A0008217930769F4EC0128813981260F371F95
:1050B0002E5F3F4F318320838A819B81938382833C
:1050C000452B29F4F093BF06E093BE0642C0139629
:1050D000FC93EE931297ED01499159919E01240F93
:1050E000351FE217F30771F480819181840F951FBA
:1050F000029611969C938E938281938113969C9332
:105100008E931297E0E0F0E0D80112968D919C9179
:105110001397009719F0F8018C01F6CF8D919C91AF
:1051200098012E5F3F4F820F931F2091BC06309154
:10513000BD062817390769F4309729F41092BF0685
:105140001092BE0602C0138212821093BD06009315
:10515000BC06DF91CF911F910F9108958F929F927E
:10516000AF92BF92CF92DF92EF92FF92CF93DF93F5
:10517000EC01688179818A819B81611571058105C6
:10518000910521F464E279ED8BE597E02DE133EFB1
:1051900041E050E00E94732C49015A019B01AC018F
:1051A000A7EAB1E40E94992C6B017C01ACEEB4EF4C
:1051B000A50194010E94A72CDC01CB018C0D9D1D43
:1051C000AE1DBF1DB7FF03C00197A109B04888837A
:1051D0009983AA83BB83BC01CD019F77DF91CF91D7
:1051E000FF90EF90DF90CF90BF90AF909F908F9007
:1051F00008950E94AE28089586E091E00E94AE28AE
:1052000008956093060170930701809308019093BD
:1052100009010895A0E0B0E0E0E1F9E20C94B02CBF
:10522000EC01009721F4CB010E948127B8C0FC015A
:10523000E60FF71F9C0122503109E217F30708F42B
:10524000ACC0D9010D911C91119706171707B0F04A
:105250000530110508F49FC0C80104978617970709
:1052600008F499C002501109061B170B0193119302
:105270006D937C93CF010E9416288DC05B01A01A0C
:10528000B10A4C01800E911EA091BE06B091BF06DE
:1052900040E050E0E12CF12C109709F44AC0A81529
:1052A000B905D1F56D907C901197630182E0C80E2D
:1052B000D11CCA14DB0480F1A3014A195B096A01FD
:1052C00082E0C80ED11C1296BC9012971396AC9136
:1052D000B5E0CB16D10440F0B282A3835183408362
:1052E000D9016D937C930AC00E5F1F4FC301800FDD
:1052F000911FF90191838083EB2DFA2FE114F104C2
:1053000031F0D7011396FC93EE93129744C0F093BB
:10531000BF06E093BE063FC08D919C911197481740
:10532000590708F4AC017D0112960D90BC91A02D97
:10533000B3CF8091BC069091BD0688159905E1F424
:1053400046175707C8F4809100019091010100971A
:1053500041F48DB79EB74091040150910501841B23
:10536000950BE817F907C8F4F093BD06E093BC0667
:10537000F901718360830FC0CB010E9481277C01FA
:10538000009759F0A801BE010E94E429CE010E94B5
:105390001628C70104C0CE0102C080E090E0CDB75E
:1053A000DEB7EEE00C94CC2CF8940C940E2DFB019F
:1053B000DC0104C08D910190801921F441505040CE
:1053C000C8F7881B990B0895FB01DC0102C001900E
:1053D0000D9241505040D8F70895FB01DC018D91AA
:1053E000019080190110D9F3990B0895FB01DC019C
:1053F00001900D920020E1F708954532510520F407
:10540000423010F00C94082AFB011082CB01089561
:10541000BB274A3031F4992322F4BDE2909581955F
:105420009F4F0C941F2A4532510520F4423010F052
:105430000C941E2AFB011082CB010895BB27FB01AF
:105440005527AA27880F991FAA1FA41710F0A41B7D
:1054500083955051B9F7A05DAA3308F0A95DA193D7
:10546000009779F7B111B1931192CB010C94412CB3
:105470005058BB27AA270E94502A0C949A2B0E94AE
:105480008C2B38F00E94932B20F039F49F3F19F4B5
:1054900026F40C94892B0EF4E095E7FB0C94832BF7
:1054A000E92F0E94AB2B58F3BA17620773078407E2
:1054B000950720F079F4A6F50C94CD2B0EF4E09529
:1054C0000B2EBA2FA02D0B01B90190010C01CA01BE
:1054D000A0011124FF27591B99F0593F50F4503E69
:1054E00068F11A16F040A22F232F342F4427585F5B
:1054F000F3CF469537952795A795F0405395C9F773
:105500007EF41F16BA0B620B730B840BBAF091502A
:10551000A1F0FF0FBB1F661F771F881FC2F70EC0C9
:10552000BA0F621F731F841F48F48795779567959C
:10553000B795F7959E3F08F0B0CF9395880F08F088
:105540009927EE0F9795879508950E94B92A0C9494
:105550009A2B0E94932B58F00E948C2B40F029F438
:105560005F3F29F00C94832B51110C94CE2B0C949B
:10557000892B0E94AB2B68F39923B1F3552391F348
:10558000951B550BBB27AA2762177307840738F0B2
:105590009F5F5F4F220F331F441FAA1FA9F335D00F
:1055A0000E2E3AF0E0E832D091505040E695001CC3
:1055B000CAF72BD0FE2F29D0660F771F881FBB1F7D
:1055C000261737074807AB07B0E809F0BB0B802D5B
:1055D000BF01FF2793585F4F3AF09E3F510578F087
:1055E0000C94832B0C94CE2B5F3FE4F3983ED4F3C2
:1055F000869577956795B795F7959F5FC9F7880F5B
:10560000911D9695879597F90895E1E0660F771FAC
:10561000881FBB1F621773078407BA0720F0621B3D
:10562000730B840BBA0BEE1F88F7E09508950E9468
:10563000B32B88F09F5798F0B92F9927B751B0F046
:10564000E1F0660F771F881F991F1AF0BA95C9F706
:1056500014C0B13091F00E94CD2BB1E008950C94AC
:10566000CD2B672F782F8827B85F39F0B93FCCF35F
:10567000869577956795B395D9F73EF49095809583
:10568000709561957F4F8F4F9F4F0895E89409C0A3
:1056900097FB3EF490958095709561957F4F8F4F65
:1056A0009F4F9923A9F0F92F96E9BB279395F6957B
:1056B000879577956795B795F111F8CFFAF4BB0FF9
:1056C00011F460FF1BC06F5F7F4F8F4F9F4F16C05D
:1056D000882311F096E911C0772321F09EE8872FE7
:1056E000762F05C0662371F096E8862F70E060E0A3
:1056F0002AF09A95660F771F881FDAF7880F96951C
:10570000879597F9089597F99F6780E870E060E0C2
:1057100008959FEF80EC089500240A94161617064A
:1057200018060906089500240A9412161306140692
:1057300005060895092E0394000C11F4882352F0F5
:10574000BB0F40F4BF2B11F460FF04C06F5F7F4FAD
:105750008F4F9F4F089557FD9058440F551F59F094
:105760005F3F71F04795880F97FB991F61F09F3F4E
:1057700079F087950895121613061406551FF2CF77
:105780004695F1DF08C0161617061806991FF1CFC7
:1057900086957105610508940895E894BB276627EE
:1057A0007727CB0197F908950E94E72B0C949A2B49
:1057B0000E948C2B38F00E94932B20F0952311F03F
:1057C0000C94832B0C94892B11240C94CE2B0E94C7
:1057D000AB2B70F3959FC1F3950F50E0551F629F5F
:1057E000F001729FBB27F00DB11D639FAA27F00D3A
:1057F000B11DAA1F649F6627B00DA11D661F829F61
:105800002227B00DA11D621F739FB00DA11D621F45
:10581000839FA00D611D221F749F3327A00D611D62
:10582000231F849F600D211D822F762F6A2F112444
:105830009F5750409AF0F1F088234AF0EE0FFF1F77
:10584000BB1F661F771F881F91505040A9F79E3FCE
:10585000510580F00C94832B0C94CE2B5F3FE4F326
:10586000983ED4F3869577956795B795F795E79524
:105870009F5FC1F7FE2B880F911D9695879597F92D
:105880000895DC01FC01672F71917723E1F73297CE
:1058900004C07C916D9370836291AE17BF07C8F30B
:1058A0000895A1E21A2EAA1BBB1BFD010DC0AA1F61
:1058B000BB1FEE1FFF1FA217B307E407F50720F079
:1058C000A21BB30BE40BF50B661F771F881F991FF4
:1058D0001A9469F760957095809590959B01AC013D
:1058E000BD01CF010895052E97FB1EF400940E9480
:1058F0008A2C57FD07D00E94512C07FC03D04EF490
:105900000C948A2C50954095309521953F4F4F4FE0
:105910005F4F089590958095709561957F4F8F4F5B
:105920009F4F089569279627692778278727782723
:1059300008950E94E92CA59F900DB49F900DA49FFF
:10594000800D911D11240895B7FF0C94992C0E948D
:10595000992C821B930B08952F923F924F925F9246
:105960006F927F928F929F92AF92BF92CF92DF926F
:10597000EF92FF920F931F93CF93DF93CDB7DEB7D4
:10598000CA1BDB0B0FB6F894DEBF0FBECDBF099468
:105990002A88398848885F846E847D848C849B84BF
:1059A000AA84B984C884DF80EE80FD800C811B81CD
:1059B000AA81B981CE0FD11D0FB6F894DEBF0FBEFC
:1059C000CDBFED010895EE0FFF1F0590F491E02D7E
:1059D0000994A29FB001B39FC001A39F700D811DC8
:1059E0001124911DB29F700D811D1124911D0895E8
:1059F000F999FECF92BD81BDF89A992780B5089597
:105A0000262FF999FECF1FBA92BD81BD20BD0FB6DA
:105A1000F894FA9AF99A0FBE0196089510E0C5E637
:105A2000D0E004C0FE010E94E32C2196C636D107C7
:065A3000C9F7F894FFCF56
:105A36000000C00620000100000007000600BA2290
:105A4600B922B82201005E00000052756E6E696EC2
:105A5600672053657475702E2E004661696C656407
:105A660020746F20636F6E66696775726520457472
:105A76006865726E6574207573696E672044484365
:105A8600502C2072657374617274696E6720736B33
:105A9600657463682E2E2E00436F6E666967757295
:105AA60065642049503A0052756E6E696E672053E0
:105AB600657475702E2E2E00436F6E74656E74734A
:105AC600206F66207468652073656E736F7241720D
:105AD6007261792E6D61633A00496E646976696414
