:100000000C94E3000C940B010C940B010C940B0169
:100010000C940B010C940B010C94DC100C940B0150
:100020000C940B010C940B010C940B010C940B0120
:100030000C940B010C940B010C940B010C940B0110
:100040000C94A0080C940B010C94620B0C94940B70
:100050000C940B010C940B010C940B010C940B01F0
:100060000C94B4220C940B01000000080002010063
:100070000003040700000000000000000102040863
:100080001020408001020408102001020408102002
:10009000040404040404040402020202020203032E
:1000A0000303030300000000250028002B000000CC
:1000B0000000240027002A0000407A10F35A00A014
:1000C000724E18090010A5D4E80000E87648170021
:1000D00000E40B54020000CA9A3B000000E1F50561
:1000E000000080969800000040420F000000A086AB
:1000F00001000000102700000000E80300000000DD
:100100006400000000000A00000000000100000080
:1001100000002C76D888DC674F0823DFC1DFAE599A
:10012000E1B1B796E5E3E453C63AE651997696E82D
:10013000E6C28426EB898C9B62ED407C6FFCEFBCB1
:100140009C9F40F2BAA56FA5F490055A2AF75C93DC
:100150006B6CF9676DC11BFCE0E40D47FEF520E612
:10016000B500D0ED902E0300943577050080841EF5
:10017000080000204E0A000000C80C333333330F50
:10018000986E12831141EF8D2114893BE65516CFED
:10019000FEE6DB18D1844B381BF77C1D901DA4BBF9
:1001A000E424203284725E228100C9F124ECA1E5AE
:1001B0003D270D01C40BAE0DD510D713871ADC1ADD
:1001C000BC2174246B0111241FBECFEFD8E0DEBF29
:1001D000CDBF14E0A0E0B1E0E4E4F4E602C0059095
:1001E0000D92A83BB107D9F727E0A8EBB4E001C016
:1001F0001D92AE38B207E1F710E0C2EED0E004C0C5
:100200002197FE010E94EA31C93DD107C9F70E943A
:10021000F20B0C94482C0C9400000F9300E020E0AB
:1002200040E060E08AE795E00E94870D01E021E070
:1002300041E06AE084E795E00E94870D89E595E05A
:100240000E945F138EE395E00E945F1383E295E0C6
:100250000E945F136AED71E08DEF94E00E94270E1B
:1002600083EF94E00E94CC1D82EF94E00E94421044
:1002700081EF94E00E94421080EF94E00E944210CF
:1002800088EE94E00E945B0FE8EBF4E014821582A4
:100290001682178280E090E0A6ECB2EC808791870E
:1002A000A287B38784879587A687B787808B918B32
:1002B000A28BB38B848B958BA68BB78B808F918F02
:1002C000A28FB38F148E158E168E178E10A211A2C8
:1002D00012A20F9108958DEF94E00C94B90D0F9335
:1002E0001F93CF93DF9300D000D000D0CDB7DEB7FF
:1002F0008C01409110015091110185E794E09A839F
:1003000089838091760590917705A0917805B091C9
:1003100079058B839C83AD83BE83BE016F5F7F4F66
:1003200083E295E00E94C711B80183E295E00E9444
:100330006B0A83E295E00E94CF1126960FB6F894DF
:10034000DEBF0FBECDBFDF91CF911F910F910895FA
:100350008F929F92AF92BF92CF92DF92EF92FF92D5
:100360000F931F93CF93DF9300D000D000D0CDB771
:10037000DEB760E47FE18CE296E00E9453110E94B8
:10038000EA084B015C010E94EA080E94E72D609395
:10039000E4047093E5048093E6049093E70426E078
:1003A00040E051EE60E070E089E895E00E94D60CF4
:1003B0006CE171E089E895E00E94900A60E082E0DB
:1003C0000E94F80961E082E00E94BC0960E082E0DE
:1003D0000E94F80960E088E00E94F80961E088E086
:1003E0000E94BC0960E088E00E94F80960E089E0B2
:1003F0000E94F80961E089E00E94BC0960E089E0A0
:100400000E94F80961E083E00E94F80961E083E05E
:100410000E94BC0961E083E00E94F80961E085E088
:100420000E94F80961E085E00E94BC0961E085E076
:100430000E94F80961E086E00E94F80961E086E028
:100440000E94BC0961E086E00E94F80961E087E053
:100450000E94F80961E087E00E94BC0961E087E042
:100460000E94F80961E084E00E94F80961E084E0FC
:100470000E94BC0961E084E00E94F8099DE1E92E38
:1004800095E0F92E67010091FB041091FC04C8016E
:100490000E94FF31D6018D936D010F5F1F4F1093A6
:1004A000FC040093FB04B3E2CB16B5E0DB0659F77E
:1004B000EDEDF4E0D7018D917D018193B3E2EB1670
:1004C000B5E0FB06B9F710EAE12E1FE0F12E00E0DF
:1004D00010E020E63AEE40E050E06DE175E086E4A1
:1004E00096E00E945D19892B61F46CE271E089E865
:1004F00095E00E94900A60E177E280E090E00E943F
:100500001B096AE671E089E895E00E94900A66E4BA
:1005100076E0CE0101960E945F1ABE016F5F7F4FA9
:1005200089E895E00E94A20A60911401709115017A
:1005300089E595E00E9448126091120170911301C3
:100540008EE395E00E9448126091100170911101B4
:1005500083E295E00E9448126CED75E080E090E047
:100560000E941B0969E771E0CE0101960E94270EE7
:10057000CE0101960E946F01CE0101960E94B90D35
:100580006AE871E0CE0101960E94270ECE01019625
:100590000E946F01CE0101960E94B90D4AE0609160
:1005A0002305CE0101960E94530ECE0101960E94B2
:1005B0006F01CE0101960E94B90D6BEA71E0CE0188
:1005C00001960E94270ECE0101960E946F01CE0176
:1005D00001960E94B90D4AE060911D05CE01019679
:1005E0000E94530ECE0101960E946F01CE0101962A
:1005F0000E94B90D4AE060911E05CE0101960E944D
:10060000530ECE0101960E946F01CE0101960E9409
:10061000B90D4AE060911F05CE0101960E94530E6C
:10062000CE0101960E946F01CE0101960E94B90D84
:100630004AE060912005CE0101960E94530ECE0142
:1006400001960E946F01CE0101960E94B90D4AE009
:1006500060912105CE0101960E94530ECE010196B4
:100660000E946F01CE0101960E94B90D4AE060918F
:100670002205CE0101960E94530ECE0101960E94E2
:100680006F01CE0101960E94B90D80910E019091EB
:100690000F010E94FF31682F70E080E090E00E941F
:1006A000E72D6093B8047093B9048093BA049093D3
:1006B000BB046EEB71E089E895E00E94790A6EEB6D
:1006C00071E0CE0101960E94270ECE0101960E9494
:1006D0006F01CE0101960E94B90D00E010E06FECB1
:1006E00071E089E895E00E94790A4AE050E0B8019B
:1006F00089E895E00E94470B69ED71E089E895E093
:100700000E94790A6BED71E089E895E00E94790A10
:10071000C8010E94FF314AE050E0682F89E895E067
:100720000E945B0B69ED71E089E895E00E94790A0F
:100730006FEC71E0CE0101960E94270ECE0101966A
:100740000E946F01CE0101960E94B90D4AE0B801E6
:10075000CE0101960E94800ECE0101960E946F018B
:10076000CE0101960E94B90D6BED71E0CE010196AC
:100770000E94270ECE0101960E946F01CE010196C4
:100780000E94B90DC8010E94FF314AE0682FCE01D6
:1007900001960E94530ECE0101960E946F01CE0178
:1007A00001960E94B90D0F5F1F4F0830110509F027
:1007B00096CF4FEF6EE383EF94E00E94862088236C
:1007C00009F4F9C062EE71E089E895E00E94900AB0
:1007D00062EE71E0CE0101960E94270ECE010196D5
:1007E0000E946F01CE0101960E94B90D40E060E0C9
:1007F00083EF94E00E94232040E060E083EF94E0E8
:100800000E942E1F40E061E083EF94E00E942320CD
:1008100040E061E083EF94E00E942E1F40E062E040
:1008200083EF94E00E94232040E062E083EF94E0B5
:100830000E942E1F40E063E083EF94E00E9423209B
:1008400040E063E083EF94E00E942E1F40E064E00C
:1008500083EF94E00E94232040E064E083EF94E083
:100860000E942E1F40E065E083EF94E00E94232069
:1008700040E065E083EF94E00E942E1F40E066E0D8
:1008800083EF94E00E94232040E066E083EF94E051
:100890000E942E1F40E067E083EF94E00E94232037
:1008A00040E067E083EF94E00E942E1F40E068E0A4
:1008B00083EF94E00E94232040E068E083EF94E01F
:1008C0000E942E1F40E069E083EF94E00E94232005
:1008D00040E069E083EF94E00E942E1F40E06AE070
:1008E00083EF94E00E94232040E06AE083EF94E0ED
:1008F0000E942E1F40E06BE083EF94E00E942320D3
:1009000040E06BE083EF94E00E942E1F41E06CE03A
:1009100083EF94E00E94232041E06DE083EF94E0B8
:100920000E94232041E06EE083EF94E00E942320A8
:1009300041E06FE083EF94E00E94232000E010E0AC
:10094000602F83EF94E00E94551F002E01C0880F96
:100950000A94EAF72091DB04822B8093DB040F5F7B
:100960001F4F0830110561F708E010E0602F83EF9A
:1009700094E00E94551F002E01C0880F0A94EAF7E8
:100980002091DC04822B8093DC040F5F1F4F0F301B
:10099000110561F76091DB0480910C0190910D01CC
:1009A0000E9407326091DC0480910A0190910B0152
:1009B0000E94073214C069EF71E089E895E00E9457
:1009C000900A69EF71E0CE0101960E94270ECE01D8
:1009D00001960E946F01CE0101960E94B90D0E94FE
:1009E000EA086B017C0163E172E0CE0101960E948E
:1009F000270ECE0101960E946F01CE0101960E9442
:100A0000B90DB601681979094AE0CE0101960E9434
:100A1000AC0ECE0101960E946F01CE0101960E949C
:100A2000B90D26960FB6F894DEBF0FBECDBFDF918D
:100A3000CF911F910F91FF90EF90DF90CF90BF90DB
:100A4000AF909F908F900895CF93DF9300D000D008
:100A500000D0CDB7DEB769E272E089E895E00E9488
:100A6000900A69E272E0CE0101960E94270ECE0143
:100A700001960E946F01CE0101960E94B90D64EFAC
:100A800071E080E090E00E941B0960E084E00E9439
:100A9000F80926960FB6F894DEBF0FBECDBFDF91E2
:100AA000CF910895CF93DF93CDB7DEB72C970FB6D4
:100AB000F894DEBF0FBECDBF48E150E063E075E0C3
:100AC00089E595E00E94101263E075E0CE0107967B
:100AD0000E94270E60E472E0CE0107960E94350F57
:100AE0008823C9F065E472E089E895E00E94900AE5
:100AF00065E472E0CE0101960E94270ECE010196B8
:100B00000E946F01CE0101960E94B90D8CE296E021
:100B10000E94E61028C166E572E0CE0107960E94A9
:100B2000350F882341F061E082E00E94F80981E0FE
:100B30008093D40418C163E672E0CE0107960E9448
:100B4000350F882339F060E082E00E94F8091092A6
:100B5000D40409C161E772E0CE0107960E94350F07
:100B6000882371F06DE772E089E895E00E94900AB1
:100B700060E083E00E94F80981E08093D704F3C02D
:100B800069E872E0CE0107960E94350F882369F06C
:100B900066E972E089E895E00E94900A61E083E0EE
:100BA0000E94F8091092D704DEC063EA72E0CE0119
:100BB00007960E94350F882371F06FEA72E089E88A
:100BC00095E00E94900A60E085E00E94F80981E0CB
:100BD0008093D804C8C06BEB72E0CE0107960E94E8
:100BE000350F882369F068EC72E089E895E00E948F
:100BF000900A61E085E00E94F8091092D804B3C021
:100C000065ED72E0CE0107960E94350F882371F0E2
:100C100061EE72E089E895E00E94900A60E086E06B
:100C20000E94F80981E08093D9049DC06DEE72E0C6
:100C3000CE0107960E94350F882369F06AEF72E0B3
:100C400089E895E00E94900A61E086E00E94F80938
:100C50001092D90488C067E073E0CE0107960E9425
:100C6000350F882371F063E173E089E895E00E9415
:100C7000900A60E087E00E94F80981E08093DA043E
:100C800072C06FE173E0CE0107960E94350F882392
:100C900069F06CE273E089E895E00E94900A61E0F7
:100CA00087E00E94F8091092DA045DC069E373E0FE
:100CB000CE0107960E94350F882341F061E088E05D
:100CC0000E94F80981E08093D5044DC060E473E090
:100CD000CE0107960E94350F882339F060E088E046
:100CE0000E94F8091092D5043EC068E473E0CE017A
:100CF00007960E94350F882371F06FE473E089E84E
:100D000095E00E94900A61E089E00E94F80981E084
:100D10008093D60428C066E573E0CE0107960E9452
:100D2000350F882339F060E089E00E94F8091092BD
:100D3000D60419C06EE573E0CE0107960E94350F08
:100D4000882319F00E9424050EC064E673E0CE01EA
:100D500001960E94270ECE0101960E946F01CE01DE
:100D600001960E94B90D88E1E3E0F5E0DF011D92F4
:100D70008A95E9F7CE0107960E94B90D2C960FB619
:100D8000F894DEBF0FBECDBFDF91CF9108958F9253
:100D90009F92AF92BF92CF92DF92EF92FF92CF934A
:100DA000DF9300D000D000D0CDB7DEB70E94EA08B4
:100DB0004B015C016BE182EF94E00E949610882366
:100DC00069F082EF94E00E94B8106093C0047093C1
:100DD000C1048093C2049093C30420C06FE773E002
:100DE00089E895E00E94900A6FE773E0CE010196D2
:100DF0000E94270ECE0101960E946F01CE0101963E
:100E00000E94B90D80E090E0A6ECB2EC8093C004A3
:100E10009093C104A093C204B093C3046AE181EF2C
:100E200094E00E949610882369F081EF94E00E947C
:100E3000B8106093C4047093C5048093C604909363
:100E4000C70420C065E973E089E895E00E94900A34
:100E500065E973E0CE0101960E94270ECE0101964E
:100E60000E946F01CE0101960E94B90D80E090E0D2
:100E7000A6ECB2EC8093C4049093C504A093C6047E
:100E8000B093C70468E180EF94E00E949610882335
:100E900069F080EF94E00E94B8106093C8047093EA
:100EA000C9048093CA049093CB0420C06BEA73E01A
:100EB00089E895E00E94900A6BEA73E0CE01019602
:100EC0000E94270ECE0101960E946F01CE0101966D
:100ED0000E94B90D80E090E0A6ECB2EC8093C804CB
:100EE0009093C904A093CA04B093CB0488EE94E015
:100EF0000E94720F8823C9F088EE94E00E94A00F30
:100F00006093CC047093CD048093CE049093CF046F
:100F100088EE94E00E94F10F6093D0047093D104A6
:100F20008093D2049093D30428C061EC73E089E8E5
:100F300095E00E94900A61EC73E0CE0101960E9458
:100F4000270ECE0101960E946F01CE0101960E94EC
:100F5000B90D80E090E0A6ECB2EC8093CC049093C5
:100F6000CD04A093CE04B093CF048093D00490938B
:100F7000D104A093D204B093D3040E94EA080E9443
:100F8000E72D2091E4043091E5044091E60450916E
:100F9000E7040E94D92C20E030E04AE754E40E94A4
:100FA000462D6093BC047093BD048093BE0490935F
:100FB000BF0464ED73E0CE0101960E94270ECE01BE
:100FC00001960E946F01CE0101960E94B90D4091D9
:100FD000BC045091BD046091BE047091BF0422E036
:100FE000CE0101960E94050FCE0101960E946F016D
:100FF000CE0101960E94B90D60E074E0CE01019629
:101000000E94270ECE0101960E946F01CE0101962B
:101010000E94B90D0E94EA08AB01BC012AE0CE0192
:1010200001960E94D80ECE0101960E946F01CE015A
:1010300001960E94B90D409112015091130185E76C
:1010400094E09A8389838091760590917705A091A9
:101050007805B09179058B839C83AD83BE83BE01F7
:101060006F5F7F4F8EE395E00E94C7114CE250E026
:1010700068EB74E08EE395E00E94D3118EE395E077
:101080000E94CF116FE274E089E895E00E94900A17
:101090006FE274E0CE0101960E94270ECE01019608
:1010A0000E946F01CE0101960E94B90D89E595E07D
:1010B0000E94751290931C0580931B051816190643
:1010C00014F40E94520586E496E00E94FA190E94E8
:1010D000EA086B017C0162E474E0CE0101960E9493
:1010E000270ECE0101960E946F01CE0101960E944B
:1010F000B90DB601681979094AE0CE0101960E943E
:10110000AC0ECE0101960E946F01CE0101960E94A5
:10111000B90D60ED77E080E090E00E941B09269613
:101120000FB6F894DEBF0FBECDBFDF91CF91FF9019
:10113000EF90DF90CF90BF90AF909F908F900895E9
:101140001F920F920FB60F9211242F933F938F93FC
:101150009F93AF93BF938091810590918205A09159
:101160008305B09184053091800523E0230F2D374E
:1011700020F40196A11DB11D05C026E8230F02969B
:10118000A11DB11D20938005809381059093820558
:10119000A0938305B0938405809185059091860581
:1011A000A0918705B09188050196A11DB11D80937E
:1011B000850590938605A0938705B0938805BF9118
:1011C000AF919F918F913F912F910F900FBE0F90F4
:1011D0001F9018952FB7F894609181057091820542
:1011E00080918305909184052FBF08953FB7F894AF
:1011F0008091850590918605A0918705B09188051D
:1012000026B5A89B05C02F3F19F00196A11DB11D61
:101210003FBFBA2FA92F982F8827820F911DA11D9C
:10122000B11DBC01CD0142E0660F771F881F991FD9
:101230004A95D1F708958F929F92AF92BF92CF9225
:10124000DF92EF92FF926B017C010E94F6084B0146
:101250005C01C114D104E104F10401F10E9492097E
:101260000E94F608DC01CB0188199909AA09BB097B
:10127000883E9340A105B10560F321E0C21AD10870
:10128000E108F10888EE880E83E0981EA11CB11CCD
:10129000C114D104E104F10419F7DBCFFF90EF9002
:1012A000DF90CF90BF90AF909F908F9008957894EB
:1012B00084B5826084BD84B5816084BD85B582605B
:1012C00085BD85B5816085BDEEE6F0E080818160F9
:1012D0008083E1E8F0E010828081826080838081F9
:1012E00081608083E0E8F0E0808181608083E1EBD1
:1012F000F0E0808184608083E0EBF0E080818160B9
:101300008083EAE7F0E0808184608083808182606E
:101310008083808181608083808180688083109257
:10132000C10008950895833081F028F4813099F048
:101330008230A1F008958730A9F08830B9F0843068
:10134000D1F4809180008F7D03C0809180008F77E1
:1013500080938000089584B58F7702C084B58F7D17
:1013600084BD08958091B0008F7703C08091B00054
:101370008F7D8093B0000895CF93DF9390E0FC01C0
:10138000E458FF4F2491FC01E057FF4F84918823DC
:1013900061F190E0880F991FFC01E255FF4FC59164
:1013A000D491FC01EC55FF4FA591B491611109C096
:1013B0009FB7F8948881209582238883EC912E230F
:1013C0000BC0623061F49FB7F8943881822F80950A
:1013D00083238883EC912E2B2C939FBF06C08FB75D
:1013E000F894E8812E2B28838FBFDF91CF91089549
:1013F0001F93CF93DF93282F30E0F901E859FF4F77
:101400008491F901E458FF4FD491F901E057FF4F5F
:10141000C491CC23C9F0162F81110E949309EC2F9F
:10142000F0E0EE0FFF1FEC55FF4FA591B4918FB781
:10143000F894111105C09C91ED2FE095E92302C0AD
:10144000EC91ED2BEC938FBFDF91CF911F9108951D
:1014500080E090E00895CF92DF92EF92FF920F9399
:101460001F93CF93DF936C017A018B01C0E0D0E032
:10147000CE15DF0589F0D8016D918D01D601ED9172
:10148000FC910190F081E02DC6010995892B11F4A2
:101490007E0102C02196ECCFC701DF91CF911F9151
:1014A0000F91FF90EF90DF90CF9008956115710537
:1014B00079F0FB0101900020E9F73197AF01461B5D
:1014C000570BDC01ED91FC910280F381E02D099432
:1014D00080E090E00895DC01ED91FC91DB01149631
:1014E0004D915C9115976D917C910280F381E02D77
:1014F00009940C94560ADC01ED91FC910190F08165
:10150000E02D0994DB01ED91FC9111970190F081A0
:10151000E02DBC01CD01099460E574E00C94560AFD
:101520000F931F93CF93DF93EC010E94560A8C0117
:10153000CE010E948C0A800F911FDF91CF911F91E5
:101540000F9108950F931F93CF93DF93EC010E94A7
:10155000820A8C01CE010E948C0A800F911FDF91BC
:10156000CF911F910F9108954F925F926F927F924A
:10157000EF92FF920F931F93CF93DF93CDB7DEB718
:10158000A1970FB6F894DEBF0FBECDBF7C01FA0164
:10159000CB0119A2223008F42AE08E010F5D1F4F03
:1015A000422E512C612C712CBF01A30192010E948B
:1015B0005831F901CA01015011096A3014F4605D13
:1015C00001C0695CD8016C93232B242B252B61F778
:1015D000B801C7010E94560AA1960FB6F894DEBF63
:1015E0000FBECDBFDF91CF911F910F91FF90EF9074
:1015F0007F906F905F904F900895CF92DF92EF921F
:10160000FF920F931F93CF93DF93EC016A017B014D
:101610002115310579F4E881F9810190F081E02DFF
:10162000642FDF91CF911F910F91FF90EF90DF908A
:10163000CF9009942A303105E9F477FF1AC06DE2A2
:101640000E947B0A8C0144275527BA014C195D0979
:101650006E097F092AE0CE010E94B40A800F911F13
:10166000DF91CF911F910F91FF90EF90DF90CF907E
:1016700008952AE0B701A601CE01DF91CF911F9115
:101680000F91FF90EF90DF90CF900C94B40A9A01E5
:10169000AB01770F660B770B0C94FD0A2115310512
:1016A00041F4DC01ED91FC910190F081E02D642F7B
:1016B00009940C94B40A9A01462F50E060E070E05F
:1016C0000C944E0B1F920F920FB60F9211242F9372
:1016D0008F939F93EF93FF93E0919905F0919A0573
:1016E0008081E0919F05F091A00582FD12C090815C
:1016F0008091A2058F5F8F732091A305821751F00F
:10170000E091A205F0E0E757FA4F958F8093A2058C
:1017100001C08081FF91EF919F918F912F910F9048
:101720000FBE0F901F9018951F920F920FB60F9239
:1017300011242F933F934F935F936F937F938F93D6
:101740009F93AF93BF93EF93FF9389E895E00E9437
:101750004C0CFF91EF91BF91AF919F918F917F9131
:101760006F915F914F913F912F910F900FBE0F900E
:101770001F90189589E895E00E94010C21E0892BC3
:1017800009F420E0822F0895E9E8F5E0138212823F
:1017900088EE93E0A0E0B0E084839583A683B783CE
:1017A00083E694E09183808385EC90E0958784873D
:1017B00084EC90E09787868780EC90E0918B808B1B
:1017C00081EC90E0938B828B82EC90E0958B848B04
:1017D00086EC90E0978B868B118E128E138E148E72
:1017E000089508950E9457090E94F10B0E94A801D4
:1017F000CEE3DCE00E94C7062097E1F30E943E0C96
:10180000F9CFFC01918D228D892F90E0805C9F4F54
:10181000821B91098F7399270895FC01918D828D08
:10182000981731F0828DE80FF11D858D90E00895B5
:101830008FEF9FEF0895FC01918D828D981761F0D5
:10184000828DDF01A80FB11D5D968C91928D9F5FF7
:101850009F73928F90E008958FEF9FEF0895FC01A2
:10186000538D448D252F30E0842F90E0821B930B05
:10187000541710F0CF960895019708958AEB9BE0D6
:10188000892B49F080E090E0892B29F00E94BA0B67
:1018900081110C9400000895FC01848DDF01A80FD4
:1018A000B11DA35ABF4F2C91848D90E001968F7388
:1018B0009927848FA689B7892C93A089B1898C91A7
:1018C00080648C93938D848D981306C00288F3896D
:1018D000E02D80818F7D80830895CF93DF93EC018D
:1018E000888D8823C9F0EA89FB89808185FD05C040
:1018F000A889B9898C9186FD0FC00FB607FCF5CF7A
:10190000808185FFF2CFA889B9898C9185FFEDCFC1
:10191000CE010E944C0CE7CFDF91CF910895EF925A
:10192000FF920F931F93CF93DF93EC0181E0888F99
:101930009B8D8C8D981305C0E889F989808185FD80
:1019400024C0F62E0B8D10E00F5F1F4F0F73112771
:10195000E02E8C8DE8120CC00FB607FCFACFE88998
:10196000F989808185FFF5CFCE010E944C0CF1CF23
:101970008B8DFE01E80FF11DE35AFF4FF0820B8FB4
:10198000EA89FB898081806207C0EE89FF896083D4
:10199000E889F98980818064808381E090E0DF912B
:1019A000CF911F910F91FF90EF900895CF92DF920A
:1019B000EF92FF921F93CF93DF93EC016A017B01BB
:1019C000122FE889F98982E080834115514E610523
:1019D0007105B1F060E079E08DE390E0A701960138
:1019E0000E945831DA01C9010197A109B109B695E0
:1019F000A79597958795AC01411580E15807A8F008
:101A0000E889F989108260E874E88EE190E0A70126
:101A100096010E945831BA01A9014150510961094A
:101A200071097695679557954795EC85FD855083A7
:101A3000EE85FF854083188EEC89FD891083EA8945
:101A4000FB89808180618083EA89FB89808188604D
:101A50008083EA89FB89808180688083EA89FB89A9
:101A600080818F7D8083DF91CF911F91FF90EF90D8
:101A7000DF90CF9008958F929F92AF92BF92CF92B6
:101A8000DF92EF92FF920F931F93CF93DF937C012E
:101A90008B016C0182E0C80ED11C4701E5E08E0E7F
:101AA000911CC0E0D0E0F60161916F014AE050E086
:101AB000C8010E945B0B5C016EE2C8010E947B0AB8
:101AC0008A0D9B1DC80FD91FC814D90461F74AE0BD
:101AD00050E0F7016581C8010E945B0B8C0F9D1FD0
:101AE000DF91CF911F910F91FF90EF90DF90CF90FA
:101AF000BF90AF909F908F90089525E734E0FC0150
:101B000031832083128213821482158208950F93E9
:101B1000FC0185E794E0918380836283438324837F
:101B200005830F91089525E734E0FC01318320837C
:101B3000FB014081518162817381FC0142835383A7
:101B4000648375830895FB014081518162817381B3
:101B5000FC0142835383648375830895E6E2F6E0D3
:101B600085E794E091838083128213821482158228
:101B70000895FC01808191810C948A2ACF93DF9390
:101B8000EC0188819981009711F00E948A2A1982BC
:101B900018821D821C821B821A82DF91CF910895C8
:101BA0000F931F93CF93DF93EC018B016F5F7F4FF8
:101BB000888199810E947E2B009731F099838883D8
:101BC0001B830A8381E001C080E0DF91CF911F91E8
:101BD0000F910895CF93DF93EC0188819981892B30
:101BE00029F08A819B818617970760F4CE010E94B5
:101BF000D00D882341F08C819D81892B19F4E881D7
:101C0000F981108281E0DF91CF910895EF92FF92E8
:101C10000F931F93CF93DF93EC017B018A01BA01ED
:101C20000E94EA0D811104C0CE010E94BE0D07C0C2
:101C30001D830C83B701888199810E946A2CCE0193
:101C4000DF91CF911F910F91FF90EF900895FC01CC
:101C5000118210821382128215821482611571051D
:101C600051F0FB0101900020E9F73197AF01461BCD
:101C7000570B0C94060E0895CF93DF93EC0161157A
:101C8000710559F0FB0101900020E9F73197AF0190
:101C9000461B570B0E94060E02C00E94BE0DCE01CD
:101CA000DF91CF9108950F931F93CF93DF93CDB71B
:101CB000DEB729970FB6F894DEBF0FBECDBF8C01FB
:101CC000862FF801118210821382128215821482EB
:101CD00050E0BE016F5F7F4F90E00E94B42CBE01C8
:101CE0006F5F7F4FC8010E943C0E29960FB6F89493
:101CF000DEBF0FBECDBFDF91CF911F910F91089531
:101D00000F931F93CF93DF93CDB7DEB762970FB6D4
:101D1000F894DEBF0FBECDBF8C01CB01F80111825C
:101D20001082138212821582148250E0BE016F5F0E
:101D30007F4F0E94712CBE016F5F7F4FC8010E94D0
:101D40003C0E62960FB6F894DEBF0FBECDBFDF919A
:101D5000CF911F910F9108950F931F93CF93DF930E
:101D6000CDB7DEB761970FB6F894DEBF0FBECDBF1B
:101D70008C01CB01F801118210821382128215822C
:101D8000148250E0BE016F5F7F4F0E94B42CBE01F1
:101D90006F5F7F4FC8010E943C0E61960FB6F894AA
:101DA000DEBF0FBECDBFDF91CF911F910F91089580
:101DB0000F931F93CF93DF93CDB7DEB7A1970FB6E5
:101DC000F894DEBF0FBECDBF8C01CB01BA01F80184
:101DD00011821082138212821582148230E0AE01C9
:101DE0004F5F5F4F0E94872CBE016F5F7F4FC8011E
:101DF0000E943C0EA1960FB6F894DEBF0FBECDBF79
:101E0000DF91CF911F910F910895EF92FF920F9361
:101E10001F93CF93DF93CDB7DEB7A1970FB6F8949A
:101E2000DEBF0FBECDBF7C01CB01BA01F70111822D
:101E30001082138212821582148242E0420F8E01B8
:101E40000F5F1F4F0E94D529BC01C7010E943C0EA5
:101E5000A1960FB6F894DEBF0FBECDBFDF91CF9134
:101E60001F910F91FF90EF900895FC01248135811F
:101E7000232B31F421E061157105A1F0FB0108C0AD
:101E8000FC01808191816115710531F421E0FC0133
:101E90008081882339F005C00E94612C21E0892BC4
:101EA00009F020E0822F0895DC01ED91FC91019072
:101EB000F081E02D0994089560E470E084EC96E0F0
:101EC0000E943A216EEF70E084EC96E00E94540F7D
:101ED00084EC96E00E94B9216FE070E080E090E031
:101EE0000C941B09CF93DF93EC0184EC96E00E94E5
:101EF0002621CE010E945C0F60E470E084EC96E045
:101F00000E943A2167EE70E084EC96E00E94540F44
:101F100084EC96E00E94B92141E050E060E470E07A
:101F200084EC96E00E94B62184EC96E00E94932017
:101F300021E0029709F020E0822FDF91CF910895F0
:101F4000CF93DF9360E470E084EC96E00E943A2146
:101F500063EE70E084EC96E00E94540F84EC96E00F
:101F60000E94B92162E370E080E090E00E941B09CA
:101F700043E050E060E470E084EC96E00E94B6211B
:101F800084EC96E00E948B20892BD1F384EC96E0C0
:101F90000E949320D82F80E0C82F84EC96E00E9406
:101FA0009320C82BD92B84EC96E00E949320BE018D
:101FB00080E090E00E94E72D22E538EB4FE253E409
:101FC0000E94752E20E030E040E857E30E94752E15
:101FD00026E636E64BE352E40E94D92CDF91CF91FE
:101FE0000895CF93DF9360E470E084EC96E00E9464
:101FF0003A2165EE70E084EC96E00E94540F84EC88
:1020000096E00E94B92162E370E080E090E00E94D7
:102010001B0943E050E060E470E084EC96E00E942D
:10202000B62184EC96E00E948B20892BD1F384ECBE
:1020300096E00E949320D82F80E0C82F84EC96E091
:102040000E949320C82BD92B84EC96E00E94932009
:10205000BE0180E090E00E94E72D20E030E04AEFF2
:1020600052E40E94752E20E030E040E857E30E94E1
:10207000752E20E030E040EC50E40E94D92CDF9136
:10208000CF91089508951F93CF93DF9300D0CDB7DC
:10209000DEB7162FFC01608184EC96E04A835983F9
:1020A0000E943021612F84EC96E00E94E720598144
:1020B000652F84EC96E00E94E7204A81642F84EC2F
:1020C00096E00E94E72084EC96E00F900F90DF915D
:1020D000CF911F910C94B9211F93CF93DF93EC0103
:1020E000162F688184EC96E00E943021612F84ECE9
:1020F00096E00E94E72084EC96E00E94B92142E03D
:10210000688184EC96E00E94B32184EC96E00E9402
:102110009320D82F80E0C82F84EC96E00E94932073
:102120008C2B9D2BDF91CF911F910895CF93DF933F
:10213000EC01688384EC96E00E94262166E0CE01E3
:102140000E946C108435910511F080E00EC067E0AC
:10215000CE010E946C1081159440B9F740E050E028
:1021600061E0CE010E94431081E0DF91CF9108959C
:10217000CF93DF9365E00E946C10EC01BC017F708F
:1021800080E090E00E94E72D20E030E040E85DE351
:102190000E94752ED4FF06C020E030E040E853E4F2
:1021A0000E94D92CDF91CF9108958FEF9FEF9093EC
:1021B0002D0680932C0608951F920F920FB60F9252
:1021C00011240F900FBE0F901F901895A895089599
:1021D000DA01F90160348FE178071CF461157105AB
:1021E00039F489E090E08D939C9380E49FE158C09E
:1021F000603A8FE078073CF088E090E08D939C9304
:1022000080EA9FE04DC0603D87E078073CF087E0C2
:1022100090E08D939C9380ED97E042C0683E83E010
:1022200078073CF086E090E08D939C9388EE93E0F5
:1022300037C0643F81E078073CF085E090E08D9303
:102240009C9384EF91E02CC06A3F71053CF084E0E0
:1022500090E08D939C938AEF90E022C068377105DF
:102260003CF083E090E08D939C9388E790E018C069
:102270006C3371053CF082E090E08D939C938CE38D
:1022800090E00EC06E3171053CF081E090E08D93DE
:102290009C938EE190E004C01D921C928FE090E030
:1022A0009183808308950F931F93CF93DF9300D082
:1022B000CDB7DEB78C019E012F5F3F4FAC010E946E
:1022C000E810F801808183FD02C098E001C098E227
:1022D0008770892B98E10FB6F894A89590936000C9
:1022E0000FBE8093600089819A810F900F90DF91DB
:1022F000CF911F910F910895DC01ED91FC91048C19
:10230000F58DE02D099425E734E0FC01318320832D
:10231000FB014089518962897389FC01428353839F
:10232000648375830895FC01848995890895FC016F
:10233000818D928D0895CF93DF931F92CDB7DEB735
:102340006983DC01ED91FC910280F381E02D41E095
:1023500050E0BE016F5F7F4F09950F90DF91CF91E5
:1023600008950895CF93DF93EC01888D843061F058
:102370000E943217E88DF0E0EE0FFF1FE455F94F91
:102380001182108284E0888FDF91CF910895FC0143
:10239000178A168A6E5F7F4F808D0C94B018FC01EF
:1023A000808D0C94F618CF93DF93EC019A018E89FF
:1023B0009F89AB01BC01888D0E9469182E893F89D5
:1023C000280F391F3F8B2E8BDF91CF9108950F93EC
:1023D0001F93CF93DF931F92CDB7DEB7FC01218D02
:1023E000328D232B61F08C0141E050E0BE016F5F24
:1023F0007F4F808D0E94AF17181619061CF08FEFC3
:102400009FEF08C0F801818D928D0197928F818F87
:10241000898190E00F90DF91CF911F910F910895E6
:10242000CF93DF93FC01218D328D2115310519F4F5
:102430008FEF9FEF11C0EC014217530708F0A9017D
:10244000888D0E94AF171816190694F7298D3A8DBA
:10245000281B390B3A8F298FDF91CF910895CF93A5
:10246000DF931F92CDB7DEB7FC01218D328D232B78
:1024700049F0BE016F5F7F4F808D0E943A188981BD
:1024800090E002C08FEF9FEF0F90DF91CF91089502
:10249000EF92FF921F93CF93DF93FC01208D2430A6
:1024A00011F080E01CC07B01EC0110E0812F0E9444
:1024B0000A17811102C0188F05C08831E1F31F5F30
:1024C0001430A1F7888D843061F3FD86EC861A8E76
:1024D000198E20E0A70162E00E945C1781E0DF9185
:1024E000CF911F91FF90EF9008950F931F93CF937B
:1024F000DF93CDB7DEB728970FB6F894DEBF0FBED7
:10250000CDBF8C01F801818D928D892B49F0D801C6
:10251000ED91FC910284F385E02DC8010995F2CF7D
:10252000808D0E940F181816190654F548E050E0E7
:10253000BE016F5F7F4FD80158968C910E94AF17F4
:102540009C0118161906D4F4BE016F5F7F4FC801B5
:102550000E960E94A30D8D8190E0982F88272E81E2
:10256000820F911DF801958B848B2F8130E0322FE3
:1025700022278885280F311D328F218FC90102C083
:1025800080E090E028960FB6F894DEBF0FBECDBF76
:10259000DF91CF911F910F9108958F929F92AF92EB
:1025A000BF92CF92DF92EF92FF920F931F93CF9340
:1025B000DF9300D000D000D0CDB7DEB7FC01208D76
:1025C000243009F068C06A017B018C0153E0852E3C
:1025D00054E0952EA12CB12CC4010E94B01481119D
:1025E00003C0F801A08E0AC08831D9F3FFEFAF1AFB
:1025F000BF0A9394E4E0AE16B10471F7F801808D40
:10260000843009F448C096E0E6E1F1E0DE0111967D
:1026100001900D929A95E1F7F70193819F779C8342
:1026200094819D8395819E83B7016E5F7F4F90E07B
:10263000982F882744E050E0845F9B4F0E948114CC
:10264000F801E08CF12CF4E0EF0EF11CFE2CEE24EE
:102650006D2DC70140960E94ED136C2DC701419668
:102660000E94ED13F801808D90E0982F882746E0B6
:1026700050E0BE016F5F7F4F8A5F9B4F0E948114C5
:10268000F801128E118E20E8A60162E0808D0E9472
:102690005C1781E001C080E026960FB6F894DEBF9B
:1026A0000FBECDBFDF91CF911F910F91FF90EF90A3
:1026B000DF90CF90BF90AF909F908F900895CF9371
:1026C000DF93EC011B821A8288EE93E0A0E0B0E079
:1026D0008C839D83AE83BF838BE794E0998388834B
:1026E000CE010E960E947D0D84E0888FDF91CF9100
:1026F0000895CF92DF92EF92FF920F931F93CF93A3
:10270000DF93CDB7DEB7AF970FB6F894DEBF0FBE3D
:10271000CDBF8C016B017A01CE0101960E947D0D27
:10272000CE0109960E945F13CE018A960E947D0D0C
:1027300066E476E0CE0184960E94771ABE016C5D55
:102740007F4FCE0101960E94991AAE01465D5F4F00
:10275000B601CE0101960E94081D81309105C1F499
:10276000D801ED91FC910488F589E02D85E794E08E
:102770009DA38CA38CA59DA5AEA5BFA58EA39FA34D
:10278000A8A7B9A7A701BE016C5D7F4FC801099535
:10279000AF960FB6F894DEBF0FBECDBFDF91CF91DD
:1027A0001F910F91FF90EF90DF90CF9008950F93BE
:1027B00000E020E040E060E08EE296E00E94870DBD
:1027C0000F9108958EBD00000DB407FEFDCF8EB5AC
:1027D00008952A9808952A9A08951F93CF93DF9316
:1027E00000D0CDB7DEB7182F6A8399830E94E91312
:1027F00080EF0E94E2139981892F0E94E213812FBA
:102800000E94E2136A81862F0E94E2130E94EB135A
:1028100081E00F900F90DF91CF911F910895CF939A
:10282000DF93EC016CE271E080E090E00E941B0914
:102830000E94961D229A8091C206882399F02FB794
:10284000F8948091C206813059F48DB38093C0060C
:102850009DB38091C106809589238DBB2FBF02C097
:102860002093C00680E58CBD1DBC60E880E090E050
:102870000E94ED1365E58BE190E00E94ED1365E5A4
:102880008AE190E00E94ED138091C206882351F006
:102890009FB7F8942091C2068091C006213029F597
:1028A0008DBB9FBF80E090E49983888380E090E6B1
:1028B0009987888780E098E49B838A8380E098E604
:1028C0009B878A8780E090E59D838C8380E090E7FA
:1028D0009D878C8780E098E59F838E8380E098E7D2
:1028E0009F878E87DF91CF9108958FBFDBCF9B01AC
:1028F00090E00496982F8827642F820F931F0C94E2
:10290000ED13CF92DF92EF92FF920F931F93CF932D
:10291000DF93EC017A018B016C01C40ED51ECC153E
:10292000DD05A1F00E94E91380EF0E94E2138D2FD4
:102930000E94E2138C2F0E94E2132196F8018191EC
:102940008F010E94E2130E94EB13E9CFC701DF91D0
:10295000CF911F910F91FF90EF90DF90CF9008954E
:102960001F93CF93DF931F92CDB7DEB7182F9983B4
:102970000E94E9138FE00E94E2139981892F0E943F
:10298000E213812F0E94E21380E00E94E213898308
:102990000E94EB1389810F90DF91CF911F910895D1
:1029A00090E00496982F8827860F971F0C94B014F8
:1029B0001F93CF93DF93182F60E270E00E94D01432
:1029C000C82FD0E061E270E0812F0E94D014DC2F8C
:1029D000CC279E01282BC901DF91CF911F9108952B
:1029E000FF920F931F93CF93DF93F62EC0E0D0E0BA
:1029F0008F2D0E94D8148C01892B21F08F2D0E94DD
:102A0000D814EC01C017D10799F7CE01DF91CF910F
:102A10001F910F91FF9008951F93CF93DF93182F6D
:102A200066E270E00E94D014C82FD0E067E270E048
:102A3000812F0E94D014DC2FCC279E01282BC901A6
:102A4000DF91CF911F910895FF920F931F93CF9322
:102A5000DF93F62EC0E0D0E08F2D0E940C158C0184
:102A6000892B21F08F2D0E940C15EC01C017D10786
:102A700099F7CE01DF91CF911F910F91FF900895AB
:102A80006F927F928F929F92AF92BF92CF92DF927E
:102A9000EF92FF920F931F93CF93DF931F92CDB7C7
:102AA000DEB7882E962E6A01590164E270E0892D06
:102AB00099830E94D014E82EF12C65E270E0892DF4
:102AC0000E94D014FE2CEE24E82A37016C0C7D1CE9
:102AD000A3015770E82C9981F92EE90CF11CE90C3F
:102AE000F11CF70180819181840F951F9A01200FBD
:102AF000311F2130384098F060E078E06B01C41A53
:102B0000D50AA601B5010E948114A8014C195D09DE
:102B1000B5016C0D7D1DF7018081918102C0A80176
:102B2000B5010E948114060D171D412F64E270E06B
:102B3000892D0E947714402F65E270E0892D0F9057
:102B4000DF91CF911F910F91FF90EF90DF90CF9089
:102B5000BF90AF909F908F907F906F900C94771460
:102B6000CF92DF92EF92FF920F931F93CF93DF9359
:102B7000EC017A018B016C01C40ED51ECC15DD056C
:102B8000A9F00E94E9138FE00E94E2138D2F0E94AA
:102B9000E2138C2F0E94E213219680E00E94E21340
:102BA000F80181938F010E94EB13E8CFC701DF91F9
:102BB000CF911F910F91FF90EF90DF90CF900895EC
:102BC000AF92BF92CF92DF92EF92FF920F931F933B
:102BD000CF93DF9300D0CDB7DEB75A834983590135
:102BE00029813A8137706C01C60ED11CC60ED11CEA
:102BF000F60180859185820F931FA801420F531F14
:102C00004130584098F0E0E0F8E07F01E21AF30A22
:102C1000A701B5010E94B015A8014E195F09B501C1
:102C20006E0D7F1DF6018085918502C0A801B5015A
:102C30000F900F90DF91CF911F910F91FF90EF9028
:102C4000DF90CF90BF90AF900C94B0158F929F9271
:102C5000AF92BF92CF92DF92EF92FF920F931F93AA
:102C6000CF93DF936C01962E5A017901802E68E292
:102C700070E0892D0E94D014C82FD0E069E270E086
:102C8000892D0E94D014DC2FCC27C82B87019501F9
:102C9000AE01692DC6010E94E01581101AC0CE0D4B
:102CA000DF1D4D2F68E270E0892D0E9477144C2FB4
:102CB00069E270E0892DDF91CF911F910F91FF9014
:102CC000EF90DF90CF90BF90AF909F908F900C943B
:102CD0007714DF91CF911F910F91FF90EF90DF90CC
:102CE000CF90BF90AF909F908F900895CF93C62FB5
:102CF00061E070E08C2F0E94771461E070E08C2F0F
:102D00000E94D0148111F9CFCF9108950F93FC0147
:102D100030E080E092E1AAE7B0E0481759076A077F
:102D20007B0740F4B695A795979587953F5F36301A
:102D3000A1F737E091E09327222311F020E501C0AD
:102D400020E7892F86950C70082B022B0083917049
:102D500091830F9108952091C206222399F04FB7D5
:102D6000F8942091C206213059F42DB32093C00667
:102D70003DB32091C106209523232DBB4FBF02C038
:102D80004093C0068CBD9DBD08958091C2068823E6
:102D900061F09FB7F8942091C2068091C00621305F
:102DA00019F48DBB9FBF08958FBF089590E0982FB1
:102DB000882744E050E0845F9B4F0C94811462E0CC
:102DC00070E00C94D014CF93DF93C82FD62F472FE9
:102DD00064E070E00E9477144D2F65E070E08C2F66
:102DE000DF91CF910C947714462F62E070E00C9441
:102DF0007714CF93DF93C82FD62F472F60E170E071
:102E00000E9477144D2F61E170E08C2FDF91CF91FC
:102E10000C9477140F931F93CF93DF9300D01F92DE
:102E2000CDB7DEB7182F00E021E040E059E06DE3B8
:102E300070E0CE0101960E94861689819A810E94D7
:102E4000AB1663E070E0812F0E94D0148B830E9448
:102E5000C5168B810F900F900F90DF91CF911F912E
:102E60000F9108950F931F93CF93DF9300D0CDB7A9
:102E7000DEB7182F00E021E040E059E06DE370E09C
:102E8000CE0101960E94861689819A810E94AB1616
:102E900040E150E0612F84E396E00E9476166FEFE8
:102EA000812F0E94F4160E94C5160F900F90DF919B
:102EB000CF911F910F910895CF92DF92EF92FF92E1
:102EC0000F931F93CF93DF9300D0CDB7DEB79FEF63
:102ED000960F9530C0F5F22E6A01E62E182F0E944B
:102EE000321700E021E040E059E06DE370E0CE01F0
:102EF00001960E94861689819A810E94AB164E2DFA
:102F00004F2960E070E0812F0E947714C114D10432
:102F100011F0B6010AC060914406709145066F5FDA
:102F20007F4F7093450660934406812F0E94E316FD
:102F300041E050E0612F84E396E00E9476160E9403
:102F4000C51681E001C080E00F900F90DF91CF9116
:102F50001F910F91FF90EF90DF90CF900895AF9267
:102F6000BF92CF92DF92EF92FF920F931F93CF9376
:102F7000DF9300D0CDB7DEB7182F5B016A0100E008
:102F800021E040E059E06DE370E0CE0101960E943F
:102F9000861689819A810E94AB16612F84E396E0A0
:102FA0000E9424157C010097A1F463E070E0812F5A
:102FB0000E94D014843119F1882309F121E030E016
:102FC0008C3111F420E030E0EE24FF24E21AF30A01
:102FD00016C0C816D9060CF476011E141F047CF422
:102FE00000E09701A501612F84E396E00E94261678
:102FF00040E450E0612F84E396E00E9476160E9440
:10300000C516C7010F900F90DF91CF911F910F91BF
:10301000FF90EF90DF90CF90BF90AF9008950F9307
:103020001F93CF93DF9300D000D0CDB7DEB7182F1A
:1030300000E021E040E059E06DE370E0CE01019650
:103040000E94861689819A810E94AB16612F84E3C3
:1030500096E00E9424158B839C830E94C5168B8169
:103060009C810F900F900F900F90DF91CF911F9147
:103070000F910895EF92FF920F931F93CF93DF93D9
:1030800000D0CDB7DEB7182F7B0100E021E040E093
:1030900059E06DE370E0CE0101960E9486168981A9
:1030A0009A810E94AB1601E021E030E0A701612F78
:1030B00084E396E00E9426160E94C51681E090E007
:1030C0000F900F90DF91CF911F910F91FF90EF9094
:1030D00008958F929F92AF92BF92DF92EF92FF92EC
:1030E0000F931F93CF93DF9300D0CDB7DEB7D82EC9
:1030F0005B014A01790100E021E040E059E06DE325
:1031000070E0CE0101960E94861689819A810E9404
:10311000AB166D2D84E396E00E94F0148E159F058A
:1031200030F46D2D84E396E00E94F0147C01870159
:103130009401A5016D2D84E396E00E9440150E9444
:10314000C516C7010F900F90DF91CF911F910F917E
:10315000FF90EF90DF90BF90AF909F908F90089579
:10316000CF92DF92EF92FF920F931F93CF93DF9353
:1031700000D0CDB7DEB7FB019081911109C09181DC
:10318000911106C09281911103C09381992309F195
:1031900041155105F1F06A017F01182F00E021E08F
:1031A00040E059E06DE370E0CE0101960E94861682
:1031B00089819A810E94AB16B701812F0E94D61691
:1031C000B601812F0E94F9160E94C51681E090E099
:1031D00002C080E090E00F900F90DF91CF911F919F
:1031E0000F91FF90EF90DF90CF9008950F931F9372
:1031F000CF93DF9300D0CDB7DEB7182F00E021E0EA
:1032000040E059E06DE370E0CE0101960E94861621
:1032100089819A810E94AB1640E250E0612F84E3DD
:1032200096E00E947616812F0E94DF1684FD21C051
:10323000812F0E94DF1683FF09C068E1812F0E9461
:10324000F4160E94C51680E090E01BC00E94C516CF
:103250000E94920900E021E040E059E06DE370E057
:10326000CE0101960E94861689819A810E94AB1632
:10327000DACF60E1812F0E94F4160E94C51681E02A
:1032800090E00F900F90DF91CF911F910F910895D3
:1032900044E050E0BC0181E090E00C94811444E0F3
:1032A00050E0BC0185E090E00C94811444E050E0D3
:1032B000BC018FE090E00C9481142F923F924F92CA
:1032C0005F926F927F928F929F92AF92BF92CF92B6
:1032D000DF92EF92FF920F931F93CF93DF9300D073
:1032E00000D000D0CDB7DEB76C011B0129013A0137
:1032F000470158018EE496E0F6019783868384E3C4
:1033000096E00E940F1480E590E00E94AB1646E024
:1033100050E0B10189E090E00E94811400E020E0DB
:1033200040E060E0CE0101960E94870DCE01039639
:103330000E9456190E94C51685017401A3019201CD
:10334000B101F601868197810E94F9288C010197CD
:10335000B9F580E590E00E94AB16F60166817781B1
:10336000CE0101960E943324CE0103960E94561985
:10337000F60166817781CE0101960E944924CE0133
:1033800003960E944819F60166817781CE01019665
:103390000E943E24CE0103960E944F190E94C5163A
:1033A000F60166817781CE0101960E9454248B81BB
:1033B0009C81AD81BE81F60182839383A483B58312
:1033C000C80126960FB6F894DEBF0FBECDBFDF91C1
:1033D000CF911F910F91FF90EF90DF90CF90BF9012
:1033E000AF909F908F907F906F905F904F903F90A5
:1033F0002F900895EF92FF920F931F93CF93DF9337
:1034000000D000D000D0CDB7DEB7FC0126813781D7
:103410002115310509F443C08C01C9010E943829E6
:103420007C01029721F084E0E816F104D1F580E5F3
:1034300090E00E94AB16F80166817781CE0101967B
:103440000E943324CE0103960E945619F80166812A
:103450007781CE0101960E944924CE0103960E94F5
:103460004819F80166817781CE0101960E943E24B9
:10347000CE0103960E944F190E94C516F80166817D
:103480007781CE0101960E9454248B819C81AD816D
:10349000BE81F80182839383A483B58302C0E12CAB
:1034A000F12CC70126960FB6F894DEBF0FBECDBF34
:1034B000DF91CF911F910F91FF90EF900895CF93DF
:1034C000DF93EC010E947D0D80E590E00E94AB1639
:1034D000BE016E5F7F4F44E050E08FE090E00E94BD
:1034E000B0150E94C516CE01DF91CF91089525E752
:1034F00034E0FC0131832083FB01428153816481EC
:103500007581FC01428353836483758308950F930F
:1035100000E020E040E060E084EB96E00E94870D50
:1035200081E996E00E945F1386E496E00F910C9487
:103530007D0DFB014281538164817581FC014283D1
:10354000538364837583178216820895CF93DF9324
:10355000FB0120E080E090E0AAE03191332301F10B
:1035600060ED630F6A3080F4A89FB001A99F700DD1
:103570001124CB01C097830F911D37FD9A958F3F82
:10358000910559F350F313C03E3289F4233079F09A
:10359000EA01C20FD11D8A832F5F80E090E0DDCF6A
:1035A000233029F4FA01858381E090E002C080E0B5
:1035B00090E0DF91CF9108950F9300E020E040E08C
:1035C00060E08AEB96E00E94870D0F9108958F923C
:1035D0009F92AF92BF92CF92DF92EF92FF920F93A2
:1035E0001F93CF93DF9300D000D01F92CDB7DEB7EB
:1035F0008C016B010E94EA08F801778366837627C5
:10360000672776277A836983085F1F4F42E050E07F
:10361000BE016F5F7F4FC8010E94D31181E090E02F
:103620009C838B8342E050E0BE016D5F7F4FC801F9
:103630000E94D31180E091E09C838B8342E050E0B4
:10364000BE016D5F7F4FC8010E94D3111C821B8297
:1036500042E050E0BE016D5F7F4FC8010E94D31170
:1036600042E050E0BE016D5F7F4FC8010E94D31160
:1036700042E050E0BE016D5F7F4FC8010E94D31150
:103680005601F5018081882329F1C6017C01FC01E6
:1036900020810196211116C0570147018C189D0801
:1036A0001814190494F48D8241E050E0BE016B5F60
:1036B0007F4FC8010E94D311A401B601C8010E9426
:1036C000D31103C02E3211F7E7CF6701FFEFCF1AF6
:1036D000DF0AD7CF1D8241E050E0BE016B5F7F4F14
:1036E000C8010E94D311E12CFF24F394FC82EB82E9
:1036F00042E050E0BE016D5F7F4FC8010E94D311D0
:10370000FC82EB8242E050E0BE016D5F7F4FC8015A
:103710000E94D31181E090E00F900F900F900F90D6
:103720000F90DF91CF911F910F91FF90EF90DF905D
:10373000CF90BF90AF909F908F9008954F925F92DF
:103740006F927F928F929F92AF92BF92CF92DF92B1
:10375000EF92FF920F931F93CF93DF93CDB7DEB716
:1037600065970FB6F894DEBF0FBECDBF7C015B013D
:103770006A010E94EA082B013C018701085F1F4F84
:103780004501A12CB12CC8010E947512181619060A
:10379000A4F00E94EA08DC01CB0184199509A6096E
:1037A000B70988169906AA06BB06D0F062E370E056
:1037B00080E090E00E941B09E6CFF701428153812F
:1037C00064817581808D918DA28DB38D48175907C5
:1037D0006A077B0741F4848D958DC59721F406C057
:1037E0002FEF3FEFFDC02EEF3FEFFAC0C8010E9460
:1037F00097110C97ECF04CE050E0BE016F5F7F4FEB
:10380000C8010E9410126C818B810E9427249A8B20
:10381000898BF701E680F7806A8189810E942724DD
:10382000E816F90641F489899A8997FF04C009C00E
:103830002DEF3FEFD5C0C8010E94B1112CEF3FEF33
:10384000CFC08F709270892B31F0C8010E94B111E6
:103850002BEF3FEFC5C068858F810E9427245C0154
:10386000892B31F4C8010E94B1112AEF3FEFB8C093
:10387000E12CF12C6E818D810E942724E816F90637
:1038800040F541E050E0BE01635F7F4FC8010E94F8
:1038900010128D85811113C08D858111F2CFC80161
:1038A0000E94E711C8010E94E711C8010E94E711B8
:1038B000C8010E94E711FFEFEF1AFF0ADBCF8D85E9
:1038C0009FEF980F9D87882339F3C8010E94E71165
:1038D000F6CFE12CF12C41E050E0BE016D5E7F4F50
:1038E000C8010E9410128B89982F907C61F4882364
:1038F00071F08B899FEF980F9B8B882341F0C80153
:103900000E94E711F6CFC8010E94E7111B8A8B893C
:103910008111E1CF42E050E0BE01615F7F4FC801FD
:103920000E94101242E050E0BE01635F7F4FC80169
:103930000E941012C8010E94E711C8010E94E711FD
:10394000C8010E94E711C8010E94E71142E050E05F
:10395000BE016F5E7F4FC8010E9410128F8598894B
:103960008115914001F52D853E8532272327322789
:1039700021303105C1F489899A898115944031F04B
:10398000C8010E94B11127EF3FEF2AC0B6016E5F58
:103990007F4F44E050E0C8012C8B3D8B0E941012F9
:1039A0002C893D891DC0812C912C89899A89982761
:1039B000892798278816990638F4C8010E94E711CC
:1039C0008FEF881A980AF1CFEFEFEE1AFE0AEA1489
:1039D000FB0409F080CFC8010E94B11126EF3FEF30
:1039E000C90165960FB6F894DEBF0FBECDBFDF915B
:1039F000CF911F910F91FF90EF90DF90CF90BF90EC
:103A0000AF909F908F907F906F905F904F900895B0
:103A10008F929F92AF92BF92CF92DF92EF92FF92DE
:103A20000F931F93CF93DF9300D000D000D0CDB77A
:103A3000DEB77C014B015A010E94A61A8C01892B2A
:103A400009F05BC0F70142815381648175818091E7
:103A5000BC069091BD06A091BE06B091BF06481766
:103A600059076A077B0709F44BC00E94EA086701FF
:103A7000F8E0CF0ED11C6F7077277C5FC6010E94E3
:103A80004812813009F03EC085E794E09A8389832B
:103A9000F70182819381A481B5818B839C83AD835F
:103AA000BE8345E350E0BE016F5F7F4FC6010E94B9
:103AB000C711892B19F400E010E01BC0B401C70145
:103AC0000E94E71A892BB9F3C6010E94CF11892BF6
:103AD00091F383E0882E912CA50168E873E1C7017A
:103AE0000E949E1B8C01F1E08F1A910811F0019643
:103AF00099F3C6010E94B21105C001E010E002C0B6
:103B00000EEF1FEFC80126960FB6F894DEBF0FBE6A
:103B1000CDBFDF91CF911F910F91FF90EF90DF907C
:103B2000CF90BF90AF909F908F900895CF93CFB7D5
:103B3000F8948091C306811127C0EAE9F0E08491EE
:103B4000E6E8F0E09491E82FF0E0EE0FFF1FE25579
:103B5000FF4FA591B491EC91E92321F461E08AE053
:103B60000E94F80961E08AE00E94BC098CB580617E
:103B70008CBD8CB580648CBD61E08DE00E94BC0979
:103B800061E08BE00E94BC098091C3068F5F809347
:103B9000C306CFBFCF910895FC011482158216820F
:103BA000178208951F93CF93DF931F92CDB7DEB78F
:103BB000162FFC01608184EC96E049830E9430213D
:103BC000612F84EC96E00E94E7204981642F84EC09
:103BD00096E00E94E72084EC96E00F90DF91CF9171
:103BE0001F910C94B9211F93CF93DF9300D0CDB7D1
:103BF000DEB7162FFC01608184EC96E04A8359837E
:103C00000E943021612F84EC96E00E94E7205981C8
:103C1000652F84EC96E00E94E7204A81642F84ECB3
:103C200096E00E94E72084EC96E00F900F90DF91E1
:103C3000CF911F910C94B9211F93CF93DF93EC0187
:103C4000162F688184EC96E00E943021612F84EC6D
:103C500096E00E94E72084EC96E00E94B92141E0C2
:103C6000688184EC96E00E94B321C8EED3E084EC36
:103C700096E00E948B201816190634F0209711F058
:103C80002197F5CF80E006C0CD2BE1F384EC96E0E0
:103C90000E949320DF91CF911F9108950F93CF93AE
:103CA000DF93EC01637041704295407F2F70422B8F
:103CB0006295660F607E462B6EE10E94D21D002346
:103CC00021F0083018F007E001C001E08FEF800F0D
:103CD00061E070E002C0660F771F8A95E2F7072E59
:103CE000000C880B990B0E94E92D9B01AC0160E050
:103CF00074E284EF99E40E94462D0E94B82D6C83F3
:103D00007D838E839F836FE1CE010E941C1E8F787E
:103D10000295007F482F402B6FE1CE01DF91CF91BC
:103D20000F910C94D21D1F93CF93DF93EC01162FAC
:103D3000688184EC96E00E943021612F84EC96E04B
:103D40000E94E72084EC96E00E94B92142E068815D
:103D500084EC96E00E94B321C0EDD7E084EC96E0BD
:103D60000E948B2002973CF4209711F02197F6CF08
:103D700080E090E011C0CD2BD9F384EC96E00E9456
:103D80009320C82F84EC96E00E94932020E030E03E
:103D90003C2FA901482BCA01DF91CF911F910895B3
:103DA000CF92DF92EF92FF920F931F93CF93DF9307
:103DB0008C01D62FF42E6EE00E94931E41E050E05D
:103DC0009A0102C0220F331FDA95E2F7E9018095CC
:103DD000909582239323892B89F060E1C8010E948A
:103DE000931EFF2021F0AC014C2B5D2B05C0C0952C
:103DF000D095AC014C235D2360E125C066E0C8018D
:103E00000E94931E6C0168E0C8010E94931E9E01EF
:103E100020953095FF2061F07C01E222F322A6017B
:103E20004C2B5D2B66E0C8010E94F31DA7010AC060
:103E3000C82BD92BA6014223532366E0C8010E9458
:103E4000F31DAE0168E0C801DF91CF911F910F9182
:103E5000FF90EF90DF90CF900C94F31D0C94D01E48
:103E6000FF920F931F93CF93DF938C01F62E6EE09A
:103E70000E94931EC1E0D0E002C0CC0FDD1FFA9477
:103E8000E2F78C239D23892B49F060E1C8010E9451
:103E9000931EC823D92381E0CD2B09F480E0DF9164
:103EA000CF911F910F91FF9008950C94301FCF92E6
:103EB000DF92EF92FF920F931F93CF93DF931F92A6
:103EC000CDB7DEB76C01162F60E029830E94931EE8
:103ED00041E050E0BA0102C0660F771F1A95E2F781
:103EE0008B01AC01462B572B60E0C6010E94F31DED
:103EF00066E0C6010E94931E7801E094F094AC0144
:103F00004E215F2166E0C6010E94F31D6EE0C601EE
:103F10000E94931EAC014E215F216EE0C6010E94FB
:103F2000F31D6EE1C6010E941C1E8F7D482F406468
:103F30006EE1C6010E94D21D6FE1C6010E941C1EE7
:103F40002981482F222311F0486801C04777F601E4
:103F500084819581A681B781892B8A2B8B2B49F48B
:103F600080E894E8AEE1B0E084839583A683B783CC
:103F700040616FE1C6010E94D21D60E2C6010E944D
:103F8000931EAC01402B512B60E2C6010E94F31D31
:103F900060E1C6010E94931EAC014E215F2160E1E9
:103FA000C6010F90DF91CF911F910F91FF90EF907D
:103FB000DF90CF900C94F31D0F931F93CF93DF935B
:103FC000EC01162F042F6EE00E94931E9C01802F9F
:103FD0008D7F813059F041E050E0012E02C0440F46
:103FE000551F0A94E2F7422B532B0DC0E1E0F0E09D
:103FF000012E02C0EE0FFF1F0A94E2F7E095F09544
:10400000A9014E235F236EE0CE010E94F31D023012
:1040100049F441E0612FCE01DF91CF911F910F91C3
:104020000C94D01E033051F420E041E0612FCE010A
:10403000DF91CF911F910F910C94571FDF91CF917A
:104040001F910F9108950C94DC1FCF93DF93EC0127
:104050006FE10E941C1E82FF06C0482F4B7F6FE15C
:10406000CE010E94D21D41E06B81CE010E94DC1F77
:1040700040E06B81CE010E94D01E61E070E080E0E4
:1040800090E00E941B0941E06B81CE01DF91CF914E
:104090000C94D01ECF93DF93662321F0DF91CF9154
:1040A0000C942520EC0142E16DE70E94D21D44E30F
:1040B0006DE7CE01DF91CF910C94D21D0F93CF937A
:1040C000DF93EC0184EC96E00E9426218B818F3FE8
:1040D00021F0CE010E94252004C060E0CE010E94A4
:1040E0004A2063E1CE010E94931E81159F4F49F43F
:1040F00001E020E040E062E0CE010E944E1E81E03F
:1041000001C080E0DF91CF910F910895FC016083A1
:1041100043830C945E208091F40690E02091F50694
:10412000821B910908959091F5068091F4069817E5
:1041300050F4E92FF0E0EA50F94F208130E09F5F22
:104140009093F50602C02FEF3FEFC9010895E0916B
:10415000F5068091F406E81730F4F0E0EA50F94FE4
:10416000808190E008958FEF9FEF08950895CF929A
:10417000DF92EF92FF920F931F93CF93DF937C0117
:10418000262F972F8A018091D006882391F0C62F81
:10419000D72F6E01C40ED51ECC15DD0571F06991C7
:1041A000D701ED91FC910190F081E02DC7010995B7
:1041B000F3CF642F822F0E947C22C801DF91CF9120
:1041C0001F910F91FF90EF90DF90CF900895CF93C4
:1041D000DF931F92CDB7DEB769832091D0062223EB
:1041E000D1F02091D106203240F021E030E0FC01F6
:1041F0003383228380E090E015C08091D206E82FBF
:10420000F0E0ED52F94F998190838F5F8093D20651
:104210008093D10605C061E0CE0101960E947C2208
:1042200081E090E00F90DF91CF910895FC0113821F
:10423000128288EE93E0A0E0B0E084839583A683A9
:10424000B78383EA94E09183808308951092F50602
:104250001092F4061092D2061092D1060C94C0214E
:1042600081E08093D0066093F3061092D2061092FC
:10427000D10608950C9430210F93062F21E0409130
:10428000D10663ED76E08091F3060E94262210921B
:10429000D2061092D1061092D0060F9108954F9237
:1042A0005F926F927F92AF92BF92CF92EF92FF9206
:1042B0000F931F93CF93DF935C01F62ED42F280129
:1042C0003901EE2021F10E943021CE2DC43008F0BA
:1042D000C3E0C150C0F0D501ED91FC91B8E0CB9F97
:1042E000C0011124A301920104C05695479537954A
:1042F00027958A95D2F7CA01B9010190F081E02D86
:10430000C5010995E6CF60E0C5010E943C214D2F13
:10431000D13208F040E22C2D66EF76E08F2D0E941E
:10432000DE211092F5068093F406DF91CF911F9164
:104330000F91FF90EF90CF90BF90AF907F906F90D4
:104340005F904F900895CF92EF920F931F93C22EDC
:10435000E12C00E010E098010E944F211F910F9185
:10436000EF90CF90089521E00C94A32121E00C94CC
:10437000A32161E00C943C2184EC96E00C9416217E
:104380001092830781E0809381071092800761E09B
:1043900082E10E94F80961E083E10E94F809E9EBFB
:1043A000F0E080818E7F808380818D7F808388E4B0
:1043B0008093B80085E48093BC000895413208F0F2
:1043C00043C0909183079111FCCF91E090938307B4
:1043D000209381072FEF2093160710925B07240F7D
:1043E00020935A079093820790918207880F892B18
:1043F0008093820780918007813061F4109280075A
:10440000809182078093BB008091BC0083FDF8CF30
:1044100085EC01C085EE8093BC00809183078130DC
:10442000E1F380915B07841710F440915B072CE562
:1044300037E0FB01D9018A2F821B841718F48D9174
:104440008193F9CF842F089580E008950F9341322E
:1044500008F04AC0909183079111FCCF32E030936D
:104460008307009381073FEF3093160710925B0795
:1044700040935A07FB016CE577E0DB013A2F361BCE
:10448000341718F431913D93F9CF1092820730918F
:104490008207880F832B8093820780918007813069
:1044A00061F410928007809182078093BB00809115
:1044B000BC0083FDF8CF85EC01C085EE8093BC0085
:1044C000222321F0809183078230D1F38091160757
:1044D0008F3F79F080911607803241F08091160766
:1044E000803331F094E005C091E003C092E001C058
:1044F00093E0892F0F91089540913807262F30E0DF
:10450000240F311D21323105DCF420918307243042
:10451000C9F4FC0180E090E0861758F43091380728
:104520002191DC01A65CB84FA30FB11D2C9301961D
:10453000F3CF80913807680F6093380780E00895C3
:1045400081E0089582E0089585ED8093BC0080911C
:10455000BC0084FDFCCF10928307089585EC809306
:10456000BC001092830708951F920F920FB60F920E
:1045700011242F933F934F935F936F937F938F9368
:104580009F93AF93BF93EF93FF938091B900887F80
:10459000803609F49EC078F5883209F45DC090F445
:1045A000803109F456C038F4882309F4F5C0883006
:1045B00009F44FC0F5C0883109F44EC0803209F4C7
:1045C0005FC0EEC0803409F46AC058F4803309F447
:1045D00057C0883309F0E4C0809316070E94AE22CA
:1045E000DFC0803509F44FC0883509F45DC08834D8
:1045F00009F0D6C0D3C0883909F4C4C0A8F48837FC
:1046000009F467C038F4883609F463C0803709F4C8
:1046100060C0C6C0883809F4B5C0803909F45FC0ED
:10462000803809F0BDC05BC0803B09F483C038F41A
:10463000803A09F466C0883A09F47CC0B1C0803C75
:1046400009F4A4C0883C09F4A1C0883B09F487C0E0
:10465000A7C08091820710C090915B0780915A0794
:10466000981770F5E0915B0781E08E0F80935B07F0
:10467000F0E0E45AF84F80818093BB0085EC83C062
:10468000809316078BC0E0915B0781E08E0F8093CB
:104690005B078091BB00F0E0E45AF84F8083909173
:1046A0005B0780915A076BC0E0915B0781E08E0F3A
:1046B00080935B078091BB00F0E0E45AF84F808361
:1046C0008091810781116AC081E08093800784EA2C
:1046D0005EC083E08093830710921707CFCF80914D
:1046E0001707803208F04EC0E091170781E08E0F67
:1046F000809317078091BB00F0E0E85EF84F80835D
:10470000BDCF0E94AE2280911707803230F4E09135
:104710001707F0E0E85EF84F10826091170770E02D
:10472000E0917C07F0917D0788E197E00995109270
:10473000170736C084E080938307109239071092E0
:104740003807E0917E07F0917F070995809138073F
:10475000811105C081E08093380710923A07E091FB
:10476000390781E08E0F80933907F0E0E65CF84F5F
:1047700080818093BB00909139078091380798170A
:1047800008F47CCF85E88093BC000AC085EC809358
:10479000BC001092830704C0109216070E94A42246
:1047A000FF91EF91BF91AF919F918F917F916F9109
:1047B0005F914F913F912F910F900FBE0F901F90DF
:1047C0001895CF93DF9300D000D0CDB7DEB7611539
:1047D00071058105910579F09B01AC0169833A83EC
:1047E0004B835C830E94702B29813A814B815C81D1
:1047F0000E947A3103C060E070E0CB010F900F900F
:104800000F900F90DF91CF910895CF92DF92EF92AA
:10481000FF920F931F93621773078407950784F421
:1048200089019A016B017C01C901B8016C197D09EC
:104830008E099F090E94E1236C0D7D1D8E1D9F1D19
:104840001F910F91FF90EF90DF90CF90089570E04F
:104850009B01382BC90108950E9624E1FC011192A9
:104860002A95E9F70895CF93DF93EC01625F7F4FBC
:104870000E94930DCE01DF91CF910895CF93DF93E6
:10488000EC016E5E7F4F0E94930DCE01DF91CF91C0
:104890000895CF93DF93EC016A5E7F4F0E94930DE2
:1048A000CE01DF91CF910895CF93DF93EC01625E4B
:1048B0007F4F0E94930DCE01DF91CF91089580E349
:1048C000FB0180833296842F82958F7090E1899FBF
:1048D000401911244A3014F4405D01C0495C4293F0
:1048E000482F8111F0CF08950F9300E020E040E0C1
:1048F00060E084E897E00E94870D0F9108957F9211
:104900008F929F92AF92BF92CF92DF92EF92FF92DF
:104910000F931F93CF93DF93CDB7DEB7AC970FB64E
:10492000F894DEBF0FBECDBF7C01762E942E852E6F
:1049300020E2B22ECE0101966C01FC012B2D1192CA
:104940002A95E9F70FEF2FEF4FEF6FEF86960E9452
:10495000870D85E794E09AA389A389A59AA5ABA5BD
:10496000BCA58BA39CA3ADA3BEA387010D5B1F4F6A
:1049700043E450E0BE016F5D7F4FC8010E94C71144
:10498000019609F4BFC081E089838A8386E0A82E5E
:10499000AB821C82F70164817581868197810E94B8
:1049A00099316D837E838F83988789869A8680E884
:1049B00090E09C878B874CE150E0B601C8010E94D3
:1049C000D311F6012B2D11922A95E9F7470188E0C2
:1049D000880E911CF401D60101900D92AA94E1F782
:1049E00040E150E0B601C8010E94D311F6011192D6
:1049F000BA94E9F796E0A92EB12C40E250E0B60156
:104A0000C8010E94D311F1E0AF1AB108B1F783E6F3
:104A1000898392E89A8393E59B838C8385E38D83D6
:104A200081E08E837F829DE3988797E099878A87CC
:104A300086E0F401DE011B9601900D928A95E1F764
:104A40008CE0898B8A8B61EB74E0CE0143960E94E7
:104A50006A2CF7014385BE01675E7F4FC7010E9444
:104A60005F24F7014485BE01655E7F4FC7010E9448
:104A70005F24F7014585BE01635E7F4FC7010E9439
:104A80005F244EE150E0B601C8010E94D311F3E06B
:104A90007F121EC082E3898384E08A83F7019685B2
:104AA0009B8397859C8390899D8391899E8396E3C0
:104AB0009F838887828D8987838D8A87848D8B8762
:104AC000858D8C874CE050E0B601C8010E94D3115F
:104AD00087E3898386E08A8391E09B8393E09C83CC
:104AE0008D838FE08E838AE38F838BE388878FEFBC
:104AF000898749E050E0B601C8010E94D311C8017E
:104B00000E94CF11AC960FB6F894DEBF0FBECDBF9A
:104B1000DF91CF911F910F91FF90EF90DF90CF9099
:104B2000BF90AF909F908F907F9008952F923F926B
:104B30004F925F926F927F928F929F92AF92BF92AD
:104B4000DF92EF92FF920F931F93CF93DF93CDB736
:104B5000DEB7E4970FB6F894DEBF0FBECDBF7C0181
:104B60001A012B0139010E94EA084B015C018701FF
:104B70000D5B1F4FC8010E94751218161906A4F08C
:104B80000E94EA08DC01CB0188199909AA09BB092E
:104B9000281639064A065B06F0F062E370E080E012
:104BA00090E00E941B09E6CF42E250E0BE016F5F39
:104BB0007F4FC8010E9410128981823031F4F801C0
:104BC000848995898334910541F0D12CC8010E94D4
:104BD000B1118D2D5FC18FEF5DC16D817E818F81A0
:104BE00098850E9499314B015C01F30160837183C8
:104BF0008283938346E050E0B701685F7F4FCE0128
:104C00004D960E944B2C892B99F4F701808191815C
:104C1000A281B38188169906AA06BB0648F0848152
:104C20009581A681B78188159905AA05BB0528F449
:104C3000C8010E94B11180E02DC189899A89AB8990
:104C4000BC89F70186879787A08BB18B8EECA82E45
:104C5000B12CC8010E94E711F1E0AF1AB108C9F701
:104C6000D12CC70182969AA789A7F701B696FCA70F
:104C7000EBA708969EA78DA73C974F01899698AB06
:104C80008FA73897FAABE9AB1701F6E12F0E311C6D
:104C9000C5979CAB8BABC8010E94971118161906DB
:104CA0000CF094CFC8010E94E7118333910509F4F9
:104CB000CBC0FCF481309105C9F11CF4892B59F368
:104CC000DDC083309105D1F1069709F0D7C0C80146
:104CD0000E94E7115C0144E050E06BA97CA9C80187
:104CE0000E941012412C512CBB24F4E0AF1AB108E1
:104CF00040C08A33910509F47BC03CF485339105AB
:104D000069F0C69709F440C0B9C08B33910509F426
:104D100085C08F3F910509F4BECFB0C0C8010E9485
:104D2000E711C8010E94E711D82EB5CFC8010E9433
:104D3000E71144E050E069A97AA93AC0C8010E948D
:104D4000E7115C0144E050E0B101C8010E9410127B
:104D5000412C512CBB2494E0A91AB1084A145B04DD
:104D60000CF099CFC8010E94E711EFEF4E1A5E0ACE
:104D7000F5CF4A145B040CF08ECFC8010E94E711F6
:104D80008FEF481A580AF5CFC8010E94E711B82ED4
:104D9000F701828D811110C0838D81110DC0848D2A
:104DA00081110AC0858D811107C044E050E0B40133
:104DB000C8010E9410126FCFEFA5F8A94080518062
:104DC00062807380B401CE0183960E94930D8DA101
:104DD0009EA1AFA1B8A584159505A605B70529F331
:104DE000BB2009F458CFC8010E94E711BA94F8CF4C
:104DF000C8010E94E71144E050E06BA57CA5C80102
:104E00000E941012F70166A177A180A591A50E94CA
:104E1000993166A377A380A791A73DCFC8010E94CF
:104E2000E71144E050E06DA57EA5C8010E94101274
:104E3000F70162A573A584A595A50E94993162A783
:104E400073A784A795A727CFC8010E94E71144E064
:104E500050E069A57AA5C8010E941012F70162A16D
:104E600073A184A195A10E94993162A373A384A325
:104E700095A366A777A780AB91AB0DCFC8010E9421
:104E8000E711B82EBB2009F406CFC8010E94E71134
:104E9000BA94F8CFE4960FB6F894DEBF0FBECDBF3C
:104EA000DF91CF911F910F91FF90EF90DF90BF9016
:104EB000AF909F908F907F906F905F904F903F90BA
:104EC0002F9008952F923F924F925F926F927F9210
:104ED0008F929F92AF92BF92CF92DF92EF92FF920A
:104EE0000F931F93CF93DF93CDB7DEB727970FB6FE
:104EF000F894DEBF0FBECDBF8C0120ED37E040E05F
:104F000050E061E070E080E090E00E940524D8016C
:104F100014966D937D938D939C931797F8016083FE
:104F20007183828393835801F3E4AF0EB11CC501F2
:104F30000E94B21164E470E0C5010E944812882307
:104F400009F43CC10E94EA082B013C01812C912C00
:104F50001D82C8018E5B9F4F9F838E8343E0342E5A
:104F600058EEC52E53E0D52EE12CF12C62E0262E12
:104F7000AE81BF818C91833009F407C1811120C0BB
:104F8000F80184819581A681B7810196A11DB11D8B
:104F900084839583A683B7830E94EA086419750900
:104FA00086099709A70196010E945831A90161E07D
:104FB000C8010E947F2481E0AE81BF818C93C6C06E
:104FC0008430F9F4F80184819581A681B781019636
:104FD000A11DB11D84839583A683B7830E94EA082F
:104FE0006419750986099709A70196010E9458312D
:104FF000A90163E0C8010E947F24AE81BF812C9289
:10500000A5C0813061F5F80142AD53AD64AD75AD19
:105010009E012F5F3F4FC8010E9496258D838230ED
:1050200009F094C089819A81AB81BC81F8018483A5
:105030009583A683B7830E94EA08641975098609D7
:105040009709A70196010E945831A90163E0C801A0
:105050000E947F24ED81AE81BF81EC937EC08230BF
:1050600009F074C0D801DA964D915D916D917C91F3
:10507000DD979E012F5F3F4FC8010E9496258D83CB
:10508000853009F05CC0EE81FF813082F80182A199
:1050900093A1A4A1B5A1892B8A2B8B2B41F484E881
:1050A00093E0A0E0B0E082A393A3A4A3B5A3F8018A
:1050B00086A197A1A0A5B1A5892B8A2B8B2B61F482
:1050C00082A193A1A4A1B5A1B695A795979587951F
:1050D00086A397A3A0A7B1A7F80182A593A5A4A52D
:1050E000B5A5892B8A2B8B2BA9F482A193A1A4A10E
:1050F000B5A1AC01BD0123E076956795579547951D
:105100002A95D1F7841B950BA60BB70B82A793A703
:10511000A4A7B5A7F80186A197A1A0A5B1A586A7C8
:1051200097A7A0ABB1AB82A593A5A4A5B5A582AB6B
:1051300093ABA4ABB5AB88248394912C0EC0FD81B6
:10514000F63021F4AE81BF811C9207C0BD81BF3F04
:1051500021F4EE81FF8110821D82F1E08F1691040F
:1051600009F406CF0E94EA08DC01CB0184199509F5
:10517000A609B709F80126A937A940AD51AD2817EE
:1051800039074A075B0708F0F3CEC5010E94B21148
:10519000F80184819581A681B7810196A11DB11D79
:1051A00084839583A683B7830E94EA08F801FE965C
:1051B0006083718382839383C40102C080E090E0A6
:1051C00027960FB6F894DEBF0FBECDBFDF91CF910B
:1051D0001F910F91FF90EF90DF90CF90BF90AF9015
:1051E0009F908F907F906F905F904F903F902F9007
:1051F0000895CF92DF92EF92FF920F931F93CF9378
:10520000DF93EC016B011AA21BA21CA21DA21EA21D
:105210001FA218A619A61AA61BA61CA61DA62EAB71
:105220003FAB48AF59AFEAAEFBAE0CAF1DAF8C0140
:10523000085F1F4F86E0F80111928A95E9F7CE01C9
:105240000E942C2486E0F601D80101900D928A95E7
:10525000E1F7FE01EE5BFF4F1082CE01DF91CF91AF
:105260001F910F91FF90EF90DF90CF900C946227E9
:10527000CF92DF92EF92FF920F931F93CF93DF9322
:10528000EC010E94EA086B017C018E01025C1F4F59
:10529000F80180819181A281B381A7019601281B29
:1052A000390B4A0B5B0BCA01B901683E33E0730747
:1052B0008105910508F441C028EE33E040E050E05C
:1052C0000E945831C61AD70AE80AF90AF801C082C2
:1052D000D182E282F3828EA59FA5A8A9B9A969010E
:1052E0007A01CC0CDD1CEE1CFF1C8C159D05AE0557
:1052F000BF0528F41EA61FA618AA19AA08C0821B5B
:10530000930BA40BB50B8EA79FA7A8ABB9AB8AA92B
:105310009BA9ACA9BDA98C159D05AE05BF0528F4B8
:105320001AAA1BAA1CAA1DAA08C0821B930BA40BB5
:10533000B50B8AAB9BABACABBDAB8EA59FA5A8A9AB
:10534000B9A9892B8A2B8B2B69F4FE01EE5BFF4FE9
:105350008081833039F484E08083CE010E9462270B
:10536000019602C080E090E04AA95BA96CA97DA9E2
:10537000452B462B472B81F4FE01EE5BFF4F20812E
:10538000233011F0211108C01082CE010E942C247C
:10539000CE010E9462270396DF91CF911F910F915A
:1053A000FF90EF90DF90CF900895EF920F931F93AF
:1053B000CF93DF93E80147FD02C034E001C034E140
:1053C000E42F440FFF0BF7FF03C0F195E195F109BE
:1053D000E32E022F2E2FAE010E94E22ECE01DF918E
:1053E000CF911F910F91EF900895CF93DF9382306B
:1053F000910510F482E090E0E0918C07F0918D0728
:1054000020E030E0C0E0D0E0309711F140815181E0
:1054100048175907C0F04817590761F482819381F2
:10542000209719F09B838A832BC090938D078093DC
:105430008C0726C02115310519F04217530718F4BF
:105440009A01BE01DF01EF010280F381E02DDCCF84
:105450002115310509F1281B390B2430310590F451
:1054600012968D919C9113976115710521F0FB01A6
:105470009383828304C090938D0780938C07FD01F2
:10548000329644C0FD01E20FF31F819391932250A5
:1054900031092D933C933AC020918A0730918B07B4
:1054A000232B41F4209102013091030130938B07AB
:1054B00020938A07209100013091010121153105C7
:1054C00041F42DB73EB74091040150910501241BD2
:1054D000350BE0918A07F0918B07E217F307A0F4F0
:1054E0002E1B3F0B2817390778F0AC014E5F5F4F3A
:1054F0002417350748F04E0F5F1F50938B074093DA
:105500008A078193919302C0E0E0F0E0CF01DF9140
:10551000CF9108950F931F93CF93DF93009709F4D2
:105520008CC0FC0132971382128200918C0710917B
:105530008D070115110581F420813181820F931FA0
:1055400020918A0730918B072817390779F5F09356
:105550008B07E0938A0771C0D80140E050E0AE1796
:10556000BF0750F412962D913C911397AD01211570
:10557000310509F1D901F3CF9D01DA01338322838B
:1055800060817181860F971F8217930769F4EC0180
:1055900028813981260F371F2E5F3F4F31832083AB
:1055A0008A819B8193838283452B29F4F0938D0715
:1055B000E0938C0742C01396FC93EE931297ED0193
:1055C000499159919E01240F351FE217F30771F499
:1055D00080819181840F951F029611969C938E93E2
:1055E0008281938113969C938E931297E0E0F0E072
:1055F000D80112968D919C911397009719F0F8019C
:105600008C01F6CF8D919C9198012E5F3F4F820FB8
:10561000931F20918A0730918B072817390769F467
:10562000309729F410928D0710928C0702C01382D4
:10563000128210938B0700938A07DF91CF911F91FD
:105640000F9108958F929F92AF92BF92CF92DF9267
:10565000EF92FF92CF93DF93EC01688179818A8189
:105660009B81611571058105910521F464E279ED55
:105670008BE597E02DE133EF41E050E00E947A3175
:1056800049015A019B01AC01A7EAB1E40E94A03193
:105690006B017C01ACEEB4EFA50194010E94AE3128
:1056A000DC01CB018C0D9D1DAE1DBF1DB7FF03C0DE
:1056B0000197A109B04888839983AA83BB83BC0161
:1056C000CD019F77DF91CF91FF90EF90DF90CF904A
:1056D000BF90AF909F908F9008950E94222B0895C5
:1056E00086E091E00E94222B08956093060170935A
:1056F000070180930801909309010895A0E0B0E0AC
:10570000E4E8FBE20C94B731EC01009721F4CB0103
:105710000E94F529B8C0FC01E60FF71F9C0122503A
:105720003109E217F30708F4ACC0D9010D911C91BF
:10573000119706171707B0F00530110508F49FC040
:10574000C80104978617970708F499C002501109F9
:10575000061B170B019311936D937C93CF010E944D
:105760008A2A8DC05B01A01AB10A4C01800E911EDD
:10577000A0918C07B0918D0740E050E0E12CF12C16
:10578000109709F44AC0A815B905D1F56D907C9021
:105790001197630182E0C80ED11CCA14DB0480F1AA
:1057A000A3014A195B096A0182E0C80ED11C129656
:1057B000BC9012971396AC91B5E0CB16D10440F093
:1057C000B282A38351834083D9016D937C930AC035
:1057D0000E5F1F4FC301800F911FF90191838083DA
:1057E000EB2DFA2FE114F10431F0D7011396FC935D
:1057F000EE93129744C0F0938D07E0938C073FC05F
:105800008D919C9111974817590708F4AC017D01BF
:1058100012960D90BC91A02DB3CF80918A079091E4
:105820008B0788159905E1F446175707C8F480914E
:10583000000190910101009741F48DB79EB740910E
:10584000040150910501841B950BE817F907C8F472
:10585000F0938B07E0938A07F901718360830FC08F
:10586000CB010E94F5297C01009759F0A801BE01E7
:105870000E94582CCE010E948A2AC70104C0CE0182
:1058800002C080E090E0CDB7DEB7EEE00C94D331FB
:10589000F8940C941532FB01DC0104C08D91019049
:1058A000801921F441505040C8F7881B990B089586
:1058B000FB01DC0102C001900D9241505040D8F72D
:1058C0000895FB01DC018D91019080190110D9F33D
:1058D000990B0895FB01DC0101900D920020E1F786
:1058E00008954532510520F4423010F00C947C2C80
:1058F000FB011082CB010895BB274A3031F4992374
:1059000022F4BDE2909581959F4F0C94C02C2532D6
:10591000310520F4223010F00C94922CFA01108200
:10592000CA010895BB27FA01A62F621771058105E8
:105930009105330B30FB66F0AA27660F771F881F8F
:10594000991FAA1FA21710F0A21B63953850A9F740
:10595000A05DAA3308F0A95DA19336F7B111B19308
:105960001082CA010C9448314532510520F442306E
:1059700010F00C94BF2CFB011082CB010895BB27C3
:10598000FB015527AA27880F991FAA1FA41710F0FB
:10599000A41B83955051B9F7A05DAA3308F0A95D07
:1059A000A193009779F7B111B1931192CB010C94A7
:1059B00048315058BB27AA270E94F12C0C943B2E4B
:1059C0000E942D2E38F00E94342E20F039F49F3F93
:1059D00019F426F40C942A2E0EF4E095E7FB0C94AF
:1059E000242EE92F0E944C2E58F3BA176207730732
:1059F0008407950720F079F4A6F50C946E2E0EF42A
:105A0000E0950B2EBA2FA02D0B01B90190010C01CE
:105A1000CA01A0011124FF27591B99F0593F50F4E6
:105A2000503E68F11A16F040A22F232F342F44273E
:105A3000585FF3CF469537952795A795F040539536
:105A4000C9F77EF41F16BA0B620B730B840BBAF006
:105A50009150A1F0FF0FBB1F661F771F881FC2F771
:105A60000EC0BA0F621F731F841F48F48795779585
:105A70006795B795F7959E3F08F0B0CF9395880F3F
:105A800008F09927EE0F9795879508950E945A2D53
:105A90000C943B2E0E94342E58F00E942D2E40F084
:105AA00029F45F3F29F00C94242E51110C946F2E91
:105AB0000C942A2E0E944C2E68F39923B1F355239F
:105AC00091F3951B550BBB27AA2762177307840711
:105AD00038F09F5F5F4F220F331F441FAA1FA9F3A7
