:100000000C9466000C948E000C948E000C948E0060
:100010000C948E000C948E000C94040F0C948E00A3
:100020000C948E000C948E000C948E000C948E0018
:100030000C948E000C948E000C948E000C948E0008
:100040000C94FD060C948E000C946C090C949E0983
:100050000C948E000C948E000C948E000C948E00E8
:100060000C94DC200C948E000000000800020100BB
:100070000003040700000000000000000102040863
:100080001020408001020408102001020408102002
:10009000040404040404040402020202020203032E
:1000A0000303030300000000250028002B000000CC
:1000B0000000240027002A009000CE097E0AFD0ED1
:1000C000FF11AF180419E41F9C22F40011241FBE75
:1000D000CFEFD8E0DEBFCDBF13E0A0E0B1E0ECE6AB
:1000E000FBE502C005900D92AA3FB107D9F726E0C3
:1000F000AAEFB3E001C01D92A43CB207E1F710E003
:10010000C5E6D0E004C02197FE010E948C2DCC35BD
:10011000D107C9F70E94FC090C94502A0C940000E6
:100120000F9300E020E040E060E080EB94E00E946C
:10013000570A01E021E041E06AE08AEA94E00E9487
:10014000570A8FE894E00E94871184E794E00E94A8
:10015000871189E594E00E94871163E973E083E3E6
:1001600094E00E94F70A89E294E00E94F41B0E9446
:100170004707609325047093260480932704909387
:10018000280484E294E00E946A0E83E294E00E94D4
:100190006A0E8BE194E00E94830DEAEFF3E08DE9B3
:1001A0009FEFAFEFBFEF80839183A283B3839583EB
:1001B000848380E090E0A6ECB2EC86839783A087EE
:1001C000B18782879387A487B58786879787A08B17
:1001D000B18B828B938BA48BB58B148E158E168E60
:1001E000178E10A20F91089583E394E00C94890A6E
:1001F0000F931F93CF93DF93CDB7DEB768970FB6FA
:10020000F894DEBF0FBECDBF8C010E944707AB0143
:10021000BC012AE0CE0101960E949C0B6091FE0376
:100220007091FF034AE0CE010D960E94700B66E1CB
:1002300071E0CE0107960E94F70ABE01635F7F4F0F
:10024000CE0107960E94F70B6AE771E00E940A0C44
:10025000BE016F5F7F4F0E94F70B6CE171E00E945F
:100260000A0CB8010E94F70BBC01CE0143960E9414
:10027000230BCE0107960E94890ACE010D960E949B
:10028000890ACE0101960E94890A40910A01509183
:100290000B0184EA93E09A8389838091AC04909166
:1002A000AD04A091AE04B091AF048B839C83AD8369
:1002B000BE83BE016F5F7F4F89E594E00E94EF0F20
:1002C000BE016D5E7F4F89E594E00E94C80889E514
:1002D00094E00E94F70FCE0143960E94890A689627
:1002E0000FB6F894DEBF0FBECDBFDF91CF911F9147
:1002F0000F9108958F929F92AF92BF92CF92DF920B
:10030000EF92FF920F931F93CF93DF9300D000D013
:1003100000D0CDB7DEB760E47FE182E695E00E94D1
:100320007B0F0E9447074B015C0126E040E051EE45
:1003300060E070E08FEB94E00E94170D6FE171E0D8
:100340008FEB94E00E94EB0860E082E00E94550889
:1003500061E082E00E94190860E082E00E94550896
:1003600060E085E00E94550861E085E00E94190880
:1003700060E085E00E94550860E086E00E94550834
:1003800061E086E00E94190860E086E00E9455085E
:1003900061E083E00E94550861E083E00E94190853
:1003A00061E083E00E94550861E087E00E94550803
:1003B00061E087E00E94190861E087E00E9455082B
:1003C00061E084E00E94550861E084E00E94190821
:1003D00061E084E00E94550803E514E090E1E92E15
:1003E00094E0F92E80913104909132049C012F5FAA
:1003F0003F4F30933204209331040E94A12DF80125
:1004000081938F01F70181937F01F4E009351F0784
:1004100049F710EAE12E1FE0F12E00E010E020E69F
:100420003AEE40E050E063E574E08CE795E00E942E
:100430008517892B61F46FE271E08FEB94E00E94E5
:10044000EB0860E177E280E090E00E9478076DE6DB
:1004500071E08FEB94E00E94EB086CE775E0CE0151
:1004600001960E948718BE016F5F7F4F8FEB94E06B
:100470000E94FD0860910E0170910F018FE894E0D9
:100480000E94701060910C0170910D0184E794E05E
:100490000E94701060910A0170910B0189E594E04F
:1004A0000E9470106CED75E080E090E00E9478078B
:1004B0006CE771E0CE0101960E94F70ACE01019629
:1004C0000E94F800CE0101960E94890A6DE871E051
:1004D000CE0101960E94F70ACE0101960E94F80013
:1004E000CE0101960E94890A6FEA71E0CE01019661
:1004F0000E94F70ACE0101960E94F800CE010196F3
:100500000E94890A4AE060915304CE0101960E943C
:10051000430BCE0101960E94F800CE0101960E9485
:10052000890A4AE060915404CE0101960E94430B6F
:10053000CE0101960E94F800CE0101960E94890A20
:100540004AE060915504CE0101960E94430BCE0112
:1005500001960E94F800CE0101960E94890A4AE0A5
:1005600060915604CE0101960E94430BCE01019684
:100570000E94F800CE0101960E94890A4AE060912B
:100580005704CE0101960E94430BCE0101960E94B2
:10059000F800CE0101960E94890A4AE06091580451
:1005A000CE0101960E94430BCE0101960E94F800F5
:1005B000CE0101960E94890A4FEF6EE389E294E032
:1005C0000E94AE1E882309F4F2C062EC71E08FEB4A
:1005D00094E00E94EB0862EC71E0CE0101960E946B
:1005E000F70ACE0101960E94F800CE0101960E9402
:1005F000890A40E060E089E294E00E944B1E40E0FE
:1006000060E089E294E00E94561D40E061E089E2EA
:1006100094E00E944B1E40E061E089E294E00E9479
:10062000561D40E062E089E294E00E944B1E40E0EB
:1006300062E089E294E00E94561D40E063E089E2B6
:1006400094E00E944B1E40E063E089E294E00E9447
:10065000561D40E064E089E294E00E944B1E40E0B9
:1006600064E089E294E00E94561D40E065E089E282
:1006700094E00E944B1E40E065E089E294E00E9415
:10068000561D40E066E089E294E00E944B1E40E087
:1006900066E089E294E00E94561D40E067E089E24E
:1006A00094E00E944B1E40E067E089E294E00E94E3
:1006B000561D40E068E089E294E00E944B1E40E055
:1006C00068E089E294E00E94561D40E069E089E21A
:1006D00094E00E944B1E40E069E089E294E00E94B1
:1006E000561D40E06AE089E294E00E944B1E40E023
:1006F0006AE089E294E00E94561D40E06BE089E2E6
:1007000094E00E944B1E40E06BE089E294E00E947E
:10071000561D41E06CE089E294E00E944B1E41E0EE
:100720006DE089E294E00E944B1E41E06EE089E2B8
:1007300094E00E944B1E41E06FE089E294E00E9449
:100740004B1E00E010E0602F89E294E00E947D1DC6
:1007500090E0002E02C0880F991F0A94E2F7C82A81
:10076000D92A69ED71E0CE0101960E94F70ACE0107
:1007700001960E94F800CE0101960E94890A4AE083
:10078000B601CE0101960E94700BCE0101960E9427
:10079000F800CE0101960E94890AD092FF03C09210
:1007A000FE030F5F1F4F0630110569F614C063EF9B
:1007B00071E08FEB94E00E94EB0863EF71E0CE01F3
:1007C00001960E94F70ACE0101960E94F800CE0120
:1007D00001960E94890A0E9447076B017C016DE027
:1007E00072E0CE0101960E94F70ACE0101960E94A6
:1007F000F800CE0101960E94890AB701A6014819A6
:1008000059096A097B092AE0CE0101960E949C0BD6
:10081000CE0101960E94F800CE0101960E94890A3D
:1008200026960FB6F894DEBF0FBECDBFDF91CF91F5
:100830001F910F91FF90EF90DF90CF90BF90AF90FE
:100840009F908F900895CF93DF9300D000D000D079
:10085000CDB7DEB764E272E08FEB94E00E94EB0864
:1008600064E272E0CE0101960E94F70ACE01019681
:100870000E94F800CE0101960E94890A64EF71E09F
:1008800080E090E00E94780760E084E00E945508D4
:1008900026960FB6F894DEBF0FBECDBFDF91CF9185
:1008A0000895CF93DF93CDB7DEB72C970FB6F894AA
:1008B000DEBF0FBECDBF48E150E069E374E08FE8D2
:1008C00094E00E94381069E374E0CE0107960E941C
:1008D000F70A6BE372E0CE0107960E94230C88238F
:1008E00049F060E472E08FEB94E00E94EB0860E472
:1008F00072E0C7C061E572E0CE0107960E94230C4A
:10090000882361F061E082E00E94550881E08093D5
:10091000160482E695E00E940E0FD9C06EE572E0E3
:10092000CE0107960E94230C882339F060E082E014
:100930000E94550810921604ECCF6CE672E0CE01CE
:1009400007960E94230C882371F06AE772E08FEB10
:1009500094E00E94EB0860E083E00E94550881E08B
:1009600080931904D6CF68E872E0CE0107960E9402
:10097000230C882369F067E972E08FEB94E00E9412
:10098000EB0861E083E00E94550810921904C1CF82
:1009900066EA72E0CE0107960E94230C882371F06C
:1009A00064EB72E08FEB94E00E94EB0860E087E07C
:1009B0000E94550881E080931A04ABCF62EC72E08C
:1009C000CE0107960E94230C882369F061ED72E046
:1009D0008FEB94E00E94EB0861E087E00E945508ED
:1009E00010921A0496CF60EE72E0CE0107960E9434
:1009F000230C882341F061E085E00E94550881E0E6
:100A00008093170486CF67EE72E0CE0107960E94AE
:100A1000230C882339F060E085E00E94550810928D
:100A2000170477CF6FEE72E0CE0107960E94230C79
:100A3000882371F066EF72E08FEB94E00E94EB0880
:100A400061E086E00E94550881E08093180461CF40
:100A50006DEF72E0CE0107960E94230C882339F0D7
:100A600060E086E00E9455081092180452CF65E0BD
:100A700073E0CE0107960E94230C882379F06AE088
:100A800073E0CE0101960E94F70ACE0101960E9402
:100A9000F800CE0101960E94890A3BCF6FE073E017
:100AA000CE0107960E94230C882319F00E9423048C
:100AB0000EC065E173E0CE0101960E94F70ACE01F7
:100AC00001960E94F800CE0101960E94890A88E1F1
:100AD000E9E3F4E0DF011D928A95E9F7CE0107967C
:100AE0000E94890A2C960FB6F894DEBF0FBECDBFC8
:100AF000DF91CF9108958F929F92AF92BF92CF9244
:100B0000DF92EF92FF92CF93DF9300D000D000D01E
:100B1000CDB7DEB70E9447074B015C016BE184E271
:100B200094E00E94BE0E882369F084E294E00E9463
:100B3000E00E60930004709301048093020490938C
:100B4000030420C060E373E08FEB94E00E94EB08A5
:100B500060E373E0CE0101960E94F70ACE01019690
:100B60000E94F800CE0101960E94890A80E090E080
:100B7000A6ECB2EC8093000490930104A0930204CD
:100B8000B09303046AE183E294E00E94BE0E8823DE
:100B900069F083E294E00E94E00E60930404709395
:100BA0000504809306049093070420C066E473E074
:100BB0008FEB94E00E94EB0866E473E0CE010196AF
:100BC0000E94F70ACE0101960E94F800CE0101961C
:100BD0000E94890A80E090E0A6ECB2EC80930404C5
:100BE00090930504A0930604B09307048BE194E06E
:100BF0000E949A0D8823C9F08BE194E00E94C80DF1
:100C0000609308047093090480930A0490930B0482
:100C10008BE194E00E94190E60930C0470930D0414
:100C200080930E0490930F0428C06CE573E08FEB63
:100C300094E00E94EB086CE573E0CE0101960E94FF
:100C4000F70ACE0101960E94F800CE0101960E949B
:100C5000890A80E090E0A6ECB2EC809308049093BF
:100C60000904A0930A04B0930B0480930C0490939E
:100C70000D04A0930E04B0930F040E9447076B016C
:100C80007C018091250490912604A0912704B091C5
:100C90002804B701A601481B590B6A0B7B0B413D89
:100CA00087E058076105710508F45AC02AE0CE01B3
:100CB00001960E949C0BCE0101960E94F800CE0185
:100CC00001960E94890A0E9447076093FA03709375
:100CD000FB038093FC039093FD0340910C01509122
:100CE0000D0184EA93E09A8389838091AC0490910A
:100CF000AD04A091AE04B091AF048B839C83AD830F
:100D0000BE83BE016F5F7F4F84E794E00E94EF0FC8
:100D100041E250E06AEF73E084E794E00E94FB0F49
:100D200084E794E00E94F70F6FE673E08FEB94E0A6
:100D30000E94EB086FE673E0CE0101960E94F70A6D
:100D4000CE0101960E94F800CE0101960E94890A08
:100D5000C0922504D0922604E0922704F092280441
:100D60008FE894E00E949D10909352048093510468
:100D70001816190614F40E9451048CE795E00E949D
:100D800022180E9447076B017C0162E873E0CE01E4
:100D900001960E94F70ACE0101960E94F800CE014A
:100DA00001960E94890AB701A601481959096A09E2
:100DB0007B092AE0CE0101960E949C0BCE01019690
:100DC0000E94F800CE0101960E94890A64E670E054
:100DD00080E090E00E94780726960FB6F894DEBF78
:100DE0000FBECDBFDF91CF91FF90EF90DF90CF90FE
:100DF000BF90AF909F908F9008951F920F920FB663
:100E00000F9211242F933F938F939F93AF93BF9390
:100E10008091B7049091B804A091B904B091BA043C
:100E20003091B60423E0230F2D3720F40196A11D45
:100E3000B11D05C026E8230F0296A11DB11D209308
:100E4000B6048093B7049093B804A093B904B09308
:100E5000BA048091BB049091BC04A091BD04B091F0
:100E6000BE040196A11DB11D8093BB049093BC04E8
:100E7000A093BD04B093BE04BF91AF919F918F9199
:100E80003F912F910F900FBE0F901F9018952FB785
:100E9000F8946091B7047091B8048091B90490916E
:100EA000BA042FBF08953FB7F8948091BB04909186
:100EB000BC04A091BD04B091BE0426B5A89B05C09A
:100EC0002F3F19F00196A11DB11D3FBFBA2FA92FC9
:100ED000982F8827820F911DA11DB11DBC01CD0146
:100EE00042E0660F771F881F991F4A95D1F7089532
:100EF0008F929F92AF92BF92CF92DF92EF92FF922A
:100F00006B017C010E9453074B015C01C114D104A9
:100F1000E104F10401F10E94EF070E945307DC0194
:100F2000CB0188199909AA09BB09883E9340A105FC
:100F3000B10560F321E0C21AD108E108F10888EE9A
:100F4000880E83E0981EA11CB11CC114D104E104D9
:100F5000F10419F7DBCFFF90EF90DF90CF90BF90B7
:100F6000AF909F908F900895789484B5826084BDEF
:100F700084B5816084BD85B5826085BD85B581609D
:100F800085BDEEE6F0E0808181608083E1E8F0E0FD
:100F90001082808182608083808181608083E0E82C
:100FA000F0E0808181608083E1EBF0E0808184600B
:100FB0008083E0EBF0E0808181608083EAE7F0E00D
:100FC0008081846080838081826080838081816071
:100FD00080838081806880831092C1000895089585
:100FE000833081F028F4813099F08230A1F00895A7
:100FF0008730A9F08830B9F08430D1F48091800036
:101000008F7D03C0809180008F778093800008954A
:1010100084B58F7702C084B58F7D84BD089580919B
:10102000B0008F7703C08091B0008F7D8093B000B7
:101030000895CF93DF9390E0FC01E458FF4F249193
:10104000FC01E057FF4F8491882361F190E0880F05
:10105000991FFC01E255FF4FC591D491FC01EC555D
:10106000FF4FA591B491611109C09FB7F894888191
:10107000209582238883EC912E230BC0623061F48B
:101080009FB7F8943881822F809583238883EC91D1
:101090002E2B2C939FBF06C08FB7F894E8812E2B80
:1010A00028838FBFDF91CF9108951F93CF93DF9354
:1010B000282F30E0F901E859FF4F8491F901E458F5
:1010C000FF4FD491F901E057FF4FC491CC23C9F0F1
:1010D000162F81110E94F007EC2FF0E0EE0FFF1F9A
:1010E000EC55FF4FA591B4918FB7F894111105C03D
:1010F0009C91ED2FE095E92302C0EC91ED2BEC9350
:101100008FBFDF91CF911F91089580E090E0089507
:10111000CF92DF92EF92FF920F931F93CF93DF93C3
:101120006C017A018B01C0E0D0E0CE15DF0589F0BB
:10113000D8016D918D01D601ED91FC910190F08166
:10114000E02DC6010995892B11F47E0102C021967C
:10115000ECCFC701DF91CF911F910F91FF90EF90DE
:10116000DF90CF9008956115710579F0FB01019032
:101170000020E9F73197AF01461B570BDC01ED91D9
:10118000FC910280F381E02D099480E090E00895C5
:10119000DC01ED91FC91DB0114964D915C9115976A
:1011A0006D917C910280F381E02D0994DC01ED9139
:1011B000FC910190F081E02D0994DB01ED91FC910F
:1011C00011970190F081E02DBC01CD01099461E9F6
:1011D00073E00C94B3080F931F93CF93DF93EC014C
:1011E0000E94B3088C01CE010E94E708800F911F76
:1011F000DF91CF911F910F9108950F931F93CF937C
:10120000DF93EC010E94DD088C01CE010E94E7080B
:10121000800F911FDF91CF911F910F9108954F92F1
:101220005F926F927F92EF92FF920F931F93CF93F3
:10123000DF93CDB7DEB7A1970FB6F894DEBF0FBE30
:10124000CDBF7C01FA01CB0119A2223008F42AE0BB
:101250008E010F5D1F4F422E512C612C712CBF014E
:10126000A30192010E94FA2CF901CA01015011094F
:101270006A3014F4605D01C0695CD8016C93232B63
:10128000242B252B61F7B801C7010E94B308A19652
:101290000FB6F894DEBF0FBECDBFDF91CF911F9187
:1012A0000F91FF90EF907F906F905F904F90089517
:1012B0002115310541F4DC01ED91FC910190F081A3
:1012C000E02D642F09940C940F099A01462F50E0E9
:1012D00060E070E00C9458091F920F920FB60F92C5
:1012E00011242F938F939F93EF93FF93E091CF045B
:1012F000F091D0048081E091D504F091D60482FD74
:1013000012C090818091D8048F5F8F732091D9048F
:10131000821751F0E091D804F0E0E154FB4F958F33
:101320008093D80401C08081FF91EF919F918F91AC
:101330002F910F900FBE0F901F9018951F920F9234
:101340000FB60F9211242F933F934F935F936F9398
:101350007F938F939F93AF93BF93EF93FF938FEB05
:1013600094E00E948D0CFF91EF91BF91AF919F91FE
:101370008F917F916F915F914F913F912F910F903E
:101380000FBE0F901F9018958FEB94E00E94420CB7
:1013900021E0892B09F420E0822F0895EFEBF4E09F
:1013A0001382128288EE93E0A0E0B0E084839583FC
:1013B000A683B7838AEA93E09183808385EC90E0EB
:1013C0009587848784EC90E09787868780EC90E00F
:1013D000918B808B81EC90E0938B828B82EC90E000
:1013E000958B848B86EC90E0978B868B118E128E7A
:1013F000138E148E089508950E94B4070E94FB096D
:101400000E947A01CFE7DCE00E947B052097E1F3A0
:101410000E947F0CF9CF8F929F92AF92BF92CF9292
:10142000DF92EF92FF920F931F93CF93DF937C0194
:101430008B016C0182E0C80ED11C4701E5E08E0EE5
:10144000911CC0E0D0E0F60161916F014AE050E0EC
:10145000C8010E9465095C016EE2C8010E94D608BD
:101460008A0D9B1DC80FD91FC814D90461F74AE023
:1014700050E0F7016581C8010E9465098C0F9D1F2E
:10148000DF91CF911F910F91FF90EF90DF90CF9060
:10149000BF90AF909F908F90089524EA33E0FC01B5
:1014A00031832083128213821482158208950F9350
:1014B000FC0184EA93E091838083628343832483E5
:1014C00005830F91089524EA33E0FC0131832083E2
:1014D000FB014081518162817381FC01428353830E
:1014E000648375830895FB0140815181628173811A
:1014F000FC0142835383648375830895ECE5F5E032
:1015000084EA93E09183808312821382148215828D
:101510000895FC01808191810C949228CF93DF93F0
:10152000EC0188819981009711F00E94922819821C
:1015300018821D821C821B821A82DF91CF9108952E
:101540000F931F93CF93DF93EC018B016F5F7F4F5E
:10155000888199810E948629009731F09983888338
:101560001B830A8381E001C080E0DF91CF911F914E
:101570000F910895CF93DF93EC0188819981892B96
:1015800029F08A819B818617970760F4CE010E941B
:10159000A00A882341F08C819D81892B19F4E88170
:1015A000F981108281E0DF91CF910895EF92FF924F
:1015B0000F931F93CF93DF93EC017B018A01BA0154
:1015C0000E94BA0A811104C0CE010E948E0A07C08F
:1015D0001D830C83B701888199810E94722ACE01F4
:1015E000DF91CF911F910F91FF90EF900895FC0133
:1015F0001182108213821282158214826115710584
:1016000051F0FB0101900020E9F73197AF01461B33
:10161000570B0C94D60A0895CF93DF93EC01FB018E
:101620008617970761F0608171816115710529F056
:10163000448155810E94D60A02C00E948E0ACE01C2
:10164000DF91CF910895FC011182108213821282E2
:10165000158214820C940C0BCF93DF93EC0161156F
:10166000710559F0FB0101900020E9F73197AF01B6
:10167000461B570B0E94D60A02C00E948E0ACE015A
:10168000DF91CF9108950F931F93CF93DF93CDB741
:10169000DEB729970FB6F894DEBF0FBECDBF8C0121
:1016A000862FF80111821082138212821582148211
:1016B00050E0BE016F5F7F4F90E00E94BC2ABE01E8
:1016C0006F5F7F4FC8010E942C0B29960FB6F894CC
:1016D000DEBF0FBECDBFDF91CF911F910F91089557
:1016E0000F931F93CF93DF93CDB7DEB762970FB6FB
:1016F000F894DEBF0FBECDBF8C01CB01F801118283
:101700001082138212821582148250E0BE016F5F34
:101710007F4F0E94792ABE016F5F7F4FC8010E94F0
:101720002C0B62960FB6F894DEBF0FBECDBFDF91D3
:10173000CF911F910F9108950F931F93CF93DF9334
:10174000CDB7DEB7A1970FB6F894DEBF0FBECDBF01
:101750008C01CB01BA01F80111821082138212822E
:101760001582148230E0AE014F5F5F4F0E948F2AD6
:10177000BE016F5F7F4FC8010E942C0BA1960FB670
:10178000F894DEBF0FBECDBFDF91CF911F910F91B7
:101790000895EF92FF920F931F93CF93DF93FC0175
:1017A000248135816115710511F480E019C041155E
:1017B0005105A9F07B01EC018A01020F131FB8014A
:1017C0000E94BA0A882389F3288139818C819D81FE
:1017D000B701820F931F0E94722A1D830C8381E040
:1017E000DF91CF911F910F91FF90EF900895CF93CC
:1017F000DF93EC01FB0144815581608171810E947E
:10180000C90B811103C0CE010E948E0ACE01DF9167
:10181000CF910895CF93DF93EC016115710561F0CD
:10182000FB0101900020E9F73197AF01461B570BF0
:101830000E94C90B811103C0CE010E948E0ACE0105
:10184000DF91CF910895FC0124813581232B31F460
:1018500021E061157105A1F0FB0108C0FC01808148
:1018600091816115710531F421E0FC0180818823AB
:1018700039F005C00E94692A21E0892B09F020E097
:10188000822F0895FC01918D228D892F90E0805C3C
:101890009F4F821B91098F7399270895FC01918DA9
:1018A000828D981731F0828DE80FF11D858D90E0C3
:1018B00008958FEF9FEF0895FC01918D828D981709
:1018C00061F0828DDF01A80FB11D5D968C91928D24
:1018D0009F5F9F73928F90E008958FEF9FEF089521
:1018E000FC01538D448D252F30E0842F90E0821B26
:1018F000930B541710F0CF9608950197089584EC38
:1019000099E0892B49F080E090E0892B29F00E9432
:10191000C40981110C9400000895FC01848DDF013D
:10192000A80FB11DA35ABF4F2C91848D90E0019652
:101930008F739927848FA689B7892C93A089B18941
:101940008C9180648C93938D848D981306C002884B
:10195000F389E02D80818F7D80830895CF93DF937D
:10196000EC01888D8823C9F0EA89FB89808185FD97
:1019700005C0A889B9898C9186FD0FC00FB607FCF8
:10198000F5CF808185FFF2CFA889B9898C9185FF39
:10199000EDCFCE010E948D0CE7CFDF91CF9108955E
:1019A000EF92FF920F931F93CF93DF93EC0181E0AF
:1019B000888F9B8D8C8D981305C0E889F98980816B
:1019C00085FD24C0F62E0B8D10E00F5F1F4F0F73A7
:1019D0001127E02E8C8DE8120CC00FB607FCFACF51
:1019E000E889F989808185FFF5CFCE010E948D0CB1
:1019F000F1CF8B8DFE01E80FF11DE35AFF4FF0820E
:101A00000B8FEA89FB898081806207C0EE89FF899C
:101A10006083E889F98980818064808381E090E037
:101A2000DF91CF911F910F91FF90EF900895CF928A
:101A3000DF92EF92FF921F93CF93DF93EC016A0145
:101A40007B01122FE889F98982E080834115514E8C
:101A500061057105B1F060E079E08DE390E0A701E8
:101A600096010E94FA2CDA01C9010197A109B10976
:101A7000B695A79597958795AC01411580E15807D4
:101A8000A8F0E889F989108260E874E88EE190E0B6
:101A9000A70196010E94FA2CBA01A90141505109EF
:101AA000610971097695679557954795EC85FD8590
:101AB0005083EE85FF854083188EEC89FD89108365
:101AC000EA89FB89808180618083EA89FB89808142
:101AD00088608083EA89FB89808180688083EA89C5
:101AE000FB8980818F7D8083DF91CF911F91FF9053
:101AF000EF90DF90CF900895DC01ED91FC91019083
:101B0000F081E02D0994089560E470E08AEF95E09B
:101B10000E94621F6EEF70E08AEF95E00E947C0DDC
:101B20008AEF95E00E94E11F6FE070E080E090E0B6
:101B30000C947807CF93DF93EC018AEF95E00E9435
:101B40004E1FCE010E94840D60E470E08AEF95E0A4
:101B50000E94621F67EE70E08AEF95E00E947C0DA4
:101B60008AEF95E00E94E11F41E050E060E470E000
:101B70008AEF95E00E94DE1F8AEF95E00E94BB1E6F
:101B800021E0029709F020E0822FDF91CF910895A4
:101B9000CF93DF9360E470E08AEF95E00E94621FCC
:101BA00063EE70E08AEF95E00E947C0D8AEF95E08D
:101BB0000E94E11F62E370E080E090E00E947807FD
:101BC00043E050E060E470E08AEF95E00E94DE1FA1
:101BD0008AEF95E00E94B31E892BD1F38AEF95E03E
:101BE0000E94BB1ED82F80E0C82F8AEF95E00E948C
:101BF000BB1EC82BD92B8AEF95E00E94BB1EBE01ED
:101C000080E090E00E94EF2B22E538EB4FE253E4B6
:101C10000E947D2C20E030E040E857E30E947D2CBC
:101C200026E636E64BE352E40E94E12ADF91CF91AB
:101C30000895CF93DF9360E470E08AEF95E00E940F
:101C4000621F65EE70E08AEF95E00E947C0D8AEFDE
:101C500095E00E94E11F62E370E080E090E00E9466
:101C6000780743E050E060E470E08AEF95E00E947E
:101C7000DE1F8AEF95E00E94B31E892BD1F38AEF15
:101C800095E00E94BB1ED82F80E0C82F8AEF95E018
:101C90000E94BB1EC82BD92B8AEF95E00E94BB1E69
:101CA000BE0180E090E00E94EF2B20E030E04AEFA0
:101CB00052E40E947D2C20E030E040E857E30E948F
:101CC0007D2C20E030E040EC50E40E94E12ADF91DE
:101CD000CF91089508951F93CF93DF9300D0CDB790
:101CE000DEB7162FFC0160818AEF95E04A835983A5
:101CF0000E94581F612F8AEF95E00E940F1F5981A3
:101D0000652F8AEF95E00E940F1F4A81642F8AEFAA
:101D100095E00E940F1F8AEF95E00F900F90DF91E2
:101D2000CF911F910C94E11F1F93CF93DF93EC0190
:101D3000162F68818AEF95E00E94581F612F8AEF65
:101D400095E00E940F1F8AEF95E00E94E11F42E09C
:101D500068818AEF95E00E94DB1F8AEF95E00E9480
:101D6000BB1ED82F80E0C82F8AEF95E00E94BB1ED3
:101D70008C2B9D2BDF91CF911F910895CF93DF93F3
:101D8000EC0168838AEF95E00E944E1F66E0CE0169
:101D90000E94940E8435910511F080E00EC067E03A
:101DA000CE010E94940E81159440B9F740E050E0B6
:101DB00061E0CE010E946B0E81E0DF91CF9108952A
:101DC000CF93DF9365E00E94940EEC01BC017F701D
:101DD00080E090E00E94EF2B20E030E040E85DE3FF
:101DE0000E947D2CD4FF06C020E030E040E853E4A0
:101DF0000E94E12ADF91CF9108958FEF9FEF90939A
:101E000063058093620508951F920F920FB60F929B
:101E100011240F900FBE0F901F901895A89508954C
:101E2000DA01F90160348FE178071CF4611571055E
:101E300039F489E090E08D939C9380E49FE158C051
:101E4000603A8FE078073CF088E090E08D939C93B7
:101E500080EA9FE04DC0603D87E078073CF087E076
:101E600090E08D939C9380ED97E042C0683E83E0C4
:101E700078073CF086E090E08D939C9388EE93E0A9
:101E800037C0643F81E078073CF085E090E08D93B7
:101E90009C9384EF91E02CC06A3F71053CF084E094
:101EA00090E08D939C938AEF90E022C06837710593
:101EB0003CF083E090E08D939C9388E790E018C01D
:101EC0006C3371053CF082E090E08D939C938CE341
:101ED00090E00EC06E3171053CF081E090E08D9392
:101EE0009C938EE190E004C01D921C928FE090E0E4
:101EF0009183808308950F931F93CF93DF9300D036
:101F0000CDB7DEB78C019E012F5F3F4FAC010E9421
:101F1000100FF801808183FD02C098E001C098E2B3
:101F20008770892B98E10FB6F894A895909360007C
:101F30000FBE8093600089819A810F900F90DF918E
:101F4000CF911F910F910895DC01ED91FC91048CCC
:101F5000F58DE02D099424EA33E0FC0131832083E0
:101F6000FB014089518962897389FC014283538353
:101F7000648375830895FC01848995890895FC0123
:101F8000818D928D0895CF93DF931F92CDB7DEB7E9
:101F90006983DC01ED91FC910280F381E02D41E049
:101FA00050E0BE016F5F7F4F09950F90DF91CF9199
:101FB00008950895CF93DF93EC01888D843061F00C
:101FC0000E945A15E88DF0E0EE0FFF1FEE51FA4F18
:101FD0001182108284E0888FDF91CF910895FC01F7
:101FE000178A168A6E5F7F4F808D0C94D816FC017D
:101FF000808D0C941E17CF93DF93EC019A018E898C
:102000009F89AB01BC01888D0E9491162E893F8962
:10201000280F391F3F8B2E8BDF91CF9108950F939F
:102020001F93CF93DF931F92CDB7DEB7FC01218DB5
:10203000328D232B61F08C0141E050E0BE016F5FD7
:102040007F4F808D0E94D715181619061CF08FEF50
:102050009FEF08C0F801818D928D0197928F818F3B
:10206000898190E00F90DF91CF911F910F9108959A
:10207000CF93DF93FC01218D328D2115310519F4A9
:102080008FEF9FEF11C0EC014217530708F0A90131
:10209000888D0E94D7151816190694F7298D3A8D48
:1020A000281B390B3A8F298FDF91CF910895CF9359
:1020B000DF931F92CDB7DEB7FC01218D328D232B2C
:1020C00049F0BE016F5F7F4F808D0E94621689814B
:1020D00090E002C08FEF9FEF0F90DF91CF910895B6
:1020E000EF92FF921F93CF93DF93FC01208D24305A
:1020F00011F080E01CC07B01EC0110E0812F0E94F8
:102100003215811102C0188F05C08831E1F31F5FBD
:102110001430A1F7888D843061F3FD86EC861A8E29
:10212000198E20E0A70162E00E94841581E0DF9112
:10213000CF911F91FF90EF9008950F931F93CF932E
:10214000DF93CDB7DEB728970FB6F894DEBF0FBE8A
:10215000CDBF8C01F801818D928D892B49F0D8017A
:10216000ED91FC910284F385E02DC8010995F2CF31
:10217000808D0E9437161816190654F548E050E075
:10218000BE016F5F7F4FD80158968C910E94D71582
:102190009C0118161906D4F4BE016F5F7F4FC80169
:1021A0000E960E94730A8D8190E0982F88272E81C9
:1021B000820F911DF801958B848B2F8130E0322F97
:1021C00022278885280F311D328F218FC90102C037
:1021D00080E090E028960FB6F894DEBF0FBECDBF2A
:1021E000DF91CF911F910F9108958F929F92AF929F
:1021F000BF92CF92DF92EF92FF920F931F93CF93F4
:10220000DF9300D000D000D0CDB7DEB7FC01208D29
:10221000243009F068C06A017B018C0153E0852EEF
:1022200054E0952EA12CB12CC4010E94D81281112A
:1022300003C0F801A08E0AC08831D9F3FFEFAF1AAE
:10224000BF0A9394E4E0AE16B10471F7F801808DF3
:10225000843009F448C096E0E0E1F1E0DE01119637
:1022600001900D929A95E1F7F70193819F779C83F6
:1022700094819D8395819E83B7016E5F7F4F90E02F
:10228000982F882744E050E0845F9B4F0E94A9125A
:10229000F801E08CF12CF4E0EF0EF11CFE2CEE24A2
:1022A0006D2DC70140960E9415126C2DC7014196F5
:1022B0000E941512F801808D90E0982F882746E043
:1022C00050E0BE016F5F7F4F8A5F9B4F0E94A91253
:1022D000F801128E118E20E8A60162E0808D0E9426
:1022E000841581E001C080E026960FB6F894DEBF29
:1022F0000FBECDBFDF91CF911F910F91FF90EF9057
:10230000DF90CF90BF90AF909F908F900895CF9324
:10231000DF93EC011B821A8288EE93E0A0E0B0E02C
:102320008C839D83AE83BF838CEB93E099838883FA
:10233000CE010E960E944D0A84E0888FDF91CF91E6
:102340000895CF92DF92EF92FF920F931F93CF9356
:10235000DF93CDB7DEB7AF970FB6F894DEBF0FBEF1
:10236000CDBF8C016B017A01CE0101960E944D0A0E
:10237000CE0109960E948711CE018A960E944D0ACD
:102380006CE775E0CE0184960E949F18BE016C5DDB
:102390007F4FCE0101960E94C118AE01465D5F4F8E
:1023A000B601CE0101960E94301B81309105C1F427
:1023B000D801ED91FC910488F589E02D84EA93E041
:1023C0009DA38CA38CA59DA5AEA5BFA58EA39FA301
:1023D000A8A7B9A7A701BE016C5D7F4FC8010995E9
:1023E000AF960FB6F894DEBF0FBECDBFDF91CF9191
:1023F0001F910F91FF90EF90DF90CF9008950F9372
:1024000000E020E040E060E084E695E00E94570AAA
:102410000F9108958EBD00000DB407FEFDCF8EB55F
:1024200008952A9808952A9A08951F93CF93DF93C9
:1024300000D0CDB7DEB7182F6A8399830E9411129E
:1024400080EF0E940A129981892F0E940A12812F1F
:102450000E940A126A81862F0E940A120E94131299
:1024600081E00F900F90DF91CF911F910895CF934E
:10247000DF93EC016CE271E080E090E00E9478076D
:102480000E94BE1B229A8091F805882399F02FB7ED
:10249000F8948091F805813059F48DB38093F60556
:1024A0009DB38091F705809589238DBB2FBF02C016
:1024B0002093F60580E58CBD1DBC60E880E090E0CF
:1024C0000E94151265E58BE190E00E94151265E50A
:1024D0008AE190E00E9415128091F805882351F05E
:1024E0009FB7F8942091F8058091F605213029F5E1
:1024F0008DBB9FBF80E090E49983888380E090E665
:102500009987888780E098E49B838A8380E098E6B7
:102510009B878A8780E090E59D838C8380E090E7AD
:102520009D878C8780E098E59F838E8380E098E785
:102530009F878E87DF91CF9108958FBFDBCF9B015F
:1025400090E00496982F8827642F820F931F0C9495
:102550001512CF92DF92EF92FF920F931F93CF93BA
:10256000DF93EC017A018B016C01C40ED51ECC15F2
:10257000DD05A1F00E94111280EF0E940A128D2F3A
:102580000E940A128C2F0E940A122196F801819152
:102590008F010E940A120E941312E9CFC701DF9136
:1025A000CF911F910F91FF90EF90DF90CF90089502
:1025B0001F93CF93DF931F92CDB7DEB7182F998368
:1025C0000E9411128FE00E940A129981892F0E94A5
:1025D0000A12812F0E940A1280E00E940A12898347
:1025E0000E94131289810F90DF91CF911F9108955E
:1025F00090E00496982F8827860F971F0C94D81286
:102600001F93CF93DF93182F60E270E00E94F812BF
:10261000C82FD0E061E270E0812F0E94F812DC2F19
:10262000CC279E01282BC901DF91CF911F910895DE
:10263000FF920F931F93CF93DF93F62EC0E0D0E06D
:102640008F2D0E9400138C01892B21F08F2D0E9469
:102650000013EC01C017D10799F7CE01DF91CF919C
:102660001F910F91FF9008951F93CF93DF93182F21
:1026700066E270E00E94F812C82FD0E067E270E0D6
:10268000812F0E94F812DC2FCC279E01282BC90134
:10269000DF91CF911F910895FF920F931F93CF93D6
:1026A000DF93F62EC0E0D0E08F2D0E9434138C0112
:1026B000892B21F08F2D0E943413EC01C017D10714
:1026C00099F7CE01DF91CF911F910F91FF9008955F
:1026D0006F927F928F929F92AF92BF92CF92DF9232
:1026E000EF92FF920F931F93CF93DF931F92CDB77B
:1026F000DEB7882E962E6A01590164E270E0892DBA
:1027000099830E94F812E82EF12C65E270E0892D81
:102710000E94F812FE2CEE24E82A37016C0C7D1C76
:10272000A3015770E82C9981F92EE90CF11CE90CF2
:10273000F11CF70180819181840F951F9A01200F70
:10274000311F2130384098F060E078E06B01C41A06
:10275000D50AA601B5010E94A912A8014C195D096C
:10276000B5016C0D7D1DF7018081918102C0A8012A
:10277000B5010E94A912060D171D412F64E270E0F9
:10278000892D0E949F12402F65E270E0892D0F90E5
:10279000DF91CF911F910F91FF90EF90DF90CF903D
:1027A000BF90AF909F908F907F906F900C949F12EE
:1027B000CF92DF92EF92FF920F931F93CF93DF930D
:1027C000EC017A018B016C01C40ED51ECC15DD0520
:1027D000A9F00E9411128FE00E940A128D2F0E9410
:1027E0000A128C2F0E940A12219680E00E940A127F
:1027F000F80181938F010E941312E8CFC701DF9186
:10280000CF911F910F91FF90EF90DF90CF9008959F
:10281000AF92BF92CF92DF92EF92FF920F931F93EE
:10282000CF93DF9300D0CDB7DEB75A8349835901E8
:1028300029813A8137706C01C60ED11CC60ED11C9D
:10284000F60180859185820F931FA801420F531FC7
:102850004130584098F0E0E0F8E07F01E21AF30AD6
:10286000A701B5010E94D813A8014E195F09B5014F
:102870006E0D7F1DF6018085918502C0A801B5010E
:102880000F900F90DF91CF911F910F91FF90EF90DC
:10289000DF90CF90BF90AF900C94D8138F929F92FF
:1028A000AF92BF92CF92DF92EF92FF920F931F935E
:1028B000CF93DF936C01962E5A017901802E68E246
:1028C00070E0892D0E94F812C82FD0E069E270E014
:1028D000892D0E94F812DC2FCC27C82B8701950187
:1028E000AE01692DC6010E94081481101AC0CE0DD8
:1028F000DF1D4D2F68E270E0892D0E949F124C2F42
:1029000069E270E0892DDF91CF911F910F91FF90C7
:10291000EF90DF90CF90BF90AF909F908F900C94EE
:102920009F12DF91CF911F910F91FF90EF90DF9059
:10293000CF90BF90AF909F908F900895CF93C62F68
:1029400061E070E08C2F0E949F1261E070E08C2F9C
:102950000E94F8128111F9CFCF9108950F93FC01D5
:1029600030E080E092E1AAE7B0E0481759076A0733
:102970007B0740F4B695A795979587953F5F3630CE
:10298000A1F737E091E09327222311F020E501C061
:1029900020E7892F86950C70082B022B00839170FD
:1029A00091830F9108952091F805222399F04FB754
:1029B000F8942091F805213059F42DB32093F605B1
:1029C0003DB32091F705209523232DBB4FBF02C0B7
:1029D0004093F6058CBD9DBD08958091F805882330
:1029E00061F09FB7F8942091F8058091F6052130A9
:1029F00019F48DBB9FBF08958FBF089590E0982F65
:102A0000882744E050E0845F9B4F0C94A91262E059
:102A100070E00C94F812CF93DF93C82FD62F472F76
:102A200064E070E00E949F124D2F65E070E08C2FF3
:102A3000DF91CF910C949F12462F62E070E00C94CE
:102A40009F12CF93DF93C82FD62F472F60E170E0FE
:102A50000E949F124D2F61E170E08C2FDF91CF918A
:102A60000C949F120F931F93CF93DF9300D01F926C
:102A7000CDB7DEB7182F00E021E040E059E06DE36C
:102A800070E0CE0101960E94AE1489819A810E9465
:102A9000D31463E070E0812F0E94F8128B830E94B0
:102AA000ED148B810F900F900F90DF91CF911F91BC
:102AB0000F9108950F931F93CF93DF9300D0CDB75D
:102AC000DEB7182F00E021E040E059E06DE370E050
:102AD000CE0101960E94AE1489819A810E94D3147E
:102AE00040E150E0612F8AE695E00E949E146FEF6E
:102AF000812F0E941C150E94ED140F900F90DF9102
:102B0000CF911F910F910895CF92DF92EF92FF9294
:102B10000F931F93CF93DF9300D0CDB7DEB79FEF16
:102B2000960F9530C0F5F22E6A01E62E182F0E94FE
:102B30005A1500E021E040E059E06DE370E0CE017D
:102B400001960E94AE1489819A810E94D3144E2D61
:102B50004F2960E070E0812F0E949F12C114D104C0
:102B600011F0B6010AC060917A0570917B056F5F24
:102B70007F4F70937B0560937A05812F0E940B1520
:102B800041E050E0612F8AE695E00E949E140E9489
:102B9000ED1481E001C080E00F900F90DF91CF91A4
:102BA0001F910F91FF90EF90DF90CF900895AF921B
:102BB000BF92CF92DF92EF92FF920F931F93CF932A
:102BC000DF9300D0CDB7DEB7182F5B016A0100E0BC
:102BD00021E040E059E06DE370E0CE0101960E94F3
:102BE000AE1489819A810E94D314612F8AE695E000
:102BF0000E944C137C010097A1F463E070E0812FE8
:102C00000E94F812843119F1882309F121E030E0A3
:102C10008C3111F420E030E0EE24FF24E21AF30AB4
:102C200016C0C816D9060CF476011E141F047CF4D5
:102C300000E09701A501612F8AE695E00E944E14FD
:102C400040E450E0612F8AE695E00E949E140E94C5
:102C5000ED14C7010F900F90DF91CF911F910F914D
:102C6000FF90EF90DF90CF90BF90AF9008950F93BB
:102C70001F93CF93DF9300D000D0CDB7DEB7182FCE
:102C800000E021E040E059E06DE370E0CE01019604
:102C90000E94AE1489819A810E94D314612F8AE622
:102CA00095E00E944C138B839C830E94ED148B81D2
:102CB0009C810F900F900F900F90DF91CF911F91FB
:102CC0000F910895EF92FF920F931F93CF93DF938D
:102CD00000D0CDB7DEB7182F7B0100E021E040E047
:102CE00059E06DE370E0CE0101960E94AE14898137
:102CF0009A810E94D31401E021E030E0A701612F06
:102D00008AE695E00E944E140E94ED1481E090E066
:102D10000F900F90DF91CF911F910F91FF90EF9047
:102D200008958F929F92AF92BF92DF92EF92FF929F
:102D30000F931F93CF93DF9300D0CDB7DEB7D82E7C
:102D40005B014A01790100E021E040E059E06DE3D8
:102D500070E0CE0101960E94AE1489819A810E9492
:102D6000D3146D2D8AE695E00E9418138E159F05E9
:102D700030F46D2D8AE695E00E9418137C018701DE
:102D80009401A5016D2D8AE695E00E9468130E94CA
:102D9000ED14C7010F900F90DF91CF911F910F910C
:102DA000FF90EF90DF90BF90AF909F908F9008952D
:102DB000CF92DF92EF92FF920F931F93CF93DF9307
:102DC00000D0CDB7DEB7FB019081911109C0918190
:102DD000911106C09281911103C09381992309F149
:102DE00041155105F1F06A017F01182F00E021E043
:102DF00040E059E06DE370E0CE0101960E94AE1410
:102E000089819A810E94D314B701812F0E94FE14F8
:102E1000B601812F0E9421150E94ED1481E090E0FF
:102E200002C080E090E00F900F90DF91CF911F9152
:102E30000F91FF90EF90DF90CF9008950F931F9325
:102E4000CF93DF9300D0CDB7DEB7182F00E021E09D
:102E500040E059E06DE370E0CE0101960E94AE14AF
:102E600089819A810E94D31440E250E0612F8AE662
:102E700095E00E949E14812F0E94071584FD21C0B9
:102E8000812F0E94071583FF09C068E1812F0E94EE
:102E90001C150E94ED1480E090E01BC00E94ED1410
:102EA0000E94EF0700E021E040E059E06DE370E0B0
:102EB000CE0101960E94AE1489819A810E94D3149A
:102EC000DACF60E1812F0E941C150E94ED1481E091
:102ED00090E00F900F90DF91CF911F910F91089587
:102EE00044E050E0BC0181E090E00C94A91244E081
:102EF00050E0BC0185E090E00C94A91244E050E061
:102F0000BC018FE090E00C94A9122F923F924F9257
:102F10005F926F927F928F929F92AF92BF92CF9269
:102F2000DF92EF92FF920F931F93CF93DF9300D026
:102F300000D000D0CDB7DEB76C011B0129013A01EA
:102F40004701580184E895E0F601978386838AE675
:102F500095E00E94371280E590E00E94D31446E08D
:102F600050E0B10189E090E00E94A91200E020E069
:102F700040E060E0CE0101960E94570ACE01039620
:102F80000E947E170E94ED1485017401A301920135
:102F9000B101F601868197810E9421278C0101975A
:102FA000B9F580E590E00E94D314F601668177813F
:102FB000CE0101960E945B22CE0103960E947E17ED
:102FC000F60166817781CE0101960E947122CE01C1
:102FD00003960E947017F60166817781CE010196F3
:102FE0000E946622CE0103960E9477170E94ED147C
:102FF000F60166817781CE0101960E947C228B8149
:103000009C81AD81BE81F60182839383A483B583C5
:10301000C80126960FB6F894DEBF0FBECDBFDF9174
:10302000CF911F910F91FF90EF90DF90CF90BF90C5
:10303000AF909F908F907F906F905F904F903F9058
:103040002F900895EF92FF920F931F93CF93DF93EA
:1030500000D000D000D0CDB7DEB7FC01268137818B
:103060002115310509F443C08C01C9010E94602774
:103070007C01029721F084E0E816F104D1F580E5A7
:1030800090E00E94D314F80166817781CE01019609
:103090000E945B22CE0103960E947E17F801668192
:1030A0007781CE0101960E947122CE0103960E9483
:1030B0007017F80166817781CE0101960E94662221
:1030C000CE0103960E9477170E94ED14F8016681E5
:1030D0007781CE0101960E947C228B819C81AD81FB
:1030E000BE81F80182839383A483B58302C0E12C5F
:1030F000F12CC70126960FB6F894DEBF0FBECDBFE8
:10310000DF91CF911F910F91FF90EF900895CF9392
:10311000DF93EC010E944D0A80E590E00E94D314F9
:10312000BE016E5F7F4F44E050E08FE090E00E9470
:10313000D8130E94ED14CE01DF91CF91089524EAB7
:1031400033E0FC0131832083FB01428153816481A0
:103150007581FC01428353836483758308950F93C3
:1031600000E020E040E060E08AEE95E00E94570A2F
:1031700087EC95E00E9487118CE795E00F910C9405
:103180004D0AFB014281538164817581FC014283B8
:10319000538364837583178216820895CF93DF93D8
:1031A000FB0120E080E090E0AAE03191332301F1BF
:1031B00060ED630F6A3080F4A89FB001A99F700D85
:1031C0001124CB01C097830F911D37FD9A958F3F36
:1031D000910559F350F313C03E3289F4233079F04E
:1031E000EA01C20FD11D8A832F5F80E090E0DDCF1E
:1031F000233029F4FA01858381E090E002C080E069
:1032000090E0DF91CF9108950F9300E020E040E03F
:1032100060E080EF95E00E94570A0F9108958F9229
:103220009F92AF92BF92CF92DF92EF92FF920F9355
:103230001F93CF93DF9300D000D01F92CDB7DEB79E
:103240008C016B010E944707F8017783668376271C
:10325000672776277A836983085F1F4F42E050E033
:10326000BE016F5F7F4FC8010E94FB0F81E090E0BD
:103270009C838B8342E050E0BE016D5F7F4FC801AD
:103280000E94FB0F80E091E09C838B8342E050E042
:10329000BE016D5F7F4FC8010E94FB0F1C821B8225
:1032A00042E050E0BE016D5F7F4FC8010E94FB0FFE
:1032B00042E050E0BE016D5F7F4FC8010E94FB0FEE
:1032C00042E050E0BE016D5F7F4FC8010E94FB0FDE
:1032D0005601F5018081882329F1C6017C01FC019A
:1032E00020810196211116C0570147018C189D08B5
:1032F0001814190494F48D8241E050E0BE016B5F14
:103300007F4FC8010E94FB0FA401B601C8010E94B3
:10331000FB0F03C02E3211F7E7CF6701FFEFCF1A83
:10332000DF0AD7CF1D8241E050E0BE016B5F7F4FC7
:10333000C8010E94FB0FE12CFF24F394FC82EB8276
:1033400042E050E0BE016D5F7F4FC8010E94FB0F5D
:10335000FC82EB8242E050E0BE016D5F7F4FC8010E
:103360000E94FB0F81E090E00F900F900F900F9064
:103370000F90DF91CF911F910F91FF90EF90DF9011
:10338000CF90BF90AF909F908F9008954F925F9293
:103390006F927F928F929F92AF92BF92CF92DF9265
:1033A000EF92FF920F931F93CF93DF93CDB7DEB7CA
:1033B00065970FB6F894DEBF0FBECDBF7C015B01F1
:1033C0006A010E9447072B013C018701085F1F4FDC
:1033D0004501A12CB12CC8010E949D101816190698
:1033E000A4F00E944707DC01CB0184199509A609C6
:1033F000B70988169906AA06BB06D0F062E370E00A
:1034000080E090E00E947807E6CFF7014281538187
:1034100064817581808D918DA28DB38D4817590778
:103420006A077B0741F4848D958DC59721F406C00A
:103430002FEF3FEFFDC02EEF3FEFFAC0C8010E9413
:10344000BF0F0C97ECF04CE050E0BE016F5F7F4F78
:10345000C8010E9438106C818B810E944F229A8B88
:10346000898BF701E680F7806A8189810E944F226B
:10347000E816F90641F489899A8997FF04C009C0C2
:103480002DEF3FEFD5C0C8010E94D90F2CEF3FEFC1
:10349000CFC08F709270892B31F0C8010E94D90F74
:1034A0002BEF3FEFC5C068858F810E944F225C01E2
:1034B000892B31F4C8010E94D90F2AEF3FEFB8C021
:1034C000E12CF12C6E818D810E944F22E816F906C5
:1034D00040F541E050E0BE01635F7F4FC8010E94AC
:1034E00038108D85811113C08D858111F2CFC801EF
:1034F0000E940F10C8010E940F10C8010E940F10F7
:10350000C8010E940F10FFEFEF1AFF0ADBCF8D8575
:103510009FEF980F9D87882339F3C8010E940F10F1
:10352000F6CFE12CF12C41E050E0BE016D5E7F4F03
:10353000C8010E9438108B89982F907C61F48823F1
:1035400071F08B899FEF980F9B8B882341F0C80106
:103550000E940F10F6CFC8010E940F101B8A8B89A2
:103560008111E1CF42E050E0BE01615F7F4FC801B1
:103570000E94381042E050E0BE01635F7F4FC801F7
:103580000E943810C8010E940F10C8010E940F103D
:10359000C8010E940F10C8010E940F1042E050E0C5
:1035A000BE016F5E7F4FC8010E9438108F859889D9
:1035B0008115914001F52D853E853227232732273D
:1035C00021303105C1F489899A898115944031F0FF
:1035D000C8010E94D90F27EF3FEF2AC0B6016E5FE6
:1035E0007F4F44E050E0C8012C8B3D8B0E94381087
:1035F0002C893D891DC0812C912C89899A89982715
:10360000892798278816990638F4C8010E940F1058
:103610008FEF881A980AF1CFEFEFEE1AFE0AEA143C
:10362000FB0409F080CFC8010E94D90F26EF3FEFBD
:10363000C90165960FB6F894DEBF0FBECDBFDF910E
:10364000CF911F910F91FF90EF90DF90CF90BF909F
:10365000AF909F908F907F906F905F904F90089564
:103660008F929F92AF92BF92CF92DF92EF92FF9292
:103670000F931F93CF93DF9300D000D000D0CDB72E
:10368000DEB77C014B015A010E94CE188C01892BB8
:1036900009F05BC0F701428153816481758180919B
:1036A000F2059091F305A091F405B091F505481746
:1036B00059076A077B0709F44BC00E944707670157
:1036C000F8E0CF0ED11C6F7077277C5FC6010E9497
:1036D0007010813009F03EC084EA93E09A838983B8
:1036E000F70182819381A481B5818B839C83AD8313
:1036F000BE8345E350E0BE016F5F7F4FC6010E946D
:10370000EF0F892B19F400E010E01BC0B401C701D2
:103710000E940F19892BB9F3C6010E94F70F892B5C
:1037200091F383E0882E912CA50168E873E1C7012D
:103730000E94C6198C01F1E08F1A910811F00196D0
:1037400099F3C6010E94DA0F05C001E010E002C043
:103750000EEF1FEFC80126960FB6F894DEBF0FBE1E
:10376000CDBFDF91CF911F910F91FF90EF90DF9030
:10377000CF90BF90AF909F908F900895CF93CFB789
:10378000F8948091F905811127C0EAE9F0E084916D
:10379000E6E8F0E09491E82FF0E0EE0FFF1FE2552D
:1037A000FF4FA591B491EC91E92321F461E08AE007
:1037B0000E94550861E08AE00E9419088CB580617A
:1037C0008CBD8CB580648CBD61E08DE00E941908D1
:1037D00061E08BE00E9419088091F9058F5F80936A
:1037E000F905CFBFCF910895FC011482158216828E
:1037F000178208951F93CF93DF931F92CDB7DEB743
:10380000162FFC0160818AEF95E049830E94581FC2
:10381000612F8AEF95E00E940F1F4981642F8AEF84
:1038200095E00E940F1F8AEF95E00F90DF91CF91F6
:103830001F910C94E11F1F93CF93DF9300D0CDB75E
:10384000DEB7162FFC0160818AEF95E04A83598329
:103850000E94581F612F8AEF95E00E940F1F598127
:10386000652F8AEF95E00E940F1F4A81642F8AEF2F
:1038700095E00E940F1F8AEF95E00F900F90DF9167
:10388000CF911F910C94E11F1F93CF93DF93EC0115
:10389000162F68818AEF95E00E94581F612F8AEFEA
:1038A00095E00E940F1F8AEF95E00E94E11F41E022
:1038B00068818AEF95E00E94DB1FC8EED3E08AEFB3
:1038C00095E00E94B31E1816190634F0209711F0E7
:1038D0002197F5CF80E006C0CD2BE1F38AEF95E08C
:1038E0000E94BB1EDF91CF911F9108950F93CF933C
:1038F000DF93EC01637041704295407F2F70422B43
:103900006295660F607E462B6EE10E94FA1B0023D3
:1039100021F0083018F007E001C001E08FEF800FC0
:1039200061E070E002C0660F771F8A95E2F7072E0C
:10393000000C880B990B0E94F12B9B01AC0160E0FD
:1039400074E284EF99E40E944E2B0E94C02B6C839A
:103950007D838E839F836FE1CE010E94441C8F780C
:103960000295007F482F402B6FE1CE01DF91CF9170
:103970000F910C94FA1B1F93CF93DF93EC01162F3A
:1039800068818AEF95E00E94581F612F8AEF95E0C9
:103990000E940F1F8AEF95E00E94E11F42E06881BC
:1039A0008AEF95E00E94DB1FC0EDD7E08AEF95E03B
:1039B0000E94B31E02973CF4209711F02197F6CF96
:1039C00080E090E011C0CD2BD9F38AEF95E00E9402
:1039D000BB1EC82F8AEF95E00E94BB1E20E030E09E
:1039E0003C2FA901482BCA01DF91CF911F91089567
:1039F000CF92DF92EF92FF920F931F93CF93DF93BB
:103A00008C01D62FF42E6EE00E94BB1C41E050E0EA
:103A10009A0102C0220F331FDA95E2F7E90180957F
:103A2000909582239323892B89F060E1C8010E943D
:103A3000BB1CFF2021F0AC014C2B5D2B05C0C095B9
:103A4000D095AC014C235D2360E125C066E0C80140
:103A50000E94BB1C6C0168E0C8010E94BB1C9E0157
:103A600020953095FF2061F07C01E222F322A6012F
:103A70004C2B5D2B66E0C8010E941B1CA7010AC0ED
:103A8000C82BD92BA6014223532366E0C8010E940C
:103A90001B1CAE0168E0C801DF91CF911F910F910F
:103AA000FF90EF90DF90CF900C941B1C0C94F81CAF
:103AB000FF920F931F93CF93DF938C01F62E6EE04E
:103AC0000E94BB1CC1E0D0E002C0CC0FDD1FFA9405
:103AD000E2F78C239D23892B49F060E1C8010E9405
:103AE000BB1CC823D92381E0CD2B09F480E0DF91F2
:103AF000CF911F910F91FF9008950C94581DCF9274
:103B0000DF92EF92FF920F931F93CF93DF931F9259
:103B1000CDB7DEB76C01162F60E029830E94BB1C75
:103B200041E050E0BA0102C0660F771F1A95E2F734
:103B30008B01AC01462B572B60E0C6010E941B1C79
:103B400066E0C6010E94BB1C7801E094F094AC01D1
:103B50004E215F2166E0C6010E941B1C6EE0C6017B
:103B60000E94BB1CAC014E215F216EE0C6010E9489
:103B70001B1C6EE1C6010E94441C8F7D482F4064CF
:103B80006EE1C6010E94FA1B6FE1C6010E94441C4F
:103B90002981482F222311F0486801C04777F60198
:103BA00084819581A681B781892B8A2B8B2B49F43F
:103BB00080E894E8AEE1B0E084839583A683B78380
:103BC00040616FE1C6010E94FA1B60E2C6010E94DB
:103BD000BB1CAC01402B512B60E2C6010E941B1C98
:103BE00060E1C6010E94BB1CAC014E215F2160E177
:103BF000C6010F90DF91CF911F910F91FF90EF9031
:103C0000DF90CF900C941B1C0F931F93CF93DF93E7
:103C1000EC01162F042F6EE00E94BB1C9C01802F2C
:103C20008D7F813059F041E050E0012E02C0440FF9
:103C3000551F0A94E2F7422B532B0DC0E1E0F0E050
:103C4000012E02C0EE0FFF1F0A94E2F7E095F095F7
:103C5000A9014E235F236EE0CE010E941B1C02309F
:103C600049F441E0612FCE01DF91CF911F910F9177
:103C70000C94F81C033051F420E041E0612FCE0198
:103C8000DF91CF911F910F910C947F1DDF91CF9108
:103C90001F910F9108950C94041ECF93DF93EC01B4
:103CA0006FE10E94441C82FF06C0482F4B7F6FE1EA
:103CB000CE010E94FA1B41E06B81CE010E94041EDE
:103CC00040E06B81CE010E94F81C61E070E080E072
:103CD00090E00E94780741E06B81CE01DF91CF91A7
:103CE0000C94F81CCF93DF93662321F0DF91CF91E2
:103CF0000C944D1EEC0142E16DE70E94FA1B44E377
:103D00006DE7CE01DF91CF910C94FA1B0F93CF9307
:103D1000DF93EC018AEF95E00E944E1F8B818F3F6D
:103D200021F0CE010E944D1E04C060E0CE010E9431
:103D3000721E63E1CE010E94BB1C81159F4F49F4A6
:103D400001E020E040E062E0CE010E94761C81E0CC
:103D500001C080E0DF91CF910F910895FC01608355
:103D600043830C94861E80912A0690E020912B06B6
:103D7000821B9109089590912B0680912A0698172D
:103D800050F4E92FF0E0E45DF94F208130E09F5FCF
:103D900090932B0602C02FEF3FEFC9010895E091E9
:103DA0002B0680912A06E81730F4F0E0E45DF94F25
:103DB000808190E008958FEF9FEF08950895CF924E
:103DC000DF92EF92FF920F931F93CF93DF937C01CB
:103DD000262F972F8A0180910606882391F0C62FFF
:103DE000D72F6E01C40ED51ECC15DD0571F069917B
:103DF000D701ED91FC910190F081E02DC70109956B
:103E0000F3CF642F822F0E94A420C801DF91CF91AD
:103E10001F910F91FF90EF90DF90CF900895CF9377
:103E2000DF931F92CDB7DEB7698320910606222368
:103E3000D1F020910706203240F021E030E0FC0173
:103E40003383228380E090E015C080910806E82F3C
:103E5000F0E0E75FF94F998190838F5F80930806C8
:103E60008093070605C061E0CE0101960E94A42060
:103E700081E090E00F90DF91CF910895FC011382D3
:103E8000128288EE93E0A0E0B0E084839583A6835D
:103E9000B78384EE93E091838083089510922B067C
:103EA00010922A0610920806109207060C94E81F3A
:103EB00081E080930606609329061092080610920E
:103EC000070608950C94581F0F93062F21E0409188
:103ED000070669E076E0809129060E944E20109244
:103EE000080610920706109206060F9108954F9249
:103EF0005F926F927F92AF92BF92CF92EF92FF92BA
:103F00000F931F93CF93DF935C01F62ED42F2801DC
:103F10003901EE2021F10E94581FCE2DC43008F047
:103F2000C3E0C150C0F0D501ED91FC91B8E0CB9F4A
:103F3000C0011124A301920104C0569547953795FD
:103F400027958A95D2F7CA01B9010190F081E02D39
:103F5000C5010995E6CF60E0C5010E94641F4D2FA1
:103F6000D13208F040E22C2D6CE276E08F2D0E94D9
:103F7000062010922B0680932A06DF91CF911F9185
:103F80000F91FF90EF90CF90BF90AF907F906F9088
:103F90005F904F900895CF92EF920F931F93C22E90
:103FA000E12C00E010E098010E94771F1F910F9113
:103FB000EF90CF90089521E00C94CB1F21E00C945A
:103FC000CB1F61E00C94641F8AEF95E00C943E1FB8
:103FD0001092B90681E08093B7061092B60661E0B0
:103FE00082E10E94550861E083E10E945508E9EBF7
:103FF000F0E080818E7F808380818D7F808388E464
:104000008093B80085E48093BC000895413208F0A5
:1040100043C09091B9069111FCCF91E09093B906FD
:104020002093B7062FEF20934C0610929106240F91
:10403000209390069093B8069091B806880F892B2C
:104040008093B8068091B606813061F41092B6066E
:104050008091B8068093BB008091BC0083FDF8CFAF
:1040600085EC01C085EE8093BC008091B90681305B
:10407000E1F380919106841710F44091910622E9B2
:1040800036E0FB01D9018A2F821B841718F48D9129
:104090008193F9CF842F089580E008950F934132E2
:1040A00008F04AC09091B9069111FCCF32E03093EC
:1040B000B9060093B7063FEF30934C061092910675
:1040C00040939006FB0162E976E0DB013A2F361B54
:1040D000341718F431913D93F9CF1092B80630910E
:1040E000B806880F832B8093B8068091B60681307E
:1040F00061F41092B6068091B8068093BB0080915F
:10410000BC0083FDF8CF85EC01C085EE8093BC0038
:10411000222321F08091B9068230D1F380914C06A0
:104120008F3F79F080914C06803241F080914C06AF
:10413000803331F094E005C091E003C092E001C00B
:1041400093E0892F0F91089540916E06262F30E05D
:10415000240F311D21323105DCF42091B9062430C1
:10416000C9F4FC0180E090E0861758F430916E06A7
:104170002191DC01A059B94FA30FB11D2C930196D9
:10418000F3CF80916E06680F60936E0680E008950D
:1041900081E0089582E0089585ED8093BC008091D0
:1041A000BC0084FDFCCF1092B906089585EC809385
:1041B000BC001092B90608951F920F920FB60F928D
:1041C00011242F933F934F935F936F937F938F931C
:1041D0009F93AF93BF93EF93FF938091B900887F34
:1041E000803609F49EC078F5883209F45DC090F4F9
:1041F000803109F456C038F4882309F4F5C08830BA
:1042000009F44FC0F5C0883109F44EC0803209F47A
:104210005FC0EEC0803409F46AC058F4803309F4FA
:1042200057C0883309F0E4C080934C060E94D62022
:10423000DFC0803509F44FC0883509F45DC088348B
:1042400009F0D6C0D3C0883909F4C4C0A8F48837AF
:1042500009F467C038F4883609F463C0803709F47C
:1042600060C0C6C0883809F4B5C0803909F45FC0A1
:10427000803809F0BDC05BC0803B09F483C038F4CE
:10428000803A09F466C0883A09F47CC0B1C0803C29
:1042900009F4A4C0883C09F4A1C0883B09F487C094
:1042A000A7C08091B80610C09091910680919006A9
:1042B000981770F5E091910681E08E0F809391063A
:1042C000F0E0EE56F94F80818093BB0085EC83C00F
:1042D00080934C068BC0E091910681E08E0F809315
:1042E00091068091BB00F0E0EE56F94F80839091EB
:1042F0009106809190066BC0E091910681E08E0F4F
:10430000809391068091BB00F0E0EE56F94F8083D8
:104310008091B70681116AC081E08093B60684EA75
:104320005EC083E08093B90610924D06CFCF809196
:104330004D06803208F04EC0E0914D0681E08E0FB0
:1043400080934D068091BB00F0E0E25BF94F8083E3
:10435000BDCF0E94D62080914D06803230F4E0918E
:104360004D06F0E0E25BF94F108260914D0670E07F
:10437000E091B206F091B3068EE496E009951092B2
:104380004D0636C084E08093B90610926F061092F5
:104390006E06E091B406F091B506099580916E061F
:1043A000811105C081E080936E0610927006E09145
:1043B0006F0681E08E0F80936F06F0E0E059F94FB1
:1043C00080818093BB0090916F0680916E06981754
:1043D00008F47CCF85E88093BC000AC085EC80930C
:1043E000BC001092B90604C010924C060E94CC206A
:1043F000FF91EF91BF91AF919F918F917F916F91BD
:104400005F914F913F912F910F900FBE0F901F9092
:104410001895CF93DF9300D000D0CDB7DEB76115EC
:1044200071058105910579F09B01AC0169833A839F
:104430004B835C830E94782929813A814B815C817E
:104440000E941C2D03C060E070E0CB010F900F9024
:104450000F900F90DF91CF910895CF92DF92EF925E
:10446000FF920F931F93621773078407950784F4D5
:1044700089019A016B017C01C901B8016C197D09A0
:104480008E099F090E9409226C0D7D1D8E1D9F1DA6
:104490001F910F91FF90EF90DF90CF90089570E003
:1044A0009B01382BC90108950E9624E1FC0111925D
:1044B0002A95E9F70895CF93DF93EC01625F7F4F70
:1044C0000E94630ACE01DF91CF910895CF93DF93CD
:1044D000EC016E5E7F4F0E94630ACE01DF91CF91A7
:1044E0000895CF93DF93EC016A5E7F4F0E94630AC9
:1044F000CE01DF91CF910895CF93DF93EC01625EFF
:104500007F4F0E94630ACE01DF91CF91089580E32F
:10451000FB0180833296842F82958F7090E1899F72
:10452000401911244A3014F4405D01C0495C4293A3
:10453000482F8111F0CF08950F9300E020E040E074
:1045400060E08AEB96E00E94570A0F9108957F92EF
:104550008F929F92AF92BF92CF92DF92EF92FF9293
:104560000F931F93CF93DF93CDB7DEB7AC970FB602
:10457000F894DEBF0FBECDBF7C01762E942E852E23
:1045800020E2B22ECE0101966C01FC012B2D11927E
:104590002A95E9F70FEF2FEF4FEF6FEF86960E9406
:1045A000570A84EA93E09AA389A389A59AA5ABA5A3
:1045B000BCA58BA39CA3ADA3BEA387010D5B1F4F1E
:1045C00043E450E0BE016F5D7F4FC8010E94EF0FD2
:1045D000019609F4BFC081E089838A8386E0A82E12
:1045E000AB821C82F70164817581868197810E946C
:1045F0003B2D6D837E838F83988789869A8680E89A
:1046000090E09C878B874CE150E0B601C8010E9486
:10461000FB0FF6012B2D11922A95E9F7470188E04F
:10462000880E911CF401D60101900D92AA94E1F735
:1046300040E150E0B601C8010E94FB0FF601119263
:10464000BA94E9F796E0A92EB12C40E250E0B60109
:10465000C8010E94FB0FF1E0AF1AB108B1F783E681
:10466000898392E89A8393E59B838C8385E38D838A
:1046700081E08E837F829DE3988797E099878A8780
:1046800086E0F401DE011B9601900D928A95E1F718
:104690008CE0898B8A8B62EF73E0CE0143960E9497
:1046A000722AF7014385BE01675E7F4FC7010E94F2
:1046B0008722F7014485BE01655E7F4FC7010E94D6
:1046C0008722F7014585BE01635E7F4FC7010E94C7
:1046D00087224EE150E0B601C8010E94FB0FF3E0D3
:1046E0007F121EC082E3898384E08A83F701968566
:1046F0009B8397859C8390899D8391899E8396E374
:104700009F838887828D8987838D8A87848D8B8715
:10471000858D8C874CE050E0B601C8010E94FB0FEC
:1047200087E3898386E08A8391E09B8393E09C837F
:104730008D838FE08E838AE38F838BE388878FEF6F
:10474000898749E050E0B601C8010E94FB0FC8010B
:104750000E94F70FAC960FB6F894DEBF0FBECDBF28
:10476000DF91CF911F910F91FF90EF90DF90CF904D
:10477000BF90AF909F908F907F9008952F923F921F
:104780004F925F926F927F928F929F92AF92BF9261
:10479000DF92EF92FF920F931F93CF93DF93CDB7EA
:1047A000DEB7E4970FB6F894DEBF0FBECDBF7C0135
:1047B0001A012B0139010E9447074B015C01870157
:1047C0000D5B1F4FC8010E949D1018161906A4F01A
:1047D0000E944707DC01CB0188199909AA09BB0986
:1047E000281639064A065B06F0F062E370E080E0C6
:1047F00090E00E947807E6CF42E250E0BE016F5F92
:104800007F4FC8010E9438108981823031F4F8014D
:10481000848995898334910541F0D12CC8010E9487
:10482000D90F8D2D5FC18FEF5DC16D817E818F812D
:1048300098850E943B2D4B015C01F30160837183DD
:104840008283938346E050E0B701685F7F4FCE01DB
:104850004D960E94532A892B99F4F701808191810A
:10486000A281B38188169906AA06BB0648F0848106
:104870009581A681B78188159905AA05BB0528F4FD
:10488000C8010E94D90F80E02DC189899A89AB891E
:10489000BC89F70186879787A08BB18B8EECA82EF9
:1048A000B12CC8010E940F10F1E0AF1AB108C9F78E
:1048B000D12CC70182969AA789A7F701B696FCA7C3
:1048C000EBA708969EA78DA73C974F01899698ABBA
:1048D0008FA73897FAABE9AB1701F6E12F0E311C21
:1048E000C5979CAB8BABC8010E94BF0F1816190669
:1048F0000CF094CFC8010E940F108333910509F486
:10490000CBC0FCF481309105C9F11CF4892B59F31B
:10491000DDC083309105D1F1069709F0D7C0C801F9
:104920000E940F105C0144E050E06BA97CA9C80113
:104930000E943810412C512CBB24F4E0AF1AB1086E
:1049400040C08A33910509F47BC03CF4853391055E
:1049500069F0C69709F440C0B9C08B33910509F4DA
:1049600085C08F3F910509F4BECFB0C0C8010E9439
:104970000F10C8010E940F10D82EB5CFC8010E9499
:104980000F1044E050E069A97AA93AC0C8010E941A
:104990000F105C0144E050E0B101C8010E943810E2
:1049A000412C512CBB2494E0A91AB1084A145B0491
:1049B0000CF099CFC8010E940F10EFEF4E1A5E0A5B
:1049C000F5CF4A145B040CF08ECFC8010E940F1083
:1049D0008FEF481A580AF5CFC8010E940F10B82E61
:1049E000F701828D811110C0838D81110DC0848DDE
:1049F00081110AC0858D811107C044E050E0B401E7
:104A0000C8010E9438106FCFEFA5F8A940805180EF
:104A100062807380B401CE0183960E94630A8DA1E7
:104A20009EA1AFA1B8A584159505A605B70529F3E4
:104A3000BB2009F458CFC8010E940F10BA94F8CFD8
:104A4000C8010E940F1044E050E06BA57CA5C8018E
:104A50000E943810F70166A177A180A591A50E9458
:104A60003B2D66A377A380A791A73DCFC8010E94E5
:104A70000F1044E050E06DA57EA5C8010E943810DB
:104A8000F70162A573A584A595A50E943B2D62A799
:104A900073A784A795A727CFC8010E940F1044E0F1
:104AA00050E069A57AA5C8010E943810F70162A1FB
:104AB00073A184A195A10E943B2D62A373A384A33B
:104AC00095A366A777A780AB91AB0DCFC8010E94D5
:104AD0000F10B82EBB2009F406CFC8010E940F109A
:104AE000BA94F8CFE4960FB6F894DEBF0FBECDBFF0
:104AF000DF91CF911F910F91FF90EF90DF90BF90CA
:104B0000AF909F908F907F906F905F904F903F906D
:104B10002F9008952F923F924F925F926F927F92C3
:104B20008F929F92AF92BF92CF92DF92EF92FF92BD
:104B30000F931F93CF93DF93CDB7DEB727970FB6B1
:104B4000F894DEBF0FBECDBF8C0120ED37E040E012
:104B500050E061E070E080E090E00E942D22D801FA
:104B600014966D937D938D939C931797F8016083B2
:104B70007183828393835801F3E4AF0EB11CC501A6
:104B80000E94DA0F64E470E0C5010E94701088236F
:104B900009F43CC10E9447072B013C01812C912C58
:104BA0001D82C8018E5B9F4F9F838E8343E0342E0E
:104BB00058EEC52E53E0D52EE12CF12C62E0262EC6
:104BC000AE81BF818C91833009F407C1811120C06F
:104BD000F80184819581A681B7810196A11DB11D3F
:104BE00084839583A683B7830E9447076419750958
:104BF00086099709A70196010E94FA2CA90161E094
:104C0000C8010E94A72281E0AE81BF818C93C6C0FB
:104C10008430F9F4F80184819581A681B7810196E9
:104C2000A11DB11D84839583A683B7830E94470786
:104C30006419750986099709A70196010E94FA2C43
:104C4000A90163E0C8010E94A722AE81BF812C9216
:104C5000A5C0813061F5F80142AD53AD64AD75ADCD
:104C60009E012F5F3F4FC8010E94BE238D8382307B
:104C700009F094C089819A81AB81BC81F801848359
:104C80009583A683B7830E9447076419750986092F
:104C90009709A70196010E94FA2CA90163E0C801B7
:104CA0000E94A722ED81AE81BF81EC937EC082304D
:104CB00009F074C0D801DA964D915D916D917C91A7
:104CC000DD979E012F5F3F4FC8010E94BE238D8359
:104CD000853009F05CC0EE81FF813082F80182A14D
:104CE00093A1A4A1B5A1892B8A2B8B2B41F484E835
:104CF00093E0A0E0B0E082A393A3A4A3B5A3F8013E
:104D000086A197A1A0A5B1A5892B8A2B8B2B61F435
:104D100082A193A1A4A1B5A1B695A79597958795D2
:104D200086A397A3A0A7B1A7F80182A593A5A4A5E0
:104D3000B5A5892B8A2B8B2BA9F482A193A1A4A1C1
:104D4000B5A1AC01BD0123E07695679557954795D0
:104D50002A95D1F7841B950BA60BB70B82A793A7B7
:104D6000A4A7B5A7F80186A197A1A0A5B1A586A77C
:104D700097A7A0ABB1AB82A593A5A4A5B5A582AB1F
:104D800093ABA4ABB5AB88248394912C0EC0FD816A
:104D9000F63021F4AE81BF811C9207C0BD81BF3FB8
:104DA00021F4EE81FF8110821D82F1E08F169104C3
:104DB00009F406CF0E944707DC01CB01841995094D
:104DC000A609B709F80126A937A940AD51AD2817A2
:104DD00039074A075B0708F0F3CEC5010E94DA0FD6
:104DE000F80184819581A681B7810196A11DB11D2D
:104DF00084839583A683B7830E944707F801FE96B4
:104E00006083718382839383C40102C080E090E059
:104E100027960FB6F894DEBF0FBECDBFDF91CF91BE
:104E20001F910F91FF90EF90DF90CF90BF90AF90C8
:104E30009F908F907F906F905F904F903F902F90BA
:104E40000895CF92DF92EF92FF920F931F93CF932B
:104E5000DF93EC016B011AA21BA21CA21DA21EA2D1
:104E60001FA218A619A61AA61BA61CA61DA62EAB25
:104E70003FAB48AF59AFEAAEFBAE0CAF1DAF8C01F4
:104E8000085F1F4F86E0F80111928A95E9F7CE017D
:104E90000E94542286E0F601D80101900D928A9575
:104EA000E1F7FE01EE5BFF4F1082CE01DF91CF9163
:104EB0001F910F91FF90EF90DF90CF900C948A2577
:104EC000CF92DF92EF92FF920F931F93CF93DF93D6
:104ED000EC010E9447076B017C018E01025C1F4FB1
:104EE000F80180819181A281B381A7019601281BDD
:104EF000390B4A0B5B0BCA01B901683E33E07307FB
:104F00008105910508F441C028EE33E040E050E00F
:104F10000E94FA2CC61AD70AE80AF90AF801C082D8
:104F2000D182E282F3828EA59FA5A8A9B9A96901C1
:104F30007A01CC0CDD1CEE1CFF1C8C159D05AE050A
:104F4000BF0528F41EA61FA618AA19AA08C0821B0E
:104F5000930BA40BB50B8EA79FA7A8ABB9AB8AA9DF
:104F60009BA9ACA9BDA98C159D05AE05BF0528F46C
:104F70001AAA1BAA1CAA1DAA08C0821B930BA40B69
:104F8000B50B8AAB9BABACABBDAB8EA59FA5A8A95F
:104F9000B9A9892B8A2B8B2B69F4FE01EE5BFF4F9D
:104FA0008081833039F484E08083CE010E948A2599
:104FB000019602C080E090E04AA95BA96CA97DA996
:104FC000452B462B472B81F4FE01EE5BFF4F2081E2
:104FD000233011F0211108C01082CE010E9454220A
:104FE000CE010E948A250396DF91CF911F910F91E8
:104FF000FF90EF90DF90CF900895CF93DF938230B2
:10500000910510F482E090E0E091C206F091C306B1
:1050100020E030E0C0E0D0E0309711F140815181D4
:1050200048175907C0F04817590761F482819381E6
:10503000209719F09B838A832BC09093C30680939B
:10504000C20626C02115310519F04217530718F47E
:105050009A01BE01DF01EF010280F381E02DDCCF78
:105060002115310509F1281B390B2430310590F445
:1050700012968D919C9113976115710521F0FB019A
:105080009383828304C09093C3068093C206FD017C
:10509000329644C0FD01E20FF31F81939193225099
:1050A00031092D933C933AC02091C0063091C1063E
:1050B000232B41F420910201309103013093C1066A
:1050C0002093C00620910001309101012115310586
:1050D00041F42DB73EB74091040150910501241BC6
:1050E000350BE091C006F091C106E217F307A0F47A
:1050F0002E1B3F0B2817390778F0AC014E5F5F4F2E
:105100002417350748F04E0F5F1F5093C106409398
:10511000C0068193919302C0E0E0F0E0CF01DF91FF
:10512000CF9108950F931F93CF93DF93009709F4C6
:105130008CC0FC013297138212820091C20610913A
:10514000C3060115110581F420813181820F931F5F
:105150002091C0063091C1062817390779F5F093E0
:10516000C106E093C00671C0D80140E050E0AE1720
:10517000BF0750F412962D913C911397AD01211564
:10518000310509F1D901F3CF9D01DA01338322837F
:1051900060817181860F971F8217930769F4EC0174
:1051A00028813981260F371F2E5F3F4F318320839F
:1051B0008A819B8193838283452B29F4F093C306D4
:1051C000E093C20642C01396FC93EE931297ED0152
:1051D000499159919E01240F351FE217F30771F48D
:1051E00080819181840F951F029611969C938E93D6
:1051F0008281938113969C938E931297E0E0F0E066
:10520000D80112968D919C911397009719F0F8018F
:105210008C01F6CF8D919C9198012E5F3F4F820FAC
:10522000931F2091C0063091C1062817390769F4F1
:10523000309729F41092C3061092C20602C013825E
:1052400012821093C1060093C006DF91CF911F9187
:105250000F9108958F929F92AF92BF92CF92DF925B
:10526000EF92FF92CF93DF93EC01688179818A817D
:105270009B81611571058105910521F464E279ED49
:105280008BE597E02DE133EF41E050E00E941C2DCB
:1052900049015A019B01AC01A7EAB1E40E94422DE9
:1052A0006B017C01ACEEB4EFA50194010E94502D7E
:1052B000DC01CB018C0D9D1DAE1DBF1DB7FF03C0D2
:1052C0000197A109B04888839983AA83BB83BC0155
:1052D000CD019F77DF91CF91FF90EF90DF90CF903E
:1052E000BF90AF909F908F9008950E942A290895B3
:1052F00086E091E00E942A29089560930601709348
:10530000070180930801909309010895A0E0B0E09F
:10531000ECE8F9E20C94592DEC01009721F4CB0153
:105320000E94FD27B8C0FC01E60FF71F9C01225028
:105330003109E217F30708F4ACC0D9010D911C91B3
:10534000119706171707B0F00530110508F49FC034
:10535000C80104978617970708F499C002501109ED
:10536000061B170B019311936D937C93CF010E9441
:1053700092288DC05B01A01AB10A4C01800E911ECB
:10538000A091C206B091C30640E050E0E12CF12CA0
:10539000109709F44AC0A815B905D1F56D907C9015
:1053A0001197630182E0C80ED11CCA14DB0480F19E
:1053B000A3014A195B096A0182E0C80ED11C12964A
:1053C000BC9012971396AC91B5E0CB16D10440F087
:1053D000B282A38351834083D9016D937C930AC029
:1053E0000E5F1F4FC301800F911FF90191838083CE
:1053F000EB2DFA2FE114F10431F0D7011396FC9351
:10540000EE93129744C0F093C306E093C2063FC0E8
:105410008D919C9111974817590708F4AC017D01B3
:1054200012960D90BC91A02DB3CF8091C0069091A3
:10543000C10688159905E1F446175707C8F480910D
:10544000000190910101009741F48DB79EB7409102
:10545000040150910501841B950BE817F907C8F466
:10546000F093C106E093C006F901718360830FC019
:10547000CB010E94FD277C01009759F0A801BE01D5
:105480000E94602ACE010E949228C70104C0CE016A
:1054900002C080E090E0CDB7DEB7EEE00C94752D51
:1054A000F8940C94A92DFB01DC0104C08D910190AE
:1054B000801921F441505040C8F7881B990B08957A
:1054C000FB01DC0102C001900D9241505040D8F721
:1054D0000895FB01DC018D91019080190110D9F331
:1054E000990B0895FB01DC0101900D920020E1F77A
:1054F00008954532510520F4423010F00C94842A6E
:10550000FB011082CB010895BB274A3031F4992367
:1055100022F4BDE2909581959F4F0C94C82A2532C4
:10552000310520F4223010F00C949A2AFA011082EE
:10553000CA010895BB27FA01A62F621771058105DC
:105540009105330B30FB66F0AA27660F771F881F83
:10555000991FAA1FA21710F0A21B63953850A9F734
:10556000A05DAA3308F0A95DA19336F7B111B193FC
:105570001082CA010C94EA2C4532510520F44230C5
:1055800010F00C94C72AFB011082CB010895BB27B1
:10559000FB015527AA27880F991FAA1FA41710F0EF
:1055A000A41B83955051B9F7A05DAA3308F0A95DFB
:1055B000A193009779F7B111B1931192CB010C949B
:1055C000EA2C5058BB27AA270E94F92A0C94432C96
:1055D0000E94352C38F00E943C2C20F039F49F3F7B
:1055E00019F426F40C94322C0EF4E095E7FB0C949D
:1055F0002C2CE92F0E94542C58F3BA17620773071A
:105600008407950720F079F4A6F50C94762C0EF417
:10561000E0950B2EBA2FA02D0B01B90190010C01C2
:10562000CA01A0011124FF27591B99F0593F50F4DA
:10563000503E68F11A16F040A22F232F342F442732
:10564000585FF3CF469537952795A795F04053952A
:10565000C9F77EF41F16BA0B620B730B840BBAF0FA
:105660009150A1F0FF0FBB1F661F771F881FC2F765
:105670000EC0BA0F621F731F841F48F48795779579
:105680006795B795F7959E3F08F0B0CF9395880F33
:1056900008F09927EE0F9795879508950E94622B41
:1056A0000C94432C0E943C2C58F00E94352C40F066
:1056B00029F45F3F29F00C942C2C51110C94772C79
:1056C0000C94322C0E94542C68F39923B1F3552387
:1056D00091F3951B550BBB27AA2762177307840705
:1056E00038F09F5F5F4F220F331F441FAA1FA9F39B
:1056F00035D00E2E3AF0E0E832D091505040E69589
:10570000001CCAF72BD0FE2F29D0660F771F881FE9
:10571000BB1F261737074807AB07B0E809F0BB0BDC
:10572000802DBF01FF2793585F4F3AF09E3F5105F0
:1057300078F00C942C2C0C94772C5F3FE4F3983E7B
:10574000D4F3869577956795B795F7959F5FC9F7D9
:10575000880F911D9695879597F90895E1E0660F5A
:10576000771F881FBB1F621773078407BA0720F0D3
:10577000621B730B840BBA0BEE1F88F7E09508953C
:105780000E945C2C88F09F5798F0B92F9927B75149
:10579000B0F0E1F0660F771F881F991F1AF0BA95D5
:1057A000C9F714C0B13091F00E94762CB1E0089591
:1057B0000C94762C672F782F8827B85F39F0B93F83
:1057C000CCF3869577956795B395D9F73EF4909588
:1057D0008095709561957F4F8F4F9F4F0895E89406
:1057E00009C097FB3EF490958095709561957F4F29
:1057F0008F4F9F4F9923A9F0F92F96E9BB279395D7
:10580000F695879577956795B795F111F8CFFAF4E6
:10581000BB0F11F460FF1BC06F5F7F4F8F4F9F4F17
:1058200016C0882311F096E911C0772321F09EE875
:10583000872F762F05C0662371F096E8862F70E0DB
:1058400060E02AF09A95660F771F881FDAF7880FB5
:105850009695879597F9089597F99F6780E870E086
:1058600060E008959FEF80EC089500240A941616D6
:10587000170618060906089500240A94121613063E
:10588000140605060895092E0394000C11F48823CC
:1058900052F0BB0F40F4BF2B11F460FF04C06F5FE8
:1058A0007F4F8F4F9F4F089557FD9058440F551FBE
:1058B00059F05F3F71F04795880F97FB991F61F092
:1058C0009F3F79F087950895121613061406551F09
:1058D000F2CF4695F1DF08C0161617061806991F75
:1058E000F1CF86957105610508940895E894BB276A
:1058F00066277727CB0197F908950E94902C0C9486
:10590000432C0E94352C38F00E943C2C20F095232B
:1059100011F00C942C2C0C94322C11240C94772C18
:105920000E94542C70F3959FC1F3950F50E0551FC2
:10593000629FF001729FBB27F00DB11D639FAA27E4
:10594000F00DB11DAA1F649F6627B00DA11D661F33
:10595000829F2227B00DA11D621F739FB00DA11D54
:10596000621F839FA00D611D221F749F3327A00D0E
:10597000611D231F849F600D211D822F762F6A2FAA
:1059800011249F5750409AF0F1F088234AF0EE0F0F
:10599000FF1FBB1F661F771F881F91505040A9F73C
:1059A0009E3F510580F00C942C2C0C94772C5F3F7B
:1059B000E4F3983ED4F3869577956795B795F79578
:1059C000E7959F5FC1F7FE2B880F911D96958795F0
:1059D00097F90895DC01FC01672F71917723E1F7B6
:1059E000329704C07C916D9370836291AE17BF07AC
:1059F000C8F30895A1E21A2EAA1BBB1BFD010DC01E
:105A0000AA1FBB1FEE1FFF1FA217B307E407F5076E
:105A100020F0A21BB30BE40BF50B661F771F881F4A
:105A2000991F1A9469F760957095809590959B01E0
:105A3000AC01BD01CF010895052E97FB1EF4009423
:105A40000E94332D57FD07D00E94FA2C07FC03D08B
:105A50004EF40C94332D50954095309521953F4F41
:105A60004F4F5F4F089590958095709561957F4F4A
:105A70008F4F9F4F08956927962769277827872793
:105A8000782708950E94922DA59F900DB49F900DA8
:105A9000A49F800D911D11240895B7FF0C94422DF1
:105AA0000E94422D821B930B08952F923F924F929A
:105AB0005F926F927F928F929F92AF92BF92CF929E
:105AC000DF92EF92FF920F931F93CF93DF93CDB7A7
:105AD000DEB7CA1BDB0B0FB6F894DEBF0FBECDBF1F
