:100000000C9466000C948E000C948E000C948E0060
:100010000C948E000C948E000C942B0E0C948E007D
:100020000C948E000C948E000C948E000C948E0018
:100030000C948E000C948E000C948E000C948E0008
:100040000C94DE060C948E000C94A0090C94D2093A
:100050000C948E000C948E000C948E000C948E00E8
:100060000C9403200C948E00000000080002010094
:100070000003040700000000000000000102040863
:100080001020408001020408102001020408102002
:10009000040404040404040402020202020203032E
:1000A0000303030300000000250028002B000000CC
:1000B0000000240027002A009000020AEC0B240E06
:1000C0002611D6172B180B1FC321EE0011241FBEBB
:1000D000CFEFD8E0DEBFCDBF14E0A0E0B1E0ECE7A9
:1000E000F9E502C005900D92A031B107D9F726E0DD
:1000F000A0E1B4E001C01D92A63EB207E1F710E016
:10010000C5E6D0E004C02197FE010E94862CCC35C4
:10011000D107C9F70E94300A0C9477290C9400008B
:100120000F9300E020E040E060E082ED94E00E9468
:10013000C50B01E021E041E06AE08CEC94E00E9414
:10014000C50B81EB94E00E94AE1086E994E00E941A
:10015000AE108BE794E00E94AE106AED71E085E589
:1001600094E00E94650C8BE494E00E941B1B8AE4DF
:1001700094E00E94230E89E494E00E94230E88E418
:1001800094E00E94230E80E494E00E943C0DE0E1A4
:10019000F4E0148215821682178280E090E0A6ECCB
:1001A000B2EC80879187A287B38784879587A687DB
:1001B000B787808B918BA28BB38B848B958BA68B0F
:1001C000B78B808F918FA28FB38F148E158E168E62
:1001D000178E10A211A212A20F91089585E594E046
:1001E0000C94F70B0F931F93CF93DF9300D000D0A5
:1001F00000D0CDB7DEB78C014091100150911101B4
:100200008CEC93E09A8389838091CE049091CF0403
:10021000A091D004B091D1048B839C83AD83BE8325
:10022000BE016F5F7F4F8BE794E00E94160FB8010D
:100230008BE794E00E94A9088BE794E00E941E0FD0
:1002400026960FB6F894DEBF0FBECDBFDF91CF91DB
:100250001F910F9108958F929F92AF92BF92CF926C
:10026000DF92EF92FF920F931F93CF93DF9300D013
:1002700000D000D0CDB7DEB760E47FE184E895E040
:100280000E94A20E0E9428074B015C010E942807D1
:100290000E94E92A60933C0470933D0480933E04DD
:1002A00090933F0426E040E051EE60E070E081EE84
:1002B00094E00E94140B6CE171E081EE94E00E94E6
:1002C000CE0860E082E00E94360861E082E00E9491
:1002D000FA0760E082E00E94360860E088E00E9451
:1002E000360861E088E00E94FA0760E088E00E943A
:1002F000360860E089E00E94360861E089E00E94EB
:10030000FA0760E089E00E94360861E083E00E941D
:10031000360861E083E00E94FA0761E083E00E9412
:10032000360861E085E00E94360861E085E00E94C1
:10033000FA0761E085E00E94360861E086E00E94ED
:10034000360861E086E00E94FA0761E086E00E94DC
:10035000360861E087E00E94360861E087E00E948D
:10036000FA0761E087E00E94360861E084E00E94BD
:10037000360861E084E00E94FA0761E084E00E94B0
:10038000360895E7E92E94E0F92E670100915304B1
:1003900010915404C8010E949B2CD6018D936D01CD
:1003A0000F5F1F4F1093540400935304BBE7CB1609
:1003B000B4E0DB0659F7E5E3F4E0D7018D917D0168
:1003C0008193BBE7EB16B4E0FB06B9F710EAE12E28
:1003D0001FE0F12E00E010E020E63AEE40E050E0B1
:1003E00065E774E08EE995E00E94AC16892B61F414
:1003F0006CE271E081EE94E00E94CE0860E177E269
:1004000080E090E00E9459076AE671E081EE94E096
:100410000E94CE086EE975E0CE0101960E94AE17EB
:10042000BE016F5F7F4F81EE94E00E94E008609113
:1004300014017091150181EB94E00E94970F609177
:1004400012017091130186E994E00E94970F609168
:100450001001709111018BE794E00E94970F6CEDF1
:1004600075E080E090E00E94590769E771E0CE01F5
:1004700001960E94650CCE0101960E94F200CE0109
:1004800001960E94F70B6AE871E0CE0101960E9486
:10049000650CCE0101960E94F200CE0101960E94E9
:1004A000F70B4AE060917B04CE0101960E94910C0B
:1004B000CE0101960E94F200CE0101960E94F70B38
:1004C0006BEA71E0CE0101960E94650CCE010196A7
:1004D0000E94F200CE0101960E94F70B4AE0609163
:1004E0007504CE0101960E94910CCE0101960E94E6
:1004F000F200CE0101960E94F70B4AE0609176046B
:10050000CE0101960E94910CCE0101960E94F2004C
:10051000CE0101960E94F70B4AE060917704CE016C
:1005200001960E94910CCE0101960E94F200CE012C
:1005300001960E94F70B4AE060917804CE01019683
:100540000E94910CCE0101960E94F200CE0101960C
:100550000E94F70B4AE060917904CE0101960E9457
:10056000910CCE0101960E94F200CE0101960E94EC
:10057000F70B4AE060917A04CE0101960E94910C3B
:10058000CE0101960E94F200CE0101960E94F70B67
:1005900080910E0190910F010E949B2C682F70E0BA
:1005A00080E090E00E94E92A6093100470931104A7
:1005B00080931204909313046EEB71E081EE94E04B
:1005C0000E94B7086EEB71E0CE0101960E94650CA7
:1005D000CE0101960E94F200CE0101960E94F70B17
:1005E00000E010E06FEC71E081EE94E00E94B7084B
:1005F0004AE050E0B80181EE94E00E94850969ED7F
:1006000071E081EE94E00E94B7086BED71E081EE3D
:1006100094E00E94B708C8010E949B2C4AE050E079
:10062000682F81EE94E00E94990969ED71E081EEF6
:1006300094E00E94B7086FEC71E0CE0101960E9431
:10064000650CCE0101960E94F200CE0101960E9437
:10065000F70B4AE0B801CE0101960E94BE0CCE0114
:1006600001960E94F200CE0101960E94F70B6BEDFD
:1006700071E0CE0101960E94650CCE0101960E94A8
:10068000F200CE0101960E94F70BC8010E949B2C3C
:100690004AE0682FCE0101960E94910CCE0101968E
:1006A0000E94F200CE0101960E94F70B0F5F1F4FD0
:1006B0000830110509F096CF4FEF6EE38BE494E01C
:1006C0000E94D51D882309F4F9C062EE71E081EE25
:1006D00094E00E94CE0862EE71E0CE0101960E9485
:1006E000650CCE0101960E94F200CE0101960E9497
:1006F000F70B40E060E08BE494E00E94721D40E064
:1007000060E08BE494E00E947D1C40E061E08BE4BB
:1007100094E00E94721D40E061E08BE494E00E944E
:100720007D1C40E062E08BE494E00E94721D40E09A
:1007300062E08BE494E00E947D1C40E063E08BE487
:1007400094E00E94721D40E063E08BE494E00E941C
:100750007D1C40E064E08BE494E00E94721D40E068
:1007600064E08BE494E00E947D1C40E065E08BE453
:1007700094E00E94721D40E065E08BE494E00E94EA
:100780007D1C40E066E08BE494E00E94721D40E036
:1007900066E08BE494E00E947D1C40E067E08BE41F
:1007A00094E00E94721D40E067E08BE494E00E94B8
:1007B0007D1C40E068E08BE494E00E94721D40E004
:1007C00068E08BE494E00E947D1C40E069E08BE4EB
:1007D00094E00E94721D40E069E08BE494E00E9486
:1007E0007D1C40E06AE08BE494E00E94721D40E0D2
:1007F0006AE08BE494E00E947D1C40E06BE08BE4B7
:1008000094E00E94721D40E06BE08BE494E00E9453
:100810007D1C41E06CE08BE494E00E94721D41E09D
:100820006DE08BE494E00E94721D41E06EE08BE489
:1008300094E00E94721D41E06FE08BE494E00E941E
:10084000721D00E010E0602F8BE494E00E94A41C75
:10085000002E01C0880F0A94EAF720913304822BFE
:10086000809333040F5F1F4F0830110561F708E0D4
:1008700010E0602F8BE494E00E94A41C002E01C0C5
:10088000880F0A94EAF720913404822B8093340471
:100890000F5F1F4F0F30110561F760913304809196
:1008A0000C0190910D010E94A32C60913404809161
:1008B0000A0190910B010E94A32C14C069EF71E012
:1008C00081EE94E00E94CE0869EF71E0CE010196BE
:1008D0000E94650CCE0101960E94F200CE010196A5
:1008E0000E94F70B0E9428076B017C0163E172E014
:1008F000CE0101960E94650CCE0101960E94F20085
:10090000CE0101960E94F70BB601681979094AE0F9
:10091000CE0101960E94EA0CCE0101960E94F200DF
:10092000CE0101960E94F70B26960FB6F894DEBF13
:100930000FBECDBFDF91CF911F910F91FF90EF9030
:10094000DF90CF90BF90AF909F908F900895CF93FE
:10095000DF9300D000D000D0CDB7DEB769E272E0FF
:1009600081EE94E00E94CE0869E272E0CE01019629
:100970000E94650CCE0101960E94F200CE01019604
:100980000E94F70B64EF71E080E090E00E9459074D
:1009900060E084E00E94360826960FB6F894DEBF29
:1009A0000FBECDBFDF91CF910895CF93DF93CDB729
:1009B000DEB72C970FB6F894DEBF0FBECDBF48E16F
:1009C00050E06BE574E081EB94E00E945F0F6BE513
:1009D00074E0CE0107960E94650C60E472E0CE01DF
:1009E00007960E94160D8823C9F065E472E081EE37
:1009F00094E00E94CE0865E472E0CE0101960E9468
:100A0000650CCE0101960E94F200CE0101960E9473
:100A1000F70B84E895E00E94350E28C166E572E088
:100A2000CE0107960E94160D882341F061E082E016
:100A30000E94360881E080932C0418C163E672E0BE
:100A4000CE0107960E94160D882339F060E082E0FF
:100A50000E94360810922C0409C161E772E0CE01B1
:100A600007960E94160D882371F06DE772E081EE03
:100A700094E00E94CE0860E083E00E94360881E0A6
:100A800080932F04F3C069E872E0CE0107960E94BC
:100A9000160D882369F066E972E081EE94E00E9409
:100AA000CE0861E083E00E94360810922F04DEC079
:100AB00063EA72E0CE0107960E94160D882371F05A
:100AC0006FEA72E081EE94E00E94CE0860E085E07B
:100AD0000E94360881E080933004C8C06BEB72E05E
:100AE000CE0107960E94160D882369F068EC72E02B
:100AF00081EE94E00E94CE0861E085E00E94360815
:100B000010923004B3C065ED72E0CE0107960E94EA
:100B1000160D882371F061EE72E081EE94E00E9480
:100B2000CE0860E086E00E94360881E080933104C0
:100B30009DC06DEE72E0CE0107960E94160D8823CF
:100B400069F06AEF72E081EE94E00E94CE0861E005
:100B500086E00E9436081092310488C067E073E096
:100B6000CE0107960E94160D882371F063E173E0B1
:100B700081EE94E00E94CE0860E087E00E94360893
:100B800081E08093320472C06FE173E0CE0107967A
:100B90000E94160D882369F06CE273E081EE94E008
:100BA0000E94CE0861E087E00E943608109232046D
:100BB0005DC069E373E0CE0107960E94160D88239D
:100BC00041F061E088E00E94360881E080932D04C6
:100BD0004DC060E473E0CE0107960E94160D882395
:100BE00039F060E088E00E94360810922D043EC083
:100BF00068E473E0CE0107960E94160D882371F019
:100C00006FE473E081EE94E00E94CE0861E089E039
:100C10000E94360881E080932E0428C066E573E0C8
:100C2000CE0107960E94160D882339F060E089E016
:100C30000E94360810922E0419C06EE573E0CE01B2
:100C400007960E94160D882319F00E94A7040EC073
:100C500064E673E0CE0101960E94650CCE01019618
:100C60000E94F200CE0101960E94F70B88E1EBE5AD
:100C7000F4E0DF011D928A95E9F7CE0107960E9404
:100C8000F70B2C960FB6F894DEBF0FBECDBFDF91E9
:100C9000CF910895CF93DF9300D000D000D0CDB78F
:100CA000DEB70E94280780E494E00E94530D882359
:100CB000C9F080E494E00E94810D60932404709355
:100CC0002504809326049093270480E494E00E94F6
:100CD000D20D609328047093290480932A04909382
:100CE0002B041AC06FE773E081EE94E00E94CE08F7
:100CF00080E090E0A6ECB2EC80932404909325046D
:100D0000A0932604B0932704809328049093290489
:100D1000A0932A04B0932B040E9428070E94E92A7A
:100D200020913C0430913D0440913E0450913F0499
:100D30000E94DB2920E030E04AE754E40E94482A80
:100D40006093140470931504809316049093170411
:100D500062E973E0CE0101960E94650CCE01019616
:100D60000E94F200CE0101960E94F70B64E973E045
:100D700081EE94E00E94CE0881EB94E00E94C40FC3
:100D800090937404809373041816190614F40E9447
:100D9000D5048EE995E00E9449170E94280760ED6E
:100DA00077E080E090E00E94590726960FB6F8940D
:100DB000DEBF0FBECDBFDF91CF9108951F920F927E
:100DC0000FB60F9211242F933F938F939F93AF935E
:100DD000BF938091D9049091DA04A091DB04B09183
:100DE000DC043091D80423E0230F2D3720F4019642
:100DF000A11DB11D05C026E8230F0296A11DB11D3E
:100E00002093D8048093D9049093DA04A093DB0450
:100E1000B093DC048091DD049091DE04A091DF04A6
:100E2000B091E0040196A11DB11D8093DD04909363
:100E3000DE04A093DF04B093E004BF91AF919F91D3
:100E40008F913F912F910F900FBE0F901F9018958B
:100E50002FB7F8946091D9047091DA048091DB0483
:100E60009091DC042FBF08953FB7F8948091DD0482
:100E70009091DE04A091DF04B091E00426B5A89B18
:100E800005C02F3F19F00196A11DB11D3FBFBA2F1C
:100E9000A92F982F8827820F911DA11DB11DBC017C
:100EA000CD0142E0660F771F881F991F4A95D1F741
:100EB00008958F929F92AF92BF92CF92DF92EF925E
:100EC000FF926B017C010E9434074B015C01C1144D
:100ED000D104E104F10401F10E94D0070E9434071B
:100EE000DC01CB0188199909AA09BB09883E934006
:100EF000A105B10560F321E0C21AD108E108F108AB
:100F000088EE880E83E0981EA11CB11CC114D10488
:100F1000E104F10419F7DBCFFF90EF90DF90CF9061
:100F2000BF90AF909F908F900895789484B5826021
:100F300084BD84B5816084BD85B5826085BD85B57D
:100F4000816085BDEEE6F0E0808181608083E1E82C
:100F5000F0E0108280818260808380818160808364
:100F6000E0E8F0E0808181608083E1EBF0E0808167
:100F700084608083E0EBF0E0808181608083EAE739
:100F8000F0E08081846080838081826080838081C2
:100F9000816080838081806880831092C100089581
:100FA0000895833081F028F4813099F08230A1F0E7
:100FB00008958730A9F08830B9F08430D1F4809159
:100FC00080008F7D03C0809180008F7780938000A8
:100FD000089584B58F7702C084B58F7D84BD089550
:100FE0008091B0008F7703C08091B0008F7D809397
:100FF000B0000895CF93DF9390E0FC01E458FF4FD9
:101000002491FC01E057FF4F8491882361F190E027
:10101000880F991FFC01E255FF4FC591D491FC0147
:10102000EC55FF4FA591B491611109C09FB7F89499
:101030008881209582238883EC912E230BC0623017
:1010400061F49FB7F8943881822F80958323888339
:10105000EC912E2B2C939FBF06C08FB7F894E8819C
:101060002E2B28838FBFDF91CF9108951F93CF93AD
:10107000DF93282F30E0F901E859FF4F8491F901FF
:10108000E458FF4FD491F901E057FF4FC491CC23AE
:10109000C9F0162F81110E94D107EC2FF0E0EE0F5E
:1010A000FF1FEC55FF4FA591B4918FB7F894111124
:1010B00005C09C91ED2FE095E92302C0EC91ED2B4A
:1010C000EC938FBFDF91CF911F91089580E090E066
:1010D0000895CF92DF92EF92FF920F931F93CF93D9
:1010E000DF936C017A018B01C0E0D0E0CE15DF0503
:1010F00089F0D8016D918D01D601ED91FC9101909F
:10110000F081E02DC6010995892B11F47E0102C002
:101110002196ECCFC701DF91CF911F910F91FF90E6
:10112000EF90DF90CF9008956115710579F0FB0184
:1011300001900020E9F73197AF01461B570BDC0106
:10114000ED91FC910280F381E02D099480E090E024
:101150000895DC01ED91FC91DB0114964D915C91B9
:1011600015976D917C910280F381E02D09940C9488
:101170009408DC01ED91FC910190F081E02D09943F
:10118000DB01ED91FC9111970190F081E02DBC0104
:10119000CD01099467EA73E00C9494080F931F93B0
:1011A000CF93DF93EC010E9494088C01CE010E9442
:1011B000CA08800F911FDF91CF911F910F91089561
:1011C0000F931F93CF93DF93EC010E94C0088C0113
:1011D000CE010E94CA08800F911FDF91CF911F910D
:1011E0000F9108954F925F926F927F92EF92FF92CC
:1011F0000F931F93CF93DF93CDB7DEB7A1970FB6B1
:10120000F894DEBF0FBECDBF7C01FA01CB0119A25D
:10121000223008F42AE08E010F5D1F4F422E512C20
:10122000612C712CBF01A30192010E94F42BF901E2
:10123000CA01015011096A3014F4605D01C0695C93
:10124000D8016C93232B242B252B61F7B801C70100
:101250000E949408A1960FB6F894DEBF0FBECDBFD2
:10126000DF91CF911F910F91FF90EF907F906F9042
:101270005F904F900895CF92DF92EF92FF920F937D
:101280001F93CF93DF93EC016A017B012115310598
:1012900079F4E881F9810190F081E02D642FDF91EC
:1012A000CF911F910F91FF90EF90DF90CF90099415
:1012B0002A303105E9F477FF1AC06DE20E94B908BF
:1012C0008C0144275527BA014C195D096E097F0925
:1012D0002AE0CE010E94F208800F911FDF91CF918A
:1012E0001F910F91FF90EF90DF90CF9008952AE02B
:1012F000B701A601CE01DF91CF911F910F91FF9011
:10130000EF90DF90CF900C94F2089A01AB01770F29
:10131000660B770B0C943B092115310541F4DC0178
:10132000ED91FC910190F081E02D642F09940C94D3
:10133000F2089A01462F50E060E070E00C948C09AE
:101340001F920F920FB60F9211242F938F939F939A
:10135000EF93FF93E091F104F091F2048081E0912A
:10136000F704F091F80482FD12C090818091FA0494
:101370008F5F8F732091FB04821751F0E091FA0484
:10138000F0E0EF51FB4F958F8093FA0401C080810C
:10139000FF91EF919F918F912F910F900FBE0F9022
:1013A0001F9018951F920F920FB60F9211242F9332
:1013B0003F934F935F936F937F938F939F93AF93DD
:1013C000BF93EF93FF9381EE94E00E948A0AFF910E
:1013D000EF91BF91AF919F918F917F916F915F91AD
:1013E0004F913F912F910F900FBE0F901F90189526
:1013F00081EE94E00E943F0A21E0892B09F420E06D
:10140000822F0895E1EEF4E01382128288EE93E0D9
:10141000A0E0B0E084839583A683B7838AEB93E052
:101420009183808385EC90E09587848784EC90E0BD
:101430009787868780EC90E0918B808B81EC90E0A1
:10144000938B828B82EC90E0958B848B86EC90E082
:10145000978B868B118E128E138E148E089508959D
:101460000E9495070E942F0A0E942B01CCE7DAE028
:101470000E944A062097E1F30E947C0AF9CFFC0102
:10148000918D228D892F90E0805C9F4F821B910966
:101490008F7399270895FC01918D828D981731F0F3
:1014A000828DE80FF11D858D90E008958FEF9FEFFD
:1014B0000895FC01918D828D981761F0828DDF0176
:1014C000A80FB11D5D968C91928D9F5F9F73928F37
:1014D00090E008958FEF9FEF0895FC01538D448DA8
:1014E000252F30E0842F90E0821B930B541710F0CF
:1014F000CF9608950197089588EF99E0892B49F0D8
:1015000080E090E0892B29F00E94F80981110C9469
:1015100000000895FC01848DDF01A80FB11DA35ABE
:10152000BF4F2C91848D90E001968F739927848F03
:10153000A689B7892C93A089B1898C9180648C93FA
:10154000938D848D981306C00288F389E02D8081E5
:101550008F7D80830895CF93DF93EC01888D88235E
:10156000C9F0EA89FB89808185FD05C0A889B98910
:101570008C9186FD0FC00FB607FCF5CF808185FFEB
:10158000F2CFA889B9898C9185FFEDCFCE010E9459
:101590008A0AE7CFDF91CF910895EF92FF920F93E0
:1015A0001F93CF93DF93EC0181E0888F9B8D8C8D0F
:1015B000981305C0E889F989808185FD24C0F62E3D
:1015C0000B8D10E00F5F1F4F0F731127E02E8C8DD6
:1015D000E8120CC00FB607FCFACFE889F9898081C0
:1015E00085FFF5CFCE010E948A0AF1CF8B8DFE01D7
:1015F000E80FF11DE35AFF4FF0820B8FEA89FB8958
:101600008081806207C0EE89FF896083E889F9895B
:1016100080818064808381E090E0DF91CF911F9191
:101620000F91FF90EF900895CF92DF92EF92FF928B
:101630001F93CF93DF93EC016A017B01122FE8899E
:10164000F98982E080834115514E61057105B1F041
:1016500060E079E08DE390E0A70196010E94F42B11
:10166000DA01C9010197A109B109B695A795979526
:101670008795AC01411580E15807A8F0E889F98900
:10168000108260E874E88EE190E0A70196010E9464
:10169000F42BBA01A90141505109610971097695EC
:1016A000679557954795EC85FD855083EE85FF85B9
:1016B0004083188EEC89FD891083EA89FB8980813B
:1016C00080618083EA89FB89808188608083EA89E0
:1016D000FB89808180688083EA89FB8980818F7D96
:1016E0008083DF91CF911F91FF90EF90DF90CF909B
:1016F00008958F929F92AF92BF92CF92DF92EF9216
:10170000FF920F931F93CF93DF937C018B016C01AA
:1017100082E0C80ED11C4701E5E08E0E911CC0E0AE
:10172000D0E0F60161916F014AE050E0C8010E94EB
:1017300099095C016EE2C8010E94B9088A0D9B1DDF
:10174000C80FD91FC814D90461F74AE050E0F70167
:101750006581C8010E9499098C0F9D1FDF91CF916F
:101760001F910F91FF90EF90DF90CF90BF90AF90BF
:101770009F908F9008952CEC33E0FC0131832083FF
:10178000128213821482158208950F93FC018CEC4F
:1017900093E09183808362834383248305830F9145
:1017A00008952CEC33E0FC0131832083FB01408160
:1017B000518162817381FC01428353836483758309
:1017C0000895FB014081518162817381FC01428354
:1017D0005383648375830895EEE7F5E08CEC93E022
:1017E0009183808312821382148215820895FC01F2
:1017F000808191810C94B927CF93DF93EC0188818C
:101800009981009711F00E94B927198218821D82D0
:101810001C821B821A82DF91CF9108950F931F9330
:10182000CF93DF93EC018B016F5F7F4F88819981AC
:101830000E94AD28009731F0998388831B830A8327
:1018400081E001C080E0DF91CF911F910F91089559
:10185000CF93DF93EC0188819981892B29F08A81CC
:101860009B818617970760F4CE010E940E0C882397
:1018700041F08C819D81892B19F4E881F9811082D6
:1018800081E0DF91CF910895EF92FF920F931F9324
:10189000CF93DF93EC017B018A01BA010E94280CEF
:1018A000811104C0CE010E94FC0B07C01D830C8374
:1018B000B701888199810E949929CE01DF91CF914A
:1018C0001F910F91FF90EF900895FC0111821082FB
:1018D00013821282158214826115710551F0FB0189
:1018E00001900020E9F73197AF01461B570B0C948C
:1018F000440C0895CF93DF93EC016115710559F005
:10190000FB0101900020E9F73197AF01461B570B0F
:101910000E94440C02C00E94FC0BCE01DF91CF91CB
:1019200008950F931F93CF93DF93CDB7DEB7299719
:101930000FB6F894DEBF0FBECDBF8C01862FF80125
:1019400011821082138212821582148250E0BE012D
:101950006F5F7F4F90E00E94B629BE016F5F7F4F9F
:10196000C8010E947A0C29960FB6F894DEBF0FBE0C
:10197000CDBFDF91CF911F910F9108950F931F93CA
:10198000CF93DF93CDB7DEB762970FB6F894DEBF83
:101990000FBECDBF8C01CB01F801118210821382E2
:1019A00012821582148250E0BE016F5F7F4F0E9449
:1019B000A029BE016F5F7F4FC8010E947A0C62961A
:1019C0000FB6F894DEBF0FBECDBFDF91CF911F9150
:1019D0000F9108950F931F93CF93DF93CDB7DEB789
:1019E00061970FB6F894DEBF0FBECDBF8C01CB015F
:1019F000F80111821082138212821582148250E043
:101A0000BE016F5F7F4F0E94B629BE016F5F7F4F9F
:101A1000C8010E947A0C61960FB6F894DEBF0FBE23
:101A2000CDBFDF91CF911F910F910895FC012481CB
:101A30003581232B31F421E061157105A1F0FB0103
:101A400008C0FC01808191816115710531F421E0AC
:101A5000FC018081882339F005C00E94902921E093
:101A6000892B09F020E0822F0895DC01ED91FC9193
:101A70000190F081E02D0994089560E470E08CE11C
:101A800096E00E94891E6EEF70E08CE196E00E9465
:101A9000350D8CE196E00E94081F6FE070E080E059
:101AA00090E00C945907CF93DF93EC018CE196E022
:101AB0000E94751ECE010E943D0D60E470E08CE135
:101AC00096E00E94891E67EE70E08CE196E00E942D
:101AD000350D8CE196E00E94081F41E050E060E483
:101AE00070E08CE196E00E94051F8CE196E00E9478
:101AF000E21D21E0029709F020E0822FDF91CF91D3
:101B00000895CF93DF9360E470E08CE196E00E944B
:101B1000891E63EE70E08CE196E00E94350D8CE149
:101B200096E00E94081F62E370E080E090E00E946F
:101B3000590743E050E060E470E08CE196E00E94D9
:101B4000051F8CE196E00E94DA1D892BD1F38CE110
:101B500096E00E94E21DD82F80E0C82F8CE196E02D
:101B60000E94E21DC82BD92B8CE196E00E94E21D59
:101B7000BE0180E090E00E94E92A22E538EB4FE2C6
:101B800053E40E94772B20E030E040E857E30E94C6
:101B9000772B26E636E64BE352E40E94DB29DF9101
:101BA000CF910895CF93DF9360E470E08CE196E0ED
:101BB0000E94891E65EE70E08CE196E00E94350D72
:101BC0008CE196E00E94081F62E370E080E090E004
:101BD0000E94590743E050E060E470E08CE196E039
:101BE0000E94051F8CE196E00E94DA1D892BD1F33B
:101BF0008CE196E00E94E21DD82F80E0C82F8CE196
:101C000096E00E94E21DC82BD92B8CE196E00E9441
:101C1000E21DBE0180E090E00E94E92A20E030E071
:101C20004AEF52E40E94772B20E030E040E857E38F
:101C30000E94772B20E030E040EC50E40E94DB294A
:101C4000DF91CF91089508958FEF9FEF90938505D1
:101C50008093840508951F920F920FB60F9211245E
:101C60000F900FBE0F901F901895A8950895DA0158
:101C7000F90160348FE178071CF46115710539F4BE
:101C800089E090E08D939C9380E49FE158C0603A96
:101C90008FE078073CF088E090E08D939C9380EA99
:101CA0009FE04DC0603D87E078073CF087E090E022
:101CB0008D939C9380ED97E042C0683E83E0780767
:101CC0003CF086E090E08D939C9388EE93E037C0E3
:101CD000643F81E078073CF085E090E08D939C9331
:101CE00084EF91E02CC06A3F71053CF084E090E005
:101CF0008D939C938AEF90E022C0683771053CF089
:101D000083E090E08D939C9388E790E018C06C335B
:101D100071053CF082E090E08D939C938CE390E021
:101D20000EC06E3171053CF081E090E08D939C9384
:101D30008EE190E004C01D921C928FE090E09183B0
:101D4000808308950F931F93CF93DF9300D0CDB777
:101D5000DEB78C019E012F5F3F4FAC010E94370E12
:101D6000F801808183FD02C098E001C098E287708D
:101D7000892B98E10FB6F894A895909360000FBE58
:101D80008093600089819A810F900F90DF91CF91AD
:101D90001F910F910895DC01ED91FC91048CF58D5C
:101DA000E02D09942CEC33E0FC0131832083FB010E
:101DB0004089518962897389FC014283538364831A
:101DC00075830895FC01848995890895FC01818DAE
:101DD000928D0895CF93DF931F92CDB7DEB76983BD
:101DE000DC01ED91FC910280F381E02D41E050E0B7
:101DF000BE016F5F7F4F09950F90DF91CF910895DE
:101E00000895CF93DF93EC01888D843061F00E94B8
:101E10008114E88DF0E0EE0FFF1FEC5FF94F1182A7
:101E2000108284E0888FDF91CF910895FC01178A9A
:101E3000168A6E5F7F4F808D0C94FF15FC01808D9C
:101E40000C944516CF93DF93EC019A018E899F89FC
:101E5000AB01BC01888D0E94B8152E893F89280FDF
:101E6000391F3F8B2E8BDF91CF9108950F931F93D6
:101E7000CF93DF931F92CDB7DEB7FC01218D328D5A
:101E8000232B61F08C0141E050E0BE016F5F7F4F7A
:101E9000808D0E94FE14181619061CF08FEF9FEF1C
:101EA00008C0F801818D928D0197928F818F898171
:101EB00090E00F90DF91CF911F910F910895CF93F4
:101EC000DF93FC01218D328D2115310519F48FEF3F
:101ED0009FEF11C0EC014217530708F0A901888D4C
:101EE0000E94FE141816190694F7298D3A8D281BA6
:101EF000390B3A8F298FDF91CF910895CF93DF93DC
:101F00001F92CDB7DEB7FC01218D328D232B49F016
:101F1000BE016F5F7F4F808D0E948915898190E09F
:101F200002C08FEF9FEF0F90DF91CF910895EF9256
:101F3000FF921F93CF93DF93FC01208D243011F08B
:101F400080E01CC07B01EC0110E0812F0E9459143D
:101F5000811102C0188F05C08831E1F31F5F143072
:101F6000A1F7888D843061F3FD86EC861A8E198E78
:101F700020E0A70162E00E94AB1481E0DF91CF91E5
:101F80001F91FF90EF9008950F931F93CF93DF93CE
:101F9000CDB7DEB728970FB6F894DEBF0FBECDBF22
:101FA0008C01F801818D928D892B49F0D801ED913A
:101FB000FC910284F385E02DC8010995F2CF808D54
:101FC0000E945E151816190654F548E050E0BE014F
:101FD0006F5F7F4FD80158968C910E94FE149C0130
:101FE00018161906D4F4BE016F5F7F4FC8010E9614
:101FF0000E94E10B8D8190E0982F88272E81820F1F
:10200000911DF801958B848B2F8130E0322F222790
:102010008885280F311D328F218FC90102C080E0D1
:1020200090E028960FB6F894DEBF0FBECDBFDF91CB
:10203000CF911F910F9108958F929F92AF92BF926F
:10204000CF92DF92EF92FF920F931F93CF93DF9384
:1020500000D000D000D0CDB7DEB7FC01208D2430F9
:1020600009F068C06A017B018C0153E0852E54E0C1
:10207000952EA12CB12CC4010E94FF11811103C027
:10208000F801A08E0AC08831D9F3FFEFAF1ABF0A5A
:102090009394E4E0AE16B10471F7F801808D8430BA
:1020A00009F448C096E0E6E1F1E0DE011196019006
:1020B0000D929A95E1F7F70193819F779C83948124
:1020C0009D8395819E83B7016E5F7F4F90E0982F2F
:1020D000882744E050E0845F9B4F0E94D011F801B4
:1020E000E08CF12CF4E0EF0EF11CFE2CEE246D2DB3
:1020F000C70140960E943C116C2DC70141960E9479
:102100003C11F801808D90E0982F882746E050E040
:10211000BE016F5F7F4F8A5F9B4F0E94D011F80115
:10212000128E118E20E8A60162E0808D0E94AB1411
:1021300081E001C080E026960FB6F894DEBF0FBEA6
:10214000CDBFDF91CF911F910F91FF90EF90DF9066
:10215000CF90BF90AF909F908F900895CF93DF93D3
:10216000EC011B821A8288EE93E0A0E0B0E08C8341
:102170009D83AE83BF8382ED93E099838883CE01F4
:102180000E960E94BB0B84E0888FDF91CF9108955B
:10219000CF92DF92EF92FF920F931F93CF93DF9333
:1021A000CDB7DEB7AF970FB6F894DEBF0FBECDBF89
:1021B0008C016B017A01CE0101960E94BB0BCE010E
:1021C00009960E94AE10CE018A960E94BB0B6EE962
:1021D00075E0CE0184960E94C617BE016C5D7F4FEC
:1021E000CE0101960E94E817AE01465D5F4FB60131
:1021F000CE0101960E94571A81309105C1F4D80191
:10220000ED91FC910488F589E02D8CEC93E09DA381
:102210008CA38CA59DA5AEA5BFA58EA39FA3A8A7A3
:10222000B9A7A701BE016C5D7F4FC8010995AF96A4
:102230000FB6F894DEBF0FBECDBFDF91CF911F91D7
:102240000F91FF90EF90DF90CF9008950F9300E0F3
:1022500020E040E060E086E895E00E94C50B0F9129
:1022600008958EBD00000DB407FEFDCF8EB5089514
:102270002A9808952A9A08951F93CF93DF9300D048
:10228000CDB7DEB7182F6A8399830E94381180EF8B
:102290000E9431119981892F0E943111812F0E9452
:1022A00031116A81862F0E9431110E943A1181E01A
:1022B0000F900F90DF91CF911F910895CF93DF93EF
:1022C000EC016CE271E080E090E00E9459070E940E
:1022D000E51A229A80911A06882399F02FB7F8946C
:1022E00080911A06813059F48DB3809318069DB3FE
:1022F00080911906809589238DBB2FBF02C0209342
:10230000180680E58CBD1DBC60E880E090E00E946E
:102310003C1165E58BE190E00E943C1165E58AE1A6
:1023200090E00E943C1180911A06882351F09FB7DB
:10233000F89420911A0680911806213029F58DBB5A
:102340009FBF80E090E49983888380E090E699873E
:10235000888780E098E49B838A8380E098E69B8767
:102360008A8780E090E59D838C8380E090E79D875D
:102370008C8780E098E59F838E8380E098E79F8735
:102380008E87DF91CF9108958FBFDBCF9B0190E0C7
:102390000496982F8827642F820F931F0C943C116A
:1023A000CF92DF92EF92FF920F931F93CF93DF9321
:1023B000EC017A018B016C01C40ED51ECC15DD0534
:1023C000A1F00E94381180EF0E9431118D2F0E94E0
:1023D00031118C2F0E9431112196F80181918F01CA
:1023E0000E9431110E943A11E9CFC701DF91CF91CC
:1023F0001F910F91FF90EF90DF90CF9008951F9362
:10240000CF93DF931F92CDB7DEB7182F99830E9429
:1024100038118FE00E9431119981892F0E9431116A
:10242000812F0E94311180E00E94311189830E9426
:102430003A1189810F90DF91CF911F91089590E01B
:102440000496982F8827860F971F0C94FF111F93CF
:10245000CF93DF93182F60E270E00E941F12C82F05
:10246000D0E061E270E0812F0E941F12DC2FCC27A8
:102470009E01282BC901DF91CF911F910895FF92F2
:102480000F931F93CF93DF93F62EC0E0D0E08F2DF4
:102490000E9427128C01892B21F08F2D0E94271278
:1024A000EC01C017D10799F7CE01DF91CF911F91B1
:1024B0000F91FF9008951F93CF93DF93182F66E23B
:1024C00070E00E941F12C82FD0E067E270E0812FF9
:1024D0000E941F12DC2FCC279E01282BC901DF91FF
:1024E000CF911F910895FF920F931F93CF93DF9386
:1024F000F62EC0E0D0E08F2D0E945B128C01892B5C
:1025000021F08F2D0E945B12EC01C017D10799F7C3
:10251000CE01DF91CF911F910F91FF9008956F929F
:102520007F928F929F92AF92BF92CF92DF92EF9263
:10253000FF920F931F93CF93DF931F92CDB7DEB718
:10254000882E962E6A01590164E270E0892D9983E4
:102550000E941F12E82EF12C65E270E0892D0E9486
:102560001F12FE2CEE24E82A37016C0C7D1CA301FF
:102570005770E82C9981F92EE90CF11CE90CF11C3B
:10258000F70180819181840F951F9A01200F311FDF
:102590002130384098F060E078E06B01C41AD50A29
:1025A000A601B5010E94D011A8014C195D09B50121
:1025B0006C0D7D1DF7018081918102C0A801B501DC
:1025C0000E94D011060D171D412F64E270E0892D85
:1025D0000E94C611402F65E270E0892D0F90DF91B7
:1025E000CF911F910F91FF90EF90DF90CF90BF9010
:1025F000AF909F908F907F906F900C94C611CF9268
:10260000DF92EF92FF920F931F93CF93DF93EC0132
:102610007A018B016C01C40ED51ECC15DD05A9F025
:102620000E9438118FE00E9431118D2F0E943111CC
:102630008C2F0E943111219680E00E943111F80107
:1026400081938F010E943A11E8CFC701DF91CF91AA
:102650001F910F91FF90EF90DF90CF900895AF9270
:10266000BF92CF92DF92EF92FF920F931F93CF937F
:10267000DF9300D0CDB7DEB75A8349835901298152
:102680003A8137706C01C60ED11CC60ED11CF60102
:1026900080859185820F931FA801420F531F4130FF
:1026A000584098F0E0E0F8E07F01E21AF30AA70151
:1026B000B5010E94FF12A8014E195F09B5016E0D08
:1026C0007F1DF6018085918502C0A801B5010F909C
:1026D0000F90DF91CF911F910F91FF90EF90DF90BE
:1026E000CF90BF90AF900C94FF128F929F92AF92B9
:1026F000BF92CF92DF92EF92FF920F931F93CF93EF
:10270000DF936C01962E5A017901802E68E270E009
:10271000892D0E941F12C82FD0E069E270E0892D38
:102720000E941F12DC2FCC27C82B87019501AE0118
:10273000692DC6010E942F1381101AC0CE0DDF1D16
:102740004D2F68E270E0892D0E94C6114C2F69E27E
:1027500070E0892DDF91CF911F910F91FF90EF9045
:10276000DF90CF90BF90AF909F908F900C94C61148
:10277000DF91CF911F910F91FF90EF90DF90CF905D
:10278000BF90AF909F908F900895CF93C62F61E038
:1027900070E08C2F0E94C61161E070E08C2F0E94C7
:1027A0001F128111F9CFCF9108950F93FC0130E0F2
:1027B00080E092E1AAE7B0E0481759076A077B0773
:1027C00040F4B695A795979587953F5F3630A1F76A
:1027D00037E091E09327222311F020E501C020E7A4
:1027E000892F86950C70082B022B008391709183A2
:1027F0000F91089520911A06222399F04FB7F8946B
:1028000020911A06213059F42DB3209318063DB3B8
:1028100020911906209523232DBB4FBF02C0409362
:1028200018068CBD9DBD089580911A06882361F01D
:102830009FB7F89420911A0680911806213019F458
:102840008DBB9FBF08958FBF089590E0982F882774
:1028500044E050E0845F9B4F0C94D01162E070E044
:102860000C941F12CF93DF93C82FD62F472F64E00D
:1028700070E00E94C6114D2F65E070E08C2FDF9153
:10288000CF910C94C611462F62E070E00C94C611F3
:10289000CF93DF93C82FD62F472F60E170E00E94BF
:1028A000C6114D2F61E170E08C2FDF91CF910C9418
:1028B000C6110F931F93CF93DF9300D01F92CDB714
:1028C000DEB7182F00E021E040E059E06DE370E052
:1028D000CE0101960E94D51389819A810E94FA1334
:1028E00063E070E0812F0E941F128B830E941414FA
:1028F0008B810F900F900F90DF91CF911F910F91CF
:1029000008950F931F93CF93DF9300D0CDB7DEB719
:10291000182F00E021E040E059E06DE370E0CE01C7
:1029200001960E94D51389819A810E94FA1340E191
:1029300050E0612F8CE895E00E94C5136FEF812F66
:102940000E9443140E9414140F900F90DF91CF91B6
:102950001F910F910895CF92DF92EF92FF920F9304
:102960001F93CF93DF9300D0CDB7DEB79FEF960FC5
:102970009530C0F5F22E6A01E62E182F0E948114C0
:1029800000E021E040E059E06DE370E0CE01019607
:102990000E94D51389819A810E94FA134E2D4F29E6
:1029A00060E070E0812F0E94C611C114D10411F0C3
:1029B000B6010AC060919C0570919D056F5F7F4FC5
:1029C00070939D0560939C05812F0E94321441E015
:1029D00050E0612F8CE895E00E94C5130E9414140A
:1029E00081E001C080E00F900F90DF91CF911F91A7
:1029F0000F91FF90EF90DF90CF900895AF92BF922C
:102A0000CF92DF92EF92FF920F931F93CF93DF93BA
:102A100000D0CDB7DEB7182F5B016A0100E021E0DE
:102A200040E059E06DE370E0CE0101960E94D513BD
:102A300089819A810E94FA13612F8CE895E00E94A7
:102A400073127C010097A1F463E070E0812F0E9473
:102A50001F12843119F1882309F121E030E08C3113
:102A600011F420E030E0EE24FF24E21AF30A16C04D
:102A7000C816D9060CF476011E141F047CF400E07D
:102A80009701A501612F8CE895E00E94751340E441
:102A900050E0612F8CE895E00E94C5130E94141449
:102AA000C7010F900F90DF91CF911F910F91FF9071
:102AB000EF90DF90CF90BF90AF9008950F931F934A
:102AC000CF93DF9300D000D0CDB7DEB7182F00E052
:102AD00021E040E059E06DE370E0CE0101960E94F4
:102AE000D51389819A810E94FA13612F8CE895E0B1
:102AF0000E9473128B839C830E9414148B819C818F
:102B00000F900F900F900F90DF91CF911F910F9129
:102B10000895EF92FF920F931F93CF93DF9300D00E
:102B2000CDB7DEB7182F7B0100E021E040E059E08F
:102B30006DE370E0CE0101960E94D51389819A81E0
:102B40000E94FA1301E021E030E0A701612F8CE838
:102B500095E00E9475130E94141481E090E00F909C
:102B60000F90DF91CF911F910F91FF90EF900895FB
:102B70008F929F92AF92BF92DF92EF92FF920F934C
:102B80001F93CF93DF9300D0CDB7DEB7D82E5B0174
:102B90004A01790100E021E040E059E06DE370E096
:102BA000CE0101960E94D51389819A810E94FA1361
:102BB0006D2D8CE895E00E943F128E159F0530F434
:102BC0006D2D8CE895E00E943F127C0187019401F5
:102BD000A5016D2D8CE895E00E948F120E941414BF
:102BE000C7010F900F90DF91CF911F910F91FF9030
:102BF000EF90DF90BF90AF909F908F900895CF920D
:102C0000DF92EF92FF920F931F93CF93DF9300D049
:102C1000CDB7DEB7FB019081911109C0918191116F
:102C200006C09281911103C09381992309F1411546
:102C30005105F1F06A017F01182F00E021E040E02A
:102C400059E06DE370E0CE0101960E94D5138981B1
:102C50009A810E94FA13B701812F0E942514B601B0
:102C6000812F0E9448140E94141481E090E002C059
:102C700080E090E00F900F90DF91CF911F910F9126
:102C8000FF90EF90DF90CF9008950F931F93CF9315
:102C9000DF9300D0CDB7DEB7182F00E021E040E091
:102CA00059E06DE370E0CE0101960E94D513898151
:102CB0009A810E94FA1340E250E0612F8CE895E07F
:102CC0000E94C513812F0E942E1484FD21C0812FE4
:102CD0000E942E1483FF09C068E1812F0E944314D3
:102CE0000E94141480E090E01BC00E9414140E9403
:102CF000D00700E021E040E059E06DE370E0CE0154
:102D000001960E94D51389819A810E94FA13DACF25
:102D100060E1812F0E9443140E94141481E090E02E
:102D20000F900F90DF91CF911F910F91089544E084
:102D300050E0BC0181E090E00C94D01144E050E000
:102D4000BC0185E090E00C94D01144E050E0BC015F
:102D50008FE090E00C94D0112F923F924F925F92AF
:102D60006F927F928F929F92AF92BF92CF92DF929B
:102D7000EF92FF920F931F93CF93DF9300D000D079
:102D800000D0CDB7DEB76C011B0129013A01470124
:102D9000580186EA95E0F601978386838CE895E0F2
:102DA0000E945E1180E590E00E94FA1346E050E038
:102DB000B10189E090E00E94D01100E020E040E005
:102DC00060E0CE0101960E94C50BCE0103960E94E1
:102DD000A5160E94141485017401A3019201B1018A
:102DE000F601868197810E9448268C010197B9F5EA
:102DF00080E590E00E94FA13F60166817781CE01AA
:102E000001960E948221CE0103960E94A516F6012A
:102E100066817781CE0101960E949821CE010396AA
:102E20000E949716F60166817781CE0101960E9475
:102E30008D21CE0103960E949E160E941414F60165
:102E400066817781CE0101960E94A3218B819C81AE
:102E5000AD81BE81F60182839383A483B583C801CB
:102E600026960FB6F894DEBF0FBECDBFDF91CF918F
:102E70001F910F91FF90EF90DF90CF90BF90AF9098
:102E80009F908F907F906F905F904F903F902F908A
:102E90000895EF92FF920F931F93CF93DF9300D08B
:102EA00000D000D0CDB7DEB7FC01268137812115D7
:102EB000310509F443C08C01C9010E9487267C01B9
:102EC000029721F084E0E816F104D1F580E590E066
:102ED0000E94FA13F80166817781CE0101960E9463
:102EE0008221CE0103960E94A516F80166817781A2
:102EF000CE0101960E949821CE0103960E9497165A
:102F0000F80166817781CE0101960E948D21CE0164
:102F100003960E949E160E941414F8016681778120
:102F2000CE0101960E94A3218B819C81AD81BE813F
:102F3000F80182839383A483B58302C0E12CF12C32
:102F4000C70126960FB6F894DEBF0FBECDBFDF9146
:102F5000CF911F910F91FF90EF900895CF93DF9342
:102F6000EC010E94BB0B80E590E00E94FA13BE01C9
:102F70006E5F7F4F44E050E08FE090E00E94FF12D0
:102F80000E941414CE01DF91CF9108952CEC33E010
:102F9000FC0131832083FB0142815381648175816F
:102FA000FC01428353836483758308950F9300E08B
:102FB00020E040E060E08CE096E00E94C50B89EEE6
:102FC00095E00E94AE108EE995E00F910C94BB0B3A
:102FD000FB014281538164817581FC0142835383EB
:102FE00064837583178216820895CF93DF93FB0164
:102FF00020E080E090E0AAE03191332301F160ED20
:10300000630F6A3080F4A89FB001A99F700D11244E
:10301000CB01C097830F911D37FD9A958F3F910586
:1030200059F350F313C03E3289F4233079F0EA01AA
:10303000C20FD11D8A832F5F80E090E0DDCF233067
:1030400029F4FA01858381E090E002C080E090E0FD
:10305000DF91CF9108950F9300E020E040E060E021
:1030600082E196E00E94C50B0F9108958F929F9286
:10307000AF92BF92CF92DF92EF92FF920F931F9386
:10308000CF93DF9300D000D01F92CDB7DEB78C0175
:103090006B010E942807F8017783668376276727EC
:1030A00076277A836983085F1F4F42E050E0BE01B4
:1030B0006F5F7F4FC8010E94220F81E090E09C83E8
:1030C0008B8342E050E0BE016D5F7F4FC8010E94DC
:1030D000220F80E091E09C838B8342E050E0BE01B0
:1030E0006D5F7F4FC8010E94220F1C821B8242E04D
:1030F00050E0BE016D5F7F4FC8010E94220F42E089
:1031000050E0BE016D5F7F4FC8010E94220F42E078
:1031100050E0BE016D5F7F4FC8010E94220F560133
:10312000F5018081882329F1C6017C01FC01208101
:103130000196211116C0570147018C189D081814DB
:10314000190494F48D8241E050E0BE016B5F7F4F23
:10315000C8010E94220FA401B601C8010E94220FDB
:1031600003C02E3211F7E7CF6701FFEFCF1ADF0A56
:10317000D7CF1D8241E050E0BE016B5F7F4FC80199
:103180000E94220FE12CFF24F394FC82EB8242E0A8
:1031900050E0BE016D5F7F4FC8010E94220FFC828C
:1031A000EB8242E050E0BE016D5F7F4FC8010E949C
:1031B000220F81E090E00F900F900F900F900F90F2
:1031C000DF91CF911F910F91FF90EF90DF90CF9003
:1031D000BF90AF909F908F9008954F925F926F92A3
:1031E0007F928F929F92AF92BF92CF92DF92EF9297
:1031F000FF920F931F93CF93DF93CDB7DEB7659701
:103200000FB6F894DEBF0FBECDBF7C015B016A0133
:103210000E9428072B013C018701085F1F4F4501D1
:10322000A12CB12CC8010E94C40F18161906A4F0D5
:103230000E942807DC01CB0184199509A609B7096A
:1032400088169906AA06BB06D0F062E370E080E01B
:1032500090E00E945907E6CFF701428153816481D3
:103260007581808D918DA28DB38D481759076A079E
:103270007B0741F4848D958DC59721F406C02FEF0F
:103280003FEFFDC02EEF3FEFFAC0C8010E94E60EEF
:103290000C97ECF04CE050E0BE016F5F7F4FC8012F
:1032A0000E945F0F6C818B810E9476219A8B898BA3
:1032B000F701E680F7806A8189810E947621E8160D
:1032C000F90641F489899A8997FF04C009C02DEF56
:1032D0003FEFD5C0C8010E94000F2CEF3FEFCFC0D9
:1032E0008F709270892B31F0C8010E94000F2BEF74
:1032F0003FEFC5C068858F810E9476215C01892BD4
:1033000031F4C8010E94000F2AEF3FEFB8C0E12C52
:10331000F12C6E818D810E947621E816F90640F528
:1033200041E050E0BE01635F7F4FC8010E945F0F24
:103330008D85811113C08D858111F2CFC8010E9446
:10334000360FC8010E94360FC8010E94360FC8010F
:103350000E94360FFFEFEF1AFF0ADBCF8D859FEF3C
:10336000980F9D87882339F3C8010E94360FF6CF46
:10337000E12CF12C41E050E0BE016D5E7F4FC801B1
:103380000E945F0F8B89982F907C61F4882371F0E5
:103390008B899FEF980F9B8B882341F0C8010E9477
:1033A000360FF6CFC8010E94360F1B8A8B89811118
:1033B000E1CF42E050E0BE01615F7F4FC8010E9453
:1033C0005F0F42E050E0BE01635F7F4FC8010E9483
:1033D0005F0FC8010E94360FC8010E94360FC80156
:1033E0000E94360FC8010E94360F42E050E0BE0135
:1033F0006F5E7F4FC8010E945F0F8F85988981158E
:10340000914001F52D853E85322723273227213033
:103410003105C1F489899A898115944031F0C80138
:103420000E94000F27EF3FEF2AC0B6016E5F7F4F6B
:1034300044E050E0C8012C8B3D8B0E945F0F2C892B
:103440003D891DC0812C912C89899A8998278927CB
:1034500098278816990638F4C8010E94360F8FEF16
:10346000881A980AF1CFEFEFEE1AFE0AEA14FB046D
:1034700009F080CFC8010E94000F26EF3FEFC9017D
:1034800065960FB6F894DEBF0FBECDBFDF91CF912A
:103490001F910F91FF90EF90DF90CF90BF90AF9072
:1034A0009F908F907F906F905F904F9008958F9234
:1034B0009F92AF92BF92CF92DF92EF92FF920F93C3
:1034C0001F93CF93DF9300D000D000D0CDB7DEB7ED
:1034D0007C014B015A010E94F5178C01892B09F0E0
:1034E0005BC0F7014281538164817581809114062C
:1034F00090911506A0911606B09117064817590726
:103500006A077B0709F44BC00E9428076701F8E0AF
:10351000CF0ED11C6F7077277C5FC6010E94970F7A
:10352000813009F03EC08CEC93E09A838983F701E7
:1035300082819381A481B5818B839C83AD83BE837B
:1035400045E350E0BE016F5F7F4FC6010E94160F3A
:10355000892B19F400E010E01BC0B401C7010E94E0
:103560003618892BB9F3C6010E941E0F892B91F3DF
:1035700083E0882E912CA50168E873E1C7010E94C1
:10358000ED188C01F1E08F1A910811F0019699F372
:10359000C6010E94010F05C001E010E002C00EEF5D
:1035A0001FEFC80126960FB6F894DEBF0FBECDBF41
:1035B000DF91CF911F910F91FF90EF90DF90CF900F
:1035C000BF90AF909F908F900895CF93CFB7F8940E
:1035D00080911B06811127C0EAE9F0E08491E6E8BA
:1035E000F0E09491E82FF0E0EE0FFF1FE255FF4F5F
:1035F000A591B491EC91E92321F461E08AE00E9465
:10360000360861E08AE00E94FA078CB580618CBDC3
:103610008CB580648CBD61E08DE00E94FA0761E0AA
:103620008BE00E94FA0780911B068F5F80931B0638
:10363000CFBFCF910895FC011482158216821782A4
:1036400008951F93CF93DF931F92CDB7DEB7162F48
:10365000FC0160818CE196E049830E947F1E612F0E
:103660008CE196E00E94361E4981642F8CE196E041
:103670000E94361E8CE196E00F90DF91CF911F9152
:103680000C94081F1F93CF93DF9300D0CDB7DEB704
:10369000162FFC0160818CE196E04A8359830E94D9
:1036A0007F1E612F8CE196E00E94361E5981652FA6
:1036B0008CE196E00E94361E4A81642F8CE196E0F0
:1036C0000E94361E8CE196E00F900F90DF91CF9113
:1036D0001F910C94081F1F93CF93DF93EC01162FBB
:1036E00068818CE196E00E947F1E612F8CE196E05C
:1036F0000E94361E8CE196E00E94081F41E068811E
:103700008CE196E00E94021FC8EED3E08CE196E0C7
:103710000E94DA1D1816190634F0209711F021972F
:10372000F5CF80E006C0CD2BE1F38CE196E00E945E
:10373000E21DDF91CF911F9108950F93CF93DF93F7
:10374000EC01637041704295407F2F70422B62956F
:10375000660F607E462B6EE10E94211B002321F044
:10376000083018F007E001C001E08FEF800F61E042
:1037700070E002C0660F771F8A95E2F7072E000CF3
:10378000880B990B0E94EB2A9B01AC0160E074E26C
:1037900084EF99E40E94482A0E94BA2A6C837D83B0
:1037A0008E839F836FE1CE010E946B1B8F78029501
:1037B000007F482F402B6FE1CE01DF91CF910F9119
:1037C0000C94211B1F93CF93DF93EC01162F68817C
:1037D0008CE196E00E947F1E612F8CE196E00E94B2
:1037E000361E8CE196E00E94081F42E068818CE161
:1037F00096E00E94021FC0EDD7E08CE196E00E94A7
:10380000DA1D02973CF4209711F02197F6CF80E063
:1038100090E011C0CD2BD9F38CE196E00E94E21D1F
:10382000C82F8CE196E00E94E21D20E030E03C2FA2
:10383000A901482BCA01DF91CF911F910895CF9222
:10384000DF92EF92FF920F931F93CF93DF938C0140
:10385000D62FF42E6EE00E94E21B41E050E09A0168
:1038600002C0220F331FDA95E2F7E90180959095A7
:1038700082239323892B89F060E1C8010E94E21B17
:10388000FF2021F0AC014C2B5D2B05C0C095D095DD
:10389000AC014C235D2360E125C066E0C8010E94B5
:1038A000E21B6C0168E0C8010E94E21B9E012095AA
:1038B0003095FF2061F07C01E222F322A6014C2B1F
:1038C0005D2B66E0C8010E94421BA7010AC0C82BFD
:1038D000D92BA6014223532366E0C8010E94421B54
:1038E000AE0168E0C801DF91CF911F910F91FF9069
:1038F000EF90DF90CF900C94421B0C941F1CFF9212
:103900000F931F93CF93DF938C01F62E6EE00E94EE
:10391000E21BC1E0D0E002C0CC0FDD1FFA94E2F759
:103920008C239D23892B49F060E1C8010E94E21B92
:10393000C823D92381E0CD2B09F480E0DF91CF911A
:103940001F910F91FF9008950C947F1CCF92DF92EE
:10395000EF92FF920F931F93CF93DF931F92CDB7F8
:10396000DEB76C01162F60E029830E94E21B41E064
:1039700050E0BA0102C0660F771F1A95E2F78B017B
:10398000AC01462B572B60E0C6010E94421B66E04B
:10399000C6010E94E21B7801E094F094AC014E2134
:1039A0005F2166E0C6010E94421B6EE0C6010E94D4
:1039B000E21BAC014E215F216EE0C6010E94421B5A
:1039C0006EE1C6010E946B1B8F7D482F40646EE143
:1039D000C6010E94211B6FE1C6010E946B1B298159
:1039E000482F222311F0486801C04777F6018481EF
:1039F0009581A681B781892B8A2B8B2B49F480E88E
:103A000094E8AEE1B0E084839583A683B7834061F8
:103A10006FE1C6010E94211B60E2C6010E94E21B09
:103A2000AC01402B512B60E2C6010E94421B60E1B9
:103A3000C6010E94E21BAC014E215F2160E1C6017C
:103A40000F90DF91CF911F910F91FF90EF90DF903A
:103A5000CF900C94421B0F931F93CF93DF93EC01F5
:103A6000162F042F6EE00E94E21B9C01802F8D7F99
:103A7000813059F041E050E0012E02C0440F551F43
:103A80000A94E2F7422B532B0DC0E1E0F0E0012E47
:103A900002C0EE0FFF1F0A94E2F7E095F095A9012E
:103AA0004E235F236EE0CE010E94421B023049F498
:103AB00041E0612FCE01DF91CF911F910F910C94C6
:103AC0001F1C033051F420E041E0612FCE01DF9153
:103AD000CF911F910F910C94A61CDF91CF911F9154
:103AE0000F9108950C942B1DCF93DF93EC016FE1A0
:103AF0000E946B1B82FF06C0482F4B7F6FE1CE01F7
:103B00000E94211B41E06B81CE010E942B1D40E0F1
:103B10006B81CE010E941F1C61E070E080E090E0AC
:103B20000E94590741E06B81CE01DF91CF910C9447
:103B30001F1CCF93DF93662321F0DF91CF910C946C
:103B4000741DEC0142E16DE70E94211B44E36DE727
:103B5000CE01DF91CF910C94211B0F93CF93DF9374
:103B6000EC018CE196E00E94751E8B818F3F21F065
:103B7000CE010E94741D04C060E0CE010E94991D18
:103B800063E1CE010E94E21B81159F4F49F401E0E1
:103B900020E040E062E0CE010E949D1B81E001C078
:103BA00080E0DF91CF910F910895FC016083438302
:103BB0000C94AD1D80914C0690E020914D06821B27
:103BC0009109089590914D0680914C06981750F4F4
:103BD000E92FF0E0E25BF94F208130E09F5F9093A6
:103BE0004D0602C02FEF3FEFC9010895E0914D0649
:103BF00080914C06E81730F4F0E0E25BF94F8081E9
:103C000090E008958FEF9FEF08950895CF92DF928F
:103C1000EF92FF920F931F93CF93DF937C01262F98
:103C2000972F8A0180912806882391F0C62FD72FDD
:103C30006E01C40ED51ECC15DD0571F06991D7015A
:103C4000ED91FC910190F081E02DC7010995F3CF32
:103C5000642F822F0E94CB1FC801DF91CF911F914B
:103C60000F91FF90EF90DF90CF900895CF93DF9367
:103C70001F92CDB7DEB76983209128062223D1F0A9
:103C800020912906203240F021E030E0FC0133830E
:103C9000228380E090E015C080912A06E82FF0E0B2
:103CA000E55DF94F998190838F5F80932A06809319
:103CB000290605C061E0CE0101960E94CB1F81E07C
:103CC00090E00F90DF91CF910895FC011382128252
:103CD00088EE93E0A0E0B0E084839583A683B78369
:103CE0008AEF93E091838083089510924D0610929D
:103CF0004C0610922A06109229060C940F1F81E0A0
:103D00008093280660934B0610922A06109229068B
:103D100008950C947F1E0F93062F21E040912906F1
:103D20006BE276E080914B060E94751F10922A0686
:103D300010922906109228060F9108954F925F92D3
:103D40006F927F92AF92BF92CF92EF92FF920F93BA
:103D50001F93CF93DF935C01F62ED42F28013901F6
:103D6000EE2021F10E947F1ECE2DC43008F0C3E06A
:103D7000C150C0F0D501ED91FC91B8E0CB9FC001DE
:103D80001124A301920104C05695479537952795B4
:103D90008A95D2F7CA01B9010190F081E02DC501E1
:103DA0000995E6CF60E0C5010E948B1E4D2FD132F0
:103DB00008F040E22C2D6EE476E08F2D0E942D1F3E
:103DC00010924D0680934C06DF91CF911F910F9179
:103DD000FF90EF90CF90BF90AF907F906F905F90EB
:103DE0004F900895CF92EF920F931F93C22EE12C24
:103DF00000E010E098010E949E1E1F910F91EF902D
:103E0000CF90089521E00C94F21E21E00C94F21E54
:103E100061E00C948B1E8CE196E00C94651E109270
:103E2000DB0681E08093D9061092D80661E082E13A
:103E30000E94360861E083E10E943608E9EBF0E079
:103E400080818E7F808380818D7F808388E48093D2
:103E5000B80085E48093BC000895413208F043C067
:103E60009091DB069111FCCF91E09093DB062093BB
:103E7000D9062FEF20936E061092B306240F2093DD
:103E8000B2069093DA069091DA06880F892B809318
:103E9000DA068091D806813061F41092D8068091BC
:103EA000DA068093BB008091BC0083FDF8CF85ECDF
:103EB00001C085EE8093BC008091DB068130E1F388
:103EC0008091B306841710F44091B30624EB36E0DA
:103ED000FB01D9018A2F821B841718F48D918193DD
:103EE000F9CF842F089580E008950F93413208F0B0
:103EF0004AC09091DB069111FCCF32E03093DB0693
:103F00000093D9063FEF30936E061092B3064093AC
:103F1000B206FB0164EB76E0DB013A2F361B341767
:103F200018F431913D93F9CF1092DA063091DA0608
:103F3000880F832B8093DA068091D806813061F454
:103F40001092D8068091DA068093BB008091BC0065
:103F500083FDF8CF85EC01C085EE8093BC00222361
:103F600021F08091DB068230D1F380916E068F3F85
:103F700079F080916E06803241F080916E06803338
:103F800031F094E005C091E003C092E001C093E0FD
:103F9000892F0F91089540919006262F30E0240F2D
:103FA000311D21323105DCF42091DB062430C9F4C7
:103FB000FC0180E090E0861758F430919006219142
:103FC000DC01AE56B94FA30FB11D2C930196F3CF70
:103FD00080919006680F6093900680E0089581E0DC
:103FE000089582E0089585ED8093BC008091BC0027
:103FF00084FDFCCF1092DB06089585EC8093BC0015
:104000001092DB0608951F920F920FB60F921124A3
:104010002F933F934F935F936F937F938F939F93D0
:10402000AF93BF93EF93FF938091B900887F803661
:1040300009F49EC078F5883209F45DC090F48031AF
:1040400009F456C038F4882309F4F5C0883009F41F
:104050004FC0F5C0883109F44EC0803209F45FC00A
:10406000EEC0803409F46AC058F4803309F457C0B4
:10407000883309F0E4C080936E060E94FD1FDFC004
:10408000803509F44FC0883509F45DC0883409F0E3
:10409000D6C0D3C0883909F4C4C0A8F4883709F45D
:1040A00067C038F4883609F463C0803709F460C00B
:1040B000C6C0883809F4B5C0803909F45FC08038BB
:1040C00009F0BDC05BC0803B09F483C038F4803A7E
:1040D00009F466C0883A09F47CC0B1C0803C09F498
:1040E000A4C0883C09F4A1C0883B09F487C0A7C0DC
:1040F0008091DA0610C09091B3068091B2069817AD
:1041000070F5E091B30681E08E0F8093B306F0E086
:10411000EC54F94F80818093BB0085EC83C0809381
:104120006E068BC0E091B30681E08E0F8093B306DC
:104130008091BB00F0E0EC54F94F80839091B3067E
:104140008091B2066BC0E091B30681E08E0F809340
:10415000B3068091BB00F0E0EC54F94F808380916E
:10416000D90681116AC081E08093D80684EA5EC0D6
:1041700083E08093DB0610926F06CFCF80916F06AD
:10418000803208F04EC0E0916F0681E08E0F809380
:104190006F068091BB00F0E0E059F94F8083BDCFFE
:1041A0000E94FD1F80916F06803230F4E0916F060F
:1041B000F0E0E059F94F108260916F0670E0E091F5
:1041C000D406F091D50680E796E0099510926F0627
:1041D00036C084E08093DB06109291061092900620
:1041E000E091D606F091D70609958091900681114D
:1041F00005C081E08093900610929206E0919106AE
:1042000081E08E0F80939106F0E0EE56F94F8081A9
:104210008093BB009091910680919006981708F4C6
:104220007CCF85E88093BC000AC085EC8093BC00FD
:104230001092DB0604C010926E060E94F31FFF91DD
:10424000EF91BF91AF919F918F917F916F915F910E
:104250004F913F912F910F900FBE0F901F90189587
:10426000CF93DF9300D000D0CDB7DEB761157105D5
:104270008105910579F09B01AC0169833A834B83F9
:104280005C830E949F2829813A814B815C810E9436
:10429000162C03C060E070E0CB010F900F900F90E0
:1042A0000F90DF91CF910895CF92DF92EF92FF921E
:1042B0000F931F93621773078407950784F489018E
:1042C0009A016B017C01C901B8016C197D098E0945
:1042D0009F090E9430216C0D7D1D8E1D9F1D1F9119
:1042E0000F91FF90EF90DF90CF90089570E09B01C9
:1042F000382BC90108950E9624E1FC0111922A95EC
:10430000E9F70895CF93DF93EC01625F7F4F0E943E
:10431000D10BCE01DF91CF910895CF93DF93EC01C4
:104320006E5E7F4F0E94D10BCE01DF91CF91089539
:10433000CF93DF93EC016A5E7F4F0E94D10BCE01D9
:10434000DF91CF910895CF93DF93EC01625E7F4FB1
:104350000E94D10BCE01DF91CF91089580E3FB0144
:1043600080833296842F82958F7090E1899F4019C7
:1043700011244A3014F4405D01C0495C4293482F37
:104380008111F0CF08950F9300E020E040E060E05D
:104390008CED96E00E94C50B0F9108957F928F924D
:1043A0009F92AF92BF92CF92DF92EF92FF920F93C4
:1043B0001F93CF93DF93CDB7DEB7AC970FB6F894CA
:1043C000DEBF0FBECDBF7C01762E942E852E20E25F
:1043D000B22ECE0101966C01FC012B2D11922A9573
:1043E000E9F70FEF2FEF4FEF6FEF86960E94C50BA7
:1043F0008CEC93E09AA389A389A59AA5ABA5BCA54B
:104400008BA39CA3ADA3BEA387010D5B1F4F43E409
:1044100050E0BE016F5D7F4FC8010E94160F0196EC
:1044200009F4BFC081E089838A8386E0A82EAB822D
:104430001C82F70164817581868197810E94352CE9
:104440006D837E838F83988789869A8680E890E043
:104450009C878B874CE150E0B601C8010E94220F77
:10446000F6012B2D11922A95E9F7470188E0880E75
:10447000911CF401D60101900D92AA94E1F740E15C
:1044800050E0B601C8010E94220FF6011192BA94C1
:10449000E9F796E0A92EB12C40E250E0B601C80140
:1044A0000E94220FF1E0AF1AB108B1F783E68983C9
:1044B00092E89A8393E59B838C8385E38D8381E0E7
:1044C0008E837F829DE3988797E099878A8786E02D
:1044D000F401DE011B9601900D928A95E1F78CE0C4
:1044E000898B8A8B68E074E0CE0143960E949929FB
:1044F000F7014385BE01675E7F4FC7010E94AE2171
:10450000F7014485BE01655E7F4FC7010E94AE2161
:10451000F7014585BE01635E7F4FC7010E94AE2152
:104520004EE150E0B601C8010E94220FF3E07F1275
:104530001EC082E3898384E08A83F70196859B838A
:1045400097859C8390899D8391899E8396E39F8321
:104550008887828D8987838D8A87848D8B87858DD7
:104560008C874CE050E0B601C8010E94220F87E31F
:10457000898386E08A8391E09B8393E09C838D838B
:104580008FE08E838AE38F838BE388878FEF898721
:1045900049E050E0B601C8010E94220FC8010E9404
:1045A0001E0FAC960FB6F894DEBF0FBECDBFDF91E5
:1045B000CF911F910F91FF90EF90DF90CF90BF9020
:1045C000AF909F908F907F9008952F923F924F923F
:1045D0005F926F927F928F929F92AF92BF92DF9283
:1045E000EF92FF920F931F93CF93DF93CDB7DEB778
:1045F000E4970FB6F894DEBF0FBECDBF7C011A0161
:104600002B0139010E9428074B015C0187010D5BDA
:104610001F4FC8010E94C40F18161906A4F00E946B
:104620002807DC01CB0188199909AA09BB092816BA
:1046300039064A065B06F0F062E370E080E090E045
:104640000E945907E6CF42E250E0BE016F5F7F4F04
:10465000C8010E945F0F8981823031F4F80184899A
:1046600095898334910541F0D12CC8010E94000F37
:104670008D2D5FC18FEF5DC16D817E818F819885AA
:104680000E94352C4B015C01F301608371838283AE
:10469000938346E050E0B701685F7F4FCE014D96AF
:1046A0000E947A29892B99F4F70180819181A28156
:1046B000B38188169906AA06BB0648F084819581C5
:1046C000A681B78188159905AA05BB0528F4C801FC
:1046D0000E94000F80E02DC189899A89AB89BC892D
:1046E000F70186879787A08BB18B8EECA82EB12C13
:1046F000C8010E94360FF1E0AF1AB108C9F7D12CFA
:10470000C70182969AA789A7F701B696FCA7EBA7DF
:1047100008969EA78DA73C974F01899698AB8FA7C7
:104720003897FAABE9AB1701F6E12F0E311CC597AC
:104730009CAB8BABC8010E94E60E181619060CF054
:1047400094CFC8010E94360F8333910509F4CBC082
:10475000FCF481309105C9F11CF4892B59F3DDC0BB
:1047600083309105D1F1069709F0D7C0C8010E94A6
:10477000360F5C0144E050E06BA97CA9C8010E949F
:104780005F0F412C512CBB24F4E0AF1AB10840C09C
:104790008A33910509F47BC03CF48533910569F0B7
:1047A000C69709F440C0B9C08B33910509F485C0A0
:1047B0008F3F910509F4BECFB0C0C8010E94360FEB
:1047C000C8010E94360FD82EB5CFC8010E94360FFF
:1047D00044E050E069A97AA93AC0C8010E94360FA6
:1047E0005C0144E050E0B101C8010E945F0F412C20
:1047F000512CBB2494E0A91AB1084A145B040CF0B4
:1048000099CFC8010E94360FEFEF4E1A5E0AF5CF1E
:104810004A145B040CF08ECFC8010E94360F8FEF54
:10482000481A580AF5CFC8010E94360FB82EF70172
:10483000828D811110C0838D81110DC0848D8111F5
:104840000AC0858D811107C044E050E0B401C80161
:104850000E945F0F6FCFEFA5F8A940805180628062
:104860007380B401CE0183960E94D10B8DA19EA1CD
:10487000AFA1B8A584159505A605B70529F3BB20FA
:1048800009F458CFC8010E94360FBA94F8CFC80176
:104890000E94360F44E050E06BA57CA5C8010E9441
:1048A0005F0FF70166A177A180A591A50E94352C25
:1048B00066A377A380A791A73DCFC8010E94360FBA
:1048C00044E050E06DA57EA5C8010E945F0FF7018E
:1048D00062A573A584A595A50E94352C62A773A730
:1048E00084A795A727CFC8010E94360F44E050E067
:1048F00069A57AA5C8010E945F0FF70162A173A1A3
:1049000084A195A10E94352C62A373A384A395A3CF
:1049100066A777A780AB91AB0DCFC8010E94360F79
:10492000B82EBB2009F406CFC8010E94360FBA94F6
:10493000F8CFE4960FB6F894DEBF0FBECDBFDF917F
:10494000CF911F910F91FF90EF90DF90BF90AF90AC
:104950009F908F907F906F905F904F903F902F909F
:1049600008952F923F924F925F926F927F928F9213
:104970009F92AF92BF92CF92DF92EF92FF920F93EE
:104980001F93CF93DF93CDB7DEB727970FB6F89479
:10499000DEBF0FBECDBF8C0120ED37E040E050E020
:1049A00061E070E080E090E00E945421D80114960C
:1049B0006D937D938D939C931797F801608371831A
:1049C000828393835801F3E4AF0EB11CC5010E94AA
:1049D000010F64E470E0C5010E94970F882309F479
:1049E0003CC10E9428072B013C01812C912C1D8287
:1049F000C8018E5B9F4F9F838E8343E0342E58EE19
:104A0000C52E53E0D52EE12CF12C62E0262EAE818E
:104A1000BF818C91833009F407C1811120C0F80156
:104A200084819581A681B7810196A11DB11D8483E2
:104A30009583A683B7830E942807641975098609A0
:104A40009709A70196010E94F42BA90161E0C80112
:104A50000E94CE2181E0AE81BF818C93C6C084309C
:104A6000F9F4F80184819581A681B7810196A11D91
:104A7000B11D84839583A683B7830E942807641998
:104A8000750986099709A70196010E94F42BA901CF
:104A900063E0C8010E94CE21AE81BF812C92A5C0E7
:104AA000813061F5F80142AD53AD64AD75AD9E0145
:104AB0002F5F3F4FC8010E94E5228D83823009F0AD
:104AC00094C089819A81AB81BC81F80184839583EC
:104AD000A683B7830E942807641975098609970978
:104AE000A70196010E94F42BA90163E0C8010E946E
:104AF000CE21ED81AE81BF81EC937EC0823009F082
:104B000074C0D801DA964D915D916D917C91DD97DD
:104B10009E012F5F3F4FC8010E94E5228D838530A3
:104B200009F05CC0EE81FF813082F80182A193A17F
:104B3000A4A1B5A1892B8A2B8B2B41F484E893E0A7
:104B4000A0E0B0E082A393A3A4A3B5A3F80186A13B
:104B500097A1A0A5B1A5892B8A2B8B2B61F482A1EB
:104B600093A1A4A1B5A1B695A7959795879586A37E
:104B700097A3A0A7B1A7F80182A593A5A4A5B5A561
:104B8000892B8A2B8B2BA9F482A193A1A4A1B5A177
:104B9000AC01BD0123E076956795579547952A9519
:104BA000D1F7841B950BA60BB70B82A793A7A4A7DD
:104BB000B5A7F80186A197A1A0A5B1A586A797A73B
:104BC000A0ABB1AB82A593A5A4A5B5A582AB93ABD1
:104BD000A4ABB5AB88248394912C0EC0FD81F63034
:104BE00021F4AE81BF811C9207C0BD81BF3F21F47B
:104BF000EE81FF8110821D82F1E08F16910409F48D
:104C000006CF0E942807DC01CB0184199509A6096B
:104C1000B709F80126A937A940AD51AD28173907C2
:104C20004A075B0708F0F3CEC5010E94010FF801A7
:104C300084819581A681B7810196A11DB11D8483D0
:104C40009583A683B7830E942807F801FE966083A8
:104C5000718382839383C40102C080E090E0279631
:104C60000FB6F894DEBF0FBECDBFDF91CF911F917D
:104C70000F91FF90EF90DF90CF90BF90AF909F90FB
:104C80008F907F906F905F904F903F902F900895FE
:104C9000CF92DF92EF92FF920F931F93CF93DF9308
:104CA000EC016B011AA21BA21CA21DA21EA21FA234
:104CB00018A619A61AA61BA61CA61DA62EAB3FABAE
:104CC00048AF59AFEAAEFBAE0CAF1DAF8C01085F29
:104CD0001F4F86E0F80111928A95E9F7CE010E94F4
:104CE0007B2186E0F601D80101900D928A95E1F7CB
:104CF000FE01EE5BFF4F1082CE01DF91CF911F913D
:104D00000F91FF90EF90DF90CF900C94B124CF9251
:104D1000DF92EF92FF920F931F93CF93DF93EC01FB
:104D20000E9428076B017C018E01025C1F4FF80175
:104D300080819181A281B381A7019601281B390B43
:104D40004A0B5B0BCA01B901683E33E0730781056A
:104D5000910508F441C028EE33E040E050E00E94A5
:104D6000F42BC61AD70AE80AF90AF801C082D182E0
:104D7000E282F3828EA59FA5A8A9B9A969017A014B
:104D8000CC0CDD1CEE1CFF1C8C159D05AE05BF0573
:104D900028F41EA61FA618AA19AA08C0821B930BE6
:104DA000A40BB50B8EA79FA7A8ABB9AB8AA99BA9EB
:104DB000ACA9BDA98C159D05AE05BF0528F41AAA9E
:104DC0001BAA1CAA1DAA08C0821B930BA40BB50B1F
:104DD0008AAB9BABACABBDAB8EA59FA5A8A9B9A96F
:104DE000892B8A2B8B2B69F4FE01EE5BFF4F8081B0
:104DF000833039F484E08083CE010E94B12401968F
:104E000002C080E090E04AA95BA96CA97DA9452B6E
:104E1000462B472B81F4FE01EE5BFF4F20812330B0
:104E200011F0211108C01082CE010E947B21CE0119
:104E30000E94B1240396DF91CF911F910F91FF90B3
:104E4000EF90DF90CF900895CF93DF93823091055C
:104E500010F482E090E0E091E406F091E50620E0B5
:104E600030E0C0E0D0E0309711F140815181481727
:104E70005907C0F04817590761F482819381209740
:104E800019F09B838A832BC09093E5068093E406F8
:104E900026C02115310519F04217530718F49A015D
:104EA000BE01DF01EF010280F381E02DDCCF21158F
:104EB000310509F1281B390B2430310590F4129685
:104EC0008D919C9113976115710521F0FB019383DE
:104ED000828304C09093E5068093E406FD01329638
:104EE00044C0FD01E20FF31F8193919322503109D9
:104EF0002D933C933AC02091E2063091E306232B98
:104F000041F420910201309103013093E306209394
:104F1000E20620910001309101012115310541F493
:104F20002DB73EB74091040150910501241B350B6C
:104F3000E091E206F091E306E217F307A0F42E1BDE
:104F40003F0B2817390778F0AC014E5F5F4F2417ED
:104F5000350748F04E0F5F1F5093E3064093E2067B
:104F60008193919302C0E0E0F0E0CF01DF91CF9117
:104F700008950F931F93CF93DF93009709F48CC08C
:104F8000FC013297138212820091E4061091E5062B
:104F90000115110581F420813181820F931F209129
:104FA000E2063091E3062817390779F5F093E30616
:104FB000E093E20671C0D80140E050E0AE17BF07B1
:104FC00050F412962D913C911397AD0121153105A6
:104FD00009F1D901F3CF9D01DA0133832283608186
:104FE0007181860F971F8217930769F4EC0128815E
:104FF0003981260F371F2E5F3F4F318320838A81EF
:105000009B8193838283452B29F4F093E506E093FB
:10501000E40642C01396FC93EE931297ED0149917A
:1050200059919E01240F351FE217F30771F4808117
:105030009181840F951F029611969C938E93828185
:10504000938113969C938E931297E0E0F0E0D80141
:1050500012968D919C911397009719F0F8018C018D
:10506000F6CF8D919C9198012E5F3F4F820F931F39
:105070002091E2063091E3062817390769F430974A
:1050800029F41092E5061092E40602C013821282FF
:105090001093E3060093E206DF91CF911F910F91E9
:1050A00008958F929F92AF92BF92CF92DF92EF922C
:1050B000FF92CF93DF93EC01688179818A819B8194
:1050C000611571058105910521F464E279ED8BE5A7
:1050D00097E02DE133EF41E050E00E94162C4901AA
:1050E0005A019B01AC01A7EAB1E40E943C2C6B0180
:1050F0007C01ACEEB4EFA50194010E944A2CDC01C6
:10510000CB018C0D9D1DAE1DBF1DB7FF03C00197C8
:10511000A109B04888839983AA83BB83BC01CD01D0
:105120009F77DF91CF91FF90EF90DF90CF90BF906E
:10513000AF909F908F9008950E945128089586E027
:1051400091E00E9451280895609306017093070131
:1051500080930801909309010895A0E0B0E0E3EB8B
:10516000F8E20C94532CEC01009721F4CB010E943F
:105170002427B8C0FC01E60FF71F9C01225031091B
:10518000E217F30708F4ACC0D9010D911C911197F7
:1051900006171707B0F00530110508F49FC0C801C5
:1051A00004978617970708F499C002501109061B47
:1051B000170B019311936D937C93CF010E94B92734
:1051C0008DC05B01A01AB10A4C01800E911EA09106
:1051D000E406B091E50640E050E0E12CF12C109798
:1051E00009F44AC0A815B905D1F56D907C901197C6
:1051F000630182E0C80ED11CCA14DB0480F1A30154
:105200004A195B096A0182E0C80ED11C1296BC9053
:1052100012971396AC91B5E0CB16D10440F0B28250
:10522000A38351834083D9016D937C930AC00E5FA1
:105230001F4FC301800F911FF90191838083EB2DD4
:10524000FA2FE114F10431F0D7011396FC93EE9399
:10525000129744C0F093E506E093E4063FC08D91B9
:105260009C9111974817590708F4AC017D011296DB
:105270000D90BC91A02DB3CF8091E2069091E306F2
:1052800088159905E1F446175707C8F48091000185
:1052900090910101009741F48DB79EB740910401B0
:1052A00050910501841B950BE817F907C8F4F0939A
:1052B000E306E093E206F901718360830FC0CB013E
:1052C0000E9424277C01009759F0A801BE010E948A
:1052D0008729CE010E94B927C70104C0CE0102C0B0
:1052E00080E090E0CDB7DEB7EEE00C946F2CF89440
:1052F0000C94B12CFB01DC0104C08D91019080194C
:1053000021F441505040C8F7881B990B0895FB01C8
:10531000DC0102C001900D9241505040D8F7089531
:10532000FB01DC018D91019080190110D9F3990BDB
:105330000895FB01DC0101900D920020E1F7089532
:105340004532510520F4423010F00C94AB29FB019A
:105350001082CB010895BB274A3031F4992322F4FF
:10536000BDE2909581959F4F0C94C229453251051D
:1053700020F4423010F00C94C129FB011082CB01C3
:105380000895BB27FB015527AA27880F991FAA1F3D
:10539000A41710F0A41B83955051B9F7A05DAA3350
:1053A00008F0A95DA193009779F7B111B19311921B
:1053B000CB010C94E42B5058BB27AA270E94F32959
:1053C0000C943D2B0E942F2B38F00E94362B20F09E
:1053D00039F49F3F19F426F40C942C2B0EF4E0952D
:1053E000E7FB0C94262BE92F0E944E2B58F3BA179B
:1053F000620773078407950720F079F4A6F50C94EB
:10540000702B0EF4E0950B2EBA2FA02D0B01B901D5
:1054100090010C01CA01A0011124FF27591B99F02A
:10542000593F50F4503E68F11A16F040A22F232F36
:10543000342F4427585FF3CF469537952795A79586
:10544000F0405395C9F77EF41F16BA0B620B730B2D
:10545000840BBAF09150A1F0FF0FBB1F661F771F9E
:10546000881FC2F70EC0BA0F621F731F841F48F453
:10547000879577956795B795F7959E3F08F0B0CFDC
:105480009395880F08F09927EE0F979587950895C3
:105490000E945C2A0C943D2B0E94362B58F00E94EF
:1054A0002F2B40F029F45F3F29F00C94262B51114B
:1054B0000C94712B0C942C2B0E944E2B68F3992387
:1054C000B1F3552391F3951B550BBB27AA27621700
:1054D0007307840738F09F5F5F4F220F331F441F0D
:1054E000AA1FA9F335D00E2E3AF0E0E832D0915041
:1054F0005040E695001CCAF72BD0FE2F29D0660F2E
:10550000771F881FBB1F261737074807AB07B0E870
:1055100009F0BB0B802DBF01FF2793585F4F3AF076
:105520009E3F510578F00C94262B0C94712B5F3F15
:10553000E4F3983ED4F3869577956795B795F795FC
:105540009F5FC9F7880F911D9695879597F90895E4
:10555000E1E0660F771F881FBB1F62177307840780
:10556000BA0720F0621B730B840BBA0BEE1F88F78F
:10557000E09508950E94562B88F09F5798F0B92F18
:105580009927B751B0F0E1F0660F771F881F991F78
:105590001AF0BA95C9F714C0B13091F00E94702B7F
:1055A000B1E008950C94702B672F782F8827B85F8F
:1055B00039F0B93FCCF3869577956795B395D9F7D0
:1055C0003EF490958095709561957F4F8F4F9F4FDA
:1055D0000895E89409C097FB3EF4909580957095E6
:1055E00061957F4F8F4F9F4F9923A9F0F92F96E92F
:1055F000BB279395F695879577956795B795F111A4
:10560000F8CFFAF4BB0F11F460FF1BC06F5F7F4F40
:105610008F4F9F4F16C0882311F096E911C0772352
:1056200021F09EE8872F762F05C0662371F096E85B
:10563000862F70E060E02AF09A95660F771F881F2A
:10564000DAF7880F9695879597F9089597F99F67E8
:1056500080E870E060E008959FEF80EC08950024FA
:105660000A941616170618060906089500240A94C7
:1056700012161306140605060895092E0394000C4D
:1056800011F4882352F0BB0F40F4BF2B11F460FFDC
:1056900004C06F5F7F4F8F4F9F4F089557FD905805
:1056A000440F551F59F05F3F71F04795880F97FBE6
:1056B000991F61F09F3F79F08795089512161306A0
:1056C0001406551FF2CF4695F1DF08C016161706CF
:1056D0001806991FF1CF8695710561050894089504
:1056E000E894BB2766277727CB0197F908950E9496
:1056F0008A2B0C943D2B0E942F2B38F00E94362BC6
:1057000020F0952311F00C94262B0C942C2B1124B3
:105710000C94712B0E944E2B70F3959FC1F3950F43
:1057200050E0551F629FF001729FBB27F00DB11D25
:10573000639FAA27F00DB11DAA1F649F6627B00DB5
:10574000A11D661F829F2227B00DA11D621F739F9E
:10575000B00DA11D621F839FA00D611D221F749FAC
:105760003327A00D611D231F849F600D211D822FF3
:10577000762F6A2F11249F5750409AF0F1F088231A
:105780004AF0EE0FFF1FBB1F661F771F881F915047
:105790005040A9F79E3F510580F00C94262B0C94A5
:1057A000712B5F3FE4F3983ED4F386957795679528
:1057B000B795F795E7959F5FC1F7FE2B880F911D71
:1057C0009695879597F90895DC01FC01672F7191F3
:1057D0007723E1F7329704C07C916D9370836291D7
:1057E000AE17BF07C8F30895A1E21A2EAA1BBB1B70
:1057F000FD010DC0AA1FBB1FEE1FFF1FA217B3079D
:10580000E407F50720F0A21BB30BE40BF50B661FB2
:10581000771F881F991F1A9469F760957095809576
:1058200090959B01AC01BD01CF010895052E97FB1A
:105830001EF400940E942D2C57FD07D00E94F42BDB
:1058400007FC03D04EF40C942D2C509540953095C8
:1058500021953F4F4F4F5F4F0895909580957095DC
:1058600061957F4F8F4F9F4F08956927962769272E
:1058700078278727782708950E948C2CA59F900D64
:10588000B49F900DA49F800D911D11240895B7FF22
:105890000C943C2C0E943C2C821B930B08952F925D
:1058A0003F924F925F926F927F928F929F92AF92B0
:1058B000BF92CF92DF92EF92FF920F931F93CF93FD
:1058C000DF93CDB7DEB7CA1BDB0B0FB6F894DEBF94
:1058D0000FBECDBF09942A88398848885F846E84BA
:1058E0007D848C849B84AA84B984C884DF80EE8004
:1058F000FD800C811B81AA81B981CE0FD11D0FB60D
:10590000F894DEBF0FBECDBFED010895EE0FFF1F6F
:105910000590F491E02D0994A29FB001B39FC001BE
:10592000A39F700D811D1124911DB29F700D811DCB
:105930001124911D0895F999FECF92BD81BDF89A69
:10594000992780B50895262FF999FECF1FBA92BDE9
:1059500081BD20BD0FB6F894FA9AF99A0FBE019650
:10596000089510E0C5E6D0E004C0FE010E94862C38
:0C5970002196C636D107C9F7F894FFCF86
:10597C000000E606200001000000080007000600F9
:10598C00BA22B922B82201005E00000052756E6E78
:10599C00696E672053657475702E2E004661696CB4
:1059AC00656420746F20636F6E666967757265201D
:1059BC0045746865726E6574207573696E672044F2
:1059CC004843502C2072657374617274696E672041
:1059DC00736B657463682E2E2E00436F6E66696759
:1059EC00757265642049503A0052756E6E696E6727
:1059FC002053657475702E2E2E00436F6E74656E79
:105A0C007473206F66207468652073656E736F7293
:105A1C0041727261792E6D61633A00496E646976E8
:105A2C00696475616C2076616C7565733A004545E7
:105A3C0050524F4D20636F6E74656E74733A004113
:105A4C006464726573733A20000900446174613AAE
:105A5C0020004469676974616C20494F206361724E
:105A6C006420666F756E6421004469676974616CAB
:105A7C0020696F2063617264206E6F7420666F758D
:105A8C006E640054696D6520746F2072756E20749D
:105A9C00686520536574757000526573657474691C
:105AAC006E6720426F6F746C6F616465722E2E008E
:105ABC00706F6B650049277665206265656E207096
:105ACC006F6B65642100736E617052656C61795FF8
