:100000000C9466000C948E000C948E000C948E0060
:100010000C948E000C948E000C94050D0C948E00A4
:100020000C948E000C948E000C948E000C948E0018
:100030000C948E000C948E000C948E000C948E0008
:100040000C94A5060C948E000C9467090C949909E5
:100050000C948E000C948E000C948E000C948E00E8
:100060000C94D81E0C948E000000000800020100C1
:100070000003040700000000000000000102040863
:100080001020408001020408102001020408102002
:10009000040404040404040402020202020203032E
:1000A0000303030300000000250028002B000000CC
:1000B0000000240027002A009000C909B30BFE0CA1
:1000C0000010B0160517E01D9820EE0011241FBE89
:1000D000CFEFD8E0DEBFCDBF13E0A0E0B1E0ECE4AD
:1000E000F6E502C005900D92AC3FB107D9F726E0C6
:1000F000ACEFB3E001C01D92A23DB207E1F710E002
:10010000C5E6D0E004C02197FE010E94EE2ACC355E
:10011000D107C9F70E94F7090C944C280C940000F1
:100120000F9300E020E040E060E08EEB94E00E945E
:100130008C0B01E021E041E06AE088EB94E00E9452
:100140008C0B8DE994E00E94880F82E894E00E9475
:10015000880F87E694E00E94880F6AED71E081E4E1
:1001600094E00E942C0C87E394E00E94F51986E34A
:1001700094E00E94FD0C85E394E00E94FD0C84E372
:1001800094E00E94FD0C8CE294E00E94FC0CECEFE9
:10019000F3E0148215821682178280E090E0A6ECCC
:1001A000B2EC80879187A287B38784879587A687DB
:1001B000B787808B918BA28BB38B848B958BA68B0F
:1001C000B78B808F918FA28FB38F148E158E168E62
:1001D000178E10A211A212A20F91089581E494E04B
:1001E0000C94BE0B0F931F93CF93DF9300D000D0DE
:1001F00000D0CDB7DEB78C014091100150911101B4
:1002000089EB93E09A8389838091BA049091BB042F
:10021000A091BC04B091BD048B839C83AD83BE834D
:10022000BE016F5F7F4F87E694E00E94F00DB8013A
:1002300087E694E00E94700887E694E00E94F80D3B
:1002400026960FB6F894DEBF0FBECDBFDF91CF91DB
:100250001F910F9108958F929F92AF92BF92CF926C
:10026000DF92EF92FF920F931F93CF93DF9300D013
:1002700000D000D0CDB7DEB760E47FE180E795E045
:100280000E947C0D0E94EF064B015C010E94EF066C
:100290000E94BE29609328047093290480932A0445
:1002A00090932B0426E040E051EE60E070E08DEC8E
:1002B00094E00E94DB0A6CE171E08DEC94E00E9416
:1002C000950860E082E00E94FD0761E082E00E9404
:1002D000C10760E082E00E94FD0760E088E00E94C4
:1002E000FD0761E088E00E94C10760E088E00E94AD
:1002F000FD0760E089E00E94FD0761E089E00E945F
:10030000C10760E089E00E94FD0761E083E00E9490
:10031000FD0761E083E00E94C10761E083E00E9485
:10032000FD0761E085E00E94FD0761E085E00E9435
:10033000C10761E085E00E94FD0761E086E00E9460
:10034000FD0761E086E00E94C10761E086E00E944F
:10035000FD0761E087E00E94FD0761E087E00E9401
:10036000C10761E087E00E94FD0761E084E00E9430
:10037000FD0761E084E00E94C10761E084E00E9423
:10038000FD0791E6E92E94E0F92E670100913F0404
:1003900010914004C8010E94032BD6018D936D017A
:1003A0000F5F1F4F1093400400933F04B7E6CB1636
:1003B000B4E0DB0659F7E1E2F4E0D7018D917D016D
:1003C0008193B7E6EB16B4E0FB06B9F710EAE12E2D
:1003D0001FE0F12E00E010E020E63AEE40E050E0B1
:1003E00061E674E08AE895E00E948615892B61F445
:1003F0006CE271E08DEC94E00E94950860E177E298
:1004000080E090E00E9420076AE671E08DEC94E0C5
:100410000E9495086AE875E0CE0101960E94881650
:10042000BE016F5F7F4F8DEC94E00E94A708609142
:100430001401709115018DE994E00E94710E609194
:1004400012017091130182E894E00E94710E609194
:1004500010017091110187E694E00E94710E6CED1D
:1004600075E080E090E00E94200769E771E0CE012E
:1004700001960E942C0CCE0101960E94F200CE0142
:1004800001960E94BE0B6AE871E0CE0101960E94BF
:100490002C0CCE0101960E94F200CE0101960E9422
:1004A000BE0B4AE060916704CE0101960E94580C91
:1004B000CE0101960E94F200CE0101960E94BE0B71
:1004C0006BEA71E0CE0101960E942C0CCE010196E0
:1004D0000E94F200CE0101960E94BE0B4AE060919C
:1004E0006104CE0101960E94580CCE0101960E9433
:1004F000F200CE0101960E94BE0B4AE060916204B8
:10050000CE0101960E94580CCE0101960E94F20085
:10051000CE0101960E94BE0B4AE060916304CE01B9
:1005200001960E94580CCE0101960E94F200CE0165
:1005300001960E94BE0B4AE060916404CE010196D0
:100540000E94580CCE0101960E94F200CE01019645
:100550000E94BE0B4AE060916504CE0101960E94A4
:10056000580CCE0101960E94F200CE0101960E9425
:10057000BE0B4AE060916604CE0101960E94580CC1
:10058000CE0101960E94F200CE0101960E94BE0BA0
:1005900080910E0190910F010E94032B682F70E053
:1005A00080E090E00E94BE296093FC037093FD03FD
:1005B0008093FE039093FF036EEB71E08DEC94E06B
:1005C0000E947E086EEB71E0CE0101960E942C0C19
:1005D000CE0101960E94F200CE0101960E94BE0B50
:1005E00000E010E06FEC71E08DEC94E00E947E087A
:1005F0004AE050E0B8018DEC94E00E944C0969EDAE
:1006000071E08DEC94E00E947E086BED71E08DEC62
:1006100094E00E947E08C8010E94032B4AE050E04B
:10062000682F8DEC94E00E94600969ED71E08DEC1B
:1006300094E00E947E086FEC71E0CE0101960E946A
:100640002C0CCE0101960E94F200CE0101960E9470
:10065000BE0B4AE0B801CE0101960E94850CCE0186
:1006600001960E94F200CE0101960E94BE0B6BED36
:1006700071E0CE0101960E942C0CCE0101960E94E1
:10068000F200CE0101960E94BE0BC8010E94032B0E
:100690004AE0682FCE0101960E94580CCE010196C7
:1006A0000E94F200CE0101960E94BE0B0F5F1F4F09
:1006B0000830110509F096CF4FEF6EE387E394E021
:1006C0000E94AF1C882309F4F9C062EE71E08DEC42
:1006D00094E00E94950862EE71E0CE0101960E94BE
:1006E0002C0CCE0101960E94F200CE0101960E94D0
:1006F000BE0B40E060E087E394E00E944C1C40E0C9
:1007000060E087E394E00E94571B40E061E087E3EC
:1007100094E00E944C1C40E061E087E394E00E947A
:10072000571B40E062E087E394E00E944C1C40E0ED
:1007300062E087E394E00E94571B40E063E087E3B8
:1007400094E00E944C1C40E063E087E394E00E9448
:10075000571B40E064E087E394E00E944C1C40E0BB
:1007600064E087E394E00E94571B40E065E087E384
:1007700094E00E944C1C40E065E087E394E00E9416
:10078000571B40E066E087E394E00E944C1C40E089
:1007900066E087E394E00E94571B40E067E087E350
:1007A00094E00E944C1C40E067E087E394E00E94E4
:1007B000571B40E068E087E394E00E944C1C40E057
:1007C00068E087E394E00E94571B40E069E087E31C
:1007D00094E00E944C1C40E069E087E394E00E94B2
:1007E000571B40E06AE087E394E00E944C1C40E025
:1007F0006AE087E394E00E94571B40E06BE087E3E8
:1008000094E00E944C1C40E06BE087E394E00E947F
:10081000571B41E06CE087E394E00E944C1C41E0F0
:100820006DE087E394E00E944C1C41E06EE087E3BA
:1008300094E00E944C1C41E06FE087E394E00E944A
:100840004C1C00E010E0602F87E394E00E947E1BC8
:10085000002E01C0880F0A94EAF720911F04822B12
:1008600080931F040F5F1F4F0830110561F708E0E8
:1008700010E0602F87E394E00E947E1B002E01C0F1
:10088000880F0A94EAF720912004822B8093200499
:100890000F5F1F4F0F30110561F760911F048091AA
:1008A0000C0190910D010E940B2B6091200480910E
:1008B0000A0190910B010E940B2B14C069EF71E0AB
:1008C0008DEC94E00E94950869EF71E0CE010196ED
:1008D0000E942C0CCE0101960E94F200CE010196DE
:1008E0000E94BE0B0E94EF066B017C0163E172E087
:1008F000CE0101960E942C0CCE0101960E94F200BE
:10090000CE0101960E94BE0BB601681979094AE032
:10091000CE0101960E94B10CCE0101960E94F20018
:10092000CE0101960E94BE0B26960FB6F894DEBF4C
:100930000FBECDBFDF91CF911F910F91FF90EF9030
:10094000DF90CF90BF90AF909F908F900895CF93FE
:10095000DF9300D000D000D0CDB7DEB769E272E0FF
:100960008DEC94E00E94950869E272E0CE01019658
:100970000E942C0CCE0101960E94F200CE0101963D
:100980000E94BE0B64EF71E080E090E00E942007BF
:1009900060E084E00E94FD0726960FB6F894DEBF63
:1009A0000FBECDBFDF91CF910895CF93DF93CDB729
:1009B000DEB72C970FB6F894DEBF0FBECDBF48E16F
:1009C00050E067E474E08DE994E00E94390E67E43A
:1009D00074E0CE0107960E942C0C60E472E0CE0118
:1009E00007960E94DD0C8823C9F065E472E08DEC67
:1009F00094E00E94950865E472E0CE0101960E94A1
:100A00002C0CCE0101960E94F200CE0101960E94AC
:100A1000BE0B80E795E00E940F0D28C166E572E0ED
:100A2000CE0107960E94DD0C882341F061E082E050
:100A30000E94FD0781E08093180418C163E672E00C
:100A4000CE0107960E94DD0C882339F060E082E039
:100A50000E94FD071092180409C161E772E0CE01FF
:100A600007960E94DD0C882371F06DE772E08DEC33
:100A700094E00E94950860E083E00E94FD0781E019
:100A800080931B04F3C069E872E0CE0107960E94D0
:100A9000DD0C882369F066E972E08DEC94E00E9439
:100AA000950861E083E00E94FD0710921B04DEC000
:100AB00063EA72E0CE0107960E94DD0C882371F094
:100AC0006FEA72E08DEC94E00E94950860E085E0AA
:100AD0000E94FD0781E080931C04C8C06BEB72E0AC
:100AE000CE0107960E94DD0C882369F068EC72E065
:100AF0008DEC94E00E94950861E085E00E94FD077E
:100B000010921C04B3C065ED72E0CE0107960E94FE
:100B1000DD0C882371F061EE72E08DEC94E00E94B0
:100B2000950860E086E00E94FD0781E080931D0447
:100B30009DC06DEE72E0CE0107960E94DD0C882309
:100B400069F06AEF72E08DEC94E00E94950861E034
:100B500086E00E94FD0710921D0488C067E073E0E4
:100B6000CE0107960E94DD0C882371F063E173E0EB
:100B70008DEC94E00E94950860E087E00E94FD07FC
:100B800081E080931E0472C06FE173E0CE0107968E
:100B90000E94DD0C882369F06CE273E08DEC94E038
:100BA0000E94950861E087E00E94FD0710921E04F4
:100BB0005DC069E373E0CE0107960E94DD0C8823D7
:100BC00041F061E088E00E94FD0781E08093190414
:100BD0004DC060E473E0CE0107960E94DD0C8823CF
:100BE00039F060E088E00E94FD07109219043EC0D1
:100BF00068E473E0CE0107960E94DD0C882371F053
:100C00006FE473E08DEC94E00E94950861E089E068
:100C10000E94FD0781E080931A0428C066E573E016
:100C2000CE0107960E94DD0C882339F060E089E050
:100C30000E94FD0710921A0419C06EE573E0CE0100
:100C400007960E94DD0C882319F00E94A7040EC0AD
:100C500064E673E0CE0101960E942C0CCE01019651
:100C60000E94F200CE0101960E94BE0B88E1E7E4EB
:100C7000F4E0DF011D928A95E9F7CE0107960E9404
:100C8000BE0B2C960FB6F894DEBF0FBECDBFDF9122
:100C9000CF910895CF93DF9300D000D000D0CDB78F
:100CA000DEB70E94EF060E94EF060E94BE29209147
:100CB00028043091290440912A0450912B040E9469
:100CC000B02820E030E04AE754E40E941D296093F8
:100CD00000047093010480930204909303046FE76F
:100CE00073E0CE0101960E942C0CCE0101960E9469
:100CF000F200CE0101960E94BE0B61E873E08DEC1C
:100D000094E00E9495088DE994E00E949E0E9093D5
:100D1000600480935F041816190614F40E94D50429
:100D20008AE895E00E9423160E94EF0660ED77E0C6
:100D300080E090E00E94200726960FB6F894DEBF70
:100D40000FBECDBFDF91CF9108951F920F920FB6C6
:100D50000F9211242F933F938F939F93AF93BF9341
:100D60008091C5049091C604A091C704B091C804B5
:100D70003091C40423E0230F2D3720F40196A11DE8
:100D8000B11D05C026E8230F0296A11DB11D2093B9
:100D9000C4048093C5049093C604A093C704B09381
:100DA000C8048091C9049091CA04A091CB04B09169
:100DB000CC040196A11DB11D8093C9049093CA046F
:100DC000A093CB04B093CC04BF91AF919F918F912E
:100DD0003F912F910F900FBE0F901F9018952FB736
:100DE000F8946091C5047091C6048091C7049091F5
:100DF000C8042FBF08953FB7F8948091C90490911B
:100E0000CA04A091CB04B091CC0426B5A89B05C020
:100E10002F3F19F00196A11DB11D3FBFBA2FA92F79
:100E2000982F8827820F911DA11DB11DBC01CD01F6
:100E300042E0660F771F881F991F4A95D1F70895E2
:100E40008F929F92AF92BF92CF92DF92EF92FF92DA
:100E50006B017C010E94FB064B015C01C114D104B3
:100E6000E104F10401F10E9497070E94FB06DC01F6
:100E7000CB0188199909AA09BB09883E9340A105AD
:100E8000B10560F321E0C21AD108E108F10888EE4B
:100E9000880E83E0981EA11CB11CC114D104E1048A
:100EA000F10419F7DBCFFF90EF90DF90CF90BF9068
:100EB000AF909F908F900895789484B5826084BDA0
:100EC00084B5816084BD85B5826085BD85B581604E
:100ED00085BDEEE6F0E0808181608083E1E8F0E0AE
:100EE0001082808182608083808181608083E0E8DD
:100EF000F0E0808181608083E1EBF0E080818460BC
:100F00008083E0EBF0E0808181608083EAE7F0E0BD
:100F10008081846080838081826080838081816021
:100F200080838081806880831092C1000895089535
:100F3000833081F028F4813099F08230A1F0089557
:100F40008730A9F08830B9F08430D1F480918000E6
:100F50008F7D03C0809180008F77809380000895FB
:100F600084B58F7702C084B58F7D84BD089580914C
:100F7000B0008F7703C08091B0008F7D8093B00068
:100F80000895CF93DF9390E0FC01E458FF4F249144
:100F9000FC01E057FF4F8491882361F190E0880FB6
:100FA000991FFC01E255FF4FC591D491FC01EC550E
:100FB000FF4FA591B491611109C09FB7F894888142
:100FC000209582238883EC912E230BC0623061F43C
:100FD0009FB7F8943881822F809583238883EC9182
:100FE0002E2B2C939FBF06C08FB7F894E8812E2B31
:100FF00028838FBFDF91CF9108951F93CF93DF9305
:10100000282F30E0F901E859FF4F8491F901E458A5
:10101000FF4FD491F901E057FF4FC491CC23C9F0A1
:10102000162F81110E949807EC2FF0E0EE0FFF1FA2
:10103000EC55FF4FA591B4918FB7F894111105C0ED
:101040009C91ED2FE095E92302C0EC91ED2BEC9300
:101050008FBFDF91CF911F91089580E090E00895B8
:10106000CF92DF92EF92FF920F931F93CF93DF9374
:101070006C017A018B01C0E0D0E0CE15DF0589F06C
:10108000D8016D918D01D601ED91FC910190F08117
:10109000E02DC6010995892B11F47E0102C021962D
:1010A000ECCFC701DF91CF911F910F91FF90EF908F
:1010B000DF90CF9008956115710579F0FB010190E3
:1010C0000020E9F73197AF01461B570BDC01ED918A
:1010D000FC910280F381E02D099480E090E0089576
:1010E000DC01ED91FC91DB0114964D915C9115971B
:1010F0006D917C910280F381E02D09940C945B0842
:10110000DC01ED91FC910190F081E02D0994DB016F
:10111000ED91FC9111970190F081E02DBC01CD0182
:10112000099464E973E00C945B080F931F93CF93C9
:10113000DF93EC010E945B088C01CE010E949108B4
:10114000800F911FDF91CF911F910F9108950F9301
:101150001F93CF93DF93EC010E9487088C01CE018F
:101160000E949108800F911FDF91CF911F910F91E5
:1011700008954F925F926F927F92EF92FF920F933A
:101180001F93CF93DF93CDB7DEB7A1970FB6F89437
:10119000DEBF0FBECDBF7C01FA01CB0119A2223008
:1011A00008F42AE08E010F5D1F4F422E512C612C56
:1011B000712CBF01A30192010E945C2AF901CA01AE
:1011C000015011096A3014F4605D01C0695CD801F6
:1011D0006C93232B242B252B61F7B801C7010E94A8
:1011E0005B08A1960FB6F894DEBF0FBECDBFDF91AE
:1011F000CF911F910F91FF90EF907F906F905F9034
:101200004F900895CF92DF92EF92FF920F931F932A
:10121000CF93DF93EC016A017B012115310579F44D
:10122000E881F9810190F081E02D642FDF91CF9169
:101230001F910F91FF90EF90DF90CF9009942A308B
:101240003105E9F477FF1AC06DE20E9480088C0135
:1012500044275527BA014C195D096E097F092AE018
:10126000CE010E94B908800F911FDF91CF911F918D
:101270000F91FF90EF90DF90CF9008952AE0B70193
:10128000A601CE01DF91CF911F910F91FF90EF90BA
:10129000DF90CF900C94B9089A01AB01770F660BE1
:1012A000770B0C9402092115310541F4DC01ED9115
:1012B000FC910190F081E02D642F09940C94B90801
:1012C0009A01462F50E060E070E00C9453091F92A1
:1012D0000F920FB60F9211242F938F939F93EF933A
:1012E000FF93E091DD04F091DE048081E091E3045E
:1012F000F091E40482FD12C090818091E6048F5F3A
:101300008F732091E704821751F0E091E604F0E03A
:10131000E353FB4F958F8093E60401C08081FF91DA
:10132000EF919F918F912F910F900FBE0F901F9073
:1013300018951F920F920FB60F9211242F933F937F
:101340004F935F936F937F938F939F93AF93BF93CD
:10135000EF93FF938DEC94E00E94510AFF91EF917F
:10136000BF91AF919F918F917F916F915F914F91BD
:101370003F912F910F900FBE0F901F9018958DECFD
:1013800094E00E94060A21E0892B09F420E0822FD4
:101390000895EDECF4E01382128288EE93E0A0E071
:1013A000B0E084839583A683B78387EA93E0918333
:1013B000808385EC90E09587848784EC90E0978724
:1013C000868780EC90E0918B808B81EC90E0938B12
:1013D000828B82EC90E0958B848B86EC90E0978BEF
:1013E000868B118E128E138E148E089508950E948E
:1013F0005C070E94F6090E942B01C3E4DAE00E9418
:101400004A062097E1F30E94430AF9CFFC01918D2F
:10141000228D892F90E0805C9F4F821B91098F73F2
:1014200099270895FC01918D828D981731F0828D56
:10143000E80FF11D858D90E008958FEF9FEF0895DF
:10144000FC01918D828D981761F0828DDF01A80FCC
:10145000B11D5D968C91928D9F5F9F73928F90E0EE
:1014600008958FEF9FEF0895FC01538D448D252F34
:1014700030E0842F90E0821B930B541710F0CF962E
:101480000895019708958FEB99E0892B49F080E04A
:1014900090E0892B29F00E94BF0981110C94000073
:1014A0000895FC01848DDF01A80FB11DA35ABF4F21
:1014B0002C91848D90E001968F739927848FA68953
:1014C000B7892C93A089B1898C9180648C93938D7A
:1014D000848D981306C00288F389E02D80818F7D6A
:1014E00080830895CF93DF93EC01888D8823C9F022
:1014F000EA89FB89808185FD05C0A889B9898C911D
:1015000086FD0FC00FB607FCF5CF808185FFF2CFB7
:10151000A889B9898C9185FFEDCFCE010E94510A2F
:10152000E7CFDF91CF910895EF92FF920F931F9332
:10153000CF93DF93EC0181E0888F9B8D8C8D981386
:1015400005C0E889F989808185FD24C0F62E0B8DC0
:1015500010E00F5F1F4F0F731127E02E8C8DE812E4
:101560000CC00FB607FCFACFE889F989808185FFA6
:10157000F5CFCE010E94510AF1CF8B8DFE01E80F0D
:10158000F11DE35AFF4FF0820B8FEA89FB898081BE
:10159000806207C0EE89FF896083E889F9898081CC
:1015A0008064808381E090E0DF91CF911F910F9163
:1015B000FF90EF900895CF92DF92EF92FF921F93EA
:1015C000CF93DF93EC016A017B01122FE889F9893F
:1015D00082E080834115514E61057105B1F060E0F4
:1015E00079E08DE390E0A70196010E945C2ADA0180
:1015F000C9010197A109B109B695A7959795879556
:10160000AC01411580E15807A8F0E889F9891082FA
:1016100060E874E88EE190E0A70196010E945C2AE0
:10162000BA01A9014150510961097109769567957F
:1016300057954795EC85FD855083EE85FF85408362
:10164000188EEC89FD891083EA89FB89808180618D
:101650008083EA89FB89808188608083EA89FB89AD
:10166000808180688083EA89FB8980818F7D808387
:10167000DF91CF911F91FF90EF90DF90CF90089571
:101680008F929F92AF92BF92CF92DF92EF92FF9292
:101690000F931F93CF93DF937C018B016C0182E04A
:1016A000C80ED11C4701E5E08E0E911CC0E0D0E0D1
:1016B000F60161916F014AE050E0C8010E946009A3
:1016C0005C016EE2C8010E9480088A0D9B1DC80F54
:1016D000D91FC814D90461F74AE050E0F7016581C9
:1016E000C8010E9460098C0F9D1FDF91CF911F914F
:1016F0000F91FF90EF90DF90CF90BF90AF909F90B1
:101700008F90089529EB33E0FC013183208312820E
:1017100013821482158208950F93FC0189EB93E0E4
:101720009183808362834383248305830F9108958B
:1017300029EB33E0FC0131832083FB01408151819F
:1017400062817381FC0142835383648375830895AE
:10175000FB014081518162817381FC01428353838B
:10176000648375830895EAE6F5E089EB93E091835D
:10177000808312821382148215820895FC01808175
:1017800091810C948E26CF93DF93EC01888199810F
:10179000009711F00E948E26198218821D821C82E9
:1017A0001B821A82DF91CF9108950F931F93CF93DD
:1017B000DF93EC018B016F5F7F4F888199810E94DD
:1017C0008227009731F0998388831B830A8381E005
:1017D00001C080E0DF91CF911F910F910895CF93C9
:1017E000DF93EC0188819981892B29F08A819B8183
:1017F0008617970760F4CE010E94D50B882341F02D
:101800008C819D81892B19F4E881F981108281E016
:10181000DF91CF910895EF92FF920F931F93CF9393
:10182000DF93EC017B018A01BA010E94EF0B811169
:1018300004C0CE010E94C30B07C01D830C83B701F7
:10184000888199810E946E28CE01DF91CF911F91EE
:101850000F91FF90EF900895FC0111821082138286
:101860001282158214826115710551F0FB010190FD
:101870000020E9F73197AF01461B570B0C940B0C76
:101880000895CF93DF93EC016115710559F0FB01C9
:1018900001900020E9F73197AF01461B570B0E94DA
:1018A0000B0C02C00E94C30BCE01DF91CF910895B3
:1018B0000F931F93CF93DF93CDB7DEB729970FB662
:1018C000F894DEBF0FBECDBF8C01862FF8011182C8
:1018D0001082138212821582148250E0BE016F5F63
:1018E0007F4F90E00E948B28BE016F5F7F4FC80141
:1018F0000E94410C29960FB6F894DEBF0FBECDBFF3
:10190000DF91CF911F910F9108950F931F93CF9364
:10191000DF93CDB7DEB762970FB6F894DEBF0FBE88
:10192000CDBF8C01CB01F80111821082138212828B
:101930001582148250E0BE016F5F7F4F0E947528B0
:10194000BE016F5F7F4FC8010E94410C62960FB6C7
:10195000F894DEBF0FBECDBFDF91CF911F910F91E5
:1019600008950F931F93CF93DF93CDB7DEB76197A1
:101970000FB6F894DEBF0FBECDBF8C01CB01F801CE
:1019800011821082138212821582148250E0BE01ED
:101990006F5F7F4F0E948B28BE016F5F7F4FC80132
:1019A0000E94410C61960FB6F894DEBF0FBECDBF0A
:1019B000DF91CF911F910F910895FC012481358112
:1019C000232B31F421E061157105A1F0FB0108C062
:1019D000FC01808191816115710531F421E0FC01E8
:1019E0008081882339F005C00E94652821E0892B79
:1019F00009F020E0822F0895089508958FEF9FEF5A
:101A0000909371058093700508951F920F920FB601
:101A10000F9211240F900FBE0F901F901895A8954C
:101A20000895DA01F90160348FE178071CF461153B
:101A3000710539F489E090E08D939C9380E49FE1F7
:101A400058C0603A8FE078073CF088E090E08D93D2
:101A50009C9380EA9FE04DC0603D87E078073CF0B2
:101A600087E090E08D939C9380ED97E042C0683EC4
:101A700083E078073CF086E090E08D939C9388EEBD
:101A800093E037C0643F81E078073CF085E090E068
:101A90008D939C9384EF91E02CC06A3F71053CF0DC
:101AA00084E090E08D939C938AEF90E022C06837A9
:101AB00071053CF083E090E08D939C9388E790E083
:101AC00018C06C3371053CF082E090E08D939C93DC
:101AD0008CE390E00EC06E3171053CF081E090E047
:101AE0008D939C938EE190E004C01D921C928FE038
:101AF00090E09183808308950F931F93CF93DF939A
:101B000000D0CDB7DEB78C019E012F5F3F4FAC01F7
:101B10000E94110DF801808183FD02C098E001C090
:101B200098E28770892B98E10FB6F894A895909366
:101B300060000FBE8093600089819A810F900F90A2
:101B4000DF91CF911F910F910895DC01ED91FC91F0
:101B5000048CF58DE02D099429EB33E0FC013183F1
:101B60002083FB014089518962897389FC0142838A
:101B70005383648375830895FC018489958908954E
:101B8000FC01818D928D0895CF93DF931F92CDB785
:101B9000DEB76983DC01ED91FC910280F381E02DD9
:101BA00041E050E0BE016F5F7F4F09950F90DF91DC
:101BB000CF9108950895CF93DF93EC01888D843001
:101BC00061F00E945B13E88DF0E0EE0FFF1FE05123
:101BD000FA4F1182108284E0888FDF91CF910895AF
:101BE000FC01178A168A6E5F7F4F808D0C94D91482
:101BF000FC01808D0C941F15CF93DF93EC019A01AB
:101C00008E899F89AB01BC01888D0E9492142E8918
:101C10003F89280F391F3F8B2E8BDF91CF9108957D
:101C20000F931F93CF93DF931F92CDB7DEB7FC01C5
:101C3000218D328D232B61F08C0141E050E0BE01FB
:101C40006F5F7F4F808D0E94D813181619061CF005
:101C50008FEF9FEF08C0F801818D928D0197928FD1
:101C6000818F898190E00F90DF91CF911F910F912B
:101C70000895CF93DF93FC01218D328D211531051D
:101C800019F48FEF9FEF11C0EC014217530708F0D2
:101C9000A901888D0E94D8131816190694F7298D6A
:101CA0003A8D281B390B3A8F298FDF91CF910895F8
:101CB000CF93DF931F92CDB7DEB7FC01218D328D1C
:101CC000232B49F0BE016F5F7F4F808D0E9463140C
:101CD000898190E002C08FEF9FEF0F90DF91CF914D
:101CE0000895EF92FF921F93CF93DF93FC01208D15
:101CF000243011F080E01CC07B01EC0110E0812F4A
:101D00000E943313811102C0188F05C08831E1F39E
:101D10001F5F1430A1F7888D843061F3FD86EC8657
:101D20001A8E198E20E0A70162E00E94851381E0DF
:101D3000DF91CF911F91FF90EF9008950F931F9324
:101D4000CF93DF93CDB7DEB728970FB6F894DEBFF9
:101D50000FBECDBF8C01F801818D928D892B49F08A
:101D6000D801ED91FC910284F385E02DC80109951D
:101D7000F2CF808D0E9438141816190654F548E0E9
:101D800050E0BE016F5F7F4FD80158968C910E9442
:101D9000D8139C0118161906D4F4BE016F5F7F4F4B
:101DA000C8010E960E94A80B8D8190E0982F88277D
:101DB0002E81820F911DF801958B848B2F8130E04D
:101DC000322F22278885280F311D328F218FC9019C
:101DD00002C080E090E028960FB6F894DEBF0FBEF8
:101DE000CDBFDF91CF911F910F9108958F929F9258
:101DF000AF92BF92CF92DF92EF92FF920F931F9319
:101E0000CF93DF9300D000D000D0CDB7DEB7FC0178
:101E1000208D243009F068C06A017B018C0153E0F9
:101E2000852E54E0952EA12CB12CC4010E94D9100E
:101E3000811103C0F801A08E0AC08831D9F3FFEFE9
:101E4000AF1ABF0A9394E4E0AE16B10471F7F8013B
:101E5000808D843009F448C096E0E6E1F1E0DE01CF
:101E6000119601900D929A95E1F7F70193819F7772
:101E70009C8394819D8395819E83B7016E5F7F4F84
:101E800090E0982F882744E050E0845F9B4F0E94A9
:101E9000AA10F801E08CF12CF4E0EF0EF11CFE2CFE
:101EA000EE246D2DC70140960E9416106C2DC701BF
:101EB00041960E941610F801808D90E0982F882797
:101EC00046E050E0BE016F5F7F4F8A5F9B4F0E94EC
:101ED000AA10F801128E118E20E8A60162E0808D12
:101EE0000E94851381E001C080E026960FB6F89429
:101EF000DEBF0FBECDBFDF91CF911F910F91FF903D
:101F0000EF90DF90CF90BF90AF909F908F9008950B
:101F1000CF93DF93EC011B821A8288EE93E0A0E05E
:101F2000B0E08C839D83AE83BF838FEB93E0998376
:101F30008883CE010E960E94820B84E0888FDF9109
:101F4000CF910895CF92DF92EF92FF920F931F935C
:101F5000CF93DF93CDB7DEB7AF970FB6F894DEBF60
:101F60000FBECDBF8C016B017A01CE0101960E949C
:101F7000820BCE0109960E94880FCE018A960E949C
:101F8000820B6AE875E0CE0184960E94A016BE011D
:101F90006C5D7F4FCE0101960E94C216AE01465D78
:101FA0005F4FB601CE0101960E9431198130910533
:101FB000C1F4D801ED91FC910488F589E02D89EBFD
:101FC00093E09DA38CA38CA59DA5AEA5BFA58EA3D4
:101FD0009FA3A8A7B9A7A701BE016C5D7F4FC80149
:101FE0000995AF960FB6F894DEBF0FBECDBFDF9157
:101FF000CF911F910F91FF90EF90DF90CF900895B8
:102000000F9300E020E040E060E082E795E00E946E
:102010008C0B0F9108958EBD00000DB407FEFDCF0F
:102020008EB508952A9808952A9A08951F93CF93FC
:10203000DF9300D0CDB7DEB7182F6A8399830E9453
:10204000121080EF0E940B109981892F0E940B10B3
:10205000812F0E940B106A81862F0E940B100E9414
:10206000141081E00F900F90DF91CF911F91089590
:10207000CF93DF93EC016CE271E080E090E00E948E
:1020800020070E94BF19229A80910606882399F0A2
:102090002FB7F89480910606813059F48DB3809360
:1020A00004069DB380910506809589238DBB2FBFC3
:1020B00002C02093040680E58CBD1DBC60E880E072
:1020C00090E00E94161065E58BE190E00E941610EA
:1020D00065E58AE190E00E9416108091060688234B
:1020E00051F09FB7F89420910606809104062130A4
:1020F00029F58DBB9FBF80E090E49983888380E0C1
:1021000090E69987888780E098E49B838A8380E0C3
:1021100098E69B878A8780E090E59D838C8380E0AA
:1021200090E79D878C8780E098E59F838E8380E091
:1021300098E79F878E87DF91CF9108958FBFDBCF80
:102140009B0190E00496982F8827642F820F931F9D
:102150000C941610CF92DF92EF92FF920F931F9381
:10216000CF93DF93EC017A018B016C01C40ED51E75
:10217000CC15DD05A1F00E94121080EF0E940B101B
:102180008D2F0E940B108C2F0E940B102196F801AE
:1021900081918F010E940B100E941410E9CFC7019A
:1021A000DF91CF911F910F91FF90EF90DF90CF9033
:1021B00008951F93CF93DF931F92CDB7DEB7182FEB
:1021C00099830E9412108FE00E940B109981892F31
:1021D0000E940B10812F0E940B1080E00E940B10B8
:1021E00089830E94141089810F90DF91CF911F91F4
:1021F000089590E00496982F8827860F971F0C94D7
:10220000D9101F93CF93DF93182F60E270E00E94E4
:10221000F910C82FD0E061E270E0812F0E94F91020
:10222000DC2FCC279E01282BC901DF91CF911F9174
:102230000895FF920F931F93CF93DF93F62EC0E084
:10224000D0E08F2D0E9401118C01892B21F08F2D60
:102250000E940111EC01C017D10799F7CE01DF915F
:10226000CF911F910F91FF9008951F93CF93DF930C
:10227000182F66E270E00E94F910C82FD0E067E2E4
:1022800070E0812F0E94F910DC2FCC279E01282BB3
:10229000C901DF91CF911F910895FF920F931F9372
:1022A000CF93DF93F62EC0E0D0E08F2D0E94351142
:1022B0008C01892B21F08F2D0E943511EC01C01764
:1022C000D10799F7CE01DF91CF911F910F91FF9028
:1022D00008956F927F928F929F92AF92BF92CF920A
:1022E000DF92EF92FF920F931F93CF93DF931F9292
:1022F000CDB7DEB7882E962E6A01590164E270E0F0
:10230000892D99830E94F910E82EF12C65E270E086
:10231000892D0E94F910FE2CEE24E82A37016C0C5E
:102320007D1CA3015770E82C9981F92EE90CF11C52
:10233000E90CF11CF70180819181840F951F9A01AE
:10234000200F311F2130384098F060E078E06B01B9
:10235000C41AD50AA601B5010E94AA10A8014C19F9
:102360005D09B5016C0D7D1DF7018081918102C071
:10237000A801B5010E94AA10060D171D412F64E2A5
:1023800070E0892D0E94A010402F65E270E0892D39
:102390000F90DF91CF911F910F91FF90EF90DF9001
:1023A000CF90BF90AF909F908F907F906F900C9444
:1023B000A010CF92DF92EF92FF920F931F93CF93D3
:1023C000DF93EC017A018B016C01C40ED51ECC1594
:1023D000DD05A9F00E9412108FE00E940B108D2FD6
:1023E0000E940B108C2F0E940B10219680E00E94FF
:1023F0000B10F80181938F010E941410E8CFC701E0
:10240000DF91CF911F910F91FF90EF90DF90CF90D0
:102410000895AF92BF92CF92DF92EF92FF920F9307
:102420001F93CF93DF9300D0CDB7DEB75A83498394
:10243000590129813A8137706C01C60ED11CC60E34
:10244000D11CF60180859185820F931FA801420F50
:10245000531F4130584098F0E0E0F8E07F01E21A65
:10246000F30AA701B5010E94D911A8014E195F090D
:10247000B5016E0D7F1DF6018085918502C0A80112
:10248000B5010F900F90DF91CF911F910F91FF90A9
:10249000EF90DF90CF90BF90AF900C94D9118F92B6
:1024A0009F92AF92BF92CF92DF92EF92FF920F93E3
:1024B0001F93CF93DF936C01962E5A017901802EE2
:1024C00068E270E0892D0E94F910C82FD0E069E21F
:1024D00070E0892D0E94F910DC2FCC27C82B8701D2
:1024E0009501AE01692DC6010E94091281101AC022
:1024F000CE0DDF1D4D2F68E270E0892D0E94A010E7
:102500004C2F69E270E0892DDF91CF911F910F91DF
:10251000FF90EF90DF90CF90BF90AF909F908F9003
:102520000C94A010DF91CF911F910F91FF90EF902D
:10253000DF90CF90BF90AF909F908F900895CF93F2
:10254000C62F61E070E08C2F0E94A01061E070E067
:102550008C2F0E94F9108111F9CFCF9108950F931C
:10256000FC0130E080E092E1AAE7B0E048175907AB
:102570006A077B0740F4B695A795979587953F5FC7
:102580003630A1F737E091E09327222311F020E5C0
:1025900001C020E7892F86950C70082B022B008341
:1025A000917091830F91089520910606222399F04E
:1025B0004FB7F89420910606213059F42DB320939B
:1025C00004063DB320910506209523232DBB4FBF64
:1025D00002C0409304068CBD9DBD089580910606FF
:1025E000882361F09FB7F894209106068091040635
:1025F000213019F48DBB9FBF08958FBF089590E0DF
:10260000982F882744E050E0845F9B4F0C94AA10D9
:1026100062E070E00C94F910CF93DF93C82FD62FAF
:10262000472F64E070E00E94A0104D2F65E070E03D
:102630008C2FDF91CF910C94A010462F62E070E0B8
:102640000C94A010CF93DF93C82FD62F472F60E1B3
:1026500070E00E94A0104D2F61E170E08C2FDF919F
:10266000CF910C94A0100F931F93CF93DF9300D0C2
:102670001F92CDB7DEB7182F00E021E040E059E00F
:102680006DE370E0CE0101960E94AF1289819A81BC
:102690000E94D41263E070E0812F0E94F9108B83B6
:1026A0000E94EE128B810F900F900F90DF91CF91CF
:1026B0001F910F9108950F931F93CF93DF9300D035
:1026C000CDB7DEB7182F00E021E040E059E06DE320
:1026D00070E0CE0101960E94AF1289819A810E941A
:1026E000D41240E150E0612F88E795E00E949F12EC
:1026F0006FEF812F0E941D130E94EE120F900F901A
:10270000DF91CF911F910F910895CF92DF92EF92B9
:10271000FF920F931F93CF93DF9300D0CDB7DEB717
:102720009FEF960F9530C0F5F22E6A01E62E182F16
:102730000E945B1300E021E040E059E06DE370E0AF
:10274000CE0101960E94AF1289819A810E94D41213
:102750004E2D4F2960E070E0812F0E94A010C1141F
:10276000D10411F0B6010AC0609188057091890505
:102770006F5F7F4F7093890560938805812F0E945A
:102780000C1341E050E0612F88E795E00E949F1212
:102790000E94EE1281E001C080E00F900F90DF9167
:1027A000CF911F910F91FF90EF90DF90CF90089500
:1027B000AF92BF92CF92DF92EF92FF920F931F934F
:1027C000CF93DF9300D0CDB7DEB7182F5B016A013E
:1027D00000E021E040E059E06DE370E0CE010196B9
:1027E0000E94AF1289819A810E94D412612F88E7DA
:1027F00095E00E944D117C010097A1F463E070E028
:10280000812F0E94F910843119F1882309F121E008
:1028100030E08C3111F420E030E0EE24FF24E21AA5
:10282000F30A16C0C816D9060CF476011E141F044C
:102830007CF400E09701A501612F88E795E00E94F4
:102840004F1240E450E0612F88E795E00E949F120C
:102850000E94EE12C7010F900F90DF91CF911F9150
:102860000F91FF90EF90DF90CF90BF90AF900895C1
:102870000F931F93CF93DF9300D000D0CDB7DEB777
:10288000182F00E021E040E059E06DE370E0CE0158
:1028900001960E94AF1289819A810E94D412612F01
:1028A00088E795E00E944D118B839C830E94EE1275
:1028B0008B819C810F900F900F900F90DF91CF91A3
:1028C0001F910F910895EF92FF920F931F93CF9353
:1028D000DF9300D0CDB7DEB7182F7B0100E021E0F9
:1028E00040E059E06DE370E0CE0101960E94AF1226
:1028F00089819A810E94D41201E021E030E0A70191
:10290000612F88E795E00E944F120E94EE1281E04D
:1029100090E00F900F90DF91CF911F910F91FF905A
:10292000EF9008958F929F92AF92BF92DF92EF92B5
:10293000FF920F931F93CF93DF9300D0CDB7DEB7F5
:10294000D82E5B014A01790100E021E040E059E026
:102950006DE370E0CE0101960E94AF1289819A81E9
:102960000E94D4126D2D88E795E00E9419118E15F2
:102970009F0530F46D2D88E795E00E9419117C01C8
:1029800087019401A5016D2D88E795E00E946911EA
:102990000E94EE12C7010F900F90DF91CF911F910F
:1029A0000F91FF90EF90DF90BF90AF909F908F902E
:1029B0000895CF92DF92EF92FF920F931F93CF93E0
:1029C000DF9300D0CDB7DEB7FB019081911109C034
:1029D0009181911106C09281911103C09381992335
:1029E00009F141155105F1F06A017F01182F00E04E
:1029F00021E040E059E06DE370E0CE0101960E94D5
:102A0000AF1289819A810E94D412B701812F0E944E
:102A1000FF12B601812F0E9422130E94EE1281E064
:102A200090E002C080E090E00F900F90DF91CF9196
:102A30001F910F91FF90EF90DF90CF9008950F932B
:102A40001F93CF93DF9300D0CDB7DEB7182F00E0F0
:102A500021E040E059E06DE370E0CE0101960E9474
:102A6000AF1289819A810E94D41240E250E0612F16
:102A700088E795E00E949F12812F0E94081384FD31
:102A800021C0812F0E94081383FF09C068E1812FB4
:102A90000E941D130E94EE1280E090E01BC00E9475
:102AA000EE120E94970700E021E040E059E06DE35C
:102AB00070E0CE0101960E94AF1289819A810E9436
:102AC000D412DACF60E1812F0E941D130E94EE1212
:102AD00081E090E00F900F90DF91CF911F910F91C7
:102AE000089544E050E0BC0181E090E00C94AA100D
:102AF00044E050E0BC0185E090E00C94AA1044E072
:102B000050E0BC018FE090E00C94AA102F923F920D
:102B10004F925F926F927F928F929F92AF92BF92ED
:102B2000CF92DF92EF92FF920F931F93CF93DF9399
:102B300000D000D000D0CDB7DEB76C011B01290159
:102B40003A014701580182E995E0F60197838683AF
:102B500088E795E00E94381080E590E00E94D4124A
:102B600046E050E0B10189E090E00E94AA1000E048
:102B700020E040E060E0CE0101960E948C0BCE0187
:102B800003960E947F150E94EE1285017401A30135
:102B90009201B101F601868197810E941D258C0169
:102BA0000197B9F580E590E00E94D412F6016681A4
:102BB0007781CE0101960E945720CE0103960E9494
:102BC0007F15F60166817781CE0101960E946D2006
:102BD000CE0103960E947115F60166817781CE01C0
:102BE00001960E946220CE0103960E9478150E94F1
:102BF000EE12F60166817781CE0101960E9478205F
:102C00008B819C81AD81BE81F60182839383A483F5
:102C1000B583C80126960FB6F894DEBF0FBECDBFB0
:102C2000DF91CF911F910F91FF90EF90DF90CF90A8
:102C3000BF90AF909F908F907F906F905F904F90DC
:102C40003F902F900895EF92FF920F931F93CF9391
:102C5000DF9300D000D000D0CDB7DEB7FC012681D5
:102C600037812115310509F443C08C01C9010E9447
:102C70005C257C01029721F084E0E816F104D1F58F
:102C800080E590E00E94D412F80166817781CE0140
:102C900001960E945720CE0103960E947F15F801ED
:102CA00066817781CE0101960E946D20CE01039648
:102CB0000E947115F80166817781CE0101960E940C
:102CC0006220CE0103960E9478150E94EE12F80150
:102CD00066817781CE0101960E9478208B819C814C
:102CE000AD81BE81F80182839383A483B58302C042
:102CF000E12CF12CC70126960FB6F894DEBF0FBE6B
:102D0000CDBFDF91CF911F910F91FF90EF9008956C
:102D1000CF93DF93EC010E94820B80E590E00E944C
:102D2000D412BE016E5F7F4F44E050E08FE090E030
:102D30000E94D9110E94EE12CE01DF91CF91089529
:102D400029EB33E0FC0131832083FB014281538175
:102D500064817581FC014283538364837583089584
:102D60000F9300E020E040E060E088EF95E00E94F3
:102D70008C0B85ED95E00E94880F8AE895E00F9115
:102D80000C94820BFB014281538164817581FC01AB
:102D90004283538364837583178216820895CF9389
:102DA000DF93FB0120E080E090E0AAE03191332343
:102DB00001F160ED630F6A3080F4A89FB001A99F14
:102DC000700D1124CB01C097830F911D37FD9A958B
:102DD0008F3F910559F350F313C03E3289F42330ED
:102DE00079F0EA01C20FD11D8A832F5F80E090E065
:102DF000DDCF233029F4FA01858381E090E002C021
:102E000080E090E0DF91CF9108950F9300E020E003
:102E100040E060E08EEF95E00E948C0B0F910895EA
:102E20008F929F92AF92BF92CF92DF92EF92FF92DA
:102E30000F931F93CF93DF9300D000D01F92CDB795
:102E4000DEB78C016B010E94EF06F8017783668381
:102E50007627672776277A836983085F1F4F42E0CA
:102E600050E0BE016F5F7F4FC8010E94FC0D81E002
:102E700090E09C838B8342E050E0BE016D5F7F4F0A
:102E8000C8010E94FC0D80E091E09C838B8342E0AE
:102E900050E0BE016D5F7F4FC8010E94FC0D1C8297
:102EA0001B8242E050E0BE016D5F7F4FC8010E946F
:102EB000FC0D42E050E0BE016D5F7F4FC8010E94F3
:102EC000FC0D42E050E0BE016D5F7F4FC8010E94E3
:102ED000FC0D5601F5018081882329F1C6017C0192
:102EE000FC0120810196211116C0570147018C1861
:102EF0009D081814190494F48D8241E050E0BE013D
:102F00006B5F7F4FC8010E94FC0DA401B601C80190
:102F10000E94FC0D03C02E3211F7E7CF6701FFEFCF
:102F2000CF1ADF0AD7CF1D8241E050E0BE016B5FB0
:102F30007F4FC8010E94FC0DE12CFF24F394FC821A
:102F4000EB8242E050E0BE016D5F7F4FC8010E94FE
:102F5000FC0DFC82EB8242E050E0BE016D5F7F4FD2
:102F6000C8010E94FC0D81E090E00F900F900F903F
:102F70000F900F90DF91CF911F910F91FF90EF90E5
:102F8000DF90CF90BF90AF909F908F9008954F9219
:102F90005F926F927F928F929F92AF92BF92CF92E9
:102FA000DF92EF92FF920F931F93CF93DF93CDB7F2
:102FB000DEB765970FB6F894DEBF0FBECDBF7C01BC
:102FC0005B016A010E94EF062B013C018701085F4B
:102FD0001F4F4501A12CB12CC8010E949E0E18164E
:102FE0001906A4F00E94EF06DC01CB0184199509B3
:102FF000A609B70988169906AA06BB06D0F062E3AF
:1030000070E080E090E00E942007E6CFF701428167
:10301000538164817581808D918DA28DB38D481708
:1030200059076A077B0741F4848D958DC59721F474
:1030300006C02FEF3FEFFDC02EEF3FEFFAC0C801F3
:103040000E94C00D0C97ECF04CE050E0BE016F5FA9
:103050007F4FC8010E94390E6C818B810E944B20EA
:103060009A8B898BF701E680F7806A8189810E94BB
:103070004B20E816F90641F489899A8997FF04C024
:1030800009C02DEF3FEFD5C0C8010E94DA0D2CEF2B
:103090003FEFCFC08F709270892B31F0C8010E9432
:1030A000DA0D2BEF3FEFC5C068858F810E944B2062
:1030B0005C01892B31F4C8010E94DA0D2AEF3FEF41
:1030C000B8C0E12CF12C6E818D810E944B20E81656
:1030D000F90640F541E050E0BE01635F7F4FC80153
:1030E0000E94390E8D85811113C08D858111F2CF1B
:1030F000C8010E94100EC8010E94100EC8010E9453
:10310000100EC8010E94100EFFEFEF1AFF0ADBCF6E
:103110008D859FEF980F9D87882339F3C8010E9402
:10312000100EF6CFE12CF12C41E050E0BE016D5EB7
:103130007F4FC8010E94390E8B89982F907C61F4D3
:10314000882371F08B899FEF980F9B8B882341F028
:10315000C8010E94100EF6CFC8010E94100E1B8AF3
:103160008B898111E1CF42E050E0BE01615F7F4F6A
:10317000C8010E94390E42E050E0BE01635F7F4FFC
:10318000C8010E94390EC8010E94100EC8010E9499
:10319000100EC8010E94100EC8010E94100E42E0DD
:1031A00050E0BE016F5E7F4FC8010E94390E8F85CF
:1031B00098898115914001F52D853E853227232779
:1031C000322721303105C1F489899A8981159440CB
:1031D00031F0C8010E94DA0D27EF3FEF2AC0B60197
:1031E0006E5F7F4F44E050E0C8012C8B3D8B0E9406
:1031F000390E2C893D891DC0812C912C89899A8991
:103200009827892798278816990638F4C8010E94BC
:10321000100E8FEF881A980AF1CFEFEFEE1AFE0A20
:10322000EA14FB0409F080CFC8010E94DA0D26EFF2
:103230003FEFC90165960FB6F894DEBF0FBECDBF54
:10324000DF91CF911F910F91FF90EF90DF90CF9082
:10325000BF90AF909F908F907F906F905F904F90B6
:1032600008958F929F92AF92BF92CF92DF92EF928A
:10327000FF920F931F93CF93DF9300D000D000D025
:10328000CDB7DEB77C014B015A010E94CF168C01ED
:10329000892B09F05BC0F7014281538164817581FC
:1032A0008091000690910106A0910206B09103065C
:1032B000481759076A077B0709F44BC00E94EF06BD
:1032C0006701F8E0CF0ED11C6F7077277C5FC601D5
:1032D0000E94710E813009F03EC089EB93E09A8321
:1032E0008983F70182819381A481B5818B839C833B
:1032F000AD83BE8345E350E0BE016F5F7F4FC601E3
:103300000E94F00D892B19F400E010E01BC0B401FD
:10331000C7010E941017892BB9F3C6010E94F80D4E
:10332000892B91F383E0882E912CA50168E873E145
:10333000C7010E94C7178C01F1E08F1A910811F0A4
:10334000019699F3C6010E94DB0D05C001E010E073
:1033500002C00EEF1FEFC80126960FB6F894DEBF2D
:103360000FBECDBFDF91CF911F910F91FF90EF90D6
:10337000DF90CF90BF90AF909F908F900895CF93A4
:10338000CFB7F89480910706811127C0EAE9F0E0F1
:103390008491E6E8F0E09491E82FF0E0EE0FFF1F53
:1033A000E255FF4FA591B491EC91E92321F461E03E
:1033B0008AE00E94FD0761E08AE00E94C1078CB5A7
:1033C00080618CBD8CB580648CBD61E08DE00E9415
:1033D000C10761E08BE00E94C107809107068F5F03
:1033E00080930706CFBFCF910895FC011482158208
:1033F0001682178208951F93CF93DF931F92CDB744
:10340000DEB7162FFC01608188E096E049830E94B8
:10341000591D612F88E096E00E94101D4981642F9C
:1034200088E096E00E94101D88E096E00F90DF9102
:10343000CF911F910C94DD1D1F93CF93DF9300D08C
:10344000CDB7DEB7162FFC01608188E096E04A8395
:1034500059830E94591D612F88E096E00E94101D3B
:103460005981652F88E096E00E94101D4A81642FE3
:1034700088E096E00E94101D88E096E00F900F9083
:10348000DF91CF911F910C94DD1D1F93CF93DF939C
:10349000EC01162F688188E096E00E94591D612F8B
:1034A00088E096E00E94101D88E096E00E94DD1DF5
:1034B00041E0688188E096E00E94DA1DC8EED3E022
:1034C00088E096E00E94B41C1816190634F0209784
:1034D00011F02197F5CF80E006C0CD2BE1F388E015
:1034E00096E00E94BC1CDF91CF911F9108950F932D
:1034F000CF93DF93EC01637041704295407F2F7052
:10350000422B6295660F607E462B6EE10E94FB198E
:10351000002321F0083018F007E001C001E08FEF30
:10352000800F61E070E002C0660F771F8A95E2F7B6
:10353000072E000C880B990B0E94C0299B01AC013F
:1035400060E074E284EF99E40E941D290E948F29B3
:103550006C837D838E839F836FE1CE010E94451A29
:103560008F780295007F482F402B6FE1CE01DF91CD
:10357000CF910F910C94FB191F93CF93DF93EC0124
:10358000162F688188E096E00E94591D612F88E01F
:1035900096E00E94101D88E096E00E94DD1D42E04A
:1035A000688188E096E00E94DA1DC0EDD7E088E0EF
:1035B00096E00E94B41C02973CF4209711F02197EA
:1035C000F6CF80E090E011C0CD2BD9F388E096E0F3
:1035D0000E94BC1CC82F88E096E00E94BC1C20E022
:1035E00030E03C2FA901482BCA01DF91CF911F91F8
:1035F0000895CF92DF92EF92FF920F931F93CF9394
:10360000DF938C01D62FF42E6EE00E94BC1A41E0AD
:1036100050E09A0102C0220F331FDA95E2F7E90168
:103620008095909582239323892B89F060E1C801CE
:103630000E94BC1AFF2021F0AC014C2B5D2B05C071
:10364000C095D095AC014C235D2360E125C066E0B8
:10365000C8010E94BC1A6C0168E0C8010E94BC1A33
:103660009E0120953095FF2061F07C01E222F3223B
:10367000A6014C2B5D2B66E0C8010E941C1AA70115
:103680000AC0C82BD92BA6014223532366E0C801E8
:103690000E941C1AAE0168E0C801DF91CF911F9112
:1036A0000F91FF90EF90DF90CF900C941C1A0C9428
:1036B000F91AFF920F931F93CF93DF938C01F62E8D
:1036C0006EE00E94BC1AC1E0D0E002C0CC0FDD1F4A
:1036D000FA94E2F78C239D23892B49F060E1C8011D
:1036E0000E94BC1AC823D92381E0CD2B09F480E0C5
:1036F000DF91CF911F910F91FF9008950C94591B6A
:10370000CF92DF92EF92FF920F931F93CF93DF93AD
:103710001F92CDB7DEB76C01162F60E029830E949F
:10372000BC1A41E050E0BA0102C0660F771F1A953B
:10373000E2F78B01AC01462B572B60E0C6010E94DB
:103740001C1A66E0C6010E94BC1A7801E094F0944D
:10375000AC014E215F2166E0C6010E941C1A6EE09A
:10376000C6010E94BC1AAC014E215F216EE0C60169
:103770000E941C1A6EE1C6010E94451A8F7D482FD7
:1037800040646EE1C6010E94FB196FE1C6010E9410
:10379000451A2981482F222311F0486801C0477734
:1037A000F60184819581A681B781892B8A2B8B2B89
:1037B00049F480E894E8AEE1B0E084839583A68381
:1037C000B78340616FE1C6010E94FB1960E2C60148
:1037D0000E94BC1AAC01402B512B60E2C6010E9432
:1037E0001C1A60E1C6010E94BC1AAC014E215F2187
:1037F00060E1C6010F90DF91CF911F910F91FF9073
:10380000EF90DF90CF900C941C1A0F931F93CF93DF
:10381000DF93EC01162F042F6EE00E94BC1A9C016E
:10382000802F8D7F813059F041E050E0012E02C0A1
:10383000440F551F0A94E2F7422B532B0DC0E1E0D1
:10384000F0E0012E02C0EE0FFF1F0A94E2F7E095B0
:10385000F095A9014E235F236EE0CE010E941C1A51
:10386000023049F441E0612FCE01DF91CF911F91E9
:103870000F910C94F91A033051F420E041E0612FCC
:10388000CE01DF91CF911F910F910C94801BDF919E
:10389000CF911F910F9108950C94051CCF93DF9346
:1038A000EC016FE10E94451A82FF06C0482F4B7F52
:1038B0006FE1CE010E94FB1941E06B81CE010E94B5
:1038C000051C40E06B81CE010E94F91A61E070E0B6
:1038D00080E090E00E94200741E06B81CE01DF9103
:1038E000CF910C94F91ACF93DF93662321F0DF91E7
:1038F000CF910C944E1CEC0142E16DE70E94FB1944
:1039000044E36DE7CE01DF91CF910C94FB190F9347
:10391000CF93DF93EC0188E096E00E944F1D8B81EE
:103920008F3F21F0CE010E944E1C04C060E0CE010A
:103930000E94731C63E1CE010E94BC1A81159F4F47
:1039400049F401E020E040E062E0CE010E94771AF5
:1039500081E001C080E0DF91CF910F910895FC01DB
:10396000608343830C94871C8091380690E02091FB
:103970003906821B91090895909139068091380685
:10398000981750F4E92FF0E0E65CF94F208130E021
:103990009F5F9093390602C02FEF3FEFC901089552
:1039A000E091390680913806E81730F4F0E0E65CE3
:1039B000F94F808190E008958FEF9FEF089508956B
:1039C000CF92DF92EF92FF920F931F93CF93DF93EB
:1039D0007C01262F972F8A0180911406882391F06D
:1039E000C62FD72F6E01C40ED51ECC15DD0571F084
:1039F0006991D701ED91FC910190F081E02DC70113
:103A00000995F3CF642F822F0E94A01EC801DF9179
:103A1000CF911F910F91FF90EF90DF90CF9008957D
:103A2000CF93DF931F92CDB7DEB769832091140641
:103A30002223D1F020911506203240F021E030E021
:103A4000FC013383228380E090E015C0809116064C
:103A5000E82FF0E0E95EF94F998190838F5F8093C2
:103A600016068093150605C061E0CE0101960E94FE
:103A7000A01E81E090E00F90DF91CF910895FC01AE
:103A80001382128288EE93E0A0E0B0E084839583F5
:103A9000A683B78387EE93E0918380830895109285
:103AA00039061092380610921606109215060C94DC
:103AB000E41D81E080931406609337061092160689
:103AC0001092150608950F93062F21E040911506D8
:103AD00067E176E0809137060E944A1E1092160632
:103AE00010921506109214060F9108954F925F924E
:103AF0006F927F92AF92BF92CF92EF92FF920F930D
:103B00001F93CF93DF935C01F62ED42F2801390148
:103B1000EE2021F10E94591DCE2DC43008F0C3E0E3
:103B2000C150C0F0D501ED91FC91B8E0CB9FC00130
:103B30001124A301920104C0569547953795279506
:103B40008A95D2F7CA01B9010190F081E02DC50133
:103B50000995E6CF60E0C5010E94631D4D2FD1326B
:103B600008F040E22C2D6AE376E08F2D0E94021EC1
:103B70001092390680933806DF91CF911F910F91F3
:103B8000FF90EF90CF90BF90AF907F906F905F903D
:103B90004F900895CF92EF920F931F93C22EE12C76
:103BA00000E010E098010E94761D1F910F91EF90A8
:103BB000CF90089521E00C94CA1D61E00C94631D20
:103BC00088E096E00C943F1D1092C70681E0809338
:103BD000C5061092C40661E082E10E94FD0761E023
:103BE00083E10E94FD07E9EBF0E080818E7F808316
:103BF00080818D7F808388E48093B80085E4809302
:103C0000BC000895413208F043C09091C70691115D
:103C1000FCCF91E09093C7062093C5062FEF209329
:103C20005A0610929F06240F20939E069093C60674
:103C30009091C606880F892B8093C6068091C40692
:103C4000813061F41092C4068091C6068093BB0057
:103C50008091BC0083FDF8CF85EC01C085EE809398
:103C6000BC008091C7068130E1F380919F068417E4
:103C700010F440919F0620EA36E0FB01D9018A2F1B
:103C8000821B841718F48D918193F9CF842F0895A6
:103C900080E008950F93413208F04AC09091C70622
:103CA0009111FCCF32E03093C7060093C5063FEF79
:103CB00030935A0610929F0640939E06FB0160EADD
:103CC00076E0DB013A2F361B341718F431913D931F
:103CD000F9CF1092C6063091C606880F832B8093C9
:103CE000C6068091C406813061F41092C4068091AA
:103CF000C6068093BB008091BC0083FDF8CF85ECA5
:103D000001C085EE8093BC00222321F08091C7067C
:103D10008230D1F380915A068F3F79F080915A0614
:103D2000803241F080915A06803331F094E005C032
:103D300091E003C092E001C093E0892F0F910895B4
:103D400040917C06262F30E0240F311D21323105B1
:103D5000DCF42091C7062430C9F4FC0180E090E037
:103D6000861758F430917C062191DC01A258B94F96
:103D7000A30FB11D2C930196F3CF80917C06680FA1
:103D800060937C0680E0089581E0089582E00895C4
:103D900085ED8093BC008091BC0084FDFCCF109227
:103DA000C706089585EC8093BC001092C70608955D
:103DB0001F920F920FB60F9211242F933F934F93A0
:103DC0005F936F937F938F939F93AF93BF93EF9383
:103DD000FF938091B900887F803609F49EC078F502
:103DE000883209F45DC090F4803109F456C038F48B
:103DF000882309F4F5C0883009F44FC0F5C0883134
:103E000009F44EC0803209F45FC0EEC0803409F47A
:103E10006AC058F4803309F457C0883309F0E4C00D
:103E200080935A060E94D21EDFC0803509F44FC02D
:103E3000883509F45DC0883409F0D6C0D3C088390C
:103E400009F4C4C0A8F4883709F467C038F4883688
:103E500009F463C0803709F460C0C6C0883809F42B
:103E6000B5C0803909F45FC0803809F0BDC05BC0BF
:103E7000803B09F483C038F4803A09F466C0883A7C
:103E800009F47CC0B1C0803C09F4A4C0883C09F4AA
:103E9000A1C0883B09F487C0A7C08091C60610C0A6
:103EA00090919F0680919E06981770F5E0919F066D
:103EB00081E08E0F80939F06F0E0E056F94F8081FD
:103EC0008093BB0085EC83C080935A068BC0E09141
:103ED0009F0681E08E0F80939F068091BB00F0E0EB
:103EE000E056F94F808390919F0680919E066BC0AB
:103EF000E0919F0681E08E0F80939F068091BB002A
:103F0000F0E0E056F94F80838091C50681116AC0C8
:103F100081E08093C40684EA5EC083E08093C70694
:103F200010925B06CFCF80915B06803208F04EC0C6
:103F3000E0915B0681E08E0F80935B068091BB0071
:103F4000F0E0E45AF94F8083BDCF0E94D21E8091E9
:103F50005B06803230F4E0915B06F0E0E45AF94F02
:103F6000108260915B0670E0E091C006F091C1069E
:103F70008CE596E0099510925B0636C084E080934C
:103F8000C70610927D0610927C06E091C206F09161
:103F9000C306099580917C06811105C081E080935C
:103FA0007C0610927E06E0917D0681E08E0F809364
:103FB0007D06F0E0E258F94F80818093BB0090913C
:103FC0007D0680917C06981708F47CCF85E8809365
:103FD000BC000AC085EC8093BC001092C70604C0E8
:103FE00010925A060E94C81EFF91EF91BF91AF91A7
:103FF0009F918F917F916F915F914F913F912F9101
:104000000F900FBE0F901F901895CF93DF9300D0A5
:1040100000D0CDB7DEB7611571058105910579F046
:104020009B01AC0169833A834B835C830E947427B4
:1040300029813A814B815C810E947E2A03C060E025
:1040400070E0CB010F900F900F900F90DF91CF9108
:104050000895CF92DF92EF92FF920F931F93621712
:1040600073078407950784F489019A016B017C0129
:10407000C901B8016C197D098E099F090E940520AC
:104080006C0D7D1D8E1D9F1D1F910F91FF90EF9058
:10409000DF90CF90089570E09B01382BC9010895FF
:1040A0000E9624E1FC0111922A95E9F70895CF9329
:1040B000DF93EC01625F7F4F0E94980BCE01DF918E
:1040C000CF910895CF93DF93EC016E5E7F4F0E94F6
:1040D000980BCE01DF91CF910895CF93DF93EC0140
:1040E0006A5E7F4F0E94980BCE01DF91CF910895B9
:1040F000CF93DF93EC01625E7F4F0E94980BCE015D
:10410000DF91CF91089580E3FB0180833296842F65
:1041100082958F7090E1899F401911244A3014F4E0
:10412000405D01C0495C4293482F8111F0CF089552
:104130000F9300E020E040E060E088EC96E00E9411
:104140008C0B0F9108957F928F929F92AF92BF92A6
:10415000CF92DF92EF92FF920F931F93CF93DF9353
:10416000CDB7DEB7AC970FB6F894DEBF0FBECDBFAC
:104170007C01762E942E852E20E2B22ECE01019661
:104180006C01FC012B2D11922A95E9F70FEF2FEF0F
:104190004FEF6FEF86960E948C0B89EB93E09AA30A
:1041A00089A389A59AA5ABA5BCA58BA39CA3ADA308
:1041B000BEA387010D5B1F4F43E450E0BE016F5D5E
:1041C0007F4FC8010E94F00D019609F4BFC081E045
:1041D00089838A8386E0A82EAB821C82F7016481E2
:1041E0007581868197810E949D2A6D837E838F834E
:1041F000988789869A8680E890E09C878B874CE137
:1042000050E0B601C8010E94FC0DF6012B2D119261
:104210002A95E9F7470188E0880E911CF401D60140
:1042200001900D92AA94E1F740E150E0B601C80177
:104230000E94FC0DF6011192BA94E9F796E0A92EBE
:10424000B12C40E250E0B601C8010E94FC0DF1E043
:10425000AF1AB108B1F783E6898392E89A8393E5B0
:104260009B838C8385E38D8381E08E837F829DE3B6
:10427000988797E099878A8786E0F401DE011B968C
:1042800001900D928A95E1F78CE0898B8A8B65EF1E
:1042900073E0CE0143960E946E28F7014385BE016C
:1042A000675E7F4FC7010E948320F7014485BE01EE
:1042B000655E7F4FC7010E948320F7014585BE01DF
:1042C000635E7F4FC7010E9483204EE150E0B6013C
:1042D000C8010E94FC0DF3E07F121EC082E38983B7
:1042E00084E08A83F70196859B8397859C839089D8
:1042F0009D8391899E8396E39F838887828D89879A
:10430000838D8A87848D8B87858D8C874CE050E0E8
:10431000B601C8010E94FC0D87E3898386E08A8389
:1043200091E09B8393E09C838D838FE08E838AE36F
:104330008F838BE388878FEF898749E050E0B60150
:10434000C8010E94FC0DC8010E94F80DAC960FB682
:10435000F894DEBF0FBECDBFDF91CF911F910F91BB
:10436000FF90EF90DF90CF90BF90AF909F908F9095
:104370007F9008952F923F924F925F926F927F921B
:104380008F929F92AF92BF92DF92EF92FF920F9324
:104390001F93CF93DF93CDB7DEB7E4970FB6F894B2
:1043A000DEBF0FBECDBF7C011A012B0139010E9477
:1043B000EF064B015C0187010D5B1F4FC8010E9496
:1043C0009E0E18161906A4F00E94EF06DC01CB0120
:1043D00088199909AA09BB09281639064A065B06F5
:1043E000F0F062E370E080E090E00E942007E6CF0A
:1043F00042E250E0BE016F5F7F4FC8010E94390E5C
:104400008981823031F4F80184899589833491055A
:1044100041F0D12CC8010E94DA0D8D2D5FC18FEFC4
:104420005DC16D817E818F8198850E949D2A4B019F
:104430005C01F301608371838283938346E050E0E3
:10444000B701685F7F4FCE014D960E944F28892BA0
:1044500099F4F70180819181A281B3818816990630
:10446000AA06BB0648F084819581A681B78188158C
:104470009905AA05BB0528F4C8010E94DA0D80E061
:104480002DC189899A89AB89BC89F701868797876D
:10449000A08BB18B8EECA82EB12CC8010E94100EFF
:1044A000F1E0AF1AB108C9F7D12CC70182969AA7DB
:1044B00089A7F701B696FCA7EBA708969EA78DA73C
:1044C0003C974F01899698AB8FA73897FAABE9AB29
:1044D0001701F6E12F0E311CC5979CAB8BABC801C1
:1044E0000E94C00D181619060CF094CFC8010E9446
:1044F000100E8333910509F4CBC0FCF48130910593
:10450000C9F11CF4892B59F3DDC083309105D1F139
:10451000069709F0D7C0C8010E94100E5C0144E064
:1045200050E06BA97CA9C8010E94390E412C512C86
:10453000BB24F4E0AF1AB10840C08A33910509F4F6
:104540007BC03CF48533910569F0C69709F440C0FF
:10455000B9C08B33910509F485C08F3F910509F4EB
:10456000BECFB0C0C8010E94100EC8010E94100E3C
:10457000D82EB5CFC8010E94100E44E050E069A9C2
:104580007AA93AC0C8010E94100E5C0144E050E0D4
:10459000B101C8010E94390E412C512CBB2494E07A
:1045A000A91AB1084A145B040CF099CFC8010E9403
:1045B000100EEFEF4E1A5E0AF5CF4A145B040CF0B2
:1045C0008ECFC8010E94100E8FEF481A580AF5CFFF
:1045D000C8010E94100EB82EF701828D811110C003
:1045E000838D81110DC0848D81110AC0858D81114B
:1045F00007C044E050E0B401C8010E94390E6FCFFB
:10460000EFA5F8A94080518062807380B401CE018B
:1046100083960E94980B8DA19EA1AFA1B8A5841589
:104620009505A605B70529F3BB2009F458CFC801A5
:104630000E94100EBA94F8CFC8010E94100E44E0F8
:1046400050E06BA57CA5C8010E94390EF70166A158
:1046500077A180A591A50E949D2A66A377A380A734
:1046600091A73DCFC8010E94100E44E050E06DA517
:104670007EA5C8010E94390EF70162A573A584A525
:1046800095A50E949D2A62A773A784A795A727CF07
:10469000C8010E94100E44E050E069A57AA5C80147
:1046A0000E94390EF70162A173A184A195A10E9415
:1046B0009D2A62A373A384A395A366A777A780AB63
:1046C00091AB0DCFC8010E94100EB82EBB2009F48B
:1046D00006CFC8010E94100EBA94F8CFE4960FB628
:1046E000F894DEBF0FBECDBFDF91CF911F910F9128
:1046F000FF90EF90DF90BF90AF909F908F907F9052
:104700006F905F904F903F902F9008952F923F921F
:104710004F925F926F927F928F929F92AF92BF92D1
:10472000CF92DF92EF92FF920F931F93CF93DF937D
:10473000CDB7DEB727970FB6F894DEBF0FBECDBF5B
:104740008C0120ED37E040E050E061E070E080E077
:1047500090E00E942920D80114966D937D938D934B
:104760009C931797F8016083718382839383580128
:10477000F3E4AF0EB11CC5010E94DB0D64E470E0F0
:10478000C5010E94710E882309F43CC10E94EF0606
:104790002B013C01812C912C1D82C8018E5B9F4F07
:1047A0009F838E8343E0342E58EEC52E53E0D52EE2
:1047B000E12CF12C62E0262EAE81BF818C918330FA
:1047C00009F407C1811120C0F80184819581A68177
:1047D000B7810196A11DB11D84839583A683B783FC
:1047E0000E94EF066419750986099709A7019601C9
:1047F0000E945C2AA90161E0C8010E94A32081E017
:10480000AE81BF818C93C6C08430F9F4F8018481F5
:104810009581A681B7810196A11DB11D84839583E1
:10482000A683B7830E94EF06641975098609970964
:10483000A70196010E945C2AA90163E0C8010E94B9
:10484000A320AE81BF812C92A5C0813061F5F80113
:1048500042AD53AD64AD75AD9E012F5F3F4FC801B2
:104860000E94BA218D83823009F094C089819A8197
:10487000AB81BC81F80184839583A683B7830E94B2
:10488000EF066419750986099709A70196010E9428
:104890005C2AA90163E0C8010E94A320ED81AE81DA
:1048A000BF81EC937EC0823009F074C0D801DA96E3
:1048B0004D915D916D917C91DD979E012F5F3F4FF2
:1048C000C8010E94BA218D83853009F05CC0EE8159
:1048D000FF813082F80182A193A1A4A1B5A1892B07
:1048E0008A2B8B2B41F484E893E0A0E0B0E082A314
:1048F00093A3A4A3B5A3F80186A197A1A0A5B1A5F0
:10490000892B8A2B8B2B61F482A193A1A4A1B5A141
:10491000B695A7959795879586A397A3A0A7B1A7C6
:10492000F80182A593A5A4A5B5A5892B8A2B8B2B6D
:10493000A9F482A193A1A4A1B5A1AC01BD0123E07A
:1049400076956795579547952A95D1F7841B950BD2
:10495000A60BB70B82A793A7A4A7B5A7F80186A1BA
:1049600097A1A0A5B1A586A797A7A0ABB1AB82A53B
:1049700093A5A4A5B5A582AB93ABA4ABB5AB882496
:104980008394912C0EC0FD81F63021F4AE81BF815D
:104990001C9207C0BD81BF3F21F4EE81FF811082D0
:1049A0001D82F1E08F16910409F406CF0E94EF06F4
:1049B000DC01CB0184199509A609B709F80126A9DC
:1049C00037A940AD51AD281739074A075B0708F0F2
:1049D000F3CEC5010E94DB0DF80184819581A6818B
:1049E000B7810196A11DB11D84839583A683B783EA
:1049F0000E94EF06F801FE966083718382839383A1
:104A0000C40102C080E090E027960FB6F894DEBFA4
:104A10000FBECDBFDF91CF911F910F91FF90EF900F
:104A2000DF90CF90BF90AF909F908F907F906F90CE
:104A30005F904F903F902F900895CF92DF92EF922A
:104A4000FF920F931F93CF93DF93EC016B011AA298
:104A50001BA21CA21DA21EA21FA218A619A61AA65E
:104A60001BA61CA61DA62EAB3FAB48AF59AFEAAEA6
:104A7000FBAE0CAF1DAF8C01085F1F4F86E0F80145
:104A800011928A95E9F7CE010E94502086E0F60146
:104A9000D80101900D928A95E1F7FE01EE5BFF4F80
:104AA0001082CE01DF91CF911F910F91FF90EF9077
:104AB000DF90CF900C948623CF92DF92EF92FF92FB
:104AC0000F931F93CF93DF93EC010E94EF066B01CE
:104AD0007C018E01025C1F4FF80180819181A281CF
:104AE000B381A7019601281B390B4A0B5B0BCA0146
:104AF000B901683E33E073078105910508F441C0B0
:104B000028EE33E040E050E00E945C2AC61AD70A43
:104B1000E80AF90AF801C082D182E282F3828EA506
:104B20009FA5A8A9B9A969017A01CC0CDD1CEE1CCE
:104B3000FF1C8C159D05AE05BF0528F41EA61FA6FB
:104B400018AA19AA08C0821B930BA40BB50B8EA739
:104B50009FA7A8ABB9AB8AA99BA9ACA9BDA98C1585
:104B60009D05AE05BF0528F41AAA1BAA1CAA1DAAFA
:104B700008C0821B930BA40BB50B8AAB9BABACABF1
:104B8000BDAB8EA59FA5A8A9B9A9892B8A2B8B2B74
:104B900069F4FE01EE5BFF4F8081833039F484E0DD
:104BA0008083CE010E948623019602C080E090E0BF
:104BB0004AA95BA96CA97DA9452B462B472B81F4FB
:104BC000FE01EE5BFF4F2081233011F0211108C060
:104BD0001082CE010E945020CE010E9486230396AF
:104BE000DF91CF911F910F91FF90EF90DF90CF90C9
:104BF0000895CF93DF938230910510F482E090E026
:104C0000E091D006F091D10620E030E0C0E0D0E0A5
:104C1000309711F14081518148175907C0F048176A
:104C2000590761F482819381209719F09B838A83CD
:104C30002BC09093D1068093D00626C02115310554
:104C400019F04217530718F49A01BE01DF01EF0172
:104C50000280F381E02DDCCF2115310509F1281BFD
:104C6000390B2430310590F412968D919C91139755
:104C70006115710521F0FB019383828304C0909339
:104C8000D1068093D006FD01329644C0FD01E20FAB
:104C9000F31F81939193225031092D933C933AC095
:104CA0002091CE063091CF06232B41F420910201B2
:104CB000309103013093CF062093CE06209100015E
:104CC000309101012115310541F42DB73EB74091D6
:104CD000040150910501241B350BE091CE06F091A3
:104CE000CF06E217F307A0F42E1B3F0B2817390756
:104CF00078F0AC014E5F5F4F2417350748F04E0F38
:104D00005F1F5093CF064093CE068193919302C0CC
:104D1000E0E0F0E0CF01DF91CF9108950F931F9372
:104D2000CF93DF93009709F48CC0FC013297138274
:104D300012820091D0061091D1060115110581F45F
:104D400020813181820F931F2091CE063091CF06B2
:104D50002817390779F5F093CF06E093CE0671C096
:104D6000D80140E050E0AE17BF0750F412962D91E5
:104D70003C911397AD012115310509F1D901F3CF0C
:104D80009D01DA013383228360817181860F971F31
:104D90008217930769F4EC0128813981260F371FA8
:104DA0002E5F3F4F318320838A819B81938382834F
:104DB000452B29F4F093D106E093D00642C0139618
:104DC000FC93EE931297ED01499159919E01240FA6
:104DD000351FE217F30771F480819181840F951FCD
:104DE000029611969C938E938281938113969C9345
:104DF0008E931297E0E0F0E0D80112968D919C918D
:104E00001397009719F0F8018C01F6CF8D919C91C2
:104E100098012E5F3F4F820F931F2091CE06309155
:104E2000CF062817390769F4309729F41092D10674
:104E30001092D00602C0138212821093CF06009304
:104E4000CE06DF91CF911F910F9108958F929F927F
:104E5000AF92BF92CF92DF92EF92FF92CF93DF9308
:104E6000EC01688179818A819B81611571058105D9
:104E7000910521F464E279ED8BE597E02DE133EFC4
:104E800041E050E00E947E2A49015A019B01AC0199
:104E9000A7EAB1E40E94A42A6B017C01ACEEB4EF56
:104EA000A50194010E94B22ADC01CB018C0D9D1D4D
:104EB000AE1DBF1DB7FF03C00197A109B04888838D
:104EC0009983AA83BB83BC01CD019F77DF91CF91EA
:104ED000FF90EF90DF90CF90BF90AF909F908F901A
:104EE00008950E942627089586E091E00E942627D3
:104EF00008956093060170930701809308019093D1
:104F000009010895A0E0B0E0E8E8F7E20C94BB2ABC
:104F1000EC01009721F4CB010E94F925B8C0FC01F7
:104F2000E60FF71F9C0122503109E217F30708F43E
:104F3000ACC0D9010D911C91119706171707B0F05D
:104F40000530110508F49FC0C8010497861797071C
:104F500008F499C002501109061B170B0193119315
:104F60006D937C93CF010E948E268DC05B01A01AA9
:104F7000B10A4C01800E911EA091D006B091D106CD
:104F800040E050E0E12CF12C109709F44AC0A8153C
:104F9000B905D1F56D907C901197630182E0C80E40
:104FA000D11CCA14DB0480F1A3014A195B096A0110
:104FB00082E0C80ED11C1296BC9012971396AC9149
:104FC000B5E0CB16D10440F0B282A3835183408375
:104FD000D9016D937C930AC00E5F1F4FC301800FF0
:104FE000911FF90191838083EB2DFA2FE114F104D5
:104FF00031F0D7011396FC93EE93129744C0F093CF
:10500000D106E093D0063FC08D919C91119748172F
:10501000590708F4AC017D0112960D90BC91A02DAA
:10502000B3CF8091CE069091CF0688159905E1F413
:1050300046175707C8F4809100019091010100972D
:1050400041F48DB79EB74091040150910501841B36
:10505000950BE817F907C8F4F093CF06E093CE0656
:10506000F901718360830FC0CB010E94F9257C0197
:10507000009759F0A801BE010E945C28CE010E9451
:105080008E26C70104C0CE0102C080E090E0CDB7FB
:10509000DEB7EEE00C94D72AF8940C94192BFB01A0
:1050A000DC0104C08D910190801921F441505040E1
:1050B000C8F7881B990B0895FB01DC0102C0019021
:1050C0000D9241505040D8F70895FB01DC018D91BD
:1050D000019080190110D9F3990B0895FB01DC01AF
:1050E00001900D920020E1F708954532510520F41A
:1050F000423010F00C948028FB011082CB010895FF
:10510000BB274A3031F4992322F4BDE29095819572
:105110009F4F0C9497284532510520F4423010F0EF
:105120000C949628FB011082CB010895BB27FB014C
:105130005527AA27880F991FAA1FA41710F0A41B90
:1051400083955051B9F7A05DAA3308F0A95DA193EA
:10515000009779F7B111B1931192CB010C944C2ABD
:105160005058BB27AA270E94C8280C94122A0E94D4
:10517000042A38F00E940B2A20F039F49F3F19F4DA
:1051800026F40C94012A0EF4E095E7FB0C94FB291D
:10519000E92F0E94232A58F3BA176207730784077E
:1051A000950720F079F4A6F50C94452A0EF4E095C5
:1051B0000B2EBA2FA02D0B01B90190010C01CA01D1
:1051C000A0011124FF27591B99F0593F50F4503E7C
:1051D00068F11A16F040A22F232F342F4427585F6E
:1051E000F3CF469537952795A795F0405395C9F786
:1051F0007EF41F16BA0B620B730B840BBAF091503E
:10520000A1F0FF0FBB1F661F771F881FC2F70EC0DC
:10521000BA0F621F731F841F48F4879577956795AF
:10522000B795F7959E3F08F0B0CF9395880F08F09B
:105230009927EE0F9795879508950E9431290C9430
:10524000122A0E940B2A58F00E94042A40F029F4E6
:105250005F3F29F00C94FB2951110C94462A0C94C1
:10526000012A0E94232A68F39923B1F3552391F36D
:10527000951B550BBB27AA2762177307840738F0C5
:105280009F5F5F4F220F331F441FAA1FA9F335D022
:105290000E2E3AF0E0E832D091505040E695001CD6
:1052A000CAF72BD0FE2F29D0660F771F881FBB1F90
:1052B000261737074807AB07B0E809F0BB0B802D6E
:1052C000BF01FF2793585F4F3AF09E3F510578F09A
:1052D0000C94FB290C94462A5F3FE4F3983ED4F3E8
:1052E000869577956795B795F7959F5FC9F7880F6E
:1052F000911D9695879597F90895E1E0660F771FC0
:10530000881FBB1F621773078407BA0720F0621B50
:10531000730B840BBA0BEE1F88F7E09508950E947B
:105320002B2A88F09F5798F0B92F9927B751B0F0E2
:10533000E1F0660F771F881F991F1AF0BA95C9F719
:1053400014C0B13091F00E94452AB1E008950C9448
:10535000452A672F782F8827B85F39F0B93FCCF3FB
:10536000869577956795B395D9F73EF49095809596
:10537000709561957F4F8F4F9F4F0895E89409C0B6
:1053800097FB3EF490958095709561957F4F8F4F78
:105390009F4F9923A9F0F92F96E9BB279395F6958E
:1053A000879577956795B795F111F8CFFAF4BB0F0C
:1053B00011F460FF1BC06F5F7F4F8F4F9F4F16C070
:1053C000882311F096E911C0772321F09EE8872FFA
:1053D000762F05C0662371F096E8862F70E060E0B6
:1053E0002AF09A95660F771F881FDAF7880F96952F
:1053F000879597F9089597F99F6780E870E060E0D6
:1054000008959FEF80EC089500240A94161617065D
:1054100018060906089500240A94121613061406A5
:1054200005060895092E0394000C11F4882352F008
:10543000BB0F40F4BF2B11F460FF04C06F5F7F4FC0
:105440008F4F9F4F089557FD9058440F551F59F0A7
:105450005F3F71F04795880F97FB991F61F09F3F61
:1054600079F087950895121613061406551FF2CF8A
:105470004695F1DF08C0161617061806991FF1CFDA
:1054800086957105610508940895E894BB27662701
:105490007727CB0197F90895DC01FC01672F719103
:1054A0007723E1F7329704C07C916D93708362910A
:1054B000AE17BF07C8F30895A1E21A2EAA1BBB1BA3
:1054C000FD010DC0AA1FBB1FEE1FFF1FA217B307D0
:1054D000E407F50720F0A21BB30BE40BF50B661FE6
:1054E000771F881F991F1A9469F7609570958095AA
:1054F00090959B01AC01BD01CF010895052E97FB4E
:105500001EF400940E94952A57FD07D00E945C2A41
:1055100007FC03D04EF40C94952A50954095309595
:1055200021953F4F4F4F5F4F08959095809570950F
:1055300061957F4F8F4F9F4F089569279627692761
:1055400078278727782708950E94F42AA59F900D31
:10555000B49F900DA49F800D911D11240895B7FF55
:105560000C94A42A0E94A42A821B930B08952F92C4
:105570003F924F925F926F927F928F929F92AF92E3
:10558000BF92CF92DF92EF92FF920F931F93CF9330
:10559000DF93CDB7DEB7CA1BDB0B0FB6F894DEBFC7
:1055A0000FBECDBF09942A88398848885F846E84ED
:1055B0007D848C849B84AA84B984C884DF80EE8037
:1055C000FD800C811B81AA81B981CE0FD11D0FB640
:1055D000F894DEBF0FBECDBFED010895EE0FFF1FA3
:1055E0000590F491E02D0994A29FB001B39FC001F2
:1055F000A39F700D811D1124911DB29F700D811DFF
:105600001124911D0895F999FECF92BD81BDF89A9C
:10561000992780B50895262FF999FECF1FBA92BD1C
:1056200081BD20BD0FB6F894FA9AF99A0FBE019683
:10563000089510E0C5E6D0E004C0FE010E94EE2A05
:0C5640002196C636D107C9F7F894FFCFB9
:10564C000000D20620000100000008000700060040
:10565C00BA22B922B82201005E00000052756E6EAB
:10566C00696E672053657475702E2E004661696CE7
:10567C00656420746F20636F6E6669677572652050
:10568C0045746865726E6574207573696E67204425
:10569C004843502C2072657374617274696E672074
:1056AC00736B657463682E2E2E00436F6E6669678C
:1056BC00757265642049503A0052756E6E696E675A
:1056CC002053657475702E2E2E00436F6E74656EAC
:1056DC007473206F66207468652073656E736F72C7
:1056EC0041727261792E6D61633A00496E6469761C
:1056FC00696475616C2076616C7565733A0045451B
:10570C0050524F4D20636F6E74656E74733A004146
:10571C006464726573733A20000900446174613AE1
:10572C0020004469676974616C20494F2063617281
:10573C006420666F756E6421004469676974616CDE
:10574C0020696F2063617264206E6F7420666F75C0
:10575C006E640054696D6520746F2072756E2074D0
:10576C00686520536574757000526573657474694F
:10577C006E6720426F6F746C6F616465722E2E00C1
:10578C00706F6B650049277665206265656E2070C9
:10579C006F6B65642100736E617052656C61795F2B
:1057AC006F6E00736E617052656C61795F6F6666C7
:1057BC0000736E617076325F305F6F6E00736E6176
:1057CC007076325F30206F6E00736E617076325F70
:1057DC00305F6F666600736E617076325F30206F7B
:1057EC00666600736E617076325F315F6F6E007348
:1057FC006E617076325F31206F6E00736E61707601
:10580C00325F315F6F666600736E617076325F3146
:10581C00206F666600736E617076325F325F6F6EFA
:10582C0000736E617076325F32206F6E00736E6142
:10583C007076325F325F6F666600736E61707632BF
:10584C005F32206F666600736E617076325F335F15
:10585C006F6E00736E617076325F33206F6E007303
:10586C006E617076325F335F6F666600736E617067
:10587C0076325F33206F66660046454D5F6F6E0073
:10588C0046454D5F6F66660050414D5F6F6E005030
:10589C00414D206F6E0050414D5F6F666600726522
:1058AC0073657400556E6B6E6F776E20636F6D6DE4
:1058BC00616E642072656365697665642E2E0030B6
:1058CC0000554450207061636B65742073656E7471
:1058DC002E2E2E000D0A006E616E00696E66006F32
:1058EC0076660000000000940A3008340A720A063A
:1058FC000A200A120A00000000400B00000000C43D
:10590C000DFC0D2D08DA0DC00D100E580E710EF693
:10591C000EDB0DF00DA20FF80D9E0E390EA50DAC81
:10592C000DBC0D00000000101DE01C2D08DF1CB488
:0C593C001CBC1CD01C57495A6E6574003E
:00000001FF
