:100000000C9466000C948E000C948E000C948E0060
:100010000C948E000C948E000C94B40F0C948E00F3
:100020000C948E000C948E000C948E000C948E0018
:100030000C948E000C948E000C948E000C948E0008
:100040000C94D5070C948E000C94970A0C94C90A52
:100050000C948E000C948E000C948E000C948E00E8
:100060000C948C210C948E0000000008000201000A
:100070000003040700000000000000000102040863
:100080001020408001020408102001020408102002
:10009000040404040404040402020202020203032E
:1000A0000303030300000000250028002B000000CC
:1000B0000000240027002A009000F90AE30CAD0F8D
:1000C000AF125F19B41994204C23EE0011241FBE07
:1000D000CFEFD8E0DEBFCDBF14E0A0E0B1E0EEE8A6
:1000E000FCE502C005900D92AE35B107D9F727E0C7
:1000F000AEE5B4E001C01D92A033B207E1F710E015
:10010000C5E6D0E004C02197FE010E940F2ECC3539
:10011000D107C9F70E94270B0C94002B0C94000008
:100120000F9300E020E040E060E08CE195E00E9469
:10013000BC0C01E021E041E06AE086E195E00E942C
:10014000BC0C8BEF94E00E94371280EE94E00E948A
:10015000371285EC94E00E9437126AED71E08FE966
:1001600094E00E945C0D85E994E00E94A41C84E95F
:1001700094E00E941A0F83E994E00E941A0F82E92A
:1001800094E00E941A0F8AE894E00E94330EEEE594
:10019000F4E0148215821682178280E090E0A6ECCB
:1001A000B2EC80879187A287B38784879587A687DB
:1001B000B787808B918BA28BB38B848B958BA68B0F
:1001C000B78B808F918FA28FB38F148E158E168E62
:1001D000178E10A211A212A20F9108958FE994E038
:1001E0000C94EE0C0F931F93CF93DF9300D000D0AD
:1001F00000D0CDB7DEB78C014091100150911101B4
:100200008AE194E09A838983809118059091190579
:10021000A0911A05B0911B058B839C83AD83BE838F
:10022000BE016F5F7F4F85EC94E00E949F10B80184
:1002300085EC94E00E94A00985EC94E00E94A71050
:1002400026960FB6F894DEBF0FBECDBFDF91CF91DB
:100250001F910F9108958F929F92AF92BF92CF926C
:10026000DF92EF92FF920F931F93CF93DF9300D013
:1002700000D000D0CDB7DEB760E47FE18EEC95E032
:100280000E942B100E941F084B015C0126E040E0F9
:1002900051EE60E070E08BE295E00E940B0C6CE1A7
:1002A00071E08BE295E00E94C50960E082E00E9467
:1002B0002D0961E082E00E94F10860E082E00E9486
:1002C0002D0960E088E00E942D0961E088E00E942D
:1002D000F10860E088E00E942D0960E089E00E945A
:1002E0002D0961E089E00E94F10860E089E00E9448
:1002F0002D0961E083E00E942D0961E083E00E9406
:10030000F10861E083E00E942D0961E085E00E9430
:100310002D0961E085E00E94F10861E085E00E941E
:100320002D0961E086E00E942D0961E086E00E94CF
:10033000F10861E086E00E942D0961E087E00E94FB
:100340002D0961E087E00E94F10861E087E00E94EA
:100350002D0961E084E00E942D0961E084E00E94A3
:10036000F10861E084E00E942D099FEBE92E94E002
:10037000F92E670100919D0410919E04C8010E940E
:10038000242ED6018D936D010F5F1F4F10939E0495
:1003900000939D04B5ECCB16B4E0DB0659F7E3E817
:1003A000F4E0D7018D917D018193B5ECEB16B4E0BB
:1003B000FB06B9F78EEC95E00E94BE0F10EAE12E25
:1003C0001FE0F12E00E010E020E63AEE40E050E0C1
:1003D0006FEB74E088EE95E00E943518892B61F48C
:1003E0006CE271E08BE295E00E94C50960E177E282
:1003F00080E090E00E9450086AE671E08BE295E0B0
:100400000E94C50968EE75E0CE0101960E94371979
:10041000BE016F5F7F4F8BE295E00E94D70960912C
:100420001401709115018BEF94E00E9420116091EE
:1004300012017091130180EE94E00E9420116091EE
:1004400010017091110185EC94E00E9420116CED77
:1004500075E080E090E00E9450088EEC95E00E94EC
:10046000BE0F69E771E0CE0101960E945C0DCE01DE
:1004700001960E94F200CE0101960E94EE0C6AE8FD
:1004800071E0CE0101960E945C0DCE0101960E94A2
:10049000F200CE0101960E94EE0C4AE06091C50484
:1004A000CE0101960E94880DCE0101960E94F200B5
:1004B000CE0101960E94EE0C6BEA71E0CE0101962E
:1004C0000E945C0DCE0101960E94F200CE010196C1
:1004D0000E94EE0C4AE06091BF04CE0101960E949A
:1004E000880DCE0101960E94F200CE0101960E9475
:1004F000EE0C4AE06091C004CE0101960E94880D86
:10050000CE0101960E94F200CE0101960E94EE0CEF
:100510004AE06091C104CE0101960E94880DCE018F
:1005200001960E94F200CE0101960E94EE0C4AE074
:100530006091C204CE0101960E94880DCE01019601
:100540000E94F200CE0101960E94EE0C4AE06091FA
:10055000C304CE0101960E94880DCE0101960E942F
:10056000F200CE0101960E94EE0C4AE06091C404B4
:10057000CE0101960E94880DCE0101960E94F200E4
:10058000CE0101960E94EE0C80910E0190910F0118
:100590000E94242E682F70E080E090E00E94722C70
:1005A00060935E0470935F04809360049093610491
:1005B0006EEB71E08BE295E00E94AE096EEB71E0AC
:1005C000CE0101960E945C0DCE0101960E94F200C0
:1005D000CE0101960E94EE0C00E010E06FEC71E09D
:1005E0008BE295E00E94AE094AE050E0B8018BE250
:1005F00095E00E947C0A69ED71E08BE295E00E9433
:10060000AE096BED71E08BE295E00E94AE09C80186
:100610000E94242E4AE050E0682F8BE295E00E9471
:10062000900A69ED71E08BE295E00E94AE096FECF3
:1006300071E0CE0101960E945C0DCE0101960E94F0
:10064000F200CE0101960E94EE0C4AE0B801CE0104
:1006500001960E94B50DCE0101960E94F200CE01D6
:1006600001960E94EE0C6BED71E0CE0101960E94A6
:100670005C0DCE0101960E94F200CE0101960E940F
:10068000EE0CC8010E94242E4AE0682FCE0101968C
:100690000E94880DCE0101960E94F200CE010196C3
:1006A0000E94EE0C0F5F1F4F0830110509F096CF26
:1006B0004FEF6EE385E994E00E945E1F882309F402
:1006C000F9C062EE71E08BE295E00E94C50962EE2E
:1006D00071E0CE0101960E945C0DCE0101960E9450
:1006E000F200CE0101960E94EE0C40E060E085E948
:1006F00094E00E94FB1E40E060E085E994E00E94E7
:10070000061E40E061E085E994E00E94FB1E40E0A7
:1007100061E085E994E00E94061E40E062E085E920
:1007200094E00E94FB1E40E062E085E994E00E94B4
:10073000061E40E063E085E994E00E94FB1E40E075
:1007400063E085E994E00E94061E40E064E085E9EC
:1007500094E00E94FB1E40E064E085E994E00E9482
:10076000061E40E065E085E994E00E94FB1E40E043
:1007700065E085E994E00E94061E40E066E085E9B8
:1007800094E00E94FB1E40E066E085E994E00E9450
:10079000061E40E067E085E994E00E94FB1E40E011
:1007A00067E085E994E00E94061E40E068E085E984
:1007B00094E00E94FB1E40E068E085E994E00E941E
:1007C000061E40E069E085E994E00E94FB1E40E0DF
:1007D00069E085E994E00E94061E40E06AE085E950
:1007E00094E00E94FB1E40E06AE085E994E00E94EC
:1007F000061E40E06BE085E994E00E94FB1E40E0AD
:100800006BE085E994E00E94061E41E06CE085E91A
:1008100094E00E94FB1E41E06DE085E994E00E94B7
:10082000FB1E41E06EE085E994E00E94FB1E41E082
:100830006FE085E994E00E94FB1E00E010E0602F6D
:1008400085E994E00E942D1E002E01C0880F0A94B5
:10085000EAF720918104822B809381040F5F1F4F60
:100860000830110561F708E010E0602F85E994E099
:100870000E942D1E002E01C0880F0A94EAF72091D5
:100880008204822B809382040F5F1F4F0F3011056B
:1008900061F76091810480910C0190910D010E949B
:1008A0002C2E6091820480910A0190910B010E948C
:1008B0002C2E14C069EF71E08BE295E00E94C5090F
:1008C00069EF71E0CE0101960E945C0DCE010196A8
:1008D0000E94F200CE0101960E94EE0C0E941F08B9
:1008E0006B017C0163E172E0CE0101960E945C0D18
:1008F000CE0101960E94F200CE0101960E94EE0CFC
:10090000B601681979094AE0CE0101960E94E10D0D
:10091000CE0101960E94F200CE0101960E94EE0CDB
:1009200026960FB6F894DEBF0FBECDBFDF91CF91F4
:100930001F910F91FF90EF90DF90CF90BF90AF90FD
:100940009F908F900895CF93DF9300D000D000D078
:10095000CDB7DEB769E272E08BE295E00E94C5098F
:1009600069E272E0CE0101960E945C0DCE01019613
:100970000E94F200CE0101960E94EE0C64EF71E03D
:1009800080E090E00E94500860E084E00E942D0921
:1009900026960FB6F894DEBF0FBECDBFDF91CF9184
:1009A0000895CF93DF93CDB7DEB72C970FB6F894A9
:1009B000DEBF0FBECDBF48E150E065EA74E08BEFCB
:1009C00094E00E94E81065EA74E0CE0107960E9468
:1009D0005C0D60E472E0CE0107960E940D0E882344
:1009E000C9F065E472E08BE295E00E94C50965E418
:1009F00072E0CE0101960E945C0DCE0101960E942C
:100A0000F200CE0101960E94EE0C8EEC95E00E9461
:100A1000BE0F28C166E572E0CE0107960E940D0E5A
:100A2000882341F061E082E00E942D0981E08093FB
:100A30007A0418C163E672E0CE0107960E940D0E9B
:100A4000882339F060E082E00E942D0910927A0438
:100A500009C161E772E0CE0107960E940D0E88235E
:100A600071F06DE772E08BE295E00E94C50960E0ED
:100A700083E00E942D0981E080937D04F3C069E842
:100A800072E0CE0107960E940D0E882369F066E998
:100A900072E08BE295E00E94C50961E083E00E946C
:100AA0002D0910927D04DEC063EA72E0CE01079644
:100AB0000E940D0E882371F06FEA72E08BE295E0E0
:100AC0000E94C50960E085E00E942D0981E08093C5
:100AD0007E04C8C06BEB72E0CE0107960E940D0E3B
:100AE000882369F068EC72E08BE295E00E94C5090A
:100AF00061E085E00E942D0910927E04B3C065ED8F
:100B000072E0CE0107960E940D0E882371F061EE0F
:100B100072E08BE295E00E94C50960E086E00E94E9
:100B20002D0981E080937F049DC06DEE72E0CE01BF
:100B300007960E940D0E882369F06AEF72E08BE23F
:100B400095E00E94C50961E086E00E942D0910929F
:100B50007F0488C067E073E0CE0107960E940D0E07
:100B6000882371F063E173E08BE295E00E94C50990
:100B700060E087E00E942D0981E08093800472C0CC
:100B80006FE173E0CE0107960E940D0E882369F095
:100B90006CE273E08BE295E00E94C50961E087E0BA
:100BA0000E942D09109280045DC069E373E0CE01BC
:100BB00007960E940D0E882341F061E088E00E94B4
:100BC0002D0981E080937B044DC060E473E0CE0189
:100BD00007960E940D0E882339F060E088E00E949D
:100BE0002D0910927B043EC068E473E0CE010796A5
:100BF0000E940D0E882371F06FE473E08BE295E0A4
:100C00000E94C50961E089E00E942D0981E080937E
:100C10007C0428C066E573E0CE0107960E940D0EA5
:100C2000882339F060E089E00E942D0910927C044D
:100C300019C06EE573E0CE0107960E940D0E882361
:100C400019F00E94A3040EC064E673E0CE01019681
:100C50000E945C0DCE0101960E94F200CE01019629
:100C60000E94EE0C88E1E5EAF4E0DF011D928A952E
:100C7000E9F7CE0107960E94EE0C2C960FB6F89479
:100C8000DEBF0FBECDBFDF91CF9108958F929F92AF
:100C9000AF92BF92CF92DF92EF92FF92CF93DF930A
:100CA00000D000D000D0CDB7DEB70E941F084B01A6
:100CB0005C016BE184E994E00E946E0F882369F087
:100CC00084E994E00E94900F609366047093670437
:100CD000809368049093690420C06FE773E08BE20F
:100CE00095E00E94C5096FE773E0CE0101960E946E
:100CF0005C0DCE0101960E94F200CE0101960E9489
:100D0000EE0C80E090E0A6ECB2EC80936604909349
:100D10006704A0936804B09369046AE183E994E0EE
:100D20000E946E0F882369F083E994E00E94900F7F
:100D300060936A0470936B0480936C0490936D04C9
:100D400020C065E973E08BE295E00E94C50965E982
:100D500073E0CE0101960E945C0DCE0101960E94C7
:100D6000F200CE0101960E94EE0C80E090E0A6EC2D
:100D7000B2EC80936A0490936B04A0936C04B093DC
:100D80006D0468E182E994E00E946E0F882369F0A7
:100D900082E994E00E94900F60936E0470936F0458
:100DA000809370049093710420C06BEA73E08BE22F
:100DB00095E00E94C5096BEA73E0CE0101960E949E
:100DC0005C0DCE0101960E94F200CE0101960E94B8
:100DD000EE0C80E090E0A6ECB2EC80936E04909371
:100DE0006F04A0937004B09371048AE894E00E94A9
:100DF0004A0E8823C9F08AE894E00E94780E609336
:100E000072047093730480937404909375048AE859
:100E100094E00E94C90E60937604709377048093E7
:100E200078049093790428C061EC73E08BE295E03C
:100E30000E94C50961EC73E0CE0101960E945C0D31
:100E4000CE0101960E94F200CE0101960E94EE0CA6
:100E500080E090E0A6ECB2EC80937204909373046F
:100E6000A0937404B09375048093760490937704F0
:100E7000A0937804B09379040E941F0828EE33E011
:100E800040E050E00E947D2DCA01B9010E94722C01
:100E90006093620470936304809364049093650488
:100EA00040911201509113018AE194E09A83898361
:100EB0008091180590911905A0911A05B0911B0514
:100EC0008B839C83AD83BE83BE016F5F7F4F80EEBB
:100ED00094E00E949F104CE250E06EE574E080EEDA
:100EE00094E00E94AB1080EE94E00E94A71064EDA5
:100EF00073E08BE295E00E94C50964ED73E0CE01DA
:100F000001960E945C0DCE0101960E94F200CE0176
:100F100001960E94EE0C8BEF94E00E944D1190938D
:100F2000BE048093BD041816190614F40E94D1045F
:100F300088EE95E00E94D2180E941F086B017C0188
:100F400067EE73E0CE0101960E945C0DCE01019622
:100F50000E94F200CE0101960E94EE0CB6016819C3
:100F600079094AE0CE0101960E94E10DCE01019679
:100F70000E94F200CE0101960E94EE0C60ED77E037
:100F800080E090E00E94500826960FB6F894DEBFED
:100F90000FBECDBFDF91CF91FF90EF90DF90CF904C
:100FA000BF90AF909F908F9008951F920F920FB6B1
:100FB0000F9211242F933F938F939F93AF93BF93DF
:100FC0008091230590912405A0912505B0912605D7
:100FD0003091220523E0230F2D3720F40196A11D27
:100FE000B11D05C026E8230F0296A11DB11D209357
:100FF00022058093230590932405A0932505B093A3
:1010000026058091270590912805A0912905B0918A
:101010002A050196A11DB11D8093270590932805EF
:10102000A0932905B0932A05BF91AF919F918F910D
:101030003F912F910F900FBE0F901F9018952FB7D3
:10104000F894609123057091240580912505909175
:1010500026052FBF08953FB7F894809127059091FA
:101060002805A0912905B0912A0526B5A89B05C0A1
:101070002F3F19F00196A11DB11D3FBFBA2FA92F17
:10108000982F8827820F911DA11DB11DBC01CD0194
:1010900042E0660F771F881F991F4A95D1F7089580
:1010A0008F929F92AF92BF92CF92DF92EF92FF9278
:1010B0006B017C010E942B084B015C01C114D1041F
:1010C000E104F10401F10E94C7080E942B08DC0131
:1010D000CB0188199909AA09BB09883E9340A1054B
:1010E000B10560F321E0C21AD108E108F10888EEE9
:1010F000880E83E0981EA11CB11CC114D104E10428
:10110000F10419F7DBCFFF90EF90DF90CF90BF9005
:10111000AF909F908F900895789484B5826084BD3D
:1011200084B5816084BD85B5826085BD85B58160EB
:1011300085BDEEE6F0E0808181608083E1E8F0E04B
:101140001082808182608083808181608083E0E87A
:10115000F0E0808181608083E1EBF0E08081846059
:101160008083E0EBF0E0808181608083EAE7F0E05B
:1011700080818460808380818260808380818160BF
:1011800080838081806880831092C10008950895D3
:10119000833081F028F4813099F08230A1F00895F5
:1011A0008730A9F08830B9F08430D1F48091800084
:1011B0008F7D03C0809180008F7780938000089599
:1011C00084B58F7702C084B58F7D84BD08958091EA
:1011D000B0008F7703C08091B0008F7D8093B00006
:1011E0000895CF93DF9390E0FC01E458FF4F2491E2
:1011F000FC01E057FF4F8491882361F190E0880F54
:10120000991FFC01E255FF4FC591D491FC01EC55AB
:10121000FF4FA591B491611109C09FB7F8948881DF
:10122000209582238883EC912E230BC0623061F4D9
:101230009FB7F8943881822F809583238883EC911F
:101240002E2B2C939FBF06C08FB7F894E8812E2BCE
:1012500028838FBFDF91CF9108951F93CF93DF93A2
:10126000282F30E0F901E859FF4F8491F901E45843
:10127000FF4FD491F901E057FF4FC491CC23C9F03F
:10128000162F81110E94C808EC2FF0E0EE0FFF1F0F
:10129000EC55FF4FA591B4918FB7F894111105C08B
:1012A0009C91ED2FE095E92302C0EC91ED2BEC939E
:1012B0008FBFDF91CF911F91089580E090E0089556
:1012C000CF92DF92EF92FF920F931F93CF93DF9312
:1012D0006C017A018B01C0E0D0E0CE15DF0589F00A
:1012E000D8016D918D01D601ED91FC910190F081B5
:1012F000E02DC6010995892B11F47E0102C02196CB
:10130000ECCFC701DF91CF911F910F91FF90EF902C
:10131000DF90CF9008956115710579F0FB01019080
:101320000020E9F73197AF01461B570BDC01ED9127
:10133000FC910280F381E02D099480E090E0089513
:10134000DC01ED91FC91DB0114964D915C911597B8
:101350006D917C910280F381E02D09940C948B09AE
:10136000DC01ED91FC910190F081E02D0994DB010D
:10137000ED91FC9111970190F081E02DBC01CD0120
:10138000099465EF73E00C948B090F931F93CF932F
:10139000DF93EC010E948B098C01CE010E94C109F0
:1013A000800F911FDF91CF911F910F9108950F939F
:1013B0001F93CF93DF93EC010E94B7098C01CE01FC
:1013C0000E94C109800F911FDF91CF911F910F9152
:1013D00008954F925F926F927F92EF92FF920F93D8
:1013E0001F93CF93DF93CDB7DEB7A1970FB6F894D5
:1013F000DEBF0FBECDBF7C01FA01CB0119A22230A6
:1014000008F42AE08E010F5D1F4F422E512C612CF3
:10141000712CBF01A30192010E947D2DF901CA0127
:10142000015011096A3014F4605D01C0695CD80193
:101430006C93232B242B252B61F7B801C7010E9445
:101440008B09A1960FB6F894DEBF0FBECDBFDF911A
:10145000CF911F910F91FF90EF907F906F905F90D1
:101460004F900895CF92DF92EF92FF920F931F93C8
:10147000CF93DF93EC016A017B012115310579F4EB
:10148000E881F9810190F081E02D642FDF91CF9107
:101490001F910F91FF90EF90DF90CF9009942A3029
:1014A0003105E9F477FF1AC06DE20E94B0098C01A2
:1014B00044275527BA014C195D096E097F092AE0B6
:1014C000CE010E94E909800F911FDF91CF911F91FA
:1014D0000F91FF90EF90DF90CF9008952AE0B70131
:1014E000A601CE01DF91CF911F910F91FF90EF9058
:1014F000DF90CF900C94E9099A01AB01770F660B4E
:10150000770B0C94320A2115310541F4DC01ED9181
:10151000FC910190F081E02D642F09940C94E9096D
:101520009A01462F50E060E070E00C94830A1F920D
:101530000F920FB60F9211242F938F939F93EF93D7
:10154000FF93E0913B05F0913C058081E0914105DE
:10155000F091420582FD12C09081809144058F5F19
:101560008F7320914505821751F0E0914405F0E01A
:10157000E55DFA4F958F8093440501C08081FF910E
:10158000EF919F918F912F910F900FBE0F901F9011
:1015900018951F920F920FB60F9211242F933F931D
:1015A0004F935F936F937F938F939F93AF93BF936B
:1015B000EF93FF938BE295E00E94810BFF91EF91F7
:1015C000BF91AF919F918F917F916F915F914F915B
:1015D0003F912F910F900FBE0F901F9018958BE2A7
:1015E00095E00E94360B21E0892B09F420E0822F40
:1015F0000895EBE2F5E01382128288EE93E0A0E01A
:10160000B0E084839583A683B78388E094E09183D8
:10161000808385EC90E09587848784EC90E09787C1
:10162000868780EC90E0918B808B81EC90E0938BAF
:10163000828B82EC90E0958B848B86EC90E0978B8C
:10164000868B118E128E138E148E089508950E942B
:101650008C080E94260B0E942B01C3E7DBE00E944E
:1016600046062097E1F30E94730BF9CFFC01918DA0
:10167000228D892F90E0805C9F4F821B91098F7390
:1016800099270895FC01918D828D981731F0828DF4
:10169000E80FF11D858D90E008958FEF9FEF08957D
:1016A000FC01918D828D981761F0828DDF01A80F6A
:1016B000B11D5D968C91928D9F5F9F73928F90E08C
:1016C00008958FEF9FEF0895FC01538D448D252FD2
:1016D00030E0842F90E0821B930B541710F0CF96CC
:1016E0000895019708958FEE9AE0892B49F080E0E4
:1016F00090E0892B29F00E94EF0A81110C940000E0
:101700000895FC01848DDF01A80FB11DA35ABF4FBE
:101710002C91848D90E001968F739927848FA689F0
:10172000B7892C93A089B1898C9180648C93938D17
:10173000848D981306C00288F389E02D80818F7D07
:1017400080830895CF93DF93EC01888D8823C9F0BF
:10175000EA89FB89808185FD05C0A889B9898C91BA
:1017600086FD0FC00FB607FCF5CF808185FFF2CF55
:10177000A889B9898C9185FFEDCFCE010E94810B9C
:10178000E7CFDF91CF910895EF92FF920F931F93D0
:10179000CF93DF93EC0181E0888F9B8D8C8D981324
:1017A00005C0E889F989808185FD24C0F62E0B8D5E
:1017B00010E00F5F1F4F0F731127E02E8C8DE81282
:1017C0000CC00FB607FCFACFE889F989808185FF44
:1017D000F5CFCE010E94810BF1CF8B8DFE01E80F7A
:1017E000F11DE35AFF4FF0820B8FEA89FB8980815C
:1017F000806207C0EE89FF896083E889F98980816A
:101800008064808381E090E0DF91CF911F910F9100
:10181000FF90EF900895CF92DF92EF92FF921F9387
:10182000CF93DF93EC016A017B01122FE889F989DC
:1018300082E080834115514E61057105B1F060E091
:1018400079E08DE390E0A70196010E947D2DDA01F9
:10185000C9010197A109B109B695A79597958795F3
:10186000AC01411580E15807A8F0E889F989108298
:1018700060E874E88EE190E0A70196010E947D2D5A
:10188000BA01A9014150510961097109769567951D
:1018900057954795EC85FD855083EE85FF85408300
:1018A000188EEC89FD891083EA89FB89808180612B
:1018B0008083EA89FB89808188608083EA89FB894B
:1018C000808180688083EA89FB8980818F7D808325
:1018D000DF91CF911F91FF90EF90DF90CF9008950F
:1018E0008F929F92AF92BF92CF92DF92EF92FF9230
:1018F0000F931F93CF93DF937C018B016C0182E0E8
:10190000C80ED11C4701E5E08E0E911CC0E0D0E06E
:10191000F60161916F014AE050E0C8010E94900A0F
:101920005C016EE2C8010E94B0098A0D9B1DC80FC0
:10193000D91FC814D90461F74AE050E0F701658166
:10194000C8010E94900A8C0F9D1FDF91CF911F91BB
:101950000F91FF90EF90DF90CF90BF90AF909F904E
:101960008F9008952AE134E0FC01318320831282B4
:1019700013821482158208950F93FC018AE194E08A
:101980009183808362834383248305830F91089529
:101990002AE134E0FC0131832083FB014081518145
:1019A00062817381FC01428353836483758308954C
:1019B000FB014081518162817381FC014283538329
:1019C000648375830895E8ECF5E08AE194E09183FF
:1019D000808312821382148215820895FC01808113
:1019E00091810C944229CF93DF93EC0188819981F6
:1019F000009711F00E944229198218821D821C82D0
:101A00001B821A82DF91CF9108950F931F93CF937A
:101A1000DF93EC018B016F5F7F4F888199810E947A
:101A2000362A009731F0998388831B830A8381E0EB
:101A300001C080E0DF91CF911F910F910895CF9366
:101A4000DF93EC0188819981892B29F08A819B8120
:101A50008617970760F4CE010E94050D882341F098
:101A60008C819D81892B19F4E881F981108281E0B4
:101A7000DF91CF910895EF92FF920F931F93CF9331
:101A8000DF93EC017B018A01BA010E941F0D8111D5
:101A900004C0CE010E94F30C07C01D830C83B70164
:101AA000888199810E94222BCE01DF91CF911F91D5
:101AB0000F91FF90EF900895FC0111821082138224
:101AC0001282158214826115710551F0FB0101909B
:101AD0000020E9F73197AF01461B570B0C943B0DE3
:101AE0000895CF93DF93EC016115710559F0FB0167
:101AF00001900020E9F73197AF01461B570B0E9478
:101B00003B0D02C00E94F30CCE01DF91CF910895EE
:101B10000F931F93CF93DF93CDB7DEB729970FB6FF
:101B2000F894DEBF0FBECDBF8C01862FF801118265
:101B30001082138212821582148250E0BE016F5F00
:101B40007F4F90E00E943F2BBE016F5F7F4FC80127
:101B50000E94710D29960FB6F894DEBF0FBECDBF5F
:101B6000DF91CF911F910F9108950F931F93CF9302
:101B7000DF93CDB7DEB762970FB6F894DEBF0FBE26
:101B8000CDBF8C01CB01F801118210821382128229
:101B90001582148250E0BE016F5F7F4F0E94292B97
:101BA000BE016F5F7F4FC8010E94710D62960FB634
:101BB000F894DEBF0FBECDBFDF91CF911F910F9183
:101BC00008950F931F93CF93DF93CDB7DEB761973F
:101BD0000FB6F894DEBF0FBECDBF8C01CB01F8016C
:101BE00011821082138212821582148250E0BE018B
:101BF0006F5F7F4F0E943F2BBE016F5F7F4FC80119
:101C00000E94710D61960FB6F894DEBF0FBECDBF76
:101C1000DF91CF911F910F910895FC0124813581AF
:101C2000232B31F421E061157105A1F0FB0108C0FF
:101C3000FC01808191816115710531F421E0FC0185
:101C40008081882339F005C00E94192B21E0892B5F
:101C500009F020E0822F0895DC01ED91FC910190C4
:101C6000F081E02D0994089560E470E086E696E046
:101C70000E9412206EEF70E086E696E00E942C0E25
:101C800086E696E00E9491206FE070E080E090E0B0
:101C90000C945008CF93DF93EC0186E696E00E9407
:101CA000FE1FCE010E94340E60E470E086E696E0EE
:101CB0000E94122067EE70E086E696E00E942C0EED
:101CC00086E696E00E94912041E050E060E470E0FA
:101CD00086E696E00E948E2086E696E00E946B1FC4
:101CE00021E0029709F020E0822FDF91CF91089543
:101CF000CF93DF9360E470E086E696E00E941220C6
:101D000063EE70E086E696E00E942C0E86E696E092
:101D10000E94912062E370E080E090E00E94500811
:101D200043E050E060E470E086E696E00E948E209A
:101D300086E696E00E94631F892BD1F386E696E043
:101D40000E946B1FD82F80E0C82F86E696E00E9485
:101D50006B1FC82BD92B86E696E00E946B1FBE0135
:101D600080E090E00E94722C22E538EB4FE253E4D1
:101D70000E94002D20E030E040E857E30E94002D53
:101D800026E636E64BE352E40E94642BDF91CF91C6
:101D90000895CF93DF9360E470E086E696E00E94BA
:101DA000122065EE70E086E696E00E942C0E86E634
:101DB00096E00E94912062E370E080E090E00E9453
:101DC000500843E050E060E470E086E696E00E9450
:101DD0008E2086E696E00E94631F892BD1F386E66B
:101DE00096E00E946B1FD82F80E0C82F86E696E011
:101DF0000E946B1FC82BD92B86E696E00E946B1FB2
:101E0000BE0180E090E00E94722C20E030E04AEFBA
:101E100052E40E94002D20E030E040E857E30E94A9
:101E2000002D20E030E040EC50E40E94642BDF9174
:101E3000CF91089508951F93CF93DF9300D0CDB72E
:101E4000DEB7162FFC01608186E696E04A8359834F
:101E50000E940820612F86E696E00E94BF1F5981EC
:101E6000652F86E696E00E94BF1F4A81642F86E6B2
:101E700096E00E94BF1F86E696E00F900F90DF91DC
:101E8000CF911F910C9491201F93CF93DF93EC017E
:101E9000162F688186E696E00E940820612F86E66C
:101EA00096E00E94BF1F86E696E00E94912042E0E5
:101EB000688186E696E00E948B2086E696E00E9486
:101EC0006B1FD82F80E0C82F86E696E00E946B1F1C
:101ED0008C2B9D2BDF91CF911F910895CF93DF9392
:101EE000EC01688386E696E00E94FE1F66E0CE0164
:101EF0000E94440F8435910511F080E00EC067E028
:101F0000CE010E94440F81159440B9F740E050E0A3
:101F100061E0CE010E941B0F81E0DF91CF91089517
:101F2000CF93DF9365E00E94440FEC01BC017F700A
:101F300080E090E00E94722C20E030E040E85DE319
:101F40000E94002DD4FF06C020E030E040E853E4BA
:101F50000E94642BDF91CF9108958FEF9FEF9093B4
:101F6000CF058093CE0508951F920F920FB60F9262
:101F700011240F900FBE0F901F901895A8950895EB
:101F8000DA01F90160348FE178071CF461157105FD
:101F900039F489E090E08D939C9380E49FE158C0F0
:101FA000603A8FE078073CF088E090E08D939C9356
:101FB00080EA9FE04DC0603D87E078073CF087E015
:101FC00090E08D939C9380ED97E042C0683E83E063
:101FD00078073CF086E090E08D939C9388EE93E048
:101FE00037C0643F81E078073CF085E090E08D9356
:101FF0009C9384EF91E02CC06A3F71053CF084E033
:1020000090E08D939C938AEF90E022C06837710531
:102010003CF083E090E08D939C9388E790E018C0BB
:102020006C3371053CF082E090E08D939C938CE3DF
:1020300090E00EC06E3171053CF081E090E08D9330
:102040009C938EE190E004C01D921C928FE090E082
:102050009183808308950F931F93CF93DF9300D0D4
:10206000CDB7DEB78C019E012F5F3F4FAC010E94C0
:10207000C00FF801808183FD02C098E001C098E2A2
:102080008770892B98E10FB6F894A895909360001B
:102090000FBE8093600089819A810F900F90DF912D
:1020A000CF911F910F910895DC01ED91FC91048C6B
:1020B000F58DE02D09942AE134E0FC013183208381
:1020C000FB014089518962897389FC0142835383F2
:1020D000648375830895FC01848995890895FC01C2
:1020E000818D928D0895CF93DF931F92CDB7DEB788
:1020F0006983DC01ED91FC910280F381E02D41E0E8
:1021000050E0BE016F5F7F4F09950F90DF91CF9137
:1021100008950895CF93DF93EC01888D843061F0AA
:102120000E940A16E88DF0E0EE0FFF1FE25BF94F08
:102130001182108284E0888FDF91CF910895FC0195
:10214000178A168A6E5F7F4F808D0C948817FC016A
:10215000808D0C94CE17CF93DF93EC019A018E897A
:102160009F89AB01BC01888D0E9441172E893F8950
:10217000280F391F3F8B2E8BDF91CF9108950F933E
:102180001F93CF93DF931F92CDB7DEB7FC01218D54
:10219000328D232B61F08C0141E050E0BE016F5F76
:1021A0007F4F808D0E948716181619061CF08FEF3E
:1021B0009FEF08C0F801818D928D0197928F818FDA
:1021C000898190E00F90DF91CF911F910F91089539
:1021D000CF93DF93FC01218D328D2115310519F448
:1021E0008FEF9FEF11C0EC014217530708F0A901D0
:1021F000888D0E9487161816190694F7298D3A8D36
:10220000281B390B3A8F298FDF91CF910895CF93F7
:10221000DF931F92CDB7DEB7FC01218D328D232BCA
:1022200049F0BE016F5F7F4F808D0E941217898138
:1022300090E002C08FEF9FEF0F90DF91CF91089554
:10224000EF92FF921F93CF93DF93FC01208D2430F8
:1022500011F080E01CC07B01EC0110E0812F0E9496
:10226000E215811102C0188F05C08831E1F31F5FAC
:102270001430A1F7888D843061F3FD86EC861A8EC8
:10228000198E20E0A70162E00E94341681E0DF9100
:10229000CF911F91FF90EF9008950F931F93CF93CD
:1022A000DF93CDB7DEB728970FB6F894DEBF0FBE29
:1022B000CDBF8C01F801818D928D892B49F0D80119
:1022C000ED91FC910284F385E02DC8010995F2CFD0
:1022D000808D0E94E7161816190654F548E050E064
:1022E000BE016F5F7F4FD80158968C910E94871670
:1022F0009C0118161906D4F4BE016F5F7F4FC80108
:102300000E960E94D80C8D8190E0982F88272E8100
:10231000820F911DF801958B848B2F8130E0322F35
:1023200022278885280F311D328F218FC90102C0D5
:1023300080E090E028960FB6F894DEBF0FBECDBFC8
:10234000DF91CF911F910F9108958F929F92AF923D
:10235000BF92CF92DF92EF92FF920F931F93CF9392
:10236000DF9300D000D000D0CDB7DEB7FC01208DC8
:10237000243009F068C06A017B018C0153E0852E8E
:1023800054E0952EA12CB12CC4010E948813811118
:1023900003C0F801A08E0AC08831D9F3FFEFAF1A4D
:1023A000BF0A9394E4E0AE16B10471F7F801808D92
:1023B000843009F448C096E0E6E1F1E0DE011196D0
:1023C00001900D929A95E1F7F70193819F779C8395
:1023D00094819D8395819E83B7016E5F7F4F90E0CE
:1023E000982F882744E050E0845F9B4F0E94591348
:1023F000F801E08CF12CF4E0EF0EF11CFE2CEE2441
:102400006D2DC70140960E94C5126C2DC7014196E3
:102410000E94C512F801808D90E0982F882746E031
:1024200050E0BE016F5F7F4F8A5F9B4F0E94591340
:10243000F801128E118E20E8A60162E0808D0E94C4
:10244000341681E001C080E026960FB6F894DEBF16
:102450000FBECDBFDF91CF911F910F91FF90EF90F5
:10246000DF90CF90BF90AF909F908F900895CF93C3
:10247000DF93EC011B821A8288EE93E0A0E0B0E0CB
:102480008C839D83AE83BF8380E294E099838883AD
:10249000CE010E960E94B20C84E0888FDF91CF911E
:1024A0000895CF92DF92EF92FF920F931F93CF93F5
:1024B000DF93CDB7DEB7AF970FB6F894DEBF0FBE90
:1024C000CDBF8C016B017A01CE0101960E94B20C46
:1024D000CE0109960E943712CE018A960E94B20C54
:1024E00068EE75E0CE0184960E944F19BE016C5DC6
:1024F0007F4FCE0101960E947119AE01465D5F4F7C
:10250000B601CE0101960E94E01B81309105C1F415
:10251000D801ED91FC910488F589E02D8AE194E0E1
:102520009DA38CA38CA59DA5AEA5BFA58EA39FA39F
:10253000A8A7B9A7A701BE016C5D7F4FC801099587
:10254000AF960FB6F894DEBF0FBECDBFDF91CF912F
:102550001F910F91FF90EF90DF90CF9008950F9310
:1025600000E020E040E060E080ED95E00E94BC0CDF
:102570000F9108958EBD00000DB407FEFDCF8EB5FE
:1025800008952A9808952A9A08951F93CF93DF9368
:1025900000D0CDB7DEB7182F6A8399830E94C1128D
:1025A00080EF0E94BA129981892F0E94BA12812F5E
:1025B0000E94BA126A81862F0E94BA120E94C31228
:1025C00081E00F900F90DF91CF911F910895CF93ED
:1025D000DF93EC016CE271E080E090E00E94500833
:1025E0000E946E1C229A80916406882399F02FB76E
:1025F000F89480916406813059F48DB3809362061B
:102600009DB380916306809589238DBB2FBF02C047
:102610002093620680E58CBD1DBC60E880E090E000
:102620000E94C51265E58BE190E00E94C51265E548
:102630008AE190E00E94C51280916406882351F0DF
:102640009FB7F8942091640680916206213029F5A5
:102650008DBB9FBF80E090E49983888380E090E603
:102660009987888780E098E49B838A8380E098E656
:102670009B878A8780E090E59D838C8380E090E74C
:102680009D878C8780E098E59F838E8380E098E724
:102690009F878E87DF91CF9108958FBFDBCF9B01FE
:1026A00090E00496982F8827642F820F931F0C9434
:1026B000C512CF92DF92EF92FF920F931F93CF93A9
:1026C000DF93EC017A018B016C01C40ED51ECC1591
:1026D000DD05A1F00E94C11280EF0E94BA128D2F79
:1026E0000E94BA128C2F0E94BA122196F801819191
:1026F0008F010E94BA120E94C312E9CFC701DF9175
:10270000CF911F910F91FF90EF90DF90CF900895A0
:102710001F93CF93DF931F92CDB7DEB7182F998306
:102720000E94C1128FE00E94BA129981892F0E94E3
:10273000BA12812F0E94BA1280E00E94BA128983D5
:102740000E94C31289810F90DF91CF911F9108954C
:1027500090E00496982F8827860F971F0C94881373
:102760001F93CF93DF93182F60E270E00E94A813AD
:10277000C82FD0E061E270E0812F0E94A813DC2F07
:10278000CC279E01282BC901DF91CF911F9108957D
:10279000FF920F931F93CF93DF93F62EC0E0D0E00C
:1027A0008F2D0E94B0138C01892B21F08F2D0E9458
:1027B000B013EC01C017D10799F7CE01DF91CF918B
:1027C0001F910F91FF9008951F93CF93DF93182FC0
:1027D00066E270E00E94A813C82FD0E067E270E0C4
:1027E000812F0E94A813DC2FCC279E01282BC90122
:1027F000DF91CF911F910895FF920F931F93CF9375
:10280000DF93F62EC0E0D0E08F2D0E94E4138C0100
:10281000892B21F08F2D0E94E413EC01C017D10702
:1028200099F7CE01DF91CF911F910F91FF900895FD
:102830006F927F928F929F92AF92BF92CF92DF92D0
:10284000EF92FF920F931F93CF93DF931F92CDB719
:10285000DEB7882E962E6A01590164E270E0892D58
:1028600099830E94A813E82EF12C65E270E0892D6F
:102870000E94A813FE2CEE24E82A37016C0C7D1C64
:10288000A3015770E82C9981F92EE90CF11CE90C91
:10289000F11CF70180819181840F951F9A01200F0F
:1028A000311F2130384098F060E078E06B01C41AA5
:1028B000D50AA601B5010E945913A8014C195D095A
:1028C000B5016C0D7D1DF7018081918102C0A801C9
:1028D000B5010E945913060D171D412F64E270E0E7
:1028E000892D0E944F13402F65E270E0892D0F90D3
:1028F000DF91CF911F910F91FF90EF90DF90CF90DC
:10290000BF90AF909F908F907F906F900C944F13DB
:10291000CF92DF92EF92FF920F931F93CF93DF93AB
:10292000EC017A018B016C01C40ED51ECC15DD05BE
:10293000A9F00E94C1128FE00E94BA128D2F0E944E
:10294000BA128C2F0E94BA12219680E00E94BA120D
:10295000F80181938F010E94C312E8CFC701DF9174
:10296000CF911F910F91FF90EF90DF90CF9008953E
:10297000AF92BF92CF92DF92EF92FF920F931F938D
:10298000CF93DF9300D0CDB7DEB75A834983590187
:1029900029813A8137706C01C60ED11CC60ED11C3C
:1029A000F60180859185820F931FA801420F531F66
:1029B0004130584098F0E0E0F8E07F01E21AF30A75
:1029C000A701B5010E948814A8014E195F09B5013D
:1029D0006E0D7F1DF6018085918502C0A801B501AD
:1029E0000F900F90DF91CF911F910F91FF90EF907B
:1029F000DF90CF90BF90AF900C9488148F929F92ED
:102A0000AF92BF92CF92DF92EF92FF920F931F93FC
:102A1000CF93DF936C01962E5A017901802E68E2E4
:102A200070E0892D0E94A813C82FD0E069E270E001
:102A3000892D0E94A813DC2FCC27C82B8701950174
:102A4000AE01692DC6010E94B81481101AC0CE0DC6
:102A5000DF1D4D2F68E270E0892D0E944F134C2F2F
:102A600069E270E0892DDF91CF911F910F91FF9066
:102A7000EF90DF90CF90BF90AF909F908F900C948D
:102A80004F13DF91CF911F910F91FF90EF90DF9047
:102A9000CF90BF90AF909F908F900895CF93C62F07
:102AA00061E070E08C2F0E944F1361E070E08C2F8A
:102AB0000E94A8138111F9CFCF9108950F93FC01C3
:102AC00030E080E092E1AAE7B0E0481759076A07D2
:102AD0007B0740F4B695A795979587953F5F36306D
:102AE000A1F737E091E09327222311F020E501C000
:102AF00020E7892F86950C70082B022B008391709C
:102B000091830F91089520916406222399F04FB785
:102B1000F89420916406213059F42DB32093620675
:102B20003DB320916306209523232DBB4FBF02C0E8
:102B3000409362068CBD9DBD0895809164068823F4
:102B400061F09FB7F894209164068091620621306D
:102B500019F48DBB9FBF08958FBF089590E0982F03
:102B6000882744E050E0845F9B4F0C94591362E047
:102B700070E00C94A813CF93DF93C82FD62F472F64
:102B800064E070E00E944F134D2F65E070E08C2FE1
:102B9000DF91CF910C944F13462F62E070E00C94BC
:102BA0004F13CF93DF93C82FD62F472F60E170E0EC
:102BB0000E944F134D2F61E170E08C2FDF91CF9178
:102BC0000C944F130F931F93CF93DF9300D01F925A
:102BD000CDB7DEB7182F00E021E040E059E06DE30B
:102BE00070E0CE0101960E945E1589819A810E9453
:102BF000831563E070E0812F0E94A8138B830E94ED
:102C00009D158B810F900F900F90DF91CF911F91A9
:102C10000F9108950F931F93CF93DF9300D0CDB7FB
:102C2000DEB7182F00E021E040E059E06DE370E0EE
:102C3000CE0101960E945E1589819A810E948315BA
:102C400040E150E0612F86ED95E00E944E156FEF58
:102C5000812F0E94CC150E949D150F900F90DF913F
:102C6000CF911F910F910895CF92DF92EF92FF9233
:102C70000F931F93CF93DF9300D0CDB7DEB79FEFB5
:102C8000960F9530C0F5F22E6A01E62E182F0E949D
:102C90000A1600E021E040E059E06DE370E0CE016B
:102CA00001960E945E1589819A810E9483154E2D9E
:102CB0004F2960E070E0812F0E944F13C114D104AE
:102CC00011F0B6010AC06091E6057091E7056F5FEB
:102CD0007F4F7093E7056093E605812F0E94BB1537
:102CE00041E050E0612F86ED95E00E944E150E9474
:102CF0009D1581E001C080E00F900F90DF91CF9192
:102D00001F910F91FF90EF90DF90CF900895AF92B9
:102D1000BF92CF92DF92EF92FF920F931F93CF93C8
:102D2000DF9300D0CDB7DEB7182F5B016A0100E05A
:102D300021E040E059E06DE370E0CE0101960E9491
:102D40005E1589819A810E948315612F86ED95E039
:102D50000E94FC137C010097A1F463E070E0812FD6
:102D60000E94A813843119F1882309F121E030E091
:102D70008C3111F420E030E0EE24FF24E21AF30A53
:102D800016C0C816D9060CF476011E141F047CF474
:102D900000E09701A501612F86ED95E00E94FE14E9
:102DA00040E450E0612F86ED95E00E944E150E94B0
:102DB0009D15C7010F900F90DF91CF911F910F913B
:102DC000FF90EF90DF90CF90BF90AF9008950F935A
:102DD0001F93CF93DF9300D000D0CDB7DEB7182F6D
:102DE00000E021E040E059E06DE370E0CE010196A3
:102DF0000E945E1589819A810E948315612F86ED5C
:102E000095E00E94FC138B839C830E949D158B810F
:102E10009C810F900F900F900F90DF91CF911F9199
:102E20000F910895EF92FF920F931F93CF93DF932B
:102E300000D0CDB7DEB7182F7B0100E021E040E0E5
:102E400059E06DE370E0CE0101960E945E15898124
:102E50009A810E94831501E021E030E0A701612FF3
:102E600086ED95E00E94FE140E949D1581E090E0A1
:102E70000F900F90DF91CF911F910F91FF90EF90E6
:102E800008958F929F92AF92BF92DF92EF92FF923E
:102E90000F931F93CF93DF9300D0CDB7DEB7D82E1B
:102EA0005B014A01790100E021E040E059E06DE377
:102EB00070E0CE0101960E945E1589819A810E9480
:102EC00083156D2D86ED95E00E94C8138E159F0524
:102ED00030F46D2D86ED95E00E94C8137C018701CA
:102EE0009401A5016D2D86ED95E00E9418140E94B5
:102EF0009D15C7010F900F90DF91CF911F910F91FA
:102F0000FF90EF90DF90BF90AF909F908F900895CB
:102F1000CF92DF92EF92FF920F931F93CF93DF93A5
:102F200000D0CDB7DEB7FB019081911109C091812E
:102F3000911106C09281911103C09381992309F1E7
:102F400041155105F1F06A017F01182F00E021E0E1
:102F500040E059E06DE370E0CE0101960E945E15FD
:102F600089819A810E948315B701812F0E94AE1535
:102F7000B601812F0E94D1150E949D1581E090E03D
:102F800002C080E090E00F900F90DF91CF911F91F1
:102F90000F91FF90EF90DF90CF9008950F931F93C4
:102FA000CF93DF9300D0CDB7DEB7182F00E021E03C
:102FB00040E059E06DE370E0CE0101960E945E159D
:102FC00089819A810E94831540E250E0612F86ED4D
:102FD00095E00E944E15812F0E94B71584FD21C0F7
:102FE000812F0E94B71583FF09C068E1812F0E94DD
:102FF000CC150E949D1580E090E01BC00E949D159D
:103000000E94C70800E021E040E059E06DE370E075
:10301000CE0101960E945E1589819A810E948315D6
:10302000DACF60E1812F0E94CC150E949D1581E0CE
:1030300090E00F900F90DF91CF911F910F91089525
:1030400044E050E0BC0181E090E00C94591344E06E
:1030500050E0BC0185E090E00C94591344E050E04E
:10306000BC018FE090E00C9459132F923F924F9245
:103070005F926F927F928F929F92AF92BF92CF9208
:10308000DF92EF92FF920F931F93CF93DF9300D0C5
:1030900000D000D0CDB7DEB76C011B0129013A0189
:1030A0004701580180EF95E0F6019783868386ED0E
:1030B00095E00E94E71280E590E00E94831546E0CB
:1030C00050E0B10189E090E00E94591300E020E057
:1030D00040E060E0CE0101960E94BC0CCE01039658
:1030E0000E942E180E949D1585017401A301920172
:1030F000B101F601868197810E94D1278C01019749
:10310000B9F580E590E00E948315F601668177812C
:10311000CE0101960E940B23CE0103960E942E1829
:10312000F60166817781CE0101960E942123CE01AE
:1031300003960E942018F60166817781CE010196E0
:103140000E941623CE0103960E9427180E949D1507
:10315000F60166817781CE0101960E942C238B8136
:103160009C81AD81BE81F60182839383A483B58364
:10317000C80126960FB6F894DEBF0FBECDBFDF9113
:10318000CF911F910F91FF90EF90DF90CF90BF9064
:10319000AF909F908F907F906F905F904F903F90F7
:1031A0002F900895EF92FF920F931F93CF93DF9389
:1031B00000D000D000D0CDB7DEB7FC01268137812A
:1031C0002115310509F443C08C01C9010E94102862
:1031D0007C01029721F084E0E816F104D1F580E546
:1031E00090E00E948315F80166817781CE010196F7
:1031F0000E940B23CE0103960E942E18F8016681CF
:103200007781CE0101960E942123CE0103960E9470
:103210002018F80166817781CE0101960E9416235D
:10322000CE0103960E9427180E949D15F801668121
:103230007781CE0101960E942C238B819C81AD81E8
:10324000BE81F80182839383A483B58302C0E12CFD
:10325000F12CC70126960FB6F894DEBF0FBECDBF86
:10326000DF91CF911F910F91FF90EF900895CF9331
:10327000DF93EC010E94B20C80E590E00E94831580
:10328000BE016E5F7F4F44E050E08FE090E00E940F
:1032900088140E949D15CE01DF91CF9108952AE1F7
:1032A00034E0FC0131832083FB014281538164813E
:1032B0007581FC01428353836483758308950F9362
:1032C00000E020E040E060E086E596E00E94BC0C73
:1032D00083E396E00E94371288EE95E00F910C94FC
:1032E000B20CFB014281538164817581FC014283F0
:1032F000538364837583178216820895CF93DF9377
:10330000FB0120E080E090E0AAE03191332301F15D
:1033100060ED630F6A3080F4A89FB001A99F700D23
:103320001124CB01C097830F911D37FD9A958F3FD4
:10333000910559F350F313C03E3289F4233079F0EC
:10334000EA01C20FD11D8A832F5F80E090E0DDCFBC
:10335000233029F4FA01858381E090E002C080E007
:1033600090E0DF91CF9108950F9300E020E040E0DE
:1033700060E08CE596E00E94BC0C0F9108958F925E
:103380009F92AF92BF92CF92DF92EF92FF920F93F4
:103390001F93CF93DF9300D000D01F92CDB7DEB73D
:1033A0008C016B010E941F08F801778366837627E2
:1033B000672776277A836983085F1F4F42E050E0D2
:1033C000BE016F5F7F4FC8010E94AB1081E090E0AB
:1033D0009C838B8342E050E0BE016D5F7F4FC8014C
:1033E0000E94AB1080E091E09C838B8342E050E030
:1033F000BE016D5F7F4FC8010E94AB101C821B8213
:1034000042E050E0BE016D5F7F4FC8010E94AB10EB
:1034100042E050E0BE016D5F7F4FC8010E94AB10DB
:1034200042E050E0BE016D5F7F4FC8010E94AB10CB
:103430005601F5018081882329F1C6017C01FC0138
:1034400020810196211116C0570147018C189D0853
:103450001814190494F48D8241E050E0BE016B5FB2
:103460007F4FC8010E94AB10A401B601C8010E94A1
:10347000AB1003C02E3211F7E7CF6701FFEFCF1A71
:10348000DF0AD7CF1D8241E050E0BE016B5F7F4F66
:10349000C8010E94AB10E12CFF24F394FC82EB8264
:1034A00042E050E0BE016D5F7F4FC8010E94AB104B
:1034B000FC82EB8242E050E0BE016D5F7F4FC801AD
:1034C0000E94AB1081E090E00F900F900F900F9052
:1034D0000F90DF91CF911F910F91FF90EF90DF90B0
:1034E000CF90BF90AF909F908F9008954F925F9232
:1034F0006F927F928F929F92AF92BF92CF92DF9204
:10350000EF92FF920F931F93CF93DF93CDB7DEB768
:1035100065970FB6F894DEBF0FBECDBF7C015B018F
:103520006A010E941F082B013C018701085F1F4FA1
:103530004501A12CB12CC8010E944D111816190685
:10354000A4F00E941F08DC01CB0184199509A6098B
:10355000B70988169906AA06BB06D0F062E370E0A8
:1035600080E090E00E945008E6CFF701428153814D
:1035700064817581808D918DA28DB38D4817590717
:103580006A077B0741F4848D958DC59721F406C0A9
:103590002FEF3FEFFDC02EEF3FEFFAC0C8010E94B2
:1035A0006F100C97ECF04CE050E0BE016F5F7F4F66
:1035B000C8010E94E8106C818B810E94FF229A8BC7
:1035C000898BF701E680F7806A8189810E94FF225A
:1035D000E816F90641F489899A8997FF04C009C061
:1035E0002DEF3FEFD5C0C8010E9489102CEF3FEFAF
:1035F000CFC08F709270892B31F0C8010E94891062
:103600002BEF3FEFC5C068858F810E94FF225C01D0
:10361000892B31F4C8010E9489102AEF3FEFB8C00E
:10362000E12CF12C6E818D810E94FF22E816F906B3
:1036300040F541E050E0BE01635F7F4FC8010E944A
:10364000E8108D85811113C08D858111F2CFC801DD
:103650000E94BF10C8010E94BF10C8010E94BF1085
:10366000C8010E94BF10FFEFEF1AFF0ADBCF8D8564
:103670009FEF980F9D87882339F3C8010E94BF10E0
:10368000F6CFE12CF12C41E050E0BE016D5E7F4FA2
:10369000C8010E94E8108B89982F907C61F48823E0
:1036A00071F08B899FEF980F9B8B882341F0C801A5
:1036B0000E94BF10F6CFC8010E94BF101B8A8B89E1
:1036C0008111E1CF42E050E0BE01615F7F4FC80150
:1036D0000E94E81042E050E0BE01635F7F4FC801E6
:1036E0000E94E810C8010E94BF10C8010E94BF10CC
:1036F000C8010E94BF10C8010E94BF1042E050E004
:10370000BE016F5E7F4FC8010E94E8108F859889C7
:103710008115914001F52D853E85322723273227DB
:1037200021303105C1F489899A898115944031F09D
:10373000C8010E94891027EF3FEF2AC0B6016E5FD3
:103740007F4F44E050E0C8012C8B3D8B0E94E81075
:103750002C893D891DC0812C912C89899A899827B3
:10376000892798278816990638F4C8010E94BF1047
:103770008FEF881A980AF1CFEFEFEE1AFE0AEA14DB
:10378000FB0409F080CFC8010E94891026EF3FEFAB
:10379000C90165960FB6F894DEBF0FBECDBFDF91AD
:1037A000CF911F910F91FF90EF90DF90CF90BF903E
:1037B000AF909F908F907F906F905F904F90089503
:1037C0008F929F92AF92BF92CF92DF92EF92FF9231
:1037D0000F931F93CF93DF9300D000D000D0CDB7CD
:1037E000DEB77C014B015A010E947E198C01892BA6
:1037F00009F05BC0F701428153816481758180913A
:103800005E0690915F06A0916006B0916106481730
:1038100059076A077B0709F44BC00E941F0867011C
:10382000F8E0CF0ED11C6F7077277C5FC6010E9435
:103830002011813009F03EC08AE194E09A838983A7
:10384000F70182819381A481B5818B839C83AD83B1
:10385000BE8345E350E0BE016F5F7F4FC6010E940B
:103860009F10892B19F400E010E01BC0B401C701C0
:103870000E94BF19892BB9F3C6010E94A710892B9A
:1038800091F383E0882E912CA50168E873E1C701CC
:103890000E94761A8C01F1E08F1A910811F00196BE
:1038A00099F3C6010E948A1005C001E010E002C031
:1038B0000EEF1FEFC80126960FB6F894DEBF0FBEBD
:1038C000CDBFDF91CF911F910F91FF90EF90DF90CF
:1038D000CF90BF90AF909F908F900895CF93CFB728
:1038E000F89480916506811127C0EAE9F0E084919F
:1038F000E6E8F0E09491E82FF0E0EE0FFF1FE255CC
:10390000FF4FA591B491EC91E92321F461E08AE0A5
:103910000E942D0961E08AE00E94F1088CB5806167
:103920008CBD8CB580648CBD61E08DE00E94F10897
:1039300061E08BE00E94F108809165068F5F8093C3
:103940006506CFBFCF910895FC01148215821682BF
:10395000178208951F93CF93DF931F92CDB7DEB7E1
:10396000162FFC01608186E696E049830E940820BC
:10397000612F86E696E00E94BF1F4981642F86E68C
:1039800096E00E94BF1F86E696E00F90DF91CF91F0
:103990001F910C9491201F93CF93DF9300D0CDB74C
:1039A000DEB7162FFC01608186E696E04A835983D4
:1039B0000E940820612F86E696E00E94BF1F598171
:1039C000652F86E696E00E94BF1F4A81642F86E637
:1039D00096E00E94BF1F86E696E00F900F90DF9161
:1039E000CF911F910C9491201F93CF93DF93EC0103
:1039F000162F688186E696E00E940820612F86E6F1
:103A000096E00E94BF1F86E696E00E94912041E06A
:103A1000688186E696E00E948B20C8EED3E086E6B9
:103A200096E00E94631F1816190634F0209711F0D3
:103A30002197F5CF80E006C0CD2BE1F386E696E036
:103A40000E946B1FDF91CF911F9108950F93CF9329
:103A5000DF93EC01637041704295407F2F70422BE1
:103A60006295660F607E462B6EE10E94AA1C0023C1
:103A700021F0083018F007E001C001E08FEF800F5F
:103A800061E070E002C0660F771F8A95E2F7072EAB
:103A9000000C880B990B0E94742C9B01AC0160E018
:103AA00074E284EF99E40E94D12B0E94432C6C8332
:103AB0007D838E839F836FE1CE010E94F41C8F78FB
:103AC0000295007F482F402B6FE1CE01DF91CF910F
:103AD0000F910C94AA1C1F93CF93DF93EC01162F28
:103AE000688186E696E00E940820612F86E696E0CF
:103AF0000E94BF1F86E696E00E94912042E0688106
:103B000086E696E00E948B20C0EDD7E086E696E040
:103B10000E94631F02973CF4209711F02197F6CF83
:103B200080E090E011C0CD2BD9F386E696E00E94AC
:103B30006B1FC82F86E696E00E946B1F20E030E0E6
:103B40003C2FA901482BCA01DF91CF911F91089505
:103B5000CF92DF92EF92FF920F931F93CF93DF9359
:103B60008C01D62FF42E6EE00E946B1D41E050E0D8
:103B70009A0102C0220F331FDA95E2F7E90180951E
:103B8000909582239323892B89F060E1C8010E94DC
:103B90006B1DFF2021F0AC014C2B5D2B05C0C095A7
:103BA000D095AC014C235D2360E125C066E0C801DF
:103BB0000E946B1D6C0168E0C8010E946B1D9E0194
:103BC00020953095FF2061F07C01E222F322A601CE
:103BD0004C2B5D2B66E0C8010E94CB1CA7010AC0DC
:103BE000C82BD92BA6014223532366E0C8010E94AB
:103BF000CB1CAE0168E0C801DF91CF911F910F91FE
:103C0000FF90EF90DF90CF900C94CB1C0C94A81DEC
:103C1000FF920F931F93CF93DF938C01F62E6EE0EC
:103C20000E946B1DC1E0D0E002C0CC0FDD1FFA94F2
:103C3000E2F78C239D23892B49F060E1C8010E94A3
:103C40006B1DC823D92381E0CD2B09F480E0DF91DF
:103C5000CF911F910F91FF9008950C94081ECF9261
:103C6000DF92EF92FF920F931F93CF93DF931F92F8
:103C7000CDB7DEB76C01162F60E029830E946B1D63
:103C800041E050E0BA0102C0660F771F1A95E2F7D3
:103C90008B01AC01462B572B60E0C6010E94CB1C68
:103CA00066E0C6010E946B1D7801E094F094AC01BF
:103CB0004E215F2166E0C6010E94CB1C6EE0C6016A
:103CC0000E946B1DAC014E215F216EE0C6010E9477
:103CD000CB1C6EE1C6010E94F41C8F7D482F40640E
:103CE0006EE1C6010E94AA1C6FE1C6010E94F41C8D
:103CF0002981482F222311F0486801C04777F60137
:103D000084819581A681B781892B8A2B8B2B49F4DD
:103D100080E894E8AEE1B0E084839583A683B7831E
:103D200040616FE1C6010E94AA1C60E2C6010E94C8
:103D30006B1DAC01402B512B60E2C6010E94CB1CD5
:103D400060E1C6010E946B1DAC014E215F2160E164
:103D5000C6010F90DF91CF911F910F91FF90EF90CF
:103D6000DF90CF900C94CB1C0F931F93CF93DF93D6
:103D7000EC01162F042F6EE00E946B1D9C01802F1A
:103D80008D7F813059F041E050E0012E02C0440F98
:103D9000551F0A94E2F7422B532B0DC0E1E0F0E0EF
:103DA000012E02C0EE0FFF1F0A94E2F7E095F09596
:103DB000A9014E235F236EE0CE010E94CB1C02308E
:103DC00049F441E0612FCE01DF91CF911F910F9116
:103DD0000C94A81D033051F420E041E0612FCE0186
:103DE000DF91CF911F910F910C942F1EDF91CF91F6
:103DF0001F910F9108950C94B41ECF93DF93EC01A3
:103E00006FE10E94F41C82FF06C0482F4B7F6FE1D8
:103E1000CE010E94AA1C41E06B81CE010E94B41E1B
:103E200040E06B81CE010E94A81D61E070E080E05F
:103E300090E00E94500841E06B81CE01DF91CF916C
:103E40000C94A81DCF93DF93662321F0DF91CF91CF
:103E50000C94FD1EEC0142E16DE70E94AA1C44E3B4
:103E60006DE7CE01DF91CF910C94AA1C0F93CF93F5
:103E7000DF93EC0186E696E00E94FE1F8B818F3F68
:103E800021F0CE010E94FD1E04C060E0CE010E9420
:103E9000221F63E1CE010E946B1D81159F4F49F4E3
:103EA00001E020E040E062E0CE010E94261D81E0BA
:103EB00001C080E0DF91CF910F910895FC016083F4
:103EC00043830C94361F8091960690E020919706CC
:103ED000821B9109089590919706809196069817F4
:103EE00050F4E92FF0E0E856F94F208130E09F5F71
:103EF0009093970602C02FEF3FEFC9010895E0911C
:103F0000970680919606E81730F4F0E0E856F94FEE
:103F1000808190E008958FEF9FEF08950895CF92EC
:103F2000DF92EF92FF920F931F93CF93DF937C0169
:103F3000262F972F8A0180917206882391F0C62F31
:103F4000D72F6E01C40ED51ECC15DD0571F0699119
:103F5000D701ED91FC910190F081E02DC701099509
:103F6000F3CF642F822F0E945421C801DF91CF919B
:103F70001F910F91FF90EF90DF90CF900895CF9316
:103F8000DF931F92CDB7DEB769832091720622239B
:103F9000D1F020917306203240F021E030E0FC01A6
:103FA0003383228380E090E015C080917406E82F6F
:103FB000F0E0EB58F94F998190838F5F80937406FE
:103FC0008093730605C061E0CE0101960E945421E2
:103FD00081E090E00F90DF91CF910895FC01138272
:103FE000128288EE93E0A0E0B0E084839583A683FC
:103FF000B78388E494E091838083089510929706B4
:104000001092960610927406109273060C949820E3
:1040100081E0809372066093950610927406109268
:10402000730608950C9408200F93062F21E0409109
:10403000730665E776E0809195060E94FE20109257
:10404000740610927306109272060F9108954F92A3
:104050005F926F927F92AF92BF92CF92EF92FF9258
:104060000F931F93CF93DF935C01F62ED42F28017B
:104070003901EE2021F10E940820CE2DC43008F035
:10408000C3E0C150C0F0D501ED91FC91B8E0CB9FE9
:10409000C0011124A301920104C05695479537959C
:1040A00027958A95D2F7CA01B9010190F081E02DD8
:1040B000C5010995E6CF60E0C5010E9414204D2F8F
:1040C000D13208F040E22C2D68E976E08F2D0E9475
:1040D000B6201092970680939606DF91CF911F919C
:1040E0000F91FF90EF90CF90BF90AF907F906F9027
:1040F0005F904F900895CF92EF920F931F93C22E2F
:10410000E12C00E010E098010E9427201F910F9100
:10411000EF90CF90089521E00C947B2021E00C9447
:104120007B2061E00C94142086E696E00C94EE1F50
:104130001092250781E0809323071092220761E007
:1041400082E10E942D0961E083E10E942D09E9EBE3
:10415000F0E080818E7F808380818D7F808388E402
:104160008093B80085E48093BC000895413208F044
:1041700043C0909125079111FCCF91E090932507C2
:10418000209323072FEF2093B8061092FD06240FEB
:104190002093FC069093240790912407880F892B85
:1041A0008093240780912207813061F410922207C6
:1041B000809124078093BB008091BC0083FDF8CFE1
:1041C00085EC01C085EE8093BC008091250781308D
:1041D000E1F38091FD06841710F44091FD062EEF67
:1041E00036E0FB01D9018A2F821B841718F48D91C8
:1041F0008193F9CF842F089580E008950F93413281
:1042000008F04AC0909125079111FCCF32E030931D
:104210002507009323073FEF3093B8061092FD0661
:104220004093FC06FB016EEF76E0DB013A2F361B74
:10423000341718F431913D93F9CF1092240730913F
:104240002407880F832B80932407809122078130D5
:1042500061F410922207809124078093BB00809123
:10426000BC0083FDF8CF85EC01C085EE8093BC00D7
:10427000222321F0809125078230D1F38091B80666
:104280008F3F79F08091B806803241F08091B80676
:10429000803331F094E005C091E003C092E001C0AA
:1042A00093E0892F0F9108954091DA06262F30E090
:1042B000240F311D21323105DCF4209125072430F3
:1042C000C9F4FC0180E090E0861758F43091DA06DA
:1042D0002191DC01A452B94FA30FB11D2C9301967B
:1042E000F3CF8091DA06680F6093DA0680E00895D4
:1042F00081E0089582E0089585ED8093BC0080916F
:10430000BC0084FDFCCF10922507089585EC8093B6
:10431000BC001092250708951F920F920FB60F92BE
:1043200011242F933F934F935F936F937F938F93BA
:104330009F93AF93BF93EF93FF938091B900887FD2
:10434000803609F49EC078F5883209F45DC090F497
:10435000803109F456C038F4882309F4F5C0883058
:1043600009F44FC0F5C0883109F44EC0803209F419
:104370005FC0EEC0803409F46AC058F4803309F499
:1043800057C0883309F0E4C08093B8060E948621A4
:10439000DFC0803509F44FC0883509F45DC088342A
:1043A00009F0D6C0D3C0883909F4C4C0A8F488374E
:1043B00009F467C038F4883609F463C0803709F41B
:1043C00060C0C6C0883809F4B5C0803909F45FC040
:1043D000803809F0BDC05BC0803B09F483C038F46D
:1043E000803A09F466C0883A09F47CC0B1C0803CC8
:1043F00009F4A4C0883C09F4A1C0883B09F487C033
:10440000A7C08091240710C09091FD068091FC0602
:10441000981770F5E091FD0681E08E0F8093FD0600
:10442000F0E0E250F94F80818093BB0085EC83C0BF
:104430008093B8068BC0E091FD0681E08E0F8093DB
:10444000FD068091BB00F0E0E250F94F808390912F
:10445000FD068091FC066BC0E091FD0681E08E0FA9
:104460008093FD068091BB00F0E0E250F94F80831D
:104470008091230781116AC081E08093220784EA3A
:104480005EC083E0809325071092B906CFCF80915C
:10449000B906803208F04EC0E091B90681E08E0F77
:1044A0008093B9068091BB00F0E0E654F94F808319
:1044B000BDCF0E9486218091B906803230F4E09110
:1044C000B906F0E0E654F94F10826091B90670E049
:1044D000E0911E07F0911F078AEB96E00995109274
:1044E000B90636C084E0809325071092DB0610924F
:1044F000DA06E0912007F091210709958091DA060C
:10450000811105C081E08093DA061092DC06E0910B
:10451000DB0681E08E0F8093DB06F0E0E452F94F7A
:1045200080818093BB009091DB068091DA0698171A
:1045300008F47CCF85E88093BC000AC085EC8093AA
:10454000BC001092250704C01092B8060E947C217E
:10455000FF91EF91BF91AF919F918F917F916F915B
:104560005F914F913F912F910F900FBE0F901F9031
:104570001895CF93DF9300D000D0CDB7DEB761158B
:1045800071058105910579F09B01AC0169833A833E
:104590004B835C830E94282A29813A814B815C816C
:1045A0000E949F2D03C060E070E0CB010F900F9040
:1045B0000F900F90DF91CF910895CF92DF92EF92FD
:1045C000FF920F931F93621773078407950784F474
:1045D00089019A016B017C01C901B8016C197D093F
:1045E0008E099F090E94B9226C0D7D1D8E1D9F1D95
:1045F0001F910F91FF90EF90DF90CF90089570E0A2
:104600009B01382BC90108950E9624E1FC011192FB
:104610002A95E9F70895CF93DF93EC01625F7F4F0E
:104620000E94C80CCE01DF91CF910895CF93DF9304
:10463000EC016E5E7F4F0E94C80CCE01DF91CF91DE
:104640000895CF93DF93EC016A5E7F4F0E94C80C00
:10465000CE01DF91CF910895CF93DF93EC01625E9D
:104660007F4F0E94C80CCE01DF91CF91089580E367
:10467000FB0180833296842F82958F7090E1899F11
:10468000401911244A3014F4405D01C0495C429342
:10469000482F8111F0CF08950F9300E020E040E013
:1046A00060E086E297E00E94BC0C0F9108957F9233
:1046B0008F929F92AF92BF92CF92DF92EF92FF9232
:1046C0000F931F93CF93DF93CDB7DEB7AC970FB6A1
:1046D000F894DEBF0FBECDBF7C01762E942E852EC2
:1046E00020E2B22ECE0101966C01FC012B2D11921D
:1046F0002A95E9F70FEF2FEF4FEF6FEF86960E94A5
:10470000BC0C8AE194E09AA389A389A59AA5ABA5DC
:10471000BCA58BA39CA3ADA3BEA387010D5B1F4FBC
:1047200043E450E0BE016F5D7F4FC8010E949F10BF
:10473000019609F4BFC081E089838A8386E0A82EB0
:10474000AB821C82F70164817581868197810E940A
:10475000BE2D6D837E838F83988789869A8680E8B5
:1047600090E09C878B874CE150E0B601C8010E9425
:10477000AB10F6012B2D11922A95E9F7470188E03D
:10478000880E911CF401D60101900D92AA94E1F7D4
:1047900040E150E0B601C8010E94AB10F601119251
:1047A000BA94E9F796E0A92EB12C40E250E0B601A8
:1047B000C8010E94AB10F1E0AF1AB108B1F783E66F
:1047C000898392E89A8393E59B838C8385E38D8329
:1047D00081E08E837F829DE3988797E099878A871F
:1047E00086E0F401DE011B9601900D928A95E1F7B7
:1047F0008CE0898B8A8B66E574E0CE0143960E943B
:10480000222BF7014385BE01675E7F4FC7010E94DF
:104810003723F7014485BE01655E7F4FC7010E94C3
:104820003723F7014585BE01635E7F4FC7010E94B4
:1048300037234EE150E0B601C8010E94AB10F3E00F
:104840007F121EC082E3898384E08A83F701968504
:104850009B8397859C8390899D8391899E8396E312
:104860009F838887828D8987838D8A87848D8B87B4
:10487000858D8C874CE050E0B601C8010E94AB10DA
:1048800087E3898386E08A8391E09B8393E09C831E
:104890008D838FE08E838AE38F838BE388878FEF0E
:1048A000898749E050E0B601C8010E94AB10C801F9
:1048B0000E94A710AC960FB6F894DEBF0FBECDBF16
:1048C000DF91CF911F910F91FF90EF90DF90CF90EC
:1048D000BF90AF909F908F907F9008952F923F92BE
:1048E0004F925F926F927F928F929F92AF92BF9200
:1048F000DF92EF92FF920F931F93CF93DF93CDB789
:10490000DEB7E4970FB6F894DEBF0FBECDBF7C01D3
:104910001A012B0139010E941F084B015C0187011C
:104920000D5B1F4FC8010E944D1118161906A4F007
:104930000E941F08DC01CB0188199909AA09BB094B
:10494000281639064A065B06F0F062E370E080E064
:1049500090E00E945008E6CF42E250E0BE016F5F57
:104960007F4FC8010E94E8108981823031F4F8013C
:10497000848995898334910541F0D12CC8010E9426
:1049800089108D2D5FC18FEF5DC16D817E818F811B
:1049900098850E94BE2D4B015C01F30160837183F9
:1049A0008283938346E050E0B701685F7F4FCE017A
:1049B0004D960E94032B892B99F4F70180819181F8
:1049C000A281B38188169906AA06BB0648F08481A5
:1049D0009581A681B78188159905AA05BB0528F49C
:1049E000C8010E94891080E02DC189899A89AB890C
:1049F000BC89F70186879787A08BB18B8EECA82E98
:104A0000B12CC8010E94BF10F1E0AF1AB108C9F77C
:104A1000D12CC70182969AA789A7F701B696FCA761
:104A2000EBA708969EA78DA73C974F01899698AB58
:104A30008FA73897FAABE9AB1701F6E12F0E311CBF
:104A4000C5979CAB8BABC8010E946F101816190656
:104A50000CF094CFC8010E94BF108333910509F474
:104A6000CBC0FCF481309105C9F11CF4892B59F3BA
:104A7000DDC083309105D1F1069709F0D7C0C80198
:104A80000E94BF105C0144E050E06BA97CA9C80102
:104A90000E94E810412C512CBB24F4E0AF1AB1085D
:104AA00040C08A33910509F47BC03CF485339105FD
:104AB00069F0C69709F440C0B9C08B33910509F479
:104AC00085C08F3F910509F4BECFB0C0C8010E94D8
:104AD000BF10C8010E94BF10D82EB5CFC8010E94D8
:104AE000BF1044E050E069A97AA93AC0C8010E9409
:104AF000BF105C0144E050E0B101C8010E94E81021
:104B0000412C512CBB2494E0A91AB1084A145B042F
:104B10000CF099CFC8010E94BF10EFEF4E1A5E0A49
:104B2000F5CF4A145B040CF08ECFC8010E94BF1071
:104B30008FEF481A580AF5CFC8010E94BF10B82E4F
:104B4000F701828D811110C0838D81110DC0848D7C
:104B500081110AC0858D811107C044E050E0B40185
:104B6000C8010E94E8106FCFEFA5F8A940805180DE
:104B700062807380B401CE0183960E94C80C8DA11F
:104B80009EA1AFA1B8A584159505A605B70529F383
:104B9000BB2009F458CFC8010E94BF10BA94F8CFC7
:104BA000C8010E94BF1044E050E06BA57CA5C8017D
:104BB0000E94E810F70166A177A180A591A50E9447
:104BC000BE2D66A377A380A791A73DCFC8010E9401
:104BD000BF1044E050E06DA57EA5C8010E94E8101A
:104BE000F70162A573A584A595A50E94BE2D62A7B5
:104BF00073A784A795A727CFC8010E94BF1044E0E0
:104C000050E069A57AA5C8010E94E810F70162A1E9
:104C100073A184A195A10E94BE2D62A373A384A356
:104C200095A366A777A780AB91AB0DCFC8010E9473
:104C3000BF10B82EBB2009F406CFC8010E94BF10D8
:104C4000BA94F8CFE4960FB6F894DEBF0FBECDBF8E
:104C5000DF91CF911F910F91FF90EF90DF90BF9068
:104C6000AF909F908F907F906F905F904F903F900C
:104C70002F9008952F923F924F925F926F927F9262
:104C80008F929F92AF92BF92CF92DF92EF92FF925C
:104C90000F931F93CF93DF93CDB7DEB727970FB650
:104CA000F894DEBF0FBECDBF8C0120ED37E040E0B1
:104CB00050E061E070E080E090E00E94DD22D801E9
:104CC00014966D937D938D939C931797F801608351
:104CD0007183828393835801F3E4AF0EB11CC50145
:104CE0000E948A1064E470E0C5010E9420118823AC
:104CF00009F43CC10E941F082B013C01812C912C1E
:104D00001D82C8018E5B9F4F9F838E8343E0342EAC
:104D100058EEC52E53E0D52EE12CF12C62E0262E64
:104D2000AE81BF818C91833009F407C1811120C00D
:104D3000F80184819581A681B7810196A11DB11DDD
:104D400084839583A683B7830E941F08641975091D
:104D500086099709A70196010E947D2DA90161E0AE
:104D6000C8010E94572381E0AE81BF818C93C6C0E9
:104D70008430F9F4F80184819581A681B781019688
:104D8000A11DB11D84839583A683B7830E941F084C
:104D90006419750986099709A70196010E947D2D5E
:104DA000A90163E0C8010E945723AE81BF812C9204
:104DB000A5C0813061F5F80142AD53AD64AD75AD6C
:104DC0009E012F5F3F4FC8010E946E248D83823069
:104DD00009F094C089819A81AB81BC81F8018483F8
:104DE0009583A683B7830E941F08641975098609F5
:104DF0009709A70196010E947D2DA90163E0C801D2
:104E00000E945723ED81AE81BF81EC937EC082303A
:104E100009F074C0D801DA964D915D916D917C9145
:104E2000DD979E012F5F3F4FC8010E946E248D8346
:104E3000853009F05CC0EE81FF813082F80182A1EB
:104E400093A1A4A1B5A1892B8A2B8B2B41F484E8D3
:104E500093E0A0E0B0E082A393A3A4A3B5A3F801DC
:104E600086A197A1A0A5B1A5892B8A2B8B2B61F4D4
:104E700082A193A1A4A1B5A1B695A7959795879571
:104E800086A397A3A0A7B1A7F80182A593A5A4A57F
:104E9000B5A5892B8A2B8B2BA9F482A193A1A4A160
:104EA000B5A1AC01BD0123E076956795579547956F
:104EB0002A95D1F7841B950BA60BB70B82A793A756
:104EC000A4A7B5A7F80186A197A1A0A5B1A586A71B
:104ED00097A7A0ABB1AB82A593A5A4A5B5A582ABBE
:104EE00093ABA4ABB5AB88248394912C0EC0FD8109
:104EF000F63021F4AE81BF811C9207C0BD81BF3F57
:104F000021F4EE81FF8110821D82F1E08F16910461
:104F100009F406CF0E941F08DC01CB018419950912
:104F2000A609B709F80126A937A940AD51AD281740
:104F300039074A075B0708F0F3CEC5010E948A10C3
:104F4000F80184819581A681B7810196A11DB11DCB
:104F500084839583A683B7830E941F08F801FE9679
:104F60006083718382839383C40102C080E090E0F8
:104F700027960FB6F894DEBF0FBECDBFDF91CF915D
:104F80001F910F91FF90EF90DF90CF90BF90AF9067
:104F90009F908F907F906F905F904F903F902F9059
:104FA0000895CF92DF92EF92FF920F931F93CF93CA
:104FB000DF93EC016B011AA21BA21CA21DA21EA270
:104FC0001FA218A619A61AA61BA61CA61DA62EABC4
:104FD0003FAB48AF59AFEAAEFBAE0CAF1DAF8C0193
:104FE000085F1F4F86E0F80111928A95E9F7CE011C
:104FF0000E94042386E0F601D80101900D928A9563
:10500000E1F7FE01EE5BFF4F1082CE01DF91CF9101
:105010001F910F91FF90EF90DF90CF900C943A2664
:10502000CF92DF92EF92FF920F931F93CF93DF9374
:10503000EC010E941F086B017C018E01025C1F4F76
:10504000F80180819181A281B381A7019601281B7B
:10505000390B4A0B5B0BCA01B901683E33E0730799
:105060008105910508F441C028EE33E040E050E0AE
:105070000E947D2DC61AD70AE80AF90AF801C082F3
:10508000D182E282F3828EA59FA5A8A9B9A9690160
:105090007A01CC0CDD1CEE1CFF1C8C159D05AE05A9
:1050A000BF0528F41EA61FA618AA19AA08C0821BAD
:1050B000930BA40BB50B8EA79FA7A8ABB9AB8AA97E
:1050C0009BA9ACA9BDA98C159D05AE05BF0528F40B
:1050D0001AAA1BAA1CAA1DAA08C0821B930BA40B08
:1050E000B50B8AAB9BABACABBDAB8EA59FA5A8A9FE
:1050F000B9A9892B8A2B8B2B69F4FE01EE5BFF4F3C
:105100008081833039F484E08083CE010E943A2686
:10511000019602C080E090E04AA95BA96CA97DA934
:10512000452B462B472B81F4FE01EE5BFF4F208180
:10513000233011F0211108C01082CE010E940423F7
:10514000CE010E943A260396DF91CF911F910F91D5
:10515000FF90EF90DF90CF900895CF93DF93823050
:10516000910510F482E090E0E0912E07F0912F0776
:1051700020E030E0C0E0D0E0309711F14081518173
:1051800048175907C0F04817590761F48281938185
:10519000209719F09B838A832BC090932F078093CD
:1051A0002E0726C02115310519F04217530718F4B0
:1051B0009A01BE01DF01EF010280F381E02DDCCF17
:1051C0002115310509F1281B390B2430310590F4E4
:1051D00012968D919C9113976115710521F0FB0139
:1051E0009383828304C090932F0780932E07FD0141
:1051F000329644C0FD01E20FF31F81939193225038
:1052000031092D933C933AC020912C0730912D0702
:10521000232B41F4209102013091030130932D079B
:1052200020932C07209100013091010121153105B7
:1052300041F42DB73EB74091040150910501241B64
:10524000350BE0912C07F0912D07E217F307A0F43E
:105250002E1B3F0B2817390778F0AC014E5F5F4FCC
:105260002417350748F04E0F5F1F50932D074093CA
:105270002C078193919302C0E0E0F0E0CF01DF9131
:10528000CF9108950F931F93CF93DF93009709F465
:105290008CC0FC0132971382128200912E0710916C
:1052A0002F070115110581F420813181820F931F91
:1052B00020912C0730912D072817390779F5F093A5
:1052C0002D07E0932C0771C0D80140E050E0AE17E5
:1052D000BF0750F412962D913C911397AD01211503
:1052E000310509F1D901F3CF9D01DA01338322831E
:1052F00060817181860F971F8217930769F4EC0113
:1053000028813981260F371F2E5F3F4F318320833D
:105310008A819B8193838283452B29F4F0932F0705
:10532000E0932E0742C01396FC93EE931297ED0183
:10533000499159919E01240F351FE217F30771F42B
:1053400080819181840F951F029611969C938E9374
:105350008281938113969C938E931297E0E0F0E004
:10536000D80112968D919C911397009719F0F8012E
:105370008C01F6CF8D919C9198012E5F3F4F820F4B
:10538000931F20912C0730912D072817390769F4B6
:10539000309729F410922F0710922E0702C0138223
:1053A000128210932D0700932C07DF91CF911F914C
:1053B0000F9108958F929F92AF92BF92CF92DF92FA
:1053C000EF92FF92CF93DF93EC01688179818A811C
:1053D0009B81611571058105910521F464E279EDE8
:1053E0008BE597E02DE133EF41E050E00E949F2DE7
:1053F00049015A019B01AC01A7EAB1E40E94C52D05
:105400006B017C01ACEEB4EFA50194010E94D32D99
:10541000DC01CB018C0D9D1DAE1DBF1DB7FF03C070
:105420000197A109B04888839983AA83BB83BC01F3
:10543000CD019F77DF91CF91FF90EF90DF90CF90DC
:10544000BF90AF909F908F9008950E94DA290895A1
:1054500086E091E00E94DA29089560930601709336
:10546000070180930801909309010895A0E0B0E03E
:10547000ECE3FAE20C94DC2DEC01009721F4CB0173
:105480000E94AD28B8C0FC01E60FF71F9C01225016
:105490003109E217F30708F4ACC0D9010D911C9152
:1054A000119706171707B0F00530110508F49FC0D3
:1054B000C80104978617970708F499C0025011098C
:1054C000061B170B019311936D937C93CF010E94E0
:1054D00042298DC05B01A01AB10A4C01800E911EB9
:1054E000A0912E07B0912F0740E050E0E12CF12C65
:1054F000109709F44AC0A815B905D1F56D907C90B4
:105500001197630182E0C80ED11CCA14DB0480F13C
:10551000A3014A195B096A0182E0C80ED11C1296E8
:10552000BC9012971396AC91B5E0CB16D10440F025
:10553000B282A38351834083D9016D937C930AC0C7
:105540000E5F1F4FC301800F911FF901918380836C
:10555000EB2DFA2FE114F10431F0D7011396FC93EF
:10556000EE93129744C0F0932F07E0932E073FC0AD
:105570008D919C9111974817590708F4AC017D0152
:1055800012960D90BC91A02DB3CF80912C079091D5
:105590002D0788159905E1F446175707C8F480913F
:1055A000000190910101009741F48DB79EB74091A1
:1055B000040150910501841B950BE817F907C8F405
:1055C000F0932D07E0932C07F901718360830FC0DE
:1055D000CB010E94AD287C01009759F0A801BE01C3
:1055E0000E94102BCE010E944229C70104C0CE01A7
:1055F00002C080E090E0CDB7DEB7EEE00C94F82D6D
:10560000F8940C943A2EFB01DC0104C08D910190BA
:10561000801921F441505040C8F7881B990B089518
:10562000FB01DC0102C001900D9241505040D8F7BF
:105630000895FB01DC018D91019080190110D9F3CF
:10564000990B0895FB01DC0101900D920020E1F718
:1056500008954532510520F4423010F00C94342B5B
:10566000FB011082CB010895BB274A3031F4992306
:1056700022F4BDE2909581959F4F0C944B2B4532BF
:10568000510520F4423010F00C944A2BFB0110829B
:10569000CB010895BB27FB015527AA27880F991F27
:1056A000AA1FA41710F0A41B83955051B9F7A05D51
:1056B000AA3308F0A95DA193009779F7B111B193CE
:1056C0001192CB010C946D2D5058BB27AA270E9434
:1056D0007C2B0C94C62C0E94B82C38F00E94BF2C56
:1056E00020F039F49F3F19F426F40C94B52C0EF4F5
:1056F000E095E7FB0C94AF2CE92F0E94D72C58F3D0
:10570000BA17620773078407950720F079F4A6F5A6
:105710000C94F92C0EF4E0950B2EBA2FA02D0B0152
:10572000B90190010C01CA01A0011124FF27591BE6
:1057300099F0593F50F4503E68F11A16F040A22FEC
:10574000232F342F4427585FF3CF4695379527955D
:10575000A795F0405395C9F77EF41F16BA0B620B5C
:10576000730B840BBAF09150A1F0FF0FBB1F661FA3
:10577000771F881FC2F70EC0BA0F621F731F841FE6
:1057800048F4879577956795B795F7959E3F08F00C
:10579000B0CF9395880F08F09927EE0F97958795CE
:1057A00008950E94E52B0C94C62C0E94BF2C58F043
:1057B0000E94B82C40F029F45F3F29F00C94AF2CE4
:1057C00051110C94FA2C0C94B52C0E94D72C68F330
:1057D0009923B1F3552391F3951B550BBB27AA27AA
:1057E00062177307840738F09F5F5F4F220F331FE4
:1057F000441FAA1FA9F335D00E2E3AF0E0E832D0AC
:1058000091505040E695001CCAF72BD0FE2F29D0AE
:10581000660F771F881FBB1F261737074807AB0780
:10582000B0E809F0BB0B802DBF01FF2793585F4FF5
:105830003AF09E3F510578F00C94AF2C0C94FA2C62
:105840005F3FE4F3983ED4F3869577956795B795D7
:10585000F7959F5FC9F7880F911D9695879597F9E2
:105860000895E1E0660F771F881FBB1F621773075B
:105870008407BA0720F0621B730B840BBA0BEE1F70
:1058800088F7E09508950E94DF2C88F09F5798F0E4
:10589000B92F9927B751B0F0E1F0660F771F881F35
:1058A000991F1AF0BA95C9F714C0B13091F00E944F
:1058B000F92CB1E008950C94F92C672F782F8827E4
:1058C000B85F39F0B93FCCF3869577956795B39576
:1058D000D9F73EF490958095709561957F4F8F4FE5
:1058E0009F4F0895E89409C097FB3EF490958095EA
:1058F000709561957F4F8F4F9F4F9923A9F0F92F96
:1059000096E9BB279395F695879577956795B79513
:10591000F111F8CFFAF4BB0F11F460FF1BC06F5FF9
:105920007F4F8F4F9F4F16C0882311F096E911C00B
:10593000772321F09EE8872F762F05C0662371F02C
:1059400096E8862F70E060E02AF09A95660F771F40
:10595000881FDAF7880F9695879597F9089597F934
:105960009F6780E870E060E008959FEF80EC089505
:1059700000240A941616170618060906089500242E
:105980000A9412161306140605060895092E0394A8
:10599000000C11F4882352F0BB0F40F4BF2B11F41C
:1059A00060FF04C06F5F7F4F8F4F9F4F089557FD7B
:1059B0009058440F551F59F05F3F71F04795880F7D
:1059C00097FB991F61F09F3F79F087950895121614
:1059D00013061406551FF2CF4695F1DF08C01616C0
:1059E00017061806991FF1CF869571056105089471
:1059F0000895E894BB2766277727CB0197F9089588
:105A00000E94132D0C94C62C0E94B82C38F00E94D2
:105A1000BF2C20F0952311F00C94AF2C0C94B52CD6
:105A200011240C94FA2C0E94D72C70F3959FC1F38B
:105A3000950F50E0551F629FF001729FBB27F00D3C
:105A4000B11D639FAA27F00DB11DAA1F649F662791
:105A5000B00DA11D661F829F2227B00DA11D621FE0
:105A6000739FB00DA11D621F839FA00D611D221F9A
:105A7000749F3327A00D611D231F849F600D211D7E
:105A8000822F762F6A2F11249F5750409AF0F1F001
:105A900088234AF0EE0FFF1FBB1F661F771F881F6A
:105AA00091505040A9F79E3F510580F00C94AF2CC7
:105AB0000C94FA2C5F3FE4F3983ED4F386957795E7
:105AC0006795B795F795E7959F5FC1F7FE2B880F10
:105AD000911D9695879597F90895DC01FC01672F34
