:100000000C94E3000C940B010C940B010C940B0169
:100010000C940B010C940B010C94C8100C940B0164
:100020000C940B010C940B010C940B010C940B0120
:100030000C940B010C940B010C940B010C940B0110
:100040000C948C080C940B010C944E0B0C94800BAC
:100050000C940B010C940B010C940B010C940B01F0
:100060000C94A0220C940B01000000080002010077
:100070000003040700000000000000000102040863
:100080001020408001020408102001020408102002
:10009000040404040404040402020202020203032E
:1000A0000303030300000000250028002B000000CC
:1000B0000000240027002A0000407A10F35A00A014
:1000C000724E18090010A5D4E80000E87648170021
:1000D00000E40B54020000CA9A3B000000E1F50561
:1000E000000080969800000040420F000000A086AB
:1000F00001000000102700000000E80300000000DD
:100100006400000000000A00000000000100000080
:1001100000002C76D888DC674F0823DFC1DFAE599A
:10012000E1B1B796E5E3E453C63AE651997696E82D
:10013000E6C28426EB898C9B62ED407C6FFCEFBCB1
:100140009C9F40F2BAA56FA5F490055A2AF75C93DC
:100150006B6CF9676DC11BFCE0E40D47FEF520E612
:10016000B500D0ED902E0300943577050080841EF5
:10017000080000204E0A000000C80C333333330F50
:10018000986E12831141EF8D2114893BE65516CFED
:10019000FEE6DB18D1844B381BF77C1D901DA4BBF9
:1001A000E424203284725E228100C9F124ECA1E5AE
:1001B0003D270D01B00B9A0DC110C313731AC81A55
:1001C000A82160246B0111241FBECFEFD8E0DEBF51
:1001D000CDBF14E0A0E0B1E0ECE1F4E602C0059090
:1001E0000D92A83BB107D9F727E0A8EBB4E001C016
:1001F0001D92AA38B207E1F710E0C2EED0E004C0C9
:100200002197FE010E94D631C93DD107C9F70E944E
:10021000DE0B0C94342C0C9400000F9300E020E0D3
:1002200040E060E086E795E00E94730D01E021E088
:1002300041E06AE080E795E00E94730D85E595E076
:100240000E944B138AE395E00E944B138FE195E0E7
:100250000E944B136AED71E089EF94E00E94130E47
:100260008FEE94E00E94B81D8EEE94E00E942E1056
:100270008DEE94E00E942E108CEE94E00E942E10E1
:1002800084EE94E00E94470FE8EBF4E014821582BC
:100290001682178280E090E0A6ECB2EC808791870E
:1002A000A287B38784879587A687B787808B918B32
:1002B000A28BB38B848B958BA68BB78B808F918F02
:1002C000A28FB38F148E158E168E178E10A211A2C8
:1002D00012A20F91089589EF94E00C94A50D0F934D
:1002E0001F93CF93DF9300D000D000D0CDB7DEB7FF
:1002F0008C01409110015091110185E794E09A839F
:1003000089838091720590917305A0917405B091D5
:1003100075058B839C83AD83BE83BE016F5F7F4F6A
:100320008FE195E00E94B311B8018FE195E00E9442
:10033000570A8FE195E00E94BB1126960FB6F894FC
:10034000DEBF0FBECDBFDF91CF911F910F910895FA
:100350008F929F92AF92BF92CF92DF92EF92FF92D5
:100360000F931F93CF93DF9300D000D000D0CDB771
:10037000DEB760E47FE188E296E00E943F110E94D0
:10038000D6084B015C0126E040E051EE60E070E0F1
:1003900085E895E00E94C20C6CE171E085E895E08B
:1003A0000E947C0A60E082E00E94E40961E082E051
:1003B0000E94A80960E082E00E94E40960E088E011
:1003C0000E94E40961E088E00E94A80960E088E0FA
:1003D0000E94E40960E089E00E94E40961E089E0AC
:1003E0000E94A80960E089E00E94E40961E083E0DE
:1003F0000E94E40961E083E00E94A80961E083E0D3
:100400000E94E40961E085E00E94E40961E085E082
:100410000E94A80961E085E00E94E40961E086E0AD
:100420000E94E40961E086E00E94A80961E086E09C
:100430000E94E40961E087E00E94E40961E087E04E
:100440000E94A80961E087E00E94E40961E084E07D
:100450000E94E40961E084E00E94A80961E084E070
:100460000E94E40999E1E92E95E0F92E67010091D7
:10047000F7041091F804C8010E94EB31D6018D9366
:100480006D010F5F1F4F1093F8040093F704BFE155
:10049000CB16B5E0DB0659F7EDEDF4E0D7018D9111
:1004A0007D018193BFE1EB16B5E0FB06B9F710EAD9
:1004B000E12E1FE0F12E00E010E020E63AEE40E0F1
:1004C00050E069E175E082E496E00E944919892BC9
:1004D00061F46CE271E085E895E00E947C0A60E1DD
:1004E00077E280E090E00E9407096AE671E085E823
:1004F00095E00E947C0A62E476E0CE0101960E94BB
:100500004B1ABE016F5F7F4F85E895E00E948E0A0F
:10051000609114017091150185E595E00E943412F7
:1005200060911201709113018AE395E00E943412E8
:1005300060911001709111018FE195E00E943412D9
:100540006CED75E080E090E00E94070969E771E0DA
:10055000CE0101960E94130ECE0101960E946F01FA
:10056000CE0101960E94A50D6AE871E0CE010196C8
:100570000E94130ECE0101960E946F01CE010196DA
:100580000E94A50D4AE060911F05CE0101960E94D0
:100590003F0ECE0101960E946F01CE0101960E948E
:1005A000A50D6BEA71E0CE0101960E94130ECE01FB
:1005B00001960E946F01CE0101960E94A50D4AE0AE
:1005C00060911905CE0101960E943F0ECE01019661
:1005D0000E946F01CE0101960E94A50D4AE0609134
:1005E0001A05CE0101960E943F0ECE0101960E948F
:1005F0006F01CE0101960E94A50D4AE060911B0596
:10060000CE0101960E943F0ECE0101960E946F011D
:10061000CE0101960E94A50D4AE060911C05CE0115
:1006200001960E943F0ECE0101960E946F01CE01FD
:1006300001960E94A50D4AE060911D05CE0101962C
:100640000E943F0ECE0101960E946F01CE010196DD
:100650000E94A50D4AE060911E05CE0101960E9400
:100660003F0ECE0101960E946F01CE0101960E94BD
:10067000A50D80910E0190910F010E94EB31682F22
:1006800070E080E090E00E94D32D6093B8047093F6
:10069000B9048093BA049093BB046EEB71E085E8D3
:1006A00095E00E94650A6EEB71E0CE0101960E9412
:1006B000130ECE0101960E946F01CE0101960E9499
:1006C000A50D00E010E06FEC71E085E895E00E9478
:1006D000650A4AE050E0B80185E895E00E94330BD6
:1006E00069ED71E085E895E00E94650A6BED71E0C7
:1006F00085E895E00E94650AC8010E94EB314AE056
:1007000050E0682F85E895E00E94470B69ED71E0A5
:1007100085E895E00E94650A6FEC71E0CE010196D4
:100720000E94130ECE0101960E946F01CE01019628
:100730000E94A50D4AE0B801CE0101960E946C0E00
:10074000CE0101960E946F01CE0101960E94A50D77
:100750006BED71E0CE0101960E94130ECE01019661
:100760000E946F01CE0101960E94A50DC8010E9452
:10077000EB314AE0682FCE0101960E943F0ECE0178
:1007800001960E946F01CE0101960E94A50D0F5F98
:100790001F4F0830110509F096CF4FEF6EE38FEE33
:1007A00094E00E947220882309F4F9C062EE71E09F
:1007B00085E895E00E947C0A62EE71E0CE01019628
:1007C0000E94130ECE0101960E946F01CE01019688
:1007D0000E94A50D40E060E08FEE94E00E940F20A3
:1007E00040E060E08FEE94E00E941A1F40E061E07C
:1007F0008FEE94E00E940F2040E061E08FEE94E0E5
:100800000E941A1F40E062E08FEE94E00E940F20E9
:1008100040E062E08FEE94E00E941A1F40E063E047
:100820008FEE94E00E940F2040E063E08FEE94E0B2
:100830000E941A1F40E064E08FEE94E00E940F20B7
:1008400040E064E08FEE94E00E941A1F40E065E013
:100850008FEE94E00E940F2040E065E08FEE94E080
:100860000E941A1F40E066E08FEE94E00E940F2085
:1008700040E066E08FEE94E00E941A1F40E067E0DF
:100880008FEE94E00E940F2040E067E08FEE94E04E
:100890000E941A1F40E068E08FEE94E00E940F2053
:1008A00040E068E08FEE94E00E941A1F40E069E0AB
:1008B0008FEE94E00E940F2040E069E08FEE94E01C
:1008C0000E941A1F40E06AE08FEE94E00E940F2021
:1008D00040E06AE08FEE94E00E941A1F40E06BE077
:1008E0008FEE94E00E940F2040E06BE08FEE94E0EA
:1008F0000E941A1F41E06CE08FEE94E00E940F20EE
:1009000041E06DE08FEE94E00E940F2041E06EE048
:100910008FEE94E00E940F2041E06FE08FEE94E0B4
:100920000E940F2000E010E0602F8FEE94E00E9404
:10093000411F002E01C0880F0A94EAF72091DB04C2
:10094000822B8093DB040F5F1F4F0830110561F786
:1009500008E010E0602F8FEE94E00E94411F002E0F
:1009600001C0880F0A94EAF72091DC04822B80935F
:10097000DC040F5F1F4F0F30110561F76091DB043E
:1009800080910C0190910D010E94F3316091DC0483
:1009900080910A0190910B010E94F33114C069EF1C
:1009A00071E085E895E00E947C0A69EF71E0CE0174
:1009B00001960E94130ECE0101960E946F01CE0196
:1009C00001960E94A50D0E94D6086B017C0163E18F
:1009D00072E0CE0101960E94130ECE0101960E9494
:1009E0006F01CE0101960E94A50DB6016819790923
:1009F0004AE0CE0101960E94980ECE0101960E9417
:100A00006F01CE0101960E94A50D26960FB6F894AF
:100A1000DEBF0FBECDBFDF91CF911F910F91FF9031
:100A2000EF90DF90CF90BF90AF909F908F90089500
:100A3000CF93DF9300D000D000D0CDB7DEB769E20E
:100A400072E085E895E00E947C0A69E272E0CE01DE
:100A500001960E94130ECE0101960E946F01CE01F5
:100A600001960E94A50D64EF71E080E090E00E9485
:100A7000070960E084E00E94E40926960FB6F89426
:100A8000DEBF0FBECDBFDF91CF910895CF93DF932F
:100A9000CDB7DEB72C970FB6F894DEBF0FBECDBF33
:100AA00048E150E06FEF74E085E595E00E94FC11AD
:100AB0006FEF74E0CE0107960E94130E60E472E0BF
:100AC000CE0107960E94210F8823C9F065E472E0E9
:100AD00085E895E00E947C0A65E472E0CE0101960B
:100AE0000E94130ECE0101960E946F01CE01019665
:100AF0000E94A50D88E296E00E94D21028C166E50A
:100B000072E0CE0107960E94210F882341F061E038
:100B100082E00E94E40981E08093D40418C163E676
:100B200072E0CE0107960E94210F882339F060E021
:100B300082E00E94E4091092D40409C161E772E0E6
:100B4000CE0107960E94210F882371F06DE772E0B5
:100B500085E895E00E947C0A60E083E00E94E40959
:100B600081E08093D704F3C069E872E0CE01079674
:100B70000E94210F882369F066E972E085E895E01C
:100B80000E947C0A61E083E00E94E4091092D7048D
:100B9000DEC063EA72E0CE0107960E94210F88232F
:100BA00071F06FEA72E085E895E00E947C0A60E0EF
:100BB00085E00E94E40981E08093D804C8C06BEB13
:100BC00072E0CE0107960E94210F882369F068EC3D
:100BD00072E085E895E00E947C0A61E085E00E9471
:100BE000E4091092D804B3C065ED72E0CE01079617
:100BF0000E94210F882371F061EE72E085E895E094
:100C00000E947C0A60E086E00E94E40981E0809313
:100C1000D9049DC06DEE72E0CE0107960E94210FAF
:100C2000882369F06AEF72E085E895E00E947C0A0B
:100C300061E086E00E94E4091092D90488C067E070
:100C400073E0CE0107960E94210F882371F063E1C3
:100C500073E085E895E00E947C0A60E087E00E94EE
:100C6000E40981E08093DA0472C06FE173E0CE01A1
:100C700007960E94210F882369F06CE273E085E8F3
:100C800095E00E947C0A61E087E00E94E4091092EE
:100C9000DA045DC069E373E0CE0107960E94210F7C
:100CA000882341F061E088E00E94E40981E08093BC
:100CB000D5044DC060E473E0CE0107960E94210F79
:100CC000882339F060E088E00E94E4091092D5049E
:100CD0003EC068E473E0CE0107960E94210F88238E
:100CE00071F06FE473E085E895E00E947C0A61E0B2
:100CF00089E00E94E40981E08093D60428C066E57B
:100D000073E0CE0107960E94210F882339F060E03E
:100D100089E00E94E4091092D60419C06EE573E0E0
:100D2000CE0107960E94210F882319F00E94180512
:100D30000EC064E673E0CE0101960E94130ECE0150
:100D400001960E946F01CE0101960E94A50D88E1D7
:100D5000EFEFF4E0DF011D928A95E9F7CE010796E7
:100D60000E94A50D2C960FB6F894DEBF0FBECDBF26
:100D7000DF91CF9108958F929F92AF92BF92CF92C1
:100D8000DF92EF92FF92CF93DF9300D000D000D09C
:100D9000CDB7DEB70E94D6084B015C016BE18EEE49
:100DA00094E00E948210882369F08EEE94E00E9405
:100DB000A4106093C0047093C1048093C204909304
:100DC000C30420C06FE773E085E895E00E947C0AC9
:100DD0006FE773E0CE0101960E94130ECE010196DB
:100DE0000E946F01CE0101960E94A50D80E090E067
:100DF000A6ECB2EC8093C0049093C104A093C2040B
:100E0000B093C3046AE18DEE94E00E9482108823BF
:100E100069F08DEE94E00E94A4106093C404709376
:100E2000C5048093C6049093C70420C065E973E0AD
:100E300085E895E00E947C0A65E973E0CE010196A1
:100E40000E94130ECE0101960E946F01CE01019601
:100E50000E94A50D80E090E0A6ECB2EC8093C40463
:100E60009093C504A093C604B093C70468E18CEEC8
:100E700094E00E948210882369F08CEE94E00E9436
:100E8000A4106093C8047093C9048093CA0490931B
:100E9000CB0420C06BEA73E085E895E00E947C0AF1
:100EA0006BEA73E0CE0101960E94130ECE0101960B
:100EB0000E946F01CE0101960E94A50D80E090E096
:100EC000A6ECB2EC8093C8049093C904A093CA0422
:100ED000B093CB0484EE94E00E945E0F8823C9F0A7
:100EE00084EE94E00E948C0F6093CC047093CD0448
:100EF0008093CE049093CF0484EE94E00E94DD0FA3
:100F00006093D0047093D1048093D2049093D3045F
:100F100028C061EC73E085E895E00E947C0A61ECF2
:100F200073E0CE0101960E94130ECE0101960E943D
:100F30006F01CE0101960E94A50D80E090E0A6EC25
:100F4000B2EC8093CC049093CD04A093CE04B093E4
:100F5000CF048093D0049093D104A093D204B09393
:100F6000D3040E94D60828EE33E040E050E00E940F
:100F70004431CA01B9010E94D32D6093BC0470931F
:100F8000BD048093BE049093BF0464ED73E0CE0172
:100F900001960E94130ECE0101960E946F01CE01B0
:100FA00001960E94A50D4091BC045091BD04609132
:100FB000BE047091BF0422E0CE0101960E94F10EA2
:100FC000CE0101960E946F01CE0101960E94A50DEF
:100FD00060E074E0CE0101960E94130ECE010196EE
:100FE0000E946F01CE0101960E94A50D0E94D608B5
:100FF000AB01BC012AE0CE0101960E94C40ECE01D5
:1010000001960E946F01CE0101960E94A50D4091AC
:1010100012015091130185E794E09A8389838091AE
:10102000720590917305A0917405B09175058B833D
:101030009C83AD83BE83BE016F5F7F4F8AE395E0E3
:101040000E94B3114CE250E068EB74E08AE395E053
:101050000E94BF118AE395E00E94BB116FE274E029
:1010600085E895E00E947C0A6FE274E0CE0101966B
:101070000E94130ECE0101960E946F01CE010196CF
:101080000E94A50D85E595E00E94611290931805D8
:10109000809317051816190614F40E94460582E479
:1010A00096E00E94E6190E94D6086B017C0162E47A
:1010B00074E0CE0101960E94130ECE0101960E94AB
:1010C0006F01CE0101960E94A50DB601681979093C
:1010D0004AE0CE0101960E94980ECE0101960E9430
:1010E0006F01CE0101960E94A50D60ED77E080E0D2
:1010F00090E00E94070926960FB6F894DEBF0FBE57
:10110000CDBFDF91CF91FF90EF90DF90CF90BF9058
:10111000AF909F908F9008951F920F920FB60F92ED
:1011200011242F933F938F939F93AF93BF938091FD
:101130007D0590917E05A0917F05B091800530914D
:101140007C0523E0230F2D3720F40196A11DB11D4E
:1011500005C026E8230F0296A11DB11D20937C0532
:1011600080937D0590937E05A0937F05B0938005C5
:101170008091810590918205A0918305B0918405AD
:101180000196A11DB11D8093810590938205A093C6
:101190008305B0938405BF91AF919F918F913F914B
:1011A0002F910F900FBE0F901F9018952FB7F894A6
:1011B00060917D0570917E0580917F0590918005FD
:1011C0002FBF08953FB7F8948091810590918205D3
:1011D000A0918305B091840526B5A89B05C02F3F3B
:1011E00019F00196A11DB11D3FBFBA2FA92F982F4D
:1011F0008827820F911DA11DB11DBC01CD0142E0C8
:10120000660F771F881F991F4A95D1F708958F920F
:101210009F92AF92BF92CF92DF92EF92FF926B01BB
:101220007C010E94E2084B015C01C114D104E1047D
:10123000F10401F10E947E090E94E208DC01CB0169
:1012400088199909AA09BB09883E9340A105B105EF
:1012500060F321E0C21AD108E108F10888EE880E97
:1012600083E0981EA11CB11CC114D104E104F10457
:1012700019F7DBCFFF90EF90DF90CF90BF90AF904A
:101280009F908F900895789484B5826084BD84B5D2
:10129000816084BD85B5826085BD85B5816085BD71
:1012A000EEE6F0E0808181608083E1E8F0E010828A
:1012B000808182608083808181608083E0E8F0E0CB
:1012C000808181608083E1EBF0E0808184608083B5
:1012D000E0EBF0E0808181608083EAE7F0E08081EC
:1012E000846080838081826080838081816080834C
:1012F0008081806880831092C100089508958330B2
:1013000081F028F4813099F08230A1F0089587307F
:10131000A9F08830B9F08430D1F4809180008F7DBD
:1013200003C0809180008F7780938000089584B5FA
:101330008F7702C084B58F7D84BD08958091B00001
:101340008F7703C08091B0008F7D8093B0000895A7
:10135000CF93DF9390E0FC01E458FF4F2491FC0110
:10136000E057FF4F8491882361F190E0880F991F27
:10137000FC01E255FF4FC591D491FC01EC55FF4FA4
:10138000A591B491611109C09FB7F8948881209507
:1013900082238883EC912E230BC0623061F49FB7C7
:1013A000F8943881822F809583238883EC912E2BAB
:1013B0002C939FBF06C08FB7F894E8812E2B28830B
:1013C0008FBFDF91CF9108951F93CF93DF93282F85
:1013D00030E0F901E859FF4F8491F901E458FF4FDB
:1013E000D491F901E057FF4FC491CC23C9F0162FD7
:1013F00081110E947F09EC2FF0E0EE0FFF1FEC55EA
:10140000FF4FA591B4918FB7F894111105C09C912D
:10141000ED2FE095E92302C0EC91ED2BEC938FBF0B
:10142000DF91CF911F91089580E090E00895CF92D1
:10143000DF92EF92FF920F931F93CF93DF936C0194
:101440007A018B01C0E0D0E0CE15DF0589F0D8012C
:101450006D918D01D601ED91FC910190F081E02D0F
:10146000C6010995892B11F47E0102C02196ECCFAB
:10147000C701DF91CF911F910F91FF90EF90DF9007
:10148000CF9008956115710579F0FB01019000205E
:10149000E9F73197AF01461B570BDC01ED91FC9149
:1014A0000280F381E02D099480E090E00895DC0152
:1014B000ED91FC91DB0114964D915C9115976D9126
:1014C0007C910280F381E02D09940C94420ADC01A6
:1014D000ED91FC910190F081E02D0994DB01ED91FB
:1014E000FC9111970190F081E02DBC01CD01099490
:1014F00060E574E00C94420A0F931F93CF93DF933F
:10150000EC010E94420A8C01CE010E94780A800FF1
:10151000911FDF91CF911F910F9108950F931F930A
:10152000CF93DF93EC010E946E0A8C01CE010E94E2
:10153000780A800F911FDF91CF911F910F9108952D
:101540004F925F926F927F92EF92FF920F931F9351
:10155000CF93DF93CDB7DEB7A1970FB6F894DEBF78
:101560000FBECDBF7C01FA01CB0119A2223008F4D5
:101570002AE08E010F5D1F4F422E512C612C712CE1
:10158000BF01A30192010E944431F901CA01015037
:1015900011096A3014F4605D01C0695CD8016C9374
:1015A000232B242B252B61F7B801C7010E94420A87
:1015B000A1960FB6F894DEBF0FBECDBFDF91CF91DD
:1015C0001F910F91FF90EF907F906F905F904F90E1
:1015D0000895CF92DF92EF92FF920F931F93CF93D4
:1015E000DF93EC016A017B012115310579F4E88173
:1015F000F9810190F081E02D642FDF91CF911F914F
:101600000F91FF90EF90DF90CF9009942A30310531
:10161000E9F477FF1AC06DE20E94670A8C01442743
:101620005527BA014C195D096E097F092AE0CE01E0
:101630000E94A00A800F911FDF91CF911F910F91FF
:10164000FF90EF90DF90CF9008952AE0B701A601B8
:10165000CE01DF91CF911F910F91FF90EF90DF901E
:10166000CF900C94A00A9A01AB01770F660B770B11
:101670000C94E90A2115310541F4DC01ED91FC914E
:101680000190F081E02D642F09940C94A00A9A0136
:10169000462F50E060E070E00C943A0B1F920F92DE
:1016A0000FB60F9211242F938F939F93EF93FF9375
:1016B000E0919505F09196058081E0919B05F09170
:1016C0009C0582FD12C0908180919E058F5F8F7373
:1016D00020919F05821751F0E0919E05F0E0EB57B5
:1016E000FA4F958F80939E0501C08081FF91EF9105
:1016F0009F918F912F910F900FBE0F901F90189573
:101700001F920F920FB60F9211242F933F934F9376
:101710005F936F937F938F939F93AF93BF93EF9359
:10172000FF9385E895E00E94380CFF91EF91BF91FF
:10173000AF919F918F917F916F915F914F913F9169
:101740002F910F900FBE0F901F90189585E895E090
:101750000E94ED0B21E0892B09F420E0822F0895EF
:10176000E5E8F5E01382128288EE93E0A0E0B0E0B5
:1017700084839583A683B78383E694E091838083F3
:1017800085EC90E09587848784EC90E09787868746
:1017900080EC90E0918B808B81EC90E0938B828B3E
:1017A00082EC90E0958B848B86EC90E0978B868B17
:1017B000118E128E138E148E089508950E9443097F
:1017C0000E94DD0B0E94A801CAE2DCE00E94BB0679
:1017D0002097E1F30E942A0CF9CFFC01918D228D14
:1017E000892F90E0805C9F4F821B91098F7399270E
:1017F0000895FC01918D828D981731F0828DE80F4C
:10180000F11D858D90E008958FEF9FEF0895FC0105
:10181000918D828D981761F0828DDF01A80FB11D27
:101820005D968C91928D9F5F9F73928F90E008954B
:101830008FEF9FEF0895FC01538D448D252F30E0ED
:10184000842F90E0821B930B541710F0CF960895CD
:101850000197089586EA9BE0892B49F080E090E0AB
:10186000892B29F00E94A60B81110C940000089589
:10187000FC01848DDF01A80FB11DA35ABF4F2C912D
:10188000848D90E001968F739927848FA689B789FC
:101890002C93A089B1898C9180648C93938D848DD5
:1018A000981306C00288F389E02D80818F7D8083A4
:1018B0000895CF93DF93EC01888D8823C9F0EA89DE
:1018C000FB89808185FD05C0A889B9898C9186FD39
:1018D0000FC00FB607FCF5CF808185FFF2CFA88936
:1018E000B9898C9185FFEDCFCE010E94380CE7CFEE
:1018F000DF91CF910895EF92FF920F931F93CF93B3
:10190000DF93EC0181E0888F9B8D8C8D981305C04F
:10191000E889F989808185FD24C0F62E0B8D10E0C1
:101920000F5F1F4F0F731127E02E8C8DE8120CC034
:101930000FB607FCFACFE889F989808185FFF5CFDA
:10194000CE010E94380CF1CF8B8DFE01E80FF11D06
:10195000E35AFF4FF0820B8FEA89FB898081806216
:1019600007C0EE89FF896083E889F98980818064F6
:10197000808381E090E0DF91CF911F910F91FF90E4
:10198000EF900895CF92DF92EF92FF921F93CF9343
:10199000DF93EC016A017B01122FE889F98982E06B
:1019A00080834115514E61057105B1F060E079E029
:1019B0008DE390E0A70196010E944431DA01C9014C
:1019C0000197A109B109B695A79597958795AC019F
:1019D000411580E15807A8F0E889F989108260E88C
:1019E00074E88EE190E0A70196010E944431BA01AB
:1019F000A90141505109610971097695679557957B
:101A00004795EC85FD855083EE85FF854083188ED4
:101A1000EC89FD891083EA89FB898081806180835C
:101A2000EA89FB89808188608083EA89FB898081DB
:101A300080688083EA89FB8980818F7D8083DF9144
:101A4000CF911F91FF90EF90DF90CF9008958F92EC
:101A50009F92AF92BF92CF92DF92EF92FF920F933D
:101A60001F93CF93DF937C018B016C0182E0C80E42
:101A7000D11C4701E5E08E0E911CC0E0D0E0F601DC
:101A800061916F014AE050E0C8010E94470B5C0180
:101A90006EE2C8010E94670A8A0D9B1DC80FD91FFC
:101AA000C814D90461F74AE050E0F7016581C80124
:101AB0000E94470B8C0F9D1FDF91CF911F910F91BB
:101AC000FF90EF90DF90CF90BF90AF909F908F905E
:101AD000089525E734E0FC013183208312821382CC
:101AE0001482158208950F93FC0185E794E0918399
:101AF000808362834383248305830F91089525E7C0
:101B000034E0FC0131832083FB01408151816281FB
:101B10007381FC0142835383648375830895FB01C1
:101B20004081518162817381FC01428353836483CC
:101B300075830895E2E2F6E085E794E0918380837F
:101B400012821382148215820895FC018081918192
:101B50000C94762ACF93DF93EC01888199810097CA
:101B600011F00E94762A198218821D821C821B8223
:101B70001A82DF91CF9108950F931F93CF93DF9334
:101B8000EC018B016F5F7F4F888199810E946A2BE6
:101B9000009731F0998388831B830A8381E001C019
:101BA00080E0DF91CF911F910F910895CF93DF9344
:101BB000EC0188819981892B29F08A819B81861784
:101BC000970760F4CE010E94BC0D882341F08C8100
:101BD0009D81892B19F4E881F981108281E0DF91E0
:101BE000CF910895EF92FF920F931F93CF93DF93BE
:101BF000EC017B018A01BA010E94D60D811104C05B
:101C0000CE010E94AA0D07C01D830C83B7018881F5
:101C100099810E94562CCE01DF91CF911F910F9197
:101C2000FF90EF900895FC011182108213821282BE
:101C3000158214826115710551F0FB01019000209D
:101C4000E9F73197AF01461B570B0C94F20D08953D
:101C5000CF93DF93EC016115710559F0FB01019001
:101C60000020E9F73197AF01461B570B0E94F20D98
:101C700002C00E94AA0DCE01DF91CF9108950F936B
:101C80001F93CF93DF93CDB7DEB729970FB6F894A4
:101C9000DEBF0FBECDBF8C01862FF80111821082EE
:101CA000138212821582148250E0BE016F5F7F4F53
:101CB00090E00E94A02CBE016F5F7F4FC8010E9480
:101CC000280E29960FB6F894DEBF0FBECDBFDF9168
:101CD000CF911F910F9108950F931F93CF93DF938F
:101CE000CDB7DEB762970FB6F894DEBF0FBECDBF9B
:101CF0008C01CB01F80111821082138212821582AD
:101D0000148250E0BE016F5F7F4F0E945D2CBE01C8
:101D10006F5F7F4FC8010E94280E62960FB6F8943D
:101D2000DEBF0FBECDBFDF91CF911F910F91089500
:101D30000F931F93CF93DF93CDB7DEB761970FB6A5
:101D4000F894DEBF0FBECDBF8C01CB01F80111822C
:101D50001082138212821582148250E0BE016F5FDE
:101D60007F4F0E94A02CBE016F5F7F4FC8010E9471
:101D7000280E61960FB6F894DEBF0FBECDBFDF917F
:101D8000CF911F910F9108950F931F93CF93DF93DE
:101D9000CDB7DEB7A1970FB6F894DEBF0FBECDBFAB
:101DA0008C01CB01BA01F8011182108213821282D8
:101DB0001582148230E0AE014F5F5F4F0E94732C9A
:101DC000BE016F5F7F4FC8010E94280EA1960FB61B
:101DD000F894DEBF0FBECDBFDF91CF911F910F9161
:101DE0000895EF92FF920F931F93CF93DF93CDB798
:101DF000DEB7A1970FB6F894DEBF0FBECDBF7C0152
:101E0000CB01BA01F701118210821382128215826E
:101E1000148242E0420F8E010F5F1F4F0E94C129C2
:101E2000BC01C7010E94280EA1960FB6F894DEBF30
:101E30000FBECDBFDF91CF911F910F91FF90EF901B
:101E40000895FC0124813581232B31F421E06115B3
:101E50007105A1F0FB0108C0FC0180819181611531
:101E6000710531F421E0FC018081882339F005C03F
:101E70000E944D2C21E0892B09F020E0822F08954B
:101E8000DC01ED91FC910190F081E02D0994089521
:101E900060E470E080EC96E00E9426216EEF70E036
:101EA00080EC96E00E94400F80EC96E00E94A52115
:101EB0006FE070E080E090E00C940709CF93DF932F
:101EC000EC0180EC96E00E941221CE010E94480FA6
:101ED00060E470E080EC96E00E94262167EE70E0FE
:101EE00080EC96E00E94400F80EC96E00E94A521D5
:101EF00041E050E060E470E080EC96E00E94A221B6
:101F000080EC96E00E947F2021E0029709F020E01B
:101F1000822FDF91CF910895CF93DF9360E470E03B
:101F200080EC96E00E94262163EE70E080EC96E063
:101F30000E94400F80EC96E00E94A52162E370E0D1
:101F400080E090E00E94070943E050E060E470E028
:101F500080EC96E00E94A22180EC96E00E9477201F
:101F6000892BD1F380EC96E00E947F20D82F80E06F
:101F7000C82F80EC96E00E947F20C82BD92B80ECE4
:101F800096E00E947F20BE0180E090E00E94D32D69
:101F900022E538EB4FE253E40E94612E20E030E06E
:101FA00040E857E30E94612E26E636E64BE352E412
:101FB0000E94C52CDF91CF910895CF93DF9360E409
:101FC00070E080EC96E00E94262165EE70E080ECE7
:101FD00096E00E94400F80EC96E00E94A52162E30B
:101FE00070E080E090E00E94070943E050E060E488
:101FF00070E080EC96E00E94A22180EC96E00E94C6
:102000007720892BD1F380EC96E00E947F20D82F97
:1020100080E0C82F80EC96E00E947F20C82BD92B4F
:1020200080EC96E00E947F20BE0180E090E00E945C
:10203000D32D20E030E04AEF52E40E94612E20E0F0
:1020400030E040E857E30E94612E20E030E040ECB1
:1020500050E40E94C52CDF91CF91089508951F93FD
:10206000CF93DF9300D0CDB7DEB7162FFC01608190
:1020700080EC96E04A8359830E941C21612F80ECFA
:1020800096E00E94D3205981652F80EC96E00E9453
:10209000D3204A81642F80EC96E00E94D32080EC0C
:1020A00096E00F900F90DF91CF911F910C94A52196
:1020B0001F93CF93DF93EC01162F688180EC96E09D
:1020C0000E941C21612F80EC96E00E94D32080ECBE
:1020D00096E00E94A52142E0688180EC96E00E9493
:1020E0009F2180EC96E00E947F20D82F80E0C82FAF
:1020F00080EC96E00E947F208C2B9D2BDF91CF916E
:102100001F910895CF93DF93EC01688380EC96E0F4
:102110000E94122166E0CE010E945810843591057C
:1021200011F080E00EC067E0CE010E9458108115CA
:102130009440B9F740E050E061E0CE010E942F10DA
:1021400081E0DF91CF910895CF93DF9365E00E9406
:102150005810EC01BC017F7080E090E00E94D32D0C
:1021600020E030E040E85DE30E94612ED4FF06C02D
:1021700020E030E040E853E40E94C52CDF91CF918D
:1021800008958FEF9FEF9093290680932806089576
:102190001F920F920FB60F9211240F900FBE0F9047
:1021A0001F901895A8950895DA01F90160348FE120
:1021B00078071CF46115710539F489E090E08D937E
:1021C0009C9380E49FE158C0603A8FE078073CF030
:1021D00088E090E08D939C9380EA9FE04DC0603D45
:1021E00087E078073CF087E090E08D939C9380ED4A
:1021F00097E042C0683E83E078073CF086E090E0DC
:102200008D939C9388EE93E037C0643F81E078071C
:102210003CF085E090E08D939C9384EF91E02CC09E
:102220006A3F71053CF084E090E08D939C938AEFC7
:1022300090E022C0683771053CF083E090E08D9318
:102240009C9388E790E018C06C3371053CF082E005
:1022500090E08D939C938CE390E00EC06E317105FD
:102260003CF081E090E08D939C938EE190E004C07F
:102270001D921C928FE090E09183808308950F93CC
:102280001F93CF93DF9300D0CDB7DEB78C019E01B3
:102290002F5F3F4FAC010E94D410F801808183FD75
:1022A00002C098E001C098E28770892B98E10FB6D0
:1022B000F894A895909360000FBE80936000898188
:1022C0009A810F900F90DF91CF911F910F910895F8
:1022D000DC01ED91FC91048CF58DE02D099425E74E
:1022E00034E0FC0131832083FB01408951896289FC
:1022F0007389FC0142835383648375830895FC01D1
:10230000848995890895FC01818D928D0895CF93DC
:10231000DF931F92CDB7DEB76983DC01ED91FC91AD
:102320000280F381E02D41E050E0BE016F5F7F4FFE
:1023300009950F90DF91CF9108950895CF93DF9382
:10234000EC01888D843061F00E941E17E88DF0E06A
:10235000EE0FFF1FE855F94F1182108284E0888F3D
:10236000DF91CF910895FC01178A168A6E5F7F4F27
:10237000808D0C949C18FC01808D0C94E218CF93F6
:10238000DF93EC019A018E899F89AB01BC01888D96
:102390000E9455182E893F89280F391F3F8B2E8B9D
:1023A000DF91CF9108950F931F93CF93DF931F92E7
:1023B000CDB7DEB7FC01218D328D232B61F08C016E
:1023C00041E050E0BE016F5F7F4F808D0E949B1700
:1023D000181619061CF08FEF9FEF08C0F801818DC9
:1023E000928D0197928F818F898190E00F90DF917C
:1023F000CF911F910F910895CF93DF93FC01218D11
:10240000328D2115310519F48FEF9FEF11C0EC01CA
:102410004217530708F0A901888D0E949B171816D0
:10242000190694F7298D3A8D281B390B3A8F298F7D
:10243000DF91CF910895CF93DF931F92CDB7DEB791
:10244000FC01218D328D232B49F0BE016F5F7F4F40
:10245000808D0E942618898190E002C08FEF9FEF47
:102460000F90DF91CF910895EF92FF921F93CF933A
:10247000DF93FC01208D243011F080E01CC07B0133
:10248000EC0110E0812F0E94F616811102C0188F16
:1024900005C08831E1F31F5F1430A1F7888D8430C7
:1024A00061F3FD86EC861A8E198E20E0A70162E0AA
:1024B0000E94481781E0DF91CF911F91FF90EF902C
:1024C00008950F931F93CF93DF93CDB7DEB728976F
:1024D0000FB6F894DEBF0FBECDBF8C01F801818D21
:1024E000928D892B49F0D801ED91FC910284F385FE
:1024F000E02DC8010995F2CF808D0E94FB171816B8
:10250000190654F548E050E0BE016F5F7F4FD801D7
:1025100058968C910E949B179C0118161906D4F4AA
:10252000BE016F5F7F4FC8010E960E948F0D8D8197
:1025300090E0982F88272E81820F911DF801958BAE
:10254000848B2F8130E0322F22278885280F311D80
:10255000328F218FC90102C080E090E028960FB62B
:10256000F894DEBF0FBECDBFDF91CF911F910F91C9
:1025700008958F929F92AF92BF92CF92DF92EF9287
:10258000FF920F931F93CF93DF9300D000D000D022
:10259000CDB7DEB7FC01208D243009F068C06A0198
:1025A0007B018C0153E0852E54E0952EA12CB12C9B
:1025B000C4010E949C14811103C0F801A08E0AC0BE
:1025C0008831D9F3FFEFAF1ABF0A9394E4E0AE1657
:1025D000B10471F7F801808D843009F448C096E0A9
:1025E000E6E1F1E0DE01119601900D929A95E1F796
:1025F000F70193819F779C8394819D8395819E832E
:10260000B7016E5F7F4F90E0982F882744E050E03D
:10261000845F9B4F0E946D14F801E08CF12CF4E074
:10262000EF0EF11CFE2CEE246D2DC70140960E948A
:10263000D9136C2DC70141960E94D913F801808DE2
:1026400090E0982F882746E050E0BE016F5F7F4FF3
:102650008A5F9B4F0E946D14F801128E118E20E844
:10266000A60162E0808D0E94481781E001C080E0F1
:1026700026960FB6F894DEBF0FBECDBFDF91CF9187
:102680001F910F91FF90EF90DF90CF90BF90AF9090
:102690009F908F900895CF93DF93EC011B821A8255
:1026A00088EE93E0A0E0B0E08C839D83AE83BF838F
:1026B0008BE794E099838883CE010E960E94690D82
:1026C00084E0888FDF91CF910895CF92DF92EF92CF
:1026D000FF920F931F93CF93DF93CDB7DEB7AF97E2
:1026E0000FB6F894DEBF0FBECDBF8C016B017A012F
:1026F000CE0101960E94690DCE0109960E944B13EE
:10270000CE018A960E94690D62E476E0CE0184963D
:102710000E94631ABE016C5D7F4FCE0101960E943C
:10272000851AAE01465D5F4FB601CE0101960E944B
:10273000F41C81309105C1F4D801ED91FC9104881D
:10274000F589E02D85E794E09DA38CA38CA59DA53C
:10275000AEA5BFA58EA39FA3A8A7B9A7A701BE0139
:102760006C5D7F4FC8010995AF960FB6F894DEBF38
:102770000FBECDBFDF91CF911F910F91FF90EF90D2
:10278000DF90CF9008950F9300E020E040E060E0FC
:102790008AE296E00E94730D0F9108958EBD0000AD
:1027A0000DB407FEFDCF8EB508952A9808952A9A94
:1027B00008951F93CF93DF9300D0CDB7DEB7182FC6
:1027C0006A8399830E94D51380EF0E94CE1399816A
:1027D000892F0E94CE13812F0E94CE136A81862FEB
:1027E0000E94CE130E94D71381E00F900F90DF91CB
:1027F000CF911F910895CF93DF93EC016CE271E0CC
:1028000080E090E00E9407090E94821D229A809138
:10281000BE06882399F02FB7F8948091BE068130C8
:1028200059F48DB38093BC069DB38091BD0680950D
:1028300089238DBB2FBF02C02093BC0680E58CBDD1
:102840001DBC60E880E090E00E94D91365E58BE153
:1028500090E00E94D91365E58AE190E00E94D913C7
:102860008091BE06882351F09FB7F8942091BE0650
:102870008091BC06213029F58DBB9FBF80E090E49C
:102880009983888380E090E69987888780E098E440
:102890009B838A8380E098E69B878A8780E090E527
:1028A0009D838C8380E090E79D878C8780E098E50E
:1028B0009F838E8380E098E79F878E87DF91CF91FB
:1028C00008958FBFDBCF9B0190E00496982F882757
:1028D000642F820F931F0C94D913CF92DF92EF9243
:1028E000FF920F931F93CF93DF93EC017A018B013B
:1028F0006C01C40ED51ECC15DD05A1F00E94D513C8
:1029000080EF0E94CE138D2F0E94CE138C2F0E9439
:10291000CE132196F80181918F010E94CE130E945F
:10292000D713E9CFC701DF91CF911F910F91FF908E
:10293000EF90DF90CF9008951F93CF93DF931F9276
:10294000CDB7DEB7182F99830E94D5138FE00E9470
:10295000CE139981892F0E94CE13812F0E94CE130E
:1029600080E00E94CE1389830E94D71389810F9043
:10297000DF91CF911F91089590E00496982F8827BA
:10298000860F971F0C949C141F93CF93DF93182FDF
:1029900060E270E00E94BC14C82FD0E061E270E0F9
:1029A000812F0E94BC14DC2FCC279E01282BC9014B
:1029B000DF91CF911F910895FF920F931F93CF93B3
:1029C000DF93F62EC0E0D0E08F2D0E94C4148C015E
:1029D000892B21F08F2D0E94C414EC01C017D10760
:1029E00099F7CE01DF91CF911F910F91FF9008953C
:1029F0001F93CF93DF93182F66E270E00E94BC1400
:102A0000C82FD0E067E270E0812F0E94BC14DC2F59
:102A1000CC279E01282BC901DF91CF911F910895EA
:102A2000FF920F931F93CF93DF93F62EC0E0D0E079
:102A30008F2D0E94F8148C01892B21F08F2D0E947C
:102A4000F814EC01C017D10799F7CE01DF91CF91AF
:102A50001F910F91FF9008956F927F928F929F9296
:102A6000AF92BF92CF92DF92EF92FF920F931F939C
:102A7000CF93DF931F92CDB7DEB7882E962E6A01D3
:102A8000590164E270E0892D99830E94BC14E82EFC
:102A9000F12C65E270E0892D0E94BC14FE2CEE241E
:102AA000E82A37016C0C7D1CA3015770E82C998132
:102AB000F92EE90CF11CE90CF11CF70180819181E0
:102AC000840F951F9A01200F311F2130384098F054
:102AD00060E078E06B01C41AD50AA601B5010E9436
:102AE0006D14A8014C195D09B5016C0D7D1DF70130
:102AF0008081918102C0A801B5010E946D14060D6C
:102B0000171D412F64E270E0892D0E946314402F4D
:102B100065E270E0892D0F90DF91CF911F910F91A9
:102B2000FF90EF90DF90CF90BF90AF909F908F90ED
:102B30007F906F900C946314CF92DF92EF92FF928C
:102B40000F931F93CF93DF93EC017A018B016C01FC
:102B5000C40ED51ECC15DD05A9F00E94D5138FE05B
:102B60000E94CE138D2F0E94CE138C2F0E94CE1365
:102B7000219680E00E94CE13F80181938F010E947C
:102B8000D713E8CFC701DF91CF911F910F91FF902D
:102B9000EF90DF90CF900895AF92BF92CF92DF92E7
:102BA000EF92FF920F931F93CF93DF9300D0CDB797
:102BB000DEB75A834983590129813A8137706C0104
:102BC000C60ED11CC60ED11CF60180859185820FE0
:102BD000931FA801420F531F4130584098F0E0E086
:102BE000F8E07F01E21AF30AA701B5010E949C15E3
:102BF000A8014E195F09B5016E0D7F1DF601808594
:102C0000918502C0A801B5010F900F90DF91CF917F
:102C10001F910F91FF90EF90DF90CF90BF90AF90FA
:102C20000C949C158F929F92AF92BF92CF92DF929D
:102C3000EF92FF920F931F93CF93DF936C01962E29
:102C40005A017901802E68E270E0892D0E94BC143F
:102C5000C82FD0E069E270E0892D0E94BC14DC2FFF
:102C6000CC27C82B87019501AE01692DC6010E94B2
:102C7000CC1581101AC0CE0DDF1D4D2F68E270E01B
:102C8000892D0E9463144C2F69E270E0892DDF9139
:102C9000CF911F910F91FF90EF90DF90CF90BF9059
:102CA000AF909F908F900C946314DF91CF911F9100
:102CB0000F91FF90EF90DF90CF90BF90AF909F90DB
:102CC0008F900895CF93C62F61E070E08C2F0E9403
:102CD000631461E070E08C2F0E94BC148111F9CF65
:102CE000CF9108950F93FC0130E080E092E1AAE7D4
:102CF000B0E0481759076A077B0740F4B695A795D7
:102D0000979587953F5F3630A1F737E091E093279D
:102D1000222311F020E501C020E7892F86950C7051
:102D2000082B022B0083917091830F9108952091BD
:102D3000BE06222399F04FB7F8942091BE062130A9
:102D400059F42DB32093BC063DB32091BD062095C8
:102D500023232DBB4FBF02C04093BC068CBD9DBD3D
:102D600008958091BE06882361F09FB7F894209162
:102D7000BE068091BC06213019F48DBB9FBF08951B
:102D80008FBF089590E0982F882744E050E0845F3B
:102D90009B4F0C946D1462E070E00C94BC14CF93C4
:102DA000DF93C82FD62F472F64E070E00E94631492
:102DB0004D2F65E070E08C2FDF91CF910C94631460
:102DC000462F62E070E00C946314CF93DF93C82F1A
:102DD000D62F472F60E170E00E9463144D2F61E110
:102DE00070E08C2FDF91CF910C9463140F931F939D
:102DF000CF93DF9300D01F92CDB7DEB7182F00E03E
:102E000021E040E059E06DE370E0CE0101960E94C0
:102E1000721689819A810E94971663E070E0812F73
:102E20000E94BC148B830E94B1168B810F900F906F
:102E30000F90DF91CF911F910F9108950F931F93E2
:102E4000CF93DF9300D0CDB7DEB7182F00E021E09D
:102E500040E059E06DE370E0CE0101960E947216E9
:102E600089819A810E94971640E150E0612F80E3AA
:102E700096E00E9462166FEF812F0E94E0160E947A
:102E8000B1160F900F90DF91CF911F910F91089580
:102E9000CF92DF92EF92FF920F931F93CF93DF9326
:102EA00000D0CDB7DEB79FEF960F9530C0F5F22E6C
:102EB0006A01E62E182F0E941E1700E021E040E074
:102EC00059E06DE370E0CE0101960E94721689818F
:102ED0009A810E9497164E2D4F2960E070E0812F55
:102EE0000E946314C114D10411F0B6010AC06091AC
:102EF0004006709141066F5F7F4F7093410660936B
:102F00004006812F0E94CF1641E050E0612F80E300
:102F100096E00E9462160E94B11681E001C080E036
:102F20000F900F90DF91CF911F910F91FF90EF9035
:102F3000DF90CF900895AF92BF92CF92DF92EF9241
:102F4000FF920F931F93CF93DF9300D0CDB7DEB7DF
:102F5000182F5B016A0100E021E040E059E06DE3D9
:102F600070E0CE0101960E94721689819A810E94BA
:102F70009716612F80E396E00E9410157C01009760
:102F8000A1F463E070E0812F0E94BC14843119F138
:102F9000882309F121E030E08C3111F420E030E0A9
:102FA000EE24FF24E21AF30A16C0C816D9060CF460
:102FB00076011E141F047CF400E09701A501612F27
:102FC00080E396E00E94121640E450E0612F80E317
:102FD00096E00E9462160E94B116C7010F900F90F2
:102FE000DF91CF911F910F91FF90EF90DF90CF90E5
:102FF000BF90AF9008950F931F93CF93DF9300D0AE
:1030000000D0CDB7DEB7182F00E021E040E059E056
:103010006DE370E0CE0101960E94721689819A815B
:103020000E949716612F80E396E00E9410158B8313
:103030009C830E94B1168B819C810F900F900F9002
:103040000F90DF91CF911F910F910895EF92FF9212
:103050000F931F93CF93DF9300D0CDB7DEB7182F18
:103060007B0100E021E040E059E06DE370E0CE013B
:1030700001960E94721689819A810E94971601E03A
:1030800021E030E0A701612F80E396E00E94121654
:103090000E94B11681E090E00F900F90DF91CF91E8
:1030A0001F910F91FF90EF9008958F929F92AF9292
:1030B000BF92DF92EF92FF920F931F93CF93DF9314
:1030C00000D0CDB7DEB7D82E5B014A01790100E010
:1030D00021E040E059E06DE370E0CE0101960E94EE
:1030E000721689819A810E9497166D2D80E396E071
:1030F0000E94DC148E159F0530F46D2D80E396E060
:103100000E94DC147C0187019401A5016D2D80E3F0
:1031100096E00E942C150E94B116C7010F900F90E7
:10312000DF91CF911F910F91FF90EF90DF90BF90B3
:10313000AF909F908F900895CF92DF92EF92FF9281
:103140000F931F93CF93DF9300D0CDB7DEB7FB0172
:103150009081911109C09181911106C092819111C4
:1031600003C09381992309F141155105F1F06A01DA
:103170007F01182F00E021E040E059E06DE370E0AE
:10318000CE0101960E94721689819A810E9497163B
:10319000B701812F0E94C216B601812F0E94E51649
:1031A0000E94B11681E090E002C080E090E00F90B4
:1031B0000F90DF91CF911F910F91FF90EF90DF90D3
:1031C000CF9008950F931F93CF93DF9300D0CDB787
:1031D000DEB7182F00E021E040E059E06DE370E039
:1031E000CE0101960E94721689819A810E949716DB
:1031F00040E250E0612F80E396E00E946216812F4A
:103200000E94CB1684FD21C0812F0E94CB1683FF24
:1032100009C068E1812F0E94E0160E94B11680E08B
:1032200090E01BC00E94B1160E947E0900E021E0E0
:1032300040E059E06DE370E0CE0101960E94721605
:1032400089819A810E949716DACF60E1812F0E94CE
:10325000E0160E94B11681E090E00F900F90DF9190
:10326000CF911F910F91089544E050E0BC0181E09F
:1032700090E00C946D1444E050E0BC0185E090E0D7
:103280000C946D1444E050E0BC018FE090E00C948D
:103290006D142F923F924F925F926F927F928F9216
:1032A0009F92AF92BF92CF92DF92EF92FF920F93D5
:1032B0001F93CF93DF9300D000D000D0CDB7DEB7FF
:1032C0006C011B0129013A01470158018AE496E08B
:1032D000F6019783868380E396E00E94FB1380E5E6
:1032E00090E00E94971646E050E0B10189E090E03E
:1032F0000E946D1400E020E040E060E0CE01019605
:103300000E94730DCE0103960E9442190E94B116CD
:1033100085017401A3019201B101F60186819781B3
:103320000E94E5288C010197B9F580E590E00E94A4
:103330009716F60166817781CE0101960E941F24BF
:10334000CE0103960E944219F60166817781CE0173
:1033500001960E943524CE0103960E943419F6018D
:1033600066817781CE0101960E942A24CE010396C0
:103370000E943B190E94B116F60166817781CE0149
:1033800001960E9440248B819C81AD81BE81F60113
:1033900082839383A483B583C80126960FB6F894DD
:1033A000DEBF0FBECDBFDF91CF911F910F91FF9078
:1033B000EF90DF90CF90BF90AF909F908F907F90D5
:1033C0006F905F904F903F902F900895EF92FF92F3
:1033D0000F931F93CF93DF9300D000D000D0CDB7D1
:1033E000DEB7FC01268137812115310509F443C080
:1033F0008C01C9010E9424297C01029721F084E0FC
:10340000E816F104D1F580E590E00E949716F801E6
:1034100066817781CE0101960E941F24CE0103961A
:103420000E944219F80166817781CE0101960E94BF
:103430003524CE0103960E943419F8016681778104
:10344000CE0101960E942A24CE0103960E943B19C8
:103450000E94B116F80166817781CE0101960E9423
:1034600040248B819C81AD81BE81F801828393834E
:10347000A483B58302C0E12CF12CC70126960FB6B8
:10348000F894DEBF0FBECDBFDF91CF911F910F919A
:10349000FF90EF900895CF93DF93EC010E94690DA8
:1034A00080E590E00E949716BE016E5F7F4F44E07A
:1034B00050E08FE090E00E949C150E94B116CE0172
:1034C000DF91CF91089525E734E0FC01318320831B
:1034D000FB014281538164817581FC0142835383E6
:1034E0006483758308950F9300E020E040E060E07E
:1034F00080EB96E00E94730D8DE896E00E944B13DE
:1035000082E496E00F910C94690DFB014281538196
:1035100064817581FC0142835383648375831782C0
:1035200016820895CF93DF93FB0120E080E090E0C6
:10353000AAE03191332301F160ED630F6A3080F42A
:10354000A89FB001A99F700D1124CB01C097830FD4
:10355000911D37FD9A958F3F910559F350F313C094
:103560003E3289F4233079F0EA01C20FD11D8A83FB
:103570002F5F80E090E0DDCF233029F4FA018583CE
:1035800081E090E002C080E090E0DF91CF9108956B
:103590000F9300E020E040E060E086EB96E00E94C0
:1035A000730D0F9108958F929F92AF92BF92CF9219
:1035B000DF92EF92FF920F931F93CF93DF9300D090
:1035C00000D01F92CDB7DEB78C016B010E94D608E8
:1035D000F801778366837627672776277A8369835E
:1035E000085F1F4F42E050E0BE016F5F7F4FC80190
:1035F0000E94BF1181E090E09C838B8342E050E009
:10360000BE016D5F7F4FC8010E94BF1180E091E055
:103610009C838B8342E050E0BE016D5F7F4FC80109
:103620000E94BF111C821B8242E050E0BE016D5F10
:103630007F4FC8010E94BF1142E050E0BE016D5FA4
:103640007F4FC8010E94BF1142E050E0BE016D5F94
:103650007F4FC8010E94BF115601F5018081882368
:1036600029F1C6017C01FC0120810196211116C0BF
:10367000570147018C189D081814190494F48D8281
:1036800041E050E0BE016B5F7F4FC8010E94BF1157
:10369000A401B601C8010E94BF1103C02E3211F768
:1036A000E7CF6701FFEFCF1ADF0AD7CF1D8241E0D6
:1036B00050E0BE016B5F7F4FC8010E94BF11E12C3B
:1036C000FF24F394FC82EB8242E050E0BE016D5F88
:1036D0007F4FC8010E94BF11FC82EB8242E050E0A4
:1036E000BE016D5F7F4FC8010E94BF1181E090E075
:1036F0000F900F900F900F900F90DF91CF911F912F
:103700000F91FF90EF90DF90CF90BF90AF909F9080
:103710008F9008954F925F926F927F928F929F92B7
:10372000AF92BF92CF92DF92EF92FF920F931F93CF
:10373000CF93DF93CDB7DEB765970FB6F894DEBFB2
:103740000FBECDBF7C015B016A010E94D6082B0130
:103750003C018701085F1F4F4501A12CB12CC80116
:103760000E94611218161906A4F00E94D608DC0106
:10377000CB0184199509A609B70988169906AA06E6
:10378000BB06D0F062E370E080E090E00E940709A1
:10379000E6CFF7014281538164817581808D918DDF
:1037A000A28DB38D481759076A077B0741F4848DB2
:1037B000958DC59721F406C02FEF3FEFFDC02EEF8A
:1037C0003FEFFAC0C8010E9483110C97ECF04CE067
:1037D00050E0BE016F5F7F4FC8010E94FC116C81F9
:1037E0008B810E9413249A8B898BF701E680F780E6
:1037F0006A8189810E941324E816F90641F48989B7
:103800009A8997FF04C009C02DEF3FEFD5C0C801CA
:103810000E949D112CEF3FEFCFC08F709270892BCB
:1038200031F0C8010E949D112BEF3FEFC5C06885A4
:103830008F810E9413245C01892B31F4C8010E94FE
:103840009D112AEF3FEFB8C0E12CF12C6E818D81E4
:103850000E941324E816F90640F541E050E0BE014D
:10386000635F7F4FC8010E94FC118D85811113C0D9
:103870008D858111F2CFC8010E94D311C8010E9429
:10388000D311C8010E94D311C8010E94D311FFEFC8
:10389000EF1AFF0ADBCF8D859FEF980F9D87882356
:1038A00039F3C8010E94D311F6CFE12CF12C41E08D
:1038B00050E0BE016D5E7F4FC8010E94FC118B89F4
:1038C000982F907C61F4882371F08B899FEF980F7B
:1038D0009B8B882341F0C8010E94D311F6CFC80109
:1038E0000E94D3111B8A8B898111E1CF42E050E005
:1038F000BE01615F7F4FC8010E94FC1142E050E0B1
:10390000BE01635F7F4FC8010E94FC11C8010E9485
:10391000D311C8010E94D311C8010E94D311C8015C
:103920000E94D31142E050E0BE016F5E7F4FC8019C
:103930000E94FC118F8598898115914001F52D8594
:103940003E8532272327322721303105C1F489896A
:103950009A898115944031F0C8010E949D1127EF8A
:103960003FEF2AC0B6016E5F7F4F44E050E0C801D0
:103970002C8B3D8B0E94FC112C893D891DC0812C14
:10398000912C89899A8998278927982788169906DA
:1039900038F4C8010E94D3118FEF881A980AF1CF2A
:1039A000EFEFEE1AFE0AEA14FB0409F080CFC8011B
:1039B0000E949D1126EF3FEFC90165960FB6F8945E
:1039C000DEBF0FBECDBFDF91CF911F910F91FF9052
:1039D000EF90DF90CF90BF90AF909F908F907F90AF
:1039E0006F905F904F9008958F929F92AF92BF9289
:1039F000CF92DF92EF92FF920F931F93CF93DF93BB
:103A000000D000D000D0CDB7DEB77C014B015A0109
:103A10000E94921A8C01892B09F05BC0F701428148
:103A20005381648175818091B8069091B906A09107
:103A3000BA06B091BB06481759076A077B0709F415
:103A40004BC00E94D6086701F8E0CF0ED11C6F7002
:103A500077277C5FC6010E943412813009F03EC096
:103A600085E794E09A838983F70182819381A48119
:103A7000B5818B839C83AD83BE8345E350E0BE015B
:103A80006F5F7F4FC6010E94B311892B19F400E0CC
:103A900010E01BC0B401C7010E94D31A892BB9F3EF
:103AA000C6010E94BB11892B91F383E0882E912CD3
:103AB000A50168E873E1C7010E948A1B8C01F1E04F
:103AC0008F1A910811F0019699F3C6010E949E1178
:103AD00005C001E010E002C00EEF1FEFC8012696FE
:103AE0000FB6F894DEBF0FBECDBFDF91CF911F910F
:103AF0000F91FF90EF90DF90CF90BF90AF909F908D
:103B00008F900895CF93CFB7F8948091BF0681111D
:103B100027C0EAE9F0E08491E6E8F0E09491E82F2C
:103B2000F0E0EE0FFF1FE255FF4FA591B491EC912D
:103B3000E92321F461E08AE00E94E40961E08AE07F
:103B40000E94A8098CB580618CBD8CB580648CBD49
:103B500061E08DE00E94A80961E08BE00E94A80965
:103B60008091BF068F5F8093BF06CFBFCF9108952E
:103B7000FC01148215821682178208951F93CF9339
:103B8000DF931F92CDB7DEB7162FFC01608180EC6A
:103B900096E049830E941C21612F80EC96E00E94F0
:103BA000D3204981642F80EC96E00E94D32080ECE2
:103BB00096E00F90DF91CF911F910C94A5211F9358
:103BC000CF93DF9300D0CDB7DEB7162FFC01608115
:103BD00080EC96E04A8359830E941C21612F80EC7F
:103BE00096E00E94D3205981652F80EC96E00E94D8
:103BF000D3204A81642F80EC96E00E94D32080EC91
:103C000096E00F900F90DF91CF911F910C94A5211A
:103C10001F93CF93DF93EC01162F688180EC96E021
:103C20000E941C21612F80EC96E00E94D32080EC42
:103C300096E00E94A52141E0688180EC96E00E9418
:103C40009F21C8EED3E080EC96E00E947720181602
:103C5000190634F0209711F02197F5CF80E006C0C7
:103C6000CD2BE1F380EC96E00E947F20DF91CF9195
:103C70001F9108950F93CF93DF93EC016370417010
:103C80004295407F2F70422B6295660F607E462BD7
:103C90006EE10E94BE1D002321F0083018F007E0FD
:103CA00001C001E08FEF800F61E070E002C0660F9D
:103CB000771F8A95E2F7072E000C880B990B0E945C
:103CC000D52D9B01AC0160E074E284EF99E40E9481
:103CD000322D0E94A42D6C837D838E839F836FE1A0
:103CE000CE010E94081E8F780295007F482F402B3E
:103CF0006FE1CE01DF91CF910F910C94BE1D1F9308
:103D0000CF93DF93EC01162F688180EC96E00E9440
:103D10001C21612F80EC96E00E94D32080EC96E07D
:103D20000E94A52142E0688180EC96E00E949F21DC
:103D3000C0EDD7E080EC96E00E94772002973CF43B
:103D4000209711F02197F6CF80E090E011C0CD2BA5
:103D5000D9F380EC96E00E947F20C82F80EC96E09B
:103D60000E947F2020E030E03C2FA901482BCA01AF
:103D7000DF91CF911F910895CF92DF92EF92FF9242
:103D80000F931F93CF93DF938C01D62FF42E6EE009
:103D90000E947F1E41E050E09A0102C0220F331FB3
:103DA000DA95E2F7E9018095909582239323892B98
:103DB00089F060E1C8010E947F1EFF2021F0AC0164
:103DC0004C2B5D2B05C0C095D095AC014C235D23D9
:103DD00060E125C066E0C8010E947F1E6C0168E0BA
:103DE000C8010E947F1E9E0120953095FF2061F042
:103DF0007C01E222F322A6014C2B5D2B66E0C80178
:103E00000E94DF1DA7010AC0C82BD92BA60142239F
:103E1000532366E0C8010E94DF1DAE0168E0C801BF
:103E2000DF91CF911F910F91FF90EF90DF90CF9096
:103E30000C94DF1D0C94BC1EFF920F931F93CF9325
:103E4000DF938C01F62E6EE00E947F1EC1E0D0E071
:103E500002C0CC0FDD1FFA94E2F78C239D23892B3F
:103E600049F060E1C8010E947F1EC823D92381E088
:103E7000CD2B09F480E0DF91CF911F910F91FF903E
:103E800008950C941C1FCF92DF92EF92FF920F9334
:103E90001F93CF93DF931F92CDB7DEB76C01162F20
:103EA00060E029830E947F1E41E050E0BA0102C019
:103EB000660F771F1A95E2F78B01AC01462B572B43
:103EC00060E0C6010E94DF1D66E0C6010E947F1E01
:103ED0007801E094F094AC014E215F2166E0C601C8
:103EE0000E94DF1D6EE0C6010E947F1EAC014E21C4
:103EF0005F216EE0C6010E94DF1D6EE1C6010E94D7
:103F0000081E8F7D482F40646EE1C6010E94BE1DD1
:103F10006FE1C6010E94081E2981482F222311F05B
:103F2000486801C04777F60184819581A681B781F1
:103F3000892B8A2B8B2B49F480E894E8AEE1B0E022
:103F400084839583A683B78340616FE1C6010E9495
:103F5000BE1D60E2C6010E947F1EAC01402B512BAA
:103F600060E2C6010E94DF1D60E1C6010E947F1E63
:103F7000AC014E215F2160E1C6010F90DF91CF912E
:103F80001F910F91FF90EF90DF90CF900C94DF1D69
:103F90000F931F93CF93DF93EC01162F042F6EE046
:103FA0000E947F1E9C01802F8D7F813059F041E05F
:103FB00050E0012E02C0440F551F0A94E2F7422B35
:103FC000532B0DC0E1E0F0E0012E02C0EE0FFF1F09
:103FD0000A94E2F7E095F095A9014E235F236EE085
:103FE000CE010E94DF1D023049F441E0612FCE0175
:103FF000DF91CF911F910F910C94BC1E033051F4AF
:1040000020E041E0612FCE01DF91CF911F910F9110
:104010000C94431FDF91CF911F910F9108950C9441
:10402000C81FCF93DF93EC016FE10E94081E82FF4F
:1040300006C0482F4B7F6FE1CE010E94BE1D41E0BC
:104040006B81CE010E94C81F40E06B81CE010E94AF
:10405000BC1E61E070E080E090E00E94070941E052
:104060006B81CE01DF91CF910C94BC1ECF93DF9377
:10407000662321F0DF91CF910C941120EC0142E1F5
:104080006DE70E94BE1D44E36DE7CE01DF91CF9145
:104090000C94BE1D0F93CF93DF93EC0180EC96E060
:1040A0000E9412218B818F3F21F0CE010E941120AE
:1040B00004C060E0CE010E94362063E1CE010E9480
:1040C0007F1E81159F4F49F401E020E040E062E04F
:1040D000CE010E943A1E81E001C080E0DF91CF91C5
:1040E0000F910895FC01608343830C944A208091D2
:1040F000F00690E02091F106821B910908959091BD
:10410000F1068091F006981750F4E92FF0E0EE5098
:10411000F94F208130E09F5F9093F10602C02FEFAE
:104120003FEFC9010895E091F1068091F006E8178C
:1041300030F4F0E0EE50F94F808190E008958FEF79
:104140009FEF08950895CF92DF92EF92FF920F9321
:104150001F93CF93DF937C01262F972F8A018091A5
:10416000CC06882391F0C62FD72F6E01C40ED51E22
:10417000CC15DD0571F06991D701ED91FC910190AD
:10418000F081E02DC7010995F3CF642F822F0E94A3
:104190006822C801DF91CF911F910F91FF90EF909E
:1041A000DF90CF900895CF93DF931F92CDB7DEB706
:1041B00069832091CC062223D1F02091CD062032B4
:1041C00040F021E030E0FC013383228380E090E086
:1041D00015C08091CE06E82FF0E0E153F94F9981A8
:1041E00090838F5F8093CE068093CD0605C061E0FB
:1041F000CE0101960E94682281E090E00F90DF914D
:10420000CF910895FC011382128288EE93E0A0E022
:10421000B0E084839583A683B78383EA94E0918397
:10422000808308951092F1061092F0061092CE0647
:104230001092CD060C94AC2181E08093CC06609363
:10424000EF061092CE061092CD0608950C941C2114
:104250000F93062F21E04091CD066FEC76E0809120
:10426000EF060E9412221092CE061092CD061092F6
:10427000CC060F9108954F925F926F927F92AF920A
:10428000BF92CF92EF92FF920F931F93CF93DF9342
:104290005C01F62ED42F28013901EE2021F10E9475
:1042A0001C21CE2DC43008F0C3E0C150C0F0D501B0
:1042B000ED91FC91B8E0CB9FC0011124A3019201C4
:1042C00004C056954795379527958A95D2F7CA0128
:1042D000B9010190F081E02DC5010995E6CF60E0BC
:1042E000C5010E9428214D2FD13208F040E22C2D2B
:1042F00062EF76E08F2D0E94CA211092F106809322
:10430000F006DF91CF911F910F91FF90EF90CF902A
:10431000BF90AF907F906F905F904F900895CF9235
:10432000EF920F931F93C22EE12C00E010E0980152
:104330000E943B211F910F91EF90CF90089521E0B3
:104340000C948F2121E00C948F2161E00C942821A2
:1043500080EC96E00C94022110927F0781E080931C
:104360007D0710927C0761E082E10E94E40961E030
:1043700083E10E94E409E9EBF0E080818E7F808395
:1043800080818D7F808388E48093B80085E480936A
:10439000BC000895413208F043C090917F0791110D
:1043A000FCCF91E090937F0720937D072FEF209320
:1043B000120710925707240F2093560790937E07F9
:1043C00090917E07880F892B80937E0780917C07D0
:1043D000813061F410927C0780917E078093BB004E
:1043E0008091BC0083FDF8CF85EC01C085EE809301
:1043F000BC0080917F078130E1F3809157078417DB
:1044000010F44091570728E537E0FB01D9018A2FC6
:10441000821B841718F48D918193F9CF842F08950E
:1044200080E008950F93413208F04AC090917F07D1
:104430009111FCCF32E030937F0700937D073FEF6F
:10444000309312071092570740935607FB0168E517
:1044500077E0DB013A2F361B341718F431913D9386
:10446000F9CF10927E0730917E07880F832B8093BF
:104470007E0780917C07813061F410927C078091E7
:104480007E078093BB008091BC0083FDF8CF85EC54
:1044900001C085EE8093BC00222321F080917F072C
:1044A0008230D1F3809112078F3F79F0809112070B
:1044B000803241F080911207803331F094E005C0E2
:1044C00091E003C092E001C093E0892F0F9108951D
:1044D00040913407262F30E0240F311D2132310561
:1044E000DCF420917F072430C9F4FC0180E090E0E7
:1044F000861758F4309134072191DC01AA5CB84F3B
:10450000A30FB11D2C930196F3CF80913407680F50
:104510006093340780E0089581E0089582E0089573
:1045200085ED8093BC008091BC0084FDFCCF10928F
:104530007F07089585EC8093BC0010927F07089553
:104540001F920F920FB60F9211242F933F934F9308
:104550005F936F937F938F939F93AF93BF93EF93EB
:10456000FF938091B900887F803609F49EC078F56A
:10457000883209F45DC090F4803109F456C038F4F3
:10458000882309F4F5C0883009F44FC0F5C088319C
:1045900009F44EC0803209F45FC0EEC0803409F4E3
:1045A0006AC058F4803309F457C0883309F0E4C076
:1045B000809312070E949A22DFC0803509F44FC011
:1045C000883509F45DC0883409F0D6C0D3C0883975
:1045D00009F4C4C0A8F4883709F467C038F48836F1
:1045E00009F463C0803709F460C0C6C0883809F494
:1045F000B5C0803909F45FC0803809F0BDC05BC028
:10460000803B09F483C038F4803A09F466C0883AE4
:1046100009F47CC0B1C0803C09F4A4C0883C09F412
:10462000A1C0883B09F487C0A7C080917E0710C055
:104630009091570780915607981770F5E0915707AA
:1046400081E08E0F80935707F0E0E85AF84F8081A1
:104650008093BB0085EC83C0809312078BC0E091F0
:10466000570781E08E0F809357078091BB00F0E0E1
:10467000E85AF84F808390915707809156076BC096
:10468000E091570781E08E0F809357078091BB0020
:10469000F0E0E85AF84F808380917D0781116AC06D
:1046A00081E080937C0784EA5EC083E080937F078B
:1046B00010921307CFCF80911307803208F04EC0BD
:1046C000E091130781E08E0F809313078091BB0068
:1046D000F0E0EC5EF84F8083BDCF0E949A2280917B
:1046E0001307803230F4E0911307F0E0EC5EF84FEE
:1046F00010826091130770E0E0917807F0917907DC
:1047000084E197E009951092130736C084E0809306
:104710007F071092350710923407E0917A07F091E5
:104720007B07099580913407811105C081E0809352
:10473000340710923607E091350781E08E0F8093A1
:104740003507F0E0EA5CF84F80818093BB009091E0
:10475000350780913407981708F47CCF85E880935B
:10476000BC000AC085EC8093BC0010927F0704C097
:10477000109212070E949022FF91EF91BF91AF918A
:104780009F918F917F916F915F914F913F912F9169
:104790000F900FBE0F901F901895CF93DF9300D00E
:1047A00000D0CDB7DEB7611571058105910579F0AF
:1047B0009B01AC0169833A834B835C830E945C2B31
:1047C00029813A814B815C810E94663103C060E09F
:1047D00070E0CB010F900F900F900F90DF91CF9171
:1047E0000895CF92DF92EF92FF920F931F9362177B
:1047F00073078407950784F489019A016B017C0192
:10480000C901B8016C197D098E099F090E94CD2349
:104810006C0D7D1D8E1D9F1D1F910F91FF90EF90C0
:10482000DF90CF90089570E09B01382BC901089567
:104830000E9624E1FC0111922A95E9F70895CF9391
:10484000DF93EC01625F7F4F0E947F0DCE01DF910D
:10485000CF910895CF93DF93EC016E5E7F4F0E945E
:104860007F0DCE01DF91CF910895CF93DF93EC01BF
:104870006A5E7F4F0E947F0DCE01DF91CF91089538
:10488000CF93DF93EC01625E7F4F0E947F0DCE01DC
:10489000DF91CF91089580E3FB0180833296842FCE
:1048A00082958F7090E1899F401911244A3014F449
:1048B000405D01C0495C4293482F8111F0CF0895BB
:1048C0000F9300E020E040E060E080E897E00E9485
:1048D000730D0F9108957F928F929F92AF92BF9226
:1048E000CF92DF92EF92FF920F931F93CF93DF93BC
:1048F000CDB7DEB7AC970FB6F894DEBF0FBECDBF15
:104900007C01762E942E852E20E2B22ECE010196C9
:104910006C01FC012B2D11922A95E9F70FEF2FEF77
:104920004FEF6FEF86960E94730D85E794E09AA390
:1049300089A389A59AA5ABA5BCA58BA39CA3ADA370
:10494000BEA387010D5B1F4F43E450E0BE016F5DC6
:104950007F4FC8010E94B311019609F4BFC081E0E6
:1049600089838A8386E0A82EAB821C82F70164814A
:104970007581868197810E9485316D837E838F83C7
:10498000988789869A8680E890E09C878B874CE19F
:1049900050E0B601C8010E94BF11F6012B2D119203
:1049A0002A95E9F7470188E0880E911CF401D601A9
:1049B00001900D92AA94E1F740E150E0B601C801E0
:1049C0000E94BF11F6011192BA94E9F796E0A92E60
:1049D000B12C40E250E0B601C8010E94BF11F1E0E5
:1049E000AF1AB108B1F783E6898392E89A8393E519
:1049F0009B838C8385E38D8381E08E837F829DE31F
:104A0000988797E099878A8786E0F401DE011B96F4
:104A100001900D928A95E1F78CE0898B8A8B61EB8E
:104A200074E0CE0143960E94562CF7014385BE01E7
:104A3000675E7F4FC7010E944B24F7014485BE018A
:104A4000655E7F4FC7010E944B24F7014585BE017B
:104A5000635E7F4FC7010E944B244EE150E0B601D8
:104A6000C8010E94BF11F3E07F121EC082E3898358
:104A700084E08A83F70196859B8397859C83908940
:104A80009D8391899E8396E39F838887828D898702
:104A9000838D8A87848D8B87858D8C874CE050E051
:104AA000B601C8010E94BF1187E3898386E08A832B
:104AB00091E09B8393E09C838D838FE08E838AE3D8
:104AC0008F838BE388878FEF898749E050E0B601B9
:104AD000C8010E94BF11C8010E94BB11AC960FB65D
:104AE000F894DEBF0FBECDBFDF91CF911F910F9124
:104AF000FF90EF90DF90CF90BF90AF909F908F90FE
:104B00007F9008952F923F924F925F926F927F9283
:104B10008F929F92AF92BF92DF92EF92FF920F938C
:104B20001F93CF93DF93CDB7DEB7E4970FB6F8941A
:104B3000DEBF0FBECDBF7C011A012B0139010E94DF
:104B4000D6084B015C0187010D5B1F4FC8010E9415
:104B5000611218161906A4F00E94D608DC01CB01D8
:104B600088199909AA09BB09281639064A065B065D
:104B7000F0F062E370E080E090E00E940709E6CF89
:104B800042E250E0BE016F5F7F4FC8010E94FC11FE
:104B90008981823031F4F8018489958983349105C3
:104BA00041F0D12CC8010E949D118D2D5FC18FEF66
:104BB0005DC16D817E818F8198850E9485314B0119
:104BC0005C01F301608371838283938346E050E04C
:104BD000B701685F7F4FCE014D960E94372C892B1D
:104BE00099F4F70180819181A281B3818816990699
:104BF000AA06BB0648F084819581A681B7818815F5
:104C00009905AA05BB0528F4C8010E949D1180E002
:104C10002DC189899A89AB89BC89F70186879787D5
:104C2000A08BB18B8EECA82EB12CC8010E94D311A1
:104C3000F1E0AF1AB108C9F7D12CC70182969AA743
:104C400089A7F701B696FCA7EBA708969EA78DA7A4
:104C50003C974F01899698AB8FA73897FAABE9AB91
:104C60001701F6E12F0E311CC5979CAB8BABC80129
:104C70000E948311181619060CF094CFC8010E94E7
:104C8000D3118333910509F4CBC0FCF48130910535
:104C9000C9F11CF4892B59F3DDC083309105D1F1A2
:104CA000069709F0D7C0C8010E94D3115C0144E007
:104CB00050E06BA97CA9C8010E94FC11412C512C29
:104CC000BB24F4E0AF1AB10840C08A33910509F45F
:104CD0007BC03CF48533910569F0C69709F440C068
:104CE000B9C08B33910509F485C08F3F910509F454
:104CF000BECFB0C0C8010E94D311C8010E94D31119
:104D0000D82EB5CFC8010E94D31144E050E069A964
:104D10007AA93AC0C8010E94D3115C0144E050E076
:104D2000B101C8010E94FC11412C512CBB2494E01C
:104D3000A91AB1084A145B040CF099CFC8010E946B
:104D4000D311EFEF4E1A5E0AF5CF4A145B040CF054
:104D50008ECFC8010E94D3118FEF481A580AF5CFA1
:104D6000C8010E94D311B82EF701828D811110C0A5
:104D7000838D81110DC0848D81110AC0858D8111B3
:104D800007C044E050E0B401C8010E94FC116FCF9D
:104D9000EFA5F8A94080518062807380B401CE01F4
:104DA00083960E947F0D8DA19EA1AFA1B8A5841509
:104DB0009505A605B70529F3BB2009F458CFC8010E
:104DC0000E94D311BA94F8CFC8010E94D31144E0D5
:104DD00050E06BA57CA5C8010E94FC11F70166A1FB
:104DE00077A180A591A50E94853166A377A380A7AE
:104DF00091A73DCFC8010E94D31144E050E06DA5BA
:104E00007EA5C8010E94FC11F70162A573A584A5C7
:104E100095A50E94853162A773A784A795A727CF80
:104E2000C8010E94D31144E050E069A57AA5C801E9
:104E30000E94FC11F70162A173A184A195A10E94B7
:104E4000853162A373A384A395A366A777A780ABDC
:104E500091AB0DCFC8010E94D311B82EBB2009F42D
:104E600006CFC8010E94D311BA94F8CFE4960FB6CA
:104E7000F894DEBF0FBECDBFDF91CF911F910F9190
:104E8000FF90EF90DF90BF90AF909F908F907F90BA
:104E90006F905F904F903F902F9008952F923F9288
:104EA0004F925F926F927F928F929F92AF92BF923A
:104EB000CF92DF92EF92FF920F931F93CF93DF93E6
:104EC000CDB7DEB727970FB6F894DEBF0FBECDBFC4
:104ED0008C0120ED37E040E050E061E070E080E0E0
:104EE00090E00E94F123D80114966D937D938D93E9
:104EF0009C931797F8016083718382839383580191
:104F0000F3E4AF0EB11CC5010E949E1164E470E091
:104F1000C5010E943412882309F43CC10E94D608BE
:104F20002B013C01812C912C1D82C8018E5B9F4F6F
:104F30009F838E8343E0342E58EEC52E53E0D52E4A
:104F4000E12CF12C62E0262EAE81BF818C91833062
:104F500009F407C1811120C0F80184819581A681DF
:104F6000B7810196A11DB11D84839583A683B78364
:104F70000E94D6086419750986099709A701960148
:104F80000E944431A90161E0C8010E946B2481E0C4
:104F9000AE81BF818C93C6C08430F9F4F80184815E
:104FA0009581A681B7810196A11DB11D848395834A
:104FB000A683B7830E94D6086419750986099709E4
:104FC000A70196010E944431A90163E0C8010E9433
:104FD0006B24AE81BF812C92A5C0813061F5F801B0
:104FE00042AD53AD64AD75AD9E012F5F3F4FC8011B
:104FF0000E9482258D83823009F094C089819A8134
:10500000AB81BC81F80184839583A683B7830E941A
:10501000D6086419750986099709A70196010E94A7
:105020004431A90163E0C8010E946B24ED81AE8187
:10503000BF81EC937EC0823009F074C0D801DA964B
:105040004D915D916D917C91DD979E012F5F3F4F5A
:10505000C8010E9482258D83853009F05CC0EE81F5
:10506000FF813082F80182A193A1A4A1B5A1892B6F
:105070008A2B8B2B41F484E893E0A0E0B0E082A37C
:1050800093A3A4A3B5A3F80186A197A1A0A5B1A558
:10509000892B8A2B8B2B61F482A193A1A4A1B5A1AA
:1050A000B695A7959795879586A397A3A0A7B1A72F
:1050B000F80182A593A5A4A5B5A5892B8A2B8B2BD6
:1050C000A9F482A193A1A4A1B5A1AC01BD0123E0E3
:1050D00076956795579547952A95D1F7841B950B3B
:1050E000A60BB70B82A793A7A4A7B5A7F80186A123
:1050F00097A1A0A5B1A586A797A7A0ABB1AB82A5A4
:1051000093A5A4A5B5A582AB93ABA4ABB5AB8824FE
:105110008394912C0EC0FD81F63021F4AE81BF81C5
:105120001C9207C0BD81BF3F21F4EE81FF81108238
:105130001D82F1E08F16910409F406CF0E94D60873
:10514000DC01CB0184199509A609B709F80126A944
:1051500037A940AD51AD281739074A075B0708F05A
:10516000F3CEC5010E949E11F80184819581A6812C
:10517000B7810196A11DB11D84839583A683B78352
:105180000E94D608F801FE96608371838283938320
:10519000C40102C080E090E027960FB6F894DEBF0D
:1051A0000FBECDBFDF91CF911F910F91FF90EF9078
:1051B000DF90CF90BF90AF909F908F907F906F9037
:1051C0005F904F903F902F900895CF92DF92EF9293
:1051D000FF920F931F93CF93DF93EC016B011AA201
:1051E0001BA21CA21DA21EA21FA218A619A61AA6C7
:1051F0001BA61CA61DA62EAB3FAB48AF59AFEAAE0F
:10520000FBAE0CAF1DAF8C01085F1F4F86E0F801AD
:1052100011928A95E9F7CE010E94182486E0F601E2
:10522000D80101900D928A95E1F7FE01EE5BFF4FE8
:105230001082CE01DF91CF911F910F91FF90EF90DF
:10524000DF90CF900C944E27CF92DF92EF92FF9297
:105250000F931F93CF93DF93EC010E94D6086B014D
:105260007C018E01025C1F4FF80180819181A28137
:10527000B381A7019601281B390B4A0B5B0BCA01AE
:10528000B901683E33E073078105910508F441C018
:1052900028EE33E040E050E00E944431C61AD70ABD
:1052A000E80AF90AF801C082D182E282F3828EA56F
:1052B0009FA5A8A9B9A969017A01CC0CDD1CEE1C37
:1052C000FF1C8C159D05AE05BF0528F41EA61FA664
:1052D00018AA19AA08C0821B930BA40BB50B8EA7A2
:1052E0009FA7A8ABB9AB8AA99BA9ACA9BDA98C15EE
:1052F0009D05AE05BF0528F41AAA1BAA1CAA1DAA63
:1053000008C0821B930BA40BB50B8AAB9BABACAB59
:10531000BDAB8EA59FA5A8A9B9A9892B8A2B8B2BDC
:1053200069F4FE01EE5BFF4F8081833039F484E045
:105330008083CE010E944E27019602C080E090E05B
:105340004AA95BA96CA97DA9452B462B472B81F463
:10535000FE01EE5BFF4F2081233011F0211108C0C8
:105360001082CE010E941824CE010E944E2703967F
:10537000DF91CF911F910F91FF90EF90DF90CF9031
:105380000895EF920F931F93CF93DF93E80147FDAA
:1053900002C034E001C034E1E42F440FFF0BF7FFFB
:1053A00003C0F195E195F109E32E022F2E2FAE01F6
:1053B0000E94CE2ECE01DF91CF911F910F91EF90E1
:1053C0000895CF93DF938230910510F482E090E04E
:1053D000E0918807F091890720E030E0C0E0D0E05C
:1053E000309711F14081518148175907C0F0481793
:1053F000590761F482819381209719F09B838A83F6
:105400002BC0909389078093880726C0211531050A
:1054100019F04217530718F49A01BE01DF01EF019A
:105420000280F381E02DDCCF2115310509F1281B25
:10543000390B2430310590F412968D919C9113977D
:105440006115710521F0FB019383828304C0909361
:10545000890780938807FD01329644C0FD01E20F61
:10546000F31F81939193225031092D933C933AC0BD
:105470002091860730918707232B41F42091020168
:105480003091030130938707209386072091000114
:10549000309101012115310541F42DB73EB74091FE
:1054A000040150910501241B350BE0918607F09112
:1054B0008707E217F307A0F42E1B3F0B28173907C5
:1054C00078F0AC014E5F5F4F2417350748F04E0F60
:1054D0005F1F50938707409386078193919302C083
:1054E000E0E0F0E0CF01DF91CF9108950F931F939B
:1054F000CF93DF93009709F48CC0FC01329713829D
:10550000128200918807109189070115110581F415
:1055100020813181820F931F209186073091870768
:105520002817390779F5F0938707E093860771C04C
:10553000D80140E050E0AE17BF0750F412962D910D
:105540003C911397AD012115310509F1D901F3CF34
:105550009D01DA013383228360817181860F971F59
:105560008217930769F4EC0128813981260F371FD0
:105570002E5F3F4F318320838A819B819383828377
:10558000452B29F4F0938907E093880742C01396CE
:10559000FC93EE931297ED01499159919E01240FCE
:1055A000351FE217F30771F480819181840F951FF5
:1055B000029611969C938E938281938113969C936D
:1055C0008E931297E0E0F0E0D80112968D919C91B5
:1055D0001397009719F0F8018C01F6CF8D919C91EB
:1055E00098012E5F3F4F820F931F209186073091C5
:1055F00087072817390769F4309729F4109289072B
:105600001092880702C013821282109387070093BA
:105610008607DF91CF911F910F9108958F929F92EE
:10562000AF92BF92CF92DF92EF92FF92CF93DF9330
:10563000EC01688179818A819B8161157105810501
:10564000910521F464E279ED8BE597E02DE133EFEC
:1056500041E050E00E94663149015A019B01AC01D2
:10566000A7EAB1E40E948C316B017C01ACEEB4EF8F
:10567000A50194010E949A31DC01CB018C0D9D1D86
:10568000AE1DBF1DB7FF03C00197A109B0488883B5
:105690009983AA83BB83BC01CD019F77DF91CF9112
:1056A000FF90EF90DF90CF90BF90AF909F908F9042
:1056B00008950E940E2B089586E091E00E940E2B23
:1056C00008956093060170930701809308019093F9
:1056D00009010895A0E0B0E0E0E7FBE20C94A331FB
:1056E000EC01009721F4CB010E94E129B8C0FC0134
:1056F000E60FF71F9C0122503109E217F30708F467
:10570000ACC0D9010D911C91119706171707B0F085
:105710000530110508F49FC0C80104978617970744
:1057200008F499C002501109061B170B019311933D
:105730006D937C93CF010E94762A8DC05B01A01AE5
:10574000B10A4C01800E911EA0918807B091890783
:1057500040E050E0E12CF12C109709F44AC0A81564
:10576000B905D1F56D907C901197630182E0C80E68
:10577000D11CCA14DB0480F1A3014A195B096A0138
:1057800082E0C80ED11C1296BC9012971396AC9171
:10579000B5E0CB16D10440F0B282A383518340839D
:1057A000D9016D937C930AC00E5F1F4FC301800F18
:1057B000911FF90191838083EB2DFA2FE114F104FD
:1057C00031F0D7011396FC93EE93129744C0F093F7
:1057D0008907E09388073FC08D919C9111974817E6
:1057E000590708F4AC017D0112960D90BC91A02DD3
:1057F000B3CF809186079091870788159905E1F4CA
:1058000046175707C8F48091000190910101009755
:1058100041F48DB79EB74091040150910501841B5E
:10582000950BE817F907C8F4F0938707E09386070C
:10583000F901718360830FC0CB010E94E1297C01D3
:10584000009759F0A801BE010E94442CCE010E948D
:10585000762AC70104C0CE0102C080E090E0CDB737
:10586000DEB7EEE00C94BF31F8940C940132FB01EA
:10587000DC0104C08D910190801921F44150504009
:10588000C8F7881B990B0895FB01DC0102C0019049
:105890000D9241505040D8F70895FB01DC018D91E5
:1058A000019080190110D9F3990B0895FB01DC01D7
:1058B00001900D920020E1F708954532510520F442
:1058C000423010F00C94682CFB011082CB0108953B
:1058D000BB274A3031F4992322F4BDE2909581959B
:1058E0009F4F0C94AC2C2532310520F4223010F05F
:1058F0000C947E2CFA011082CA010895BB27FA018C
:10590000A62F6217710581059105330B30FB66F0F8
:10591000AA27660F771F881F991FAA1FA21710F0CA
:10592000A21B63953850A9F7A05DAA3308F0A95DC2
:10593000A19336F7B111B1931082CA010C9434319E
:105940004532510520F4423010F00C94AB2CFB0191
:105950001082CB010895BB27FB015527AA27880F8A
:10596000991FAA1FA41710F0A41B83955051B9F7D3
:10597000A05DAA3308F0A95DA193009779F7B11152
:10598000B1931192CB010C9434315058BB27AA2704
:105990000E94DD2C0C94272E0E94192E38F00E94B4
:1059A000202E20F039F49F3F19F426F40C94162E83
:1059B0000EF4E095E7FB0C94102EE92F0E94382E90
:1059C00058F3BA17620773078407950720F079F434
:1059D000A6F50C945A2E0EF4E0950B2EBA2FA02D9E
:1059E0000B01B90190010C01CA01A0011124FF278C
:1059F000591B99F0593F50F4503E68F11A16F04087
:105A0000A22F232F342F4427585FF3CF4695379585
:105A10002795A795F0405395C9F77EF41F16BA0B4A
:105A2000620B730B840BBAF09150A1F0FF0FBB1FF8
:105A3000661F771F881FC2F70EC0BA0F621F731F41
:105A4000841F48F4879577956795B795F7959E3F9E
:105A500008F0B0CF9395880F08F09927EE0F97952F
:105A6000879508950E94462D0C94272E0E94202E83
:105A700058F00E94192E40F029F45F3F29F00C9451
:105A8000102E51110C945B2E0C94162E0E94382E61
:105A900068F39923B1F3552391F3951B550BBB275D
:105AA000AA2762177307840738F09F5F5F4F220FA2
:105AB000331F441FAA1FA9F335D00E2E3AF0E0E899
:105AC00032D091505040E695001CCAF72BD0FE2FE3
:105AD00029D0660F771F881FBB1F26173707480777
