:100000000C9466000C948E000C948E000C948E0060
:100010000C948E000C948E000C94590F0C948E004E
:100020000C948E000C948E000C948E000C948E0018
:100030000C948E000C948E000C948E000C948E0008
:100040000C947A070C948E000C943C0A0C946E0A63
:100050000C948E000C948E000C948E000C948E00E8
:100060000C942F210C948E00000000080002010067
:100070000003040700000000000000000102040863
:100080001020408001020408102001020408102002
:10009000040404040404040402020202020203032E
:1000A0000303030300000000250028002B000000CC
:1000B0000000240027002A0090009E0A4E0B520FD9
:1000C0005412041959193720EF22EE0011241FBED3
:1000D000CFEFD8E0DEBFCDBF14E0A0E0B1E0E4EDAB
:1000E000FBE502C005900D92A234B107D9F727E0D5
:1000F000A2E4B4E001C01D92A731B207E1F710E01D
:10010000C5E6D0E004C02197FE010E94B22DCC3597
:10011000D107C9F70E94CC0A0C94A32A0C940000C2
:100120000F9300E020E040E060E083E095E00E9473
:10013000270B01E021E041E06AE08DEF94E00E94AE
:10014000270B82EE94E00E94DC1187EC94E00E9481
:10015000DC118CEA94E00E94DC1168ED71E086E825
:1001600094E00E94C70B8CE794E00E94491C8BE747
:1001700094E00E94BF0E8AE794E00E94BF0E89E7D8
:1001800094E00E94BF0E81E794E00E94D80DE2E463
:10019000F4E0148215821682178280E090E0A6ECCB
:1001A000B2EC80879187A287B38784879587A687DB
:1001B000B787808B918BA28BB38B848B958BA68B0F
:1001C000B78B808F918FA28FB38F148E158E168E62
:1001D000178E10A211A212A20F91089586E894E042
:1001E0000C94590B0F931F93CF93DF9300D000D043
:1001F00000D0CDB7DEB78C0140910E0150910F01B8
:100200008CEE93E09A8389838091FF04909100059E
:10021000A0910105B09102058B839C83AD83BE83C1
:10022000BE016F5F7F4F8CEA94E00E944410B801DA
:100230008CEA94E00E9445098CEA94E00E944C10FC
:1002400088E1ECE8F4E0DF011D928A95E9F7269653
:100250000FB6F894DEBF0FBECDBFDF91CF911F91D7
:100260000F9108958F929F92AF92BF92CF92DF929B
:10027000EF92FF920F931F93CF93DF9300D000D0A4
:1002800000D0CDB7DEB760E47FE185EB95E00E945A
:10029000D00F0E94C4074B015C010E94C4070E945A
:1002A000152C60936D0470936E0480936F0490938B
:1002B000700426E040E051EE60E070E082E195E0FD
:1002C0000E946C0D6AE171E082E195E00E946A098A
:1002D00060E082E00E94D20861E082E00E9496081D
:1002E00060E082E00E94D20860E088E00E94D208CC
:1002F00061E088E00E94960860E088E00E94D208F1
:1003000060E089E00E94D20861E089E00E949608DE
:1003100060E089E00E94D20861E083E00E94D20898
:1003200061E083E00E94960861E083E00E94D208C9
:1003300061E085E00E94D20861E085E00E949608B5
:1003400061E085E00E94D20861E086E00E94D20868
:1003500061E086E00E94960861E086E00E94D20893
:1003600061E087E00E94D20861E087E00E94960881
:1003700061E087E00E94D20861E084E00E94D20838
:1003800061E084E00E94960861E084E00E94D20867
:1003900096EAE92E94E0F92E670100918404109109
:1003A0008504C8010E94C72DD6018D936D010F5F92
:1003B0001F4F1093850400938404BCEACB16B4E06D
:1003C000DB0659F7E6E6F4E0D7018D917D018193D4
:1003D000BCEAEB16B4E0FB06B9F710EAE12E1FE029
:1003E000F12E00E010E020E63AEE40E050E066EA50
:1003F00074E08FEC95E00E94DA17892B61F46AE2D1
:1004000071E082E195E00E946A0960E177E280E0B4
:1004100090E00E94F50768E671E082E195E00E94B5
:100420006A096FEC75E0CE0101960E94DC18BE01EE
:100430006F5F7F4F82E195E00E947C09609112011D
:100440007091130182EE94E00E94C510609110013A
:100450007091110187EC94E00E94C51060910E012B
:1004600070910F018CEA94E00E94C5106CED75E06C
:1004700080E090E00E94F50767E771E0CE01019609
:100480000E94C70BCE0101960E94F200CE01019698
:100490000E94590B68E871E0CE0101960E94C70BDB
:1004A000CE0101960E94F200CE0101960E94590BE6
:1004B0004AE06091AC04CE0101960E94F30BCE019C
:1004C00001960E94F200CE0101960E94590B69EA42
:1004D00071E0CE0101960E94C70BCE0101960E94E9
:1004E000F200CE0101960E94590B4AE06091A604E9
:1004F000CE0101960E94F30BCE0101960E94F200FC
:10050000CE0101960E94590B4AE06091A704CE01EA
:1005100001960E94F30BCE0101960E94F200CE01DB
:1005200001960E94590B4AE06091A804CE01019601
:100530000E94F30BCE0101960E94F200CE010196BB
:100540000E94590B4AE06091A904CE0101960E94D5
:10055000F30BCE0101960E94F200CE0101960E949B
:10056000590B4AE06091AA04CE0101960E94F30B58
:10057000CE0101960E94F200CE0101960E94590B15
:100580004AE06091AB04CE0101960E94F30BCE01CC
:1005900001960E94F200CE0101960E94590B8091B3
:1005A0000C0190910D010E94C72D682F70E080E032
:1005B00090E00E94152C6093420470934304809352
:1005C0004404909345046CEB71E082E195E00E9455
:1005D00053096CEB71E0CE0101960E94C70BCE016E
:1005E00001960E94F200CE0101960E94590B00E094
:1005F00010E06DEC71E082E195E00E9453094AE061
:1006000050E0B80182E195E00E94210A67ED71E0B7
:1006100082E195E00E94530969ED71E082E195E085
:100620000E945309C8010E94C72D4AE050E0682F7C
:1006300082E195E00E94350A67ED71E082E195E084
:100640000E9453096DEC71E0CE0101960E94C70B28
:10065000CE0101960E94F200CE0101960E94590B34
:100660004AE0B801CE0101960E94200CCE0101960D
:100670000E94F200CE0101960E94590B69ED71E0D3
:10068000CE0101960E94C70BCE0101960E94F20096
:10069000CE0101960E94590BC8010E94C72D4AE065
:1006A000682FCE0101960E94F30BCE0101960E94A5
:1006B000F200CE0101960E94590B0F5F1F4F0830C8
:1006C000110509F096CF4FEF6EE38CE794E00E949E
:1006D000011F882309F494C060EE71E082E195E087
:1006E0000E946A0960EE71E0CE0101960E94C70B7C
:1006F000CE0101960E94F200CE0101960E94590B94
:1007000040E060E08CE794E00E949E1E40E061E0E3
:100710008CE794E00E949E1E40E062E08CE794E04B
:100720000E949E1E40E063E08CE794E00E949E1EC3
:1007300040E064E08CE794E00E949E1E40E065E0AB
:100740008CE794E00E949E1E40E066E08CE794E017
:100750000E949E1E40E067E08CE794E00E949E1E8F
:1007600040E068E08CE794E00E949E1E40E069E073
:100770008CE794E00E949E1E40E06AE08CE794E0E3
:100780000E949E1E40E06BE08CE794E00E949E1E5B
:1007900041E06CE08CE794E00E949E1E41E06DE039
:1007A0008CE794E00E949E1E41E06EE08CE794E0AE
:1007B0000E949E1E41E06FE08CE794E00E949E1E26
:1007C00000E010E0602F8CE794E00E94D01D90E0E4
:1007D000002E02C0880F991F0A94E2F72091650449
:1007E000BC01622B609365040F5F1F4F063011053B
:1007F00049F780910A0190910B010E94CF2D14C0FE
:1008000067EF71E082E195E00E946A0967EF71E0AD
:10081000CE0101960E94C70BCE0101960E94F20004
:10082000CE0101960E94590B0E94C4076B017C0106
:1008300061E172E0CE0101960E94C70BCE010196E4
:100840000E94F200CE0101960E94590BB601681970
:1008500079094AE0CE0101960E944C0CCE01019626
:100860000E94F200CE0101960E94590B26960FB607
:10087000F894DEBF0FBECDBFDF91CF911F910F91D6
:10088000FF90EF90DF90CF90BF90AF909F908F90B0
:100890000895CF93DF9300D000D000D0CDB7DEB75E
:1008A00067E272E082E195E00E946A0967E272E025
:1008B000CE0101960E94C70BCE0101960E94F20064
:1008C000CE0101960E94590B64EF71E080E090E048
:1008D0000E94F50760E084E00E94D20826960FB6D9
:1008E000F894DEBF0FBECDBFDF91CF910895CF93B7
:1008F000DF93CDB7DEB72C970FB6F894DEBF0FBEEF
:10090000CDBF48E150E06CE874E082EE94E00E94D4
:100910008D106CE874E0CE0107960E94C70B6EE361
:1009200072E0CE0107960E94780C8823C9F063E438
:1009300072E082E195E00E946A0963E472E0CE0110
:1009400001960E94C70BCE0101960E94F200CE01D3
:1009500001960E94590B85EB95E00E94630F18C128
:1009600064E572E0CE0107960E94780C882341F07E
:1009700061E082E00E94D20881E080935E0408C1B9
:1009800061E672E0CE0107960E94780C882339F068
:1009900060E082E00E94D20810925E04F9C06FE627
:1009A00072E0CE0107960E94780C882371F06BE705
:1009B00072E082E195E00E946A0960E083E00E94B3
:1009C000D20881E080936104E3C067E872E0CE0161
:1009D00007960E94780C882369F064E972E082E14E
:1009E00095E00E946A0961E083E00E94D2081092BB
:1009F0006104CEC061EA72E0CE0107960E94780CD5
:100A0000882371F06DEA72E082E195E00E946A0944
:100A100060E085E00E94D20881E080936204B8C063
:100A200069EB72E0CE0107960E94780C882369F08A
:100A300066EC72E082E195E00E946A0961E085E07F
:100A40000E94D20810926204A3C063ED72E0CE014E
:100A500007960E94780C882371F06FED72E082E1B6
:100A600095E00E946A0960E086E00E94D20881E079
:100A7000809363048DC06BEE72E0CE0107960E94F6
:100A8000780C882369F068EF72E082E195E00E94BB
:100A90006A0961E086E00E94D2081092630478C07F
:100AA00065E073E0CE0107960E94780C882371F010
:100AB00061E173E082E195E00E946A0960E087E00D
:100AC0000E94D20881E08093640462C06DE173E00B
:100AD000CE0107960E94780C882369F06AE273E0E1
:100AE00082E195E00E946A0961E087E00E94D208F5
:100AF000109264044DC067E373E0CE0107960E9434
:100B0000780C882341F061E088E00E94D20881E0FF
:100B100080935F043DC06EE373E0CE0107960E94B0
:100B2000780C882339F060E088E00E94D2081092A7
:100B30005F042EC066E473E0CE0107960E94780C35
:100B4000882371F06DE473E082E195E00E946A0908
:100B500061E089E00E94D20881E08093600418C0BF
:100B600064E573E0CE0107960E94780C882339F083
:100B700060E089E00E94D2081092600409C06CE530
:100B800073E0CE0107960E94780C81110E944904FF
:100B9000CE0107960E94590B2C960FB6F894DEBF33
:100BA0000FBECDBFDF91CF9108958F929F92AF92EC
:100BB000BF92CF92DF92EF92FF92CF93DF9300D05C
:100BC00000D000D0CDB7DEB70E94C4074B015C0156
:100BD0006AE18BE794E00E94130F882369F08BE7AA
:100BE00094E00E94350F60934A0470934B04809305
:100BF0004C0490934D0420C062E673E082E195E0DE
:100C00000E946A0962E673E0CE0101960E94C70B5A
:100C1000CE0101960E94F200CE0101960E94590B6E
:100C200080E090E0A6ECB2EC80934A0490934B04F1
:100C3000A0934C04B0934D046BE18AE794E00E94CA
:100C4000130F882369F08AE794E00E94350F6093C0
:100C50004E0470934F04809350049093510420C02D
:100C600068E773E082E195E00E946A0968E773E053
:100C7000CE0101960E94C70BCE0101960E94F200A0
:100C8000CE0101960E94590B80E090E0A6ECB2ECF8
:100C900080934E0490934F04A0935004B09351045A
:100CA00068E189E794E00E94130F882369F089E7DF
:100CB00094E00E94350F6093520470935304809324
:100CC00054049093550420C06EE873E082E195E0EF
:100CD0000E946A096EE873E0CE0101960E94C70B7C
:100CE000CE0101960E94F200CE0101960E94590B9E
:100CF00080E090E0A6ECB2EC809352049093530411
:100D0000A0935404B093550481E794E00E94EF0D42
:100D10008823C9F081E794E00E941D0E6093560479
:100D200070935704809358049093590481E794E09A
:100D30000E946E0E60935A0470935B0480935C046F
:100D400090935D0428C064EA73E082E195E00E941C
:100D50006A0964EA73E0CE0101960E94C70BCE01D6
:100D600001960E94F200CE0101960E94590B80E08C
:100D700090E0A6ECB2EC8093560490935704A093B5
:100D80005804B093590480935A0490935B04A09341
:100D90005C04B0935D040E94C4070E94152C20914E
:100DA0006D0430916E0440916F04509170040E9464
:100DB000072B20E030E04AE754E40E94742B609354
:100DC00046047093470480934804909349044091EB
:100DD0001001509111018CEE93E09A8389838091E8
:100DE000FF0490910005A0910105B09102058B834D
:100DF0009C83AD83BE83BE016F5F7F4F87EC94E021
:100E00000E9444104BE250E062E474E087EC94E00E
:100E10000E94501087EC94E00E944C1067EB73E046
:100E200082E195E00E946A0967EB73E0CE010196CA
:100E30000E94C70BCE0101960E94F200CE010196DE
:100E40000E94590B88E1ECE8F4E0DF011D928A95DD
:100E5000E9F782EE94E00E94F2109093A50480934B
:100E6000A4041816190614F40E94770488E1ECE82B
:100E7000F4E0DF011D928A95E9F78FEC95E00E947E
:100E800077180E94C4076B017C016AEC73E0CE0105
:100E900001960E94C70BCE0101960E94F200CE017E
:100EA00001960E94590BB601681979094AE0CE01F2
:100EB00001960E944C0CCE0101960E94F200CE01D8
:100EC00001960E94590B60ED77E080E090E00E946F
:100ED000F50726960FB6F894DEBF0FBECDBFDF91A3
:100EE000CF91FF90EF90DF90CF90BF90AF909F9009
:100EF0008F9008951F920F920FB60F9211242F9387
:100F00003F938F939F93AF93BF9380910A059091E6
:100F10000B05A0910C05B0910D053091090523E05A
:100F2000230F2D3720F40196A11DB11D05C026E821
:100F3000230F0296A11DB11D2093090580930A0578
:100F400090930B05A0930C05B0930D0580910E05B1
:100F500090910F05A0911005B09111050196A11D6A
:100F6000B11D80930E0590930F05A0931005B093CB
:100F70001105BF91AF919F918F913F912F910F904C
:100F80000FBE0F901F9018952FB7F89460910A0527
:100F900070910B0580910C0590910D052FBF089560
:100FA0003FB7F89480910E0590910F05A091100520
:100FB000B091110526B5A89B05C02F3F19F00196E9
:100FC000A11DB11D3FBFBA2FA92F982F8827820FCF
:100FD000911DA11DB11DBC01CD0142E0660F771F1F
:100FE000881F991F4A95D1F708958F929F92AF92CB
:100FF000BF92CF92DF92EF92FF926B017C010E9431
:10100000D0074B015C01C114D104E104F10401F1EA
:101010000E946C080E94D007DC01CB018819990955
:10102000AA09BB09883E9340A105B10560F321E000
:10103000C21AD108E108F10888EE880E83E0981EF4
:10104000A11CB11CC114D104E104F10419F7DBCFD8
:10105000FF90EF90DF90CF90BF90AF909F908F90D8
:101060000895789484B5826084BD84B5816084BD20
:1010700085B5826085BD85B5816085BDEEE6F0E011
:10108000808181608083E1E8F0E01082808182606D
:101090008083808181608083E0E8F0E080818160EE
:1010A0008083E1EBF0E0808184608083E0EBF0E01E
:1010B000808181608083EAE7F0E0808184608083C2
:1010C000808182608083808181608083808180686C
:1010D00080831092C10008950895833081F028F430
:1010E000813099F08230A1F008958730A9F08830DE
:1010F000B9F08430D1F4809180008F7D03C080915D
:1011000080008F7780938000089584B58F7702C028
:1011100084B58F7D84BD08958091B0008F7703C022
:101120008091B0008F7D8093B0000895CF93DF93BE
:1011300090E0FC01E458FF4F2491FC01E057FF4F81
:101140008491882361F190E0880F991FFC01E2559A
:10115000FF4FC591D491FC01EC55FF4FA591B4917F
:10116000611109C09FB7F8948881209582238883F4
:10117000EC912E230BC0623061F49FB7F894388154
:10118000822F809583238883EC912E2B2C939FBFF5
:1011900006C08FB7F894E8812E2B28838FBFDF918C
:1011A000CF9108951F93CF93DF93282F30E0F9015B
:1011B000E859FF4F8491F901E458FF4FD491F901A8
:1011C000E057FF4FC491CC23C9F0162F81110E9424
:1011D0006D08EC2FF0E0EE0FFF1FEC55FF4FA591CF
:1011E000B4918FB7F894111105C09C91ED2FE09543
:1011F000E92302C0EC91ED2BEC938FBFDF91CF91EF
:101200001F91089580E090E00895CF92DF92EF92D1
:10121000FF920F931F93CF93DF936C017A018B01A1
:10122000C0E0D0E0CE15DF0589F0D8016D918D01C9
:10123000D601ED91FC910190F081E02DC601099558
:10124000892B11F47E0102C02196ECCFC701DF91FA
:10125000CF911F910F91FF90EF90DF90CF90089565
:101260006115710579F0FB0101900020E9F73197D4
:10127000AF01461B570BDC01ED91FC910280F3811D
:10128000E02D099480E090E00895DC01ED91FC915F
:10129000DB0114964D915C9115976D917C910280C4
:1012A000F381E02D09940C943009DC01ED91FC915F
:1012B0000190F081E02D0994DB01ED91FC911197F3
:1012C0000190F081E02DBC01CD01099469ED73E03E
:1012D0000C9430090F931F93CF93DF93EC010E947E
:1012E00030098C01CE010E946609800F911FDF91A9
:1012F000CF911F910F9108950F931F93CF93DF9379
:10130000EC010E945C098C01CE010E946609800FED
:10131000911FDF91CF911F910F9108954F925F928E
:101320006F927F92EF92FF920F931F93CF93DF9371
:10133000CDB7DEB7A1970FB6F894DEBF0FBECDBF15
:101340007C01FA01CB0119A2223008F42AE08E01B7
:101350000F5D1F4F422E512C612C712CBF01A30138
:1013600092010E94202DF901CA01015011096A3031
:1013700014F4605D01C0695CD8016C93232B242BAD
:10138000252B61F7B801C7010E943009A1960FB65D
:10139000F894DEBF0FBECDBFDF91CF911F910F91AB
:1013A000FF90EF907F906F905F904F900895CF9255
:1013B000DF92EF92FF920F931F93CF93DF93EC0195
:1013C0006A017B012115310579F4E881F9810190E9
:1013D000F081E02D642FDF91CF911F910F91FF904D
:1013E000EF90DF90CF9009942A303105E9F477FF30
:1013F0001AC06DE20E9455098C0144275527BA0195
:101400004C195D096E097F092AE0CE010E948E0900
:10141000800F911FDF91CF911F910F91FF90EF905F
:10142000DF90CF9008952AE0B701A601CE01DF91A9
:10143000CF911F910F91FF90EF90DF90CF900C9480
:101440008E099A01AB01770F660B770B0C94D709C5
:101450002115310541F4DC01ED91FC910190F08101
:10146000E02D642F09940C948E099A01462F50E0C8
:1014700060E070E00C94280A1F920F920FB60F9252
:1014800011242F938F939F93EF93FF93E091220565
:10149000F09123058081E0912805F091290582FDD6
:1014A00012C0908180912B058F5F8F7320912C0546
:1014B000821751F0E0912B05F0E0EE5EFA4F958F28
:1014C00080932B0501C08081FF91EF919F918F91B7
:1014D0002F910F900FBE0F901F9018951F920F9293
:1014E0000FB60F9211242F933F934F935F936F93F7
:1014F0007F938F939F93AF93BF93EF93FF9382E17B
:1015000095E00E94E20CFF91EF91BF91AF919F9106
:101510008F917F916F915F914F913F912F910F909C
:101520000FBE0F901F90189582E195E00E94970CD6
:1015300021E0892B09F420E0822F0895E2E1F5E013
:101540001382128288EE93E0A0E0B0E0848395835A
:10155000A683B78382EF93E09183808385EC90E04C
:101560009587848784EC90E09787868780EC90E06D
:10157000918B808B81EC90E0938B828B82EC90E05E
:10158000958B848B86EC90E0978B868B118E128ED8
:10159000138E148E089508950E9431080E94CB0A7C
:1015A0000E943201C4EDDCE00E94D5052097E1F3F2
:1015B0000E94D40CF9CF8F929F92AF92BF92CF929C
:1015C000DF92EF92FF920F931F93CF93DF937C01F3
:1015D0008B016C0182E0C80ED11C4701E5E08E0E44
:1015E000911CC0E0D0E0F60161916F014AE050E04B
:1015F000C8010E94350A5C016EE2C8010E945509CB
:101600008A0D9B1DC80FD91FC814D90461F74AE081
:1016100050E0F7016581C8010E94350A8C0F9D1FBB
:10162000DF91CF911F910F91FF90EF90DF90CF90BE
:10163000BF90AF909F908F9008952CEE33E0FC0107
:1016400031832083128213821482158208950F93AE
:10165000FC018CEE93E09183808362834383248337
:1016600005830F9108952CEE33E0FC013183208334
:10167000FB014081518162817381FC01428353836C
:10168000648375830895FB01408151816281738178
:10169000FC0142835383648375830895EFEAF5E088
:1016A0008CEE93E0918380831282138214821582E0
:1016B0000895FC01808191810C94E528CF93DF93FC
:1016C000EC0188819981009711F00E94E528198228
:1016D00018821D821C821B821A82DF91CF9108958D
:1016E0000F931F93CF93DF93EC018B016F5F7F4FBD
:1016F000888199810E94D929009731F09983888344
:101700001B830A8381E001C080E0DF91CF911F91AC
:101710000F910895CF93DF93EC0188819981892BF4
:1017200029F08A819B818617970760F4CE010E9479
:10173000700B882341F08C819D81892B19F4E881FD
:10174000F981108281E0DF91CF910895EF92FF92AD
:101750000F931F93CF93DF93EC017B018A01BA01B2
:101760000E948A0B811104C0CE010E945E0B07C04B
:101770001D830C83B701888199810E94C52ACE01FF
:10178000DF91CF911F910F91FF90EF900895FC0191
:1017900011821082138212821582148261157105E2
:1017A00051F0FB0101900020E9F73197AF01461B92
:1017B000570B0C94A60B0895CF93DF93EC016115A2
:1017C000710559F0FB0101900020E9F73197AF0155
:1017D000461B570B0E94A60B02C00E945E0BCE0157
:1017E000DF91CF9108950F931F93CF93DF93CDB7E0
:1017F000DEB729970FB6F894DEBF0FBECDBF8C01C0
:10180000862FF801118210821382128215821482AF
:1018100050E0BE016F5F7F4F90E00E94E22ABE0160
:101820006F5F7F4FC8010E94DC0B29960FB6F894BA
:10183000DEBF0FBECDBFDF91CF911F910F910895F5
:101840000F931F93CF93DF93CDB7DEB762970FB699
:10185000F894DEBF0FBECDBF8C01CB01F801118221
:101860001082138212821582148250E0BE016F5FD3
:101870007F4F0E94CC2ABE016F5F7F4FC8010E943C
:10188000DC0B62960FB6F894DEBF0FBECDBFDF91C2
:10189000CF911F910F9108950F931F93CF93DF93D3
:1018A000CDB7DEB761970FB6F894DEBF0FBECDBFE0
:1018B0008C01CB01F80111821082138212821582F1
:1018C000148250E0BE016F5F7F4F0E94E22ABE018A
:1018D0006F5F7F4FC8010E94DC0B61960FB6F894D2
:1018E000DEBF0FBECDBFDF91CF911F910F91089545
:1018F000FC0124813581232B31F421E06115710530
:10190000A1F0FB0108C0FC01808191816115710586
:1019100031F421E0FC018081882339F005C00E9468
:10192000BC2A21E0892B09F020E0822F0895FC01D8
:10193000918D228D892F90E0805C9F4F821B9109B1
:101940008F7399270895FC01918D828D981731F03E
:10195000828DE80FF11D858D90E008958FEF9FEF48
:101960000895FC01918D828D981761F0828DDF01C1
:10197000A80FB11D5D968C91928D9F5F9F73928F82
:1019800090E008958FEF9FEF0895FC01538D448DF3
:10199000252F30E0842F90E0821B930B541710F01A
:1019A000CF9608950197089584E99AE0892B49F02C
:1019B00080E090E0892B29F00E94940A81110C9418
:1019C00000000895FC01848DDF01A80FB11DA35A0A
:1019D000BF4F2C91848D90E001968F739927848F4F
:1019E000A689B7892C93A089B1898C9180648C9346
:1019F000938D848D981306C00288F389E02D808131
:101A00008F7D80830895CF93DF93EC01888D8823A9
:101A1000C9F0EA89FB89808185FD05C0A889B9895B
:101A20008C9186FD0FC00FB607FCF5CF808185FF36
:101A3000F2CFA889B9898C9185FFEDCFCE010E94A4
:101A4000E20CE7CFDF91CF910895EF92FF920F93D1
:101A50001F93CF93DF93EC0181E0888F9B8D8C8D5A
:101A6000981305C0E889F989808185FD24C0F62E88
:101A70000B8D10E00F5F1F4F0F731127E02E8C8D21
:101A8000E8120CC00FB607FCFACFE889F98980810B
:101A900085FFF5CFCE010E94E20CF1CF8B8DFE01C8
:101AA000E80FF11DE35AFF4FF0820B8FEA89FB89A3
:101AB0008081806207C0EE89FF896083E889F989A7
:101AC00080818064808381E090E0DF91CF911F91DD
:101AD0000F91FF90EF900895CF92DF92EF92FF92D7
:101AE0001F93CF93DF93EC016A017B01122FE889EA
:101AF000F98982E080834115514E61057105B1F08D
:101B000060E079E08DE390E0A70196010E94202D2E
:101B1000DA01C9010197A109B109B695A795979571
:101B20008795AC01411580E15807A8F0E889F9894B
:101B3000108260E874E88EE190E0A70196010E94AF
:101B4000202DBA01A9014150510961097109769509
:101B5000679557954795EC85FD855083EE85FF8504
:101B60004083188EEC89FD891083EA89FB89808186
:101B700080618083EA89FB89808188608083EA892B
:101B8000FB89808180688083EA89FB8980818F7DE1
:101B90008083DF91CF911F91FF90EF90DF90CF90E6
:101BA0000895DC01ED91FC910190F081E02D099404
:101BB000089560E470E08DE496E00E94B51F6EEF3A
:101BC00070E08DE496E00E94D10D8DE496E00E94D5
:101BD00034206FE070E080E090E00C94F507CF9344
:101BE000DF93EC018DE496E00E94A11FCE010E94DC
:101BF000D90D60E470E08DE496E00E94B51F67EEB9
:101C000070E08DE496E00E94D10D8DE496E00E9494
:101C1000342041E050E060E470E08DE496E00E9402
:101C200031208DE496E00E940E1F21E0029709F01A
:101C300020E0822FDF91CF910895CF93DF9360E46E
:101C400070E08DE496E00E94B51F63EE70E08DE4D5
:101C500096E00E94D10D8DE496E00E94342062E36C
:101C600070E080E090E00E94F50743E050E060E41F
:101C700070E08DE496E00E9431208DE496E00E94B1
:101C8000061F892BD1F38DE496E00E940E1FD82FFA
:101C900080E0C82F8DE496E00E940E1FC82BD92B40
:101CA0008DE496E00E940E1FBE0180E090E00E944D
:101CB000152C22E538EB4FE253E40E94A32C20E0E0
:101CC00030E040E857E30E94A32C26E636E64BE3DB
:101CD00052E40E94072BDF91CF910895CF93DF93B9
:101CE00060E470E08DE496E00E94B51F65EE70E060
:101CF0008DE496E00E94D10D8DE496E00E943420A0
:101D000062E370E080E090E00E94F50743E050E07D
:101D100060E470E08DE496E00E9431208DE496E06E
:101D20000E94061F892BD1F38DE496E00E940E1FBE
:101D3000D82F80E0C82F8DE496E00E940E1FC82B9C
:101D4000D92B8DE496E00E940E1FBE0180E090E04A
:101D50000E94152C20E030E04AEF52E40E94A32CB0
:101D600020E030E040E857E30E94A32C20E030E080
:101D700040EC50E40E94072BDF91CF910895089525
:101D80001F93CF93DF9300D0CDB7DEB7162FFC01A2
:101D900060818DE496E04A8359830E94AB1F612FD6
:101DA0008DE496E00E94621F5981652F8DE496E0D4
:101DB0000E94621F4A81642F8DE496E00E94621F98
:101DC0008DE496E00F900F90DF91CF911F910C94CE
:101DD00034201F93CF93DF93EC01162F68818DE49D
:101DE00096E00E94AB1F612F8DE496E00E94621F77
:101DF0008DE496E00E94342042E068818DE496E014
:101E00000E942E208DE496E00E940E1FD82F80E0C5
:101E1000C82F8DE496E00E940E1F8C2B9D2BDF9126
:101E2000CF911F910895CF93DF93EC0168838DE4E8
:101E300096E00E94A11F66E0CE010E94E90E843563
:101E4000910511F080E00EC067E0CE010E94E90E1E
:101E500081159440B9F740E050E061E0CE010E9466
:101E6000C00E81E0DF91CF910895CF93DF9365E0BD
:101E70000E94E90EEC01BC017F7080E090E00E94BE
:101E8000152C20E030E040E85DE30E94A32CD4FF55
:101E900006C020E030E040E853E40E94072BDF91C9
:101EA000CF9108958FEF9FEF9093B6058093B5057E
:101EB00008951F920F920FB60F9211240F900FBE2C
:101EC0000F901F901895A8950895DA01F9016034D4
:101ED0008FE178071CF46115710539F489E090E011
:101EE0008D939C9380E49FE158C0603A8FE078071F
:101EF0003CF088E090E08D939C9380EA9FE04DC099
:101F0000603D87E078073CF087E090E08D939C93FC
:101F100080ED97E042C0683E83E078073CF086E0C1
:101F200090E08D939C9388EE93E037C0643F81E00E
:101F300078073CF085E090E08D939C9384EF91E0EE
:101F40002CC06A3F71053CF084E090E08D939C9337
:101F50008AEF90E022C0683771053CF083E090E0A2
:101F60008D939C9388E790E018C06C3371053CF02A
:101F700082E090E08D939C938CE390E00EC06E31F4
:101F800071053CF081E090E08D939C938EE190E0B0
:101F900004C01D921C928FE090E09183808308958D
:101FA0000F931F93CF93DF9300D0CDB7DEB78C0193
:101FB0009E012F5F3F4FAC010E94650FF8018081A9
:101FC00083FD02C098E001C098E28770892B98E1F8
:101FD0000FB6F894A895909360000FBE80936000B0
:101FE00089819A810F900F90DF91CF911F910F916E
:101FF0000895DC01ED91FC91048CF58DE02D0994A0
:102000002CEE33E0FC0131832083FB0140895189B0
:1020100062897389FC0142835383648375830895C5
:10202000FC01848995890895FC01818D928D089524
:10203000CF93DF931F92CDB7DEB76983DC01ED91BB
:10204000FC910280F381E02D41E050E0BE016F5F22
:102050007F4F09950F90DF91CF9108950895CF9309
:10206000DF93EC01888D843061F00E94AF15E88D1C
:10207000F0E0EE0FFF1FEB5CF94F1182108284E05D
:10208000888FDF91CF910895FC01178A168A6E5FC1
:102090007F4F808D0C942D17FC01808D0C9473174D
:1020A000CF93DF93EC019A018E899F89AB01BC012C
:1020B000888D0E94E6162E893F89280F391F3F8B95
:1020C0002E8BDF91CF9108950F931F93CF93DF93C2
:1020D0001F92CDB7DEB7FC01218D328D232B61F02D
:1020E0008C0141E050E0BE016F5F7F4F808D0E9408
:1020F0002C16181619061CF08FEF9FEF08C0F80178
:10210000818D928D0197928F818F898190E00F90C0
:10211000DF91CF911F910F910895CF93DF93FC0131
:10212000218D328D2115310519F48FEF9FEF11C0EC
:10213000EC014217530708F0A901888D0E942C1664
:102140001816190694F7298D3A8D281B390B3A8FEA
:10215000298FDF91CF910895CF93DF931F92CDB751
:10216000DEB7FC01218D328D232B49F0BE016F5F5C
:102170007F4F808D0E94B716898190E002C08FEF5B
:102180009FEF0F90DF91CF910895EF92FF921F93F1
:10219000CF93DF93FC01208D243011F080E01CC030
:1021A0007B01EC0110E0812F0E948715811102C094
:1021B000188F05C08831E1F31F5F1430A1F7888DB7
:1021C000843061F3FD86EC861A8E198E20E0A7011B
:1021D00062E00E94D91581E0DF91CF911F91FF90BD
:1021E000EF9008950F931F93CF93DF93CDB7DEB792
:1021F00028970FB6F894DEBF0FBECDBF8C01F80153
:10220000818D928D892B49F0D801ED91FC9102844A
:10221000F385E02DC8010995F2CF808D0E948C16C0
:102220001816190654F548E050E0BE016F5F7F4F65
:10223000D80158968C910E942C169C0118161906EC
:10224000D4F4BE016F5F7F4FC8010E960E94430B0E
:102250008D8190E0982F88272E81820F911DF801A3
:10226000958B848B2F8130E0322F22278885280F91
:10227000311D328F218FC90102C080E090E0289685
:102280000FB6F894DEBF0FBECDBFDF91CF911F9187
:102290000F9108958F929F92AF92BF92CF92DF924B
:1022A000EF92FF920F931F93CF93DF9300D000D054
:1022B00000D0CDB7DEB7FC01208D243009F068C016
:1022C0006A017B018C0153E0852E54E0952EA12CF0
:1022D000B12CC4010E942D13811103C0F801A08EFE
:1022E0000AC08831D9F3FFEFAF1ABF0A9394E4E034
:1022F000AE16B10471F7F801808D843009F448C03E
:1023000096E0E4E1F1E0DE01119601900D929A95DC
:10231000E1F7F70193819F779C8394819D83958159
:102320009E83B7016E5F7F4F90E0982F882744E02F
:1023300050E0845F9B4F0E94FE12F801E08CF12C6C
:10234000F4E0EF0EF11CFE2CEE246D2DC70140963B
:102350000E946A126C2DC70141960E946A12F80110
:10236000808D90E0982F882746E050E0BE016F5F97
:102370007F4F8A5F9B4F0E94FE12F801128E118ED2
:1023800020E8A60162E0808D0E94D91581E001C09D
:1023900080E026960FB6F894DEBF0FBECDBFDF916A
:1023A000CF911F910F91FF90EF90DF90CF90BF9052
:1023B000AF909F908F900895CF93DF93EC011B8295
:1023C0001A8288EE93E0A0E0B0E08C839D83AE8318
:1023D000BF8384E094E099838883CE010E960E94A7
:1023E0001D0B84E0888FDF91CF910895CF92DF920B
:1023F000EF92FF920F931F93CF93DF93CDB7DEB78A
:10240000AF970FB6F894DEBF0FBECDBF8C016B0146
:102410007A01CE0101960E941D0BCE0109960E9401
:10242000DC11CE018A960E941D0B6FEC75E0CE0187
:1024300084960E94F418BE016C5D7F4FCE01019618
:102440000E941619AE01465D5F4FB601CE0101969E
:102450000E94851B81309105C1F4D801ED91FC915A
:102460000488F589E02D8CEE93E09DA38CA38CA5C8
:102470009DA5AEA5BFA58EA39FA3A8A7B9A7A70199
:10248000BE016C5D7F4FC8010995AF960FB6F894F9
:10249000DEBF0FBECDBFDF91CF911F910F91FF9097
:1024A000EF90DF90CF9008950F9300E020E040E0A0
:1024B00060E087EB95E00E94270B0F9108958EBD99
:1024C00000000DB407FEFDCF8EB508952A9808953B
:1024D0002A9A08951F93CF93DF9300D0CDB7DEB72C
:1024E000182F6A8399830E94661280EF0E945F1200
:1024F0009981892F0E945F12812F0E945F126A8149
:10250000862F0E945F120E94681281E00F900F9048
:10251000DF91CF911F910895CF93DF93EC016CE28F
:1025200071E080E090E00E94F5070E94131C229A5F
:1025300080914B06882399F02FB7F89480914B0631
:10254000813059F48DB3809349069DB380914A063A
:10255000809589238DBB2FBF02C02093490680E55B
:102560008CBD1DBC60E880E090E00E946A1265E5C9
:102570008BE190E00E946A1265E58AE190E00E949A
:102580006A1280914B06882351F09FB7F8942091EE
:102590004B0680914906213029F58DBB9FBF80E015
:1025A00090E49983888380E090E69987888780E02B
:1025B00098E49B838A8380E098E69B878A8780E003
:1025C00090E59D838C8380E090E79D878C8780E0F9
:1025D00098E59F838E8380E098E79F878E87DF91C1
:1025E000CF9108958FBFDBCF9B0190E00496982F89
:1025F0008827642F820F931F0C946A12CF92DF9268
:10260000EF92FF920F931F93CF93DF93EC017A0128
:102610008B016C01C40ED51ECC15DD05A1F00E9406
:10262000661280EF0E945F128D2F0E945F128C2F26
:102630000E945F122196F80181918F010E945F1222
:102640000E946812E9CFC701DF91CF911F910F91CE
:10265000FF90EF90DF90CF9008951F93CF93DF937B
:102660001F92CDB7DEB7182F99830E9466128FE0B4
:102670000E945F129981892F0E945F12812F0E9410
:102680005F1280E00E945F1289830E946812898134
:102690000F90DF91CF911F91089590E00496982FAD
:1026A0008827860F971F0C942D131F93CF93DF93CA
:1026B000182F60E270E00E944D13C82FD0E061E255
:1026C00070E0812F0E944D13DC2FCC279E01282B18
:1026D000C901DF91CF911F910895FF920F931F932E
:1026E000CF93DF93F62EC0E0D0E08F2D0E945513DC
:1026F0008C01892B21F08F2D0E945513EC01C017FE
:10270000D10799F7CE01DF91CF911F910F91FF90E3
:1027100008951F93CF93DF93182F66E270E00E9415
:102720004D13C82FD0E067E270E0812F0E944D1357
:10273000DC2FCC279E01282BC901DF91CF911F915F
:102740000895FF920F931F93CF93DF93F62EC0E06F
:10275000D0E08F2D0E9489138C01892B21F08F2DC1
:102760000E948913EC01C017D10799F7CE01DF91C0
:10277000CF911F910F91FF9008956F927F928F924A
:102780009F92AF92BF92CF92DF92EF92FF920F9300
:102790001F93CF93DF931F92CDB7DEB7882E962E6F
:1027A0006A01590164E270E0892D99830E944D13FA
:1027B000E82EF12C65E270E0892D0E944D13FE2C6D
:1027C000EE24E82A37016C0C7D1CA3015770E82C1D
:1027D0009981F92EE90CF11CE90CF11CF7018081BB
:1027E0009181840F951F9A01200F311F21303840AD
:1027F00098F060E078E06B01C41AD50AA601B50133
:102800000E94FE12A8014C195D09B5016C0D7D1DD9
:10281000F7018081918102C0A801B5010E94FE12DA
:10282000060D171D412F64E270E0892D0E94F412FD
:10283000402F65E270E0892D0F90DF91CF911F91BD
:102840000F91FF90EF90DF90CF90BF90AF909F904F
:102850008F907F906F900C94F412CF92DF92EF9252
:10286000FF920F931F93CF93DF93EC017A018B01BB
:102870006C01C40ED51ECC15DD05A9F00E946612B0
:102880008FE00E945F128D2F0E945F128C2F0E949A
:102890005F12219680E00E945F12F80181938F0100
:1028A0000E946812E8CFC701DF91CF911F910F916D
:1028B000FF90EF90DF90CF900895AF92BF92CF92AC
:1028C000DF92EF92FF920F931F93CF93DF9300D08D
:1028D000CDB7DEB75A834983590129813A813770D0
:1028E0006C01C60ED11CC60ED11CF60180859185E7
:1028F000820F931FA801420F531F4130584098F098
:10290000E0E0F8E07F01E21AF30AA701B5010E94B6
:102910002D14A8014E195F09B5016E0D7F1DF6013A
:102920008085918502C0A801B5010F900F90DF91BD
:10293000CF911F910F91FF90EF90DF90CF90BF90BC
:10294000AF900C942D148F929F92AF92BF92CF9222
:10295000DF92EF92FF920F931F93CF93DF936C015F
:10296000962E5A017901802E68E270E0892D0E942E
:102970004D13C82FD0E069E270E0892D0E944D13FD
:10298000DC2FCC27C82B87019501AE01692DC6012C
:102990000E945D1481101AC0CE0DDF1D4D2F68E21C
:1029A00070E0892D0E94F4124C2F69E270E0892DAD
:1029B000DF91CF911F910F91FF90EF90DF90CF901B
:1029C000BF90AF909F908F900C94F412DF91CF91B5
:1029D0001F910F91FF90EF90DF90CF90BF90AF903D
:1029E0009F908F900895CF93C62F61E070E08C2F59
:1029F0000E94F41261E070E08C2F0E944D1381114F
:102A0000F9CFCF9108950F93FC0130E080E092E17F
:102A1000AAE7B0E0481759076A077B0740F4B69564
:102A2000A795979587953F5F3630A1F737E091E0FE
:102A30009327222311F020E501C020E7892F8695F6
:102A40000C70082B022B0083917091830F910895D5
:102A500020914B06222399F04FB7F89420914B0612
:102A6000213059F42DB3209349063DB320914A06F5
:102A7000209523232DBB4FBF02C0409349068CBD38
:102A80009DBD089580914B06882361F09FB7F8940F
:102A900020914B0680914906213019F48DBB9FBFD0
:102AA00008958FBF089590E0982F882744E050E064
:102AB000845F9B4F0C94FE1262E070E00C944D1307
:102AC000CF93DF93C82FD62F472F64E070E00E948A
:102AD000F4124D2F65E070E08C2FDF91CF910C94B4
:102AE000F412462F62E070E00C94F412CF93DF935F
:102AF000C82FD62F472F60E170E00E94F4124D2FAF
:102B000061E170E08C2FDF91CF910C94F4120F9360
:102B10001F93CF93DF9300D01F92CDB7DEB7182F4E
:102B200000E021E040E059E06DE370E0CE01019665
:102B30000E94031589819A810E94281563E070E044
:102B4000812F0E944D138B830E9442158B810F9021
:102B50000F900F90DF91CF911F910F9108950F93D8
:102B60001F93CF93DF9300D0CDB7DEB7182F00E0CF
:102B700021E040E059E06DE370E0CE0101960E9453
:102B8000031589819A810E94281540E150E0612F48
:102B90008DEB95E00E94F3146FEF812F0E94711569
:102BA0000E9442150F900F90DF91CF911F910F91CE
:102BB0000895CF92DF92EF92FF920F931F93CF93DE
:102BC000DF9300D0CDB7DEB79FEF960F9530C0F5FD
:102BD000F22E6A01E62E182F0E94AF1500E021E0C8
:102BE00040E059E06DE370E0CE0101960E940315CC
:102BF00089819A810E9428154E2D4F2960E070E04E
:102C0000812F0E94F412C114D10411F0B6010AC040
:102C10006091CD057091CE056F5F7F4F7093CE05AB
:102C20006093CD05812F0E94601541E050E0612F37
:102C30008DEB95E00E94F3140E94421581E001C0E3
:102C400080E00F900F90DF91CF911F910F91FF9037
:102C5000EF90DF90CF900895AF92BF92CF92DF9226
:102C6000EF92FF920F931F93CF93DF9300D0CDB7D6
:102C7000DEB7182F5B016A0100E021E040E059E077
:102C80006DE370E0CE0101960E94031589819A815F
:102C90000E942815612F8DEB95E00E94A1137C0105
:102CA0000097A1F463E070E0812F0E944D138431FE
:102CB00019F1882309F121E030E08C3111F420E092
:102CC00030E0EE24FF24E21AF30A16C0C816D90633
:102CD0000CF476011E141F047CF400E09701A5019A
:102CE000612F8DEB95E00E94A31440E450E0612F2A
:102CF0008DEB95E00E94F3140E944215C7010F90DE
:102D00000F90DF91CF911F910F91FF90EF90DF9087
:102D1000CF90BF90AF9008950F931F93CF93DF9301
:102D200000D000D0CDB7DEB7182F00E021E040E0A2
:102D300059E06DE370E0CE0101960E940315898190
:102D40009A810E942815612F8DEB95E00E94A113B6
:102D50008B839C830E9442158B819C810F900F90E6
:102D60000F900F90DF91CF911F910F910895EF92E7
:102D7000FF920F931F93CF93DF9300D0CDB7DEB7B1
:102D8000182F7B0100E021E040E059E06DE370E0A6
:102D9000CE0101960E94031589819A810E9428150F
:102DA00001E021E030E0A701612F8DEB95E00E946A
:102DB000A3140E94421581E090E00F900F90DF91E4
:102DC000CF911F910F91FF90EF9008958F929F9256
:102DD000AF92BF92DF92EF92FF920F931F93CF9328
:102DE000DF9300D0CDB7DEB7D82E5B014A01790161
:102DF00000E021E040E059E06DE370E0CE01019693
:102E00000E94031589819A810E9428156D2D8DEBF2
:102E100095E00E946D138E159F0530F46D2D8DEB9E
:102E200095E00E946D137C0187019401A5016D2D31
:102E30008DEB95E00E94BD130E944215C7010F90D3
:102E40000F90DF91CF911F910F91FF90EF90DF9046
:102E5000BF90AF909F908F900895CF92DF92EF92A6
:102E6000FF920F931F93CF93DF9300D0CDB7DEB7C0
:102E7000FB019081911109C09181911106C092814D
:102E8000911103C09381992309F141155105F1F086
:102E90006A017F01182F00E021E040E059E06DE376
:102EA00070E0CE0101960E94031589819A810E94EB
:102EB0002815B701812F0E945315B601812F0E945A
:102EC00076150E94421581E090E002C080E090E01B
:102ED0000F900F90DF91CF911F910F91FF90EF9086
:102EE000DF90CF9008950F931F93CF93DF9300D07F
:102EF000CDB7DEB7182F00E021E040E059E06DE3E8
:102F000070E0CE0101960E94031589819A810E948A
:102F1000281540E250E0612F8DEB95E00E94F314FC
:102F2000812F0E945C1584FD21C0812F0E945C15B9
:102F300083FF09C068E1812F0E9471150E9442152C
:102F400080E090E01BC00E9442150E946C0800E0E7
:102F500021E040E059E06DE370E0CE0101960E946F
:102F6000031589819A810E942815DACF60E1812FAB
:102F70000E9471150E94421581E090E00F900F9021
:102F8000DF91CF911F910F91089544E050E0BC0173
:102F900081E090E00C94FE1244E050E0BC0185E03A
:102FA00090E00C94FE1244E050E0BC018FE090E011
:102FB0000C94FE122F923F924F925F926F927F92EB
:102FC0008F929F92AF92BF92CF92DF92EF92FF9239
:102FD0000F931F93CF93DF9300D000D000D0CDB7D5
:102FE000DEB76C011B0129013A014701580187ED49
:102FF00095E0F601978386838DEB95E00E948C1215
:1030000080E590E00E94281546E050E0B10189E09B
:1030100090E00E94FE1200E020E040E060E0CE017F
:1030200001960E94270BCE0103960E94D3170E949F
:10303000421585017401A3019201B101F601868157
:1030400097810E9474278C010197B9F580E590E083
:103050000E942815F60166817781CE0101960E94B3
:10306000AE22CE0103960E94D317F60166817781C6
:10307000CE0101960E94C422CE0103960E94C5177C
:10308000F60166817781CE0101960E94B922CE01B8
:1030900003960E94CC170E944215F6016681778143
:1030A000CE0101960E94CF228B819C81AD81BE8191
:1030B000F60182839383A483B583C80126960FB655
:1030C000F894DEBF0FBECDBFDF91CF911F910F915E
:1030D000FF90EF90DF90CF90BF90AF909F908F9038
:1030E0007F906F905F904F903F902F900895EF9258
:1030F000FF920F931F93CF93DF9300D000D000D0A7
:10310000CDB7DEB7FC01268137812115310509F4E1
:1031100043C08C01C9010E94B3277C01029721F0B2
:1031200084E0E816F104D1F580E590E00E942815CE
:10313000F80166817781CE0101960E94AE22CE0110
:1031400003960E94D317F80166817781CE0101961C
:103150000E94C422CE0103960E94C517F801668121
:103160007781CE0101960E94B922CE0103960E947A
:10317000CC170E944215F80166817781CE01019635
:103180000E94CF228B819C81AD81BE81F801828318
:103190009383A483B58302C0E12CF12CC70126964A
:1031A0000FB6F894DEBF0FBECDBFDF91CF911F9158
:1031B0000F91FF90EF900895CF93DF93EC010E9461
:1031C0001D0B80E590E00E942815BE016E5F7F4FC9
:1031D00044E050E08FE090E00E942D140E944215E0
:1031E000CE01DF91CF9108952CEE33E0FC013183C5
:1031F0002083FB014281538164817581FC014283FC
:1032000053836483758308950F9300E020E040E0CA
:1032100060E08DE396E00E94270B8AE196E00E9431
:10322000DC118FEC95E00F910C941D0BFB0142819A
:10323000538164817581FC01428353836483758368
:10324000178216820895CF93DF93FB0120E080E080
:1032500090E0AAE03191332301F160ED630F6A3011
:1032600080F4A89FB001A99F700D1124CB01C097D5
:10327000830F911D37FD9A958F3F910559F350F3B8
:1032800013C03E3289F4233079F0EA01C20FD11D18
:103290008A832F5F80E090E0DDCF233029F4FA01AC
:1032A000858381E090E002C080E090E0DF91CF91E3
:1032B00008950F9300E020E040E060E083E496E0B2
:1032C0000E94270B0F9108958F929F92AF92BF9209
:1032D000CF92DF92EF92FF920F931F93CF93DF93E2
:1032E00000D000D01F92CDB7DEB78C016B010E94D9
:1032F000C407F801778366837627672776277A8362
:103300006983085F1F4F42E050E0BE016F5F7F4F4F
:10331000C8010E94501081E090E09C838B8342E0C2
:1033200050E0BE016D5F7F4FC8010E94501080E0E9
:1033300091E09C838B8342E050E0BE016D5F7F4F44
:10334000C8010E9450101C821B8242E050E0BE0166
:103350006D5F7F4FC8010E94501042E050E0BE01F7
:103360006D5F7F4FC8010E94501042E050E0BE01E7
:103370006D5F7F4FC8010E9450105601F50180819A
:10338000882329F1C6017C01FC01208101962111CD
:1033900016C0570147018C189D081814190494F49D
:1033A0008D8241E050E0BE016B5F7F4FC8010E94FB
:1033B0005010A401B601C8010E94501003C02E3263
:1033C00011F7E7CF6701FFEFCF1ADF0AD7CF1D82D2
:1033D00041E050E0BE016B5F7F4FC8010E9450107A
:1033E000E12CFF24F394FC82EB8242E050E0BE012A
:1033F0006D5F7F4FC8010E945010FC82EB8242E05B
:1034000050E0BE016D5F7F4FC8010E94501081E007
:1034100090E00F900F900F900F900F90DF91CF9151
:103420001F910F91FF90EF90DF90CF90BF90AF90E2
:103430009F908F9008954F925F926F927F928F929C
:103440009F92AF92BF92CF92DF92EF92FF920F9333
:103450001F93CF93DF93CDB7DEB765970FB6F89480
:10346000DEBF0FBECDBF7C015B016A010E94C407B5
:103470002B013C018701085F1F4F4501A12CB12C96
:10348000C8010E94F21018161906A4F00E94C40781
:10349000DC01CB0184199509A609B709881699069C
:1034A000AA06BB06D0F062E370E080E090E00E94E4
:1034B000F507E6CFF7014281538164817581808DE4
:1034C000918DA28DB38D481759076A077B0741F488
:1034D000848D958DC59721F406C02FEF3FEFFDC079
:1034E0002EEF3FEFFAC0C8010E9414100C97ECF0C9
:1034F0004CE050E0BE016F5F7F4FC8010E948D100D
:103500006C818B810E94A2229A8B898BF701E680C5
:10351000F7806A8189810E94A222E816F90641F4A7
:1035200089899A8997FF04C009C02DEF3FEFD5C064
:10353000C8010E942E102CEF3FEFCFC08F70927009
:10354000892B31F0C8010E942E102BEF3FEFC5C030
:1035500068858F810E94A2225C01892B31F4C80109
:103560000E942E102AEF3FEFB8C0E12CF12C6E81A3
:103570008D810E94A222E816F90640F541E050E054
:10358000BE01635F7F4FC8010E948D108D85811140
:1035900013C08D858111F2CFC8010E946410C8014B
:1035A0000E946410C8010E946410C8010E94641047
:1035B000FFEFEF1AFF0ADBCF8D859FEF980F9D87F6
:1035C000882339F3C8010E946410F6CFE12CF12C56
:1035D00041E050E0BE016D5E7F4FC8010E948D103A
:1035E0008B89982F907C61F4882371F08B899FEFF1
:1035F000980F9B8B882341F0C8010E946410F6CF7E
:10360000C8010E9464101B8A8B898111E1CF42E0BE
:1036100050E0BE01615F7F4FC8010E948D1042E003
:1036200050E0BE01635F7F4FC8010E948D10C8014A
:103630000E946410C8010E946410C8010E946410B6
:10364000C8010E94641042E050E0BE016F5E7F4FEF
:10365000C8010E948D108F8598898115914001F5D0
:103660002D853E8532272327322721303105C1F4AD
:1036700089899A898115944031F0C8010E942E10E1
:1036800027EF3FEF2AC0B6016E5F7F4F44E050E066
:10369000C8012C8B3D8B0E948D102C893D891DC04B
:1036A000812C912C89899A899827892798278816AF
:1036B000990638F4C8010E9464108FEF881A980A9E
:1036C000F1CFEFEFEE1AFE0AEA14FB0409F080CF07
:1036D000C8010E942E1026EF3FEFC90165960FB674
:1036E000F894DEBF0FBECDBFDF91CF911F910F9138
:1036F000FF90EF90DF90CF90BF90AF909F908F9012
:103700007F906F905F904F9008958F929F92AF92AD
:10371000BF92CF92DF92EF92FF920F931F93CF93BE
:10372000DF9300D000D000D0CDB7DEB77C014B01D5
:103730005A010E9423198C01892B09F05BC0F70103
:10374000428153816481758180914506909146063E
:10375000A0914706B0914806481759076A077B07AA
:1037600009F44BC00E94C4076701F8E0CF0ED11CDA
:103770006F7077277C5FC6010E94C510813009F009
:103780003EC08CEE93E09A838983F7018281938116
:10379000A481B5818B839C83AD83BE8345E350E0D8
:1037A000BE016F5F7F4FC6010E944410892B19F440
:1037B00000E010E01BC0B401C7010E946419892B0E
:1037C000B9F3C6010E944C10892B91F383E0882E37
:1037D000912CA50168E873E1C7010E941B1A8C01B6
:1037E000F1E08F1A910811F0019699F3C6010E9439
:1037F0002F1005C001E010E002C00EEF1FEFC8015E
:1038000026960FB6F894DEBF0FBECDBFDF91CF91E5
:103810001F910F91FF90EF90DF90CF90BF90AF90EE
:103820009F908F900895CF93CFB7F89480914C06D6
:10383000811127C0EAE9F0E08491E6E8F0E0949194
:10384000E82FF0E0EE0FFF1FE255FF4FA591B49176
:10385000EC91E92321F461E08AE00E94D20861E062
:103860008AE00E9496088CB580618CBD8CB580641E
:103870008CBD61E08DE00E94960861E08BE00E94C3
:10388000960880914C068F5F80934C06CFBFCF91F6
:103890000895FC01148215821682178208951F93E1
:1038A000CF93DF931F92CDB7DEB7162FFC01608157
:1038B0008DE496E049830E94AB1F612F8DE496E072
:1038C0000E94621F4981642F8DE496E00E94621F6E
:1038D0008DE496E00F90DF91CF911F910C943420EE
:1038E0001F93CF93DF9300D0CDB7DEB7162FFC0127
:1038F00060818DE496E04A8359830E94AB1F612F5B
:103900008DE496E00E94621F5981652F8DE496E058
:103910000E94621F4A81642F8DE496E00E94621F1C
:103920008DE496E00F900F90DF91CF911F910C9452
:1039300034201F93CF93DF93EC01162F68818DE421
:1039400096E00E94AB1F612F8DE496E00E94621FFB
:103950008DE496E00E94342041E068818DE496E099
:103960000E942E20C8EED3E08DE496E00E94061F50
:103970001816190634F0209711F02197F5CF80E042
:1039800006C0CD2BE1F38DE496E00E940E1FDF917F
:10399000CF911F9108950F93CF93DF93EC01637044
:1039A00041704295407F2F70422B6295660F607E7A
:1039B000462B6EE10E944F1C002321F0083018F0C6
:1039C00007E001C001E08FEF800F61E070E002C00E
:1039D000660F771F8A95E2F7072E000C880B990B6C
:1039E0000E94172C9B01AC0160E074E284EF99E423
:1039F0000E94742B0E94E62B6C837D838E839F83B1
:103A00006FE1CE010E94991C8F780295007F482FAC
:103A1000402B6FE1CE01DF91CF910F910C944F1CA1
:103A20001F93CF93DF93EC01162F68818DE496E00E
:103A30000E94AB1F612F8DE496E00E94621F8DE40F
:103A400096E00E94342042E068818DE496E00E9476
:103A50002E20C0EDD7E08DE496E00E94061F02976D
:103A60003CF4209711F02197F6CF80E090E011C050
:103A7000CD2BD9F38DE496E00E940E1FC82F8DE464
:103A800096E00E940E1F20E030E03C2FA901482B59
:103A9000CA01DF91CF911F910895CF92DF92EF92EB
:103AA000FF920F931F93CF93DF938C01D62FF42EA9
:103AB0006EE00E94101D41E050E09A0102C0220F0A
:103AC000331FDA95E2F7E9018095909582239323DD
:103AD000892B89F060E1C8010E94101DFF2021F0B0
:103AE000AC014C2B5D2B05C0C095D095AC014C238F
:103AF0005D2360E125C066E0C8010E94101D6C01D5
:103B000068E0C8010E94101D9E0120953095FF209D
:103B100061F07C01E222F322A6014C2B5D2B66E0D2
:103B2000C8010E94701CA7010AC0C82BD92BA6018E
:103B30004223532366E0C8010E94701CAE0168E076
:103B4000C801DF91CF911F910F91FF90EF90DF900F
:103B5000CF900C94701CFF920F931F93CF93DF9321
:103B60008C01F62E6EE00E94101DC1E0D0E002C074
:103B7000CC0FDD1FFA94E2F78C239D23892B49F0AB
:103B800060E1C8010E94101DC823D92381E0CD2B1C
:103B900009F480E0DF91CF911F910F91FF9008957C
:103BA0000C94AB1DCF92DF92EF92FF920F931F9375
:103BB000CF93DF931F92CDB7DEB76C01162F60E075
:103BC00029830E94101D41E050E0BA0102C0660F37
:103BD000771F1A95E2F78B01AC01462B572B60E05B
:103BE000C6010E94701C66E0C6010E94101D78018B
:103BF000E094F094AC014E215F2166E0C6010E9482
:103C0000701C6EE0C6010E94101DAC014E215F21A8
:103C10006EE0C6010E94701C6EE1C6010E94991CF4
:103C20008F7D482F40646EE1C6010E944F1C6FE1FA
:103C3000C6010E94991C2981482F222311F048684F
:103C400001C04777F60184819581A681B781892BD0
:103C50008A2B8B2B49F480E894E8AEE1B0E08483B2
:103C60009583A683B78340616FE1C6010E944F1C14
:103C700060E2C6010E94101DAC01402B512B60E296
:103C8000C6010E94701C60E1C6010E94101DAC01BB
:103C90004E215F2160E1C6010F90DF91CF911F910E
:103CA0000F91FF90EF90DF90CF900C94701C0F93CA
:103CB0001F93CF93DF93EC01162F042F6EE00E9429
:103CC000101D9C01802F8D7F813059F041E050E024
:103CD000012E02C0440F551F0A94E2F7422B532BCA
:103CE0000DC0E1E0F0E0012E02C0EE0FFF1F0A94CC
:103CF000E2F7E095F095A9014E235F236EE0CE0137
:103D00000E94701C023049F441E0612FCE01DF9126
:103D1000CF911F910F910C944D1D033051F420E071
:103D200041E0612FCE01DF91CF911F910F910C9453
:103D3000D21DDF91CF911F910F9108950C94571EC2
:103D4000CF93DF93EC016FE10E94991C82FF06C0C4
:103D5000482F4B7F6FE1CE010E944F1C41E06B81E9
:103D6000CE010E94571E40E06B81CE010E944D1D86
:103D700061E070E080E090E00E94F50741E06B8137
:103D8000CE01DF91CF910C944D1DCF93DF9366232D
:103D900021F0DF91CF910C94A01EEC0142E16DE780
:103DA0000E944F1C44E36DE7CE01DF91CF910C944C
:103DB0004F1C0F93CF93DF93EC018DE496E00E94AC
:103DC000A11F8B818F3F21F0CE010E94A01E04C055
:103DD00060E0CE010E94C51E63E1CE010E94101D6D
:103DE00081159F4F49F401E020E040E062E0CE0100
:103DF0000E94CB1C81E001C080E0DF91CF910F9148
:103E00000895FC01608343830C94D91E80917D0644
:103E100090E020917E06821B9109089590917E0684
:103E200080917D06981750F4E92FF0E0E158F94FA2
:103E3000208130E09F5F90937E0602C02FEF3FEF1E
:103E4000C9010895E0917E0680917D06E81730F45F
:103E5000F0E0E158F94F808190E008958FEF9FEFF7
:103E600008950895CF92DF92EF92FF920F931F93E0
:103E7000CF93DF937C01262F972F8A0180915906DB
:103E8000882391F0C62FD72F6E01C40ED51ECC15F6
:103E9000DD0571F06991D701ED91FC910190F08100
:103EA000E02DC7010995F3CF642F822F0E94F720E0
:103EB000C801DF91CF911F910F91FF90EF90DF909C
:103EC000CF900895CF93DF931F92CDB7DEB769836C
:103ED000209159062223D1F020915A06203240F039
:103EE00021E030E0FC013383228380E090E015C0C4
:103EF00080915B06E82FF0E0E45AF94F99819083B6
:103F00008F5F80935B0680935A0605C061E0CE0107
:103F100001960E94F72081E090E00F90DF91CF9111
:103F20000895FC011382128288EE93E0A0E0B0E0D5
:103F300084839583A683B7838CE294E09183808306
:103F4000089510927E0610927D0610925B061092E4
:103F50005A060C943B2081E08093590660937C06BE
:103F600010925B0610925A0608950C94AB1F0F93A3
:103F7000062F21E040915A066CE576E080917C06A0
:103F80000E94A12010925B0610925A0610925906C8
:103F90000F9108954F925F926F927F92AF92BF926E
:103FA000CF92EF92FF920F931F93CF93DF935C0119
:103FB000F62ED42F28013901EE2021F10E94AB1FEB
:103FC000CE2DC43008F0C3E0C150C0F0D501ED9152
:103FD000FC91B8E0CB9FC0011124A301920104C061
:103FE00056954795379527958A95D2F7CA01B90115
:103FF0000190F081E02DC5010995E6CF60E0C50193
:104000000E94B71F4D2FD13208F040E22C2D6FE7F0
:1040100076E08F2D0E94592010927E0680937D06B7
:10402000DF91CF911F910F91FF90EF90CF90BF90B4
:10403000AF907F906F905F904F900895CF92EF92E6
:104040000F931F93C22EE12C00E010E098010E9414
:10405000CA1F1F910F91EF90CF90089521E00C940B
:104060001E2021E00C941E2061E00C94B71F8DE40B
:1040700096E00C94911F10920C0781E080930A0740
:104080001092090761E082E10E94D20861E083E1B9
:104090000E94D208E9EBF0E080818E7F80838081EE
:1040A0008D7F808388E48093B80085E48093BC0092
:1040B0000895413208F043C090910C079111FCCF54
:1040C00091E090930C0720930A072FEF20939F060F
:1040D0001092E406240F2093E30690930B0790912F
:1040E0000B07880F892B80930B078091090781307C
:1040F00061F41092090780910B078093BB008091B7
:10410000BC0083FDF8CF85EC01C085EE8093BC0038
:1041100080910C078130E1F38091E406841710F45C
:104120004091E40625EE36E0FB01D9018A2F821B7F
:10413000841718F48D918193F9CF842F089580E02E
:1041400008950F93413208F04AC090910C079111E5
:10415000FCCF32E030930C0700930A073FEF309317
:104160009F061092E4064093E306FB0165EE76E0BD
:10417000DB013A2F361B341718F431913D93F9CFF8
:1041800010920B0730910B07880F832B80930B073E
:1041900080910907813061F41092090780910B0723
:1041A0008093BB008091BC0083FDF8CF85EC01C0FB
:1041B00085EE8093BC00222321F080910C07823091
:1041C000D1F380919F068F3F79F080919F068032D6
:1041D00041F080919F06803331F094E005C091E07A
:1041E00003C092E001C093E0892F0F9108954091A0
:1041F000C106262F30E0240F311D21323105DCF4B9
:1042000020910C072430C9F4FC0180E090E086176F
:1042100058F43091C1062191DC01AD53B94FA30F81
:10422000B11D2C930196F3CF8091C106680F609366
:10423000C10680E0089581E0089582E0089585ED4B
:104240008093BC008091BC0084FDFCCF10920C07D1
:10425000089585EC8093BC0010920C0708951F927E
:104260000F920FB60F9211242F933F934F935F93AA
:104270006F937F938F939F93AF93BF93EF93FF932E
:104280008091B900887F803609F49EC078F5883225
:1042900009F45DC090F4803109F456C038F48823E5
:1042A00009F4F5C0883009F44FC0F5C0883109F42D
:1042B0004EC0803209F45FC0EEC0803409F46AC099
:1042C00058F4803309F457C0883309F0E4C0809370
:1042D0009F060E942921DFC0803509F44FC0883530
:1042E00009F45DC0883409F0D6C0D3C0883909F418
:1042F000C4C0A8F4883709F467C038F4883609F4D4
:1043000063C0803709F460C0C6C0883809F4B5C0FE
:10431000803909F45FC0803809F0BDC05BC0803BC4
:1043200009F483C038F4803A09F466C0883A09F485
:104330007CC0B1C0803C09F4A4C0883C09F4A1C091
:10434000883B09F487C0A7C080910B0710C09091EB
:10435000E4068091E306981770F5E091E40681E0A9
:104360008E0F8093E406F0E0EB51F94F808180934B
:10437000BB0085EC83C080939F068BC0E091E40670
:1043800081E08E0F8093E4068091BB00F0E0EB515A
:10439000F94F80839091E4068091E3066BC0E09131
:1043A000E40681E08E0F8093E4068091BB00F0E08C
:1043B000EB51F94F808380910A0781116AC081E037
:1043C0008093090784EA5EC083E080930C07109213
:1043D000A006CFCF8091A006803208F04EC0E091B9
:1043E000A00681E08E0F8093A0068091BB00F0E0D4
:1043F000EF55F94F8083BDCF0E9429218091A006FF
:10440000803230F4E091A006F0E0EF55F94F1082D1
:104410006091A00670E0E0910507F091060781EA3F
:1044200096E009951092A00636C084E080930C07B0
:104430001092C2061092C106E0910707F09108079A
:1044400009958091C106811105C081E08093C10664
:104450001092C306E091C20681E08E0F8093C206DF
:10446000F0E0ED53F94F80818093BB009091C2063C
:104470008091C106981708F47CCF85E88093BC0032
:104480000AC085EC8093BC0010920C0704C0109207
:104490009F060E941F21FF91EF91BF91AF919F91C5
:1044A0008F917F916F915F914F913F912F910F90DD
:1044B0000FBE0F901F901895CF93DF9300D000D0C0
:1044C000CDB7DEB7611571058105910579F09B01C6
:1044D000AC0169833A834B835C830E94CB29298199
:1044E0003A814B815C810E94422D03C060E070E004
:1044F000CB010F900F900F900F90DF91CF91089507
:10450000CF92DF92EF92FF920F931F936217730780
:104510008407950784F489019A016B017C01C90124
:10452000B8016C197D098E099F090E945C226C0DEF
:104530007D1D8E1D9F1D1F910F91FF90EF90DF90AD
:10454000CF90089570E09B01382BC90108950E9615
:1045500024E1FC0111922A95E9F70895CF93DF93A6
:10456000EC01625F7F4F0E94330BCE01DF91CF9150
:104570000895CF93DF93EC016E5E7F4F0E94330B63
:10458000CE01DF91CF910895CF93DF93EC016A5E66
:104590007F4F0E94330BCE01DF91CF910895CF93CF
:1045A000DF93EC01625E7F4F0E94330BCE01DF91FF
:1045B000CF91089580E3FB0180833296842F82950A
:1045C0008F7090E1899F401911244A3014F4405DA6
:1045D00001C0495C4293482F8111F0CF08950F9399
:1045E00000E020E040E060E08DE097E00E94270BD3
:1045F0000F9108957F928F929F92AF92BF92CF9228
:10460000DF92EF92FF920F931F93CF93DF93CDB77B
:10461000DEB7AC970FB6F894DEBF0FBECDBF7C01FE
:10462000762E942E852E20E2B22ECE0101966C01BC
:10463000FC012B2D11922A95E9F70FEF2FEF4FEF89
:104640006FEF86960E94270B8CEE93E09AA389A3C6
:1046500089A59AA5ABA5BCA58BA39CA3ADA3BEA31E
:1046600087010D5B1F4F43E450E0BE016F5D7F4F3C
:10467000C8010E944410019609F4BFC081E08983FB
:104680008A8386E0A82EAB821C82F7016481758143
:10469000868197810E94612D6D837E838F839887A9
:1046A00089869A8680E890E09C878B874CE150E071
:1046B000B601C8010E945010F6012B2D11922A95C7
:1046C000E9F7470188E0880E911CF401D6010190BA
:1046D0000D92AA94E1F740E150E0B601C8010E94B2
:1046E0005010F6011192BA94E9F796E0A92EB12C78
:1046F00040E250E0B601C8010E945010F1E0AF1A4C
:10470000B108B1F783E6898392E89A8393E59B83A6
:104710008C8385E38D8381E08E837F829DE3988700
:1047200097E099878A8786E0F401DE011B96019065
:104730000D928A95E1F78CE0898B8A8B6AE374E0AD
:10474000CE0143960E94C52AF7014385BE01675EEC
:104750007F4FC7010E94DA22F7014485BE01655EE2
:104760007F4FC7010E94DA22F7014585BE01635ED3
:104770007F4FC7010E94DA224EE150E0B601C80126
:104780000E945010F3E07F121EC082E3898384E010
:104790008A83F70196859B8397859C8390899D8367
:1047A00091899E8396E39F838887828D8987838DF5
:1047B0008A87848D8B87858D8C874CE050E0B6018D
:1047C000C8010E94501087E3898386E08A8391E0C4
:1047D0009B8393E09C838D838FE08E838AE38F831A
:1047E0008BE388878FEF898749E050E0B601C801E5
:1047F0000E945010C8010E944C10AC960FB6F8945D
:10480000DEBF0FBECDBFDF91CF911F910F91FF9003
:10481000EF90DF90CF90BF90AF909F908F907F9060
:1048200008952F923F924F925F926F927F928F9254
:104830009F92AF92BF92DF92EF92FF920F931F93DE
:10484000CF93DF93CDB7DEB7E4970FB6F894DEBF12
:104850000FBECDBF7C011A012B0139010E94C40794
:104860004B015C0187010D5B1F4FC8010E94F210D4
:1048700018161906A4F00E94C407DC01CB018819A0
:104880009909AA09BB09281639064A065B06F0F001
:1048900062E370E080E090E00E94F507E6CF42E23C
:1048A00050E0BE016F5F7F4FC8010E948D1089816B
:1048B000823031F4F801848995898334910541F07F
:1048C000D12CC8010E942E108D2D5FC18FEF5DC1CC
:1048D0006D817E818F8198850E94612D4B015C01E5
:1048E000F301608371838283938346E050E0B701D4
:1048F000685F7F4FCE014D960E94A62A892B99F4BE
:10490000F70180819181A281B38188169906AA0658
:10491000BB0648F084819581A681B78188159905E9
:10492000AA05BB0528F4C8010E942E1080E02DC105
:1049300089899A89AB89BC89F70186879787A08B7B
:10494000B18B8EECA82EB12CC8010E946410F1E04E
:10495000AF1AB108C9F7D12CC70182969AA789A7C7
:10496000F701B696FCA7EBA708969EA78DA73C97E4
:104970004F01899698AB8FA73897FAABE9AB17012F
:10498000F6E12F0E311CC5979CAB8BABC8010E9482
:104990001410181619060CF094CFC8010E94641068
:1049A0008333910509F4CBC0FCF481309105C9F142
:1049B0001CF4892B59F3DDC083309105D1F10697A2
:1049C00009F0D7C0C8010E9464105C0144E050E0C7
:1049D0006BA97CA9C8010E948D10412C512CBB24CD
:1049E000F4E0AF1AB10840C08A33910509F47BC0E6
:1049F0003CF48533910569F0C69709F440C0B9C00D
:104A00008B33910509F485C08F3F910509F4BECF22
:104A1000B0C0C8010E946410C8010E946410D82E62
:104A2000B5CFC8010E94641044E050E069A97AA99A
:104A30003AC0C8010E9464105C0144E050E0B1013A
:104A4000C8010E948D10412C512CBB2494E0A91A5E
:104A5000B1084A145B040CF099CFC8010E9464109D
:104A6000EFEF4E1A5E0AF5CF4A145B040CF08ECFBE
:104A7000C8010E9464108FEF481A580AF5CFC80188
:104A80000E946410B82EF701828D811110C0838DB1
:104A900081110DC0848D81110AC0858D811107C0DF
:104AA00044E050E0B401C8010E948D106FCFEFA523
:104AB000F8A94080518062807380B401CE01839652
:104AC0000E94330B8DA19EA1AFA1B8A584159505B9
:104AD000A605B70529F3BB2009F458CFC8010E94E9
:104AE0006410BA94F8CFC8010E94641044E050E00A
:104AF0006BA57CA5C8010E948D10F70166A177A166
:104B000080A591A50E94612D66A377A380A791A798
:104B10003DCFC8010E94641044E050E06DA57EA521
:104B2000C8010E948D10F70162A573A584A595A503
:104B30000E94612D62A773A784A795A727CFC801FC
:104B40000E94641044E050E069A57AA5C8010E9463
:104B50008D10F70162A173A184A195A10E94612D1E
:104B600062A373A384A395A366A777A780AB91AB39
:104B70000DCFC8010E946410B82EBB2009F406CFE7
:104B8000C8010E946410BA94F8CFE4960FB6F89466
:104B9000DEBF0FBECDBFDF91CF911F910F91FF9070
:104BA000EF90DF90BF90AF909F908F907F906F902D
:104BB0005F904F903F902F9008952F923F924F9289
:104BC0005F926F927F928F929F92AF92BF92CF929D
:104BD000DF92EF92FF920F931F93CF93DF93CDB7A6
:104BE000DEB727970FB6F894DEBF0FBECDBF8C019E
:104BF00020ED37E040E050E061E070E080E090E0E0
:104C00000E948022D80114966D937D938D939C937E
:104C10001797F80160837183828393835801F3E4CB
:104C2000AF0EB11CC5010E942F1064E470E0C501F5
:104C30000E94C510882309F43CC10E94C4072B01BF
:104C40003C01812C912C1D82C8018E5B9F4F9F835C
:104C50008E8343E0342E58EEC52E53E0D52EE12C42
:104C6000F12C62E0262EAE81BF818C91833009F455
:104C700007C1811120C0F80184819581A681B78187
:104C80000196A11DB11D84839583A683B7830E94DD
:104C9000C4076419750986099709A70196010E943E
:104CA000202DA90161E0C8010E94FA2281E0AE81B5
:104CB000BF818C93C6C08430F9F4F801848195815A
:104CC000A681B7810196A11DB11D84839583A6831A
:104CD000B7830E94C4076419750986099709A7015B
:104CE00096010E94202DA90163E0C8010E94FA22CA
:104CF000AE81BF812C92A5C0813061F5F80142AD33
:104D000053AD64AD75AD9E012F5F3F4FC8010E944A
:104D100011248D83823009F094C089819A81AB81FE
:104D2000BC81F80184839583A683B7830E94C4075E
:104D30006419750986099709A70196010E94202D1B
:104D4000A90163E0C8010E94FA22ED81AE81BF8112
:104D5000EC937EC0823009F074C0D801DA964D9190
:104D60005D916D917C91DD979E012F5F3F4FC80152
:104D70000E9411248D83853009F05CC0EE81FF8193
:104D80003082F80182A193A1A4A1B5A1892B8A2B1D
:104D90008B2B41F484E893E0A0E0B0E082A393A3DE
:104DA000A4A3B5A3F80186A197A1A0A5B1A5892BBD
:104DB0008A2B8B2B61F482A193A1A4A1B5A1B695F6
:104DC000A7959795879586A397A3A0A7B1A7F80164
:104DD00082A593A5A4A5B5A5892B8A2B8B2BA9F415
:104DE00082A193A1A4A1B5A1AC01BD0123E0769558
:104DF0006795579547952A95D1F7841B950BA60B78
:104E0000B70B82A793A7A4A7B5A7F80186A197A17E
:104E1000A0A5B1A586A797A7A0ABB1AB82A593A586
:104E2000A4A5B5A582AB93ABA4ABB5AB8824839402
:104E3000912C0EC0FD81F63021F4AE81BF811C9211
:104E400007C0BD81BF3F21F4EE81FF8110821D822A
:104E5000F1E08F16910409F406CF0E94C407DC012B
:104E6000CB0184199509A609B709F80126A937A924
:104E700040AD51AD281739074A075B0708F0F3CE5C
:104E8000C5010E942F10F80184819581A681B78108
:104E90000196A11DB11D84839583A683B7830E94CB
:104EA000C407F801FE966083718382839383C401F3
:104EB00002C080E090E027960FB6F894DEBF0FBEE8
:104EC000CDBFDF91CF911F910F91FF90EF90DF90B9
:104ED000CF90BF90AF909F908F907F906F905F909A
:104EE0004F903F902F900895CF92DF92EF92FF92D4
:104EF0000F931F93CF93DF93EC016B011AA21BA2B8
:104F00001CA21DA21EA21FA218A619A61AA61BA6A5
:104F10001CA61DA62EAB3FAB48AF59AFEAAEFBAE09
:104F20000CAF1DAF8C01085F1F4F86E0F801119296
:104F30008A95E9F7CE010E94A72286E0F601D80102
:104F400001900D928A95E1F7FE01EE5BFF4F108212
:104F5000CE01DF91CF911F910F91FF90EF90DF90E5
:104F6000CF900C94DD25CF92DF92EF92FF920F93BA
:104F70001F93CF93DF93EC010E94C4076B017C0168
:104F80008E01025C1F4FF80180819181A281B38163
:104F9000A7019601281B390B4A0B5B0BCA01B9010B
:104FA000683E33E073078105910508F441C028EE9F
:104FB00033E040E050E00E94202DC61AD70AE80AEC
:104FC000F90AF801C082D182E282F3828EA59FA500
:104FD000A8A9B9A969017A01CC0CDD1CEE1CFF1C43
:104FE0008C159D05AE05BF0528F41EA61FA618AAA0
:104FF00019AA08C0821B930BA40BB50B8EA79FA701
:10500000A8ABB9AB8AA99BA9ACA9BDA98C159D0574
:10501000AE05BF0528F41AAA1BAA1CAA1DAA08C01F
:10502000821B930BA40BB50B8AAB9BABACABBDAB9C
:105030008EA59FA5A8A9B9A9892B8A2B8B2B69F4CA
:10504000FE01EE5BFF4F8081833039F484E0808382
:10505000CE010E94DD25019602C080E090E04AA9C1
:105060005BA96CA97DA9452B462B472B81F4FE013A
:10507000EE5BFF4F2081233011F0211108C0108218
:10508000CE010E94A722CE010E94DD250396DF916A
:10509000CF911F910F91FF90EF90DF90CF900895E7
:1050A000CF93DF938230910510F482E090E0E0919D
:1050B0001507F091160720E030E0C0E0D0E030970F
:1050C00011F14081518148175907C0F0481759071D
:1050D00061F482819381209719F09B838A832BC08E
:1050E000909316078093150726C02115310519F0F6
:1050F0004217530718F49A01BE01DF01EF01028045
:10510000F381E02DDCCF2115310509F1281B390B86
:105110002430310590F412968D919C91139761156E
:10512000710521F0FB019383828304C090931607DD
:1051300080931507FD01329644C0FD01E20FF31F75
:1051400081939193225031092D933C933AC0209141
:10515000130730911407232B41F420910201309161
:10516000030130931407209313072091000130911D
:1051700001012115310541F42DB73EB740910401DD
:1051800050910501241B350BE0911307F091140792
:10519000E217F307A0F42E1B3F0B2817390778F00E
:1051A000AC014E5F5F4F2417350748F04E0F5F1F6D
:1051B00050931407409313078193919302C0E0E04A
:1051C000F0E0CF01DF91CF9108950F931F93CF931C
:1051D000DF93009709F48CC0FC013297138212828E
:1051E00000911507109116070115110581F4208112
:1051F0003181820F931F20911307309114072817D4
:10520000390779F5F0931407E093130771C0D801BB
:1052100040E050E0AE17BF0750F412962D913C913C
:105220001397AD012115310509F1D901F3CF9D0186
:10523000DA013383228360817181860F971F821781
:10524000930769F4EC0128813981260F371F2E5FFF
:105250003F4F318320838A819B8193838283452BB7
:1052600029F4F0931607E093150742C01396FC93B8
:10527000EE931297ED01499159919E01240F351F2C
:10528000E217F30771F480819181840F951F0296D4
:1052900011969C938E938281938113969C938E9307
:1052A0001297E0E0F0E0D80112968D919C9113974F
:1052B000009719F0F8018C01F6CF8D919C9198011F
:1052C0002E5F3F4F820F931F2091130730911407D9
:1052D0002817390769F4309729F4109216071092AD
:1052E000150702C01382128210931407009313074C
:1052F000DF91CF911F910F9108958F929F92AF925E
:10530000BF92CF92DF92EF92FF92CF93DF93EC01A7
:10531000688179818A819B8161157105810591057B
:1053200021F464E279ED8BE597E02DE133EF41E084
:1053300050E00E94422D49015A019B01AC01A7EAAD
:10534000B1E40E94682D6B017C01ACEEB4EFA501C5
:1053500094010E94762DDC01CB018C0D9D1DAE1DAC
:10536000BF1DB7FF03C00197A109B0488883998387
:10537000AA83BB83BC01CD019F77DF91CF91FF90C2
:10538000EF90DF90CF90BF90AF909F908F90089557
:105390000E947D29089586E091E00E947D2908956C
:1053A00060930601709307018093080190930901AF
:1053B0000895A0E0B0E0EFEDF9E20C947F2DEC0150
:1053C000009721F4CB010E945028B8C0FC01E60FE1
:1053D000F71F9C0122503109E217F30708F4ACC013
:1053E000D9010D911C91119706171707B0F00530E0
:1053F000110508F49FC0C80104978617970708F4A1
:1054000099C002501109061B170B019311936D935C
:105410007C93CF010E94E5288DC05B01A01AB10AE0
:105420004C01800E911EA0911507B091160740E027
:1054300050E0E12CF12C109709F44AC0A815B905E9
:10544000D1F56D907C901197630182E0C80ED11C5C
:10545000CA14DB0480F1A3014A195B096A0182E0E6
:10546000C80ED11C1296BC9012971396AC91B5E061
:10547000CB16D10440F0B282A38351834083D9017B
:105480006D937C930AC00E5F1F4FC301800F911F65
:10549000F90191838083EB2DFA2FE114F10431F0AF
:1054A000D7011396FC93EE93129744C0F09316071E
:1054B000E09315073FC08D919C91119748175907AC
:1054C00008F4AC017D0112960D90BC91A02DB3CFD4
:1054D000809113079091140788159905E1F44617F8
:1054E0005707C8F48091000190910101009741F4A1
:1054F0008DB79EB74091040150910501841B950B17
:10550000E817F907C8F4F0931407E0931307F901BB
:10551000718360830FC0CB010E9450287C010097EB
:1055200059F0A801BE010E94B32ACE010E94E528CD
:10553000C70104C0CE0102C080E090E0CDB7DEB765
:10554000EEE00C949B2DF8940C94DD2DFB01DC0116
:1055500004C08D910190801921F441505040C8F74A
:10556000881B990B0895FB01DC0102C001900D928C
:1055700041505040D8F70895FB01DC018D91019016
:1055800080190110D9F3990B0895FB01DC010190FA
:105590000D920020E1F708954532510520F4423084
:1055A00010F00C94D72AFB011082CB010895BB2781
:1055B0004A3031F4992322F4BDE2909581959F4FB2
:1055C0000C94EE2A4532510520F4423010F00C9430
:1055D000ED2AFB011082CB010895BB27FB01552763
:1055E000AA27880F991FAA1FA41710F0A41B839540
:1055F0005051B9F7A05DAA3308F0A95DA1930097B7
:1056000079F7B111B1931192CB010C94102D505830
:10561000BB27AA270E941F2B0C94692C0E945B2C8D
:1056200038F00E94622C20F039F49F3F19F426F4E0
:105630000C94582C0EF4E095E7FB0C94522CE92FB7
:105640000E947A2C58F3BA176207730784079507EC
:1056500020F079F4A6F50C949C2C0EF4E0950B2E1A
:10566000BA2FA02D0B01B90190010C01CA01A001B4
:105670001124FF27591B99F0593F50F4503E68F10F
:105680001A16F040A22F232F342F4427585FF3CF50
:10569000469537952795A795F0405395C9F77EF421
:1056A0001F16BA0B620B730B840BBAF09150A1F06A
:1056B000FF0FBB1F661F771F881FC2F70EC0BA0FF0
:1056C000621F731F841F48F4879577956795B79578
:1056D000F7959E3F08F0B0CF9395880F08F0992773
:1056E000EE0F9795879508950E94882B0C94692C4E
:1056F0000E94622C58F00E945B2C40F029F45F3F1E
:1057000029F00C94522C51110C949D2C0C94582C73
:105710000E947A2C68F39923B1F3552391F3951BDA
:10572000550BBB27AA2762177307840738F09F5FC2
:105730005F4F220F331F441FAA1FA9F335D00E2E2F
:105740003AF0E0E832D091505040E695001CCAF79C
:105750002BD0FE2F29D0660F771F881FBB1F26175F
:1057600037074807AB07B0E809F0BB0B802DBF0136
:10577000FF2793585F4F3AF09E3F510578F00C9405
:10578000522C0C949D2C5F3FE4F3983ED4F3869505
:1057900077956795B795F7959F5FC9F7880F911D26
:1057A0009695879597F90895E1E0660F771F881F12
:1057B000BB1F621773078407BA0720F0621B730BC5
:1057C000840BBA0BEE1F88F7E09508950E94822C97
:1057D00088F09F5798F0B92F9927B751B0F0E1F0B2
:1057E000660F771F881F991F1AF0BA95C9F714C062
:1057F000B13091F00E949C2CB1E008950C949C2C47
:10580000672F782F8827B85F39F0B93FCCF386959A
:1058100077956795B395D9F73EF4909580957095F7
:1058200061957F4F8F4F9F4F0895E89409C097FB74
:105830003EF490958095709561957F4F8F4F9F4F67
:105840009923A9F0F92F96E9BB279395F6958795AB
:1058500077956795B795F111F8CFFAF4BB0F11F46E
:1058600060FF1BC06F5F7F4F8F4F9F4F16C0882315
:1058700011F096E911C0772321F09EE8872F762F4B
:1058800005C0662371F096E8862F70E060E02AF08C
:105890009A95660F771F881FDAF7880F9695879578
:1058A00097F9089597F99F6780E870E060E00895A0
:1058B0009FEF80EC089500240A9416161706180628
:1058C0000906089500240A94121613061406050604
:1058D0000895092E0394000C11F4882352F0BB0F95
:1058E00040F4BF2B11F460FF04C06F5F7F4F8F4FF8
:1058F0009F4F089557FD9058440F551F59F05F3F33
:1059000071F04795880F97FB991F61F09F3F79F0E1
:1059100087950895121613061406551FF2CF469563
:10592000F1DF08C0161617061806991FF1CF8695E5
:105930007105610508940895E894BB2766277727C9
:10594000CB0197F908950E94B62C0C94692C0E9403
:105950005B2C38F00E94622C20F0952311F00C94FF
:10596000522C0C94582C11240C949D2C0E947A2CAF
:1059700070F3959FC1F3950F50E0551F629FF001A2
:10598000729FBB27F00DB11D639FAA27F00DB11DBB
:10599000AA1F649F6627B00DA11D661F829F222744
:1059A000B00DA11D621F739FB00DA11D621F839FCB
:1059B000A00D611D221F749F3327A00D611D231FA1
:1059C000849F600D211D822F762F6A2F11249F57EF
:1059D00050409AF0F1F088234AF0EE0FFF1FBB1FF2
:1059E000661F771F881F91505040A9F79E3F5105B1
:1059F00080F00C94522C0C949D2C5F3FE4F3983E65
:105A0000D4F3869577956795B795F795E7959F5F5A
:105A1000C1F7FE2B880F911D9695879597F90895EC
:105A2000DC01FC01672F71917723E1F7329704C005
:105A30007C916D9370836291AE17BF07C8F3089590
:105A4000A1E21A2EAA1BBB1BFD010DC0AA1FBB1F82
:105A5000EE1FFF1FA217B307E407F50720F0A21BF4
:105A6000B30BE40BF50B661F771F881F991F1A9461
:105A700069F760957095809590959B01AC01BD018B
:105A8000CF010895052E97FB1EF400940E94592D16
:105A900057FD07D00E94202D07FC03D04EF40C9434
:105AA000592D50954095309521953F4F4F4F5F4F61
:105AB000089590958095709561957F4F8F4F9F4F7A
:105AC00008956927962769277827872778270895D3
:105AD0000E94B82DA59F900DB49F900DA49F800D9E
