:100000000C9466000C948E000C948E000C948E0060
:100010000C948E000C948E000C94480F0C948E005F
:100020000C948E000C948E000C948E000C948E0018
:100030000C948E000C948E000C948E000C948E0008
:100040000C9469070C948E000C942B0A0C945D0A96
:100050000C948E000C948E000C948E000C948E00E8
:100060000C9420210C948E00000000080002010076
:100070000003040700000000000000000102040863
:100080001020408001020408102001020408102002
:10009000040404040404040402020202020203032E
:1000A0000303030300000000250028002B000000CC
:1000B0000000240027002A0090008D0A770C410FD1
:1000C0004312F31848192820E022EE0011241FBE25
:1000D000CFEFD8E0DEBFCDBF14E0A0E0B1E0E6EBAB
:1000E000FBE502C005900D92A035B107D9F727E0D6
:1000F000A0E5B4E001C01D92A632B207E1F710E01E
:10010000C5E6D0E004C02197FE010E94A32DCC35A6
:10011000D107C9F70E94BB0A0C94942A0C940000E2
:100120000F9300E020E040E060E082E195E00E9473
:10013000500C01E021E041E06AE08CE095E00E9493
:10014000500C81EF94E00E94CB1186ED94E00E9468
:10015000CB118BEB94E00E94CB116AED71E085E945
:1001600094E00E94F00C8BE894E00E94381C8AE82E
:1001700094E00E94AE0E89E894E00E94AE0E88E8FA
:1001800094E00E94AE0E80E894E00E94C70DE0E586
:10019000F4E0148215821682178280E090E0A6ECCB
:1001A000B2EC80879187A287B38784879587A687DB
:1001B000B787808B918BA28BB38B848B958BA68B0F
:1001C000B78B808F918FA28FB38F148E158E168E62
:1001D000178E10A211A212A20F91089585E994E042
:1001E0000C94820C0F931F93CF93DF9300D000D019
:1001F00000D0CDB7DEB78C014091100150911101B4
:100200008CE094E09A83898380910E0590910F058C
:10021000A0911005B09111058B839C83AD83BE83A3
:10022000BE016F5F7F4F8BEB94E00E943310B801EB
:100230008BEB94E00E9434098BEB94E00E943B101E
:1002400026960FB6F894DEBF0FBECDBFDF91CF91DB
:100250001F910F9108958F929F92AF92BF92CF926C
:10026000DF92EF92FF920F931F93CF93DF9300D013
:1002700000D000D0CDB7DEB760E47FE184EC95E03C
:100280000E94BF0F0E94B3074B015C010E94B3079D
:100290000E94062C60937C0470937D0480937E04FE
:1002A00090937F0426E040E051EE60E070E081E250
:1002B00095E00E949F0B6CE171E081E295E00E9465
:1002C000590960E082E00E94C10861E082E00E947A
:1002D000850860E082E00E94C10860E088E00E943A
:1002E000C10861E088E00E94850860E088E00E9423
:1002F000C10860E089E00E94C10861E089E00E94D5
:10030000850860E089E00E94C10861E083E00E9406
:10031000C10861E083E00E94850861E083E00E94FB
:10032000C10861E085E00E94C10861E085E00E94AB
:10033000850861E085E00E94C10861E086E00E94D6
:10034000C10861E086E00E94850861E086E00E94C5
:10035000C10861E087E00E94C10861E087E00E9477
:10036000850861E087E00E94C10861E084E00E94A6
:10037000C10861E084E00E94850861E084E00E9499
:10038000C10895EBE92E94E0F92E670100919304E2
:1003900010919404C8010E94B82DD6018D936D016F
:1003A0000F5F1F4F1093940400939304BBEBCB1685
:1003B000B4E0DB0659F7E5E7F4E0D7018D917D0164
:1003C0008193BBEBEB16B4E0FB06B9F710EAE12E24
:1003D0001FE0F12E00E010E020E63AEE40E050E0B1
:1003E00065EB74E08EED95E00E94C917892B61F4EE
:1003F0006CE271E081E295E00E94590960E177E2E8
:1004000080E090E00E94E4076AE671E081E295E016
:100410000E9459096EED75E0CE0101960E94CB183D
:10042000BE016F5F7F4F81E295E00E946B09609192
:1004300014017091150181EF94E00E94B410609155
:1004400012017091130186ED94E00E94B410609146
:100450001001709111018BEB94E00E94B4106CEDCF
:1004600075E080E090E00E94E40769E771E0CE016A
:1004700001960E94F00CCE0101960E94F200CE017E
:1004800001960E94820C6AE871E0CE0101960E94FA
:10049000F00CCE0101960E94F200CE0101960E945E
:1004A000820C4AE06091BB04CE0101960E941C0DB3
:1004B000CE0101960E94F200CE0101960E94820CAC
:1004C0006BEA71E0CE0101960E94F00CCE0101961C
:1004D0000E94F200CE0101960E94820C4AE06091D7
:1004E000B504CE0101960E941C0DCE0101960E941A
:1004F000F200CE0101960E94820C4AE06091B6049F
:10050000CE0101960E941C0DCE0101960E94F200C0
:10051000CE0101960E94820C4AE06091B704CE01A0
:1005200001960E941C0DCE0101960E94F200CE01A0
:1005300001960E94820C4AE06091B804CE010196B7
:100540000E941C0DCE0101960E94F200CE01019680
:100550000E94820C4AE06091B904CE0101960E948B
:100560001C0DCE0101960E94F200CE0101960E9460
:10057000820C4AE06091BA04CE0101960E941C0DE3
:10058000CE0101960E94F200CE0101960E94820CDB
:1005900080910E0190910F010E94B82D682F70E09C
:1005A00080E090E00E94062C609350047093510408
:1005B00080935204909353046EEB71E081E295E0D6
:1005C0000E9442096EEB71E0CE0101960E94F00C90
:1005D000CE0101960E94F200CE0101960E94820C8B
:1005E00000E010E06FEC71E081E295E00E944209CA
:1005F0004AE050E0B80181E295E00E94100A69EDFE
:1006000071E081E295E00E9442096BED71E081E2C8
:1006100095E00E944209C8010E94B82D4AE050E0CE
:10062000682F81E295E00E94240A69ED71E081E281
:1006300095E00E9442096FEC71E0CE0101960E94A4
:10064000F00CCE0101960E94F200CE0101960E94AC
:10065000820C4AE0B801CE0101960E94490DCE01FC
:1006600001960E94F200CE0101960E94820C6BED71
:1006700071E0CE0101960E94F00CCE0101960E941D
:10068000F200CE0101960E94820CC8010E94B82D92
:100690004AE0682FCE0101960E941C0DCE01019602
:1006A0000E94F200CE0101960E94820C0F5F1F4F44
:1006B0000830110509F096CF4FEF6EE38BE894E018
:1006C0000E94F21E882309F4F9C062EE71E081E213
:1006D00095E00E94590962EE71E0CE0101960E94F8
:1006E000F00CCE0101960E94F200CE0101960E940C
:1006F000820C40E060E08BE894E00E948F1E40E0B6
:1007000060E08BE894E00E949A1D40E061E08BE895
:1007100094E00E948F1E40E061E08BE894E00E942C
:100720009A1D40E062E08BE894E00E948F1E40E05A
:1007300062E08BE894E00E949A1D40E063E08BE861
:1007400094E00E948F1E40E063E08BE894E00E94FA
:100750009A1D40E064E08BE894E00E948F1E40E028
:1007600064E08BE894E00E949A1D40E065E08BE82D
:1007700094E00E948F1E40E065E08BE894E00E94C8
:100780009A1D40E066E08BE894E00E948F1E40E0F6
:1007900066E08BE894E00E949A1D40E067E08BE8F9
:1007A00094E00E948F1E40E067E08BE894E00E9496
:1007B0009A1D40E068E08BE894E00E948F1E40E0C4
:1007C00068E08BE894E00E949A1D40E069E08BE8C5
:1007D00094E00E948F1E40E069E08BE894E00E9464
:1007E0009A1D40E06AE08BE894E00E948F1E40E092
:1007F0006AE08BE894E00E949A1D40E06BE08BE891
:1008000094E00E948F1E40E06BE08BE894E00E9431
:100810009A1D41E06CE08BE894E00E948F1E41E05D
:100820006DE08BE894E00E948F1E41E06EE08BE863
:1008300094E00E948F1E41E06FE08BE894E00E94FC
:100840008F1E00E010E0602F8BE894E00E94C11D35
:10085000002E01C0880F0A94EAF720917304822BBE
:10086000809373040F5F1F4F0830110561F708E094
:1008700010E0602F8BE894E00E94C11D002E01C0A3
:10088000880F0A94EAF720917404822B80937404F1
:100890000F5F1F4F0F30110561F760917304809156
:1008A0000C0190910D010E94C02D60917404809103
:1008B0000A0190910B010E94C02D14C069EF71E0F4
:1008C00081E295E00E94590969EF71E0CE0101963D
:1008D0000E94F00CCE0101960E94F200CE0101961A
:1008E0000E94820C0E94B3076B017C0163E172E0FD
:1008F000CE0101960E94F00CCE0101960E94F200FA
:10090000CE0101960E94820CB601681979094AE06D
:10091000CE0101960E94750DCE0101960E94F20053
:10092000CE0101960E94820C26960FB6F894DEBF87
:100930000FBECDBFDF91CF911F910F91FF90EF9030
:10094000DF90CF90BF90AF909F908F900895CF93FE
:10095000DF9300D000D000D0CDB7DEB769E272E0FF
:1009600081E295E00E94590969E272E0CE010196A8
:100970000E94F00CCE0101960E94F200CE01019679
:100980000E94820C64EF71E080E090E00E94E40736
:1009900060E084E00E94C10826960FB6F894DEBF9E
:1009A0000FBECDBFDF91CF910895CF93DF93CDB729
:1009B000DEB72C970FB6F894DEBF0FBECDBF48E16F
:1009C00050E06BE974E081EF94E00E947C106BE9E9
:1009D00074E0CE0107960E94F00C60E472E0CE0154
:1009E00007960E94A10D8823C9F065E472E081E2B8
:1009F00095E00E94590965E472E0CE0101960E94DB
:100A0000F00CCE0101960E94F200CE0101960E94E8
:100A1000820C84EC95E00E94520F28C166E572E0DA
:100A2000CE0107960E94A10D882341F061E082E08B
:100A30000E94C10881E080936C0418C163E672E0F3
:100A4000CE0107960E94A10D882339F060E082E074
:100A50000E94C10810926C0409C161E772E0CE01E6
:100A600007960E94A10D882371F06DE772E081E284
:100A700095E00E94590960E083E00E94C10881E08E
:100A800080936F04F3C069E872E0CE0107960E947C
:100A9000A10D882369F066E972E081E295E00E9489
:100AA000590961E083E00E94C10810926F04DEC022
:100AB00063EA72E0CE0107960E94A10D882371F0CF
:100AC0006FEA72E081E295E00E94590960E085E0FA
:100AD0000E94C10881E080937004C8C06BEB72E093
:100AE000CE0107960E94A10D882369F068EC72E0A0
:100AF00081E295E00E94590961E085E00E94C10809
:100B000010927004B3C065ED72E0CE0107960E94AA
:100B1000A10D882371F061EE72E081E295E00E9400
:100B2000590960E086E00E94C10881E08093710469
:100B30009DC06DEE72E0CE0107960E94A10D882344
:100B400069F06AEF72E081E295E00E94590961E084
:100B500086E00E94C1081092710488C067E073E0CB
:100B6000CE0107960E94A10D882371F063E173E026
:100B700081E295E00E94590960E087E00E94C10887
:100B800081E08093720472C06FE173E0CE0107963A
:100B90000E94A10D882369F06CE273E081E295E088
:100BA0000E94590961E087E00E94C1081092720416
:100BB0005DC069E373E0CE0107960E94A10D882312
:100BC00041F061E088E00E94C10881E080936D04FB
:100BD0004DC060E473E0CE0107960E94A10D88230A
:100BE00039F060E088E00E94C10810926D043EC0B8
:100BF00068E473E0CE0107960E94A10D882371F08E
:100C00006FE473E081E295E00E94590961E089E0B8
:100C10000E94C10881E080936E0428C066E573E0FD
:100C2000CE0107960E94A10D882339F060E089E08B
:100C30000E94C10810926E0419C06EE573E0CE01E7
:100C400007960E94A10D882319F00E94A7040EC0E8
:100C500064E673E0CE0101960E94F00CCE0101968D
:100C60000E94F200CE0101960E94820C88E1EBE91D
:100C7000F4E0DF011D928A95E9F7CE0107960E9404
:100C8000820C2C960FB6F894DEBF0FBECDBFDF915D
:100C9000CF910895CF93DF9300D000D000D0CDB78F
:100CA000DEB70E94B3076BE18AE894E00E94020F6E
:100CB000882369F08AE894E00E94240F6093580426
:100CC0007093590480935A0490935B0412C06FE7A9
:100CD00073E081E295E00E94590980E090E0A6EC83
:100CE000B2EC8093580490935904A0935A04B093A3
:100CF0005B046AE189E894E00E94020F882369F0AE
:100D000089E894E00E94240F60935C0470935D0472
:100D100080935E0490935F0412C065E973E081E202
:100D200095E00E94590980E090E0A6ECB2EC809337
:100D30005C0490935D04A0935E04B0935F0468E14B
:100D400088E894E00E94020F882369F088E894E024
:100D50000E94240F60936004709361048093620486
:100D60009093630412C06BEA73E081E295E00E9405
:100D7000590980E090E0A6ECB2EC80936004909377
:100D80006104A0936204B093630480E894E00E943D
:100D9000DE0D8823C9F080E894E00E940C0E609379
:100DA000640470936504809366049093670480E8FC
:100DB00094E00E945D0E60936804709369048093D0
:100DC0006A0490936B041AC061EC73E081E295E0D1
:100DD0000E94590980E090E0A6ECB2EC8093640494
:100DE00090936504A0936604B093670480936804AD
:100DF00090936904A0936A04B0936B040E94B307B4
:100E00000E94062C20917C0430917D0440917E0448
:100E100050917F040E94F82A20E030E04AE754E431
:100E20000E94652B6093540470935504809356047C
:100E30009093570440911201509113018CE094E07B
:100E40009A83898380910E0590910F05A0911005DA
:100E5000B09111058B839C83AD83BE83BE016F5F10
:100E60007F4F86ED94E00E9433104CE250E060E545
:100E700074E086ED94E00E943F1086ED94E00E94BD
:100E80003B1064ED73E081E295E00E94590981EF27
:100E900094E00E94E1109093B4048093B304181678
:100EA000190614F40E94D5048EED95E00E94661890
:100EB0000E94B30760ED77E080E090E00E94E407D5
:100EC00026960FB6F894DEBF0FBECDBFDF91CF914F
:100ED00008951F920F920FB60F9211242F933F93F4
:100EE0008F939F93AF93BF938091190590911A05AB
:100EF000A0911B05B0911C053091180523E0230F2C
:100F00002D3720F40196A11DB11D05C026E8230F41
:100F10000296A11DB11D2093180580931905909389
:100F20001A05A0931B05B0931C0580911D05909197
:100F30001E05A0911F05B09120050196A11DB11DB0
:100F400080931D0590931E05A0931F05B093200567
:100F5000BF91AF919F918F913F912F910F900FBEB5
:100F60000F901F9018952FB7F89460911905709104
:100F70001A0580911B0590911C052FBF08953FB75E
:100F8000F89480911D0590911E05A0911F05B091C8
:100F9000200526B5A89B05C02F3F19F00196A11D7D
:100FA000B11D3FBFBA2FA92F982F8827820F911DFF
:100FB000A11DB11DBC01CD0142E0660F771F881F46
:100FC000991F4A95D1F708958F929F92AF92BF9241
:100FD000CF92DF92EF92FF926B017C010E94BF07DC
:100FE0004B015C01C114D104E104F10401F10E9440
:100FF0005B080E94BF07DC01CB0188199909AA0987
:10100000BB09883E9340A105B10560F321E0C21AF7
:10101000D108E108F10888EE880E83E0981EA11C33
:10102000B11CC114D104E104F10419F7DBCFFF9026
:10103000EF90DF90CF90BF90AF909F908F900895EA
:10104000789484B5826084BD84B5816084BD85B5A3
:10105000826085BD85B5816085BDEEE6F0E080816A
:1010600081608083E1E8F0E010828081826080838B
:10107000808181608083E0E8F0E08081816080830E
:10108000E1EBF0E0808184608083E0EBF0E0808140
:1010900081608083EAE7F0E08081846080838081E2
:1010A000826080838081816080838081806880838A
:1010B0001092C10008950895833081F028F48130A2
:1010C00099F08230A1F008958730A9F08830B9F006
:1010D0008430D1F4809180008F7D03C080918000A6
:1010E0008F7780938000089584B58F7702C084B590
:1010F0008F7D84BD08958091B0008F7703C080916B
:10110000B0008F7D8093B0000895CF93DF9390E07F
:10111000FC01E458FF4F2491FC01E057FF4F8491FC
:10112000882361F190E0880F991FFC01E255FF4F81
:10113000C591D491FC01EC55FF4FA591B49161117B
:1011400009C09FB7F8948881209582238883EC9109
:101150002E230BC0623061F49FB7F8943881822F40
:10116000809583238883EC912E2B2C939FBF06C000
:101170008FB7F894E8812E2B28838FBFDF91CF9112
:1011800008951F93CF93DF93282F30E0F901E8599A
:10119000FF4F8491F901E458FF4FD491F901E057D2
:1011A000FF4FC491CC23C9F0162F81110E945C0817
:1011B000EC2FF0E0EE0FFF1FEC55FF4FA591B4911F
:1011C0008FB7F894111105C09C91ED2FE095E9239C
:1011D00002C0EC91ED2BEC938FBFDF91CF911F916B
:1011E000089580E090E00895CF92DF92EF92FF9211
:1011F0000F931F93CF93DF936C017A018B01C0E0B3
:10120000D0E0CE15DF0589F0D8016D918D01D601B2
:10121000ED91FC910190F081E02DC6010995892B9B
:1012200011F47E0102C02196ECCFC701DF91CF916E
:101230001F910F91FF90EF90DF90CF90089561156F
:10124000710579F0FB0101900020E9F73197AF01BA
:10125000461B570BDC01ED91FC910280F381E02DE0
:10126000099480E090E00895DC01ED91FC91DB01B0
:1012700014964D915C9115976D917C910280F3814C
:10128000E02D09940C941F09DC01ED91FC91019073
:10129000F081E02D0994DB01ED91FC911197019013
:1012A000F081E02DBC01CD01099467EE73E00C9450
:1012B0001F090F931F93CF93DF93EC010E941F0927
:1012C0008C01CE010E945509800F911FDF91CF91B3
:1012D0001F910F9108950F931F93CF93DF93EC010C
:1012E0000E944B098C01CE010E945509800F911F6D
:1012F000DF91CF911F910F9108954F925F926F925E
:101300007F92EF92FF920F931F93CF93DF93CDB70E
:10131000DEB7A1970FB6F894DEBF0FBECDBF7C013C
:10132000FA01CB0119A2223008F42AE08E010F5DE8
:101330001F4F422E512C612C712CBF01A301920131
:101340000E94112DF901CA01015011096A3014F4EB
:10135000605D01C0695CD8016C93232B242B252B85
:1013600061F7B801C7010E941F09A1960FB6F89452
:10137000DEBF0FBECDBFDF91CF911F910F91FF90C8
:10138000EF907F906F905F904F900895CF92DF9293
:10139000EF92FF920F931F93CF93DF93EC016A01BB
:1013A0007B012115310579F4E881F9810190F08103
:1013B000E02D642FDF91CF911F910F91FF90EF905F
:1013C000DF90CF9009942A303105E9F477FF1AC0F5
:1013D0006DE20E9444098C0144275527BA014C193B
:1013E0005D096E097F092AE0CE010E947D09800F08
:1013F000911FDF91CF911F910F91FF90EF90DF90A0
:10140000CF9008952AE0B701A601CE01DF91CF91D8
:101410001F910F91FF90EF90DF90CF900C947D097A
:101420009A01AB01770F660B770B0C94C609211557
:10143000310541F4DC01ED91FC910190F081E02D4A
:10144000642F09940C947D099A01462F50E060E0C6
:1014500070E00C94170A1F920F920FB60F9211248E
:101460002F938F939F93EF93FF93E0913105F0912A
:1014700032058081E0913705F091380582FD12C078
:10148000908180913A058F5F8F7320913B05821781
:1014900051F0E0913A05F0E0EF5DFA4F958F8093BF
:1014A0003A0501C08081FF91EF919F918F912F911B
:1014B0000F900FBE0F901F9018951F920F920FB6AE
:1014C0000F9211242F933F934F935F936F937F93CA
:1014D0008F939F93AF93BF93EF93FF9381E295E038
:1014E0000E94150BFF91EF91BF91AF919F918F914A
:1014F0007F916F915F914F913F912F910F900FBE10
:101500000F901F90189581E295E00E94CA0A21E091
:10151000892B09F420E0822F0895E1E2F5E013829F
:10152000128288EE93E0A0E0B0E084839583A683E6
:10153000B7838AEF93E09183808385EC90E0958771
:10154000848784EC90E09787868780EC90E0918B8D
:10155000808B81EC90E0938B828B82EC90E0958B7A
:10156000848B86EC90E0978B868B118E128E138E77
:10157000148E089508950E9420080E94BA0A0E94BD
:101580002B01C7E0DBE00E944A062097E1F30E94AE
:10159000070BF9CFFC01918D228D892F90E0805CA3
:1015A0009F4F821B91098F7399270895FC01918D9C
:1015B000828D981731F0828DE80FF11D858D90E0B6
:1015C00008958FEF9FEF0895FC01918D828D9817FC
:1015D00061F0828DDF01A80FB11D5D968C91928D17
:1015E0009F5F9F73928F90E008958FEF9FEF089514
:1015F000FC01538D448D252F30E0842F90E0821B19
:10160000930B541710F0CF9608950197089583E82F
:101610009AE0892B49F080E090E0892B29F00E9424
:10162000830A81110C9400000895FC01848DDF0170
:10163000A80FB11DA35ABF4F2C91848D90E0019645
:101640008F739927848FA689B7892C93A089B18934
:101650008C9180648C93938D848D981306C002883E
:10166000F389E02D80818F7D80830895CF93DF9370
:10167000EC01888D8823C9F0EA89FB89808185FD8A
:1016800005C0A889B9898C9186FD0FC00FB607FCEB
:10169000F5CF808185FFF2CFA889B9898C9185FF2C
:1016A000EDCFCE010E94150BE7CFDF91CF910895CA
:1016B000EF92FF920F931F93CF93DF93EC0181E0A2
:1016C000888F9B8D8C8D981305C0E889F98980815E
:1016D00085FD24C0F62E0B8D10E00F5F1F4F0F739A
:1016E0001127E02E8C8DE8120CC00FB607FCFACF44
:1016F000E889F989808185FFF5CFCE010E94150B1D
:10170000F1CF8B8DFE01E80FF11DE35AFF4FF08200
:101710000B8FEA89FB898081806207C0EE89FF898F
:101720006083E889F98980818064808381E090E02A
:10173000DF91CF911F910F91FF90EF900895CF927D
:10174000DF92EF92FF921F93CF93DF93EC016A0138
:101750007B01122FE889F98982E080834115514E7F
:1017600061057105B1F060E079E08DE390E0A701DB
:1017700096010E94112DDA01C9010197A109B10951
:10178000B695A79597958795AC01411580E15807C7
:10179000A8F0E889F989108260E874E88EE190E0A9
:1017A000A70196010E94112DBA01A90141505109CA
:1017B000610971097695679557954795EC85FD8583
:1017C0005083EE85FF854083188EEC89FD89108358
:1017D000EA89FB89808180618083EA89FB89808135
:1017E00088608083EA89FB89808180688083EA89B8
:1017F000FB8980818F7D8083DF91CF911F91FF9046
:10180000EF90DF90CF9008958F929F92AF92BF920A
:10181000CF92DF92EF92FF920F931F93CF93DF93BC
:101820007C018B016C0182E0C80ED11C4701E5E010
:101830008E0E911CC0E0D0E0F60161916F014AE08C
:1018400050E0C8010E94240A5C016EE2C8010E94B7
:1018500044098A0D9B1DC80FD91FC814D90461F70C
:101860004AE050E0F7016581C8010E94240A8C0F0C
:101870009D1FDF91CF911F910F91FF90EF90DF900F
:10188000CF90BF90AF909F908F9008952CE034E060
:10189000FC01318320831282138214821582089501
:1018A0000F93FC018CE094E09183808362834383F7
:1018B000248305830F9108952CE034E0FC013183EB
:1018C0002083FB014081518162817381FC0142834D
:1018D0005383648375830895FB0140815181628144
:1018E0007381FC0142835383648375830895EEEB17
:1018F000F5E08CE094E0918380831282138214825D
:1019000015820895FC01808191810C94D628CF9393
:10191000DF93EC0188819981009711F00E94D6280D
:10192000198218821D821C821B821A82DF91CF913C
:1019300008950F931F93CF93DF93EC018B016F5F9B
:101940007F4F888199810E94CA29009731F099833D
:1019500088831B830A8381E001C080E0DF91CF91FF
:101960001F910F910895CF93DF93EC0188819981A6
:10197000892B29F08A819B818617970760F4CE0115
:101980000E94990C882341F08C819D81892B19F448
:10199000E881F981108281E0DF91CF910895EF9283
:1019A000FF920F931F93CF93DF93EC017B018A018A
:1019B000BA010E94B30C811104C0CE010E94870CB1
:1019C00007C01D830C83B701888199810E94B62AC4
:1019D000CE01DF91CF911F910F91FF90EF9008956D
:1019E000FC01118210821382128215821482611509
:1019F000710551F0FB0101900020E9F73197AF012B
:101A0000461B570B0C94CF0C0895CF93DF93EC013A
:101A10006115710559F0FB0101900020E9F731973C
:101A2000AF01461B570B0E94CF0C02C00E94870CCF
:101A3000CE01DF91CF9108950F931F93CF93DF9342
:101A4000CDB7DEB729970FB6F894DEBF0FBECDBF76
:101A50008C01862FF8011182108213821282158266
:101A6000148250E0BE016F5F7F4F90E00E94D32A46
:101A7000BE016F5F7F4FC8010E94050D29960FB60A
:101A8000F894DEBF0FBECDBFDF91CF911F910F91B4
:101A900008950F931F93CF93DF93CDB7DEB762976F
:101AA0000FB6F894DEBF0FBECDBF8C01CB01F8019D
:101AB00011821082138212821582148250E0BE01BC
:101AC0006F5F7F4F0E94BD2ABE016F5F7F4FC801CD
:101AD0000E94050D62960FB6F894DEBF0FBECDBF13
:101AE000DF91CF911F910F9108950F931F93CF9383
:101AF000DF93CDB7DEB761970FB6F894DEBF0FBEA8
:101B0000CDBF8C01CB01F8011182108213821282A9
:101B10001582148250E0BE016F5F7F4F0E94D32A6E
:101B2000BE016F5F7F4FC8010E94050D61960FB621
:101B3000F894DEBF0FBECDBFDF91CF911F910F9103
:101B40000895FC0124813581232B31F421E06115B6
:101B50007105A1F0FB0108C0FC0180819181611534
:101B6000710531F421E0FC018081882339F005C042
:101B70000E94AD2A21E0892B09F020E0822F0895F0
:101B8000DC01ED91FC910190F081E02D0994089524
:101B900060E470E08CE596E00E94A61F6EEF70E0B6
:101BA0008CE596E00E94C00D8CE596E00E94252011
:101BB0006FE070E080E090E00C94E407CF93DF9357
:101BC000EC018CE596E00E94921FCE010E94C80DA8
:101BD00060E470E08CE596E00E94A61F67EE70E07E
:101BE0008CE596E00E94C00D8CE596E00E942520D1
:101BF00041E050E060E470E08CE596E00E94222035
:101C00008CE596E00E94FF1E21E0029709F020E09B
:101C1000822FDF91CF910895CF93DF9360E470E03E
:101C20008CE596E00E94A61F63EE70E08CE596E0DE
:101C30000E94C00D8CE596E00E94252062E370E0D2
:101C400080E090E00E94E40743E050E060E470E050
:101C50008CE596E00E9422208CE596E00E94F71E1B
:101C6000892BD1F38CE596E00E94FF1ED82F80E0EF
:101C7000C82F8CE596E00E94FF1EC82BD92B8CE55F
:101C800096E00E94FF1EBE0180E090E00E94062CBC
:101C900022E538EB4FE253E40E94942C20E030E040
:101CA00040E857E30E94942C26E636E64BE352E4E4
:101CB0000E94F82ADF91CF910895CF93DF9360E4DB
:101CC00070E08CE596E00E94A61F65EE70E08CE562
:101CD00096E00E94C00D8CE596E00E94252062E30C
:101CE00070E080E090E00E94E40743E050E060E4B0
:101CF00070E08CE596E00E9422208CE596E00E9440
:101D0000F71E892BD1F38CE596E00E94FF1ED82F99
:101D100080E0C82F8CE596E00E94FF1EC82BD92BCF
:101D20008CE596E00E94FF1EBE0180E090E00E94DC
:101D3000062C20E030E04AEF52E40E94942C20E090
:101D400030E040E857E30E94942C20E030E040EC83
:101D500050E40E94F82ADF91CF91089508951F93CF
:101D6000CF93DF9300D0CDB7DEB7162FFC01608193
:101D70008CE596E04A8359830E949C1F612F8CE575
:101D800096E00E94531F5981652F8CE596E00E94D2
:101D9000531F4A81642F8CE596E00E94531F8CE507
:101DA00096E00F900F90DF91CF911F910C9425201A
:101DB0001F93CF93DF93EC01162F68818CE596E09B
:101DC0000E949C1F612F8CE596E00E94531F8CE5BA
:101DD00096E00E94252042E068818CE596E00E9412
:101DE0001F208CE596E00E94FF1ED82F80E0C82FB0
:101DF0008CE596E00E94FF1E8C2B9D2BDF91CF91EE
:101E00001F910895CF93DF93EC0168838CE596E0F2
:101E10000E94921F66E0CE010E94D80E8435910583
:101E200011F080E00EC067E0CE010E94D80E81154F
:101E30009440B9F740E050E061E0CE010E94AF0E5F
:101E400081E0DF91CF910895CF93DF9365E00E9409
:101E5000D80EEC01BC017F7080E090E00E94062C5F
:101E600020E030E040E85DE30E94942CD4FF06C0FF
:101E700020E030E040E853E40E94F82ADF91CF915F
:101E800008958FEF9FEF9093C5058093C405089543
:101E90001F920F920FB60F9211240F900FBE0F904A
:101EA0001F901895A8950895DA01F90160348FE123
:101EB00078071CF46115710539F489E090E08D9381
:101EC0009C9380E49FE158C0603A8FE078073CF033
:101ED00088E090E08D939C9380EA9FE04DC0603D48
:101EE00087E078073CF087E090E08D939C9380ED4D
:101EF00097E042C0683E83E078073CF086E090E0DF
:101F00008D939C9388EE93E037C0643F81E078071F
:101F10003CF085E090E08D939C9384EF91E02CC0A1
:101F20006A3F71053CF084E090E08D939C938AEFCA
:101F300090E022C0683771053CF083E090E08D931B
:101F40009C9388E790E018C06C3371053CF082E008
:101F500090E08D939C938CE390E00EC06E31710500
:101F60003CF081E090E08D939C938EE190E004C082
:101F70001D921C928FE090E09183808308950F93CF
:101F80001F93CF93DF9300D0CDB7DEB78C019E01B6
:101F90002F5F3F4FAC010E94540FF801808183FDF9
:101FA00002C098E001C098E28770892B98E10FB6D3
:101FB000F894A895909360000FBE8093600089818B
:101FC0009A810F900F90DF91CF911F910F910895FB
:101FD000DC01ED91FC91048CF58DE02D09942CE051
:101FE00034E0FC0131832083FB01408951896289FF
:101FF0007389FC0142835383648375830895FC01D4
:10200000848995890895FC01818D928D0895CF93DF
:10201000DF931F92CDB7DEB76983DC01ED91FC91B0
:102020000280F381E02D41E050E0BE016F5F7F4F01
:1020300009950F90DF91CF9108950895CF93DF9385
:10204000EC01888D843061F00E949E15E88DF0E0EF
:10205000EE0FFF1FEC5BF94F1182108284E0888F36
:10206000DF91CF910895FC01178A168A6E5F7F4F2A
:10207000808D0C941C17FC01808D0C946217CF93FB
:10208000DF93EC019A018E899F89AB01BC01888D99
:102090000E94D5162E893F89280F391F3F8B2E8B22
:1020A000DF91CF9108950F931F93CF93DF931F92EA
:1020B000CDB7DEB7FC01218D328D232B61F08C0171
:1020C00041E050E0BE016F5F7F4F808D0E941B1684
:1020D000181619061CF08FEF9FEF08C0F801818DCC
:1020E000928D0197928F818F898190E00F90DF917F
:1020F000CF911F910F910895CF93DF93FC01218D14
:10210000328D2115310519F48FEF9FEF11C0EC01CD
:102110004217530708F0A901888D0E941B16181654
:10212000190694F7298D3A8D281B390B3A8F298F80
:10213000DF91CF910895CF93DF931F92CDB7DEB794
:10214000FC01218D328D232B49F0BE016F5F7F4F43
:10215000808D0E94A616898190E002C08FEF9FEFCC
:102160000F90DF91CF910895EF92FF921F93CF933D
:10217000DF93FC01208D243011F080E01CC07B0136
:10218000EC0110E0812F0E947615811102C0188F9A
:1021900005C08831E1F31F5F1430A1F7888D8430CA
:1021A00061F3FD86EC861A8E198E20E0A70162E0AD
:1021B0000E94C81581E0DF91CF911F91FF90EF90B1
:1021C00008950F931F93CF93DF93CDB7DEB7289772
:1021D0000FB6F894DEBF0FBECDBF8C01F801818D24
:1021E000928D892B49F0D801ED91FC910284F38501
:1021F000E02DC8010995F2CF808D0E947B1618163C
:10220000190654F548E050E0BE016F5F7F4FD801DA
:1022100058968C910E941B169C0118161906D4F42E
:10222000BE016F5F7F4FC8010E960E946C0C8D81BE
:1022300090E0982F88272E81820F911DF801958BB1
:10224000848B2F8130E0322F22278885280F311D83
:10225000328F218FC90102C080E090E028960FB62E
:10226000F894DEBF0FBECDBFDF91CF911F910F91CC
:1022700008958F929F92AF92BF92CF92DF92EF928A
:10228000FF920F931F93CF93DF9300D000D000D025
:10229000CDB7DEB7FC01208D243009F068C06A019B
:1022A0007B018C0153E0852E54E0952EA12CB12C9E
:1022B000C4010E941C13811103C0F801A08E0AC042
:1022C0008831D9F3FFEFAF1ABF0A9394E4E0AE165A
:1022D000B10471F7F801808D843009F448C096E0AC
:1022E000E6E1F1E0DE01119601900D929A95E1F799
:1022F000F70193819F779C8394819D8395819E8331
:10230000B7016E5F7F4F90E0982F882744E050E040
:10231000845F9B4F0E94ED12F801E08CF12CF4E0F9
:10232000EF0EF11CFE2CEE246D2DC70140960E948D
:1023300059126C2DC70141960E945912F801808DE7
:1023400090E0982F882746E050E0BE016F5F7F4FF6
:102350008A5F9B4F0E94ED12F801128E118E20E8C9
:10236000A60162E0808D0E94C81581E001C080E076
:1023700026960FB6F894DEBF0FBECDBFDF91CF918A
:102380001F910F91FF90EF90DF90CF90BF90AF9093
:102390009F908F900895CF93DF93EC011B821A8258
:1023A00088EE93E0A0E0B0E08C839D83AE83BF8392
:1023B00082E194E099838883CE010E960E94460CB8
:1023C00084E0888FDF91CF910895CF92DF92EF92D2
:1023D000FF920F931F93CF93DF93CDB7DEB7AF97E5
:1023E0000FB6F894DEBF0FBECDBF8C016B017A0132
:1023F000CE0101960E94460CCE0109960E94CB1197
:10240000CE018A960E94460C6EED75E0CE01849650
:102410000E94E318BE016C5D7F4FCE0101960E94C1
:102420000519AE01465D5F4FB601CE0101960E94CF
:10243000741B81309105C1F4D801ED91FC910488A1
:10244000F589E02D8CE094E09DA38CA38CA59DA53F
:10245000AEA5BFA58EA39FA3A8A7B9A7A701BE013C
:102460006C5D7F4FC8010995AF960FB6F894DEBF3B
:102470000FBECDBFDF91CF911F910F91FF90EF90D5
:10248000DF90CF9008950F9300E020E040E060E0FF
:1024900086EC95E00E94500C0F9108958EBD0000CF
:1024A0000DB407FEFDCF8EB508952A9808952A9A97
:1024B00008951F93CF93DF9300D0CDB7DEB7182FC9
:1024C0006A8399830E94551280EF0E944E1299816F
:1024D000892F0E944E12812F0E944E126A81862FF0
:1024E0000E944E120E94571281E00F900F90DF91D0
:1024F000CF911F910895CF93DF93EC016CE271E0CF
:1025000080E090E00E94E4070E94021C229A8091E1
:102510005A06882399F02FB7F89480915A06813093
:1025200059F48DB3809358069DB3809159068095D8
:1025300089238DBB2FBF02C02093580680E58CBD38
:102540001DBC60E880E090E00E94591265E58BE1D7
:1025500090E00E94591265E58AE190E00E945912CC
:1025600080915A06882351F09FB7F89420915A061B
:1025700080915806213029F58DBB9FBF80E090E403
:102580009983888380E090E69987888780E098E443
:102590009B838A8380E098E69B878A8780E090E52A
:1025A0009D838C8380E090E79D878C8780E098E511
:1025B0009F838E8380E098E79F878E87DF91CF91FE
:1025C00008958FBFDBCF9B0190E00496982F88275A
:1025D000642F820F931F0C945912CF92DF92EF92C7
:1025E000FF920F931F93CF93DF93EC017A018B013E
:1025F0006C01C40ED51ECC15DD05A1F00E9455124C
:1026000080EF0E944E128D2F0E944E128C2F0E943E
:102610004E122196F80181918F010E944E120E9464
:102620005712E9CFC701DF91CF911F910F91FF9012
:10263000EF90DF90CF9008951F93CF93DF931F9279
:10264000CDB7DEB7182F99830E9455128FE00E94F4
:102650004E129981892F0E944E12812F0E944E1294
:1026600080E00E944E1289830E94571289810F9048
:10267000DF91CF911F91089590E00496982F8827BD
:10268000860F971F0C941C131F93CF93DF93182F63
:1026900060E270E00E943C13C82FD0E061E270E07D
:1026A000812F0E943C13DC2FCC279E01282BC901CF
:1026B000DF91CF911F910895FF920F931F93CF93B6
:1026C000DF93F62EC0E0D0E08F2D0E9444138C01E2
:1026D000892B21F08F2D0E944413EC01C017D107E4
:1026E00099F7CE01DF91CF911F910F91FF9008953F
:1026F0001F93CF93DF93182F66E270E00E943C1384
:10270000C82FD0E067E270E0812F0E943C13DC2FDD
:10271000CC279E01282BC901DF91CF911F910895ED
:10272000FF920F931F93CF93DF93F62EC0E0D0E07C
:102730008F2D0E9478138C01892B21F08F2D0E9400
:102740007813EC01C017D10799F7CE01DF91CF9133
:102750001F910F91FF9008956F927F928F929F9299
:10276000AF92BF92CF92DF92EF92FF920F931F939F
:10277000CF93DF931F92CDB7DEB7882E962E6A01D6
:10278000590164E270E0892D99830E943C13E82E80
:10279000F12C65E270E0892D0E943C13FE2CEE24A2
:1027A000E82A37016C0C7D1CA3015770E82C998135
:1027B000F92EE90CF11CE90CF11CF70180819181E3
:1027C000840F951F9A01200F311F2130384098F057
:1027D00060E078E06B01C41AD50AA601B5010E9439
:1027E000ED12A8014C195D09B5016C0D7D1DF701B5
:1027F0008081918102C0A801B5010E94ED12060DF1
:10280000171D412F64E270E0892D0E94E312402FD2
:1028100065E270E0892D0F90DF91CF911F910F91AC
:10282000FF90EF90DF90CF90BF90AF909F908F90F0
:102830007F906F900C94E312CF92DF92EF92FF9211
:102840000F931F93CF93DF93EC017A018B016C01FF
:10285000C40ED51ECC15DD05A9F00E9455128FE0DF
:102860000E944E128D2F0E944E128C2F0E944E12EB
:10287000219680E00E944E12F80181938F010E9400
:102880005712E8CFC701DF91CF911F910F91FF90B1
:10289000EF90DF90CF900895AF92BF92CF92DF92EA
:1028A000EF92FF920F931F93CF93DF9300D0CDB79A
:1028B000DEB75A834983590129813A8137706C0107
:1028C000C60ED11CC60ED11CF60180859185820FE3
:1028D000931FA801420F531F4130584098F0E0E089
:1028E000F8E07F01E21AF30AA701B5010E941C1467
:1028F000A8014E195F09B5016E0D7F1DF601808597
:10290000918502C0A801B5010F900F90DF91CF9182
:102910001F910F91FF90EF90DF90CF90BF90AF90FD
:102920000C941C148F929F92AF92BF92CF92DF9221
:10293000EF92FF920F931F93CF93DF936C01962E2C
:102940005A017901802E68E270E0892D0E943C13C3
:10295000C82FD0E069E270E0892D0E943C13DC2F83
:10296000CC27C82B87019501AE01692DC6010E94B5
:102970004C1481101AC0CE0DDF1D4D2F68E270E09F
:10298000892D0E94E3124C2F69E270E0892DDF91BE
:10299000CF911F910F91FF90EF90DF90CF90BF905C
:1029A000AF909F908F900C94E312DF91CF911F9185
:1029B0000F91FF90EF90DF90CF90BF90AF909F90DE
:1029C0008F900895CF93C62F61E070E08C2F0E9406
:1029D000E31261E070E08C2F0E943C138111F9CF6B
:1029E000CF9108950F93FC0130E080E092E1AAE7D7
:1029F000B0E0481759076A077B0740F4B695A795DA
:102A0000979587953F5F3630A1F737E091E09327A0
:102A1000222311F020E501C020E7892F86950C7054
:102A2000082B022B0083917091830F9108952091C0
:102A30005A06222399F04FB7F89420915A06213074
:102A400059F42DB3209358063DB320915906209593
:102A500023232DBB4FBF02C0409358068CBD9DBDA4
:102A6000089580915A06882361F09FB7F8942091C9
:102A70005A0680915806213019F48DBB9FBF0895E6
:102A80008FBF089590E0982F882744E050E0845F3E
:102A90009B4F0C94ED1262E070E00C943C13CF93CA
:102AA000DF93C82FD62F472F64E070E00E94E31217
:102AB0004D2F65E070E08C2FDF91CF910C94E312E5
:102AC000462F62E070E00C94E312CF93DF93C82F9F
:102AD000D62F472F60E170E00E94E3124D2F61E195
:102AE00070E08C2FDF91CF910C94E3120F931F9322
:102AF000CF93DF9300D01F92CDB7DEB7182F00E041
:102B000021E040E059E06DE370E0CE0101960E94C3
:102B1000F21489819A810E94171563E070E0812F79
:102B20000E943C138B830E9431158B810F900F9074
:102B30000F90DF91CF911F910F9108950F931F93E5
:102B4000CF93DF9300D0CDB7DEB7182F00E021E0A0
:102B500040E059E06DE370E0CE0101960E94F2146E
:102B600089819A810E94171540E150E0612F8CEC19
:102B700095E00E94E2146FEF812F0E9460150E9481
:102B800031150F900F90DF91CF911F910F91089504
:102B9000CF92DF92EF92FF920F931F93CF93DF9329
:102BA00000D0CDB7DEB79FEF960F9530C0F5F22E6F
:102BB0006A01E62E182F0E949E1500E021E040E0F9
:102BC00059E06DE370E0CE0101960E94F214898114
:102BD0009A810E9417154E2D4F2960E070E0812FD9
:102BE0000E94E312C114D10411F0B6010AC0609131
:102BF000DC057091DD056F5F7F4F7093DD0560939D
:102C0000DC05812F0E944F1541E050E0612F8CECD4
:102C100095E00E94E2140E94311581E001C080E03D
:102C20000F900F90DF91CF911F910F91FF90EF9038
:102C3000DF90CF900895AF92BF92CF92DF92EF9244
:102C4000FF920F931F93CF93DF9300D0CDB7DEB7E2
:102C5000182F5B016A0100E021E040E059E06DE3DC
:102C600070E0CE0101960E94F21489819A810E943F
:102C70001715612F8CEC95E00E9490137C01009752
:102C8000A1F463E070E0812F0E943C13843119F1BC
:102C9000882309F121E030E08C3111F420E030E0AC
:102CA000EE24FF24E21AF30A16C0C816D9060CF463
:102CB00076011E141F047CF400E09701A501612F2A
:102CC0008CEC95E00E94921440E450E0612F8CEC73
:102CD00095E00E94E2140E943115C7010F900F90F9
:102CE000DF91CF911F910F91FF90EF90DF90CF90E8
:102CF000BF90AF9008950F931F93CF93DF9300D0B1
:102D000000D0CDB7DEB7182F00E021E040E059E059
:102D10006DE370E0CE0101960E94F21489819A81E0
:102D20000E941715612F8CEC95E00E9490138B8305
:102D30009C830E9431158B819C810F900F900F9086
:102D40000F90DF91CF911F910F910895EF92FF9215
:102D50000F931F93CF93DF9300D0CDB7DEB7182F1B
:102D60007B0100E021E040E059E06DE370E0CE013E
:102D700001960E94F21489819A810E94171501E040
:102D800021E030E0A701612F8CEC95E00E949214C5
:102D90000E94311581E090E00F900F90DF91CF916C
:102DA0001F910F91FF90EF9008958F929F92AF9295
:102DB000BF92DF92EF92FF920F931F93CF93DF9317
:102DC00000D0CDB7DEB7D82E5B014A01790100E013
:102DD00021E040E059E06DE370E0CE0101960E94F1
:102DE000F21489819A810E9417156D2D8CEC95E063
:102DF0000E945C138E159F0530F46D2D8CEC95E0D0
:102E00000E945C137C0187019401A5016D2D8CEC5F
:102E100095E00E94AC130E943115C7010F900F90EE
:102E2000DF91CF911F910F91FF90EF90DF90BF90B6
:102E3000AF909F908F900895CF92DF92EF92FF9284
:102E40000F931F93CF93DF9300D0CDB7DEB7FB0175
:102E50009081911109C09181911106C092819111C7
:102E600003C09381992309F141155105F1F06A01DD
:102E70007F01182F00E021E040E059E06DE370E0B1
:102E8000CE0101960E94F21489819A810E94171541
:102E9000B701812F0E944215B601812F0E9465154E
:102EA0000E94311581E090E002C080E090E00F9038
:102EB0000F90DF91CF911F910F91FF90EF90DF90D6
:102EC000CF9008950F931F93CF93DF9300D0CDB78A
:102ED000DEB7182F00E021E040E059E06DE370E03C
:102EE000CE0101960E94F21489819A810E941715E1
:102EF00040E250E0612F8CEC95E00E94E214812FBB
:102F00000E944B1584FD21C0812F0E944B1583FF29
:102F100009C068E1812F0E9460150E94311580E090
:102F200090E01BC00E9431150E945B0800E021E088
:102F300040E059E06DE370E0CE0101960E94F2148A
:102F400089819A810E941715DACF60E1812F0E9452
:102F500060150E94311581E090E00F900F90DF9195
:102F6000CF911F910F91089544E050E0BC0181E0A2
:102F700090E00C94ED1244E050E0BC0185E090E05C
:102F80000C94ED1244E050E0BC018FE090E00C9412
:102F9000ED122F923F924F925F926F927F928F929B
:102FA0009F92AF92BF92CF92DF92EF92FF920F93D8
:102FB0001F93CF93DF9300D000D000D0CDB7DEB702
:102FC0006C011B0129013A014701580186EE95E089
:102FD000F601978386838CEC95E00E947B1280E556
:102FE00090E00E94171546E050E0B10189E090E0C2
:102FF0000E94ED1200E020E040E060E0CE0101968A
:103000000E94500CCE0103960E94C2170E943115F7
:1030100085017401A3019201B101F60186819781B6
:103020000E9465278C010197B9F580E590E00E9428
:103030001715F60166817781CE0101960E949F22C5
:10304000CE0103960E94C217F60166817781CE01F8
:1030500001960E94B522CE0103960E94B417F60194
:1030600066817781CE0101960E94AA22CE01039645
:103070000E94BB170E943115F60166817781CE014F
:1030800001960E94C0228B819C81AD81BE81F60198
:1030900082839383A483B583C80126960FB6F894E0
:1030A000DEBF0FBECDBFDF91CF911F910F91FF907B
:1030B000EF90DF90CF90BF90AF909F908F907F90D8
:1030C0006F905F904F903F902F900895EF92FF92F6
:1030D0000F931F93CF93DF9300D000D000D0CDB7D4
:1030E000DEB7FC01268137812115310509F443C083
:1030F0008C01C9010E94A4277C01029721F084E081
:10310000E816F104D1F580E590E00E941715F8016A
:1031100066817781CE0101960E949F22CE0103969F
:103120000E94C217F80166817781CE0101960E9444
:10313000B522CE0103960E94B417F801668177810B
:10314000CE0101960E94AA22CE0103960E94BB17CF
:103150000E943115F80166817781CE0101960E94A7
:10316000C0228B819C81AD81BE81F80182839383D3
:10317000A483B58302C0E12CF12CC70126960FB6BB
:10318000F894DEBF0FBECDBFDF91CF911F910F919D
:10319000FF90EF900895CF93DF93EC010E94460CCF
:1031A00080E590E00E941715BE016E5F7F4F44E0FE
:1031B00050E08FE090E00E941C140E943115CE0177
:1031C000DF91CF9108952CE034E0FC01318320831E
:1031D000FB014281538164817581FC0142835383E9
:1031E0006483758308950F9300E020E040E060E081
:1031F0008CE496E00E94500C89E296E00E94CB118C
:103200008EED95E00F910C94460CFB0142815381A9
:1032100064817581FC0142835383648375831782C3
:1032200016820895CF93DF93FB0120E080E090E0C9
:10323000AAE03191332301F160ED630F6A3080F42D
:10324000A89FB001A99F700D1124CB01C097830FD7
:10325000911D37FD9A958F3F910559F350F313C097
:103260003E3289F4233079F0EA01C20FD11D8A83FE
:103270002F5F80E090E0DDCF233029F4FA018583D1
:1032800081E090E002C080E090E0DF91CF9108956E
:103290000F9300E020E040E060E082E596E00E94CD
:1032A000500C0F9108958F929F92AF92BF92CF9240
:1032B000DF92EF92FF920F931F93CF93DF9300D093
:1032C00000D01F92CDB7DEB78C016B010E94B3070F
:1032D000F801778366837627672776277A83698361
:1032E000085F1F4F42E050E0BE016F5F7F4FC80193
:1032F0000E943F1081E090E09C838B8342E050E08D
:10330000BE016D5F7F4FC8010E943F1080E091E0D9
:103310009C838B8342E050E0BE016D5F7F4FC8010C
:103320000E943F101C821B8242E050E0BE016D5F94
:103330007F4FC8010E943F1042E050E0BE016D5F28
:103340007F4FC8010E943F1042E050E0BE016D5F18
:103350007F4FC8010E943F105601F50180818823EC
:1033600029F1C6017C01FC0120810196211116C0C2
:10337000570147018C189D081814190494F48D8284
:1033800041E050E0BE016B5F7F4FC8010E943F10DB
:10339000A401B601C8010E943F1003C02E3211F7EC
:1033A000E7CF6701FFEFCF1ADF0AD7CF1D8241E0D9
:1033B00050E0BE016B5F7F4FC8010E943F10E12CBF
:1033C000FF24F394FC82EB8242E050E0BE016D5F8B
:1033D0007F4FC8010E943F10FC82EB8242E050E028
:1033E000BE016D5F7F4FC8010E943F1081E090E0F9
:1033F0000F900F900F900F900F90DF91CF911F9132
:103400000F91FF90EF90DF90CF90BF90AF909F9083
:103410008F9008954F925F926F927F928F929F92BA
:10342000AF92BF92CF92DF92EF92FF920F931F93D2
:10343000CF93DF93CDB7DEB765970FB6F894DEBFB5
:103440000FBECDBF7C015B016A010E94B3072B0157
:103450003C018701085F1F4F4501A12CB12CC80119
:103460000E94E11018161906A4F00E94B307DC01AF
:10347000CB0184199509A609B70988169906AA06E9
:10348000BB06D0F062E370E080E090E00E94E407C9
:10349000E6CFF7014281538164817581808D918DE2
:1034A000A28DB38D481759076A077B0741F4848DB5
:1034B000958DC59721F406C02FEF3FEFFDC02EEF8D
:1034C0003FEFFAC0C8010E9403100C97ECF04CE0EB
:1034D00050E0BE016F5F7F4FC8010E947C106C817D
:1034E0008B810E9493229A8B898BF701E680F7806B
:1034F0006A8189810E949322E816F90641F489893C
:103500009A8997FF04C009C02DEF3FEFD5C0C801CD
:103510000E941D102CEF3FEFCFC08F709270892B4F
:1035200031F0C8010E941D102BEF3FEFC5C0688528
:103530008F810E9493225C01892B31F4C8010E9483
:103540001D102AEF3FEFB8C0E12CF12C6E818D8168
:103550000E949322E816F90640F541E050E0BE01D2
:10356000635F7F4FC8010E947C108D85811113C05D
:103570008D858111F2CFC8010E945310C8010E94AD
:103580005310C8010E945310C8010E945310FFEF4E
:10359000EF1AFF0ADBCF8D859FEF980F9D87882359
:1035A00039F3C8010E945310F6CFE12CF12C41E011
:1035B00050E0BE016D5E7F4FC8010E947C108B8978
:1035C000982F907C61F4882371F08B899FEF980F7E
:1035D0009B8B882341F0C8010E945310F6CFC8018D
:1035E0000E9453101B8A8B898111E1CF42E050E089
:1035F000BE01615F7F4FC8010E947C1042E050E035
:10360000BE01635F7F4FC8010E947C10C8010E9409
:103610005310C8010E945310C8010E945310C801E2
:103620000E94531042E050E0BE016F5E7F4FC80120
:103630000E947C108F8598898115914001F52D8518
:103640003E8532272327322721303105C1F489896D
:103650009A898115944031F0C8010E941D1027EF0E
:103660003FEF2AC0B6016E5F7F4F44E050E0C801D3
:103670002C8B3D8B0E947C102C893D891DC0812C98
:10368000912C89899A8998278927982788169906DD
:1036900038F4C8010E9453108FEF881A980AF1CFAE
:1036A000EFEFEE1AFE0AEA14FB0409F080CFC8011E
:1036B0000E941D1026EF3FEFC90165960FB6F894E2
:1036C000DEBF0FBECDBFDF91CF911F910F91FF9055
:1036D000EF90DF90CF90BF90AF909F908F907F90B2
:1036E0006F905F904F9008958F929F92AF92BF928C
:1036F000CF92DF92EF92FF920F931F93CF93DF93BE
:1037000000D000D000D0CDB7DEB77C014B015A010C
:103710000E9412198C01892B09F05BC0F7014281CC
:103720005381648175818091540690915506A091D2
:103730005606B0915706481759076A077B0709F4E0
:103740004BC00E94B3076701F8E0CF0ED11C6F7029
:1037500077277C5FC6010E94B410813009F03EC01B
:103760008CE094E09A838983F70182819381A4811C
:10377000B5818B839C83AD83BE8345E350E0BE015E
:103780006F5F7F4FC6010E943310892B19F400E050
:1037900010E01BC0B401C7010E945319892BB9F373
:1037A000C6010E943B10892B91F383E0882E912C57
:1037B000A50168E873E1C7010E940A1A8C01F1E0D3
:1037C0008F1A910811F0019699F3C6010E941E10FC
:1037D00005C001E010E002C00EEF1FEFC801269601
:1037E0000FB6F894DEBF0FBECDBFDF91CF911F9112
:1037F0000F91FF90EF90DF90CF90BF90AF909F9090
:103800008F900895CF93CFB7F89480915B06811184
:1038100027C0EAE9F0E08491E6E8F0E09491E82F2F
:10382000F0E0EE0FFF1FE255FF4FA591B491EC9130
:10383000E92321F461E08AE00E94C10861E08AE0A6
:103840000E9485088CB580618CBD8CB580648CBD70
:1038500061E08DE00E94850861E08BE00E948508B0
:1038600080915B068F5F80935B06CFBFCF910895F9
:10387000FC01148215821682178208951F93CF933C
:10388000DF931F92CDB7DEB7162FFC0160818CE568
:1038900096E049830E949C1F612F8CE596E00E9470
:1038A000531F4981642F8CE596E00E94531F8CE5DD
:1038B00096E00F90DF91CF911F910C9425201F93DC
:1038C000CF93DF9300D0CDB7DEB7162FFC01608118
:1038D0008CE596E04A8359830E949C1F612F8CE5FA
:1038E00096E00E94531F5981652F8CE596E00E9457
:1038F000531F4A81642F8CE596E00E94531F8CE58C
:1039000096E00F900F90DF91CF911F910C9425209E
:103910001F93CF93DF93EC01162F68818CE596E01F
:103920000E949C1F612F8CE596E00E94531F8CE53E
:1039300096E00E94252041E068818CE596E00E9497
:103940001F20C8EED3E08CE596E00E94F71E181603
:10395000190634F0209711F02197F5CF80E006C0CA
:10396000CD2BE1F38CE596E00E94FF1EDF91CF9115
:103970001F9108950F93CF93DF93EC016370417013
:103980004295407F2F70422B6295660F607E462BDA
:103990006EE10E943E1C002321F0083018F007E081
:1039A00001C001E08FEF800F61E070E002C0660FA0
:1039B000771F8A95E2F7072E000C880B990B0E945F
:1039C000082C9B01AC0160E074E284EF99E40E9452
:1039D000652B0E94D72B6C837D838E839F836FE141
:1039E000CE010E94881C8F780295007F482F402BC3
:1039F0006FE1CE01DF91CF910F910C943E1C1F938C
:103A0000CF93DF93EC01162F68818CE596E00E943E
:103A10009C1F612F8CE596E00E94531F8CE596E079
:103A20000E94252042E068818CE596E00E941F20DC
:103A3000C0EDD7E08CE596E00E94F71E02973CF4BB
:103A4000209711F02197F6CF80E090E011C0CD2BA8
:103A5000D9F38CE596E00E94FF1EC82F8CE596E016
:103A60000E94FF1E20E030E03C2FA901482BCA0134
:103A7000DF91CF911F910895CF92DF92EF92FF9245
:103A80000F931F93CF93DF938C01D62FF42E6EE00C
:103A90000E94FF1C41E050E09A0102C0220F331F38
:103AA000DA95E2F7E9018095909582239323892B9B
:103AB00089F060E1C8010E94FF1CFF2021F0AC01E9
:103AC0004C2B5D2B05C0C095D095AC014C235D23DC
:103AD00060E125C066E0C8010E94FF1C6C0168E03F
:103AE000C8010E94FF1C9E0120953095FF2061F0C7
:103AF0007C01E222F322A6014C2B5D2B66E0C8017B
:103B00000E945F1CA7010AC0C82BD92BA601422323
:103B1000532366E0C8010E945F1CAE0168E0C80143
:103B2000DF91CF911F910F91FF90EF90DF90CF9099
:103B30000C945F1C0C943C1DFF920F931F93CF932A
:103B4000DF938C01F62E6EE00E94FF1CC1E0D0E0F6
:103B500002C0CC0FDD1FFA94E2F78C239D23892B42
:103B600049F060E1C8010E94FF1CC823D92381E00D
:103B7000CD2B09F480E0DF91CF911F910F91FF9041
:103B800008950C949C1DCF92DF92EF92FF920F93B9
:103B90001F93CF93DF931F92CDB7DEB76C01162F23
:103BA00060E029830E94FF1C41E050E0BA0102C09E
:103BB000660F771F1A95E2F78B01AC01462B572B46
:103BC00060E0C6010E945F1C66E0C6010E94FF1C07
:103BD0007801E094F094AC014E215F2166E0C601CB
:103BE0000E945F1C6EE0C6010E94FF1CAC014E21CA
:103BF0005F216EE0C6010E945F1C6EE1C6010E945B
:103C0000881C8F7D482F40646EE1C6010E943E1CD7
:103C10006FE1C6010E94881C2981482F222311F0E0
:103C2000486801C04777F60184819581A681B781F4
:103C3000892B8A2B8B2B49F480E894E8AEE1B0E025
:103C400084839583A683B78340616FE1C6010E9498
:103C50003E1C60E2C6010E94FF1CAC01402B512BB0
:103C600060E2C6010E945F1C60E1C6010E94FF1C69
:103C7000AC014E215F2160E1C6010F90DF91CF9131
:103C80001F910F91FF90EF90DF90CF900C945F1CED
:103C90000F931F93CF93DF93EC01162F042F6EE049
:103CA0000E94FF1C9C01802F8D7F813059F041E0E4
:103CB00050E0012E02C0440F551F0A94E2F7422B38
:103CC000532B0DC0E1E0F0E0012E02C0EE0FFF1F0C
:103CD0000A94E2F7E095F095A9014E235F236EE088
:103CE000CE010E945F1C023049F441E0612FCE01F9
:103CF000DF91CF911F910F910C943C1D033051F433
:103D000020E041E0612FCE01DF91CF911F910F9113
:103D10000C94C31DDF91CF911F910F9108950C94C6
:103D2000481ECF93DF93EC016FE10E94881C82FF55
:103D300006C0482F4B7F6FE1CE010E943E1C41E040
:103D40006B81CE010E94481E40E06B81CE010E9433
:103D50003C1D61E070E080E090E00E94E40741E0FB
:103D60006B81CE01DF91CF910C943C1DCF93DF93FB
:103D7000662321F0DF91CF910C94911EEC0142E17A
:103D80006DE70E943E1C44E36DE7CE01DF91CF91C9
:103D90000C943E1C0F93CF93DF93EC018CE596E0DF
:103DA0000E94921F8B818F3F21F0CE010E94911EB5
:103DB00004C060E0CE010E94B61E63E1CE010E9405
:103DC000FF1C81159F4F49F401E020E040E062E0D4
:103DD000CE010E94BA1C81E001C080E0DF91CF914A
:103DE0000F910895FC01608343830C94CA1E809157
:103DF0008C0690E020918D06821B91090895909188
:103E00008D0680918C06981750F4E92FF0E0E25768
:103E1000F94F208130E09F5F90938D0602C02FEF15
:103E20003FEFC9010895E0918D0680918C06E81757
:103E300030F4F0E0E257F94F808190E008958FEF81
:103E40009FEF08950895CF92DF92EF92FF920F9324
:103E50001F93CF93DF937C01262F972F8A018091A8
:103E60006806882391F0C62FD72F6E01C40ED51E89
:103E7000CC15DD0571F06991D701ED91FC910190B0
:103E8000F081E02DC7010995F3CF642F822F0E94A6
:103E9000E820C801DF91CF911F910F91FF90EF9023
:103EA000DF90CF900895CF93DF931F92CDB7DEB709
:103EB0006983209168062223D1F02091690620327F
:103EC00040F021E030E0FC013383228380E090E089
:103ED00015C080916A06E82FF0E0E559F94F998105
:103EE00090838F5F80936A068093690605C061E0C6
:103EF000CE0101960E94E82081E090E00F90DF91D2
:103F0000CF910895FC011382128288EE93E0A0E025
:103F1000B0E084839583A683B7838AE394E091839A
:103F20008083089510928D0610928C0610926A0676
:103F3000109269060C942C2081E0809368066093AF
:103F40008B0610926A061092690608950C949C1FC5
:103F50000F93062F21E0409169066BE676E0809191
:103F60008B060E94922010926A06109269061092A7
:103F700068060F9108954F925F926F927F92AF9271
:103F8000BF92CF92EF92FF920F931F93CF93DF9345
:103F90005C01F62ED42F28013901EE2021F10E9478
:103FA0009C1FCE2DC43008F0C3E0C150C0F0D50135
:103FB000ED91FC91B8E0CB9FC0011124A3019201C7
:103FC00004C056954795379527958A95D2F7CA012B
:103FD000B9010190F081E02DC5010995E6CF60E0BF
:103FE000C5010E94A81F4D2FD13208F040E22C2DB0
:103FF0006EE876E08F2D0E944A2010928D06809305
:104000008C06DF91CF911F910F91FF90EF90CF9091
:10401000BF90AF907F906F905F904F900895CF9238
:10402000EF920F931F93C22EE12C00E010E0980155
:104030000E94BB1F1F910F91EF90CF90089521E038
:104040000C940F2021E00C940F2061E00C94A81F29
:104050008CE596E00C94821F10921B0781E0809300
:1040600019071092180761E082E10E94C10861E01F
:1040700083E10E94C108E9EBF0E080818E7F8083BC
:1040800080818D7F808388E48093B80085E480936D
:10409000BC000895413208F043C090911B07911174
:1040A000FCCF91E090931B07209319072FEF2093EB
:1040B000AE061092F306240F2093F20690931A078F
:1040C00090911A07880F892B80931A0780911807FF
:1040D000813061F41092180780911A078093BB0019
:1040E0008091BC0083FDF8CF85EC01C085EE809304
:1040F000BC0080911B078130E1F38091F3068417A7
:1041000010F44091F30624EF36E0FB01D9018A2F29
:10411000821B841718F48D918193F9CF842F089511
:1041200080E008950F93413208F04AC090911B0738
:104130009111FCCF32E030931B07009319073FEF3A
:104140003093AE061092F3064093F206FB0164EF43
:1041500076E0DB013A2F361B341718F431913D938A
:10416000F9CF10921A0730911A07880F832B80938A
:104170001A0780911807813061F410921807809116
:104180001A078093BB008091BC0083FDF8CF85ECBB
:1041900001C085EE8093BC00222321F080911B0793
:1041A0008230D1F38091AE068F3F79F08091AE06D8
:1041B000803241F08091AE06803331F094E005C04A
:1041C00091E003C092E001C093E0892F0F91089520
:1041D0004091D006262F30E0240F311D21323105C9
:1041E000DCF420911B072430C9F4FC0180E090E04E
:1041F000861758F43091D0062191DC01AE52B94FA8
:10420000A30FB11D2C930196F3CF8091D006680FB8
:104210006093D00680E0089581E0089582E00895DB
:1042200085ED8093BC008091BC0084FDFCCF109292
:104230001B07089585EC8093BC0010921B0708951E
:104240001F920F920FB60F9211242F933F934F930B
:104250005F936F937F938F939F93AF93BF93EF93EE
:10426000FF938091B900887F803609F49EC078F56D
:10427000883209F45DC090F4803109F456C038F4F6
:10428000882309F4F5C0883009F44FC0F5C088319F
:1042900009F44EC0803209F45FC0EEC0803409F4E6
:1042A0006AC058F4803309F457C0883309F0E4C079
:1042B0008093AE060E941A21DFC0803509F44FC0FA
:1042C000883509F45DC0883409F0D6C0D3C0883978
:1042D00009F4C4C0A8F4883709F467C038F48836F4
:1042E00009F463C0803709F460C0C6C0883809F497
:1042F000B5C0803909F45FC0803809F0BDC05BC02B
:10430000803B09F483C038F4803A09F466C0883AE7
:1043100009F47CC0B1C0803C09F4A4C0883C09F415
:10432000A1C0883B09F487C0A7C080911A0710C0BC
:104330009091F3068091F206981770F5E091F306DC
:1043400081E08E0F8093F306F0E0EC50F94F80810E
:104350008093BB0085EC83C08093AE068BC0E09158
:10436000F30681E08E0F8093F3068091BB00F0E0AE
:10437000EC50F94F80839091F3068091F2066BC068
:10438000E091F30681E08E0F8093F3068091BB00ED
:10439000F0E0EC50F94F80838091190781116AC0D9
:1043A00081E08093180784EA5EC083E080931B0756
:1043B0001092AF06CFCF8091AF06803208F04EC08A
:1043C000E091AF0681E08E0F8093AF068091BB0035
:1043D000F0E0E055F94F8083BDCF0E941A21809113
:1043E000AF06803230F4E091AF06F0E0E055F94FCF
:1043F00010826091AF0670E0E0911407F09115070C
:1044000080EB96E009951092AF0636C084E0809369
:104410001B071092D1061092D006E0911607F0917A
:10442000170709958091D006811105C081E080931E
:10443000D0061092D206E091D10681E08E0F8093D3
:10444000D106F0E0EE52F94F80818093BB0090914D
:10445000D1068091D006981708F47CCF85E8809328
:10446000BC000AC085EC8093BC0010921B0704C0FE
:104470001092AE060E941021FF91EF91BF91AF9173
:104480009F918F917F916F915F914F913F912F916C
:104490000F900FBE0F901F901895CF93DF9300D011
:1044A00000D0CDB7DEB7611571058105910579F0B2
:1044B0009B01AC0169833A834B835C830E94BC29D6
:1044C00029813A814B815C810E94332D03C060E0D9
:1044D00070E0CB010F900F900F900F90DF91CF9174
:1044E0000895CF92DF92EF92FF920F931F9362177E
:1044F00073078407950784F489019A016B017C0195
:10450000C901B8016C197D098E099F090E944D22CD
:104510006C0D7D1D8E1D9F1D1F910F91FF90EF90C3
:10452000DF90CF90089570E09B01382BC90108956A
:104530000E9624E1FC0111922A95E9F70895CF9394
:10454000DF93EC01625F7F4F0E945C0CCE01DF9134
:10455000CF910895CF93DF93EC016E5E7F4F0E9461
:104560005C0CCE01DF91CF910895CF93DF93EC01E6
:104570006A5E7F4F0E945C0CCE01DF91CF9108955F
:10458000CF93DF93EC01625E7F4F0E945C0CCE0103
:10459000DF91CF91089580E3FB0180833296842FD1
:1045A00082958F7090E1899F401911244A3014F44C
:1045B000405D01C0495C4293482F8111F0CF0895BE
:1045C0000F9300E020E040E060E08CE197E00E9483
:1045D000500C0F9108957F928F929F92AF92BF924D
:1045E000CF92DF92EF92FF920F931F93CF93DF93BF
:1045F000CDB7DEB7AC970FB6F894DEBF0FBECDBF18
:104600007C01762E942E852E20E2B22ECE010196CC
:104610006C01FC012B2D11922A95E9F70FEF2FEF7A
:104620004FEF6FEF86960E94500C8CE094E09AA3B7
:1046300089A389A59AA5ABA5BCA58BA39CA3ADA373
:10464000BEA387010D5B1F4F43E450E0BE016F5DC9
:104650007F4FC8010E943310019609F4BFC081E06A
:1046600089838A8386E0A82EAB821C82F70164814D
:104670007581868197810E94522D6D837E838F8301
:10468000988789869A8680E890E09C878B874CE1A2
:1046900050E0B601C8010E943F10F6012B2D119287
:1046A0002A95E9F7470188E0880E911CF401D601AC
:1046B00001900D92AA94E1F740E150E0B601C801E3
:1046C0000E943F10F6011192BA94E9F796E0A92EE4
:1046D000B12C40E250E0B601C8010E943F10F1E069
:1046E000AF1AB108B1F783E6898392E89A8393E51C
:1046F0009B838C8385E38D8381E08E837F829DE322
:10470000988797E099878A8786E0F401DE011B96F7
:1047100001900D928A95E1F78CE0898B8A8B68E491
:1047200074E0CE0143960E94B62AF7014385BE018C
:10473000675E7F4FC7010E94CB22F7014485BE010F
:10474000655E7F4FC7010E94CB22F7014585BE0100
:10475000635E7F4FC7010E94CB224EE150E0B6015D
:10476000C8010E943F10F3E07F121EC082E38983DC
:1047700084E08A83F70196859B8397859C83908943
:104780009D8391899E8396E39F838887828D898705
:10479000838D8A87848D8B87858D8C874CE050E054
:1047A000B601C8010E943F1087E3898386E08A83AF
:1047B00091E09B8393E09C838D838FE08E838AE3DB
:1047C0008F838BE388878FEF898749E050E0B601BC
:1047D000C8010E943F10C8010E943B10AC960FB662
:1047E000F894DEBF0FBECDBFDF91CF911F910F9127
:1047F000FF90EF90DF90CF90BF90AF909F908F9001
:104800007F9008952F923F924F925F926F927F9286
:104810008F929F92AF92BF92DF92EF92FF920F938F
:104820001F93CF93DF93CDB7DEB7E4970FB6F8941D
:10483000DEBF0FBECDBF7C011A012B0139010E94E2
:10484000B3074B015C0187010D5B1F4FC8010E943C
:10485000E11018161906A4F00E94B307DC01CB0181
:1048600088199909AA09BB09281639064A065B0660
:10487000F0F062E370E080E090E00E94E407E6CFB1
:1048800042E250E0BE016F5F7F4FC8010E947C1082
:104890008981823031F4F8018489958983349105C6
:1048A00041F0D12CC8010E941D108D2D5FC18FEFEA
:1048B0005DC16D817E818F8198850E94522D4B0153
:1048C0005C01F301608371838283938346E050E04F
:1048D000B701685F7F4FCE014D960E94972A892BC2
:1048E00099F4F70180819181A281B381881699069C
:1048F000AA06BB0648F084819581A681B7818815F8
:104900009905AA05BB0528F4C8010E941D1080E086
:104910002DC189899A89AB89BC89F70186879787D8
:10492000A08BB18B8EECA82EB12CC8010E94531025
:10493000F1E0AF1AB108C9F7D12CC70182969AA746
:1049400089A7F701B696FCA7EBA708969EA78DA7A7
:104950003C974F01899698AB8FA73897FAABE9AB94
:104960001701F6E12F0E311CC5979CAB8BABC8012C
:104970000E940310181619060CF094CFC8010E946B
:1049800053108333910509F4CBC0FCF481309105B9
:10499000C9F11CF4892B59F3DDC083309105D1F1A5
:1049A000069709F0D7C0C8010E9453105C0144E08B
:1049B00050E06BA97CA9C8010E947C10412C512CAD
:1049C000BB24F4E0AF1AB10840C08A33910509F462
:1049D0007BC03CF48533910569F0C69709F440C06B
:1049E000B9C08B33910509F485C08F3F910509F457
:1049F000BECFB0C0C8010E945310C8010E9453101E
:104A0000D82EB5CFC8010E94531044E050E069A9E8
:104A10007AA93AC0C8010E9453105C0144E050E0FA
:104A2000B101C8010E947C10412C512CBB2494E0A0
:104A3000A91AB1084A145B040CF099CFC8010E946E
:104A40005310EFEF4E1A5E0AF5CF4A145B040CF0D8
:104A50008ECFC8010E9453108FEF481A580AF5CF25
:104A6000C8010E945310B82EF701828D811110C029
:104A7000838D81110DC0848D81110AC0858D8111B6
:104A800007C044E050E0B401C8010E947C106FCF21
:104A9000EFA5F8A94080518062807380B401CE01F7
:104AA00083960E945C0C8DA19EA1AFA1B8A5841530
:104AB0009505A605B70529F3BB2009F458CFC80111
:104AC0000E945310BA94F8CFC8010E94531044E0DA
:104AD00050E06BA57CA5C8010E947C10F70166A17F
:104AE00077A180A591A50E94522D66A377A380A7E8
:104AF00091A73DCFC8010E94531044E050E06DA53E
:104B00007EA5C8010E947C10F70162A573A584A54B
:104B100095A50E94522D62A773A784A795A727CFBA
:104B2000C8010E94531044E050E069A57AA5C8016D
:104B30000E947C10F70162A173A184A195A10E943B
:104B4000522D62A373A384A395A366A777A780AB16
:104B500091AB0DCFC8010E945310B82EBB2009F4B1
:104B600006CFC8010E945310BA94F8CFE4960FB64E
:104B7000F894DEBF0FBECDBFDF91CF911F910F9193
:104B8000FF90EF90DF90BF90AF909F908F907F90BD
:104B90006F905F904F903F902F9008952F923F928B
:104BA0004F925F926F927F928F929F92AF92BF923D
:104BB000CF92DF92EF92FF920F931F93CF93DF93E9
:104BC000CDB7DEB727970FB6F894DEBF0FBECDBFC7
:104BD0008C0120ED37E040E050E061E070E080E0E3
:104BE00090E00E947122D80114966D937D938D936D
:104BF0009C931797F8016083718382839383580194
:104C0000F3E4AF0EB11CC5010E941E1064E470E015
:104C1000C5010E94B410882309F43CC10E94B30767
:104C20002B013C01812C912C1D82C8018E5B9F4F72
:104C30009F838E8343E0342E58EEC52E53E0D52E4D
:104C4000E12CF12C62E0262EAE81BF818C91833065
:104C500009F407C1811120C0F80184819581A681E2
:104C6000B7810196A11DB11D84839583A683B78367
:104C70000E94B3076419750986099709A70196016F
:104C80000E94112DA90161E0C8010E94EB2281E080
:104C9000AE81BF818C93C6C08430F9F4F801848161
:104CA0009581A681B7810196A11DB11D848395834D
:104CB000A683B7830E94B30764197509860997090B
:104CC000A70196010E94112DA90163E0C8010E946D
:104CD000EB22AE81BF812C92A5C0813061F5F80135
:104CE00042AD53AD64AD75AD9E012F5F3F4FC8011E
:104CF0000E9402248D83823009F094C089819A81B8
:104D0000AB81BC81F80184839583A683B7830E941D
:104D1000B3076419750986099709A70196010E94CE
:104D2000112DA90163E0C8010E94EB22ED81AE8143
:104D3000BF81EC937EC0823009F074C0D801DA964E
:104D40004D915D916D917C91DD979E012F5F3F4F5D
:104D5000C8010E9402248D83853009F05CC0EE8179
:104D6000FF813082F80182A193A1A4A1B5A1892B72
:104D70008A2B8B2B41F484E893E0A0E0B0E082A37F
:104D800093A3A4A3B5A3F80186A197A1A0A5B1A55B
:104D9000892B8A2B8B2B61F482A193A1A4A1B5A1AD
:104DA000B695A7959795879586A397A3A0A7B1A732
:104DB000F80182A593A5A4A5B5A5892B8A2B8B2BD9
:104DC000A9F482A193A1A4A1B5A1AC01BD0123E0E6
:104DD00076956795579547952A95D1F7841B950B3E
:104DE000A60BB70B82A793A7A4A7B5A7F80186A126
:104DF00097A1A0A5B1A586A797A7A0ABB1AB82A5A7
:104E000093A5A4A5B5A582AB93ABA4ABB5AB882401
:104E10008394912C0EC0FD81F63021F4AE81BF81C8
:104E20001C9207C0BD81BF3F21F4EE81FF8110823B
:104E30001D82F1E08F16910409F406CF0E94B3079A
:104E4000DC01CB0184199509A609B709F80126A947
:104E500037A940AD51AD281739074A075B0708F05D
:104E6000F3CEC5010E941E10F80184819581A681B0
:104E7000B7810196A11DB11D84839583A683B78355
:104E80000E94B307F801FE96608371838283938347
:104E9000C40102C080E090E027960FB6F894DEBF10
:104EA0000FBECDBFDF91CF911F910F91FF90EF907B
:104EB000DF90CF90BF90AF909F908F907F906F903A
:104EC0005F904F903F902F900895CF92DF92EF9296
:104ED000FF920F931F93CF93DF93EC016B011AA204
:104EE0001BA21CA21DA21EA21FA218A619A61AA6CA
:104EF0001BA61CA61DA62EAB3FAB48AF59AFEAAE12
:104F0000FBAE0CAF1DAF8C01085F1F4F86E0F801B0
:104F100011928A95E9F7CE010E94982286E0F60167
:104F2000D80101900D928A95E1F7FE01EE5BFF4FEB
:104F30001082CE01DF91CF911F910F91FF90EF90E2
:104F4000DF90CF900C94CE25CF92DF92EF92FF921C
:104F50000F931F93CF93DF93EC010E94B3076B0174
:104F60007C018E01025C1F4FF80180819181A2813A
:104F7000B381A7019601281B390B4A0B5B0BCA01B1
:104F8000B901683E33E073078105910508F441C01B
:104F900028EE33E040E050E00E94112DC61AD70AF7
:104FA000E80AF90AF801C082D182E282F3828EA572
:104FB0009FA5A8A9B9A969017A01CC0CDD1CEE1C3A
:104FC000FF1C8C159D05AE05BF0528F41EA61FA667
:104FD00018AA19AA08C0821B930BA40BB50B8EA7A5
:104FE0009FA7A8ABB9AB8AA99BA9ACA9BDA98C15F1
:104FF0009D05AE05BF0528F41AAA1BAA1CAA1DAA66
:1050000008C0821B930BA40BB50B8AAB9BABACAB5C
:10501000BDAB8EA59FA5A8A9B9A9892B8A2B8B2BDF
:1050200069F4FE01EE5BFF4F8081833039F484E048
:105030008083CE010E94CE25019602C080E090E0E0
:105040004AA95BA96CA97DA9452B462B472B81F466
:10505000FE01EE5BFF4F2081233011F0211108C0CB
:105060001082CE010E949822CE010E94CE25039686
:10507000DF91CF911F910F91FF90EF90DF90CF9034
:105080000895CF93DF938230910510F482E090E091
:10509000E0912407F091250720E030E0C0E0D0E067
:1050A000309711F14081518148175907C0F04817D6
:1050B000590761F482819381209719F09B838A8339
:1050C0002BC0909325078093240726C02115310516
:1050D00019F04217530718F49A01BE01DF01EF01DE
:1050E0000280F381E02DDCCF2115310509F1281B69
:1050F000390B2430310590F412968D919C911397C1
:105100006115710521F0FB019383828304C09093A4
:10511000250780932407FD01329644C0FD01E20F6C
:10512000F31F81939193225031092D933C933AC000
:105130002091220730912307232B41F42091020173
:10514000309103013093230720932207209100011F
:10515000309101012115310541F42DB73EB7409141
:10516000040150910501241B350BE0912207F091B9
:105170002307E217F307A0F42E1B3F0B281739076C
:1051800078F0AC014E5F5F4F2417350748F04E0FA3
:105190005F1F50932307409322078193919302C08E
:1051A000E0E0F0E0CF01DF91CF9108950F931F93DE
:1051B000CF93DF93009709F48CC0FC0132971382E0
:1051C000128200912407109125070115110581F421
:1051D00020813181820F931F209122073091230774
:1051E0002817390779F5F0932307E093220771C058
:1051F000D80140E050E0AE17BF0750F412962D9151
:105200003C911397AD012115310509F1D901F3CF77
:105210009D01DA013383228360817181860F971F9C
:105220008217930769F4EC0128813981260F371F13
:105230002E5F3F4F318320838A819B8193838283BA
:10524000452B29F4F0932507E093240742C01396D9
:10525000FC93EE931297ED01499159919E01240F11
:10526000351FE217F30771F480819181840F951F38
:10527000029611969C938E938281938113969C93B0
:105280008E931297E0E0F0E0D80112968D919C91F8
:105290001397009719F0F8018C01F6CF8D919C912E
:1052A00098012E5F3F4F820F931F2091220730916C
:1052B00023072817390769F4309729F41092250736
:1052C0001092240702C013821282109323070093C6
:1052D0002207DF91CF911F910F9108958F929F9296
:1052E000AF92BF92CF92DF92EF92FF92CF93DF9374
:1052F000EC01688179818A819B8161157105810545
:10530000910521F464E279ED8BE597E02DE133EF2F
:1053100041E050E00E94332D49015A019B01AC014C
:10532000A7EAB1E40E94592D6B017C01ACEEB4EF09
:10533000A50194010E94672DDC01CB018C0D9D1D00
:10534000AE1DBF1DB7FF03C00197A109B0488883F8
:105350009983AA83BB83BC01CD019F77DF91CF9155
:10536000FF90EF90DF90CF90BF90AF909F908F9085
:1053700008950E946E29089586E091E00E946E29AA
:10538000089560930601709307018093080190933C
:1053900009010895A0E0B0E0E0EDF9E20C94702D71
:1053A000EC01009721F4CB010E944128B8C0FC0118
:1053B000E60FF71F9C0122503109E217F30708F4AA
:1053C000ACC0D9010D911C91119706171707B0F0C9
:1053D0000530110508F49FC0C80104978617970788
:1053E00008F499C002501109061B170B0193119381
:1053F0006D937C93CF010E94D6288DC05B01A01ACB
:10540000B10A4C01800E911EA0912407B09125078E
:1054100040E050E0E12CF12C109709F44AC0A815A7
:10542000B905D1F56D907C901197630182E0C80EAB
:10543000D11CCA14DB0480F1A3014A195B096A017B
:1054400082E0C80ED11C1296BC9012971396AC91B4
:10545000B5E0CB16D10440F0B282A38351834083E0
:10546000D9016D937C930AC00E5F1F4FC301800F5B
:10547000911FF90191838083EB2DFA2FE114F10440
:1054800031F0D7011396FC93EE93129744C0F0933A
:105490002507E09324073FC08D919C9111974817F1
:1054A000590708F4AC017D0112960D90BC91A02D16
:1054B000B3CF809122079091230788159905E1F4D5
:1054C00046175707C8F48091000190910101009799
:1054D00041F48DB79EB74091040150910501841BA2
:1054E000950BE817F907C8F4F0932307E093220718
:1054F000F901718360830FC0CB010E9441287C01B8
:10550000009759F0A801BE010E94A42ACE010E9472
:10551000D628C70104C0CE0102C080E090E0CDB71C
:10552000DEB7EEE00C948C2DF8940C94CE2DFB019C
:10553000DC0104C08D910190801921F4415050404C
:10554000C8F7881B990B0895FB01DC0102C001908C
:105550000D9241505040D8F70895FB01DC018D9128
:10556000019080190110D9F3990B0895FB01DC011A
:1055700001900D920020E1F708954532510520F485
:10558000423010F00C94C82AFB011082CB01089520
:10559000BB274A3031F4992322F4BDE290958195DE
:1055A0009F4F0C94DF2A4532510520F4423010F011
:1055B0000C94DE2AFB011082CB010895BB27FB016E
:1055C0005527AA27880F991FAA1FA41710F0A41BFC
:1055D00083955051B9F7A05DAA3308F0A95DA19356
:1055E000009779F7B111B1931192CB010C94012D71
:1055F0005058BB27AA270E94102B0C945A2C0E94AB
:105600004C2C38F00E94532C20F039F49F3F19F4B1
:1056100026F40C94492C0EF4E095E7FB0C94432CF3
:10562000E92F0E946B2C58F3BA176207730784079F
:10563000950720F079F4A6F50C948D2C0EF4E095E6
:105640000B2EBA2FA02D0B01B90190010C01CA013C
:10565000A0011124FF27591B99F0593F50F4503EE7
:1056600068F11A16F040A22F232F342F4427585FD9
:10567000F3CF469537952795A795F0405395C9F7F1
:105680007EF41F16BA0B620B730B840BBAF09150A9
:10569000A1F0FF0FBB1F661F771F881FC2F70EC048
:1056A000BA0F621F731F841F48F48795779567951B
:1056B000B795F7959E3F08F0B0CF9395880F08F007
:1056C0009927EE0F9795879508950E94792B0C9452
:1056D0005A2C0E94532C58F00E944C2C40F029F474
:1056E0005F3F29F00C94432C51110C948E2C0C9498
:1056F000492C0E946B2C68F39923B1F3552391F345
:10570000951B550BBB27AA2762177307840738F030
:105710009F5F5F4F220F331F441FAA1FA9F335D08D
:105720000E2E3AF0E0E832D091505040E695001C41
:10573000CAF72BD0FE2F29D0660F771F881FBB1FFB
:10574000261737074807AB07B0E809F0BB0B802DD9
:10575000BF01FF2793585F4F3AF09E3F510578F005
:105760000C94432C0C948E2C5F3FE4F3983ED4F3BE
:10577000869577956795B795F7959F5FC9F7880FD9
:10578000911D9695879597F90895E1E0660F771F2B
:10579000881FBB1F621773078407BA0720F0621BBC
:1057A000730B840BBA0BEE1F88F7E09508950E94E7
:1057B000732C88F09F5798F0B92F9927B751B0F004
:1057C000E1F0660F771F881F991F1AF0BA95C9F785
:1057D00014C0B13091F00E948D2CB1E008950C946A
:1057E0008D2C672F782F8827B85F39F0B93FCCF31D
:1057F000869577956795B395D9F73EF49095809502
:10580000709561957F4F8F4F9F4F0895E89409C021
:1058100097FB3EF490958095709561957F4F8F4FE3
:105820009F4F9923A9F0F92F96E9BB279395F695F9
:10583000879577956795B795F111F8CFFAF4BB0F77
:1058400011F460FF1BC06F5F7F4F8F4F9F4F16C0DB
:10585000882311F096E911C0772321F09EE8872F65
:10586000762F05C0662371F096E8862F70E060E021
:105870002AF09A95660F771F881FDAF7880F96959A
:10588000879597F9089597F99F6780E870E060E041
:1058900008959FEF80EC089500240A9416161706C9
:1058A00018060906089500240A9412161306140611
:1058B00005060895092E0394000C11F4882352F074
:1058C000BB0F40F4BF2B11F460FF04C06F5F7F4F2C
:1058D0008F4F9F4F089557FD9058440F551F59F013
:1058E0005F3F71F04795880F97FB991F61F09F3FCD
:1058F00079F087950895121613061406551FF2CFF6
:105900004695F1DF08C0161617061806991FF1CF45
:1059100086957105610508940895E894BB2766276C
:105920007727CB0197F908950E94A72C0C945A2C45
:105930000E944C2C38F00E94532C20F0952311F03B
:105940000C94432C0C94492C11240C948E2C0E9402
:105950006B2C70F3959FC1F3950F50E0551F629F1C
:10596000F001729FBB27F00DB11D639FAA27F00DB8
:10597000B11DAA1F649F6627B00DA11D661F829FDF
:105980002227B00DA11D621F739FB00DA11D621FC4
:10599000839FA00D611D221F749F3327A00D611DE1
:1059A000231F849F600D211D822F762F6A2F1124C3
:1059B0009F5750409AF0F1F088234AF0EE0FFF1FF6
:1059C000BB1F661F771F881F91505040A9F79E3F4D
:1059D000510580F00C94432C0C948E2C5F3FE4F323
:1059E000983ED4F3869577956795B795F795E795A3
:1059F0009F5FC1F7FE2B880F911D9695879597F9AC
:105A00000895DC01FC01672F71917723E1F732974C
:105A100004C07C916D9370836291AE17BF07C8F389
:105A20000895A1E21A2EAA1BBB1BFD010DC0AA1FDF
:105A3000BB1FEE1FFF1FA217B307E407F50720F0F7
:105A4000A21BB30BE40BF50B661F771F881F991F72
:105A50001A9469F760957095809590959B01AC01BB
:105A6000BD01CF010895052E97FB1EF400940E94FE
:105A70004A2D57FD07D00E94112D07FC03D04EF48C
:105A80000C944A2D50954095309521953F4F4F4F9E
:105A90005F4F089590958095709561957F4F8F4FDA
:105AA0009F4F0895692796276927782787277827A2
:105AB00008950E94A92DA59F900DB49F900DA49FBD
:105AC000800D911D11240895B7FF0C94592D0E944B
:105AD000592D821B930B08952F923F924F925F9204
