:100000000C9466000C948E000C948E000C948E0060
:100010000C948E000C948E000C947D100C948E0029
:100020000C948E000C948E000C948E000C948E0018
:100030000C948E000C948E000C948E000C948E0008
:100040000C9424080C948E000C94E60A0C94180B63
:100050000C948E000C948E000C948E000C948E00E8
:100060000C9455220C948E00000000080002010040
:100070000003040700000000000000000102040863
:100080001020408001020408102001020408102002
:10009000040404040404040402020202020203032E
:1000A0000303030300000000250028002B000000CC
:1000B0000000240027002A009000480B320D761023
:1000C0007813281A7D1A5D211524EE0011241FBE15
:1000D000CFEFD8E0DEBFCDBF14E0A0E0B1E0EEE2AC
:1000E000FEE502C005900D92AC3AB107D9F727E0C2
:1000F000ACEAB4E001C01D92AE37B207E1F710E000
:10010000C5E6D0E004C02197FE010E94DF2ECC3569
:10011000D107C9F70E94760B0C94C92B0C940000F0
:100120000F9300E020E040E060E08AE695E00E9466
:100130000B0D01E021E041E06AE084E695E00E94D9
:100140000B0D89E495E00E9400138EE295E00E9479
:10015000001383E195E00E9400136FE272E08DEEE0
:1001600094E00E94AB0D83EE94E00E946D1D82EE40
:1001700094E00E94E30F81EE94E00E94E30F80EE92
:1001800094E00E94E30F88ED94E00E94FC0EECEAFC
:10019000F4E0148215821682178280E090E0A6ECCB
:1001A000B2EC80879187A287B38784879587A687DB
:1001B000B787808B918BA28BB38B848B958BA68B0F
:1001C000B78B808F918FA28FB38F148E158E168E62
:1001D000178E10A211A212A20F9108958DEE94E035
:1001E0000C943D0D0F931F93CF93DF93CDB7DEB7E4
:1001F00062970FB6F894DEBF0FBECDBF8C01609141
:10020000AC047091AD048091AE049091AF040E9453
:100210000C2D4AE0CE0107960E94240E6CE171E09D
:10022000CE0101960E94AB0DBE01695F7F4FCE01EA
:1002300001960E94AA0E64E372E00E94BD0EB8010E
:100240000E94AA0EBC01CE010D960E94D70DCE01D0
:1002500001960E943D0DCE0107960E943D0D4091F2
:1002600010015091110189E694E09A83898380916D
:10027000660590916705A0916805B09169058B832B
:100280009C83AD83BE83BE016F5F7F4F83E195E0AA
:100290000E946811BE01635F7F4F83E195E00E9479
:1002A000EF0983E195E00E947011CE010D960E9446
:1002B0003D0D62960FB6F894DEBF0FBECDBFDF9145
:1002C000CF911F910F9108958F929F92AF92BF92FD
:1002D000CF92DF92EF92FF920F931F93CF93DF9312
:1002E00000D000D000D0CDB7DEB760E47FE18CE174
:1002F00096E00E94F4100E946E084B015C0126E01B
:1003000040E051EE60E070E089E795E00E945A0C11
:1003100062E271E089E795E00E94140A60E082E001
:100320000E947C0961E082E00E94400960E082E076
:100330000E947C0960E088E00E947C0961E088E01E
:100340000E94400960E088E00E947C0960E089E04A
:100350000E947C0961E089E00E94400960E089E038
:100360000E947C0961E083E00E947C0961E083E0F7
:100370000E94400961E083E00E947C0961E085E021
:100380000E947C0961E085E00E94400961E085E00F
:100390000E947C0961E086E00E947C0961E086E0C1
:1003A0000E94400961E086E00E947C0961E087E0EC
:1003B0000E947C0961E087E00E94400961E087E0DB
:1003C0000E947C0961E084E00E947C0961E084E095
:1003D0000E94400961E084E00E947C099DE0E92ED2
:1003E00095E0F92E67010091EB041091EC04C8012F
:1003F0000E94F42ED6018D936D010F5F1F4F109355
:10040000EC040093EB04B3E1CB16B5E0DB0659F73F
:10041000E1EDF4E0D7018D917D018193B3E1EB161D
:10042000B5E0FB06B9F78CE196E00E94871010EA70
:10043000E12E1FE0F12E00E010E020E63AEE40E071
:1004400050E06DE075E086E396E00E94FE18892B8F
:1004500061F462E371E089E795E00E94140A60E1CB
:1004600077E280E090E00E949F088CE196E00E9495
:10047000871060E771E089E795E00E94140A68E957
:1004800071E089E795E00E94140A66E376E0CE0108
:1004900001960E94001ABE016F5F7F4F89E795E0C9
:1004A0000E94260A609114017091150189E495E07B
:1004B0000E94E91160911201709113018EE295E0A2
:1004C0000E94E911609110017091110183E195E0A2
:1004D0000E94E9116CED75E080E090E00E949F08B9
:1004E00067EA71E089E795E00E94140A8CE196E0E2
:1004F0000E94871068EB71E0CE0101960E94AB0D5F
:10050000CE0101960E94F200CE0101960E943D0D9F
:1005100069EC71E089E795E00E94140A6FED71E0E3
:10052000CE0101960E94AB0DCE0101960E94F20011
:10053000CE0101960E943D0D4AE060911305CE0167
:1005400001960E94F70DCE0101960E94F200CE01A5
:1005500001960E943D0D60E072E0CE0101960E947E
:10056000AB0DCE0101960E94F200CE0101960E94D1
:100570003D0D4AE060910D05CE0101960E94F70DF8
:10058000CE0101960E94F200CE0101960E943D0D1F
:100590004AE060910E05CE0101960E94F70DCE0152
:1005A00001960E94F200CE0101960E943D0D4AE0A4
:1005B00060910F05CE0101960E94F70DCE010196C4
:1005C0000E94F200CE0101960E943D0D4AE060912A
:1005D0001005CE0101960E94F70DCE0101960E94F2
:1005E000F200CE0101960E943D0D4AE06091110596
:1005F000CE0101960E94F70DCE0101960E94F200F5
:10060000CE0101960E943D0D4AE060911205CE0197
:1006100001960E94F70DCE0101960E94F200CE01D4
:1006200001960E943D0D80910E0190910F010E9454
:10063000F42E682F70E080E090E00E94422D6093DD
:10064000AC047093AD048093AE049093AF0463E167
:1006500072E089E795E00E94FD0963E172E0CE0156
:1006600001960E94AB0DCE0101960E94F200CE01D0
:1006700001960E943D0D00E010E064E272E089E71F
:1006800095E00E94FD094AE050E0B80189E795E055
:100690000E94CB0A6EE272E089E795E00E94FD09B4
:1006A00060E372E089E795E00E94FD09C8010E94BD
:1006B000F42E4AE050E0682F89E795E00E94DF0AB7
:1006C0006EE272E089E795E00E94FD0964E272E063
:1006D000CE0101960E94AB0DCE0101960E94F20060
:1006E000CE0101960E943D0D4AE0B801CE0101966F
:1006F0000E94240ECE0101960E94F200CE010196C6
:100700000E943D0D60E372E0CE0101960E94AB0DA8
:10071000CE0101960E94F200CE0101960E943D0D8D
:10072000C8010E94F42E4AE0682FCE0101960E9473
:10073000F70DCE0101960E94F200CE0101960E94B3
:100740003D0D0F5F1F4F0830110509F096CF4FEF99
:100750006EE383EE94E00E942720882309F4F9C019
:1007600067E372E089E795E00E94140A67E372E0AC
:10077000CE0101960E94AB0DCE0101960E94F200BF
:10078000CE0101960E943D0D40E060E083EE94E0D2
:100790000E94C41F40E060E083EE94E00E94CF1E00
:1007A00040E061E083EE94E00E94C41F40E061E01D
:1007B00083EE94E00E94CF1E40E062E083EE94E07E
:1007C0000E94C41F40E062E083EE94E00E94CF1ECE
:1007D00040E063E083EE94E00E94C41F40E063E0E9
:1007E00083EE94E00E94CF1E40E064E083EE94E04C
:1007F0000E94C41F40E064E083EE94E00E94CF1E9C
:1008000040E065E083EE94E00E94C41F40E065E0B4
:1008100083EE94E00E94CF1E40E066E083EE94E019
:100820000E94C41F40E066E083EE94E00E94CF1E69
:1008300040E067E083EE94E00E94C41F40E067E080
:1008400083EE94E00E94CF1E40E068E083EE94E0E7
:100850000E94C41F40E068E083EE94E00E94CF1E37
:1008600040E069E083EE94E00E94C41F40E069E04C
:1008700083EE94E00E94CF1E40E06AE083EE94E0B5
:100880000E94C41F40E06AE083EE94E00E94CF1E05
:1008900040E06BE083EE94E00E94C41F40E06BE018
:1008A00083EE94E00E94CF1E41E06CE083EE94E082
:1008B0000E94C41F41E06DE083EE94E00E94C41FDB
:1008C00041E06EE083EE94E00E94C41F41E06FE0DF
:1008D00083EE94E00E94C41F00E010E0602F83EEDE
:1008E00094E00E94F61E002E01C0880F0A94EAF7D9
:1008F0002091CF04822B8093CF040F5F1F4F0830CD
:10090000110561F708E010E0602F83EE94E00E948B
:10091000F61E002E01C0880F0A94EAF72091D00439
:10092000822B8093D0040F5F1F4F0F30110561F7AA
:100930006091CF0480910C0190910D010E94FC2EDA
:100940006091D00480910A0190910B010E94FC2ECD
:1009500014C06EE472E089E795E00E94140A6EE428
:1009600072E0CE0101960E94AB0DCE0101960E946D
:10097000F200CE0101960E943D0D0E946E086B01AF
:100980007C0168E672E0CE0101960E94AB0DCE01BB
:1009900001960E94F200CE0101960E943D0DB60123
:1009A000681979094AE0CE0101960E94500ECE01E5
:1009B00001960E94F200CE0101960E943D0D2696FE
:1009C0000FB6F894DEBF0FBECDBFDF91CF911F9160
:1009D0000F91FF90EF90DF90CF90BF90AF909F90DE
:1009E0008F900895CF93DF9300D000D000D0CDB783
:1009F000DEB76EE772E089E795E00E94140A6EE7C1
:100A000072E0CE0101960E94AB0DCE0101960E94CC
:100A1000F200CE0101960E943D0D64EF71E080E08E
:100A200090E00E949F0860E084E00E947C09269686
:100A30000FB6F894DEBF0FBECDBFDF91CF91089502
:100A4000CF93DF93CDB7DEB72C970FB6F894DEBF08
:100A50000FBECDBF48E150E063EF74E089E495E05C
:100A60000E94B11163EF74E0CE0107960E94AB0DB6
:100A700065E972E0CE0107960E94D60E8823C9F080
:100A80006AE972E089E795E00E94140A6AE972E077
:100A9000CE0101960E94AB0DCE0101960E94F2009C
:100AA000CE0101960E943D0D8CE196E00E948710D8
:100AB00028C16BEA72E0CE0107960E94D60E882309
:100AC00041F061E082E00E947C0981E08093C804EB
:100AD00018C168EB72E0CE0107960E94D60E8823FB
:100AE00039F060E082E00E947C091092C80409C1DC
:100AF00066EC72E0CE0107960E94D60E882371F054
:100B000062ED72E089E795E00E94140A60E083E0FC
:100B10000E947C0981E08093CB04F3C06EED72E00B
:100B2000CE0107960E94D60E882369F06BEE72E024
:100B300089E795E00E94140A61E083E00E947C0945
:100B40001092CB04DEC068EF72E0CE0107960E94DF
:100B5000D60E882371F064E073E089E795E00E9487
:100B6000140A60E085E00E947C0981E08093CC0457
:100B7000C8C060E173E0CE0107960E94D60E8823BC
:100B800069F06DE173E089E795E00E94140A61E085
:100B900085E00E947C091092CC04B3C06AE273E045
:100BA000CE0107960E94D60E882371F066E373E0AB
:100BB00089E795E00E94140A60E086E00E947C09C3
:100BC00081E08093CD049DC062E473E0CE0107967E
:100BD0000E94D60E882369F06FE473E089E795E000
:100BE0000E94140A61E086E00E947C091092CD0404
:100BF00088C06CE573E0CE0107960E94D60E88236C
:100C000071F068E673E089E795E00E94140A60E0FD
:100C100087E00E947C0981E08093CE0472C064E783
:100C200073E0CE0107960E94D60E882369F061E832
:100C300073E089E795E00E94140A61E087E00E9472
:100C40007C091092CE045DC06EE873E0CE01079679
:100C50000E94D60E882341F061E088E00E947C0962
:100C600081E08093C9044DC065E973E0CE01079629
:100C70000E94D60E882339F060E088E00E947C094B
:100C80001092C9043EC06DE973E0CE0107960E9440
:100C9000D60E882371F064EA73E089E795E00E943C
:100CA000140A61E089E00E947C0981E08093CA0413
:100CB00028C06BEA73E0CE0107960E94D60E882307
:100CC00039F060E089E00E947C091092CA0419C0E2
:100CD00062E971E0CE0107960E94D60E882319F0D2
:100CE0000E94F2040EC063EB73E0CE0101960E94F5
:100CF000AB0DCE0101960E94F200CE0101960E943A
:100D00003D0D88E1E3EFF4E0DF011D928A95E9F7FC
:100D1000CE0107960E943D0D2C960FB6F894DEBFCB
:100D20000FBECDBFDF91CF9108958F929F92AF926A
:100D3000BF92CF92DF92EF92FF92CF93DF9300D0DA
:100D400000D000D0CDB7DEB70E946E084B015C0129
:100D50006BE182EE94E00E943710882369F082EE06
:100D600094E00E9459106093B4047093B50480938A
:100D7000B6049093B70420C06EEC73E089E795E069
:100D80000E94140A6EEC73E0CE0101960E94AB0D36
:100D9000CE0101960E94F200CE0101960E943D0D07
:100DA00080E090E0A6ECB2EC8093B4049093B5049C
:100DB000A093B604B093B7046AE181EE94E00E9478
:100DC0003710882369F081EE94E00E9459106093F7
:100DD000B8047093B9048093BA049093BB0420C004
:100DE00064EE73E089E795E00E94140A64EE73E014
:100DF000CE0101960E94AB0DCE0101960E94F20039
:100E0000CE0101960E943D0D80E090E0A6ECB2EC90
:100E10008093B8049093B904A093BA04B093BB0430
:100E200068E180EE94E00E943710882369F080EE3C
:100E300094E00E9459106093BC047093BD048093A9
:100E4000BE049093BF0420C06AEF73E089E795E089
:100E50000E94140A6AEF73E0CE0101960E94AB0D66
:100E6000CE0101960E94F200CE0101960E943D0D36
:100E700080E090E0A6ECB2EC8093BC049093BD04BB
:100E8000A093BE04B093BF0488ED94E00E94130FBA
:100E90008823C9F088ED94E00E94410F6093C0045C
:100EA0007093C1048093C2049093C30488ED94E0CE
:100EB0000E94920F6093C4047093C5048093C6048B
:100EC0009093C70428C060E174E089E795E00E9430
:100ED000140A60E174E0CE0101960E94AB0DCE01D0
:100EE00001960E94F200CE0101960E943D0D80E025
:100EF00090E0A6ECB2EC8093C0049093C104A09360
:100F0000C204B093C3048093C4049093C504A09317
:100F1000C604B093C7040E946E0828EE33E040E098
:100F200050E00E944D2ECA01B9010E94422D6093EB
:100F3000B0047093B1048093B2049093B3044091D1
:100F400012015091130189E694E09A83898380917C
:100F5000660590916705A0916805B09169058B833E
:100F60009C83AD83BE83BE016F5F7F4F8EE295E0B1
:100F70000E9468114CE250E06CEA74E08EE295E069
:100F80000E9474118EE295E00E94701163E274E099
:100F900089E795E00E94140A63E274E0CE010196AD
:100FA0000E94AB0DCE0101960E94F200CE01019687
:100FB0000E943D0D89E495E00E94161290930C0565
:100FC00080930B051816190614F40E94200586E379
:100FD00096E00E949B190E946E086B017C0166E3FB
:100FE00074E0CE0101960E94AB0DCE0101960E94E5
:100FF000F200CE0101960E943D0DB60168197909F3
:101000004AE0CE0101960E94500ECE0101960E9448
:10101000F200CE0101960E943D0D60ED77E080E088
:1010200090E00E949F0826960FB6F894DEBF0FBE90
:10103000CDBFDF91CF91FF90EF90DF90CF90BF9029
:10104000AF909F908F9008951F920F920FB60F92BE
:1010500011242F933F938F939F93AF93BF938091CE
:10106000710590917205A0917305B091740530914E
:10107000700523E0230F2D3720F40196A11DB11D2B
:1010800005C026E8230F0296A11DB11D209370050F
:101090008093710590937205A0937305B0937405C6
:1010A0008091750590917605A0917705B0917805AE
:1010B0000196A11DB11D8093750590937605A093AF
:1010C0007705B0937805BF91AF919F918F913F9134
:1010D0002F910F900FBE0F901F9018952FB7F89477
:1010E00060917105709172058091730590917405FE
:1010F0002FBF08953FB7F8948091750590917605BC
:10110000A0917705B091780526B5A89B05C02F3F23
:1011100019F00196A11DB11D3FBFBA2FA92F982F1D
:101120008827820F911DA11DB11DBC01CD0142E098
:10113000660F771F881F991F4A95D1F708958F92E0
:101140009F92AF92BF92CF92DF92EF92FF926B018C
:101150007C010E947A084B015C01C114D104E104B6
:10116000F10401F10E9416090E947A08DC01CB010A
:1011700088199909AA09BB09883E9340A105B105C0
:1011800060F321E0C21AD108E108F10888EE880E68
:1011900083E0981EA11CB11CC114D104E104F10428
:1011A00019F7DBCFFF90EF90DF90CF90BF90AF901B
:1011B0009F908F900895789484B5826084BD84B5A3
:1011C000816084BD85B5826085BD85B5816085BD42
:1011D000EEE6F0E0808181608083E1E8F0E010825B
:1011E000808182608083808181608083E0E8F0E09C
:1011F000808181608083E1EBF0E080818460808386
:10120000E0EBF0E0808181608083EAE7F0E08081BC
:10121000846080838081826080838081816080831C
:101220008081806880831092C10008950895833082
:1012300081F028F4813099F08230A1F00895873050
:10124000A9F08830B9F08430D1F4809180008F7D8E
:1012500003C0809180008F7780938000089584B5CB
:101260008F7702C084B58F7D84BD08958091B000D2
:101270008F7703C08091B0008F7D8093B000089578
:10128000CF93DF9390E0FC01E458FF4F2491FC01E1
:10129000E057FF4F8491882361F190E0880F991FF8
:1012A000FC01E255FF4FC591D491FC01EC55FF4F75
:1012B000A591B491611109C09FB7F89488812095D8
:1012C00082238883EC912E230BC0623061F49FB798
:1012D000F8943881822F809583238883EC912E2B7C
:1012E0002C939FBF06C08FB7F894E8812E2B2883DC
:1012F0008FBFDF91CF9108951F93CF93DF93282F56
:1013000030E0F901E859FF4F8491F901E458FF4FAB
:10131000D491F901E057FF4FC491CC23C9F0162FA7
:1013200081110E941709EC2FF0E0EE0FFF1FEC5522
:10133000FF4FA591B4918FB7F894111105C09C91FE
:10134000ED2FE095E92302C0EC91ED2BEC938FBFDC
:10135000DF91CF911F91089580E090E00895CF92A2
:10136000DF92EF92FF920F931F93CF93DF936C0165
:101370007A018B01C0E0D0E0CE15DF0589F0D801FD
:101380006D918D01D601ED91FC910190F081E02DE0
:10139000C6010995892B11F47E0102C02196ECCF7C
:1013A000C701DF91CF911F910F91FF90EF90DF90D8
:1013B000CF9008956115710579F0FB01019000202F
:1013C000E9F73197AF01461B570BDC01ED91FC911A
:1013D0000280F381E02D099480E090E00895DC0123
:1013E000ED91FC91DB0114964D915C9115976D91F7
:1013F0007C910280F381E02D09940C94DA09DC01E0
:10140000ED91FC910190F081E02D0994DB01ED91CB
:10141000FC9111970190F081E02DBC01CD01099460
:1014200064E474E00C94DA090F931F93CF93DF9375
:10143000EC010E94DA098C01CE010E94100A800F93
:10144000911FDF91CF911F910F9108950F931F93DB
:10145000CF93DF93EC010E94060A8C01CE010E941B
:10146000100A800F911FDF91CF911F910F91089566
:101470004F925F926F927F92EF92FF920F931F9322
:10148000CF93DF93CDB7DEB7A1970FB6F894DEBF49
:101490000FBECDBF7C01FA01CB0119A2223008F4A6
:1014A0002AE08E010F5D1F4F422E512C612C712CB2
:1014B000BF01A30192010E944D2EF901CA01015002
:1014C00011096A3014F4605D01C0695CD8016C9345
:1014D000232B242B252B61F7B801C7010E94DA09C1
:1014E000A1960FB6F894DEBF0FBECDBFDF91CF91AE
:1014F0001F910F91FF90EF907F906F905F904F90B2
:101500000895CF92DF92EF92FF920F931F93CF93A4
:10151000DF93EC016A017B012115310579F4E88143
:10152000F9810190F081E02D642FDF91CF911F911F
:101530000F91FF90EF90DF90CF9009942A30310502
:10154000E9F477FF1AC06DE20E94FF098C0144277D
:101550005527BA014C195D096E097F092AE0CE01B1
:101560000E94380A800F911FDF91CF911F910F9138
:10157000FF90EF90DF90CF9008952AE0B701A60189
:10158000CE01DF91CF911F910F91FF90EF90DF90EF
:10159000CF900C94380A9A01AB01770F660B770B4A
:1015A0000C94810A2115310541F4DC01ED91FC9187
:1015B0000190F081E02D642F09940C94380A9A016F
:1015C000462F50E060E070E00C94D20A1F920F9218
:1015D0000FB60F9211242F938F939F93EF93FF9346
:1015E000E0918905F0918A058081E0918F05F09165
:1015F000900582FD12C09081809192058F5F8F735C
:1016000020919305821751F0E0919205F0E0E758A0
:10161000FA4F958F8093920501C08081FF91EF91E1
:101620009F918F912F910F900FBE0F901F90189543
:101630001F920F920FB60F9211242F933F934F9347
:101640005F936F937F938F939F93AF93BF93EF932A
:10165000FF9389E795E00E94D00BFF91EF91BF9136
:10166000AF919F918F917F916F915F914F913F913A
:101670002F910F900FBE0F901F90189589E795E05E
:101680000E94850B21E0892B09F420E0822F089528
:10169000E9E7F5E01382128288EE93E0A0E0B0E083
:1016A00084839583A683B78387E594E091838083C1
:1016B00085EC90E09587848784EC90E09787868717
:1016C00080EC90E0918B808B81EC90E0938B828B0F
:1016D00082EC90E0958B848B86EC90E0978B868BE8
:1016E000118E128E138E148E089508950E94DB08B9
:1016F0000E94750B0E946401C2ECDBE00E9495061B
:101700002097E1F30E94C20BF9CFFC01918D228D4D
:10171000892F90E0805C9F4F821B91098F739927DE
:101720000895FC01918D828D981731F0828DE80F1C
:10173000F11D858D90E008958FEF9FEF0895FC01D6
:10174000918D828D981761F0828DDF01A80FB11DF8
:101750005D968C91928D9F5F9F73928F90E008951C
:101760008FEF9FEF0895FC01538D448D252F30E0BE
:10177000842F90E0821B930B541710F0CF9608959E
:10178000019708958EE39BE0892B49F080E090E07B
:10179000892B29F00E943E0B81110C9400000895C2
:1017A000FC01848DDF01A80FB11DA35ABF4F2C91FE
:1017B000848D90E001968F739927848FA689B789CD
:1017C0002C93A089B1898C9180648C93938D848DA6
:1017D000981306C00288F389E02D80818F7D808375
:1017E0000895CF93DF93EC01888D8823C9F0EA89AF
:1017F000FB89808185FD05C0A889B9898C9186FD0A
:101800000FC00FB607FCF5CF808185FFF2CFA88906
:10181000B9898C9185FFEDCFCE010E94D00BE7CF27
:10182000DF91CF910895EF92FF920F931F93CF9383
:10183000DF93EC0181E0888F9B8D8C8D981305C020
:10184000E889F989808185FD24C0F62E0B8D10E092
:101850000F5F1F4F0F731127E02E8C8DE8120CC005
:101860000FB607FCFACFE889F989808185FFF5CFAB
:10187000CE010E94D00BF1CF8B8DFE01E80FF11D40
:10188000E35AFF4FF0820B8FEA89FB8980818062E7
:1018900007C0EE89FF896083E889F98980818064C7
:1018A000808381E090E0DF91CF911F910F91FF90B5
:1018B000EF900895CF92DF92EF92FF921F93CF9314
:1018C000DF93EC016A017B01122FE889F98982E03C
:1018D00080834115514E61057105B1F060E079E0FA
:1018E0008DE390E0A70196010E944D2EDA01C90117
:1018F0000197A109B109B695A79597958795AC0170
:10190000411580E15807A8F0E889F989108260E85C
:1019100074E88EE190E0A70196010E944D2EBA0175
:10192000A90141505109610971097695679557954B
:101930004795EC85FD855083EE85FF854083188EA5
:10194000EC89FD891083EA89FB898081806180832D
:10195000EA89FB89808188608083EA89FB898081AC
:1019600080688083EA89FB8980818F7D8083DF9115
:10197000CF911F91FF90EF90DF90CF9008958F92BD
:101980009F92AF92BF92CF92DF92EF92FF920F930E
:101990001F93CF93DF937C018B016C0182E0C80E13
:1019A000D11C4701E5E08E0E911CC0E0D0E0F601AD
:1019B00061916F014AE050E0C8010E94DF0A5C01BA
:1019C0006EE2C8010E94FF098A0D9B1DC80FD91F36
:1019D000C814D90461F74AE050E0F7016581C801F5
:1019E0000E94DF0A8C0F9D1FDF91CF911F910F91F5
:1019F000FF90EF90DF90CF90BF90AF909F908F902F
:101A0000089529E634E0FC01318320831282138299
:101A10001482158208950F93FC0189E694E0918366
:101A2000808362834383248305830F91089529E68D
:101A300034E0FC0131832083FB01408151816281CC
:101A40007381FC0142835383648375830895FB0192
:101A50004081518162817381FC014283538364839D
:101A600075830895E6E1F6E089E694E0918380834A
:101A700012821382148215820895FC018081918163
:101A80000C940B2ACF93DF93EC0188819981009706
:101A900011F00E940B2A198218821D821C821B825F
:101AA0001A82DF91CF9108950F931F93CF93DF9305
:101AB000EC018B016F5F7F4F888199810E94FF2A23
:101AC000009731F0998388831B830A8381E001C0EA
:101AD00080E0DF91CF911F910F910895CF93DF9315
:101AE000EC0188819981892B29F08A819B81861755
:101AF000970760F4CE010E94540D882341F08C8139
:101B00009D81892B19F4E881F981108281E0DF91B0
:101B1000CF910895EF92FF920F931F93CF93DF938E
:101B2000EC017B018A01BA010E946E0D811104C093
:101B3000CE010E94420D07C01D830C83B70188812E
:101B400099810E94EB2BCE01DF91CF911F910F91D4
:101B5000FF90EF900895FC0111821082138212828F
:101B6000158214826115710551F0FB01019000206E
:101B7000E9F73197AF01461B570B0C948A0D089576
:101B8000CF93DF93EC01FB018617970761F060812B
:101B900071816115710529F0448155810E948A0D7A
:101BA00002C00E94420DCE01DF91CF910895FC0149
:101BB0001182108213821282158214820C94C00D3D
:101BC000CF93DF93EC016115710559F0FB01019092
:101BD0000020E9F73197AF01461B570B0E948A0D91
:101BE00002C00E94420DCE01DF91CF9108950F9364
:101BF0001F93CF93DF93CDB7DEB729970FB6F89435
:101C0000DEBF0FBECDBF8C01862FF801118210827E
:101C1000138212821582148250E0BE016F5F7F4FE3
:101C200090E00E94082CBE016F5F7F4FC8010E94A8
:101C3000E00D29960FB6F894DEBF0FBECDBFDF9141
:101C4000CF911F910F9108950F931F93CF93DF931F
:101C5000CDB7DEB762970FB6F894DEBF0FBECDBF2B
:101C60008C01CB01F801118210821382128215823D
:101C7000148250E0BE016F5F7F4F0E94F22BBE01C5
:101C80006F5F7F4FC8010E94E00D62960FB6F89417
:101C9000DEBF0FBECDBFDF91CF911F910F91089591
:101CA0000F931F93CF93DF93CDB7DEB761970FB636
:101CB000F894DEBF0FBECDBF8C01CB01F8011182BD
:101CC0001082138212821582148250E0BE016F5F6F
:101CD0007F4F0E94082CBE016F5F7F4FC8010E949A
:101CE000E00D61960FB6F894DEBF0FBECDBFDF9159
:101CF000CF911F910F910895EF92FF920F931F9331
:101D0000CF93DF93FC01248135816115710511F4B6
:101D100080E019C041155105A9F07B01EC018A0151
:101D2000020F131FB8010E946E0D882389F32881CA
:101D300039818C819D81B701820F931F0E94EB2B0B
:101D40001D830C8381E0DF91CF911F910F91FF9054
:101D5000EF900895CF93DF93EC01FB01448155810F
:101D6000608171810E947C0E811103C0CE010E94AE
:101D7000420DCE01DF91CF910895CF93DF93EC0117
:101D80006115710561F0FB0101900020E9F73197C1
:101D9000AF01461B570B0E947C0E811103C0CE0180
:101DA0000E94420DCE01DF91CF910895FC01248164
:101DB0003581232B31F421E061157105A1F0FB0180
:101DC00008C0FC01808191816115710531F421E029
:101DD000FC018081882339F005C00E94E22B21E0BC
:101DE000892B09F020E0822F0895DC01ED91FC9110
:101DF0000190F081E02D0994089560E470E084EB97
:101E000096E00E94DB206EEF70E084EB96E00E948B
:101E1000F50E84EB96E00E945A216FE070E080E0BE
:101E200090E00C949F08CF93DF93EC0184EB96E055
:101E30000E94C720CE010E94FD0E60E470E084EB9A
:101E400096E00E94DB2067EE70E084EB96E00E9453
:101E5000F50E84EB96E00E945A2141E050E060E4E8
:101E600070E084EB96E00E94572184EB96E00E949C
:101E7000342021E0029709F020E0822FDF91CF91FA
:101E80000895CF93DF9360E470E084EB96E00E94C6
:101E9000DB2063EE70E084EB96E00E94F50E84EBAD
:101EA00096E00E945A2162E370E080E090E00E9498
:101EB0009F0843E050E060E470E084EB96E00E940D
:101EC000572184EB96E00E942C20892BD1F384EBE0
:101ED00096E00E943420D82F80E0C82F84EB96E053
:101EE0000E943420C82BD92B84EB96E00E9434202A
:101EF000BE0180E090E00E94422D22E538EB4FE2E7
:101F000053E40E94D02D20E030E040E857E30E94E7
:101F1000D02D26E636E64BE352E40E942D2CDF91CD
:101F2000CF910895CF93DF9360E470E084EB96E067
:101F30000E94DB2065EE70E084EB96E00E94F50ED7
:101F400084EB96E00E945A2162E370E080E090E02A
:101F50000E949F0843E050E060E470E084EB96E06C
:101F60000E94572184EB96E00E942C20892BD1F30C
:101F700084EB96E00E943420D82F80E0C82F84EBB9
:101F800096E00E943420C82BD92B84EB96E00E9467
:101F90003420BE0180E090E00E94422D20E030E03D
:101FA0004AEF52E40E94D02D20E030E040E857E3B1
:101FB0000E94D02D20E030E040EC50E40E942D2C17
:101FC000DF91CF91089508951F93CF93DF9300D0B1
:101FD000CDB7DEB7162FFC01608184EB96E04A8313
:101FE00059830E94D120612F84EB96E00E948820C3
:101FF0005981652F84EB96E00E9488204A81642FE6
:1020000084EB96E00E94882084EB96E00F900F907E
:10201000DF91CF911F910C945A211F93CF93DF939F
:10202000EC01162F688184EB96E00E94D120612F8D
:1020300084EB96E00E94882084EB96E00E945A216F
:1020400042E0688184EB96E00E94542184EB96E0A4
:102050000E943420D82F80E0C82F84EB96E00E94A5
:1020600034208C2B9D2BDF91CF911F910895CF931E
:10207000DF93EC01688384EB96E00E94C72066E062
:10208000CE010E940D108435910511F080E00EC044
:1020900067E0CE010E940D1081159440B9F740E031
:1020A00050E061E0CE010E94E40F81E0DF91CF912A
:1020B0000895CF93DF9365E00E940D10EC01BC0101
:1020C0007F7080E090E00E94422D20E030E040E808
:1020D0005DE30E94D02DD4FF06C020E030E040E850
:1020E00053E40E942D2CDF91CF9108958FEF9FEF45
:1020F00090931D0680931C0608951F920F920FB6B1
:102100000F9211240F900FBE0F901F901895A89555
:102110000895DA01F90160348FE178071CF4611544
:10212000710539F489E090E08D939C9380E49FE100
:1021300058C0603A8FE078073CF088E090E08D93DB
:102140009C9380EA9FE04DC0603D87E078073CF0BB
:1021500087E090E08D939C9380ED97E042C0683ECD
:1021600083E078073CF086E090E08D939C9388EEC6
:1021700093E037C0643F81E078073CF085E090E071
:102180008D939C9384EF91E02CC06A3F71053CF0E5
:1021900084E090E08D939C938AEF90E022C06837B2
:1021A00071053CF083E090E08D939C9388E790E08C
:1021B00018C06C3371053CF082E090E08D939C93E5
:1021C0008CE390E00EC06E3171053CF081E090E050
:1021D0008D939C938EE190E004C01D921C928FE041
:1021E00090E09183808308950F931F93CF93DF93A3
:1021F00000D0CDB7DEB78C019E012F5F3F4FAC0101
:102200000E948910F801808183FD02C098E001C01E
:1022100098E28770892B98E10FB6F894A89590936F
:1022200060000FBE8093600089819A810F900F90AB
:10223000DF91CF911F910F910895DC01ED91FC91F9
:10224000048CF58DE02D099429E634E0FC013183FE
:102250002083FB014089518962897389FC01428393
:102260005383648375830895FC0184899589089557
:10227000FC01818D928D0895CF93DF931F92CDB78E
:10228000DEB76983DC01ED91FC910280F381E02DE2
:1022900041E050E0BE016F5F7F4F09950F90DF91E5
:1022A000CF9108950895CF93DF93EC01888D84300A
:1022B00061F00E94D316E88DF0E0EE0FFF1FE456A8
:1022C000F94F1182108284E0888FDF91CF910895B9
:1022D000FC01178A168A6E5F7F4F808D0C9451180F
:1022E000FC01808D0C949718CF93DF93EC019A0139
:1022F0008E899F89AB01BC01888D0E940A182E89A6
:102300003F89280F391F3F8B2E8BDF91CF91089586
:102310000F931F93CF93DF931F92CDB7DEB7FC01CE
:10232000218D328D232B61F08C0141E050E0BE0104
:102330006F5F7F4F808D0E945017181619061CF092
:102340008FEF9FEF08C0F801818D928D0197928FDA
:10235000818F898190E00F90DF91CF911F910F9134
:102360000895CF93DF93FC01218D328D2115310526
:1023700019F48FEF9FEF11C0EC014217530708F0DB
:10238000A901888D0E9450171816190694F7298DF7
:102390003A8D281B390B3A8F298FDF91CF91089501
:1023A000CF93DF931F92CDB7DEB7FC01218D328D25
:1023B000232B49F0BE016F5F7F4F808D0E94DB179A
:1023C000898190E002C08FEF9FEF0F90DF91CF9156
:1023D0000895EF92FF921F93CF93DF93FC01208D1E
:1023E000243011F080E01CC07B01EC0110E0812F53
:1023F0000E94AB16811102C0188F05C08831E1F32D
:102400001F5F1430A1F7888D843061F3FD86EC8660
:102410001A8E198E20E0A70162E00E94FD1681E06D
:10242000DF91CF911F91FF90EF9008950F931F932D
:10243000CF93DF93CDB7DEB728970FB6F894DEBF02
:102440000FBECDBF8C01F801818D928D892B49F093
:10245000D801ED91FC910284F385E02DC801099526
:10246000F2CF808D0E94B0171816190654F548E077
:1024700050E0BE016F5F7F4FD80158968C910E944B
:1024800050179C0118161906D4F4BE016F5F7F4FD8
:10249000C8010E960E94270D8D8190E0982F882705
:1024A0002E81820F911DF801958B848B2F8130E056
:1024B000322F22278885280F311D328F218FC901A5
:1024C00002C080E090E028960FB6F894DEBF0FBE01
:1024D000CDBFDF91CF911F910F9108958F929F9261
:1024E000AF92BF92CF92DF92EF92FF920F931F9322
:1024F000CF93DF9300D000D000D0CDB7DEB7FC0182
:10250000208D243009F068C06A017B018C0153E002
:10251000852E54E0952EA12CB12CC4010E9451149B
:10252000811103C0F801A08E0AC08831D9F3FFEFF2
:10253000AF1ABF0A9394E4E0AE16B10471F7F80144
:10254000808D843009F448C096E0E6E1F1E0DE01D8
:10255000119601900D929A95E1F7F70193819F777B
:102560009C8394819D8395819E83B7016E5F7F4F8D
:1025700090E0982F882744E050E0845F9B4F0E94B2
:102580002214F801E08CF12CF4E0EF0EF11CFE2C8B
:10259000EE246D2DC70140960E948E136C2DC7014D
:1025A00041960E948E13F801808D90E0982F882725
:1025B00046E050E0BE016F5F7F4F8A5F9B4F0E94F5
:1025C0002214F801128E118E20E8A60162E0808D9F
:1025D0000E94FD1681E001C080E026960FB6F894B7
:1025E000DEBF0FBECDBFDF91CF911F910F91FF9046
:1025F000EF90DF90CF90BF90AF909F908F90089515
:10260000CF93DF93EC011B821A8288EE93E0A0E067
:10261000B0E08C839D83AE83BF838FE694E0998383
:102620008883CE010E960E94010D84E0888FDF9191
:10263000CF910895CF92DF92EF92FF920F931F9365
:10264000CF93DF93CDB7DEB7AF970FB6F894DEBF69
:102650000FBECDBF8C016B017A01CE0101960E94A5
:10266000010DCE0109960E940013CE018A960E94A8
:10267000010D66E376E0CE0184960E94181ABE0131
:102680006C5D7F4FCE0101960E943A1AAE01465D05
:102690005F4FB601CE0101960E94A91C81309105C1
:1026A000C1F4D801ED91FC910488F589E02D89E60B
:1026B00094E09DA38CA38CA59DA5AEA5BFA58EA3DC
:1026C0009FA3A8A7B9A7A701BE016C5D7F4FC80152
:1026D0000995AF960FB6F894DEBF0FBECDBFDF9160
:1026E000CF911F910F91FF90EF90DF90CF900895C1
:1026F0000F9300E020E040E060E08EE196E00E9471
:102700000B0D0F9108958EBD00000DB407FEFDCF97
:102710008EB508952A9808952A9A08951F93CF9305
:10272000DF9300D0CDB7DEB7182F6A8399830E945C
:102730008A1380EF0E9483139981892F0E9483134B
:10274000812F0E9483136A81862F0E9483130E9427
:102750008C1381E00F900F90DF91CF911F9108951E
:10276000CF93DF93EC016CE271E080E090E00E9497
:102770009F080E94371D229A8091B206882399F003
:102780002FB7F8948091B206813059F48DB38093BD
:10279000B0069DB38091B106809589238DBB2FBF74
:1027A00002C02093B00680E58CBD1DBC60E880E0CF
:1027B00090E00E948E1365E58BE190E00E948E13FD
:1027C00065E58AE190E00E948E138091B20688232D
:1027D00051F09FB7F8942091B2068091B006213055
:1027E00029F58DBB9FBF80E090E49983888380E0CA
:1027F00090E69987888780E098E49B838A8380E0CD
:1028000098E69B878A8780E090E59D838C8380E0B3
:1028100090E79D878C8780E098E59F838E8380E09A
:1028200098E79F878E87DF91CF9108958FBFDBCF89
:102830009B0190E00496982F8827642F820F931FA6
:102840000C948E13CF92DF92EF92FF920F931F930F
:10285000CF93DF93EC017A018B016C01C40ED51E7E
:10286000CC15DD05A1F00E948A1380EF0E9483132E
:102870008D2F0E9483138C2F0E9483132196F801C1
:1028800081918F010E9483130E948C13E9CFC701AD
:10289000DF91CF911F910F91FF90EF90DF90CF903C
:1028A00008951F93CF93DF931F92CDB7DEB7182FF4
:1028B00099830E948A138FE00E9483139981892F44
:1028C0000E948313812F0E94831380E00E94831350
:1028D00089830E948C1389810F90DF91CF911F9182
:1028E000089590E00496982F8827860F971F0C94E0
:1028F00051141F93CF93DF93182F60E270E00E9472
:102900007114C82FD0E061E270E0812F0E94711431
:10291000DC2FCC279E01282BC901DF91CF911F917D
:102920000895FF920F931F93CF93DF93F62EC0E08D
:10293000D0E08F2D0E9479148C01892B21F08F2DEE
:102940000E947914EC01C017D10799F7CE01DF91ED
:10295000CF911F910F91FF9008951F93CF93DF9315
:10296000182F66E270E00E947114C82FD0E067E271
:1029700070E0812F0E947114DC2FCC279E01282B40
:10298000C901DF91CF911F910895FF920F931F937B
:10299000CF93DF93F62EC0E0D0E08F2D0E94AD14D0
:1029A0008C01892B21F08F2D0E94AD14EC01C017F2
:1029B000D10799F7CE01DF91CF911F910F91FF9031
:1029C00008956F927F928F929F92AF92BF92CF9213
:1029D000DF92EF92FF920F931F93CF93DF931F929B
:1029E000CDB7DEB7882E962E6A01590164E270E0F9
:1029F000892D99830E947114E82EF12C65E270E014
:102A0000892D0E947114FE2CEE24E82A37016C0CEB
:102A10007D1CA3015770E82C9981F92EE90CF11C5B
:102A2000E90CF11CF70180819181840F951F9A01B7
:102A3000200F311F2130384098F060E078E06B01C2
:102A4000C41AD50AA601B5010E942214A8014C1986
:102A50005D09B5016C0D7D1DF7018081918102C07A
:102A6000A801B5010E942214060D171D412F64E232
:102A700070E0892D0E941814402F65E270E0892DC6
:102A80000F90DF91CF911F910F91FF90EF90DF900A
:102A9000CF90BF90AF909F908F907F906F900C944D
:102AA0001814CF92DF92EF92FF920F931F93CF9360
:102AB000DF93EC017A018B016C01C40ED51ECC159D
:102AC000DD05A9F00E948A138FE00E9483138D2FE9
:102AD0000E9483138C2F0E948313219680E00E9412
:102AE0008313F80181938F010E948C13E8CFC701F3
:102AF000DF91CF911F910F91FF90EF90DF90CF90DA
:102B00000895AF92BF92CF92DF92EF92FF920F9310
:102B10001F93CF93DF9300D0CDB7DEB75A8349839D
:102B2000590129813A8137706C01C60ED11CC60E3D
:102B3000D11CF60180859185820F931FA801420F59
:102B4000531F4130584098F0E0E0F8E07F01E21A6E
:102B5000F30AA701B5010E945115A8014E195F099A
:102B6000B5016E0D7F1DF6018085918502C0A8011B
:102B7000B5010F900F90DF91CF911F910F91FF90B2
:102B8000EF90DF90CF90BF90AF900C9451158F9243
:102B90009F92AF92BF92CF92DF92EF92FF920F93EC
:102BA0001F93CF93DF936C01962E5A017901802EEB
:102BB00068E270E0892D0E947114C82FD0E069E2AC
:102BC00070E0892D0E947114DC2FCC27C82B87015F
:102BD0009501AE01692DC6010E94811581101AC0B0
:102BE000CE0DDF1D4D2F68E270E0892D0E94181474
:102BF0004C2F69E270E0892DDF91CF911F910F91E9
:102C0000FF90EF90DF90CF90BF90AF909F908F900C
:102C10000C941814DF91CF911F910F91FF90EF90BA
:102C2000DF90CF90BF90AF909F908F900895CF93FB
:102C3000C62F61E070E08C2F0E94181461E070E0F4
:102C40008C2F0E9471148111F9CFCF9108950F93A9
:102C5000FC0130E080E092E1AAE7B0E048175907B4
:102C60006A077B0740F4B695A795979587953F5FD0
:102C70003630A1F737E091E09327222311F020E5C9
:102C800001C020E7892F86950C70082B022B00834A
:102C9000917091830F9108952091B206222399F0AB
:102CA0004FB7F8942091B206213059F42DB32093F8
:102CB000B0063DB32091B106209523232DBB4FBF15
:102CC00002C04093B0068CBD9DBD08958091B206B0
:102CD000882361F09FB7F8942091B2068091B006E6
:102CE000213019F48DBB9FBF08958FBF089590E0E8
:102CF000982F882744E050E0845F9B4F0C94221467
:102D000062E070E00C947114CF93DF93C82FD62F3C
:102D1000472F64E070E00E9418144D2F65E070E0CA
:102D20008C2FDF91CF910C941814462F62E070E045
:102D30000C941814CF93DF93C82FD62F472F60E140
:102D400070E00E9418144D2F61E170E08C2FDF912C
:102D5000CF910C9418140F931F93CF93DF9300D04F
:102D60001F92CDB7DEB7182F00E021E040E059E018
:102D70006DE370E0CE0101960E94271689819A8149
:102D80000E944C1663E070E0812F0E9471148B83C7
:102D90000E9466168B810F900F900F90DF91CF915C
:102DA0001F910F9108950F931F93CF93DF9300D03E
:102DB000CDB7DEB7182F00E021E040E059E06DE329
:102DC00070E0CE0101960E94271689819A810E94A7
:102DD0004C1640E150E0612F84E296E00E94171605
:102DE0006FEF812F0E9495160E9466160F900F902C
:102DF000DF91CF911F910F910895CF92DF92EF92C3
:102E0000FF920F931F93CF93DF9300D0CDB7DEB720
:102E10009FEF960F9530C0F5F22E6A01E62E182F1F
:102E20000E94D31600E021E040E059E06DE370E03D
:102E3000CE0101960E94271689819A810E944C1624
:102E40004E2D4F2960E070E0812F0E941814C114AC
:102E5000D10411F0B6010AC06091340670913506B4
:102E60006F5F7F4F7093350660933406812F0E9409
:102E7000841641E050E0612F84E296E00E9417162C
:102E80000E94661681E001C080E00F900F90DF91F4
:102E9000CF911F910F91FF90EF90DF90CF90089509
:102EA000AF92BF92CF92DF92EF92FF920F931F9358
:102EB000CF93DF9300D0CDB7DEB7182F5B016A0147
:102EC00000E021E040E059E06DE370E0CE010196C2
:102ED0000E94271689819A810E944C16612F84E2F4
:102EE00096E00E94C5147C010097A1F463E070E0B5
:102EF000812F0E947114843119F1882309F121E096
:102F000030E08C3111F420E030E0EE24FF24E21AAE
:102F1000F30A16C0C816D9060CF476011E141F0455
:102F20007CF400E09701A501612F84E296E00E9405
:102F3000C71540E450E0612F84E296E00E94171626
:102F40000E946616C7010F900F90DF91CF911F91DD
:102F50000F91FF90EF90DF90CF90BF90AF900895CA
:102F60000F931F93CF93DF9300D000D0CDB7DEB780
:102F7000182F00E021E040E059E06DE370E0CE0161
:102F800001960E94271689819A810E944C16612F12
:102F900084E296E00E94C5148B839C830E9466168F
:102FA0008B819C810F900F900F900F90DF91CF91AC
:102FB0001F910F910895EF92FF920F931F93CF935C
:102FC000DF9300D0CDB7DEB7182F7B0100E021E002
:102FD00040E059E06DE370E0CE0101960E942716B3
:102FE00089819A810E944C1601E021E030E0A7011E
:102FF000612F84E296E00E94C7150E94661681E068
:1030000090E00F900F90DF91CF911F910F91FF9063
:10301000EF9008958F929F92AF92BF92DF92EF92BE
:10302000FF920F931F93CF93DF9300D0CDB7DEB7FE
:10303000D82E5B014A01790100E021E040E059E02F
:103040006DE370E0CE0101960E94271689819A8176
:103050000E944C166D2D84E296E00E9491148E150C
:103060009F0530F46D2D84E296E00E9491147C015E
:1030700087019401A5016D2D84E296E00E94E11480
:103080000E946616C7010F900F90DF91CF911F919C
:103090000F91FF90EF90DF90BF90AF909F908F9037
:1030A0000895CF92DF92EF92FF920F931F93CF93E9
:1030B000DF9300D0CDB7DEB7FB019081911109C03D
:1030C0009181911106C09281911103C0938199233E
:1030D00009F141155105F1F06A017F01182F00E057
:1030E00021E040E059E06DE370E0CE0101960E94DE
:1030F000271689819A810E944C16B701812F0E9460
:103100007716B601812F0E949A160E94661681E0FA
:1031100090E002C080E090E00F900F90DF91CF919F
:103120001F910F91FF90EF90DF90CF9008950F9334
:103130001F93CF93DF9300D0CDB7DEB7182F00E0F9
:1031400021E040E059E06DE370E0CE0101960E947D
:10315000271689819A810E944C1640E250E0612F27
:1031600084E296E00E941716812F0E94801684FD4B
:1031700021C0812F0E94801683FF09C068E1812F42
:103180000E9495160E94661680E090E01BC00E9487
:1031900066160E94160900E021E040E059E06DE368
:1031A00070E0CE0101960E94271689819A810E94C3
:1031B0004C16DACF60E1812F0E9495160E946616A8
:1031C00081E090E00F900F90DF91CF911F910F91D0
:1031D000089544E050E0BC0181E090E00C9422149A
:1031E00044E050E0BC0185E090E00C94221444E0FF
:1031F00050E0BC018FE090E00C9422142F923F929B
:103200004F925F926F927F928F929F92AF92BF92F6
:10321000CF92DF92EF92FF920F931F93CF93DF93A2
:1032200000D000D000D0CDB7DEB76C011B01290162
:103230003A01470158018EE396E0F60197838683B1
:1032400084E296E00E94B01380E590E00E944C1664
:1032500046E050E0B10189E090E00E94221400E0D5
:1032600020E040E060E0CE0101960E940B0DCE010F
:1032700003960E94F7180E94661685017401A30147
:103280009201B101F601868197810E949A288C01F2
:103290000197B9F580E590E00E944C16F601668131
:1032A0007781CE0101960E94D423CE0103960E941D
:1032B000F718F60166817781CE0101960E94EA2314
:1032C000CE0103960E94E918F60166817781CE014E
:1032D00001960E94DF23CE0103960E94F0180E94FF
:1032E0006616F60166817781CE0101960E94F5236C
:1032F0008B819C81AD81BE81F60182839383A483FF
:10330000B583C80126960FB6F894DEBF0FBECDBFB9
:10331000DF91CF911F910F91FF90EF90DF90CF90B1
:10332000BF90AF909F908F907F906F905F904F90E5
:103330003F902F900895EF92FF920F931F93CF939A
:10334000DF9300D000D000D0CDB7DEB7FC012681DE
:1033500037812115310509F443C08C01C9010E9450
:10336000D9287C01029721F084E0E816F104D1F518
:1033700080E590E00E944C16F80166817781CE01CD
:1033800001960E94D423CE0103960E94F718F801FB
:1033900066817781CE0101960E94EA23CE010396D1
:1033A0000E94E918F80166817781CE0101960E949A
:1033B000DF23CE0103960E94F0180E946616F801E2
:1033C00066817781CE0101960E94F5238B819C81D5
:1033D000AD81BE81F80182839383A483B58302C04B
:1033E000E12CF12CC70126960FB6F894DEBF0FBE74
:1033F000CDBFDF91CF911F910F91FF90EF90089576
:10340000CF93DF93EC010E94010D80E590E00E94D4
:103410004C16BE016E5F7F4F44E050E08FE090E0BD
:103420000E9451150E946616CE01DF91CF9108953A
:1034300029E634E0FC0131832083FB014281538182
:1034400064817581FC01428353836483758308958D
:103450000F9300E020E040E060E084EA96E00E9404
:103460000B0D81E896E00E94001386E396E00F9131
:103470000C94010DFB014281538164817581FC0133
:103480004283538364837583178216820895CF9392
:10349000DF93FB0120E080E090E0AAE0319133234C
:1034A00001F160ED630F6A3080F4A89FB001A99F1D
:1034B000700D1124CB01C097830F911D37FD9A9594
:1034C0008F3F910559F350F313C03E3289F42330F6
:1034D00079F0EA01C20FD11D8A832F5F80E090E06E
:1034E000DDCF233029F4FA01858381E090E002C02A
:1034F00080E090E0DF91CF9108950F9300E020E00D
:1035000040E060E08AEA96E00E940B0D0F9108957A
:103510008F929F92AF92BF92CF92DF92EF92FF92E3
:103520000F931F93CF93DF9300D000D01F92CDB79E
:10353000DEB78C016B010E946E08F8017783668309
:103540007627672776277A836983085F1F4F42E0D3
:1035500050E0BE016F5F7F4FC8010E94741181E08F
:1035600090E09C838B8342E050E0BE016D5F7F4F13
:10357000C8010E94741180E091E09C838B8342E03B
:1035800050E0BE016D5F7F4FC8010E9474111C8224
:103590001B8242E050E0BE016D5F7F4FC8010E9478
:1035A000741142E050E0BE016D5F7F4FC8010E9480
:1035B000741142E050E0BE016D5F7F4FC8010E9470
:1035C00074115601F5018081882329F1C6017C011F
:1035D000FC0120810196211116C0570147018C186A
:1035E0009D081814190494F48D8241E050E0BE0146
:1035F0006B5F7F4FC8010E947411A401B601C8011E
:103600000E94741103C02E3211F7E7CF6701FFEF5C
:10361000CF1ADF0AD7CF1D8241E050E0BE016B5FB9
:103620007F4FC8010E947411E12CFF24F394FC82A7
:10363000EB8242E050E0BE016D5F7F4FC8010E9407
:103640007411FC82EB8242E050E0BE016D5F7F4F5F
:10365000C8010E94741181E090E00F900F900F90CC
:103660000F900F90DF91CF911F910F91FF90EF90EE
:10367000DF90CF90BF90AF909F908F9008954F9222
:103680005F926F927F928F929F92AF92BF92CF92F2
:10369000DF92EF92FF920F931F93CF93DF93CDB7FB
:1036A000DEB765970FB6F894DEBF0FBECDBF7C01C5
:1036B0005B016A010E946E082B013C018701085FD3
:1036C0001F4F4501A12CB12CC8010E9416121816DB
:1036D0001906A4F00E946E08DC01CB01841995093B
:1036E000A609B70988169906AA06BB06D0F062E3B8
:1036F00070E080E090E00E949F08E6CFF7014281F1
:10370000538164817581808D918DA28DB38D481711
:1037100059076A077B0741F4848D958DC59721F47D
:1037200006C02FEF3FEFFDC02EEF3FEFFAC0C801FC
:103730000E9438110C97ECF04CE050E0BE016F5F36
:103740007F4FC8010E94B1116C818B810E94C823F8
:103750009A8B898BF701E680F7806A8189810E94C4
:10376000C823E816F90641F489899A8997FF04C0AD
:1037700009C02DEF3FEFD5C0C8010E9452112CEFB8
:103780003FEFCFC08F709270892B31F0C8010E943B
:1037900052112BEF3FEFC5C068858F810E94C8236F
:1037A0005C01892B31F4C8010E9452112AEF3FEFCE
:1037B000B8C0E12CF12C6E818D810E94C823E816DF
:1037C000F90640F541E050E0BE01635F7F4FC8015C
:1037D0000E94B1118D85811113C08D858111F2CFA9
:1037E000C8010E948811C8010E948811C8010E9466
:1037F0008811C8010E948811FFEFEF1AFF0ADBCF82
:103800008D859FEF980F9D87882339F3C8010E940B
:103810008811F6CFE12CF12C41E050E0BE016D5E45
:103820007F4FC8010E94B1118B89982F907C61F461
:10383000882371F08B899FEF980F9B8B882341F031
:10384000C8010E948811F6CFC8010E9488111B8A06
:103850008B898111E1CF42E050E0BE01615F7F4F73
:10386000C8010E94B11142E050E0BE01635F7F4F8A
:10387000C8010E94B111C8010E948811C8010E94AC
:103880008811C8010E948811C8010E94881142E075
:1038900050E0BE016F5E7F4FC8010E94B1118F855D
:1038A00098898115914001F52D853E853227232782
:1038B000322721303105C1F489899A8981159440D4
:1038C00031F0C8010E94521127EF3FEF2AC0B60124
:1038D0006E5F7F4F44E050E0C8012C8B3D8B0E940F
:1038E000B1112C893D891DC0812C912C89899A891F
:1038F0009827892798278816990638F4C8010E94C6
:1039000088118FEF881A980AF1CFEFEFEE1AFE0AAE
:10391000EA14FB0409F080CFC8010E94521126EF7F
:103920003FEFC90165960FB6F894DEBF0FBECDBF5D
:10393000DF91CF911F910F91FF90EF90DF90CF908B
:10394000BF90AF909F908F907F906F905F904F90BF
:1039500008958F929F92AF92BF92CF92DF92EF9293
:10396000FF920F931F93CF93DF9300D000D000D02E
:10397000CDB7DEB77C014B015A010E94471A8C017A
:10398000892B09F05BC0F701428153816481758105
:103990008091AC069091AD06A091AE06B091AF06B5
:1039A000481759076A077B0709F44BC00E946E0845
:1039B0006701F8E0CF0ED11C6F7077277C5FC601DE
:1039C0000E94E911813009F03EC089E694E09A83B3
:1039D0008983F70182819381A481B5818B839C8344
:1039E000AD83BE8345E350E0BE016F5F7F4FC601EC
:1039F0000E946811892B19F400E010E01BC0B4018B
:103A0000C7010E94881A892BB9F3C6010E94701160
:103A1000892B91F383E0882E912CA50168E873E14E
:103A2000C7010E943F1B8C01F1E08F1A910811F031
:103A3000019699F3C6010E94531105C001E010E000
:103A400002C00EEF1FEFC80126960FB6F894DEBF36
:103A50000FBECDBFDF91CF911F910F91FF90EF90DF
:103A6000DF90CF90BF90AF909F908F900895CF93AD
:103A7000CFB7F8948091B306811127C0EAE9F0E04E
:103A80008491E6E8F0E09491E82FF0E0EE0FFF1F5C
:103A9000E255FF4FA591B491EC91E92321F461E047
:103AA0008AE00E947C0961E08AE00E9440098CB5AE
:103AB00080618CBD8CB580648CBD61E08DE00E941E
:103AC000400961E08BE00E9440098091B3068F5F5E
:103AD0008093B306CFBFCF910895FC011482158265
:103AE0001682178208951F93CF93DF931F92CDB74D
:103AF000DEB7162FFC01608184EB96E049830E94BB
:103B0000D120612F84EB96E00E9488204981642FA8
:103B100084EB96E00E94882084EB96E00F90DF9182
:103B2000CF911F910C945A211F93CF93DF9300D014
:103B3000CDB7DEB7162FFC01608184EB96E04A8397
:103B400059830E94D120612F84EB96E00E94882047
:103B50005981652F84EB96E00E9488204A81642F6A
:103B600084EB96E00E94882084EB96E00F900F9003
:103B7000DF91CF911F910C945A211F93CF93DF9324
:103B8000EC01162F688184EB96E00E94D120612F12
:103B900084EB96E00E94882084EB96E00E945A21F4
:103BA00041E0688184EB96E00E945421C8EED3E0A6
:103BB00084EB96E00E942C201816190634F020970A
:103BC00011F02197F5CF80E006C0CD2BE1F384EB17
:103BD00096E00E943420DF91CF911F9108950F93BA
:103BE000CF93DF93EC01637041704295407F2F705B
:103BF000422B6295660F607E462B6EE10E94731D1C
:103C0000002321F0083018F007E001C001E08FEF39
:103C1000800F61E070E002C0660F771F8A95E2F7BF
:103C2000072E000C880B990B0E94442D9B01AC01C0
:103C300060E074E284EF99E40E949A2C0E94132DB4
:103C40006C837D838E839F836FE1CE010E94BD1DB7
:103C50008F780295007F482F402B6FE1CE01DF91D6
:103C6000CF910F910C94731D1F93CF93DF93EC01B1
:103C7000162F688184EB96E00E94D120612F84EB9F
:103C800096E00E94882084EB96E00E945A2142E050
:103C9000688184EB96E00E945421C0EDD7E084EB6C
:103CA00096E00E942C2002973CF4209711F0219777
:103CB000F6CF80E090E011C0CD2BD9F384EB96E0F5
:103CC0000E943420C82F84EB96E00E94342020E02C
:103CD00030E03C2FA901482BCA01DF91CF911F9101
:103CE0000895CF92DF92EF92FF920F931F93CF939D
:103CF000DF938C01D62FF42E6EE00E94341E41E03B
:103D000050E09A0102C0220F331FDA95E2F7E90171
:103D10008095909582239323892B89F060E1C801D7
:103D20000E94341EFF2021F0AC014C2B5D2B05C0FE
:103D3000C095D095AC014C235D2360E125C066E0C1
:103D4000C8010E94341E6C0168E0C8010E94341E44
:103D50009E0120953095FF2061F07C01E222F32244
:103D6000A6014C2B5D2B66E0C8010E94941DA701A3
:103D70000AC0C82BD92BA6014223532366E0C801F1
:103D80000E94941DAE0168E0C801DF91CF911F91A0
:103D90000F91FF90EF90DF90CF900C94941D0C94B6
:103DA000711EFF920F931F93CF93DF938C01F62E1A
:103DB0006EE00E94341EC1E0D0E002C0CC0FDD1FD7
:103DC000FA94E2F78C239D23892B49F060E1C80126
:103DD0000E94341EC823D92381E0CD2B09F480E052
:103DE000DF91CF911F910F91FF9008950C94D11EF8
:103DF000CF92DF92EF92FF920F931F93CF93DF93B7
:103E00001F92CDB7DEB76C01162F60E029830E94A8
:103E1000341E41E050E0BA0102C0660F771F1A95C8
:103E2000E2F78B01AC01462B572B60E0C6010E94E4
:103E3000941D66E0C6010E94341E7801E094F0945F
:103E4000AC014E215F2166E0C6010E94941D6EE028
:103E5000C6010E94341EAC014E215F216EE0C601F6
:103E60000E94941D6EE1C6010E94BD1D8F7D482FEA
:103E700040646EE1C6010E94731D6FE1C6010E949D
:103E8000BD1D2981482F222311F0486801C04777C2
:103E9000F60184819581A681B781892B8A2B8B2B92
:103EA00049F480E894E8AEE1B0E084839583A6838A
:103EB000B78340616FE1C6010E94731D60E2C601D5
:103EC0000E94341EAC01402B512B60E2C6010E94BF
:103ED000941D60E1C6010E94341EAC014E215F2199
:103EE00060E1C6010F90DF91CF911F910F91FF907C
:103EF000EF90DF90CF900C94941D0F931F93CF936E
:103F0000DF93EC01162F042F6EE00E94341E9C01FB
:103F1000802F8D7F813059F041E050E0012E02C0AA
:103F2000440F551F0A94E2F7422B532B0DC0E1E0DA
:103F3000F0E0012E02C0EE0FFF1F0A94E2F7E095B9
:103F4000F095A9014E235F236EE0CE010E94941DDF
:103F5000023049F441E0612FCE01DF91CF911F91F2
:103F60000F910C94711E033051F420E041E0612F59
:103F7000CE01DF91CF911F910F910C94F81EDF912C
:103F8000CF911F910F9108950C947D1FCF93DF93D4
:103F9000EC016FE10E94BD1D82FF06C0482F4B7FE0
:103FA0006FE1CE010E94731D41E06B81CE010E9442
:103FB0007D1F40E06B81CE010E94711E61E070E0C8
:103FC00080E090E00E949F0841E06B81CE01DF918C
:103FD000CF910C94711ECF93DF93662321F0DF9174
:103FE000CF910C94C61FEC0142E16DE70E94731D56
:103FF00044E36DE7CE01DF91CF910C94731D0F93D5
:10400000CF93DF93EC0184EB96E00E94C7208B8175
:104010008F3F21F0CE010E94C61F04C060E0CE0198
:104020000E94EB1F63E1CE010E94341E81159F4F59
:1040300049F401E020E040E062E0CE010E94EF1D83
:1040400081E001C080E0DF91CF910F910895FC01E4
:10405000608343830C94FF1F8091E40690E02091DD
:10406000E506821B910908959091E5068091E4068A
:10407000981750F4E92FF0E0EA51F94F208130E031
:104080009F5F9093E50602C02FEF3FEFC9010895AF
:10409000E091E5068091E406E81730F4F0E0EA519B
:1040A000F94F808190E008958FEF9FEF0895089574
:1040B000CF92DF92EF92FF920F931F93CF93DF93F4
:1040C0007C01262F972F8A018091C006882391F0CA
:1040D000C62FD72F6E01C40ED51ECC15DD0571F08D
:1040E0006991D701ED91FC910190F081E02DC7011C
:1040F0000995F3CF642F822F0E941D22C801DF9102
:10410000CF911F910F91FF90EF90DF90CF90089586
:10411000CF93DF931F92CDB7DEB769832091C0069E
:104120002223D1F02091C106203240F021E030E07E
:10413000FC013383228380E090E015C08091C206A9
:10414000E82FF0E0ED53F94F998190838F5F8093D2
:10415000C2068093C10605C061E0CE0101960E94AF
:104160001D2281E090E00F90DF91CF910895FC0136
:104170001382128288EE93E0A0E0B0E084839583FE
:10418000A683B78387E994E0918380830895109292
:10419000E5061092E4061092C2061092C1060C9435
:1041A000612181E08093C0066093E3061092C2060D
:1041B0001092C10608950C94D1200F93062F21E090
:1041C0004091C10663EC76E08091E3060E94C7212E
:1041D0001092C2061092C1061092C0060F91089567
:1041E0004F925F926F927F92AF92BF92CF92EF9277
:1041F000FF920F931F93CF93DF935C01F62ED42F82
:1042000028013901EE2021F10E94D120CE2DC430A9
:1042100008F0C3E0C150C0F0D501ED91FC91B8E0C9
:10422000CB9FC0011124A301920104C0569547956C
:10423000379527958A95D2F7CA01B9010190F08187
:10424000E02DC5010995E6CF60E0C5010E94DD20A3
:104250004D2FD13208F040E22C2D66EE76E08F2D06
:104260000E947F211092E5068093E406DF91CF91B2
:104270001F910F91FF90EF90CF90BF90AF907F90E4
:104280006F905F904F900895CF92EF920F931F938E
:10429000C22EE12C00E010E098010E94F0201F9156
:1042A0000F91EF90CF90089521E00C94442121E0EC
:1042B0000C94442161E00C94DD2084EB96E00C9496
:1042C000B7201092730781E08093710710927007F6
:1042D00061E082E10E947C0961E083E10E947C0947
:1042E000E9EBF0E080818E7F808380818D7F808309
:1042F00088E48093B80085E48093BC00089541323F
:1043000008F043C0909173079111FCCF91E0909316
:104310007307209371072FEF2093060710924B0726
:10432000240F20934A079093720790917207880F89
:10433000892B8093720780917007813061F410920D
:104340007007809172078093BB008091BC0083FD51
:10435000F8CF85EC01C085EE8093BC008091730797
:104360008130E1F380914B07841710F440914B07A3
:104370002CE437E0FB01D9018A2F821B841718F443
:104380008D918193F9CF842F089580E008950F9344
:10439000413208F04AC0909173079111FCCF32E08E
:1043A00030937307009371073FEF30930607109225
:1043B0004B0740934A07FB016CE477E0DB013A2F9F
:1043C000361B341718F431913D93F9CF10927207D0
:1043D00030917207880F832B80937207809170074A
:1043E000813061F410927007809172078093BB0056
:1043F0008091BC0083FDF8CF85EC01C085EE8093F1
:10440000BC00222321F0809173078230D1F3809188
:1044100006078F3F79F080910607803241F0809146
:104420000607803331F094E005C091E003C092E0CC
:1044300001C093E0892F0F91089540912807262FFE
:1044400030E0240F311D21323105DCF42091730757
:104450002430C9F4FC0180E090E0861758F43091D4
:1044600028072191DC01A65DB84FA30FB11D2C9345
:104470000196F3CF80912807680F6093280780E0AA
:10448000089581E0089582E0089585ED8093BC0051
:104490008091BC0084FDFCCF10927307089585ECD9
:1044A0008093BC001092730708951F920F920FB66D
:1044B0000F9211242F933F934F935F936F937F93AA
:1044C0008F939F93AF93BF93EF93FF938091B90026
:1044D000887F803609F49EC078F5883209F45DC083
:1044E00090F4803109F456C038F4882309F4F5C0FB
:1044F000883009F44FC0F5C0883109F44EC08032CD
:1045000009F45FC0EEC0803409F46AC058F4803307
:1045100009F457C0883309F0E4C0809306070E946D
:104520004F22DFC0803509F44FC0883509F45DC0E3
:10453000883409F0D6C0D3C0883909F4C4C0A8F4BF
:10454000883709F467C038F4883609F463C08037C7
:1045500009F460C0C6C0883809F4B5C0803909F4D0
:104560005FC0803809F0BDC05BC0803B09F483C0E8
:1045700038F4803A09F466C0883A09F47CC0B1C0C6
:10458000803C09F4A4C0883C09F4A1C0883B09F42C
:1045900087C0A7C08091720710C090914B0780918F
:1045A0004A07981770F5E0914B0781E08E0F8093D2
:1045B0004B07F0E0E45BF84F80818093BB0085EC13
:1045C00083C0809306078BC0E0914B0781E08E0F7C
:1045D00080934B078091BB00F0E0E45BF84F808351
:1045E00090914B0780914A076BC0E0914B0781E0A7
:1045F0008E0F80934B078091BB00F0E0E45BF84F97
:1046000080838091710781116AC081E08093700777
:1046100084EA5EC083E08093730710920707CFCFD0
:1046200080910707803208F04EC0E091070781E0D3
:104630008E0F809307078091BB00F0E0E85FF84F92
:104640008083BDCF0E944F2280910707803230F4D3
:10465000E0910707F0E0E85FF84F108260910707EC
:1046600070E0E0916C07F0916D0788E097E00995A4
:104670001092070736C084E08093730710922907D1
:1046800010922807E0916E07F0916F0709958091CD
:104690002807811105C081E08093280710922A071E
:1046A000E091290781E08E0F80932907F0E0E65D15
:1046B000F84F80818093BB00909129078091280753
:1046C000981708F47CCF85E88093BC000AC085EC7D
:1046D0008093BC001092730704C0109206070E94DA
:1046E0004522FF91EF91BF91AF919F918F917F9163
:1046F0006F915F914F913F912F910F900FBE0F904F
:104700001F901895CF93DF9300D000D0CDB7DEB7C0
:10471000611571058105910579F09B01AC016983F3
:104720003A834B835C830E94F12A29813A814B8131
:104730005C810E946F2E03C060E070E0CB010F909F
:104740000F900F900F90DF91CF910895CF92DF924D
:10475000EF92FF920F931F936217730784079507D9
:1047600084F489019A016B017C01C901B8016C19BB
:104770007D098E099F090E9482236C0D7D1D8E1D6F
:104780009F1D1F910F91FF90EF90DF90CF900895A4
:1047900070E09B01382BC90108950E9624E1FC01BD
:1047A00011922A95E9F70895CF93DF93EC01625FA8
:1047B0007F4F0E94170DCE01DF91CF910895CF93C7
:1047C000DF93EC016E5E7F4F0E94170DCE01DF91EB
:1047D000CF910895CF93DF93EC016A5E7F4F0E94E3
:1047E000170DCE01DF91CF910895CF93DF93EC01A8
:1047F000625E7F4F0E94170DCE01DF91CF91089529
:1048000080E3FB0180833296842F82958F7090E144
:10481000899F401911244A3014F4405D01C0495C5D
:104820004293482F8111F0CF08950F9300E020E0CC
:1048300040E060E084E797E00E940B0D0F9108953F
:104840007F928F929F92AF92BF92CF92DF92EF9220
:10485000FF920F931F93CF93DF93CDB7DEB7AC9743
:104860000FB6F894DEBF0FBECDBF7C01762E942E1E
:10487000852E20E2B22ECE0101966C01FC012B2D7B
:1048800011922A95E9F70FEF2FEF4FEF6FEF869612
:104890000E940B0D89E694E09AA389A389A59AA5A5
:1048A000ABA5BCA58BA39CA3ADA3BEA387010D5B49
:1048B0001F4F43E450E0BE016F5D7F4FC8010E946F
:1048C0006811019609F4BFC081E089838A8386E07C
:1048D000A82EAB821C82F701648175818681978145
:1048E0000E948E2E6D837E838F83988789869A8619
:1048F00080E890E09C878B874CE150E0B601C801CE
:104900000E947411F6012B2D11922A95E9F74701A7
:1049100088E0880E911CF401D60101900D92AA94B2
:10492000E1F740E150E0B601C8010E947411F601C0
:104930001192BA94E9F796E0A92EB12C40E250E02A
:10494000B601C8010E947411F1E0AF1AB108B1F7C5
:1049500083E6898392E89A8393E59B838C8385E33E
:104960008D8381E08E837F829DE3988797E099878E
:104970008A8786E0F401DE011B9601900D928A95EC
:10498000E1F78CE0898B8A8B65EA74E0CE0143966F
:104990000E94EB2BF7014385BE01675E7F4FC70185
:1049A0000E940024F7014485BE01655E7F4FC70168
:1049B0000E940024F7014585BE01635E7F4FC70159
:1049C0000E9400244EE150E0B601C8010E9474111B
:1049D000F3E07F121EC082E3898384E08A83F701BB
:1049E00096859B8397859C8390899D8391899E83DF
:1049F00096E39F838887828D8987838D8A87848DBC
:104A00008B87858D8C874CE050E0B601C8010E94F1
:104A1000741187E3898386E08A8391E09B8393E026
:104A20009C838D838FE08E838AE38F838BE38887DB
:104A30008FEF898749E050E0B601C8010E947411E8
:104A4000C8010E947011AC960FB6F894DEBF0FBE7D
:104A5000CDBFDF91CF911F910F91FF90EF90DF902D
:104A6000CF90BF90AF909F908F907F9008952F929E
:104A70003F924F925F926F927F928F929F92AF92EE
:104A8000BF92DF92EF92FF920F931F93CF93DF932A
:104A9000CDB7DEB7E4970FB6F894DEBF0FBECDBF3B
:104AA0007C011A012B0139010E946E084B015C0147
:104AB00087010D5B1F4FC8010E94161218161906B8
:104AC000A4F00E946E08DC01CB0188199909AA099B
:104AD000BB09281639064A065B06F0F062E370E06F
:104AE00080E090E00E949F08E6CF42E250E0BE01E5
:104AF0006F5F7F4FC8010E94B1118981823031F40C
:104B0000F801848995898334910541F0D12CC8013D
:104B10000E9452118D2D5FC18FEF5DC16D817E812D
:104B20008F8198850E948E2E4B015C01F30160837A
:104B300071838283938346E050E0B701685F7F4FC3
:104B4000CE014D960E94CC2B892B99F4F7018081E0
:104B50009181A281B38188169906AA06BB0648F006
:104B600084819581A681B78188159905AA05BB0521
:104B700028F4C8010E94521180E02DC189899A89C8
:104B8000AB89BC89F70186879787A08BB18B8EECA8
:104B9000A82EB12CC8010E948811F1E0AF1AB1080B
:104BA000C9F7D12CC70182969AA789A7F701B696B3
:104BB000FCA7EBA708969EA78DA73C974F01899667
:104BC00098AB8FA73897FAABE9AB1701F6E12F0E38
:104BD000311CC5979CAB8BABC8010E9438111816CD
:104BE00019060CF094CFC8010E94881183339105F7
:104BF00009F4CBC0FCF481309105C9F11CF4892B78
:104C000059F3DDC083309105D1F1069709F0D7C083
:104C1000C8010E9488115C0144E050E06BA97CA9A6
:104C2000C8010E94B111412C512CBB24F4E0AF1AF1
:104C3000B10840C08A33910509F47BC03CF4853348
:104C4000910569F0C69709F440C0B9C08B3391054E
:104C500009F485C08F3F910509F4BECFB0C0C801EB
:104C60000E948811C8010E948811D82EB5CFC801B2
:104C70000E94881144E050E069A97AA93AC0C801AD
:104C80000E9488115C0144E050E0B101C8010E941B
:104C9000B111412C512CBB2494E0A91AB1084A143B
:104CA0005B040CF099CFC8010E948811EFEF4E1AF7
:104CB0005E0AF5CF4A145B040CF08ECFC8010E9447
:104CC00088118FEF481A580AF5CFC8010E94881141
:104CD000B82EF701828D811110C0838D81110DC016
:104CE000848D81110AC0858D811107C044E050E098
:104CF000B401C8010E94B1116FCFEFA5F8A940809F
:104D0000518062807380B401CE0183960E94170D9A
:104D10008DA19EA1AFA1B8A584159505A605B705DF
:104D200029F3BB2009F458CFC8010E948811BA9416
:104D3000F8CFC8010E94881144E050E06BA57CA523
:104D4000C8010E94B111F70166A177A180A591A5C4
:104D50000E948E2E66A377A380A791A73DCFC8019E
:104D60000E94881144E050E06DA57EA5C8010E9414
:104D7000B111F70162A573A584A595A50E948E2E99
:104D800062A773A784A795A727CFC8010E9488119F
:104D900044E050E069A57AA5C8010E94B111F7016D
:104DA00062A173A184A195A10E948E2E62A373A318
:104DB00084A395A366A777A780AB91AB0DCFC8015D
:104DC0000E948811B82EBB2009F406CFC8010E94AA
:104DD0008811BA94F8CFE4960FB6F894DEBF0FBEF0
:104DE000CDBFDF91CF911F910F91FF90EF90DF909A
:104DF000BF90AF909F908F907F906F905F904F90FB
:104E00003F902F9008952F923F924F925F926F9212
:104E10007F928F929F92AF92BF92CF92DF92EF924A
:104E2000FF920F931F93CF93DF93CDB7DEB72797F2
:104E30000FB6F894DEBF0FBECDBF8C0120ED37E07A
:104E400040E050E061E070E080E090E00E94A62346
:104E5000D80114966D937D938D939C931797F801C9
:104E600060837183828393835801F3E4AF0EB11C96
:104E7000C5010E94531164E470E0C5010E94E9116C
:104E8000882309F43CC10E946E082B013C01812C4F
:104E9000912C1D82C8018E5B9F4F9F838E8343E0C0
:104EA000342E58EEC52E53E0D52EE12CF12C62E0C5
:104EB000262EAE81BF818C91833009F407C1811108
:104EC00020C0F80184819581A681B7810196A11D3A
:104ED000B11D84839583A683B7830E946E086419ED
:104EE000750986099709A70196010E944D2EA9010F
:104EF00061E0C8010E94202481E0AE81BF818C93D3
:104F0000C6C08430F9F4F80184819581A681B78107
:104F10000196A11DB11D84839583A683B7830E944A
:104F20006E086419750986099709A70196010E9400
:104F30004D2EA90163E0C8010E942024AE81BF81EB
:104F40002C92A5C0813061F5F80142AD53AD64AD3E
:104F500075AD9E012F5F3F4FC8010E9437258D839D
:104F6000823009F094C089819A81AB81BC81F801BB
:104F700084839583A683B7830E946E08641975099C
:104F800086099709A70196010E944D2EA90163E0A9
:104F9000C8010E942024ED81AE81BF81EC937EC0C8
:104FA000823009F074C0D801DA964D915D916D910F
:104FB0007C91DD979E012F5F3F4FC8010E943725EE
:104FC0008D83853009F05CC0EE81FF813082F8016D
:104FD00082A193A1A4A1B5A1892B8A2B8B2B41F48B
:104FE00084E893E0A0E0B0E082A393A3A4A3B5A3D8
:104FF000F80186A197A1A0A5B1A5892B8A2B8B2B9F
:1050000061F482A193A1A4A1B5A1B695A7959795A6
:10501000879586A397A3A0A7B1A7F80182A593A51A
:10502000A4A5B5A5892B8A2B8B2BA9F482A193A1CA
:10503000A4A1B5A1AC01BD0123E076956795579574
:1050400047952A95D1F7841B950BA60BB70B82A722
:1050500093A7A4A7B5A7F80186A197A1A0A5B1A57C
:1050600086A797A7A0ABB1AB82A593A5A4A5B5A52C
:1050700082AB93ABA4ABB5AB88248394912C0EC0C8
:10508000FD81F63021F4AE81BF811C9207C0BD8145
:10509000BF3F21F4EE81FF8110821D82F1E08F1667
:1050A000910409F406CF0E946E08DC01CB0184193B
:1050B0009509A609B709F80126A937A940AD51AD50
:1050C000281739074A075B0708F0F3CEC5010E948D
:1050D0005311F80184819581A681B7810196A11DA4
:1050E000B11D84839583A683B7830E946E08F8015F
:1050F000FE966083718382839383C40102C080E043
:1051000090E027960FB6F894DEBF0FBECDBFDF91BB
:10511000CF911F910F91FF90EF90DF90CF90BF90B4
:10512000AF909F908F907F906F905F904F903F9047
:105130002F900895CF92DF92EF92FF920F931F93DB
:10514000CF93DF93EC016B011AA21BA21CA21DA23C
:105150001EA21FA218A619A61AA61BA61CA61DA64B
:105160002EAB3FAB48AF59AFEAAEFBAE0CAF1DAFB5
:105170008C01085F1F4F86E0F80111928A95E9F7CC
:10518000CE010E94CD2386E0F601D80101900D9258
:105190008A95E1F7FE01EE5BFF4F1082CE01DF91B1
:1051A000CF911F910F91FF90EF90DF90CF900C94D3
:1051B0000327CF92DF92EF92FF920F931F93CF932B
:1051C000DF93EC010E946E086B017C018E01025C92
:1051D0001F4FF80180819181A281B381A7019601BF
:1051E000281B390B4A0B5B0BCA01B901683E33E03F
:1051F00073078105910508F441C028EE33E040E0D3
:1052000050E00E944D2EC61AD70AE80AF90AF801A2
:10521000C082D182E282F3828EA59FA5A8A9B9A9F6
:1052200069017A01CC0CDD1CEE1CFF1C8C159D0560
:10523000AE05BF0528F41EA61FA618AA19AA08C005
:10524000821B930BA40BB50B8EA79FA7A8ABB9AB82
:105250008AA99BA9ACA9BDA98C159D05AE05BF0562
:1052600028F41AAA1BAA1CAA1DAA08C0821B930B09
:10527000A40BB50B8AAB9BABACABBDAB8EA59FA50E
:10528000A8A9B9A9892B8A2B8B2B69F4FE01EE5BA7
:10529000FF4F8081833039F484E08083CE010E9407
:1052A0000327019602C080E090E04AA95BA96CA99F
:1052B0007DA9452B462B472B81F4FE01EE5BFF4F6A
:1052C0002081233011F0211108C01082CE010E94EC
:1052D000CD23CE010E9403270396DF91CF911F912A
:1052E0000F91FF90EF90DF90CF900895CF93DF93D1
:1052F0008230910510F482E090E0E0917C07F0911B
:105300007D0720E030E0C0E0D0E0309711F140812F
:10531000518148175907C0F04817590761F4828135
:105320009381209719F09B838A832BC090937D07EC
:1053300080937C0726C02115310519F042175307C9
:1053400018F49A01BE01DF01EF010280F381E02D24
:10535000DCCF2115310509F1281B390B243031052B
:1053600090F412968D919C9113976115710521F01F
:10537000FB019383828304C090937D0780937C0715
:10538000FD01329644C0FD01E20FF31F819391931A
:10539000225031092D933C933AC020917A073091E5
:1053A0007B07232B41F420910201309103013093BC
:1053B0007B0720937A07209100013091010121158C
:1053C000310541F42DB73EB74091040150910501DC
:1053D000241B350BE0917A07F0917B07E217F30766
:1053E000A0F42E1B3F0B2817390778F0AC014E5F55
:1053F0005F4F2417350748F04E0F5F1F50937B0710
:1054000040937A078193919302C0E0E0F0E0CF01EE
:10541000DF91CF9108950F931F93CF93DF93009760
:1054200009F48CC0FC0132971382128200917C0730
:1054300010917D070115110581F420813181820FC2
:10544000931F20917A0730917B072817390779F548
:10545000F0937B07E0937A0771C0D80140E050E0F9
:10546000AE17BF0750F412962D913C911397AD01E2
:105470002115310509F1D901F3CF9D01DA013383FB
:10548000228360817181860F971F8217930769F4C9
:10549000EC0128813981260F371F2E5F3F4F318362
:1054A00020838A819B8193838283452B29F4F09307
:1054B0007D07E0937C0742C01396FC93EE9312970E
:1054C000ED01499159919E01240F351FE217F30711
:1054D00071F480819181840F951F029611969C939F
:1054E0008E938281938113969C938E931297E0E022
:1054F000F0E0D80112968D919C911397009719F0C6
:10550000F8018C01F6CF8D919C9198012E5F3F4F51
:10551000820F931F20917A0730917B072817390754
:1055200069F4309729F410927D0710927C0702C02D
:105530001382128210937B0700937A07DF91CF9139
:105540001F910F9108958F929F92AF92BF92CF9229
:10555000DF92EF92FF92CF93DF93EC016881798124
:105560008A819B81611571058105910521F464E2B1
:1055700079ED8BE597E02DE133EF41E050E00E94BB
:105580006F2E49015A019B01AC01A7EAB1E40E94C8
:10559000952E6B017C01ACEEB4EFA50194010E9445
:1055A000A32EDC01CB018C0D9D1DAE1DBF1DB7FFD1
:1055B00003C00197A109B04888839983AA83BB835C
:1055C000BC01CD019F77DF91CF91FF90EF90DF90ED
:1055D000CF90BF90AF909F908F9008950E94A32A84
:1055E000089586E091E00E94A32A08956093060141
:1055F0007093070180930801909309010895A0E03A
:10560000B0E0E5E0FBE20C94AC2EEC01009721F455
:10561000CB010E947629B8C0FC01E60FF71F9C0160
:1056200022503109E217F30708F4ACC0D9010D91FB
:105630001C91119706171707B0F00530110508F4F3
:105640009FC0C80104978617970708F499C00250B5
:105650001109061B170B019311936D937C93CF01D6
:105660000E940B2A8DC05B01A01AB10A4C01800E6A
:10567000911EA0917C07B0917D0740E050E0E12CA5
:10568000F12C109709F44AC0A815B905D1F56D9011
:105690007C901197630182E0C80ED11CCA14DB0410
:1056A00080F1A3014A195B096A0182E0C80ED11C8E
:1056B0001296BC9012971396AC91B5E0CB16D1041C
:1056C00040F0B282A38351834083D9016D937C93D0
:1056D0000AC00E5F1F4FC301800F911FF901918314
:1056E0008083EB2DFA2FE114F10431F0D7011396EA
:1056F000FC93EE93129744C0F0937D07E0937C07F0
:105700003FC08D919C9111974817590708F4AC013F
:105710007D0112960D90BC91A02DB3CF80917A0798
:1057200090917B0788159905E1F446175707C8F44F
:105730008091000190910101009741F48DB79EB7CF
:105740004091040150910501841B950BE817F9075E
:10575000C8F4F0937B07E0937A07F90171836083C3
:105760000FC0CB010E9476297C01009759F0A80157
:10577000BE010E94D92BCE010E940B2AC70104C092
:10578000CE0102C080E090E0CDB7DEB7EEE00C9431
:10579000C82EF8940C940A2FFB01DC0104C08D91F3
:1057A0000190801921F441505040C8F7881B990B93
:1057B0000895FB01DC0102C001900D924150504060
:1057C000D8F70895FB01DC018D910190801901103B
:1057D000D9F3990B0895FB01DC0101900D92002093
:1057E000E1F708954532510520F4423010F00C9451
:1057F000FD2BFB011082CB010895BB274A3031F409
:10580000992322F4BDE2909581959F4F0C94142C1E
:105810004532510520F4423010F00C94132CFB015A
:105820001082CB010895BB27FB015527AA27880FBB
:10583000991FAA1FA41710F0A41B83955051B9F704
:10584000A05DAA3308F0A95DA193009779F7B11183
:10585000B1931192CB010C943D2E5058BB27AA272F
:105860000E94452C0C94962D0E94882D38F00E94A1
:105870008F2D20F039F49F3F19F426F40C94852DD8
:105880000EF4E095E7FB0C947F2DE92F0E94A72DE5
:1058900058F3BA17620773078407950720F079F465
:1058A000A6F50C94C92D0EF4E0950B2EBA2FA02D61
:1058B0000B01B90190010C01CA01A0011124FF27BD
:1058C000591B99F0593F50F4503E68F11A16F040B8
:1058D000A22F232F342F4427585FF3CF46953795B7
:1058E0002795A795F0405395C9F77EF41F16BA0B7C
:1058F000620B730B840BBAF09150A1F0FF0FBB1F2A
:10590000661F771F881FC2F70EC0BA0F621F731F72
:10591000841F48F4879577956795B795F7959E3FCF
:1059200008F0B0CF9395880F08F09927EE0F979560
:10593000879508950E94AE2C0C94962D0E948F2D71
:1059400058F00E94882D40F029F45F3F29F00C9414
:105950007F2D51110C94CA2D0C94852D0E94A72DDA
:1059600068F39923B1F3552391F3951B550BBB278E
:10597000AA2762177307840738F09F5F5F4F220FD3
:10598000331F441FAA1FA9F335D00E2E3AF0E0E8CA
:1059900032D091505040E695001CCAF72BD0FE2F14
:1059A00029D0660F771F881FBB1F261737074807A8
:1059B000AB07B0E809F0BB0B802DBF01FF27935860
:1059C0005F4F3AF09E3F510578F00C947F2D0C9478
:1059D000CA2D5F3FE4F3983ED4F38695779567959B
:1059E000B795F7959F5FC9F7880F911D9695879595
:1059F00097F90895E1E0660F771F881FBB1F6217B4
:105A000073078407BA0720F0621B730B840BBA0B71
:105A1000EE1F88F7E09508950E94132D6894B11148
:105A20000C94CA2D08950E94AF2D88F09F5798F0CE
:105A3000B92F9927B751B0F0E1F0660F771F881F93
:105A4000991F1AF0BA95C9F714C0B13091F00E94AD
:105A5000C92DB1E008950C94C92D672F782F8827A0
:105A6000B85F39F0B93FCCF3869577956795B395D4
:105A7000D9F73EF490958095709561957F4F8F4F43
:105A80009F4F0895E89409C097FB3EF49095809548
:105A9000709561957F4F8F4F9F4F9923A9F0F92FF4
:105AA00096E9BB279395F695879577956795B79572
:105AB000F111F8CFFAF4BB0F11F460FF1BC06F5F58
:105AC0007F4F8F4F9F4F16C0882311F096E911C06A
:105AD000772321F09EE8872F762F05C0662371F08B
