:100000000C9465000C948D000C948D000C948D0064
:100010000C948D000C948D000C942A0B0C948D0084
:100020000C948D000C948D000C948D000C948D001C
:100030000C948D000C948D000C948D000C948D000C
:100040000C944B050C948D000C94BA070C94EC079F
:100050000C948D000C948D000C948D000C948D00EC
:100060000C948D000C948D0000000008000201002B
:100070000003040700000000000000000102040863
:100080001020408001020408102001020408102002
:10009000040404040404040402020202020203032E
:1000A0000303030300000000250028002B000000CC
:1000B0000000240027002A008F001C08CC08230B16
:1000C000250ED5142A15AD18D90011241FBECFEF67
:1000D000D8E0DEBFCDBF13E0A0E0B1E0E0EDF5E495
:1000E00002C005900D92A23AB107D9F725E0A2EA25
:1000F000B3E001C01D92A53AB207E1F710E0C4E6F3
:10010000D0E004C02197FE010E94BE22CC35D10769
:10011000C9F70E944A080C9461200C9400000F93C8
:1001200000E020E040E060E081E594E00E94A50866
:1001300001E021E041E06AE08BE494E00E94A50840
:1001400080E394E00E94AD0D85E194E00E94AD0D46
:100150008AEF93E00E94AD0D6DE473E084ED93E0CF
:100160000E944509E2EAF3E01482158216821782A2
:1001700080E090E0A6ECB2EC80879187A287B387FD
:1001800084879587A687B787808B918BA28BB38B4B
:10019000848B958BA68BB78B808F918FA28FB38F1B
:1001A000148E158E168E178E10A211A212A20F9108
:1001B000089584ED93E00C94D7080F931F93CF9389
:1001C000DF9300D000D000D0CDB7DEB78C014091D6
:1001D0000A0150910B018EE593E09A838983809107
:1001E0004D0490914E04A0914F04B09150048B8324
:1001F0009C83AD83BE83BE016F5F7F4F8AEF93E028
:100200000E94150CB8018AEF93E00E9416078AEF4E
:1002100093E00E941D0C88E1EAEDF3E0DF011D92FE
:100220008A95E9F726960FB6F894DEBF0FBECDBFCC
:10023000DF91CF911F910F9108958F929F92AF926E
:10024000BF92CF92DF92EF92FF920F931F93CF93C3
:10025000DF9300D000D000D0CDB7DEB760E47FE1FF
:1002600083E095E00E94A10B0E9495054B015C0183
:100270000E9495050E948E216093CE037093CF0358
:100280008093D0039093D10326E040E051EE60E0EC
:1002900070E080E694E00E94BE0A66E171E080E6CC
:1002A00094E00E94390760E082E00E94A30661E0CA
:1002B00082E00E94670660E082E00E94A30660E0A0
:1002C00088E00E94A30661E088E00E94670660E083
:1002D00088E00E94A30660E089E00E94A30661E036
:1002E00089E00E94670660E089E00E94A30661E061
:1002F00083E00E94A30661E083E00E94670661E05C
:1003000083E00E94A30661E085E00E94A30661E00D
:1003100085E00E94670661E085E00E94A30661E037
:1003200086E00E94A30661E086E00E94670661E025
:1003300086E00E94A30661E087E00E94A30661E0D8
:1003400087E00E94670661E087E00E94A30661E003
:1003500084E00E94A30661E084E00E94670661E0F9
:1003600084E00E94A30694EFE92E93E0F92E670142
:100370000091D2031091D303C8010E94D322D60169
:100380008D936D010F5F1F4F1093D3030093D20322
:10039000BAEFCB16B3E0DB0659F7E7ECF3E0D70191
:1003A0008D917D018193BAEFEB16B3E0FB06B9F7AF
:1003B00010EAE12E1FE0F12E00E010E020E63AEE18
:1003C00040E050E064EF73E08DE195E00E94AB13F4
:1003D000892B61F466E271E080E694E00E943907BF
:1003E00060E177E280E090E00E94C60564E671E09B
:1003F00080E694E00E9439076DE175E0CE01019638
:100400000E94AD14BE016F5F7F4F80E694E00E94B2
:100410004B0760910E0170910F0180E394E00E9400
:10042000960C60910C0170910D0185E194E00E94A1
:10043000960C60910A0170910B018AEF93E00E9483
:10044000960C6CED75E080E090E00E94C60563E7D5
:1004500071E0CE0101960E944509CE0101960E94ED
:10046000DD00CE0101960E94D70864E871E0CE015C
:1004700001960E944509CE0101960E94DD00CE0141
:1004800001960E94D7084AE06091FA03CE010196D6
:100490000E947109CE0101960E94DD00CE010196F5
:1004A0000E94D70865EA71E0CE0101960E944509D5
:1004B000CE0101960E94DD00CE0101960E94D70870
:1004C0004AE06091F403CE0101960E947109CE01C9
:1004D00001960E94DD00CE0101960E94D7084AE0F5
:1004E0006091F503CE0101960E947109CE0101963B
:1004F0000E94DD00CE0101960E94D7084AE060917B
:10050000F603CE0101960E947109CE0101960E9468
:10051000DD00CE0101960E94D7084AE06091F70302
:10052000CE0101960E947109CE0101960E94DD0064
:10053000CE0101960E94D7084AE06091F803CE01EF
:1005400001960E947109CE0101960E94DD00CE0144
:1005500001960E94D7084AE06091F903CE01019606
:100560000E947109CE0101960E94DD00CE01019624
:100570000E94D7080E9495056B017C0168EB71E031
:10058000CE0101960E944509CE0101960E94DD0030
:10059000CE0101960E94D708B601681979094AE090
:1005A000CE0101960E949E09CE0101960E94DD00B7
:1005B000CE0101960E94D70826960FB6F894DEBFAA
:1005C0000FBECDBFDF91CF911F910F91FF90EF90A4
:1005D000DF90CF90BF90AF909F908F900895CF9372
:1005E000DF9300D000D000D0CDB7DEB76EEC71E065
:1005F00080E694E00E9439076EEC71E0CE0101962E
:100600000E944509CE0101960E94DD00CE010196AF
:100610000E94D70864EF71E080E090E00E94C60578
:1006200060E084E00E94A30626960FB6F894DEBF31
:100630000FBECDBFDF91CF910895CF93DF93CDB79C
:10064000DEB72C970FB6F894DEBF0FBECDBF48E1E2
:1006500050E06AED73E080E394E00E945E0C6AED86
:1006600073E0CE0107960E94450965EE71E0CE0168
:1006700007960E94CA098823C9F06AEE71E080E6F5
:1006800094E00E9439076AEE71E0CE0101960E9463
:100690004509CE0101960E94DD00CE0101960E941F
:1006A000D70883E095E00E94340B18C16BEF71E02E
:1006B000CE0107960E94CA09882341F061E082E0DA
:1006C0000E94A30681E08093BE0308C168E072E047
:1006D000CE0107960E94CA09882339F060E082E0C3
:1006E0000E94A3061092BE03F9C066E172E0CE013B
:1006F00007960E94CA09882371F062E272E080E6E0
:1007000094E00E94390760E083E00E94A30681E044
:100710008093C103E3C06EE272E0CE0107960E94AF
:10072000CA09882369F06BE372E080E694E00E94D6
:10073000390761E083E00E94A3061092C103CEC096
:1007400068E472E0CE0107960E94CA09882371F01E
:1007500064E572E080E694E00E94390760E085E09D
:100760000E94A30681E08093C203B8C060E672E0F5
:10077000CE0107960E94CA09882369F06DE672E0EF
:1007800080E694E00E94390761E085E00E94A306BC
:100790001092C203A3C06AE772E0CE0107960E94DE
:1007A000CA09882371F066E872E080E694E00E944E
:1007B000390760E086E00E94A30681E08093C303CE
:1007C0008DC062E972E0CE0107960E94CA098823B3
:1007D00069F06FE972E080E694E00E94390761E019
:1007E00086E00E94A3061092C30378C06CEA72E010
:1007F000CE0107960E94CA09882371F068EB72E067
:1008000080E694E00E94390760E087E00E94A3063A
:1008100081E08093C40362C064EC72E0CE0107966D
:100820000E94CA09882369F061ED72E080E694E0D5
:100830000E94390761E087E00E94A3061092C4037A
:100840004DC06EED72E0CE0107960E94CA09882362
:1008500041F061E088E00E94A30681E08093BF033D
:100860003DC065EE72E0CE0107960E94CA0988235A
:1008700039F060E088E00E94A3061092BF032EC00A
:100880006DEE72E0CE0107960E94CA09882371F0CE
:1008900064EF72E080E694E00E94390761E089E04D
:1008A0000E94A30681E08093C00318C06BEF72E042
:1008B000CE0107960E94CA09882339F060E089E0DA
:1008C0000E94A3061092C00309C063E073E0CE014A
:1008D00007960E94CA0981110E94EF02CE01079675
:1008E0000E94D7082C960FB6F894DEBF0FBECDBF7E
:1008F000DF91CF9108958F929F92AF92BF92CF9246
:10090000DF92EF92FF92CF93DF9300D000D000D020
:10091000CDB7DEB70E9495054B015C0169E073E03D
:10092000CE0101960E944509CE0101960E94DD008C
:10093000CE0101960E94D7080E9495050E948E2143
:100940002091CE033091CF034091D0035091D10339
:100950000E94AF2020E030E04AE754E40E941C21CE
:100960006093A6037093A7038093A8039093A903B1
:1009700040910C0150910D018EE593E09A8389839B
:1009800080914D0490914E04A0914F04B091500479
:100990008B839C83AD83BE83BE016F5F7F4F85E1F8
:1009A00094E00E94150C4CE250E062EA73E085E1AD
:1009B00094E00E94210C85E194E00E941D0C69E204
:1009C00073E080E694E00E94390769E273E0CE01AB
:1009D00001960E944509CE0101960E94DD00CE01DC
:1009E00001960E94D70888E1EAEDF3E0DF011D924D
:1009F0008A95E9F780E394E00E94C30C9093F30397
:100A00008093F2031816190614F40E941D0388E15E
:100A1000EAEDF3E0DF011D928A95E9F78DE195E0BB
:100A20000E9448140E9495056B017C016CE373E001
:100A3000CE0101960E944509CE0101960E94DD007B
:100A4000CE0101960E94D708B601681979094AE0DB
:100A5000CE0101960E949E09CE0101960E94DD0002
:100A6000CE0101960E94D70860ED77E080E090E02B
:100A70000E94C60526960FB6F894DEBF0FBECDBF06
:100A8000DF91CF91FF90EF90DF90CF90BF90AF902C
:100A90009F908F9008951F920F920FB60F9211247E
:100AA0002F933F938F939F93AF93BF93809158045D
:100AB00090915904A0915A04B0915B04309157046D
:100AC00023E0230F2D3720F40196A11DB11D05C091
:100AD00026E8230F0296A11DB11D20935704809391
:100AE000580490935904A0935A04B0935B048091E6
:100AF0005C0490915D04A0915E04B0915F04019646
:100B0000A11DB11D80935C0490935D04A0935E04CD
:100B1000B0935F04BF91AF919F918F913F912F91BF
:100B20000F900FBE0F901F9018952FB7F8946091FB
:100B300058047091590480915A0490915B042FBF1E
:100B400008953FB7F89480915C0490915D04A09162
:100B50005E04B0915F0426B5A89B05C02F3F19F035
:100B60000196A11DB11D3FBFBA2FA92F982F88272D
:100B7000820F911DA11DB11DBC01CD0142E0660F88
:100B8000771F881F991F4A95D1F708958F929F92DA
:100B9000AF92BF92CF92DF92EF92FF926B017C01F6
:100BA0000E94A1054B015C01C114D104E104F104D0
:100BB00001F10E943D060E94A105DC01CB018819CC
:100BC0009909AA09BB09883E9340A105B10560F3C4
:100BD00021E0C21AD108E108F10888EE880E83E00E
:100BE000981EA11CB11CC114D104E104F10419F731
:100BF000DBCFFF90EF90DF90CF90BF90AF909F90B2
:100C00008F900895789484B5826084BD84B58160A6
:100C100084BD85B5826085BD85B5816085BDEEE604
:100C2000F0E0808181608083E1E8F0E010828081E3
:100C300082608083808181608083E0E8F0E0808151
:100C400081608083E1EBF0E0808184608083E0EB71
:100C5000F0E0808181608083EAE7F0E08081846059
:100C600080838081826080838081816080838081B5
:100C7000806880831092C10008950895833081F0C8
:100C800028F4813099F08230A1F008958730A9F0DE
:100C90008830B9F08430D1F4809180008F7D03C01A
:100CA000809180008F7780938000089584B58F773E
:100CB00002C084B58F7D84BD08958091B0008F7788
:100CC00003C08091B0008F7D8093B0000895CF93D2
:100CD000DF9390E0FC01E458FF4F2491FC01E057C2
:100CE000FF4F8491882361F190E0880F991FFC01E8
:100CF000E255FF4FC591D491FC01EC55FF4FA591F2
:100D0000B491611109C09FB7F8948881209582231E
:100D10008883EC912E230BC0623061F49FB7F89466
:100D20003881822F809583238883EC912E2B2C93FE
:100D30009FBF06C08FB7F894E8812E2B28838FBF02
:100D4000DF91CF9108951F93CF93DF93282F30E049
:100D5000F901E859FF4F8491F901E458FF4FD4910C
:100D6000F901E057FF4FC491CC23C9F0162F811130
:100D70000E943E06EC2FF0E0EE0FFF1FEC55FF4FF8
:100D8000A591B4918FB7F894111105C09C91ED2FE6
:100D9000E095E92302C0EC91ED2BEC938FBFDF913E
:100DA000CF911F91089580E090E00895CF92DF9257
:100DB000EF92FF920F931F93CF93DF936C017A0111
:100DC0008B01C0E0D0E0CE15DF0589F0D8016D9130
:100DD0008D01D601ED91FC910190F081E02DC601CD
:100DE0000995892B11F47E0102C02196ECCFC70131
:100DF000DF91CF911F910F91FF90EF90DF90CF90F7
:100E000008956115710579F0FB0101900020E9F763
:100E10003197AF01461B570BDC01ED91FC9102802D
:100E2000F381E02D099480E090E00895DC01ED91DC
:100E3000FC91DB0114964D915C9115976D917C911D
:100E40000280F381E02D0994DC01ED91FC91019089
:100E5000F081E02D0994DB01ED91FC911197019057
:100E6000F081E02DBC01CD0109946BE473E00C949A
:100E700001070F931F93CF93DF93EC010E940107AB
:100E80008C01CE010E943507800F911FDF91CF9119
:100E90001F910F9108950F931F93CF93DF93EC0150
:100EA0000E942B078C01CE010E943507800F911FF5
:100EB000DF91CF911F910F9108954F925F926F92A2
:100EC0007F92EF92FF920F931F93CF93DF93CDB753
:100ED000DEB7A1970FB6F894DEBF0FBECDBF7C0181
:100EE000FA01CB0119A2223008F42AE08E010F5D2D
:100EF0001F4F422E512C612C712CBF01A301920176
:100F00000E942C22F901CA01015011096A3014F41F
:100F1000605D01C0695CD8016C93232B242B252BC9
:100F200061F7B801C7010E940107A1960FB6F894B6
:100F3000DEBF0FBECDBFDF91CF911F910F91FF900C
:100F4000EF907F906F905F904F900895211531053D
:100F500041F4DC01ED91FC910190F081E02D642FD2
:100F600009940C945D079A01462F50E060E070E010
:100F70000C94A6071F920F920FB60F9211242F9375
:100F80008F939F93EF93FF93E0917004F09171041E
:100F90008081E0917604F091770482FD12C0908107
:100FA000809179048F5F8F7320917A04821751F0BA
:100FB000E0917904F0E0E05AFB4F958F809379043B
:100FC00001C08081FF91EF919F918F912F910F90A0
:100FD0000FBE0F901F9018951F920F920FB60F9291
:100FE00011242F933F934F935F936F937F938F932E
:100FF0009F93AF93BF93EF93FF9380E694E00E949B
:10100000340AFF91EF91BF91AF919F918F917F91A2
:101010006F915F914F913F912F910F900FBE0F9065
:101020001F90189580E694E00E94E90921E0892B41
:1010300009F420E0822F0895E0E6F4E013821282A2
:1010400088EE93E0A0E0B0E084839583A683B78325
:1010500084E693E09183808385EC90E09587848794
:1010600084EC90E09787868780EC90E0918B808B72
:1010700081EC90E0938B828B82EC90E0958B848B5B
:1010800086EC90E0978B868B118E128E138E148EC9
:10109000089508950E9402060E9449080E941D01B9
:1010A000C6E2DAE00E947B042097E1F30E94260A60
:1010B000F9CF8F929F92AF92BF92CF92DF92EF9231
:1010C000FF920F931F93CF93DF937C018B016C01F1
:1010D00082E0C80ED11C4701E5E08E0E911CC0E0F5
:1010E000D0E0F60161916F014AE050E0C8010E9432
:1010F000B3075C016EE2C8010E9424078A0D9B1DA4
:10110000C80FD91FC814D90461F74AE050E0F701AD
:101110006581C8010E94B3078C0F9D1FDF91CF919D
:101120001F910F91FF90EF90DF90CF90BF90AF9005
:101130009F908F9008952EE533E0FC01318320834A
:10114000128213821482158208950F93FC018EE59A
:1011500093E09183808362834383248305830F918B
:1011600008952EE533E0FC0131832083FB014081AB
:10117000518162817381FC0142835383648375834F
:101180000895FB014081518162817381FC0142839A
:101190005383648375830895EDEFF4E08EE593E067
:1011A0009183808312821382148215820895FC0138
:1011B000808191810C94A31ECF93DF93EC018881F1
:1011C0009981009711F00E94A31E198218821D8236
:1011D0001C821B821A82DF91CF9108950F931F9377
:1011E000CF93DF93EC018B016F5F7F4F88819981F3
:1011F0000E94971F009731F0998388831B830A838D
:1012000081E001C080E0DF91CF911F910F9108959F
:10121000CF93DF93EC0188819981892B29F08A8112
:101220009B818617970760F4CE010E94EE08882301
:1012300041F08C819D81892B19F4E881F98110821C
:1012400081E0DF91CF910895EF92FF920F931F936A
:10125000CF93DF93EC017B018A01BA010E94080958
:10126000811104C0CE010E94DC0807C01D830C83DD
:10127000B701888199810E948320CE01DF91CF91AF
:101280001F910F91FF90EF900895FC011182108241
:1012900013821282158214826115710551F0FB01CF
:1012A00001900020E9F73197AF01461B570B0C94D2
:1012B00024090895CF93DF93EC016115710559F06E
:1012C000FB0101900020E9F73197AF01461B570B56
:1012D0000E94240902C00E94DC08CE01DF91CF9158
:1012E00008950F931F93CF93DF93CDB7DEB7299760
:1012F0000FB6F894DEBF0FBECDBF8C01862FF8016C
:1013000011821082138212821582148250E0BE0173
:101310006F5F7F4F90E00E948A20BE016F5F7F4F1A
:10132000C8010E945A0929960FB6F894DEBF0FBE75
:10133000CDBFDF91CF911F910F9108950F931F9310
:10134000CF93DF93CDB7DEB761970FB6F894DEBFCA
:101350000FBECDBF8C01CB01F80111821082138228
:1013600012821582148250E0BE016F5F7F4F0E948F
:101370008A20BE016F5F7F4FC8010E945A096196A3
:101380000FB6F894DEBF0FBECDBFDF91CF911F9196
:101390000F910895FC0124813581232B31F421E044
:1013A00061157105A1F0FB0108C0FC0180819181EC
:1013B0006115710531F421E0FC018081882339F049
:1013C00005C00E947A2021E0892B09F020E0822FBD
:1013D0000895FC01918D228D892F90E0805C9F4FB4
:1013E000821B91098F7399270895FC01918D828D3D
:1013F000981731F0828DE80FF11D858D90E00895EA
:101400008FEF9FEF0895FC01918D828D981761F009
:10141000828DDF01A80FB11D5D968C91928D9F5F2B
:101420009F73928F90E008958FEF9FEF0895FC01D6
:10143000538D448D252F30E0842F90E0821B930B39
:10144000541710F0CF9608950197089582E198E01F
:10145000892B49F080E090E0892B29F00E94120846
:1014600081110C9400000895FC01848DDF01A80F08
:10147000B11DA35ABF4F2C91848D90E001968F73BC
:101480009927848FA689B7892C93A089B1898C91DB
:1014900080648C93938D848D981306C00288F389A1
:1014A000E02D80818F7D80830895CF93DF93EC01C1
:1014B000888D8823C9F0EA89FB89808185FD05C074
:1014C000A889B9898C9186FD0FC00FB607FCF5CFAE
:1014D000808185FFF2CFA889B9898C9185FFEDCFF6
:1014E000CE010E94340AE7CFDF91CF910895EF92A9
:1014F000FF920F931F93CF93DF93EC0181E0888FCE
:101500009B8D8C8D981305C0E889F989808185FDB4
:1015100024C0F62E0B8D10E00F5F1F4F0F731127A5
:10152000E02E8C8DE8120CC00FB607FCFACFE889CC
:10153000F989808185FFF5CFCE010E94340AF1CF71
:101540008B8DFE01E80FF11DE35AFF4FF0820B8FE8
:10155000EA89FB898081806207C0EE89FF89608308
:10156000E889F98980818064808381E090E0DF915F
:10157000CF911F910F91FF90EF900895CF92DF923E
:10158000EF92FF921F93CF93DF93EC016A017B01EF
:10159000122FE889F98982E080834115514E610557
:1015A0007105B1F060E079E08DE390E0A70196016C
:1015B0000E942C22DA01C9010197A109B109B6954F
:1015C000A79597958795AC01411580E15807A8F03C
:1015D000E889F989108260E874E88EE190E0A7015B
:1015E00096010E942C22BA01A901415051096109BA
:1015F00071097695679557954795EC85FD855083DC
:10160000EE85FF854083188EEC89FD891083EA8979
:10161000FB89808180618083EA89FB898081886081
:101620008083EA89FB89808180688083EA89FB89DD
:1016300080818F7D8083DF91CF911F91FF90EF900C
:10164000DF90CF9008958FEF9FEF909304058093E4
:10165000030508951F920F920FB60F9211240F9059
:101660000FBE0F901F901895A8950895DA01F90103
:1016700060348FE178071CF46115710539F489E055
:1016800090E08D939C9380E49FE158C0603A8FE096
:1016900078073CF088E090E08D939C9380EA9FE08F
:1016A0004DC0603D87E078073CF087E090E08D9387
:1016B0009C9380ED97E042C0683E83E078073CF061
:1016C00086E090E08D939C9388EE93E037C0643F72
:1016D00081E078073CF085E090E08D939C9384EF67
:1016E00091E02CC06A3F71053CF084E090E08D935E
:1016F0009C938AEF90E022C0683771053CF083E04C
:1017000090E08D939C9388E790E018C06C3371054E
:101710003CF082E090E08D939C938CE390E00EC0CF
:101720006E3171053CF081E090E08D939C938EE1E9
:1017300090E004C01D921C928FE090E09183808322
:1017400008950F931F93CF93DF9300D0CDB7DEB7EB
:101750008C019E012F5F3F4FAC010E94360BF801B8
:10176000808183FD02C098E001C098E28770892BD8
:1017700098E10FB6F894A895909360000FBE8093FF
:10178000600089819A810F900F90DF91CF911F9116
:101790000F910895DC01ED91FC91048CF58DE02D05
:1017A00009942EE533E0FC0131832083FB0140895D
:1017B000518962897389FC014283538364837583F1
:1017C0000895FC01848995890895FC01818D928D8D
:1017D0000895CF93DF931F92CDB7DEB76983DC0105
:1017E000ED91FC910280F381E02D41E050E0BE01DB
:1017F0006F5F7F4F09950F90DF91CF910895089506
:10180000CF93DF93EC01888D843061F00E948011CA
:10181000E88DF0E0EE0FFF1FED57FA4F11821082B6
:1018200084E0888FDF91CF910895FC01178A168A92
:101830006E5F7F4F808D0C94FE12FC01808D0C94A6
:101840004413CF93DF93EC019A018E899F89AB01FA
:10185000BC01888D0E94B7122E893F89280F391F3D
:101860003F8B2E8BDF91CF9108950F931F93CF93D2
:10187000DF931F92CDB7DEB7FC01218D328D232B74
:1018800061F08C0141E050E0BE016F5F7F4F808DC1
:101890000E94FD11181619061CF08FEF9FEF08C06B
:1018A000F801818D928D0197928F818F898190E0CF
:1018B0000F90DF91CF911F910F910895CF93DF93F8
:1018C000FC01218D328D2115310519F48FEF9FEF29
:1018D00011C0EC014217530708F0A901888D0E943E
:1018E000FD111816190694F7298D3A8D281B390B0E
:1018F0003A8F298FDF91CF910895CF93DF931F9275
:10190000CDB7DEB7FC01218D328D232B49F0BE010E
:101910006F5F7F4F808D0E948812898190E002C0A6
:101920008FEF9FEF0F90DF91CF910895EF92FF928D
:101930001F93CF93DF93FC01208D243011F080E0C2
:101940001CC07B01EC0110E0812F0E945811811115
:1019500002C0188F05C08831E1F31F5F1430A1F772
:10196000888D843061F3FD86EC861A8E198E20E016
:10197000A70162E00E94AA1181E0DF91CF911F913F
:10198000FF90EF9008950F931F93CF93DF93CDB700
:10199000DEB728970FB6F894DEBF0FBECDBF8C011F
:1019A000F801818D928D892B49F0D801ED91FC9140
:1019B0000284F385E02DC8010995F2CF808D0E9445
:1019C0005D121816190654F548E050E0BE016F5F2D
:1019D0007F4FD80158968C910E94FD119C011816DA
:1019E0001906D4F4BE016F5F7F4FC8010E960E94A6
:1019F000C1088D8190E0982F88272E81820F911D3C
:101A0000F801958B848B2F8130E0322F2227888537
:101A1000280F311D328F218FC90102C080E090E074
:101A200028960FB6F894DEBF0FBECDBFDF91CF91E1
:101A30001F910F9108958F929F92AF92BF92CF9274
:101A4000DF92EF92FF920F931F93CF93DF9300D01B
:101A500000D000D0CDB7DEB7FC01208D243009F0D6
:101A600068C06A017B018C0153E0852E54E0952EFD
:101A7000A12CB12CC4010E94FE0E811103C0F801FB
:101A8000A08E0AC08831D9F3FFEFAF1ABF0A939432
:101A9000E4E0AE16B10471F7F801808D843009F4EA
:101AA00048C096E0E0E1F1E0DE01119601900D9270
:101AB0009A95E1F7F70193819F779C8394819D83A9
:101AC00095819E83B7016E5F7F4F90E0982F8827A6
:101AD00044E050E0845F9B4F0E94CF0EF801E08C01
:101AE000F12CF4E0EF0EF11CFE2CEE246D2DC7015D
:101AF00040960E943B0E6C2DC70141960E943B0E02
:101B0000F801808D90E0982F882746E050E0BE01D4
:101B10006F5F7F4F8A5F9B4F0E94CF0EF801128E3E
:101B2000118E20E8A60162E0808D0E94AA1181E05A
:101B300001C080E026960FB6F894DEBF0FBECDBF81
:101B4000DF91CF911F910F91FF90EF90DF90CF9099
:101B5000BF90AF909F908F900895CF93DF93EC014B
:101B60001B821A8288EE93E0A0E0B0E08C839D8314
:101B7000AE83BF8386E793E099838883CE010E9678
:101B80000E949B0884E0888FDF91CF910895CF92C7
:101B9000DF92EF92FF920F931F93CF93DF93CDB716
:101BA000DEB7AF970FB6F894DEBF0FBECDBF8C0186
:101BB0006B017A01CE0101960E949B08CE01099625
:101BC0000E94AD0DCE018A960E949B086DE175E0E2
:101BD000CE0184960E94C514BE016C5D7F4FCE017C
:101BE00001960E94E714AE01465D5F4FB601CE013B
:101BF00001960E94561781309105C1F4D801ED91EC
:101C0000FC910488F589E02D8EE593E09DA38CA3DB
:101C10008CA59DA5AEA5BFA58EA39FA3A8A7B9A778
:101C2000A701BE016C5D7F4FC8010995AF960FB645
:101C3000F894DEBF0FBECDBFDF91CF911F910F9102
:101C4000FF90EF90DF90CF9008950F9300E020E099
:101C500040E060E085E095E00E94A5080F910895BE
:101C60008EBD00000DB407FEFDCF8EB508952A98F5
:101C700008952A9A08951F93CF93DF9300D0CDB78C
:101C8000DEB7182F6A8399830E94370E80EF0E9477
:101C9000300E9981892F0E94300E812F0E94300EC4
:101CA0006A81862F0E94300E0E94390E81E00F90CB
:101CB0000F90DF91CF911F910895CF93DF93EC01A7
:101CC0006CE271E080E090E00E94C6050E94E4179B
:101CD000229A80919905882399F02FB7F8948091E2
:101CE0009905813059F48DB3809397059DB3809108
:101CF0009805809589238DBB2FBF02C0209397053F
:101D000080E58CBD1DBC60E880E090E00E943B0E49
:101D100065E58BE190E00E943B0E65E58AE190E08D
:101D20000E943B0E80919905882351F09FB7F8944B
:101D30002091990580919705213029F58DBB9FBF92
:101D400080E090E49983888380E090E69987888793
:101D500080E098E49B838A8380E098E69B878A876B
:101D600080E090E59D838C8380E090E79D878C8761
:101D700080E098E59F838E8380E098E79F878E8739
:101D8000DF91CF9108958FBFDBCF9B0190E0049648
:101D9000982F8827642F820F931F0C943B0ECF92AD
:101DA000DF92EF92FF920F931F93CF93DF93EC019B
:101DB0007A018B016C01C40ED51ECC15DD05A1F096
:101DC0000E94370E80EF0E94300E8D2F0E94300E41
:101DD0008C2F0E94300E2196F80181918F010E9474
:101DE000300E0E94390EE9CFC701DF91CF911F91CC
:101DF0000F91FF90EF90DF90CF9008951F93CF93B6
:101E0000DF931F92CDB7DEB7182F99830E94370E4C
:101E10008FE00E94300E9981892F0E94300E812F11
:101E20000E94300E80E00E94300E89830E94390E9D
:101E300089810F90DF91CF911F91089590E00496D2
:101E4000982F8827860F971F0C94FE0E1F93CF9311
:101E5000DF93182F60E270E00E941E0FC82FD0E0C1
:101E600061E270E0812F0E941E0FDC2FCC279E01C3
:101E7000282BC901DF91CF911F910895FF920F93F5
:101E80001F93CF93DF93F62EC0E0D0E08F2D0E94FA
:101E9000260F8C01892B21F08F2D0E94260FEC013B
:101EA000C017D10799F7CE01DF91CF911F910F9104
:101EB000FF9008951F93CF93DF93182F66E270E091
:101EC0000E941E0FC82FD0E067E270E0812F0E94B1
:101ED0001E0FDC2FCC279E01282BC901DF91CF914B
:101EE0001F910895FF920F931F93CF93DF93F62EC8
:101EF000C0E0D0E08F2D0E945A0F8C01892B21F079
:101F00008F2D0E945A0FEC01C017D10799F7CE010F
:101F1000DF91CF911F910F91FF9008956F927F9263
:101F20008F929F92AF92BF92CF92DF92EF92FF92E9
:101F30000F931F93CF93DF931F92CDB7DEB7882EF9
:101F4000962E6A01590164E270E0892D99830E94FE
:101F50001E0FE82EF12C65E270E0892D0E941E0F05
:101F6000FE2CEE24E82A37016C0C7D1CA30157706F
:101F7000E82C9981F92EE90CF11CE90CF11CF70110
:101F800080819181840F951F9A01200F311F21308C
:101F9000384098F060E078E06B01C41AD50AA601D9
:101FA000B5010E94CF0EA8014C195D09B5016C0D59
:101FB0007D1DF7018081918102C0A801B5010E94B9
:101FC000CF0E060D171D412F64E270E0892D0E948F
:101FD000C50E402F65E270E0892D0F90DF91CF9103
:101FE0001F910F91FF90EF90DF90CF90BF90AF9037
:101FF0009F908F907F906F900C94C50ECF92DF9240
:10200000EF92FF920F931F93CF93DF93EC017A012E
:102010008B016C01C40ED51ECC15DD05A9F00E9404
:10202000370E8FE00E94300E8D2F0E94300E8C2FC5
:102030000E94300E219680E00E94300EF8018193BC
:102040008F010E94390EE8CFC701DF91CF911F9118
:102050000F91FF90EF90DF90CF900895AF92BF92D5
:10206000CF92DF92EF92FF920F931F93CF93DF9364
:1020700000D0CDB7DEB75A834983590129813A810F
:1020800037706C01C60ED11CC60ED11CF6018085BE
:102090009185820F931FA801420F531F4130584072
:1020A00098F0E0E0F8E07F01E21AF30AA701B50139
:1020B0000E94FE0FA8014E195F09B5016E0D7F1D2C
:1020C000F6018085918502C0A801B5010F900F909F
:1020D000DF91CF911F910F91FF90EF90DF90CF9004
:1020E000BF90AF900C94FE0F8F929F92AF92BF92D1
:1020F000CF92DF92EF92FF920F931F93CF93DF93D4
:102100006C01962E5A017901802E68E270E0892DCB
:102110000E941E0FC82FD0E069E270E0892D0E9456
:102120001E0FDC2FCC27C82B87019501AE01692D2E
:10213000C6010E942E1081101AC0CE0DDF1D4D2F3A
:1021400068E270E0892D0E94C50E4C2F69E270E0B4
:10215000892DDF91CF911F910F91FF90EF90DF902C
:10216000CF90BF90AF909F908F900C94C50EDF9151
:10217000CF911F910F91FF90EF90DF90CF90BF9084
:10218000AF909F908F900895CF93C62F61E070E03D
:102190008C2F0E94C50E61E070E08C2F0E941E0FF4
:1021A0008111F9CFCF9108950F93FC0130E080E0C9
:1021B00092E1AAE7B0E0481759076A077B0740F4A5
:1021C000B695A795979587953F5F3630A1F737E08D
:1021D00091E09327222311F020E501C020E7892F09
:1021E00086950C70082B022B0083917091830F91C0
:1021F000089520919905222399F04FB7F8942091E2
:102200009905213059F42DB3209397053DB32091C2
:102210009805209523232DBB4FBF02C040939705FF
:102220008CBD9DBD089580919905882361F09FB76D
:10223000F8942091990580919705213019F48DBB70
:102240009FBF08958FBF089590E0982F882744E09E
:1022500050E0845F9B4F0C94CF0E62E070E00C94D2
:102260001E0FCF93DF93C82FD62F472F64E070E067
:102270000E94C50E4D2F65E070E08C2FDF91CF914D
:102280000C94C50E462F62E070E00C94C50ECF93FF
:10229000DF93C82FD62F472F60E170E00E94C50E54
:1022A0004D2F61E170E08C2FDF91CF910C94C50E22
:1022B0000F931F93CF93DF9300D01F92CDB7DEB75C
:1022C000182F00E021E040E059E06DE370E0CE011E
:1022D00001960E94D41089819A810E94F91063E0CE
:1022E00070E0812F0E941E0F8B830E9413118B813F
:1022F0000F900F900F90DF91CF911F910F91089544
:102300000F931F93CF93DF9300D0CDB7DEB7182F75
:1023100000E021E040E059E06DE370E0CE0101967D
:102320000E94D41089819A810E94F91040E150E006
:10233000612F8BE095E00E94C4106FEF812F0E9407
:1023400042110E9413110F900F90DF91CF911F91B6
:102350000F910895CF92DF92EF92FF920F931F9308
:10236000CF93DF9300D0CDB7DEB79FEF960F9530B8
:10237000C0F5F22E6A01E62E182F0E94801100E0AF
:1023800021E040E059E06DE370E0CE0101960E944B
:10239000D41089819A810E94F9104E2D4F2960E056
:1023A00070E0812F0E94C50EC114D10411F0B60156
:1023B0000AC060911B0570911C056F5F7F4F709381
:1023C0001C0560931B05812F0E94311141E050E0F4
:1023D000612F8BE095E00E94C4100E94131181E0F0
:1023E00001C080E00F900F90DF91CF911F910F916E
:1023F000FF90EF90DF90CF900895AF92BF92CF9271
:10240000DF92EF92FF920F931F93CF93DF9300D051
:10241000CDB7DEB7182F5B016A0100E021E040E094
:1024200059E06DE370E0CE0101960E94D4108981DD
:102430009A810E94F910612F8BE095E00E94720F43
:102440007C010097A1F463E070E0812F0E941E0FD1
:10245000843119F1882309F121E030E08C3111F445
:1024600020E030E0EE24FF24E21AF30A16C0C8167A
:10247000D9060CF476011E141F047CF400E09701C9
:10248000A501612F8BE095E00E94741040E450E0BC
:10249000612F8BE095E00E94C4100E941311C701C8
:1024A0000F900F90DF91CF911F910F91FF90EF90C0
:1024B000DF90CF90BF90AF9008950F931F93CF936D
:1024C000DF9300D000D0CDB7DEB7182F00E021E0B9
:1024D00040E059E06DE370E0CE0101960E94D41017
:1024E00089819A810E94F910612F8BE095E00E940A
:1024F000720F8B839C830E9413118B819C810F90A0
:102500000F900F900F90DF91CF911F910F91089531
:10251000EF92FF920F931F93CF93DF9300D0CDB72D
:10252000DEB7182F7B0100E021E040E059E06DE3C9
:1025300070E0CE0101960E94D41089819A810E9498
:10254000F91001E021E030E0A701612F8BE095E078
:102550000E9474100E94131181E090E00F900F9080
:10256000DF91CF911F910F91FF90EF9008958F927F
:102570009F92AF92BF92DF92EF92FF920F931F93C1
:10258000CF93DF9300D0CDB7DEB7D82E5B014A01E1
:10259000790100E021E040E059E06DE370E0CE0118
:1025A00001960E94D41089819A810E94F9106D2DA4
:1025B0008BE095E00E943E0F8E159F0530F46D2D47
:1025C0008BE095E00E943E0F7C0187019401A501FC
:1025D0006D2D8BE095E00E948E0F0E941311C701B4
:1025E0000F900F90DF91CF911F910F91FF90EF907F
:1025F000DF90BF90AF909F908F900895CF92DF9221
:10260000EF92FF920F931F93CF93DF9300D0CDB73C
:10261000DEB7FB019081911109C09181911106C033
:102620009281911103C09381992309F141155105BC
:10263000F1F06A017F01182F00E021E040E059E04D
:102640006DE370E0CE0101960E94D41089819A81D9
:102650000E94F910B701812F0E942411B601812F29
:102660000E9447110E94131181E090E002C080E0B7
:1026700090E00F900F90DF91CF911F910F91FF90FD
:10268000EF90DF90CF9008950F931F93CF93DF9338
:1026900000D0CDB7DEB7182F00E021E040E059E0D0
:1026A0006DE370E0CE0101960E94D41089819A8179
:1026B0000E94F91040E250E0612F8BE095E00E940B
:1026C000C410812F0E942D1184FD21C0812F0E94F2
:1026D0002D1183FF09C068E1812F0E9442110E94E1
:1026E000131180E090E01BC00E9413110E943D0670
:1026F00000E021E040E059E06DE370E0CE0101969A
:102700000E94D41089819A810E94F910DACF60E189
:10271000812F0E9442110E94131181E090E00F90DE
:102720000F90DF91CF911F910F91089544E050E0F9
:10273000BC0181E090E00C94CF0E44E050E0BC017D
:1027400085E090E00C94CF0E44E050E0BC018FE0B7
:1027500090E00C94CF0E2F923F924F925F926F9227
:102760007F928F929F92AF92BF92CF92DF92EF9221
:10277000FF920F931F93CF93DF9300D000D000D030
:10278000CDB7DEB76C011B0129013A0147015801A1
:1027900085E295E0F601978386838BE095E00E94C1
:1027A0005D0E80E590E00E94F91046E050E0B10136
:1027B00089E090E00E94CF0E00E020E040E060E081
:1027C000CE0101960E94A508CE0103960E94A41393
:1027D0000E94131185017401A3019201B101F60158
:1027E000868197810E94321D8C010197B9F580E5A1
:1027F00090E00E94F910F60166817781CE01019682
:102800000E946C18CE0103960E94A413F601668103
:102810007781CE0101960E948218CE0103960E9414
:102820009613F60166817781CE0101960E94771892
:10283000CE0103960E949D130E941311F60166813A
:102840007781CE0101960E948D188B819C81AD818C
:10285000BE81F60182839383A483B583C801269643
:102860000FB6F894DEBF0FBECDBFDF91CF911F91A1
:102870000F91FF90EF90DF90CF90BF90AF909F901F
:102880008F907F906F905F904F903F902F90089522
:10289000EF92FF920F931F93CF93DF9300D000D05E
:1028A00000D0CDB7DEB7FC01268137812115310577
:1028B00009F443C08C01C9010E94711D7C0102977B
:1028C00021F084E0E816F104D1F580E590E00E9463
:1028D000F910F80166817781CE0101960E946C188B
:1028E000CE0103960E94A413F80166817781CE0180
:1028F00001960E948218CE0103960E949613F80159
:1029000066817781CE0101960E947718CE010396E9
:102910000E949D130E941311F80166817781CE01F8
:1029200001960E948D188B819C81AD81BE81F8013A
:1029300082839383A483B58302C0E12CF12CC70169
:1029400026960FB6F894DEBF0FBECDBFDF91CF91B4
:102950001F910F91FF90EF900895CF93DF93EC01BB
:102960000E949B0880E590E00E94F910BE016E5F16
:102970007F4F44E050E08FE090E00E94FE0F0E9405
:102980001311CE01DF91CF9108952EE533E0FC01C4
:1029900031832083FB014281538164817581FC0175
:1029A000428353836483758308950F9300E020E08E
:1029B00040E060E08BE895E00E94A50888E695E09D
:1029C0000E94AD0D8DE195E00F910C949B08FB01E9
:1029D0004281538164817581FC0142835383648306
:1029E0007583178216820895CF93DF93FB0120E051
:1029F00080E090E0AAE03191332301F160ED630FB4
:102A00006A3080F4A89FB001A99F700D1124CB01FA
:102A1000C097830F911D37FD9A958F3F910559F30C
:102A200050F313C03E3289F4233079F0EA01C20F2B
:102A3000D11D8A832F5F80E090E0DDCF233029F421
:102A4000FA01858381E090E002C080E090E0DF91B0
:102A5000CF9108950F9300E020E040E060E081E92D
:102A600095E00E94A5080F9108958F929F92AF92D2
:102A7000BF92CF92DF92EF92FF920F931F93CF936B
:102A8000DF9300D000D01F92CDB7DEB78C016B0171
:102A90000E949505F8017783668376276727762756
:102AA0007A836983085F1F4F42E050E0BE016F5F89
:102AB0007F4FC8010E94210C81E090E09C838B83B2
:102AC00042E050E0BE016D5F7F4FC8010E94210CC3
:102AD00080E091E09C838B8342E050E0BE016D5F1B
:102AE0007F4FC8010E94210C1C821B8242E050E0F3
:102AF000BE016D5F7F4FC8010E94210C42E050E093
:102B0000BE016D5F7F4FC8010E94210C42E050E082
:102B1000BE016D5F7F4FC8010E94210C5601F50177
:102B20008081882329F1C6017C01FC012081019666
:102B3000211116C0570147018C189D08181419045B
:102B400094F48D8241E050E0BE016B5F7F4FC8017D
:102B50000E94210CA401B601C8010E94210C03C0EF
:102B60002E3211F7E7CF6701FFEFCF1ADF0AD7CF79
:102B70001D8241E050E0BE016B5F7F4FC8010E94A3
:102B8000210CE12CFF24F394FC82EB8242E050E024
:102B9000BE016D5F7F4FC8010E94210CFC82EB8259
:102BA00042E050E0BE016D5F7F4FC8010E94210CE2
:102BB00081E090E00F900F900F900F900F90DF91B9
:102BC000CF911F910F91FF90EF90DF90CF90BF902A
:102BD000AF909F908F9008954F925F926F927F92E7
:102BE0008F929F92AF92BF92CF92DF92EF92FF921D
:102BF0000F931F93CF93DF93CDB7DEB765970FB6D3
:102C0000F894DEBF0FBECDBF7C015B016A010E945C
:102C100095052B013C018701085F1F4F4501A12C41
:102C2000B12CC8010E94C30C18161906A4F00E940A
:102C30009505DC01CB0184199509A609B709881609
:102C40009906AA06BB06D0F062E370E080E090E04F
:102C50000E94C605E6CFF7014281538164817581E8
:102C6000808D918DA28DB38D481759076A077B0718
:102C700041F4848D958DC59721F406C02FEF3FEF69
:102C8000FDC02EEF3FEFFAC0C8010E94E50B0C9784
:102C9000ECF04CE050E0BE016F5F7F4FC8010E9436
:102CA0005E0C6C818B810E9460189A8B898BF70176
:102CB000E680F7806A8189810E946018E816F9062B
:102CC00041F489899A8997FF04C009C02DEF3FEF2D
:102CD000D5C0C8010E94FF0B2CEF3FEFCFC08F7013
:102CE0009270892B31F0C8010E94FF0B2BEF3FEF50
:102CF000C5C068858F810E9460185C01892B31F402
:102D0000C8010E94FF0B2AEF3FEFB8C0E12CF12C65
:102D10006E818D810E946018E816F90640F541E049
:102D200050E0BE01635F7F4FC8010E945E0C8D853D
:102D3000811113C08D858111F2CFC8010E94350C1D
:102D4000C8010E94350CC8010E94350CC8010E94C0
:102D5000350CFFEFEF1AFF0ADBCF8D859FEF980F41
:102D60009D87882339F3C8010E94350CF6CFE12CEA
:102D7000F12C41E050E0BE016D5E7F4FC8010E9422
:102D80005E0C8B89982F907C61F4882371F08B897D
:102D90009FEF980F9B8B882341F0C8010E94350C50
:102DA000F6CFC8010E94350C1B8A8B898111E1CFB7
:102DB00042E050E0BE01615F7F4FC8010E945E0C9F
:102DC00042E050E0BE01635F7F4FC8010E945E0C8D
:102DD000C8010E94350CC8010E94350CC8010E9430
:102DE000350CC8010E94350C42E050E0BE016F5E18
:102DF0007F4FC8010E945E0C8F8598898115914094
:102E000001F52D853E8532272327322721303105D4
:102E1000C1F489899A898115944031F0C8010E94D2
:102E2000FF0B27EF3FEF2AC0B6016E5F7F4F44E0F4
:102E300050E0C8012C8B3D8B0E945E0C2C893D8993
:102E40001DC0812C912C89899A89982789279827D8
:102E50008816990638F4C8010E94350C8FEF881A3D
:102E6000980AF1CFEFEFEE1AFE0AEA14FB0409F01C
:102E700080CFC8010E94FF0B26EF3FEFC901659686
:102E80000FB6F894DEBF0FBECDBFDF91CF911F917B
:102E90000F91FF90EF90DF90CF90BF90AF909F90F9
:102EA0008F907F906F905F904F9008958F929F9238
:102EB000AF92BF92CF92DF92EF92FF920F931F9348
:102EC000CF93DF9300D000D000D0CDB7DEB77C0128
:102ED0004B015A010E94F4148C01892B09F05BC04C
:102EE000F7014281538164817581809193059091AE
:102EF0009405A0919505B0919605481759076A0762
:102F00007B0709F44BC00E9495056701F8E0CF0EDE
:102F1000D11C6F7077277C5FC6010E94960C8130B0
:102F200009F03EC08EE593E09A838983F7018281A0
:102F30009381A481B5818B839C83AD83BE8345E35C
:102F400050E0BE016F5F7F4FC6010E94150C892BB8
:102F500019F400E010E01BC0B401C7010E94351550
:102F6000892BB9F3C6010E941D0C892B91F383E0D4
:102F7000882E912CA50168E873E1C7010E94EC1529
:102F80008C01F1E08F1A910811F0019699F3C601B6
:102F90000E94000C05C001E010E002C00EEF1FEF20
:102FA000C80126960FB6F894DEBF0FBECDBFDF91E5
:102FB000CF911F910F91FF90EF90DF90CF90BF9036
:102FC000AF909F908F900895CF93CFB7F894809152
:102FD0009A05811127C0EAE9F0E08491E6E8F0E083
:102FE0009491E82FF0E0EE0FFF1FE255FF4FA591FF
:102FF000B491EC91E92321F461E08AE00E94A306F8
:1030000061E08AE00E9467068CB580618CBD8CB55A
:1030100080648CBD61E08DE00E94670661E08BE01A
:103020000E94670680919A058F5F80939A05CFBFB3
:10303000CF910895CF93DF9300D000D0CDB7DEB706
:10304000611571058105910579F09B01AC016983DA
:103050003A834B835C830E94891F29813A814B818B
:103060005C810E944E2203C060E070E0CB010F90B3
:103070000F900F900F90DF91CF910895CF92DF9234
:10308000EF92FF920F931F936217730784079507C0
:1030900084F489019A016B017C01C901B8016C19A2
:1030A0007D098E099F090E941A186C0D7D1D8E1DC9
:1030B0009F1D1F910F91FF90EF90DF90CF9008958B
:1030C00070E09B01382BC90108950E9624E1FC01A4
:1030D00011922A95E9F70895CF93DF93EC01625F8F
:1030E0007F4F0E94B108CE01DF91CF910895CF9319
:1030F000DF93EC016E5E7F4F0E94B108CE01DF913D
:10310000CF910895CF93DF93EC016A5E7F4F0E94C9
:10311000B108CE01DF91CF910895CF93DF93EC01F9
:10312000625E7F4F0E94B108CE01DF91CF9108957A
:1031300080E3FB0180833296842F82958F7090E12B
:10314000899F401911244A3014F4405D01C0495C44
:103150004293482F8111F0CF08950F9300E020E0B3
:1031600040E060E08BE995E00E94A5080F9108958A
:103170007F928F929F92AF92BF92CF92DF92EF9207
:10318000FF920F931F93CF93DF93CDB7DEB7AC972A
:103190000FB6F894DEBF0FBECDBF7C01762E942E05
:1031A000852E20E2B22ECE0101966C01FC012B2D62
:1031B00011922A95E9F70FEF2FEF4FEF6FEF8696F9
:1031C0000E94A5088EE593E09AA389A389A59AA5F4
:1031D000ABA5BCA58BA39CA3ADA3BEA387010D5B30
:1031E0001F4F43E450E0BE016F5D7F4FC8010E9456
:1031F000150C019609F4BFC081E089838A8386E0BB
:10320000A82EAB821C82F70164817581868197812B
:103210000E946D226D837E838F83988789869A862C
:1032200080E890E09C878B874CE150E0B601C801B4
:103230000E94210CF6012B2D11922A95E9F74701E6
:1032400088E0880E911CF401D60101900D92AA9499
:10325000E1F740E150E0B601C8010E94210CF601FF
:103260001192BA94E9F796E0A92EB12C40E250E011
:10327000B601C8010E94210CF1E0AF1AB108B1F704
:1032800083E6898392E89A8393E59B838C8385E325
:103290008D8381E08E837F829DE3988797E0998775
:1032A0008A8786E0F401DE011B9601900D928A95D3
:1032B000E1F78CE0898B8A8B6AE973E0CE01439653
:1032C0000E948320F7014385BE01675E7F4FC701DF
:1032D0000E949818F7014485BE01655E7F4FC701C3
:1032E0000E949818F7014585BE01635E7F4FC701B4
:1032F0000E9498184EE150E0B601C8010E94210CCE
:10330000F3E07F121EC082E3898384E08A83F701A1
:1033100096859B8397859C8390899D8391899E83C5
:1033200096E39F838887828D8987838D8A87848DA2
:103330008B87858D8C874CE050E0B601C8010E94D8
:10334000210C87E3898386E08A8391E09B8393E065
:103350009C838D838FE08E838AE38F838BE38887C2
:103360008FEF898749E050E0B601C8010E94210C27
:10337000C8010E941D0CAC960FB6F894DEBF0FBEBC
:10338000CDBFDF91CF911F910F91FF90EF90DF9014
:10339000CF90BF90AF909F908F907F9008952F9285
:1033A0003F924F925F926F927F928F929F92AF92D5
:1033B000BF92DF92EF92FF920F931F93CF93DF9311
:1033C000CDB7DEB7E4970FB6F894DEBF0FBECDBF22
:1033D0007C011A012B0139010E9495054B015C010A
:1033E00087010D5B1F4FC8010E94C30C18161906F8
:1033F000A4F00E949505DC01CB0188199909AA095E
:10340000BB09281639064A065B06F0F062E370E055
:1034100080E090E00E94C605E6CF42E250E0BE01A7
:103420006F5F7F4FC8010E945E0C8981823031F44A
:10343000F801848995898334910541F0D12CC80124
:103440000E94FF0B8D2D5FC18FEF5DC16D817E816D
:103450008F8198850E946D224B015C01F30160838E
:1034600071838283938346E050E0B701685F7F4FAA
:10347000CE014D960E946420892B99F4F70180813A
:103480009181A281B38188169906AA06BB0648F0ED
:1034900084819581A681B78188159905AA05BB0508
:1034A00028F4C8010E94FF0B80E02DC189899A8908
:1034B000AB89BC89F70186879787A08BB18B8EEC8F
:1034C000A82EB12CC8010E94350CF1E0AF1AB1084A
:1034D000C9F7D12CC70182969AA789A7F701B6969A
:1034E000FCA7EBA708969EA78DA73C974F0189964E
:1034F00098AB8FA73897FAABE9AB1701F6E12F0E1F
:10350000311CC5979CAB8BABC8010E94E50B18160C
:1035100019060CF094CFC8010E94350C8333910535
:1035200009F4CBC0FCF481309105C9F11CF4892B5E
:1035300059F3DDC083309105D1F1069709F0D7C06A
:10354000C8010E94350C5C0144E050E06BA97CA9E5
:10355000C8010E945E0C412C512CBB24F4E0AF1A30
:10356000B10840C08A33910509F47BC03CF485332F
:10357000910569F0C69709F440C0B9C08B33910535
:1035800009F485C08F3F910509F4BECFB0C0C801D2
:103590000E94350CC8010E94350CD82EB5CFC80149
:1035A0000E94350C44E050E069A97AA93AC0C801EC
:1035B0000E94350C5C0144E050E0B101C8010E945A
:1035C0005E0C412C512CBB2494E0A91AB1084A147A
:1035D0005B040CF099CFC8010E94350CEFEF4E1A36
:1035E0005E0AF5CF4A145B040CF08ECFC8010E942E
:1035F000350C8FEF481A580AF5CFC8010E94350CD8
:10360000B82EF701828D811110C0838D81110DC0FC
:10361000848D81110AC0858D811107C044E050E07E
:10362000B401C8010E945E0C6FCFEFA5F8A94080DD
:10363000518062807380B401CE0183960E94B108EC
:103640008DA19EA1AFA1B8A584159505A605B705C6
:1036500029F3BB2009F458CFC8010E94350CBA9455
:10366000F8CFC8010E94350C44E050E06BA57CA562
:10367000C8010E945E0CF70166A177A180A591A503
:103680000E946D2266A377A380A791A73DCFC801B2
:103690000E94350C44E050E06DA57EA5C8010E9453
:1036A0005E0CF70162A573A584A595A50E946D2205
:1036B00062A773A784A795A727CFC8010E94350CDE
:1036C00044E050E069A57AA5C8010E945E0CF701AC
:1036D00062A173A184A195A10E946D2262A373A32C
:1036E00084A395A366A777A780AB91AB0DCFC80144
:1036F0000E94350CB82EBB2009F406CFC8010E94E9
:10370000350CBA94F8CFE4960FB6F894DEBF0FBE2E
:10371000CDBFDF91CF911F910F91FF90EF90DF9080
:10372000BF90AF909F908F907F906F905F904F90E1
:103730003F902F9008952F923F924F925F926F92F9
:103740007F928F929F92AF92BF92CF92DF92EF9231
:10375000FF920F931F93CF93DF93CDB7DEB72797D9
:103760000FB6F894DEBF0FBECDBF8C0120ED37E061
:1037700040E050E061E070E080E090E00E943E18A0
:10378000D80114966D937D938D939C931797F801B0
:1037900060837183828393835801F3E4AF0EB11C7D
:1037A000C5010E94000C64E470E0C5010E94960C03
:1037B000882309F43CC10E9495052B013C01812C12
:1037C000912C1D82C8018E5B9F4F9F838E8343E0A7
:1037D000342E58EEC52E53E0D52EE12CF12C62E0AC
:1037E000262EAE81BF818C91833009F407C18111EF
:1037F00020C0F80184819581A681B7810196A11D21
:10380000B11D84839583A683B7830E9495056419AF
:10381000750986099709A70196010E942C22A90122
:1038200061E0C8010E94B81881E0AE81BF818C932D
:10383000C6C08430F9F4F80184819581A681B781EE
:103840000196A11DB11D84839583A683B7830E9431
:1038500095056419750986099709A70196010E94C3
:103860002C22A90163E0C8010E94B818AE81BF8173
:103870002C92A5C0813061F5F80142AD53AD64AD25
:1038800075AD9E012F5F3F4FC8010E94CF198D83F8
:10389000823009F094C089819A81AB81BC81F801A2
:1038A00084839583A683B7830E949505641975095F
:1038B00086099709A70196010E942C22A90163E0BD
:1038C000C8010E94B818ED81AE81BF81EC937EC023
:1038D000823009F074C0D801DA964D915D916D91F6
:1038E0007C91DD979E012F5F3F4FC8010E94CF1949
:1038F0008D83853009F05CC0EE81FF813082F80154
:1039000082A193A1A4A1B5A1892B8A2B8B2B41F471
:1039100084E893E0A0E0B0E082A393A3A4A3B5A3BE
:10392000F80186A197A1A0A5B1A5892B8A2B8B2B85
:1039300061F482A193A1A4A1B5A1B695A79597958D
:10394000879586A397A3A0A7B1A7F80182A593A501
:10395000A4A5B5A5892B8A2B8B2BA9F482A193A1B1
:10396000A4A1B5A1AC01BD0123E07695679557955B
:1039700047952A95D1F7841B950BA60BB70B82A709
:1039800093A7A4A7B5A7F80186A197A1A0A5B1A563
:1039900086A797A7A0ABB1AB82A593A5A4A5B5A513
:1039A00082AB93ABA4ABB5AB88248394912C0EC0AF
:1039B000FD81F63021F4AE81BF811C9207C0BD812C
:1039C000BF3F21F4EE81FF8110821D82F1E08F164E
:1039D000910409F406CF0E949505DC01CB018419FE
:1039E0009509A609B709F80126A937A940AD51AD37
:1039F000281739074A075B0708F0F3CEC5010E9474
:103A0000000CF80184819581A681B7810196A11DE2
:103A1000B11D84839583A683B7830E949505F80121
:103A2000FE966083718382839383C40102C080E029
:103A300090E027960FB6F894DEBF0FBECDBFDF91A2
:103A4000CF911F910F91FF90EF90DF90CF90BF909B
:103A5000AF909F908F907F906F905F904F903F902E
:103A60002F900895CF92DF92EF92FF920F931F93C2
:103A7000CF93DF93EC016B011AA21BA21CA21DA223
:103A80001EA21FA218A619A61AA61BA61CA61DA632
:103A90002EAB3FAB48AF59AFEAAEFBAE0CAF1DAF9C
:103AA0008C01085F1F4F86E0F80111928A95E9F7B3
:103AB000CE010E94651886E0F601D80101900D92B2
:103AC0008A95E1F7FE01EE5BFF4F1082CE01DF9198
:103AD000CF911F910F91FF90EF90DF90CF900C94BA
:103AE0009B1BCF92DF92EF92FF920F931F93CF9386
:103AF000DF93EC010E9495056B017C018E01025C55
:103B00001F4FF80180819181A281B381A7019601A5
:103B1000281B390B4A0B5B0BCA01B901683E33E025
:103B200073078105910508F441C028EE33E040E0B9
:103B300050E00E942C22C61AD70AE80AF90AF801B6
:103B4000C082D182E282F3828EA59FA5A8A9B9A9DD
:103B500069017A01CC0CDD1CEE1CFF1C8C159D0547
:103B6000AE05BF0528F41EA61FA618AA19AA08C0EC
:103B7000821B930BA40BB50B8EA79FA7A8ABB9AB69
:103B80008AA99BA9ACA9BDA98C159D05AE05BF0549
:103B900028F41AAA1BAA1CAA1DAA08C0821B930BF0
:103BA000A40BB50B8AAB9BABACABBDAB8EA59FA5F5
:103BB000A8A9B9A9892B8A2B8B2B69F4FE01EE5B8E
:103BC000FF4F8081833039F484E08083CE010E94EE
:103BD0009B1B019602C080E090E04AA95BA96CA9FA
:103BE0007DA9452B462B472B81F4FE01EE5BFF4F51
:103BF0002081233011F0211108C01082CE010E94D3
:103C00006518CE010E949B1B0396DF91CF911F91F7
:103C10000F91FF90EF90DF90CF900895CF93DF93B7
:103C20008230910510F482E090E0E091A305F091DC
:103C3000A40520E030E0C0E0D0E0309711F14081F1
:103C4000518148175907C0F04817590761F482811C
:103C50009381209719F09B838A832BC09093A405AE
:103C60008093A30526C02115310519F0421753078B
:103C700018F49A01BE01DF01EF010280F381E02D0B
:103C8000DCCF2115310509F1281B390B2430310512
:103C900090F412968D919C9113976115710521F006
:103CA000FB019383828304C09093A4058093A305B2
:103CB000FD01329644C0FD01E20FF31F8193919301
:103CC000225031092D933C933AC02091A1053091A7
:103CD000A205232B41F4209102013091030130937E
:103CE000A2052093A1052091000130910101211529
:103CF000310541F42DB73EB74091040150910501C3
:103D0000241B350BE091A105F091A205E217F30702
:103D1000A0F42E1B3F0B2817390778F0AC014E5F3B
:103D20005F4F2417350748F04E0F5F1F5093A205D1
:103D30004093A1058193919302C0E0E0F0E0CF01B0
:103D4000DF91CF9108950F931F93CF93DF93009747
:103D500009F48CC0FC013297138212820091A305F2
:103D60001091A4050115110581F420813181820F84
:103D7000931F2091A1053091A2052817390779F5E5
:103D8000F093A205E093A10571C0D80140E050E096
:103D9000AE17BF0750F412962D913C911397AD01C9
:103DA0002115310509F1D901F3CF9D01DA013383E2
:103DB000228360817181860F971F8217930769F4B0
:103DC000EC0128813981260F371F2E5F3F4F318349
:103DD00020838A819B8193838283452B29F4F093EE
:103DE000A405E093A30542C01396FC93EE931297AB
:103DF000ED01499159919E01240F351FE217F307F8
:103E000071F480819181840F951F029611969C9385
:103E10008E938281938113969C938E931297E0E008
:103E2000F0E0D80112968D919C911397009719F0AC
:103E3000F8018C01F6CF8D919C9198012E5F3F4F38
:103E4000820F931F2091A1053091A20528173907F1
:103E500069F4309729F41092A4051092A30502C0CA
:103E6000138212821093A2050093A105DF91CF91D6
:103E70001F910F9108958F929F92AF92BF92CF9210
:103E8000DF92EF92FF92CF93DF93EC01688179810B
:103E90008A819B81611571058105910521F464E298
:103EA00079ED8BE597E02DE133EF41E050E00E94A2
:103EB0004E2249015A019B01AC01A7EAB1E40E94DC
:103EC00074226B017C01ACEEB4EFA50194010E9459
:103ED0008222DC01CB018C0D9D1DAE1DBF1DB7FFE5
:103EE00003C00197A109B04888839983AA83BB8343
:103EF000BC01CD019F77DF91CF91FF90EF90DF90D4
:103F0000CF90BF90AF909F908F9008950E943B1FDD
:103F1000089586E091E00E943B1F0895609306019A
:103F20007093070180930801909309010895A0E020
:103F3000B0E0EDE9FFE10C948B22EC01009721F455
:103F4000CB010E940E1EB8C0FC01E60FF71F9C01BA
:103F500022503109E217F30708F4ACC0D9010D91E2
:103F60001C91119706171707B0F00530110508F4DA
:103F70009FC0C80104978617970708F499C002509C
:103F80001109061B170B019311936D937C93CF01BD
:103F90000E94A31E8DC05B01A01AB10A4C01800EC5
:103FA000911EA091A305B091A40540E050E0E12C42
:103FB000F12C109709F44AC0A815B905D1F56D90F8
:103FC0007C901197630182E0C80ED11CCA14DB04F7
:103FD00080F1A3014A195B096A0182E0C80ED11C75
:103FE0001296BC9012971396AC91B5E0CB16D10403
:103FF00040F0B282A38351834083D9016D937C93B7
:104000000AC00E5F1F4FC301800F911FF9019183FA
:104010008083EB2DFA2FE114F10431F0D7011396D0
:10402000FC93EE93129744C0F093A405E093A3058C
:104030003FC08D919C9111974817590708F4AC0126
:104040007D0112960D90BC91A02DB3CF8091A1055A
:104050009091A20588159905E1F446175707C8F411
:104060008091000190910101009741F48DB79EB7B6
:104070004091040150910501841B950BE817F90745
:10408000C8F4F093A205E093A105F9017183608360
:104090000FC0CB010E940E1E7C01009759F0A801B1
:1040A000BE010E947120CE010E94A31EC70104C060
:1040B000CE0102C080E090E0CDB7DEB7EEE00C9418
:1040C000A722F8940C94DB22FB01DC0104C08D9143
:1040D0000190801921F441505040C8F7881B990B7A
:1040E0000895FB01DC0102C001900D924150504047
:1040F000D8F70895FB01DC018D9101908019011022
:10410000D9F3990B0895FB01DC0101900D92002079
:10411000E1F708954532510520F4423010F00C9437
:104120009520FB011082CB010895BB27FB01552789
:10413000AA27880F991FAA1FA41710F0A41B839504
:104140005051B9F7A05DAA3308F0A95DA19300977B
:1041500079F7B111B1931192CB010C941C225058F4
:10416000BB27AA270E94C7200C94E2210E94D421D9
:1041700038F00E94DB2120F039F49F3F19F426F437
:104180000C94D1210EF4E095E7FB0C94CB21E92FA0
:104190000E94F32158F3BA17620773078407950743
:1041A00020F079F4A6F50C9415220EF4E0950B2E70
:1041B000BA2FA02D0B01B90190010C01CA01A00179
:1041C0001124FF27591B99F0593F50F4503E68F1D4
:1041D0001A16F040A22F232F342F4427585FF3CF15
:1041E000469537952795A795F0405395C9F77EF4E6
:1041F0001F16BA0B620B730B840BBAF09150A1F02F
:10420000FF0FBB1F661F771F881FC2F70EC0BA0FB4
:10421000621F731F841F48F4879577956795B7953C
:10422000F7959E3F08F0B0CF9395880F08F0992737
:10423000EE0F9795879508950E9430210C94E22106
:104240000E94DB2158F00E94D42140F029F45F3F06
:1042500029F00C94CB2151110C9416220C94D121ED
:104260000E94F32168F39923B1F3552391F3951B31
:10427000550BBB27AA2762177307840738F09F5F87
:104280005F4F220F331F441FAA1FA9F335D00E2EF4
:104290003AF0E0E832D091505040E695001CCAF761
:1042A0002BD0FE2F29D0660F771F881FBB1F261724
:1042B00037074807AB07B0E809F0BB0B802DBF01FB
:1042C000FF2793585F4F3AF09E3F510578F00C94CA
:1042D000CB210C9416225F3FE4F3983ED4F38695ED
:1042E00077956795B795F7959F5FC9F7880F911DEB
:1042F0009695879597F90895E1E0660F771F881FD7
:10430000BB1F621773078407BA0720F0621B730B89
:10431000840BBA0BEE1F88F7E0950895E89409C066
:1043200097FB3EF490958095709561957F4F8F4FE8
:104330009F4F9923A9F0F92F96E9BB279395F695FE
:10434000879577956795B795F111F8CFFAF4BB0F7C
:1043500011F460FF1BC06F5F7F4F8F4F9F4F16C0E0
:10436000882311F096E911C0772321F09EE8872F6A
:10437000762F05C0662371F096E8862F70E060E026
:104380002AF09A95660F771F881FDAF7880F96959F
:10439000879597F9089597F99F6780E870E060E046
:1043A00008959FEF80EC089500240A9416161706CE
:1043B00018060906089500240A9412161306140616
:1043C00005060895092E0394000C11F4882352F079
:1043D000BB0F40F4BF2B11F460FF04C06F5F7F4F31
:1043E0008F4F9F4F089557FD9058440F551F59F018
:1043F0005F3F71F04795880F97FB991F61F09F3FD2
:1044000079F087950895121613061406551FF2CFFA
:104410004695F1DF08C0161617061806991FF1CF4A
:1044200086957105610508940895E894BB27662771
:104430007727CB0197F90895DC01FC01672F719173
:104440007723E1F7329704C07C916D93708362917A
:10445000AE17BF07C8F30895A1E21A2EAA1BBB1B13
:10446000FD010DC0AA1FBB1FEE1FFF1FA217B30740
:10447000E407F50720F0A21BB30BE40BF50B661F56
:10448000771F881F991F1A9469F76095709580951A
:1044900090959B01AC01BD01CF010895052E97FBBE
:1044A0001EF400940E94652257FD07D00E942C2222
:1044B00007FC03D04EF40C9465225095409530953E
:1044C00021953F4F4F4F5F4F089590958095709580
:1044D00061957F4F8F4F9F4F0895692796276927D2
:1044E00078278727782708950E94C422A59F900DDA
:1044F000B49F900DA49F800D911D11240895B7FFC6
:104500000C9474220E947422821B930B08952F92A4
:104510003F924F925F926F927F928F929F92AF9253
:10452000BF92CF92DF92EF92FF920F931F93CF93A0
:10453000DF93CDB7DEB7CA1BDB0B0FB6F894DEBF37
:104540000FBECDBF09942A88398848885F846E845D
:104550007D848C849B84AA84B984C884DF80EE80A7
:10456000FD800C811B81AA81B981CE0FD11D0FB6B0
:10457000F894DEBF0FBECDBFED010895EE0FFF1F13
:104580000590F491E02D0994A29FB001B39FC00162
:10459000A39F700D811D1124911DB29F700D811D6F
:1045A0001124911D0895F999FECF92BD81BDF89A0D
:1045B000992780B5089510E0C4E6D0E004C0FE015C
:1045C0000E94BE222196C536D107C9F7F894FFCFC5
:1045D0000000A505200001000000BA22B922B8227F
:1045E00001005E00000052756E6E696E67205365B3
:1045F0007475702E2E004661696C656420746F209E
:10460000636F6E6669677572652045746865726E62
:104610006574207573696E6720444843502C20727E
:10462000657374617274696E6720736B6574636817
:104630002E2E2E00436F6E66696775726564204981
:10464000503A0052756E6E696E67205365747570CE
:104650002E2E2E00436F6E74656E7473206F66206D
:104660007468652073656E736F7241727261792E22
:104670006D61633A00496E646976696475616C20A6
:1046800076616C7565733A0054696D6520746F20AE
:1046900072756E207468652053657475700052657C
:1046A00073657474696E6720426F6F746C6F6164B8
:1046B00065722E2E00706F6B65004927766520624B
:1046C00065656E20706F6B65642100736E6170525A
:1046D000656C61795F6F6E00736E617052656C61BD
:1046E000795F6F666600736E617076325F305F6F00
:1046F0006E00736E617076325F30206F6E00736E85
:10470000617076325F305F6F666600736E617076DF
:10471000325F30206F666600736E617076325F3193
:104720005F6F6E00736E617076325F31206F6E0066
:10473000736E617076325F315F6F666600736E61B3
:104740007076325F31206F666600736E617076320C
:104750005F325F6F6E00736E617076325F32206F12
:104760006E00736E617076325F325F6F66660073E3
:104770006E617076325F32206F666600736E6170B4
:1047800076325F335F6F6E00736E617076325F33C7
:10479000206F6E00736E617076325F335F6F666696
:1047A00000736E617076325F33206F666600464537
:1047B0004D5F6F6E0046454D5F6F66660050414D20
:1047C0005F6F6E0050414D206F6E0050414D5F6F26
:1047D00066660072657365740049276D20746865AC
:1047E0002073656E736F726C65737320736B657481
:1047F00063682121212121200055445020706163EC
:104800006B65742073656E742E2E2E004C6F6F7066
:10481000732072756E7320666F72000D0A006E61F0
:104820006E00696E66006F76660000000000590831
:1048300000000000770AD606170A550AE909030A9C
:10484000F50900000000E90B210CD306FF0BE50B76
:10485000350C7D0C960C1B0D000C150CC70D1D0C9A
:10486000C30C5E0CCA0BD10BE10B57495A6E657431
:02487000000046
:00000001FF
